{
  "_format": "hh-sol-artifact-1",
  "contractName": "ISNADStakingV3",
  "sourceName": "contracts/ISNADStakingV3.sol",
  "abi": [
    {
      "inputs": [
        {
          "internalType": "address",
          "name": "_token",
          "type": "address"
        },
        {
          "internalType": "address",
          "name": "admin",
          "type": "address"
        },
        {
          "internalType": "uint256",
          "name": "_maxStakePerAuditor",
          "type": "uint256"
        }
      ],
      "stateMutability": "nonpayable",
      "type": "constructor"
    },
    {
      "inputs": [],
      "name": "AccessControlBadConfirmation",
      "type": "error"
    },
    {
      "inputs": [
        {
          "internalType": "address",
          "name": "account",
          "type": "address"
        },
        {
          "internalType": "bytes32",
          "name": "neededRole",
          "type": "bytes32"
        }
      ],
      "name": "AccessControlUnauthorizedAccount",
      "type": "error"
    },
    {
      "inputs": [],
      "name": "ReentrancyGuardReentrantCall",
      "type": "error"
    },
    {
      "inputs": [
        {
          "internalType": "address",
          "name": "token",
          "type": "address"
        }
      ],
      "name": "SafeERC20FailedOperation",
      "type": "error"
    },
    {
      "anonymous": false,
      "inputs": [
        {
          "indexed": false,
          "internalType": "uint256",
          "name": "oldValue",
          "type": "uint256"
        },
        {
          "indexed": false,
          "internalType": "uint256",
          "name": "newValue",
          "type": "uint256"
        }
      ],
      "name": "MaxStakePerAuditorUpdated",
      "type": "event"
    },
    {
      "anonymous": false,
      "inputs": [
        {
          "indexed": true,
          "internalType": "address",
          "name": "account",
          "type": "address"
        },
        {
          "indexed": false,
          "internalType": "uint256",
          "name": "until",
          "type": "uint256"
        }
      ],
      "name": "Paused",
      "type": "event"
    },
    {
      "anonymous": false,
      "inputs": [
        {
          "indexed": true,
          "internalType": "bytes32",
          "name": "role",
          "type": "bytes32"
        },
        {
          "indexed": true,
          "internalType": "bytes32",
          "name": "previousAdminRole",
          "type": "bytes32"
        },
        {
          "indexed": true,
          "internalType": "bytes32",
          "name": "newAdminRole",
          "type": "bytes32"
        }
      ],
      "name": "RoleAdminChanged",
      "type": "event"
    },
    {
      "anonymous": false,
      "inputs": [
        {
          "indexed": true,
          "internalType": "bytes32",
          "name": "role",
          "type": "bytes32"
        },
        {
          "indexed": true,
          "internalType": "address",
          "name": "account",
          "type": "address"
        },
        {
          "indexed": true,
          "internalType": "address",
          "name": "sender",
          "type": "address"
        }
      ],
      "name": "RoleGranted",
      "type": "event"
    },
    {
      "anonymous": false,
      "inputs": [
        {
          "indexed": true,
          "internalType": "bytes32",
          "name": "role",
          "type": "bytes32"
        },
        {
          "indexed": true,
          "internalType": "address",
          "name": "account",
          "type": "address"
        },
        {
          "indexed": true,
          "internalType": "address",
          "name": "sender",
          "type": "address"
        }
      ],
      "name": "RoleRevoked",
      "type": "event"
    },
    {
      "anonymous": false,
      "inputs": [
        {
          "indexed": true,
          "internalType": "bytes32",
          "name": "attestationId",
          "type": "bytes32"
        },
        {
          "indexed": true,
          "internalType": "address",
          "name": "auditor",
          "type": "address"
        },
        {
          "indexed": true,
          "internalType": "bytes32",
          "name": "resourceHash",
          "type": "bytes32"
        },
        {
          "indexed": false,
          "internalType": "uint256",
          "name": "amount",
          "type": "uint256"
        }
      ],
      "name": "Slashed",
      "type": "event"
    },
    {
      "anonymous": false,
      "inputs": [
        {
          "indexed": true,
          "internalType": "bytes32",
          "name": "attestationId",
          "type": "bytes32"
        },
        {
          "indexed": true,
          "internalType": "address",
          "name": "auditor",
          "type": "address"
        },
        {
          "indexed": true,
          "internalType": "bytes32",
          "name": "resourceHash",
          "type": "bytes32"
        },
        {
          "indexed": false,
          "internalType": "uint256",
          "name": "amount",
          "type": "uint256"
        },
        {
          "indexed": false,
          "internalType": "uint256",
          "name": "lockUntil",
          "type": "uint256"
        },
        {
          "indexed": false,
          "internalType": "uint256",
          "name": "lockDuration",
          "type": "uint256"
        }
      ],
      "name": "Staked",
      "type": "event"
    },
    {
      "anonymous": false,
      "inputs": [
        {
          "indexed": true,
          "internalType": "address",
          "name": "account",
          "type": "address"
        }
      ],
      "name": "Unpaused",
      "type": "event"
    },
    {
      "anonymous": false,
      "inputs": [
        {
          "indexed": true,
          "internalType": "bytes32",
          "name": "attestationId",
          "type": "bytes32"
        },
        {
          "indexed": true,
          "internalType": "address",
          "name": "auditor",
          "type": "address"
        },
        {
          "indexed": false,
          "internalType": "uint256",
          "name": "amount",
          "type": "uint256"
        }
      ],
      "name": "Unstaked",
      "type": "event"
    },
    {
      "inputs": [],
      "name": "DEFAULT_ADMIN_ROLE",
      "outputs": [
        {
          "internalType": "bytes32",
          "name": "",
          "type": "bytes32"
        }
      ],
      "stateMutability": "view",
      "type": "function"
    },
    {
      "inputs": [],
      "name": "MAX_LOCK_DURATION",
      "outputs": [
        {
          "internalType": "uint256",
          "name": "",
          "type": "uint256"
        }
      ],
      "stateMutability": "view",
      "type": "function"
    },
    {
      "inputs": [],
      "name": "MAX_MAX_STAKE",
      "outputs": [
        {
          "internalType": "uint256",
          "name": "",
          "type": "uint256"
        }
      ],
      "stateMutability": "view",
      "type": "function"
    },
    {
      "inputs": [],
      "name": "MAX_PAUSE_DURATION",
      "outputs": [
        {
          "internalType": "uint256",
          "name": "",
          "type": "uint256"
        }
      ],
      "stateMutability": "view",
      "type": "function"
    },
    {
      "inputs": [],
      "name": "MAX_STAKE_PERCENT",
      "outputs": [
        {
          "internalType": "uint256",
          "name": "",
          "type": "uint256"
        }
      ],
      "stateMutability": "view",
      "type": "function"
    },
    {
      "inputs": [],
      "name": "MEDIUM_LOCK_DURATION",
      "outputs": [
        {
          "internalType": "uint256",
          "name": "",
          "type": "uint256"
        }
      ],
      "stateMutability": "view",
      "type": "function"
    },
    {
      "inputs": [],
      "name": "MIN_LOCK_DURATION",
      "outputs": [
        {
          "internalType": "uint256",
          "name": "",
          "type": "uint256"
        }
      ],
      "stateMutability": "view",
      "type": "function"
    },
    {
      "inputs": [],
      "name": "MIN_MAX_STAKE",
      "outputs": [
        {
          "internalType": "uint256",
          "name": "",
          "type": "uint256"
        }
      ],
      "stateMutability": "view",
      "type": "function"
    },
    {
      "inputs": [],
      "name": "ORACLE_ROLE",
      "outputs": [
        {
          "internalType": "bytes32",
          "name": "",
          "type": "bytes32"
        }
      ],
      "stateMutability": "view",
      "type": "function"
    },
    {
      "inputs": [],
      "name": "PAUSER_ROLE",
      "outputs": [
        {
          "internalType": "bytes32",
          "name": "",
          "type": "bytes32"
        }
      ],
      "stateMutability": "view",
      "type": "function"
    },
    {
      "inputs": [],
      "name": "TIER_1_THRESHOLD",
      "outputs": [
        {
          "internalType": "uint256",
          "name": "",
          "type": "uint256"
        }
      ],
      "stateMutability": "view",
      "type": "function"
    },
    {
      "inputs": [],
      "name": "TIER_2_THRESHOLD",
      "outputs": [
        {
          "internalType": "uint256",
          "name": "",
          "type": "uint256"
        }
      ],
      "stateMutability": "view",
      "type": "function"
    },
    {
      "inputs": [],
      "name": "TIER_3_THRESHOLD",
      "outputs": [
        {
          "internalType": "uint256",
          "name": "",
          "type": "uint256"
        }
      ],
      "stateMutability": "view",
      "type": "function"
    },
    {
      "inputs": [
        {
          "internalType": "bytes32",
          "name": "",
          "type": "bytes32"
        }
      ],
      "name": "attestations",
      "outputs": [
        {
          "internalType": "address",
          "name": "auditor",
          "type": "address"
        },
        {
          "internalType": "bytes32",
          "name": "resourceHash",
          "type": "bytes32"
        },
        {
          "internalType": "uint256",
          "name": "amount",
          "type": "uint256"
        },
        {
          "internalType": "uint256",
          "name": "lockUntil",
          "type": "uint256"
        },
        {
          "internalType": "uint256",
          "name": "lockDuration",
          "type": "uint256"
        },
        {
          "internalType": "bool",
          "name": "slashed",
          "type": "bool"
        }
      ],
      "stateMutability": "view",
      "type": "function"
    },
    {
      "inputs": [
        {
          "internalType": "address",
          "name": "",
          "type": "address"
        },
        {
          "internalType": "uint256",
          "name": "",
          "type": "uint256"
        }
      ],
      "name": "auditorAttestations",
      "outputs": [
        {
          "internalType": "bytes32",
          "name": "",
          "type": "bytes32"
        }
      ],
      "stateMutability": "view",
      "type": "function"
    },
    {
      "inputs": [
        {
          "internalType": "address",
          "name": "",
          "type": "address"
        },
        {
          "internalType": "bytes32",
          "name": "",
          "type": "bytes32"
        }
      ],
      "name": "auditorResourceStake",
      "outputs": [
        {
          "internalType": "uint256",
          "name": "",
          "type": "uint256"
        }
      ],
      "stateMutability": "view",
      "type": "function"
    },
    {
      "inputs": [
        {
          "internalType": "address",
          "name": "",
          "type": "address"
        }
      ],
      "name": "auditorTotalStake",
      "outputs": [
        {
          "internalType": "uint256",
          "name": "",
          "type": "uint256"
        }
      ],
      "stateMutability": "view",
      "type": "function"
    },
    {
      "inputs": [
        {
          "internalType": "bytes32",
          "name": "attestationId",
          "type": "bytes32"
        }
      ],
      "name": "getAttestation",
      "outputs": [
        {
          "internalType": "address",
          "name": "auditor",
          "type": "address"
        },
        {
          "internalType": "bytes32",
          "name": "resourceHash",
          "type": "bytes32"
        },
        {
          "internalType": "uint256",
          "name": "amount",
          "type": "uint256"
        },
        {
          "internalType": "uint256",
          "name": "lockUntil",
          "type": "uint256"
        },
        {
          "internalType": "uint256",
          "name": "lockDuration",
          "type": "uint256"
        },
        {
          "internalType": "bool",
          "name": "slashed",
          "type": "bool"
        }
      ],
      "stateMutability": "view",
      "type": "function"
    },
    {
      "inputs": [
        {
          "internalType": "address",
          "name": "auditor",
          "type": "address"
        }
      ],
      "name": "getAuditorAttestations",
      "outputs": [
        {
          "internalType": "bytes32[]",
          "name": "",
          "type": "bytes32[]"
        }
      ],
      "stateMutability": "view",
      "type": "function"
    },
    {
      "inputs": [
        {
          "internalType": "bytes32",
          "name": "resourceHash",
          "type": "bytes32"
        }
      ],
      "name": "getResourceAttestations",
      "outputs": [
        {
          "internalType": "bytes32[]",
          "name": "",
          "type": "bytes32[]"
        }
      ],
      "stateMutability": "view",
      "type": "function"
    },
    {
      "inputs": [
        {
          "internalType": "bytes32",
          "name": "role",
          "type": "bytes32"
        }
      ],
      "name": "getRoleAdmin",
      "outputs": [
        {
          "internalType": "bytes32",
          "name": "",
          "type": "bytes32"
        }
      ],
      "stateMutability": "view",
      "type": "function"
    },
    {
      "inputs": [
        {
          "internalType": "bytes32",
          "name": "resourceHash",
          "type": "bytes32"
        }
      ],
      "name": "getTrustScore",
      "outputs": [
        {
          "internalType": "uint256",
          "name": "score",
          "type": "uint256"
        }
      ],
      "stateMutability": "view",
      "type": "function"
    },
    {
      "inputs": [
        {
          "internalType": "bytes32",
          "name": "resourceHash",
          "type": "bytes32"
        }
      ],
      "name": "getTrustTier",
      "outputs": [
        {
          "internalType": "uint8",
          "name": "tier",
          "type": "uint8"
        }
      ],
      "stateMutability": "view",
      "type": "function"
    },
    {
      "inputs": [
        {
          "internalType": "bytes32",
          "name": "role",
          "type": "bytes32"
        },
        {
          "internalType": "address",
          "name": "account",
          "type": "address"
        }
      ],
      "name": "grantRole",
      "outputs": [],
      "stateMutability": "nonpayable",
      "type": "function"
    },
    {
      "inputs": [
        {
          "internalType": "bytes32",
          "name": "role",
          "type": "bytes32"
        },
        {
          "internalType": "address",
          "name": "account",
          "type": "address"
        }
      ],
      "name": "hasRole",
      "outputs": [
        {
          "internalType": "bool",
          "name": "",
          "type": "bool"
        }
      ],
      "stateMutability": "view",
      "type": "function"
    },
    {
      "inputs": [],
      "name": "maxStakePerAuditor",
      "outputs": [
        {
          "internalType": "uint256",
          "name": "",
          "type": "uint256"
        }
      ],
      "stateMutability": "view",
      "type": "function"
    },
    {
      "inputs": [
        {
          "internalType": "uint256",
          "name": "duration",
          "type": "uint256"
        }
      ],
      "name": "pause",
      "outputs": [],
      "stateMutability": "nonpayable",
      "type": "function"
    },
    {
      "inputs": [],
      "name": "paused",
      "outputs": [
        {
          "internalType": "bool",
          "name": "",
          "type": "bool"
        }
      ],
      "stateMutability": "view",
      "type": "function"
    },
    {
      "inputs": [],
      "name": "pausedUntil",
      "outputs": [
        {
          "internalType": "uint256",
          "name": "",
          "type": "uint256"
        }
      ],
      "stateMutability": "view",
      "type": "function"
    },
    {
      "inputs": [
        {
          "internalType": "bytes32",
          "name": "role",
          "type": "bytes32"
        },
        {
          "internalType": "address",
          "name": "callerConfirmation",
          "type": "address"
        }
      ],
      "name": "renounceRole",
      "outputs": [],
      "stateMutability": "nonpayable",
      "type": "function"
    },
    {
      "inputs": [
        {
          "internalType": "bytes32",
          "name": "",
          "type": "bytes32"
        },
        {
          "internalType": "uint256",
          "name": "",
          "type": "uint256"
        }
      ],
      "name": "resourceAttestations",
      "outputs": [
        {
          "internalType": "bytes32",
          "name": "",
          "type": "bytes32"
        }
      ],
      "stateMutability": "view",
      "type": "function"
    },
    {
      "inputs": [
        {
          "internalType": "bytes32",
          "name": "",
          "type": "bytes32"
        }
      ],
      "name": "resourceTotalStake",
      "outputs": [
        {
          "internalType": "uint256",
          "name": "",
          "type": "uint256"
        }
      ],
      "stateMutability": "view",
      "type": "function"
    },
    {
      "inputs": [
        {
          "internalType": "bytes32",
          "name": "role",
          "type": "bytes32"
        },
        {
          "internalType": "address",
          "name": "account",
          "type": "address"
        }
      ],
      "name": "revokeRole",
      "outputs": [],
      "stateMutability": "nonpayable",
      "type": "function"
    },
    {
      "inputs": [
        {
          "internalType": "uint256",
          "name": "newMax",
          "type": "uint256"
        }
      ],
      "name": "setMaxStakePerAuditor",
      "outputs": [],
      "stateMutability": "nonpayable",
      "type": "function"
    },
    {
      "inputs": [
        {
          "internalType": "bytes32",
          "name": "attestationId",
          "type": "bytes32"
        }
      ],
      "name": "slash",
      "outputs": [],
      "stateMutability": "nonpayable",
      "type": "function"
    },
    {
      "inputs": [
        {
          "internalType": "bytes32",
          "name": "resourceHash",
          "type": "bytes32"
        },
        {
          "internalType": "uint256",
          "name": "amount",
          "type": "uint256"
        },
        {
          "internalType": "uint256",
          "name": "lockDuration",
          "type": "uint256"
        }
      ],
      "name": "stake",
      "outputs": [
        {
          "internalType": "bytes32",
          "name": "attestationId",
          "type": "bytes32"
        }
      ],
      "stateMutability": "nonpayable",
      "type": "function"
    },
    {
      "inputs": [
        {
          "internalType": "bytes4",
          "name": "interfaceId",
          "type": "bytes4"
        }
      ],
      "name": "supportsInterface",
      "outputs": [
        {
          "internalType": "bool",
          "name": "",
          "type": "bool"
        }
      ],
      "stateMutability": "view",
      "type": "function"
    },
    {
      "inputs": [],
      "name": "token",
      "outputs": [
        {
          "internalType": "contract IERC20",
          "name": "",
          "type": "address"
        }
      ],
      "stateMutability": "view",
      "type": "function"
    },
    {
      "inputs": [],
      "name": "totalStaked",
      "outputs": [
        {
          "internalType": "uint256",
          "name": "",
          "type": "uint256"
        }
      ],
      "stateMutability": "view",
      "type": "function"
    },
    {
      "inputs": [],
      "name": "unpause",
      "outputs": [],
      "stateMutability": "nonpayable",
      "type": "function"
    },
    {
      "inputs": [
        {
          "internalType": "bytes32",
          "name": "attestationId",
          "type": "bytes32"
        }
      ],
      "name": "unstake",
      "outputs": [],
      "stateMutability": "nonpayable",
      "type": "function"
    }
  ],
  "bytecode": "0x60a060405234801562000010575f80fd5b5060405162001e5738038062001e57833981016040819052620000339162000287565b60015f556001600160a01b038316620000935760405162461bcd60e51b815260206004820152601560248201527f496e76616c696420746f6b656e2061646472657373000000000000000000000060448201526064015b60405180910390fd5b6001600160a01b038216620000eb5760405162461bcd60e51b815260206004820152601560248201527f496e76616c69642061646d696e2061646472657373000000000000000000000060448201526064016200008a565b683635c9adc5dea00000811015620001365760405162461bcd60e51b815260206004820152600d60248201526c42656c6f77206d696e696d756d60981b60448201526064016200008a565b69d3c21bcecceda1000000811115620001825760405162461bcd60e51b815260206004820152600d60248201526c41626f7665206d6178696d756d60981b60448201526064016200008a565b6001600160a01b0383166080526003819055620001a05f83620001d7565b50620001cd7f65d7a28e3265b37a6474929f336521b332c1681b933f6cb9f3376673440d862a83620001d7565b50505050620002c5565b5f8281526001602090815260408083206001600160a01b038516845290915281205460ff1662000262575f8381526001602081815260408084206001600160a01b0387168086529252808420805460ff19169093179092559051339286917f2f8788117e7eff1d82e926ec794901d17c78024a50270940304540a733656f0d9190a450600162000265565b505f5b92915050565b80516001600160a01b038116811462000282575f80fd5b919050565b5f805f606084860312156200029a575f80fd5b620002a5846200026b565b9250620002b5602085016200026b565b9150604084015190509250925092565b608051611b64620002f35f395f818161060501528181610c8d015281816110f801526115330152611b645ff3fe608060405234801561000f575f80fd5b5060043610610249575f3560e01c8063817b1cd211610140578063cd1f6206116100bf578063ee65495511610084578063ee65495514610539578063ef2f90cf146105be578063f415ed14146105ce578063f4f2d034146105e1578063fc0c546a14610600578063fc879cd41461063f575f80fd5b8063cd1f620614610549578063d547741f14610551578063da748b1014610564578063dc9ad57e1461056d578063e63ab1e914610597575f80fd5b8063a217fddf11610105578063a217fddf146104c1578063a2cb50ad146104c8578063a3112a64146104db578063a5bb635514610530578063cb9ea33714610539575f80fd5b8063817b1cd2146103e75780638e7d8d18146103f057806391d1485414610415578063940992a3146104285780639f93930d146104b0575f80fd5b80632f2ff15d116101cc5780635523ad2d116101915780635523ad2d146103a45780635c975abb146103b75780636fa8a7a7146103c157806371ed5d1a146103d457806378b4330f14610325575f80fd5b80632f2ff15d1461036257806336568abe146103755780633f4ba83a14610388578063463e5808146103905780634f1bfc9e1461039a575f80fd5b8063228a5ab011610212578063228a5ab0146102ef578063248a9ca3146103025780632799657d1461032557806327f8e0e91461032f5780632daedd521461034f575f80fd5b8062bb6e921461024d57806301ffc9a71461027157806307e2cea514610294578063122ca506146102bb578063136439dd146102da575b5f80fd5b61025e69021e19e0c9bab240000081565b6040519081526020015b60405180910390f35b61028461027f366004611917565b610652565b6040519015158152602001610268565b61025e7f68e79a7bf1e0bc45d0a330c573bc367f9cf464fd326078812f301165fbda4ef181565b61025e6102c936600461193e565b60056020525f908152604090205481565b6102ed6102e836600461193e565b610688565b005b61025e6102fd366004611970565b610750565b61025e61031036600461193e565b5f908152600160208190526040909120015490565b61025e62093a8081565b61034261033d36600461193e565b61077b565b6040516102689190611998565b61025e61035d3660046119db565b6107da565b6102ed610370366004611a04565b610d17565b6102ed610383366004611a04565b610d42565b6102ed610d7a565b61025e62278d0081565b61025e6276a70081565b6102ed6103b236600461193e565b610e13565b6002544210610284565b61025e6103cf366004611a2e565b610f00565b6102ed6103e236600461193e565b610f19565b61025e600a5481565b6104036103fe36600461193e565b611165565b60405160ff9091168152602001610268565b610284610423366004611a04565b61121d565b61047761043636600461193e565b600460208190525f91825260409091208054600182015460028301546003840154948401546005909401546001600160a01b03909316949193909260ff1686565b604080516001600160a01b03909716875260208701959095529385019290925260608401526080830152151560a082015260c001610268565b61025e69d3c21bcecceda100000081565b61025e5f81565b61025e6104d636600461193e565b611247565b6104776104e936600461193e565b5f8181526004602081905260409091208054600182015460028301546003840154948401546005909401546001600160a01b03909316949193909260ff1691939550919395565b61025e60035481565b61025e683635c9adc5dea0000081565b61025e602181565b6102ed61055f366004611a04565b611358565b61025e60025481565b61025e61057b366004611970565b600760209081525f928352604080842090915290825290205481565b61025e7f65d7a28e3265b37a6474929f336521b332c1681b933f6cb9f3376673440d862a81565b61025e68056bc75e2d6310000081565b6102ed6105dc36600461193e565b61137d565b61025e6105ef366004611a4e565b60066020525f908152604090205481565b6106277f000000000000000000000000000000000000000000000000000000000000000081565b6040516001600160a01b039091168152602001610268565b61034261064d366004611a4e565b611660565b5f6001600160e01b03198216637965db0b60e01b148061068257506301ffc9a760e01b6001600160e01b03198316145b92915050565b7f65d7a28e3265b37a6474929f336521b332c1681b933f6cb9f3376673440d862a6106b2816116c7565b5f821180156106c4575062093a808211155b6107085760405162461bcd60e51b815260206004820152601060248201526f24b73b30b634b210323ab930ba34b7b760811b60448201526064015b60405180910390fd5b6107128242611a7b565b600281905560405190815233907fab40a374bc51de372200a8bc981af8c9ecdc08dfdaef0bb6e09f88f3c616ef3d9060200160405180910390a25050565b6008602052815f5260405f208181548110610769575f80fd5b905f5260205f20015f91509150505481565b5f818152600960209081526040918290208054835181840281018401909452808452606093928301828280156107ce57602002820191905f5260205f20905b8154815260200190600101908083116107ba575b50505050509050919050565b5f6107e36116d1565b60025442101561082a5760405162461bcd60e51b815260206004820152601260248201527110dbdb9d1c9858dd081a5cc81c185d5cd95960721b60448201526064016106ff565b8361086f5760405162461bcd60e51b8152602060048201526015602482015274092dcecc2d8d2c840e4cae6deeae4c6ca40d0c2e6d605b1b60448201526064016106ff565b5f83116108be5760405162461bcd60e51b815260206004820152601760248201527f416d6f756e74206d75737420626520706f73697469766500000000000000000060448201526064016106ff565b62093a808210156109025760405162461bcd60e51b815260206004820152600e60248201526d131bd8dac81d1bdbc81cda1bdc9d60921b60448201526064016106ff565b6276a7008211156109455760405162461bcd60e51b815260206004820152600d60248201526c4c6f636b20746f6f206c6f6e6760981b60448201526064016106ff565b600354335f90815260066020526040902054610962908590611a7b565b11156109b05760405162461bcd60e51b815260206004820152601d60248201527f45786365656473206d6178207374616b65207065722061756469746f7200000060448201526064016106ff565b5f84815260056020908152604080832054338452600783528184208885529092528220549091906109e19083611a8e565b90508015610a8b57335f908152600760209081526040808320898452909152812054610a0e908790611a7b565b90505f610a1b8785611a7b565b90505f81610a2a846064611aa1565b610a349190611ab8565b90506021811115610a875760405162461bcd60e51b815260206004820152601960248201527f45786365656473206d6178207374616b652070657263656e740000000000000060448201526064016106ff565b5050505b6040516bffffffffffffffffffffffff193360601b166020820152603481018790524260548201526074810186905260940160408051601f1981840301815291815281516020928301205f818152600490935291206002015490935015610b295760405162461bcd60e51b81526020600482015260126024820152714174746573746174696f6e2065786973747360701b60448201526064016106ff565b5f610b348542611a7b565b6040805160c08101825233815260208082018b81528284018b815260608401868152608085018c81525f60a087018181528d82526004808852898320985189546001600160a01b0319166001600160a01b039091161789559551600189015593516002880155915160038701555192850192909255516005938401805460ff19169115159190911790558b815291905290812080549293508892909190610bdc908490611a7b565b9091555050335f9081526006602052604081208054889290610bff908490611a7b565b9091555050335f9081526007602090815260408083208a845290915281208054889290610c2d908490611a7b565b9250508190555085600a5f828254610c459190611a7b565b9091555050335f818152600860209081526040808320805460018181018355918552838520018990558b845260098352908320805491820181558352912001859055610cbd907f00000000000000000000000000000000000000000000000000000000000000006001600160a01b03169030896116f9565b60408051878152602081018390529081018690528790339086907fd8762e24c29612970b3384043c845795cd1b5d9d6337723d06ad4af04399f1ff9060600160405180910390a4505050610d1060015f55565b9392505050565b5f8281526001602081905260409091200154610d32816116c7565b610d3c8383611760565b50505050565b6001600160a01b0381163314610d6b5760405163334bd91960e11b815260040160405180910390fd5b610d7582826117d6565b505050565b7f65d7a28e3265b37a6474929f336521b332c1681b933f6cb9f3376673440d862a610da4816116c7565b6002544210610de25760405162461bcd60e51b815260206004820152600a602482015269139bdd081c185d5cd95960b21b60448201526064016106ff565b5f600281905560405133917f5db9ee0a495bf2e6ff9c91a7834c1ba4fdd244a5e8aa4e537bd38aeae4b073aa91a250565b5f610e1d816116c7565b683635c9adc5dea00000821015610e6b5760405162461bcd60e51b815260206004820152601260248201527142656c6f77206d696e696d756d2028314b2960701b60448201526064016106ff565b69d3c21bcecceda1000000821115610eba5760405162461bcd60e51b815260206004820152601260248201527141626f7665206d6178696d756d2028314d2960701b60448201526064016106ff565b600380549083905560408051828152602081018590527fa40c99a74f2146ad8ad1011ac9aa74a75f35626fe9874bc273b4466b3bc7628b910160405180910390a1505050565b6009602052815f5260405f208181548110610769575f80fd5b610f216116d1565b5f81815260046020526040902080546001600160a01b03163314610f7e5760405162461bcd60e51b81526020600482015260146024820152732737ba103cb7bab91030ba3a32b9ba30ba34b7b760611b60448201526064016106ff565b600581015460ff1615610fc95760405162461bcd60e51b8152602060048201526013602482015272105d1d195cdd185d1a5bdb881cdb185cda1959606a1b60448201526064016106ff565b5f81600201541161100d5760405162461bcd60e51b815260206004820152600e60248201526d139bc81cdd185ad948199bdd5b9960921b60448201526064016106ff565b80600301544210156110505760405162461bcd60e51b815260206004820152600c60248201526b14dd1a5b1b081b1bd8dad95960a21b60448201526064016106ff565b600281015460018201545f8181526005602052604081208054849290611077908490611a8e565b9091555050335f908152600660205260408120805484929061109a908490611a8e565b9091555050335f908152600760209081526040808320848452909152812080548492906110c8908490611a8e565b9250508190555081600a5f8282546110e09190611a8e565b90915550505f600284015561111f6001600160a01b037f0000000000000000000000000000000000000000000000000000000000000000163384611841565b604051828152339085907f5bbf885d89157861119229ac0c3d414dabf442fea99c8ccaee143d33ed15f2379060200160405180910390a350505061116260015f55565b50565b60405163a2cb50ad60e01b8152600481018290525f908190309063a2cb50ad90602401602060405180830381865afa1580156111a3573d5f803e3d5ffd5b505050506040513d601f19601f820116820180604052508101906111c79190611ad7565b905069021e19e0c9bab240000081106111e35750600392915050565b683635c9adc5dea0000081106111fc5750600292915050565b68056bc75e2d6310000081106112155750600192915050565b505f92915050565b5f9182526001602090815260408084206001600160a01b0393909316845291905290205460ff1690565b5f8181526009602090815260408083208054825181850281018501909352808352849383018282801561129757602002820191905f5260205f20905b815481526020019060010190808311611283575b505050505090505f5b8151811015611351575f60045f8484815181106112bf576112bf611aee565b602002602001015181526020019081526020015f2090505f81600201541180156112ee5750600581015460ff16155b156113485760048101546064906276a7001161130c575060c861131e565b62278d0082600401541061131e575060965b60648183600201546113309190611aa1565b61133a9190611ab8565b6113449086611a7b565b9450505b506001016112a0565b5050919050565b5f8281526001602081905260409091200154611373816116c7565b610d3c83836117d6565b7f68e79a7bf1e0bc45d0a330c573bc367f9cf464fd326078812f301165fbda4ef16113a7816116c7565b6113af6116d1565b5f828152600460205260409020600581015460ff16156114035760405162461bcd60e51b815260206004820152600f60248201526e105b1c9958591e481cdb185cda1959608a1b60448201526064016106ff565b5f8160020154116114475760405162461bcd60e51b815260206004820152600e60248201526d139bc81cdd185ad948199bdd5b9960921b60448201526064016106ff565b60028101805482546001808501546005808701805460ff19169093179092555f9485905580855260209190915260408420805493946001600160a01b039093169391928592611497908490611a8e565b90915550506001600160a01b0382165f90815260066020526040812080548592906114c3908490611a8e565b90915550506001600160a01b0382165f908152600760209081526040808320848452909152812080548592906114fa908490611a8e565b9250508190555082600a5f8282546115129190611a8e565b9091555050604051306024820152604481018490525f906001600160a01b037f0000000000000000000000000000000000000000000000000000000000000000169060640160408051601f198184030181529181526020820180516001600160e01b031663079cc67960e41b1790525161158c9190611b02565b5f604051808303815f865af19150503d805f81146115c5576040519150601f19603f3d011682016040523d82523d5f602084013e6115ca565b606091505b50509050806116095760405162461bcd60e51b815260206004820152600b60248201526a109d5c9b8819985a5b195960aa1b60448201526064016106ff565b81836001600160a01b0316887fb03fda3fe1b79698de7994cef2871f268c3aa583108ee8ae3d0742f8e49bcf9b8760405161164691815260200190565b60405180910390a4505050505061165c60015f55565b5050565b6001600160a01b0381165f908152600860209081526040918290208054835181840281018401909452808452606093928301828280156107ce57602002820191905f5260205f20908154815260200190600101908083116107ba5750505050509050919050565b6111628133611872565b60025f54036116f357604051633ee5aeb560e01b815260040160405180910390fd5b60025f55565b6040516001600160a01b038481166024830152838116604483015260648201839052610d3c9186918216906323b872dd906084015b604051602081830303815290604052915060e01b6020820180516001600160e01b0383818316178352505050506118ab565b5f61176b838361121d565b6117cf575f8381526001602081815260408084206001600160a01b0387168086529252808420805460ff19169093179092559051339286917f2f8788117e7eff1d82e926ec794901d17c78024a50270940304540a733656f0d9190a4506001610682565b505f610682565b5f6117e1838361121d565b156117cf575f8381526001602090815260408083206001600160a01b0386168085529252808320805460ff1916905551339286917ff6391f5c32d9c69d2a47ea670b442974b53935d1edc7fd64eb21e047a839171b9190a4506001610682565b6040516001600160a01b03838116602483015260448201839052610d7591859182169063a9059cbb9060640161172e565b61187c828261121d565b61165c5760405163e2517d3f60e01b81526001600160a01b0382166004820152602481018390526044016106ff565b5f8060205f8451602086015f885af1806118ca576040513d5f823e3d81fd5b50505f513d915081156118e15780600114156118ee565b6001600160a01b0384163b155b15610d3c57604051635274afe760e01b81526001600160a01b03851660048201526024016106ff565b5f60208284031215611927575f80fd5b81356001600160e01b031981168114610d10575f80fd5b5f6020828403121561194e575f80fd5b5035919050565b80356001600160a01b038116811461196b575f80fd5b919050565b5f8060408385031215611981575f80fd5b61198a83611955565b946020939093013593505050565b602080825282518282018190525f9190848201906040850190845b818110156119cf578351835292840192918401916001016119b3565b50909695505050505050565b5f805f606084860312156119ed575f80fd5b505081359360208301359350604090920135919050565b5f8060408385031215611a15575f80fd5b82359150611a2560208401611955565b90509250929050565b5f8060408385031215611a3f575f80fd5b50508035926020909101359150565b5f60208284031215611a5e575f80fd5b610d1082611955565b634e487b7160e01b5f52601160045260245ffd5b8082018082111561068257610682611a67565b8181038181111561068257610682611a67565b808202811582820484141761068257610682611a67565b5f82611ad257634e487b7160e01b5f52601260045260245ffd5b500490565b5f60208284031215611ae7575f80fd5b5051919050565b634e487b7160e01b5f52603260045260245ffd5b5f82515f5b81811015611b215760208186018101518583015201611b07565b505f92019182525091905056fea2646970667358221220c4a6d304137b5f1e0f31db712311b1fda816829a0cd7d15da3dc05034ca1494264736f6c63430008180033",
  "linkReferences": {},
  "deployedLinkReferences": {}
}