{
  "_format": "hh-sol-artifact-1",
  "contractName": "ISNADRewardPool",
  "sourceName": "contracts/ISNADRewardPool.sol",
  "abi": [
    {
      "inputs": [
        {
          "internalType": "address",
          "name": "_isnadToken",
          "type": "address"
        },
        {
          "internalType": "address",
          "name": "_stakingContract",
          "type": "address"
        }
      ],
      "stateMutability": "nonpayable",
      "type": "constructor"
    },
    {
      "inputs": [],
      "name": "AccessControlBadConfirmation",
      "type": "error"
    },
    {
      "inputs": [
        {
          "internalType": "address",
          "name": "account",
          "type": "address"
        },
        {
          "internalType": "bytes32",
          "name": "neededRole",
          "type": "bytes32"
        }
      ],
      "name": "AccessControlUnauthorizedAccount",
      "type": "error"
    },
    {
      "inputs": [],
      "name": "ReentrancyGuardReentrantCall",
      "type": "error"
    },
    {
      "inputs": [
        {
          "internalType": "address",
          "name": "token",
          "type": "address"
        }
      ],
      "name": "SafeERC20FailedOperation",
      "type": "error"
    },
    {
      "anonymous": false,
      "inputs": [
        {
          "indexed": false,
          "internalType": "uint256",
          "name": "duration",
          "type": "uint256"
        },
        {
          "indexed": false,
          "internalType": "uint256",
          "name": "multiplier",
          "type": "uint256"
        }
      ],
      "name": "LockMultiplierUpdated",
      "type": "event"
    },
    {
      "anonymous": false,
      "inputs": [
        {
          "indexed": true,
          "internalType": "address",
          "name": "account",
          "type": "address"
        },
        {
          "indexed": false,
          "internalType": "uint256",
          "name": "until",
          "type": "uint256"
        }
      ],
      "name": "Paused",
      "type": "event"
    },
    {
      "anonymous": false,
      "inputs": [
        {
          "indexed": true,
          "internalType": "address",
          "name": "auditor",
          "type": "address"
        },
        {
          "indexed": false,
          "internalType": "uint256",
          "name": "amount",
          "type": "uint256"
        }
      ],
      "name": "RewardAccrued",
      "type": "event"
    },
    {
      "anonymous": false,
      "inputs": [
        {
          "indexed": true,
          "internalType": "address",
          "name": "auditor",
          "type": "address"
        },
        {
          "indexed": false,
          "internalType": "uint256",
          "name": "amount",
          "type": "uint256"
        }
      ],
      "name": "RewardClaimed",
      "type": "event"
    },
    {
      "anonymous": false,
      "inputs": [
        {
          "indexed": false,
          "internalType": "uint256",
          "name": "newRate",
          "type": "uint256"
        }
      ],
      "name": "RewardRateUpdated",
      "type": "event"
    },
    {
      "anonymous": false,
      "inputs": [
        {
          "indexed": true,
          "internalType": "bytes32",
          "name": "role",
          "type": "bytes32"
        },
        {
          "indexed": true,
          "internalType": "bytes32",
          "name": "previousAdminRole",
          "type": "bytes32"
        },
        {
          "indexed": true,
          "internalType": "bytes32",
          "name": "newAdminRole",
          "type": "bytes32"
        }
      ],
      "name": "RoleAdminChanged",
      "type": "event"
    },
    {
      "anonymous": false,
      "inputs": [
        {
          "indexed": true,
          "internalType": "bytes32",
          "name": "role",
          "type": "bytes32"
        },
        {
          "indexed": true,
          "internalType": "address",
          "name": "account",
          "type": "address"
        },
        {
          "indexed": true,
          "internalType": "address",
          "name": "sender",
          "type": "address"
        }
      ],
      "name": "RoleGranted",
      "type": "event"
    },
    {
      "anonymous": false,
      "inputs": [
        {
          "indexed": true,
          "internalType": "bytes32",
          "name": "role",
          "type": "bytes32"
        },
        {
          "indexed": true,
          "internalType": "address",
          "name": "account",
          "type": "address"
        },
        {
          "indexed": true,
          "internalType": "address",
          "name": "sender",
          "type": "address"
        }
      ],
      "name": "RoleRevoked",
      "type": "event"
    },
    {
      "anonymous": false,
      "inputs": [
        {
          "indexed": true,
          "internalType": "address",
          "name": "account",
          "type": "address"
        }
      ],
      "name": "Unpaused",
      "type": "event"
    },
    {
      "inputs": [],
      "name": "ADMIN_ROLE",
      "outputs": [
        {
          "internalType": "bytes32",
          "name": "",
          "type": "bytes32"
        }
      ],
      "stateMutability": "view",
      "type": "function"
    },
    {
      "inputs": [],
      "name": "DEFAULT_ADMIN_ROLE",
      "outputs": [
        {
          "internalType": "bytes32",
          "name": "",
          "type": "bytes32"
        }
      ],
      "stateMutability": "view",
      "type": "function"
    },
    {
      "inputs": [],
      "name": "DISTRIBUTOR_ROLE",
      "outputs": [
        {
          "internalType": "bytes32",
          "name": "",
          "type": "bytes32"
        }
      ],
      "stateMutability": "view",
      "type": "function"
    },
    {
      "inputs": [],
      "name": "MAX_PAUSE_DURATION",
      "outputs": [
        {
          "internalType": "uint256",
          "name": "",
          "type": "uint256"
        }
      ],
      "stateMutability": "view",
      "type": "function"
    },
    {
      "inputs": [],
      "name": "PAUSER_ROLE",
      "outputs": [
        {
          "internalType": "bytes32",
          "name": "",
          "type": "bytes32"
        }
      ],
      "stateMutability": "view",
      "type": "function"
    },
    {
      "inputs": [
        {
          "internalType": "address",
          "name": "auditor",
          "type": "address"
        },
        {
          "internalType": "uint256",
          "name": "stakeAmount",
          "type": "uint256"
        },
        {
          "internalType": "uint256",
          "name": "lockDuration",
          "type": "uint256"
        }
      ],
      "name": "accrueRewards",
      "outputs": [],
      "stateMutability": "nonpayable",
      "type": "function"
    },
    {
      "inputs": [
        {
          "internalType": "address",
          "name": "",
          "type": "address"
        }
      ],
      "name": "auditorRewards",
      "outputs": [
        {
          "internalType": "uint256",
          "name": "totalEarned",
          "type": "uint256"
        },
        {
          "internalType": "uint256",
          "name": "totalClaimed",
          "type": "uint256"
        },
        {
          "internalType": "uint256",
          "name": "lastUpdateTime",
          "type": "uint256"
        },
        {
          "internalType": "uint256",
          "name": "pendingRewards",
          "type": "uint256"
        }
      ],
      "stateMutability": "view",
      "type": "function"
    },
    {
      "inputs": [],
      "name": "claimRewards",
      "outputs": [
        {
          "internalType": "uint256",
          "name": "",
          "type": "uint256"
        }
      ],
      "stateMutability": "nonpayable",
      "type": "function"
    },
    {
      "inputs": [
        {
          "internalType": "uint256",
          "name": "amount",
          "type": "uint256"
        }
      ],
      "name": "emergencyWithdraw",
      "outputs": [],
      "stateMutability": "nonpayable",
      "type": "function"
    },
    {
      "inputs": [
        {
          "internalType": "uint256",
          "name": "amount",
          "type": "uint256"
        }
      ],
      "name": "fund",
      "outputs": [],
      "stateMutability": "nonpayable",
      "type": "function"
    },
    {
      "inputs": [
        {
          "internalType": "address",
          "name": "auditor",
          "type": "address"
        }
      ],
      "name": "getAuditorRewards",
      "outputs": [
        {
          "internalType": "uint256",
          "name": "earned",
          "type": "uint256"
        },
        {
          "internalType": "uint256",
          "name": "claimed",
          "type": "uint256"
        },
        {
          "internalType": "uint256",
          "name": "pending",
          "type": "uint256"
        }
      ],
      "stateMutability": "view",
      "type": "function"
    },
    {
      "inputs": [
        {
          "internalType": "uint256",
          "name": "lockDuration",
          "type": "uint256"
        }
      ],
      "name": "getMultiplier",
      "outputs": [
        {
          "internalType": "uint256",
          "name": "",
          "type": "uint256"
        }
      ],
      "stateMutability": "view",
      "type": "function"
    },
    {
      "inputs": [
        {
          "internalType": "bytes32",
          "name": "role",
          "type": "bytes32"
        }
      ],
      "name": "getRoleAdmin",
      "outputs": [
        {
          "internalType": "bytes32",
          "name": "",
          "type": "bytes32"
        }
      ],
      "stateMutability": "view",
      "type": "function"
    },
    {
      "inputs": [
        {
          "internalType": "bytes32",
          "name": "role",
          "type": "bytes32"
        },
        {
          "internalType": "address",
          "name": "account",
          "type": "address"
        }
      ],
      "name": "grantRole",
      "outputs": [],
      "stateMutability": "nonpayable",
      "type": "function"
    },
    {
      "inputs": [
        {
          "internalType": "bytes32",
          "name": "role",
          "type": "bytes32"
        },
        {
          "internalType": "address",
          "name": "account",
          "type": "address"
        }
      ],
      "name": "hasRole",
      "outputs": [
        {
          "internalType": "bool",
          "name": "",
          "type": "bool"
        }
      ],
      "stateMutability": "view",
      "type": "function"
    },
    {
      "inputs": [],
      "name": "isnadToken",
      "outputs": [
        {
          "internalType": "contract IERC20",
          "name": "",
          "type": "address"
        }
      ],
      "stateMutability": "view",
      "type": "function"
    },
    {
      "inputs": [
        {
          "internalType": "uint256",
          "name": "",
          "type": "uint256"
        }
      ],
      "name": "lockMultipliers",
      "outputs": [
        {
          "internalType": "uint256",
          "name": "",
          "type": "uint256"
        }
      ],
      "stateMutability": "view",
      "type": "function"
    },
    {
      "inputs": [
        {
          "internalType": "uint256",
          "name": "duration",
          "type": "uint256"
        }
      ],
      "name": "pause",
      "outputs": [],
      "stateMutability": "nonpayable",
      "type": "function"
    },
    {
      "inputs": [],
      "name": "paused",
      "outputs": [
        {
          "internalType": "bool",
          "name": "",
          "type": "bool"
        }
      ],
      "stateMutability": "view",
      "type": "function"
    },
    {
      "inputs": [],
      "name": "pausedUntil",
      "outputs": [
        {
          "internalType": "uint256",
          "name": "",
          "type": "uint256"
        }
      ],
      "stateMutability": "view",
      "type": "function"
    },
    {
      "inputs": [
        {
          "internalType": "address",
          "name": "auditor",
          "type": "address"
        }
      ],
      "name": "pendingRewards",
      "outputs": [
        {
          "internalType": "uint256",
          "name": "",
          "type": "uint256"
        }
      ],
      "stateMutability": "view",
      "type": "function"
    },
    {
      "inputs": [],
      "name": "poolBalance",
      "outputs": [
        {
          "internalType": "uint256",
          "name": "",
          "type": "uint256"
        }
      ],
      "stateMutability": "view",
      "type": "function"
    },
    {
      "inputs": [
        {
          "internalType": "bytes32",
          "name": "role",
          "type": "bytes32"
        },
        {
          "internalType": "address",
          "name": "callerConfirmation",
          "type": "address"
        }
      ],
      "name": "renounceRole",
      "outputs": [],
      "stateMutability": "nonpayable",
      "type": "function"
    },
    {
      "inputs": [
        {
          "internalType": "bytes32",
          "name": "role",
          "type": "bytes32"
        },
        {
          "internalType": "address",
          "name": "account",
          "type": "address"
        }
      ],
      "name": "revokeRole",
      "outputs": [],
      "stateMutability": "nonpayable",
      "type": "function"
    },
    {
      "inputs": [],
      "name": "rewardRatePerSecond",
      "outputs": [
        {
          "internalType": "uint256",
          "name": "",
          "type": "uint256"
        }
      ],
      "stateMutability": "view",
      "type": "function"
    },
    {
      "inputs": [
        {
          "internalType": "uint256",
          "name": "duration",
          "type": "uint256"
        },
        {
          "internalType": "uint256",
          "name": "multiplier",
          "type": "uint256"
        }
      ],
      "name": "setLockMultiplier",
      "outputs": [],
      "stateMutability": "nonpayable",
      "type": "function"
    },
    {
      "inputs": [
        {
          "internalType": "uint256",
          "name": "newRate",
          "type": "uint256"
        }
      ],
      "name": "setRewardRate",
      "outputs": [],
      "stateMutability": "nonpayable",
      "type": "function"
    },
    {
      "inputs": [
        {
          "internalType": "address",
          "name": "_stakingContract",
          "type": "address"
        }
      ],
      "name": "setStakingContract",
      "outputs": [],
      "stateMutability": "nonpayable",
      "type": "function"
    },
    {
      "inputs": [],
      "name": "stakingContract",
      "outputs": [
        {
          "internalType": "address",
          "name": "",
          "type": "address"
        }
      ],
      "stateMutability": "view",
      "type": "function"
    },
    {
      "inputs": [
        {
          "internalType": "bytes4",
          "name": "interfaceId",
          "type": "bytes4"
        }
      ],
      "name": "supportsInterface",
      "outputs": [
        {
          "internalType": "bool",
          "name": "",
          "type": "bool"
        }
      ],
      "stateMutability": "view",
      "type": "function"
    },
    {
      "inputs": [],
      "name": "totalClaimed",
      "outputs": [
        {
          "internalType": "uint256",
          "name": "",
          "type": "uint256"
        }
      ],
      "stateMutability": "view",
      "type": "function"
    },
    {
      "inputs": [],
      "name": "totalDistributed",
      "outputs": [
        {
          "internalType": "uint256",
          "name": "",
          "type": "uint256"
        }
      ],
      "stateMutability": "view",
      "type": "function"
    },
    {
      "inputs": [],
      "name": "unpause",
      "outputs": [],
      "stateMutability": "nonpayable",
      "type": "function"
    }
  ],
  "bytecode": "0x60a060405263bd014d7e60045534801562000018575f80fd5b50604051620016d9380380620016d98339810160408190526200003b9162000332565b60016002556001600160a01b0382166200008c5760405162461bcd60e51b815260206004820152600d60248201526c24b73b30b634b2103a37b5b2b760991b60448201526064015b60405180910390fd5b6001600160a01b038116620000e45760405162461bcd60e51b815260206004820152601860248201527f496e76616c6964207374616b696e6720636f6e74726163740000000000000000604482015260640162000083565b6001600160a01b03828116608052600380546001600160a01b031916918316919091179055620001155f336200026a565b50620001427fa49807205ce4d355092ef5a8a18f56e8913cf4a201fbe287825b095693c21775336200026a565b506200016f7f65d7a28e3265b37a6474929f336521b332c1681b933f6cb9f3376673440d862a336200026a565b506200019c7ffbd454f36a7e1a388bd6fc3ab10d434aa4578f811acbbcf33afb1c697486313c826200026a565b50506005602052506127107f4dc90b1db34d812c6b7e8d8f8fa8bb3eabe1414d64af072d5003e9ce2fd01fce556130d47f0b740ecf09416028e8d58e7f9420994d7e551cefb8e874b417a97698911d531155613a987fd740a78bf8b31aadc8a4f4ebc25344c792b4858c94548820131f8435ecc6aa4e55614e207fc7319ee9772ea0042079c858f4e5a9410f161f0e9618faa4fb8566bbec2ec059556301e133805f526175307f2defc5000bd1ce6821731d58e552cdd6e3bfc901970bc0420668b1b7bed556ee5562000368565b5f828152602081815260408083206001600160a01b038516845290915281205460ff166200030d575f838152602081815260408083206001600160a01b03861684529091529020805460ff19166001179055620002c43390565b6001600160a01b0316826001600160a01b0316847f2f8788117e7eff1d82e926ec794901d17c78024a50270940304540a733656f0d60405160405180910390a450600162000310565b505f5b92915050565b80516001600160a01b03811681146200032d575f80fd5b919050565b5f806040838503121562000344575f80fd5b6200034f8362000316565b91506200035f6020840162000316565b90509250929050565b60805161133c6200039d5f395f8181610349015281816107260152818161084f015281816108b90152610a5d015261133c5ff3fe608060405234801561000f575f80fd5b50600436106101f2575f3560e01c806391d1485411610114578063d2afe4ab116100a9578063dd6b21be11610079578063dd6b21be146104a4578063e63ab1e9146104c3578063ee99205c146104ea578063efca2eed146104fd578063f0bd87cc14610506575f80fd5b8063d2afe4ab1461046c578063d547741f1461047f578063d54ad2a114610492578063da748b101461049b575f80fd5b8063a217fddf116100e4578063a217fddf1461042c578063adf8252d14610433578063ca1d209d14610446578063ce3b4e1614610459575f80fd5b806391d14854146103eb57806396365d44146103fe5780639dd373b9146104065780639e447fc614610419575f80fd5b80633f4ba83a1161018a5780635d773b2c1161015a5780635d773b2c1461033b578063619feede1461034457806375b238fc146103835780637ee4d75e14610397575f80fd5b80633f4ba83a146102c65780635312ea8e146102ce5780635743b31a146102e15780635c975abb14610331575f80fd5b80632f2ff15d116101c55780632f2ff15d1461026d57806331d7a2621461028057806336568abe146102ab578063372500ab146102be575f80fd5b806301ffc9a7146101f6578063136439dd1461021e578063248a9ca3146102335780632799657d14610263575b5f80fd5b61020961020436600461115f565b61051a565b60405190151581526020015b60405180910390f35b61023161022c36600461118d565b610550565b005b61025561024136600461118d565b5f9081526020819052604090206001015490565b604051908152602001610215565b61025562093a8081565b61023161027b3660046111bf565b610618565b61025561028e3660046111e9565b6001600160a01b03165f9081526006602052604090206003015490565b6102316102b93660046111bf565b610642565b61025561067a565b610231610792565b6102316102dc36600461118d565b61082b565b6103166102ef3660046111e9565b6001600160a01b03165f908152600660205260409020805460018201546003909201549092565b60408051938452602084019290925290820152606001610215565b6001544210610209565b61025560045481565b61036b7f000000000000000000000000000000000000000000000000000000000000000081565b6040516001600160a01b039091168152602001610215565b6102555f805160206112e783398151915281565b6103cb6103a53660046111e9565b60066020525f908152604090208054600182015460028301546003909301549192909184565b604080519485526020850193909352918301526060820152608001610215565b6102096103f93660046111bf565b61087a565b6102556108a2565b6102316104143660046111e9565b61092f565b61023161042736600461118d565b6109f3565b6102555f81565b61025561044136600461118d565b610a46565b61023161045436600461118d565b610a50565b610231610467366004611202565b610a88565b61023161047a366004611232565b610bc6565b61023161048d3660046111bf565b610c7e565b61025560085481565b61025560015481565b6102556104b236600461118d565b60056020525f908152604090205481565b6102557f65d7a28e3265b37a6474929f336521b332c1681b933f6cb9f3376673440d862a81565b60035461036b906001600160a01b031681565b61025560075481565b6102555f805160206112c783398151915281565b5f6001600160e01b03198216637965db0b60e01b148061054a57506301ffc9a760e01b6001600160e01b03198316145b92915050565b7f65d7a28e3265b37a6474929f336521b332c1681b933f6cb9f3376673440d862a61057a81610ca2565b5f8211801561058c575062093a808211155b6105d05760405162461bcd60e51b815260206004820152601060248201526f24b73b30b634b210323ab930ba34b7b760811b60448201526064015b60405180910390fd5b6105da8242611266565b600181905560405190815233907fab40a374bc51de372200a8bc981af8c9ecdc08dfdaef0bb6e09f88f3c616ef3d9060200160405180910390a25050565b5f8281526020819052604090206001015461063281610ca2565b61063c8383610cac565b50505050565b6001600160a01b038116331461066b5760405163334bd91960e11b815260040160405180910390fd5b6106758282610d3b565b505050565b5f610683610da4565b335f9081526006602052604090204260028201556003810154806106df5760405162461bcd60e51b81526020600482015260136024820152724e6f207265776172647320746f20636c61696d60681b60448201526064016105c7565b5f826003018190555080826001015f8282546106fb9190611266565b925050819055508060085f8282546107139190611266565b9091555061074d90506001600160a01b037f0000000000000000000000000000000000000000000000000000000000000000163383610dcc565b60405181815233907f106f923f993c2149d49b4255ff723acafa1f2d94393f561d3eda32ae348f72419060200160405180910390a291505061078f6001600255565b90565b7f65d7a28e3265b37a6474929f336521b332c1681b933f6cb9f3376673440d862a6107bc81610ca2565b60015442106107fa5760405162461bcd60e51b815260206004820152600a602482015269139bdd081c185d5cd95960b21b60448201526064016105c7565b5f600181905560405133917f5db9ee0a495bf2e6ff9c91a7834c1ba4fdd244a5e8aa4e537bd38aeae4b073aa91a250565b5f805160206112e783398151915261084281610ca2565b6108766001600160a01b037f0000000000000000000000000000000000000000000000000000000000000000163384610dcc565b5050565b5f918252602082815260408084206001600160a01b0393909316845291905290205460ff1690565b6040516370a0823160e01b81523060048201525f907f00000000000000000000000000000000000000000000000000000000000000006001600160a01b0316906370a0823190602401602060405180830381865afa158015610906573d5f803e3d5ffd5b505050506040513d601f19601f8201168201806040525081019061092a9190611279565b905090565b5f805160206112e783398151915261094681610ca2565b6001600160a01b03821661099c5760405162461bcd60e51b815260206004820152601860248201527f496e76616c6964207374616b696e6720636f6e7472616374000000000000000060448201526064016105c7565b6003546109c0905f805160206112c7833981519152906001600160a01b0316610d3b565b50600380546001600160a01b0319166001600160a01b0384161790556106755f805160206112c783398151915283610cac565b5f805160206112e7833981519152610a0a81610ca2565b60048290556040518281527f41d466ebd06fb97e7786086ac8b69b7eb7da798592036251291d34e9791cde019060200160405180910390a15050565b5f61054a82610e2b565b610a856001600160a01b037f000000000000000000000000000000000000000000000000000000000000000016333084611081565b50565b5f805160206112c7833981519152610a9f81610ca2565b610ac2846001600160a01b03165f90815260066020526040902042600290910155565b5f610acc83610e2b565b90505f69021e19e0c9bab2400000828560045488610aea9190611290565b610af49190611290565b610afe9190611290565b610b0891906112a7565b6001600160a01b0387165f90815260066020526040812060030180549293508392909190610b37908490611266565b90915550506001600160a01b0386165f9081526006602052604081208054839290610b63908490611266565b925050819055508060075f828254610b7b9190611266565b90915550506040518181526001600160a01b038716907f578afab8065b30a5e9827120e4905b8a1810e180d2f793ca54af6f7633f4e57a9060200160405180910390a2505050505050565b5f805160206112e7833981519152610bdd81610ca2565b612710821015610c2f5760405162461bcd60e51b815260206004820152601860248201527f4d756c7469706c696572206d757374206265203e3d203178000000000000000060448201526064016105c7565b5f8381526005602090815260409182902084905581518581529081018490527fb9a8cb2a3c650e62cbf065d89dedabba2097cde303347e57f0823c70753e4741910160405180910390a1505050565b5f82815260208190526040902060010154610c9881610ca2565b61063c8383610d3b565b610a8581336110ba565b5f610cb7838361087a565b610d34575f838152602081815260408083206001600160a01b03861684529091529020805460ff19166001179055610cec3390565b6001600160a01b0316826001600160a01b0316847f2f8788117e7eff1d82e926ec794901d17c78024a50270940304540a733656f0d60405160405180910390a450600161054a565b505f61054a565b5f610d46838361087a565b15610d34575f838152602081815260408083206001600160a01b0386168085529252808320805460ff1916905551339286917ff6391f5c32d9c69d2a47ea670b442974b53935d1edc7fd64eb21e047a839171b9190a450600161054a565b6002805403610dc657604051633ee5aeb560e01b815260040160405180910390fd5b60028055565b6040516001600160a01b0383811660248301526044820183905261067591859182169063a9059cbb906064015b604051602081830303815290604052915060e01b6020820180516001600160e01b0383818316178352505050506110f3565b5f6301e133808210158015610e6c57506301e133805f5260056020527f2defc5000bd1ce6821731d58e552cdd6e3bfc901970bc0420668b1b7bed556ee5415155b15610ea45750506301e133805f5260056020527f2defc5000bd1ce6821731d58e552cdd6e3bfc901970bc0420668b1b7bed556ee5490565b62ed4e008210158015610ee2575062ed4e005f5260056020527fc7319ee9772ea0042079c858f4e5a9410f161f0e9618faa4fb8566bbec2ec0595415155b15610f1957505062ed4e005f5260056020527fc7319ee9772ea0042079c858f4e5a9410f161f0e9618faa4fb8566bbec2ec0595490565b6276a7008210158015610f5757506276a7005f5260056020527fd740a78bf8b31aadc8a4f4ebc25344c792b4858c94548820131f8435ecc6aa4e5415155b15610f8e5750506276a7005f5260056020527fd740a78bf8b31aadc8a4f4ebc25344c792b4858c94548820131f8435ecc6aa4e5490565b624f1a008210158015610fcc5750624f1a005f5260056020527f0b740ecf09416028e8d58e7f9420994d7e551cefb8e874b417a97698911d53115415155b15611003575050624f1a005f5260056020527f0b740ecf09416028e8d58e7f9420994d7e551cefb8e874b417a97698911d53115490565b62278d008210158015611041575062278d005f5260056020527f4dc90b1db34d812c6b7e8d8f8fa8bb3eabe1414d64af072d5003e9ce2fd01fce5415155b1561107857505062278d005f5260056020527f4dc90b1db34d812c6b7e8d8f8fa8bb3eabe1414d64af072d5003e9ce2fd01fce5490565b50612710919050565b6040516001600160a01b03848116602483015283811660448301526064820183905261063c9186918216906323b872dd90608401610df9565b6110c4828261087a565b6108765760405163e2517d3f60e01b81526001600160a01b0382166004820152602481018390526044016105c7565b5f8060205f8451602086015f885af180611112576040513d5f823e3d81fd5b50505f513d91508115611129578060011415611136565b6001600160a01b0384163b155b1561063c57604051635274afe760e01b81526001600160a01b03851660048201526024016105c7565b5f6020828403121561116f575f80fd5b81356001600160e01b031981168114611186575f80fd5b9392505050565b5f6020828403121561119d575f80fd5b5035919050565b80356001600160a01b03811681146111ba575f80fd5b919050565b5f80604083850312156111d0575f80fd5b823591506111e0602084016111a4565b90509250929050565b5f602082840312156111f9575f80fd5b611186826111a4565b5f805f60608486031215611214575f80fd5b61121d846111a4565b95602085013595506040909401359392505050565b5f8060408385031215611243575f80fd5b50508035926020909101359150565b634e487b7160e01b5f52601160045260245ffd5b8082018082111561054a5761054a611252565b5f60208284031215611289575f80fd5b5051919050565b808202811582820484141761054a5761054a611252565b5f826112c157634e487b7160e01b5f52601260045260245ffd5b50049056fefbd454f36a7e1a388bd6fc3ab10d434aa4578f811acbbcf33afb1c697486313ca49807205ce4d355092ef5a8a18f56e8913cf4a201fbe287825b095693c21775a264697066735822122084011ae8b6a77e63ca5749237e655b21bdd73453c672d949c49a74b4b230115064736f6c63430008180033",
  "linkReferences": {},
  "deployedLinkReferences": {}
}