{
  "_format": "hh-sol-artifact-1",
  "contractName": "ISNADStakingV2",
  "sourceName": "contracts/ISNADStakingV2.sol",
  "abi": [
    {
      "inputs": [
        {
          "internalType": "address",
          "name": "_token",
          "type": "address"
        },
        {
          "internalType": "address",
          "name": "admin",
          "type": "address"
        }
      ],
      "stateMutability": "nonpayable",
      "type": "constructor"
    },
    {
      "inputs": [],
      "name": "AccessControlBadConfirmation",
      "type": "error"
    },
    {
      "inputs": [
        {
          "internalType": "address",
          "name": "account",
          "type": "address"
        },
        {
          "internalType": "bytes32",
          "name": "neededRole",
          "type": "bytes32"
        }
      ],
      "name": "AccessControlUnauthorizedAccount",
      "type": "error"
    },
    {
      "inputs": [],
      "name": "ReentrancyGuardReentrantCall",
      "type": "error"
    },
    {
      "inputs": [
        {
          "internalType": "address",
          "name": "token",
          "type": "address"
        }
      ],
      "name": "SafeERC20FailedOperation",
      "type": "error"
    },
    {
      "anonymous": false,
      "inputs": [
        {
          "indexed": true,
          "internalType": "address",
          "name": "account",
          "type": "address"
        },
        {
          "indexed": false,
          "internalType": "uint256",
          "name": "until",
          "type": "uint256"
        }
      ],
      "name": "Paused",
      "type": "event"
    },
    {
      "anonymous": false,
      "inputs": [
        {
          "indexed": true,
          "internalType": "bytes32",
          "name": "role",
          "type": "bytes32"
        },
        {
          "indexed": true,
          "internalType": "bytes32",
          "name": "previousAdminRole",
          "type": "bytes32"
        },
        {
          "indexed": true,
          "internalType": "bytes32",
          "name": "newAdminRole",
          "type": "bytes32"
        }
      ],
      "name": "RoleAdminChanged",
      "type": "event"
    },
    {
      "anonymous": false,
      "inputs": [
        {
          "indexed": true,
          "internalType": "bytes32",
          "name": "role",
          "type": "bytes32"
        },
        {
          "indexed": true,
          "internalType": "address",
          "name": "account",
          "type": "address"
        },
        {
          "indexed": true,
          "internalType": "address",
          "name": "sender",
          "type": "address"
        }
      ],
      "name": "RoleGranted",
      "type": "event"
    },
    {
      "anonymous": false,
      "inputs": [
        {
          "indexed": true,
          "internalType": "bytes32",
          "name": "role",
          "type": "bytes32"
        },
        {
          "indexed": true,
          "internalType": "address",
          "name": "account",
          "type": "address"
        },
        {
          "indexed": true,
          "internalType": "address",
          "name": "sender",
          "type": "address"
        }
      ],
      "name": "RoleRevoked",
      "type": "event"
    },
    {
      "anonymous": false,
      "inputs": [
        {
          "indexed": true,
          "internalType": "bytes32",
          "name": "attestationId",
          "type": "bytes32"
        },
        {
          "indexed": true,
          "internalType": "address",
          "name": "auditor",
          "type": "address"
        },
        {
          "indexed": true,
          "internalType": "bytes32",
          "name": "resourceHash",
          "type": "bytes32"
        },
        {
          "indexed": false,
          "internalType": "uint256",
          "name": "amount",
          "type": "uint256"
        }
      ],
      "name": "Slashed",
      "type": "event"
    },
    {
      "anonymous": false,
      "inputs": [
        {
          "indexed": true,
          "internalType": "bytes32",
          "name": "attestationId",
          "type": "bytes32"
        },
        {
          "indexed": true,
          "internalType": "address",
          "name": "auditor",
          "type": "address"
        },
        {
          "indexed": true,
          "internalType": "bytes32",
          "name": "resourceHash",
          "type": "bytes32"
        },
        {
          "indexed": false,
          "internalType": "uint256",
          "name": "amount",
          "type": "uint256"
        },
        {
          "indexed": false,
          "internalType": "uint256",
          "name": "lockUntil",
          "type": "uint256"
        },
        {
          "indexed": false,
          "internalType": "uint256",
          "name": "lockDuration",
          "type": "uint256"
        }
      ],
      "name": "Staked",
      "type": "event"
    },
    {
      "anonymous": false,
      "inputs": [
        {
          "indexed": true,
          "internalType": "address",
          "name": "account",
          "type": "address"
        }
      ],
      "name": "Unpaused",
      "type": "event"
    },
    {
      "anonymous": false,
      "inputs": [
        {
          "indexed": true,
          "internalType": "bytes32",
          "name": "attestationId",
          "type": "bytes32"
        },
        {
          "indexed": true,
          "internalType": "address",
          "name": "auditor",
          "type": "address"
        },
        {
          "indexed": false,
          "internalType": "uint256",
          "name": "amount",
          "type": "uint256"
        }
      ],
      "name": "Unstaked",
      "type": "event"
    },
    {
      "inputs": [],
      "name": "BURN_ADDRESS",
      "outputs": [
        {
          "internalType": "address",
          "name": "",
          "type": "address"
        }
      ],
      "stateMutability": "view",
      "type": "function"
    },
    {
      "inputs": [],
      "name": "DEFAULT_ADMIN_ROLE",
      "outputs": [
        {
          "internalType": "bytes32",
          "name": "",
          "type": "bytes32"
        }
      ],
      "stateMutability": "view",
      "type": "function"
    },
    {
      "inputs": [],
      "name": "MAX_LOCK_DURATION",
      "outputs": [
        {
          "internalType": "uint256",
          "name": "",
          "type": "uint256"
        }
      ],
      "stateMutability": "view",
      "type": "function"
    },
    {
      "inputs": [],
      "name": "MAX_PAUSE_DURATION",
      "outputs": [
        {
          "internalType": "uint256",
          "name": "",
          "type": "uint256"
        }
      ],
      "stateMutability": "view",
      "type": "function"
    },
    {
      "inputs": [],
      "name": "MAX_STAKE_PERCENT",
      "outputs": [
        {
          "internalType": "uint256",
          "name": "",
          "type": "uint256"
        }
      ],
      "stateMutability": "view",
      "type": "function"
    },
    {
      "inputs": [],
      "name": "MAX_STAKE_PER_AUDITOR",
      "outputs": [
        {
          "internalType": "uint256",
          "name": "",
          "type": "uint256"
        }
      ],
      "stateMutability": "view",
      "type": "function"
    },
    {
      "inputs": [],
      "name": "MEDIUM_LOCK_DURATION",
      "outputs": [
        {
          "internalType": "uint256",
          "name": "",
          "type": "uint256"
        }
      ],
      "stateMutability": "view",
      "type": "function"
    },
    {
      "inputs": [],
      "name": "MIN_LOCK_DURATION",
      "outputs": [
        {
          "internalType": "uint256",
          "name": "",
          "type": "uint256"
        }
      ],
      "stateMutability": "view",
      "type": "function"
    },
    {
      "inputs": [],
      "name": "ORACLE_ROLE",
      "outputs": [
        {
          "internalType": "bytes32",
          "name": "",
          "type": "bytes32"
        }
      ],
      "stateMutability": "view",
      "type": "function"
    },
    {
      "inputs": [],
      "name": "PAUSER_ROLE",
      "outputs": [
        {
          "internalType": "bytes32",
          "name": "",
          "type": "bytes32"
        }
      ],
      "stateMutability": "view",
      "type": "function"
    },
    {
      "inputs": [],
      "name": "TIER_1_THRESHOLD",
      "outputs": [
        {
          "internalType": "uint256",
          "name": "",
          "type": "uint256"
        }
      ],
      "stateMutability": "view",
      "type": "function"
    },
    {
      "inputs": [],
      "name": "TIER_2_THRESHOLD",
      "outputs": [
        {
          "internalType": "uint256",
          "name": "",
          "type": "uint256"
        }
      ],
      "stateMutability": "view",
      "type": "function"
    },
    {
      "inputs": [],
      "name": "TIER_3_THRESHOLD",
      "outputs": [
        {
          "internalType": "uint256",
          "name": "",
          "type": "uint256"
        }
      ],
      "stateMutability": "view",
      "type": "function"
    },
    {
      "inputs": [
        {
          "internalType": "bytes32",
          "name": "",
          "type": "bytes32"
        }
      ],
      "name": "attestations",
      "outputs": [
        {
          "internalType": "address",
          "name": "auditor",
          "type": "address"
        },
        {
          "internalType": "bytes32",
          "name": "resourceHash",
          "type": "bytes32"
        },
        {
          "internalType": "uint256",
          "name": "amount",
          "type": "uint256"
        },
        {
          "internalType": "uint256",
          "name": "lockUntil",
          "type": "uint256"
        },
        {
          "internalType": "uint256",
          "name": "lockDuration",
          "type": "uint256"
        },
        {
          "internalType": "bool",
          "name": "slashed",
          "type": "bool"
        }
      ],
      "stateMutability": "view",
      "type": "function"
    },
    {
      "inputs": [
        {
          "internalType": "address",
          "name": "",
          "type": "address"
        },
        {
          "internalType": "uint256",
          "name": "",
          "type": "uint256"
        }
      ],
      "name": "auditorAttestations",
      "outputs": [
        {
          "internalType": "bytes32",
          "name": "",
          "type": "bytes32"
        }
      ],
      "stateMutability": "view",
      "type": "function"
    },
    {
      "inputs": [
        {
          "internalType": "address",
          "name": "",
          "type": "address"
        },
        {
          "internalType": "bytes32",
          "name": "",
          "type": "bytes32"
        }
      ],
      "name": "auditorResourceStake",
      "outputs": [
        {
          "internalType": "uint256",
          "name": "",
          "type": "uint256"
        }
      ],
      "stateMutability": "view",
      "type": "function"
    },
    {
      "inputs": [
        {
          "internalType": "address",
          "name": "",
          "type": "address"
        }
      ],
      "name": "auditorTotalStake",
      "outputs": [
        {
          "internalType": "uint256",
          "name": "",
          "type": "uint256"
        }
      ],
      "stateMutability": "view",
      "type": "function"
    },
    {
      "inputs": [
        {
          "internalType": "bytes32",
          "name": "attestationId",
          "type": "bytes32"
        }
      ],
      "name": "getAttestation",
      "outputs": [
        {
          "internalType": "address",
          "name": "auditor",
          "type": "address"
        },
        {
          "internalType": "bytes32",
          "name": "resourceHash",
          "type": "bytes32"
        },
        {
          "internalType": "uint256",
          "name": "amount",
          "type": "uint256"
        },
        {
          "internalType": "uint256",
          "name": "lockUntil",
          "type": "uint256"
        },
        {
          "internalType": "uint256",
          "name": "lockDuration",
          "type": "uint256"
        },
        {
          "internalType": "bool",
          "name": "slashed",
          "type": "bool"
        }
      ],
      "stateMutability": "view",
      "type": "function"
    },
    {
      "inputs": [
        {
          "internalType": "address",
          "name": "auditor",
          "type": "address"
        }
      ],
      "name": "getAuditorAttestations",
      "outputs": [
        {
          "internalType": "bytes32[]",
          "name": "",
          "type": "bytes32[]"
        }
      ],
      "stateMutability": "view",
      "type": "function"
    },
    {
      "inputs": [
        {
          "internalType": "bytes32",
          "name": "resourceHash",
          "type": "bytes32"
        }
      ],
      "name": "getResourceAttestations",
      "outputs": [
        {
          "internalType": "bytes32[]",
          "name": "",
          "type": "bytes32[]"
        }
      ],
      "stateMutability": "view",
      "type": "function"
    },
    {
      "inputs": [
        {
          "internalType": "bytes32",
          "name": "role",
          "type": "bytes32"
        }
      ],
      "name": "getRoleAdmin",
      "outputs": [
        {
          "internalType": "bytes32",
          "name": "",
          "type": "bytes32"
        }
      ],
      "stateMutability": "view",
      "type": "function"
    },
    {
      "inputs": [
        {
          "internalType": "bytes32",
          "name": "resourceHash",
          "type": "bytes32"
        }
      ],
      "name": "getTrustScore",
      "outputs": [
        {
          "internalType": "uint256",
          "name": "score",
          "type": "uint256"
        }
      ],
      "stateMutability": "view",
      "type": "function"
    },
    {
      "inputs": [
        {
          "internalType": "bytes32",
          "name": "resourceHash",
          "type": "bytes32"
        }
      ],
      "name": "getTrustTier",
      "outputs": [
        {
          "internalType": "uint8",
          "name": "tier",
          "type": "uint8"
        }
      ],
      "stateMutability": "view",
      "type": "function"
    },
    {
      "inputs": [
        {
          "internalType": "bytes32",
          "name": "role",
          "type": "bytes32"
        },
        {
          "internalType": "address",
          "name": "account",
          "type": "address"
        }
      ],
      "name": "grantRole",
      "outputs": [],
      "stateMutability": "nonpayable",
      "type": "function"
    },
    {
      "inputs": [
        {
          "internalType": "bytes32",
          "name": "role",
          "type": "bytes32"
        },
        {
          "internalType": "address",
          "name": "account",
          "type": "address"
        }
      ],
      "name": "hasRole",
      "outputs": [
        {
          "internalType": "bool",
          "name": "",
          "type": "bool"
        }
      ],
      "stateMutability": "view",
      "type": "function"
    },
    {
      "inputs": [
        {
          "internalType": "uint256",
          "name": "duration",
          "type": "uint256"
        }
      ],
      "name": "pause",
      "outputs": [],
      "stateMutability": "nonpayable",
      "type": "function"
    },
    {
      "inputs": [],
      "name": "paused",
      "outputs": [
        {
          "internalType": "bool",
          "name": "",
          "type": "bool"
        }
      ],
      "stateMutability": "view",
      "type": "function"
    },
    {
      "inputs": [],
      "name": "pausedUntil",
      "outputs": [
        {
          "internalType": "uint256",
          "name": "",
          "type": "uint256"
        }
      ],
      "stateMutability": "view",
      "type": "function"
    },
    {
      "inputs": [
        {
          "internalType": "bytes32",
          "name": "role",
          "type": "bytes32"
        },
        {
          "internalType": "address",
          "name": "callerConfirmation",
          "type": "address"
        }
      ],
      "name": "renounceRole",
      "outputs": [],
      "stateMutability": "nonpayable",
      "type": "function"
    },
    {
      "inputs": [
        {
          "internalType": "bytes32",
          "name": "",
          "type": "bytes32"
        },
        {
          "internalType": "uint256",
          "name": "",
          "type": "uint256"
        }
      ],
      "name": "resourceAttestations",
      "outputs": [
        {
          "internalType": "bytes32",
          "name": "",
          "type": "bytes32"
        }
      ],
      "stateMutability": "view",
      "type": "function"
    },
    {
      "inputs": [
        {
          "internalType": "bytes32",
          "name": "",
          "type": "bytes32"
        }
      ],
      "name": "resourceTotalStake",
      "outputs": [
        {
          "internalType": "uint256",
          "name": "",
          "type": "uint256"
        }
      ],
      "stateMutability": "view",
      "type": "function"
    },
    {
      "inputs": [
        {
          "internalType": "bytes32",
          "name": "role",
          "type": "bytes32"
        },
        {
          "internalType": "address",
          "name": "account",
          "type": "address"
        }
      ],
      "name": "revokeRole",
      "outputs": [],
      "stateMutability": "nonpayable",
      "type": "function"
    },
    {
      "inputs": [
        {
          "internalType": "bytes32",
          "name": "attestationId",
          "type": "bytes32"
        }
      ],
      "name": "slash",
      "outputs": [],
      "stateMutability": "nonpayable",
      "type": "function"
    },
    {
      "inputs": [
        {
          "internalType": "bytes32",
          "name": "resourceHash",
          "type": "bytes32"
        },
        {
          "internalType": "uint256",
          "name": "amount",
          "type": "uint256"
        },
        {
          "internalType": "uint256",
          "name": "lockDuration",
          "type": "uint256"
        }
      ],
      "name": "stake",
      "outputs": [
        {
          "internalType": "bytes32",
          "name": "attestationId",
          "type": "bytes32"
        }
      ],
      "stateMutability": "nonpayable",
      "type": "function"
    },
    {
      "inputs": [
        {
          "internalType": "bytes4",
          "name": "interfaceId",
          "type": "bytes4"
        }
      ],
      "name": "supportsInterface",
      "outputs": [
        {
          "internalType": "bool",
          "name": "",
          "type": "bool"
        }
      ],
      "stateMutability": "view",
      "type": "function"
    },
    {
      "inputs": [],
      "name": "token",
      "outputs": [
        {
          "internalType": "contract IERC20",
          "name": "",
          "type": "address"
        }
      ],
      "stateMutability": "view",
      "type": "function"
    },
    {
      "inputs": [],
      "name": "totalSlashed",
      "outputs": [
        {
          "internalType": "uint256",
          "name": "",
          "type": "uint256"
        }
      ],
      "stateMutability": "view",
      "type": "function"
    },
    {
      "inputs": [],
      "name": "totalStaked",
      "outputs": [
        {
          "internalType": "uint256",
          "name": "",
          "type": "uint256"
        }
      ],
      "stateMutability": "view",
      "type": "function"
    },
    {
      "inputs": [],
      "name": "unpause",
      "outputs": [],
      "stateMutability": "nonpayable",
      "type": "function"
    },
    {
      "inputs": [
        {
          "internalType": "bytes32",
          "name": "attestationId",
          "type": "bytes32"
        }
      ],
      "name": "unstake",
      "outputs": [],
      "stateMutability": "nonpayable",
      "type": "function"
    }
  ],
  "bytecode": "0x60a060405234801562000010575f80fd5b5060405162001bdf38038062001bdf8339810160408190526200003391620001ea565b60015f556001600160a01b038216620000935760405162461bcd60e51b815260206004820152601560248201527f496e76616c696420746f6b656e2061646472657373000000000000000000000060448201526064015b60405180910390fd5b6001600160a01b038116620000eb5760405162461bcd60e51b815260206004820152601560248201527f496e76616c69642061646d696e2061646472657373000000000000000000000060448201526064016200008a565b6001600160a01b038216608052620001045f826200013a565b50620001317f65d7a28e3265b37a6474929f336521b332c1681b933f6cb9f3376673440d862a826200013a565b50505062000220565b5f8281526001602090815260408083206001600160a01b038516845290915281205460ff16620001c5575f8381526001602081815260408084206001600160a01b0387168086529252808420805460ff19169093179092559051339286917f2f8788117e7eff1d82e926ec794901d17c78024a50270940304540a733656f0d9190a4506001620001c8565b505f5b92915050565b80516001600160a01b0381168114620001e5575f80fd5b919050565b5f8060408385031215620001fc575f80fd5b6200020783620001ce565b91506200021760208401620001ce565b90509250929050565b6080516119916200024e5f395f81816105d801528181610c7901528181610ff7015261143a01526119915ff3fe608060405234801561000f575f80fd5b506004361061023e575f3560e01c8063817b1cd211610135578063d547741f116100b4578063f415ed1411610079578063f415ed14146105a1578063f4f2d034146105b4578063fc0c546a146105d3578063fc879cd414610612578063fccc281314610625575f80fd5b8063d547741f14610524578063da748b1014610537578063dc9ad57e14610540578063e63ab1e91461056a578063ef2f90cf14610591575f80fd5b8063a217fddf116100fa578063a217fddf1461049e578063a2cb50ad146104a5578063a3112a64146104b8578063cb9ea3371461050c578063cd1f62061461051c575f80fd5b8063817b1cd2146103c95780638e7d8d18146103d257806391d14854146103f7578063940992a31461040a578063a201bbdd14610495575f80fd5b80632f2ff15d116101c15780635b79872c116101865780635b79872c146102425780635c975abb146103995780636fa8a7a7146103a357806371ed5d1a146103b657806378b4330f1461031a575f80fd5b80632f2ff15d1461035757806336568abe1461036a5780633f4ba83a1461037d578063463e5808146103855780634f1bfc9e1461038f575f80fd5b8063228a5ab011610207578063228a5ab0146102e4578063248a9ca3146102f75780632799657d1461031a57806327f8e0e9146103245780632daedd5214610344575f80fd5b8062bb6e921461024257806301ffc9a71461026657806307e2cea514610289578063122ca506146102b0578063136439dd146102cf575b5f80fd5b61025369021e19e0c9bab240000081565b6040519081526020015b60405180910390f35b610279610274366004611770565b61062e565b604051901515815260200161025d565b6102537f68e79a7bf1e0bc45d0a330c573bc367f9cf464fd326078812f301165fbda4ef181565b6102536102be366004611797565b60046020525f908152604090205481565b6102e26102dd366004611797565b610664565b005b6102536102f23660046117c9565b61072c565b610253610305366004611797565b5f908152600160208190526040909120015490565b61025362093a8081565b610337610332366004611797565b610757565b60405161025d91906117f1565b610253610352366004611834565b6107b6565b6102e261036536600461185d565b610d03565b6102e261037836600461185d565b610d2e565b6102e2610d66565b61025362278d0081565b6102536276a70081565b6002544210610279565b6102536103b1366004611887565b610dff565b6102e26103c4366004611797565b610e18565b61025360095481565b6103e56103e0366004611797565b611064565b60405160ff909116815260200161025d565b61027961040536600461185d565b61111c565b61045c610418366004611797565b600360208190525f91825260409091208054600182015460028301549383015460048401546005909401546001600160a01b03909316949193919290919060ff1686565b604080516001600160a01b03909716875260208701959095529385019290925260608401526080830152151560a082015260c00161025d565b610253600a5481565b6102535f81565b6102536104b3366004611797565b611146565b61045c6104c6366004611797565b5f9081526003602081905260409091208054600182015460028301549383015460048401546005909401546001600160a01b03909316959194939092909160ff90911690565b610253683635c9adc5dea0000081565b610253602181565b6102e261053236600461185d565b611257565b61025360025481565b61025361054e3660046117c9565b600660209081525f928352604080842090915290825290205481565b6102537f65d7a28e3265b37a6474929f336521b332c1681b933f6cb9f3376673440d862a81565b61025368056bc75e2d6310000081565b6102e26105af366004611797565b61127c565b6102536105c23660046118a7565b60056020525f908152604090205481565b6105fa7f000000000000000000000000000000000000000000000000000000000000000081565b6040516001600160a01b03909116815260200161025d565b6103376106203660046118a7565b6114b9565b6105fa61dead81565b5f6001600160e01b03198216637965db0b60e01b148061065e57506301ffc9a760e01b6001600160e01b03198316145b92915050565b7f65d7a28e3265b37a6474929f336521b332c1681b933f6cb9f3376673440d862a61068e81611520565b5f821180156106a0575062093a808211155b6106e45760405162461bcd60e51b815260206004820152601060248201526f24b73b30b634b210323ab930ba34b7b760811b60448201526064015b60405180910390fd5b6106ee82426118d4565b600281905560405190815233907fab40a374bc51de372200a8bc981af8c9ecdc08dfdaef0bb6e09f88f3c616ef3d9060200160405180910390a25050565b6007602052815f5260405f208181548110610745575f80fd5b905f5260205f20015f91509150505481565b5f818152600860209081526040918290208054835181840281018401909452808452606093928301828280156107aa57602002820191905f5260205f20905b815481526020019060010190808311610796575b50505050509050919050565b5f6107bf61152a565b6002544210156108065760405162461bcd60e51b815260206004820152601260248201527110dbdb9d1c9858dd081a5cc81c185d5cd95960721b60448201526064016106db565b8361084b5760405162461bcd60e51b8152602060048201526015602482015274092dcecc2d8d2c840e4cae6deeae4c6ca40d0c2e6d605b1b60448201526064016106db565b5f831161089a5760405162461bcd60e51b815260206004820152601760248201527f416d6f756e74206d75737420626520706f73697469766500000000000000000060448201526064016106db565b62093a808210156108de5760405162461bcd60e51b815260206004820152600e60248201526d131bd8dac81d1bdbc81cda1bdc9d60921b60448201526064016106db565b6276a7008211156109215760405162461bcd60e51b815260206004820152600d60248201526c4c6f636b20746f6f206c6f6e6760981b60448201526064016106db565b335f9081526005602052604090205469021e19e0c9bab2400000906109479085906118d4565b11156109955760405162461bcd60e51b815260206004820152601d60248201527f45786365656473206d6178207374616b65207065722061756469746f7200000060448201526064016106db565b5f84815260046020908152604080832054338452600683528184208885529092528220549091906109c690836118e7565b90508015610a7057335f9081526006602090815260408083208984529091528120546109f39087906118d4565b90505f610a0087856118d4565b90505f81610a0f8460646118fa565b610a199190611911565b90506021811115610a6c5760405162461bcd60e51b815260206004820152601960248201527f45786365656473206d6178207374616b652070657263656e740000000000000060448201526064016106db565b5050505b6040516bffffffffffffffffffffffff193360601b166020820152603481018790524260548201526074810186905260940160408051601f1981840301815291815281516020928301205f818152600390935291206002015490935015610b0e5760405162461bcd60e51b81526020600482015260126024820152714174746573746174696f6e2065786973747360701b60448201526064016106db565b5f610b1985426118d4565b6040805160c08101825233815260208082018b81528284018b815260608401868152608085018c81525f60a087018181528d82526003808852898320985189546001600160a01b0319166001600160a01b039091161789559551600189015593516002880155915193860193909355915160048086019190915590516005909401805460ff1916941515949094179093558b815291905290812080549293508892909190610bc89084906118d4565b9091555050335f9081526005602052604081208054889290610beb9084906118d4565b9091555050335f9081526006602090815260408083208a845290915281208054889290610c199084906118d4565b925050819055508560095f828254610c3191906118d4565b9091555050335f818152600760209081526040808320805460018181018355918552838520018990558b845260088352908320805491820181558352912001859055610ca9907f00000000000000000000000000000000000000000000000000000000000000006001600160a01b0316903089611552565b60408051878152602081018390529081018690528790339086907fd8762e24c29612970b3384043c845795cd1b5d9d6337723d06ad4af04399f1ff9060600160405180910390a4505050610cfc60015f55565b9392505050565b5f8281526001602081905260409091200154610d1e81611520565b610d2883836115b9565b50505050565b6001600160a01b0381163314610d575760405163334bd91960e11b815260040160405180910390fd5b610d61828261162f565b505050565b7f65d7a28e3265b37a6474929f336521b332c1681b933f6cb9f3376673440d862a610d9081611520565b6002544210610dce5760405162461bcd60e51b815260206004820152600a602482015269139bdd081c185d5cd95960b21b60448201526064016106db565b5f600281905560405133917f5db9ee0a495bf2e6ff9c91a7834c1ba4fdd244a5e8aa4e537bd38aeae4b073aa91a250565b6008602052815f5260405f208181548110610745575f80fd5b610e2061152a565b5f81815260036020526040902080546001600160a01b03163314610e7d5760405162461bcd60e51b81526020600482015260146024820152732737ba103cb7bab91030ba3a32b9ba30ba34b7b760611b60448201526064016106db565b600581015460ff1615610ec85760405162461bcd60e51b8152602060048201526013602482015272105d1d195cdd185d1a5bdb881cdb185cda1959606a1b60448201526064016106db565b5f816002015411610f0c5760405162461bcd60e51b815260206004820152600e60248201526d139bc81cdd185ad948199bdd5b9960921b60448201526064016106db565b8060030154421015610f4f5760405162461bcd60e51b815260206004820152600c60248201526b14dd1a5b1b081b1bd8dad95960a21b60448201526064016106db565b600281015460018201545f8181526004602052604081208054849290610f769084906118e7565b9091555050335f9081526005602052604081208054849290610f999084906118e7565b9091555050335f90815260066020908152604080832084845290915281208054849290610fc79084906118e7565b925050819055508160095f828254610fdf91906118e7565b90915550505f600284015561101e6001600160a01b037f000000000000000000000000000000000000000000000000000000000000000016338461169a565b604051828152339085907f5bbf885d89157861119229ac0c3d414dabf442fea99c8ccaee143d33ed15f2379060200160405180910390a350505061106160015f55565b50565b60405163a2cb50ad60e01b8152600481018290525f908190309063a2cb50ad90602401602060405180830381865afa1580156110a2573d5f803e3d5ffd5b505050506040513d601f19601f820116820180604052508101906110c69190611930565b905069021e19e0c9bab240000081106110e25750600392915050565b683635c9adc5dea0000081106110fb5750600292915050565b68056bc75e2d6310000081106111145750600192915050565b505f92915050565b5f9182526001602090815260408084206001600160a01b0393909316845291905290205460ff1690565b5f8181526008602090815260408083208054825181850281018501909352808352849383018282801561119657602002820191905f5260205f20905b815481526020019060010190808311611182575b505050505090505f5b8151811015611250575f60035f8484815181106111be576111be611947565b602002602001015181526020019081526020015f2090505f81600201541180156111ed5750600581015460ff16155b156112475760048101546064906276a7001161120b575060c861121d565b62278d0082600401541061121d575060965b606481836002015461122f91906118fa565b6112399190611911565b61124390866118d4565b9450505b5060010161119f565b5050919050565b5f828152600160208190526040909120015461127281611520565b610d28838361162f565b7f68e79a7bf1e0bc45d0a330c573bc367f9cf464fd326078812f301165fbda4ef16112a681611520565b6112ae61152a565b5f828152600360205260409020600581015460ff16156113025760405162461bcd60e51b815260206004820152600f60248201526e105b1c9958591e481cdb185cda1959608a1b60448201526064016106db565b5f8160020154116113465760405162461bcd60e51b815260206004820152600e60248201526d139bc81cdd185ad948199bdd5b9960921b60448201526064016106db565b600281018054825460018085015460058601805460ff19169092179091555f93849055808452600460205260408420805493946001600160a01b0390931693919285926113949084906118e7565b90915550506001600160a01b0382165f90815260056020526040812080548592906113c09084906118e7565b90915550506001600160a01b0382165f908152600660209081526040808320848452909152812080548592906113f79084906118e7565b925050819055508260095f82825461140f91906118e7565b9250508190555082600a5f82825461142791906118d4565b9091555061146390506001600160a01b037f00000000000000000000000000000000000000000000000000000000000000001661dead8561169a565b80826001600160a01b0316877fb03fda3fe1b79698de7994cef2871f268c3aa583108ee8ae3d0742f8e49bcf9b866040516114a091815260200190565b60405180910390a4505050506114b560015f55565b5050565b6001600160a01b0381165f908152600760209081526040918290208054835181840281018401909452808452606093928301828280156107aa57602002820191905f5260205f20908154815260200190600101908083116107965750505050509050919050565b61106181336116cb565b60025f540361154c57604051633ee5aeb560e01b815260040160405180910390fd5b60025f55565b6040516001600160a01b038481166024830152838116604483015260648201839052610d289186918216906323b872dd906084015b604051602081830303815290604052915060e01b6020820180516001600160e01b038381831617835250505050611704565b5f6115c4838361111c565b611628575f8381526001602081815260408084206001600160a01b0387168086529252808420805460ff19169093179092559051339286917f2f8788117e7eff1d82e926ec794901d17c78024a50270940304540a733656f0d9190a450600161065e565b505f61065e565b5f61163a838361111c565b15611628575f8381526001602090815260408083206001600160a01b0386168085529252808320805460ff1916905551339286917ff6391f5c32d9c69d2a47ea670b442974b53935d1edc7fd64eb21e047a839171b9190a450600161065e565b6040516001600160a01b03838116602483015260448201839052610d6191859182169063a9059cbb90606401611587565b6116d5828261111c565b6114b55760405163e2517d3f60e01b81526001600160a01b0382166004820152602481018390526044016106db565b5f8060205f8451602086015f885af180611723576040513d5f823e3d81fd5b50505f513d9150811561173a578060011415611747565b6001600160a01b0384163b155b15610d2857604051635274afe760e01b81526001600160a01b03851660048201526024016106db565b5f60208284031215611780575f80fd5b81356001600160e01b031981168114610cfc575f80fd5b5f602082840312156117a7575f80fd5b5035919050565b80356001600160a01b03811681146117c4575f80fd5b919050565b5f80604083850312156117da575f80fd5b6117e3836117ae565b946020939093013593505050565b602080825282518282018190525f9190848201906040850190845b818110156118285783518352928401929184019160010161180c565b50909695505050505050565b5f805f60608486031215611846575f80fd5b505081359360208301359350604090920135919050565b5f806040838503121561186e575f80fd5b8235915061187e602084016117ae565b90509250929050565b5f8060408385031215611898575f80fd5b50508035926020909101359150565b5f602082840312156118b7575f80fd5b610cfc826117ae565b634e487b7160e01b5f52601160045260245ffd5b8082018082111561065e5761065e6118c0565b8181038181111561065e5761065e6118c0565b808202811582820484141761065e5761065e6118c0565b5f8261192b57634e487b7160e01b5f52601260045260245ffd5b500490565b5f60208284031215611940575f80fd5b5051919050565b634e487b7160e01b5f52603260045260245ffdfea2646970667358221220dec2c6d717c5cbe844484939dee6fec9190e264056e43227250858d6570e50e664736f6c63430008180033",
  "linkReferences": {},
  "deployedLinkReferences": {}
}