{"contracts/ISNADRegistry.sol":{"ISNADRegistry":{"abi":[{"anonymous":false,"inputs":[{"indexed":true,"internalType":"bytes32","name":"contentHash","type":"bytes32"},{"indexed":true,"internalType":"address","name":"originalAuthor","type":"address"}],"name":"ChunkCleanedUp","type":"event"},{"anonymous":false,"inputs":[{"indexed":true,"internalType":"bytes32","name":"contentHash","type":"bytes32"},{"indexed":false,"internalType":"uint16","name":"chunkIndex","type":"uint16"},{"indexed":false,"internalType":"uint16","name":"totalChunks","type":"uint16"},{"indexed":true,"internalType":"address","name":"author","type":"address"}],"name":"ChunkInscribed","type":"event"},{"anonymous":false,"inputs":[{"indexed":true,"internalType":"bytes32","name":"contentHash","type":"bytes32"},{"indexed":true,"internalType":"bytes32","name":"supersededBy","type":"bytes32"},{"indexed":true,"internalType":"address","name":"author","type":"address"}],"name":"ResourceDeprecated","type":"event"},{"anonymous":false,"inputs":[{"indexed":true,"internalType":"bytes32","name":"contentHash","type":"bytes32"},{"indexed":true,"internalType":"uint8","name":"resourceType","type":"uint8"},{"indexed":true,"internalType":"address","name":"author","type":"address"},{"indexed":false,"internalType":"uint256","name":"blockNumber","type":"uint256"},{"indexed":false,"internalType":"string","name":"metadata","type":"string"}],"name":"ResourceInscribed","type":"event"},{"inputs":[],"name":"CHUNK_TIMEOUT","outputs":[{"internalType":"uint256","name":"","type":"uint256"}],"stateMutability":"view","type":"function"},{"inputs":[],"name":"TYPE_AGENT_CARD","outputs":[{"internalType":"uint8","name":"","type":"uint8"}],"stateMutability":"view","type":"function"},{"inputs":[],"name":"TYPE_MODEL_CARD","outputs":[{"internalType":"uint8","name":"","type":"uint8"}],"stateMutability":"view","type":"function"},{"inputs":[],"name":"TYPE_PROMPT","outputs":[{"internalType":"uint8","name":"","type":"uint8"}],"stateMutability":"view","type":"function"},{"inputs":[],"name":"TYPE_RAW","outputs":[{"internalType":"uint8","name":"","type":"uint8"}],"stateMutability":"view","type":"function"},{"inputs":[],"name":"TYPE_TOOL_SPEC","outputs":[{"internalType":"uint8","name":"","type":"uint8"}],"stateMutability":"view","type":"function"},{"inputs":[],"name":"TYPE_TRAINING","outputs":[{"internalType":"uint8","name":"","type":"uint8"}],"stateMutability":"view","type":"function"},{"inputs":[],"name":"TYPE_WORKFLOW","outputs":[{"internalType":"uint8","name":"","type":"uint8"}],"stateMutability":"view","type":"function"},{"inputs":[{"internalType":"bytes32","name":"","type":"bytes32"}],"name":"author","outputs":[{"internalType":"address","name":"","type":"address"}],"stateMutability":"view","type":"function"},{"inputs":[{"internalType":"bytes32","name":"","type":"bytes32"}],"name":"blockNumber","outputs":[{"internalType":"uint256","name":"","type":"uint256"}],"stateMutability":"view","type":"function"},{"inputs":[{"internalType":"bytes32","name":"contentHash","type":"bytes32"}],"name":"cleanupAbandonedChunk","outputs":[],"stateMutability":"nonpayable","type":"function"},{"inputs":[{"internalType":"bytes32","name":"contentHash","type":"bytes32"},{"internalType":"bytes32","name":"newContentHash","type":"bytes32"}],"name":"deprecate","outputs":[],"stateMutability":"nonpayable","type":"function"},{"inputs":[{"internalType":"bytes32","name":"","type":"bytes32"}],"name":"exists","outputs":[{"internalType":"bool","name":"","type":"bool"}],"stateMutability":"view","type":"function"},{"inputs":[{"internalType":"bytes32","name":"contentHash","type":"bytes32"}],"name":"getChunkStatus","outputs":[{"internalType":"bool","name":"pending","type":"bool"},{"internalType":"uint16","name":"received","type":"uint16"},{"internalType":"uint16","name":"total","type":"uint16"},{"internalType":"address","name":"chunkAuthor","type":"address"},{"internalType":"uint256","name":"createdAt","type":"uint256"}],"stateMutability":"view","type":"function"},{"inputs":[{"internalType":"bytes32","name":"contentHash","type":"bytes32"}],"name":"getResource","outputs":[{"internalType":"bool","name":"inscribed","type":"bool"},{"internalType":"address","name":"resourceAuthor","type":"address"},{"internalType":"uint256","name":"inscribedBlock","type":"uint256"},{"internalType":"bytes32","name":"successor","type":"bytes32"}],"stateMutability":"view","type":"function"},{"inputs":[{"internalType":"bytes32","name":"contentHash","type":"bytes32"},{"internalType":"uint8","name":"resourceType","type":"uint8"},{"internalType":"string","name":"metadata","type":"string"},{"internalType":"bytes","name":"content","type":"bytes"}],"name":"inscribe","outputs":[],"stateMutability":"nonpayable","type":"function"},{"inputs":[{"internalType":"bytes32","name":"contentHash","type":"bytes32"},{"internalType":"uint16","name":"chunkIndex","type":"uint16"},{"internalType":"uint16","name":"totalChunks","type":"uint16"},{"internalType":"uint8","name":"resourceType","type":"uint8"},{"internalType":"string","name":"metadata","type":"string"},{"internalType":"bytes","name":"chunkData","type":"bytes"}],"name":"inscribeChunk","outputs":[],"stateMutability":"nonpayable","type":"function"},{"inputs":[{"internalType":"bytes32","name":"contentHash","type":"bytes32"}],"name":"isDeprecated","outputs":[{"internalType":"bool","name":"","type":"bool"}],"stateMutability":"view","type":"function"},{"inputs":[{"internalType":"bytes32","name":"","type":"bytes32"}],"name":"pendingChunks","outputs":[{"internalType":"bytes32","name":"contentHash","type":"bytes32"},{"internalType":"uint16","name":"totalChunks","type":"uint16"},{"internalType":"uint16","name":"receivedChunks","type":"uint16"},{"internalType":"address","name":"author","type":"address"},{"internalType":"uint256","name":"createdAt","type":"uint256"}],"stateMutability":"view","type":"function"},{"inputs":[{"internalType":"bytes32","name":"","type":"bytes32"}],"name":"supersededBy","outputs":[{"internalType":"bytes32","name":"","type":"bytes32"}],"stateMutability":"view","type":"function"}],"evm":{"bytecode":{"linkReferences":{},"object":"608060405234801561000f575f80fd5b50610ff48061001d5f395ff3fe608060405234801561000f575f80fd5b5060043610610127575f3560e01c8063a23ccd51116100a9578063c98a5fe11161006e578063c98a5fe1146103e9578063d3d6e82e146103f1578063eb069a8a146103f8578063ed1d288714610400578063f33e54e31461041f575f80fd5b8063a23ccd5114610319578063af1f8cbb14610321578063b2b5c81914610361578063b4d6af8a14610369578063c89af970146103df575f80fd5b806338a699a4116100ef57806338a699a4146102b457806338bc7435146102d657806375c88124146102eb5780637ce6bc8b146102fe57806399bdd63614610311575f80fd5b8063094c890f1461012b5780630de4d5c01461014a578063120a2c3d1461017b5780631ceb83e91461020057806334132db61461022d575b5f80fd5b610133600581565b60405160ff90911681526020015b60405180910390f35b61016b610158366004610d4c565b5f90815260036020526040902054151590565b6040519015158152602001610141565b6101c6610189366004610d4c565b5f9081526004602052604090206001810154600290910154600160201b82046001600160a01b03168015159361ffff620100008504811694169290565b60408051951515865261ffff948516602087015292909316918401919091526001600160a01b03166060830152608082015260a001610141565b61021f61020e366004610d4c565b60036020525f908152604090205481565b604051908152602001610141565b61027c61023b366004610d4c565b60046020525f9081526040902080546001820154600290920154909161ffff8082169262010000830490911691600160201b90046001600160a01b03169085565b6040805195865261ffff948516602087015292909316918401919091526001600160a01b03166060830152608082015260a001610141565b61016b6102c2366004610d4c565b5f6020819052908152604090205460ff1681565b6102e96102e4366004610d63565b610432565b005b6102e96102f9366004610ddd565b61057b565b6102e961030c366004610d4c565b6107bc565b610133600481565b610133600181565b61034961032f366004610d4c565b60016020525f90815260409020546001600160a01b031681565b6040516001600160a01b039091168152602001610141565b610133600381565b6103b5610377366004610d4c565b5f9081526020818152604080832054600183528184205460028452828520546003909452919093205460ff909316936001600160a01b039091169290565b6040805194151585526001600160a01b039093166020850152918301526060820152608001610141565b61021f6201518081565b610133600281565b6101335f81565b610133600681565b61021f61040e366004610d4c565b60026020525f908152604090205481565b6102e961042d366004610e72565b6108e5565b5f8281526020819052604090205460ff166104895760405162461bcd60e51b815260206004820152601260248201527114995cdbdd5c98d9481b9bdd08199bdd5b9960721b60448201526064015b60405180910390fd5b5f828152600160205260409020546001600160a01b031633146104db5760405162461bcd60e51b815260206004820152600a6024820152692737ba1030baba3437b960b11b6044820152606401610480565b5f828152600360205260409020541561052b5760405162461bcd60e51b8152602060048201526012602482015271105b1c9958591e4819195c1c9958d85d195960721b6044820152606401610480565b8015610537578061053a565b60015b5f838152600360205260408082209290925590513391839185917f1e6399173b4ccd593844cebb6528627794cc752f5ddc10f1a9cc2f26d752bb6a91a45050565b5f8681526020819052604090205460ff16156105cd5760405162461bcd60e51b8152602060048201526011602482015270105b1c9958591e481a5b9cd8dc9a589959607a1b6044820152606401610480565b600660ff861611156106195760405162461bcd60e51b8152602060048201526015602482015274496e76616c6964207265736f75726365207479706560581b6044820152606401610480565b61080083111561065f5760405162461bcd60e51b81526020600482015260116024820152704d6574616461746120746f6f206c6f6e6760781b6044820152606401610480565b8061069c5760405162461bcd60e51b815260206004820152600d60248201526c115b5c1d1e4818dbdb9d195b9d609a1b6044820152606401610480565b5f600283836040516106af929190610f16565b602060405180830381855afa1580156106ca573d5f803e3d5ffd5b5050506040513d601f19601f820116820180604052508101906106ed9190610f25565b905086811461072e5760405162461bcd60e51b815260206004820152600d60248201526c090c2e6d040dad2e6dac2e8c6d609b1b6044820152606401610480565b5f87815260208181526040808320805460ff19166001908117909155825280832080546001600160a01b0319163390811790915560029092529182902043908190559151909160ff8916918a917f402531f8214bfa7fd274f028ff5aa496e8ace2227116528db551894829bb6f52916107ab91908b908b90610f3c565b60405180910390a450505050505050565b5f8181526004602052604090206001810154600160201b90046001600160a01b031661081d5760405162461bcd60e51b815260206004820152601060248201526f4e6f2070656e64696e67206368756e6b60801b6044820152606401610480565b6201518081600201546108309190610f85565b4210156108755760405162461bcd60e51b8152602060048201526013602482015272151a5b595bdd5d081b9bdd081c995858da1959606a1b6044820152606401610480565b6001818101545f8481526004602052604080822082815593840180546001600160c01b031916905560029093018190559151600160201b9091046001600160a01b031691829185917f377d300e76b82408f2383c511fe4d3c42bf564883a8863a5daee36a6d7312cb591a3505050565b5f8881526020819052604090205460ff16156109375760405162461bcd60e51b8152602060048201526011602482015270105b1c9958591e481a5b9cd8dc9a589959607a1b6044820152606401610480565b8561ffff168761ffff16106109845760405162461bcd60e51b8152602060048201526013602482015272092dcecc2d8d2c840c6d0eadcd640d2dcc8caf606b1b6044820152606401610480565b60018661ffff16116109d85760405162461bcd60e51b815260206004820152601f60248201527f55736520696e736372696265282920666f722073696e676c65206368756e6b006044820152606401610480565b60648661ffff161115610a1f5760405162461bcd60e51b815260206004820152600f60248201526e546f6f206d616e79206368756e6b7360881b6044820152606401610480565b80610a5a5760405162461bcd60e51b815260206004820152600b60248201526a456d707479206368756e6b60a81b6044820152606401610480565b5f8881526004602052604081209061ffff89169003610b5c576001810154600160201b90046001600160a01b031615610acd5760405162461bcd60e51b81526020600482015260156024820152744368756e6b2073657175656e63652065786973747360581b6044820152606401610480565b600660ff87161115610b195760405162461bcd60e51b8152602060048201526015602482015274496e76616c6964207265736f75726365207479706560581b6044820152606401610480565b888155600181018054600160201b3302640100000000600160c01b031963ffffffff1990921661ffff8b1617620100001791909116179055426002820155610c3b565b6001810154600160201b90046001600160a01b03163314610bb25760405162461bcd60e51b815260206004820152601060248201526f2737ba1031b43ab7359030baba3437b960811b6044820152606401610480565b600181015461ffff888116911614610c035760405162461bcd60e51b8152602060048201526014602482015273086d0eadcd640c6deeadce840dad2e6dac2e8c6d60631b6044820152606401610480565b60018101805462010000900461ffff16906002610c1f83610f9e565b91906101000a81548161ffff021916908361ffff160217905550505b6040805161ffff808b1682528916602082015233918b917f7838723ab20e5d1a9bfda2356f1fd6670cb53e1460bd64acf48ed4d195edd108910160405180910390a3600181015461ffff808916620100009092041603610d41575f89815260208181526040808320805460ff19166001908117909155825280832080546001600160a01b0319163390811790915560029092529182902043908190559151909160ff8916918c917f402531f8214bfa7fd274f028ff5aa496e8ace2227116528db551894829bb6f5291610d1291908b908b90610f3c565b60405180910390a45f8981526004602052604081208181556001810180546001600160c01b0319169055600201555b505050505050505050565b5f60208284031215610d5c575f80fd5b5035919050565b5f8060408385031215610d74575f80fd5b50508035926020909101359150565b803560ff81168114610d93575f80fd5b919050565b5f8083601f840112610da8575f80fd5b50813567ffffffffffffffff811115610dbf575f80fd5b602083019150836020828501011115610dd6575f80fd5b9250929050565b5f805f805f8060808789031215610df2575f80fd5b86359550610e0260208801610d83565b9450604087013567ffffffffffffffff80821115610e1e575f80fd5b610e2a8a838b01610d98565b90965094506060890135915080821115610e42575f80fd5b50610e4f89828a01610d98565b979a9699509497509295939492505050565b803561ffff81168114610d93575f80fd5b5f805f805f805f8060c0898b031215610e89575f80fd5b88359750610e9960208a01610e61565b9650610ea760408a01610e61565b9550610eb560608a01610d83565b9450608089013567ffffffffffffffff80821115610ed1575f80fd5b610edd8c838d01610d98565b909650945060a08b0135915080821115610ef5575f80fd5b50610f028b828c01610d98565b999c989b5096995094979396929594505050565b818382375f9101908152919050565b5f60208284031215610f35575f80fd5b5051919050565b83815260406020820152816040820152818360608301375f818301606090810191909152601f909201601f1916010192915050565b634e487b7160e01b5f52601160045260245ffd5b80820180821115610f9857610f98610f71565b92915050565b5f61ffff808316818103610fb457610fb4610f71565b600101939250505056fea264697066735822122023d11b71f2753c9c42d46d9ee171413fd3f461c20f89ae00f551faf734211e4964736f6c63430008180033","opcodes":"PUSH1 0x80 PUSH1 0x40 MSTORE CALLVALUE DUP1 ISZERO PUSH2 0xF JUMPI PUSH0 DUP1 REVERT JUMPDEST POP PUSH2 0xFF4 DUP1 PUSH2 0x1D PUSH0 CODECOPY PUSH0 RETURN INVALID PUSH1 0x80 PUSH1 0x40 MSTORE CALLVALUE DUP1 ISZERO PUSH2 0xF JUMPI PUSH0 DUP1 REVERT JUMPDEST POP PUSH1 0x4 CALLDATASIZE LT PUSH2 0x127 JUMPI PUSH0 CALLDATALOAD PUSH1 0xE0 SHR DUP1 PUSH4 0xA23CCD51 GT PUSH2 0xA9 JUMPI DUP1 PUSH4 0xC98A5FE1 GT PUSH2 0x6E JUMPI DUP1 PUSH4 0xC98A5FE1 EQ PUSH2 0x3E9 JUMPI DUP1 PUSH4 0xD3D6E82E EQ PUSH2 0x3F1 JUMPI DUP1 PUSH4 0xEB069A8A EQ PUSH2 0x3F8 JUMPI DUP1 PUSH4 0xED1D2887 EQ PUSH2 0x400 JUMPI DUP1 PUSH4 0xF33E54E3 EQ PUSH2 0x41F JUMPI PUSH0 DUP1 REVERT JUMPDEST DUP1 PUSH4 0xA23CCD51 EQ PUSH2 0x319 JUMPI DUP1 PUSH4 0xAF1F8CBB EQ PUSH2 0x321 JUMPI DUP1 PUSH4 0xB2B5C819 EQ PUSH2 0x361 JUMPI DUP1 PUSH4 0xB4D6AF8A EQ PUSH2 0x369 JUMPI DUP1 PUSH4 0xC89AF970 EQ PUSH2 0x3DF JUMPI PUSH0 DUP1 REVERT JUMPDEST DUP1 PUSH4 0x38A699A4 GT PUSH2 0xEF JUMPI DUP1 PUSH4 0x38A699A4 EQ PUSH2 0x2B4 JUMPI DUP1 PUSH4 0x38BC7435 EQ PUSH2 0x2D6 JUMPI DUP1 PUSH4 0x75C88124 EQ PUSH2 0x2EB JUMPI DUP1 PUSH4 0x7CE6BC8B EQ PUSH2 0x2FE JUMPI DUP1 PUSH4 0x99BDD636 EQ PUSH2 0x311 JUMPI PUSH0 DUP1 REVERT JUMPDEST DUP1 PUSH4 0x94C890F EQ PUSH2 0x12B JUMPI DUP1 PUSH4 0xDE4D5C0 EQ PUSH2 0x14A JUMPI DUP1 PUSH4 0x120A2C3D EQ PUSH2 0x17B JUMPI DUP1 PUSH4 0x1CEB83E9 EQ PUSH2 0x200 JUMPI DUP1 PUSH4 0x34132DB6 EQ PUSH2 0x22D JUMPI JUMPDEST PUSH0 DUP1 REVERT JUMPDEST PUSH2 0x133 PUSH1 0x5 DUP2 JUMP JUMPDEST PUSH1 0x40 MLOAD PUSH1 0xFF SWAP1 SWAP2 AND DUP2 MSTORE PUSH1 0x20 ADD JUMPDEST PUSH1 0x40 MLOAD DUP1 SWAP2 SUB SWAP1 RETURN JUMPDEST PUSH2 0x16B PUSH2 0x158 CALLDATASIZE PUSH1 0x4 PUSH2 0xD4C JUMP JUMPDEST PUSH0 SWAP1 DUP2 MSTORE PUSH1 0x3 PUSH1 0x20 MSTORE PUSH1 0x40 SWAP1 KECCAK256 SLOAD ISZERO ISZERO SWAP1 JUMP JUMPDEST PUSH1 0x40 MLOAD SWAP1 ISZERO ISZERO DUP2 MSTORE PUSH1 0x20 ADD PUSH2 0x141 JUMP JUMPDEST PUSH2 0x1C6 PUSH2 0x189 CALLDATASIZE PUSH1 0x4 PUSH2 0xD4C JUMP JUMPDEST PUSH0 SWAP1 DUP2 MSTORE PUSH1 0x4 PUSH1 0x20 MSTORE PUSH1 0x40 SWAP1 KECCAK256 PUSH1 0x1 DUP2 ADD SLOAD PUSH1 0x2 SWAP1 SWAP2 ADD SLOAD PUSH1 0x1 PUSH1 0x20 SHL DUP3 DIV PUSH1 0x1 PUSH1 0x1 PUSH1 0xA0 SHL SUB AND DUP1 ISZERO ISZERO SWAP4 PUSH2 0xFFFF PUSH3 0x10000 DUP6 DIV DUP2 AND SWAP5 AND SWAP3 SWAP1 JUMP JUMPDEST PUSH1 0x40 DUP1 MLOAD SWAP6 ISZERO ISZERO DUP7 MSTORE PUSH2 0xFFFF SWAP5 DUP6 AND PUSH1 0x20 DUP8 ADD MSTORE SWAP3 SWAP1 SWAP4 AND SWAP2 DUP5 ADD SWAP2 SWAP1 SWAP2 MSTORE PUSH1 0x1 PUSH1 0x1 PUSH1 0xA0 SHL SUB AND PUSH1 0x60 DUP4 ADD MSTORE PUSH1 0x80 DUP3 ADD MSTORE PUSH1 0xA0 ADD PUSH2 0x141 JUMP JUMPDEST PUSH2 0x21F PUSH2 0x20E CALLDATASIZE PUSH1 0x4 PUSH2 0xD4C JUMP JUMPDEST PUSH1 0x3 PUSH1 0x20 MSTORE PUSH0 SWAP1 DUP2 MSTORE PUSH1 0x40 SWAP1 KECCAK256 SLOAD DUP2 JUMP JUMPDEST PUSH1 0x40 MLOAD SWAP1 DUP2 MSTORE PUSH1 0x20 ADD PUSH2 0x141 JUMP JUMPDEST PUSH2 0x27C PUSH2 0x23B CALLDATASIZE PUSH1 0x4 PUSH2 0xD4C JUMP JUMPDEST PUSH1 0x4 PUSH1 0x20 MSTORE PUSH0 SWAP1 DUP2 MSTORE PUSH1 0x40 SWAP1 KECCAK256 DUP1 SLOAD PUSH1 0x1 DUP3 ADD SLOAD PUSH1 0x2 SWAP1 SWAP3 ADD SLOAD SWAP1 SWAP2 PUSH2 0xFFFF DUP1 DUP3 AND SWAP3 PUSH3 0x10000 DUP4 DIV SWAP1 SWAP2 AND SWAP2 PUSH1 0x1 PUSH1 0x20 SHL SWAP1 DIV PUSH1 0x1 PUSH1 0x1 PUSH1 0xA0 SHL SUB AND SWAP1 DUP6 JUMP JUMPDEST PUSH1 0x40 DUP1 MLOAD SWAP6 DUP7 MSTORE PUSH2 0xFFFF SWAP5 DUP6 AND PUSH1 0x20 DUP8 ADD MSTORE SWAP3 SWAP1 SWAP4 AND SWAP2 DUP5 ADD SWAP2 SWAP1 SWAP2 MSTORE PUSH1 0x1 PUSH1 0x1 PUSH1 0xA0 SHL SUB AND PUSH1 0x60 DUP4 ADD MSTORE PUSH1 0x80 DUP3 ADD MSTORE PUSH1 0xA0 ADD PUSH2 0x141 JUMP JUMPDEST PUSH2 0x16B PUSH2 0x2C2 CALLDATASIZE PUSH1 0x4 PUSH2 0xD4C JUMP JUMPDEST PUSH0 PUSH1 0x20 DUP2 SWAP1 MSTORE SWAP1 DUP2 MSTORE PUSH1 0x40 SWAP1 KECCAK256 SLOAD PUSH1 0xFF AND DUP2 JUMP JUMPDEST PUSH2 0x2E9 PUSH2 0x2E4 CALLDATASIZE PUSH1 0x4 PUSH2 0xD63 JUMP JUMPDEST PUSH2 0x432 JUMP JUMPDEST STOP JUMPDEST PUSH2 0x2E9 PUSH2 0x2F9 CALLDATASIZE PUSH1 0x4 PUSH2 0xDDD JUMP JUMPDEST PUSH2 0x57B JUMP JUMPDEST PUSH2 0x2E9 PUSH2 0x30C CALLDATASIZE PUSH1 0x4 PUSH2 0xD4C JUMP JUMPDEST PUSH2 0x7BC JUMP JUMPDEST PUSH2 0x133 PUSH1 0x4 DUP2 JUMP JUMPDEST PUSH2 0x133 PUSH1 0x1 DUP2 JUMP JUMPDEST PUSH2 0x349 PUSH2 0x32F CALLDATASIZE PUSH1 0x4 PUSH2 0xD4C JUMP JUMPDEST PUSH1 0x1 PUSH1 0x20 MSTORE PUSH0 SWAP1 DUP2 MSTORE PUSH1 0x40 SWAP1 KECCAK256 SLOAD PUSH1 0x1 PUSH1 0x1 PUSH1 0xA0 SHL SUB AND DUP2 JUMP JUMPDEST PUSH1 0x40 MLOAD PUSH1 0x1 PUSH1 0x1 PUSH1 0xA0 SHL SUB SWAP1 SWAP2 AND DUP2 MSTORE PUSH1 0x20 ADD PUSH2 0x141 JUMP JUMPDEST PUSH2 0x133 PUSH1 0x3 DUP2 JUMP JUMPDEST PUSH2 0x3B5 PUSH2 0x377 CALLDATASIZE PUSH1 0x4 PUSH2 0xD4C JUMP JUMPDEST PUSH0 SWAP1 DUP2 MSTORE PUSH1 0x20 DUP2 DUP2 MSTORE PUSH1 0x40 DUP1 DUP4 KECCAK256 SLOAD PUSH1 0x1 DUP4 MSTORE DUP2 DUP5 KECCAK256 SLOAD PUSH1 0x2 DUP5 MSTORE DUP3 DUP6 KECCAK256 SLOAD PUSH1 0x3 SWAP1 SWAP5 MSTORE SWAP2 SWAP1 SWAP4 KECCAK256 SLOAD PUSH1 0xFF SWAP1 SWAP4 AND SWAP4 PUSH1 0x1 PUSH1 0x1 PUSH1 0xA0 SHL SUB SWAP1 SWAP2 AND SWAP3 SWAP1 JUMP JUMPDEST PUSH1 0x40 DUP1 MLOAD SWAP5 ISZERO ISZERO DUP6 MSTORE PUSH1 0x1 PUSH1 0x1 PUSH1 0xA0 SHL SUB SWAP1 SWAP4 AND PUSH1 0x20 DUP6 ADD MSTORE SWAP2 DUP4 ADD MSTORE PUSH1 0x60 DUP3 ADD MSTORE PUSH1 0x80 ADD PUSH2 0x141 JUMP JUMPDEST PUSH2 0x21F PUSH3 0x15180 DUP2 JUMP JUMPDEST PUSH2 0x133 PUSH1 0x2 DUP2 JUMP JUMPDEST PUSH2 0x133 PUSH0 DUP2 JUMP JUMPDEST PUSH2 0x133 PUSH1 0x6 DUP2 JUMP JUMPDEST PUSH2 0x21F PUSH2 0x40E CALLDATASIZE PUSH1 0x4 PUSH2 0xD4C JUMP JUMPDEST PUSH1 0x2 PUSH1 0x20 MSTORE PUSH0 SWAP1 DUP2 MSTORE PUSH1 0x40 SWAP1 KECCAK256 SLOAD DUP2 JUMP JUMPDEST PUSH2 0x2E9 PUSH2 0x42D CALLDATASIZE PUSH1 0x4 PUSH2 0xE72 JUMP JUMPDEST PUSH2 0x8E5 JUMP JUMPDEST PUSH0 DUP3 DUP2 MSTORE PUSH1 0x20 DUP2 SWAP1 MSTORE PUSH1 0x40 SWAP1 KECCAK256 SLOAD PUSH1 0xFF AND PUSH2 0x489 JUMPI PUSH1 0x40 MLOAD PUSH3 0x461BCD PUSH1 0xE5 SHL DUP2 MSTORE PUSH1 0x20 PUSH1 0x4 DUP3 ADD MSTORE PUSH1 0x12 PUSH1 0x24 DUP3 ADD MSTORE PUSH18 0x14995CDBDD5C98D9481B9BDD08199BDD5B99 PUSH1 0x72 SHL PUSH1 0x44 DUP3 ADD MSTORE PUSH1 0x64 ADD JUMPDEST PUSH1 0x40 MLOAD DUP1 SWAP2 SUB SWAP1 REVERT JUMPDEST PUSH0 DUP3 DUP2 MSTORE PUSH1 0x1 PUSH1 0x20 MSTORE PUSH1 0x40 SWAP1 KECCAK256 SLOAD PUSH1 0x1 PUSH1 0x1 PUSH1 0xA0 SHL SUB AND CALLER EQ PUSH2 0x4DB JUMPI PUSH1 0x40 MLOAD PUSH3 0x461BCD PUSH1 0xE5 SHL DUP2 MSTORE PUSH1 0x20 PUSH1 0x4 DUP3 ADD MSTORE PUSH1 0xA PUSH1 0x24 DUP3 ADD MSTORE PUSH10 0x2737BA1030BABA3437B9 PUSH1 0xB1 SHL PUSH1 0x44 DUP3 ADD MSTORE PUSH1 0x64 ADD PUSH2 0x480 JUMP JUMPDEST PUSH0 DUP3 DUP2 MSTORE PUSH1 0x3 PUSH1 0x20 MSTORE PUSH1 0x40 SWAP1 KECCAK256 SLOAD ISZERO PUSH2 0x52B JUMPI PUSH1 0x40 MLOAD PUSH3 0x461BCD PUSH1 0xE5 SHL DUP2 MSTORE PUSH1 0x20 PUSH1 0x4 DUP3 ADD MSTORE PUSH1 0x12 PUSH1 0x24 DUP3 ADD MSTORE PUSH18 0x105B1C9958591E4819195C1C9958D85D1959 PUSH1 0x72 SHL PUSH1 0x44 DUP3 ADD MSTORE PUSH1 0x64 ADD PUSH2 0x480 JUMP JUMPDEST DUP1 ISZERO PUSH2 0x537 JUMPI DUP1 PUSH2 0x53A JUMP JUMPDEST PUSH1 0x1 JUMPDEST PUSH0 DUP4 DUP2 MSTORE PUSH1 0x3 PUSH1 0x20 MSTORE PUSH1 0x40 DUP1 DUP3 KECCAK256 SWAP3 SWAP1 SWAP3 SSTORE SWAP1 MLOAD CALLER SWAP2 DUP4 SWAP2 DUP6 SWAP2 PUSH32 0x1E6399173B4CCD593844CEBB6528627794CC752F5DDC10F1A9CC2F26D752BB6A SWAP2 LOG4 POP POP JUMP JUMPDEST PUSH0 DUP7 DUP2 MSTORE PUSH1 0x20 DUP2 SWAP1 MSTORE PUSH1 0x40 SWAP1 KECCAK256 SLOAD PUSH1 0xFF AND ISZERO PUSH2 0x5CD JUMPI PUSH1 0x40 MLOAD PUSH3 0x461BCD PUSH1 0xE5 SHL DUP2 MSTORE PUSH1 0x20 PUSH1 0x4 DUP3 ADD MSTORE PUSH1 0x11 PUSH1 0x24 DUP3 ADD MSTORE PUSH17 0x105B1C9958591E481A5B9CD8DC9A589959 PUSH1 0x7A SHL PUSH1 0x44 DUP3 ADD MSTORE PUSH1 0x64 ADD PUSH2 0x480 JUMP JUMPDEST PUSH1 0x6 PUSH1 0xFF DUP7 AND GT ISZERO PUSH2 0x619 JUMPI PUSH1 0x40 MLOAD PUSH3 0x461BCD PUSH1 0xE5 SHL DUP2 MSTORE PUSH1 0x20 PUSH1 0x4 DUP3 ADD MSTORE PUSH1 0x15 PUSH1 0x24 DUP3 ADD MSTORE PUSH21 0x496E76616C6964207265736F757263652074797065 PUSH1 0x58 SHL PUSH1 0x44 DUP3 ADD MSTORE PUSH1 0x64 ADD PUSH2 0x480 JUMP JUMPDEST PUSH2 0x800 DUP4 GT ISZERO PUSH2 0x65F JUMPI PUSH1 0x40 MLOAD PUSH3 0x461BCD PUSH1 0xE5 SHL DUP2 MSTORE PUSH1 0x20 PUSH1 0x4 DUP3 ADD MSTORE PUSH1 0x11 PUSH1 0x24 DUP3 ADD MSTORE PUSH17 0x4D6574616461746120746F6F206C6F6E67 PUSH1 0x78 SHL PUSH1 0x44 DUP3 ADD MSTORE PUSH1 0x64 ADD PUSH2 0x480 JUMP JUMPDEST DUP1 PUSH2 0x69C JUMPI PUSH1 0x40 MLOAD PUSH3 0x461BCD PUSH1 0xE5 SHL DUP2 MSTORE PUSH1 0x20 PUSH1 0x4 DUP3 ADD MSTORE PUSH1 0xD PUSH1 0x24 DUP3 ADD MSTORE PUSH13 0x115B5C1D1E4818DBDB9D195B9D PUSH1 0x9A SHL PUSH1 0x44 DUP3 ADD MSTORE PUSH1 0x64 ADD PUSH2 0x480 JUMP JUMPDEST PUSH0 PUSH1 0x2 DUP4 DUP4 PUSH1 0x40 MLOAD PUSH2 0x6AF SWAP3 SWAP2 SWAP1 PUSH2 0xF16 JUMP JUMPDEST PUSH1 0x20 PUSH1 0x40 MLOAD DUP1 DUP4 SUB DUP2 DUP6 GAS STATICCALL ISZERO DUP1 ISZERO PUSH2 0x6CA JUMPI RETURNDATASIZE PUSH0 DUP1 RETURNDATACOPY RETURNDATASIZE PUSH0 REVERT JUMPDEST POP POP POP PUSH1 0x40 MLOAD RETURNDATASIZE PUSH1 0x1F NOT PUSH1 0x1F DUP3 ADD AND DUP3 ADD DUP1 PUSH1 0x40 MSTORE POP DUP2 ADD SWAP1 PUSH2 0x6ED SWAP2 SWAP1 PUSH2 0xF25 JUMP JUMPDEST SWAP1 POP DUP7 DUP2 EQ PUSH2 0x72E JUMPI PUSH1 0x40 MLOAD PUSH3 0x461BCD PUSH1 0xE5 SHL DUP2 MSTORE PUSH1 0x20 PUSH1 0x4 DUP3 ADD MSTORE PUSH1 0xD PUSH1 0x24 DUP3 ADD MSTORE PUSH13 0x90C2E6D040DAD2E6DAC2E8C6D PUSH1 0x9B SHL PUSH1 0x44 DUP3 ADD MSTORE PUSH1 0x64 ADD PUSH2 0x480 JUMP JUMPDEST PUSH0 DUP8 DUP2 MSTORE PUSH1 0x20 DUP2 DUP2 MSTORE PUSH1 0x40 DUP1 DUP4 KECCAK256 DUP1 SLOAD PUSH1 0xFF NOT AND PUSH1 0x1 SWAP1 DUP2 OR SWAP1 SWAP2 SSTORE DUP3 MSTORE DUP1 DUP4 KECCAK256 DUP1 SLOAD PUSH1 0x1 PUSH1 0x1 PUSH1 0xA0 SHL SUB NOT AND CALLER SWAP1 DUP2 OR SWAP1 SWAP2 SSTORE PUSH1 0x2 SWAP1 SWAP3 MSTORE SWAP2 DUP3 SWAP1 KECCAK256 NUMBER SWAP1 DUP2 SWAP1 SSTORE SWAP2 MLOAD SWAP1 SWAP2 PUSH1 0xFF DUP10 AND SWAP2 DUP11 SWAP2 PUSH32 0x402531F8214BFA7FD274F028FF5AA496E8ACE2227116528DB551894829BB6F52 SWAP2 PUSH2 0x7AB SWAP2 SWAP1 DUP12 SWAP1 DUP12 SWAP1 PUSH2 0xF3C JUMP JUMPDEST PUSH1 0x40 MLOAD DUP1 SWAP2 SUB SWAP1 LOG4 POP POP POP POP POP POP POP JUMP JUMPDEST PUSH0 DUP2 DUP2 MSTORE PUSH1 0x4 PUSH1 0x20 MSTORE PUSH1 0x40 SWAP1 KECCAK256 PUSH1 0x1 DUP2 ADD SLOAD PUSH1 0x1 PUSH1 0x20 SHL SWAP1 DIV PUSH1 0x1 PUSH1 0x1 PUSH1 0xA0 SHL SUB AND PUSH2 0x81D JUMPI PUSH1 0x40 MLOAD PUSH3 0x461BCD PUSH1 0xE5 SHL DUP2 MSTORE PUSH1 0x20 PUSH1 0x4 DUP3 ADD MSTORE PUSH1 0x10 PUSH1 0x24 DUP3 ADD MSTORE PUSH16 0x4E6F2070656E64696E67206368756E6B PUSH1 0x80 SHL PUSH1 0x44 DUP3 ADD MSTORE PUSH1 0x64 ADD PUSH2 0x480 JUMP JUMPDEST PUSH3 0x15180 DUP2 PUSH1 0x2 ADD SLOAD PUSH2 0x830 SWAP2 SWAP1 PUSH2 0xF85 JUMP JUMPDEST TIMESTAMP LT ISZERO PUSH2 0x875 JUMPI PUSH1 0x40 MLOAD PUSH3 0x461BCD PUSH1 0xE5 SHL DUP2 MSTORE PUSH1 0x20 PUSH1 0x4 DUP3 ADD MSTORE PUSH1 0x13 PUSH1 0x24 DUP3 ADD MSTORE PUSH19 0x151A5B595BDD5D081B9BDD081C995858DA1959 PUSH1 0x6A SHL PUSH1 0x44 DUP3 ADD MSTORE PUSH1 0x64 ADD PUSH2 0x480 JUMP JUMPDEST PUSH1 0x1 DUP2 DUP2 ADD SLOAD PUSH0 DUP5 DUP2 MSTORE PUSH1 0x4 PUSH1 0x20 MSTORE PUSH1 0x40 DUP1 DUP3 KECCAK256 DUP3 DUP2 SSTORE SWAP4 DUP5 ADD DUP1 SLOAD PUSH1 0x1 PUSH1 0x1 PUSH1 0xC0 SHL SUB NOT AND SWAP1 SSTORE PUSH1 0x2 SWAP1 SWAP4 ADD DUP2 SWAP1 SSTORE SWAP2 MLOAD PUSH1 0x1 PUSH1 0x20 SHL SWAP1 SWAP2 DIV PUSH1 0x1 PUSH1 0x1 PUSH1 0xA0 SHL SUB AND SWAP2 DUP3 SWAP2 DUP6 SWAP2 PUSH32 0x377D300E76B82408F2383C511FE4D3C42BF564883A8863A5DAEE36A6D7312CB5 SWAP2 LOG3 POP POP POP JUMP JUMPDEST PUSH0 DUP9 DUP2 MSTORE PUSH1 0x20 DUP2 SWAP1 MSTORE PUSH1 0x40 SWAP1 KECCAK256 SLOAD PUSH1 0xFF AND ISZERO PUSH2 0x937 JUMPI PUSH1 0x40 MLOAD PUSH3 0x461BCD PUSH1 0xE5 SHL DUP2 MSTORE PUSH1 0x20 PUSH1 0x4 DUP3 ADD MSTORE PUSH1 0x11 PUSH1 0x24 DUP3 ADD MSTORE PUSH17 0x105B1C9958591E481A5B9CD8DC9A589959 PUSH1 0x7A SHL PUSH1 0x44 DUP3 ADD MSTORE PUSH1 0x64 ADD PUSH2 0x480 JUMP JUMPDEST DUP6 PUSH2 0xFFFF AND DUP8 PUSH2 0xFFFF AND LT PUSH2 0x984 JUMPI PUSH1 0x40 MLOAD PUSH3 0x461BCD PUSH1 0xE5 SHL DUP2 MSTORE PUSH1 0x20 PUSH1 0x4 DUP3 ADD MSTORE PUSH1 0x13 PUSH1 0x24 DUP3 ADD MSTORE PUSH19 0x92DCECC2D8D2C840C6D0EADCD640D2DCC8CAF PUSH1 0x6B SHL PUSH1 0x44 DUP3 ADD MSTORE PUSH1 0x64 ADD PUSH2 0x480 JUMP JUMPDEST PUSH1 0x1 DUP7 PUSH2 0xFFFF AND GT PUSH2 0x9D8 JUMPI PUSH1 0x40 MLOAD PUSH3 0x461BCD PUSH1 0xE5 SHL DUP2 MSTORE PUSH1 0x20 PUSH1 0x4 DUP3 ADD MSTORE PUSH1 0x1F PUSH1 0x24 DUP3 ADD MSTORE PUSH32 0x55736520696E736372696265282920666F722073696E676C65206368756E6B00 PUSH1 0x44 DUP3 ADD MSTORE PUSH1 0x64 ADD PUSH2 0x480 JUMP JUMPDEST PUSH1 0x64 DUP7 PUSH2 0xFFFF AND GT ISZERO PUSH2 0xA1F JUMPI PUSH1 0x40 MLOAD PUSH3 0x461BCD PUSH1 0xE5 SHL DUP2 MSTORE PUSH1 0x20 PUSH1 0x4 DUP3 ADD MSTORE PUSH1 0xF PUSH1 0x24 DUP3 ADD MSTORE PUSH15 0x546F6F206D616E79206368756E6B73 PUSH1 0x88 SHL PUSH1 0x44 DUP3 ADD MSTORE PUSH1 0x64 ADD PUSH2 0x480 JUMP JUMPDEST DUP1 PUSH2 0xA5A JUMPI PUSH1 0x40 MLOAD PUSH3 0x461BCD PUSH1 0xE5 SHL DUP2 MSTORE PUSH1 0x20 PUSH1 0x4 DUP3 ADD MSTORE PUSH1 0xB PUSH1 0x24 DUP3 ADD MSTORE PUSH11 0x456D707479206368756E6B PUSH1 0xA8 SHL PUSH1 0x44 DUP3 ADD MSTORE PUSH1 0x64 ADD PUSH2 0x480 JUMP JUMPDEST PUSH0 DUP9 DUP2 MSTORE PUSH1 0x4 PUSH1 0x20 MSTORE PUSH1 0x40 DUP2 KECCAK256 SWAP1 PUSH2 0xFFFF DUP10 AND SWAP1 SUB PUSH2 0xB5C JUMPI PUSH1 0x1 DUP2 ADD SLOAD PUSH1 0x1 PUSH1 0x20 SHL SWAP1 DIV PUSH1 0x1 PUSH1 0x1 PUSH1 0xA0 SHL SUB AND ISZERO PUSH2 0xACD JUMPI PUSH1 0x40 MLOAD PUSH3 0x461BCD PUSH1 0xE5 SHL DUP2 MSTORE PUSH1 0x20 PUSH1 0x4 DUP3 ADD MSTORE PUSH1 0x15 PUSH1 0x24 DUP3 ADD MSTORE PUSH21 0x4368756E6B2073657175656E636520657869737473 PUSH1 0x58 SHL PUSH1 0x44 DUP3 ADD MSTORE PUSH1 0x64 ADD PUSH2 0x480 JUMP JUMPDEST PUSH1 0x6 PUSH1 0xFF DUP8 AND GT ISZERO PUSH2 0xB19 JUMPI PUSH1 0x40 MLOAD PUSH3 0x461BCD PUSH1 0xE5 SHL DUP2 MSTORE PUSH1 0x20 PUSH1 0x4 DUP3 ADD MSTORE PUSH1 0x15 PUSH1 0x24 DUP3 ADD MSTORE PUSH21 0x496E76616C6964207265736F757263652074797065 PUSH1 0x58 SHL PUSH1 0x44 DUP3 ADD MSTORE PUSH1 0x64 ADD PUSH2 0x480 JUMP JUMPDEST DUP9 DUP2 SSTORE PUSH1 0x1 DUP2 ADD DUP1 SLOAD PUSH1 0x1 PUSH1 0x20 SHL CALLER MUL PUSH5 0x100000000 PUSH1 0x1 PUSH1 0xC0 SHL SUB NOT PUSH4 0xFFFFFFFF NOT SWAP1 SWAP3 AND PUSH2 0xFFFF DUP12 AND OR PUSH3 0x10000 OR SWAP2 SWAP1 SWAP2 AND OR SWAP1 SSTORE TIMESTAMP PUSH1 0x2 DUP3 ADD SSTORE PUSH2 0xC3B JUMP JUMPDEST PUSH1 0x1 DUP2 ADD SLOAD PUSH1 0x1 PUSH1 0x20 SHL SWAP1 DIV PUSH1 0x1 PUSH1 0x1 PUSH1 0xA0 SHL SUB AND CALLER EQ PUSH2 0xBB2 JUMPI PUSH1 0x40 MLOAD PUSH3 0x461BCD PUSH1 0xE5 SHL DUP2 MSTORE PUSH1 0x20 PUSH1 0x4 DUP3 ADD MSTORE PUSH1 0x10 PUSH1 0x24 DUP3 ADD MSTORE PUSH16 0x2737BA1031B43AB7359030BABA3437B9 PUSH1 0x81 SHL PUSH1 0x44 DUP3 ADD MSTORE PUSH1 0x64 ADD PUSH2 0x480 JUMP JUMPDEST PUSH1 0x1 DUP2 ADD SLOAD PUSH2 0xFFFF DUP9 DUP2 AND SWAP2 AND EQ PUSH2 0xC03 JUMPI PUSH1 0x40 MLOAD PUSH3 0x461BCD PUSH1 0xE5 SHL DUP2 MSTORE PUSH1 0x20 PUSH1 0x4 DUP3 ADD MSTORE PUSH1 0x14 PUSH1 0x24 DUP3 ADD MSTORE PUSH20 0x86D0EADCD640C6DEEADCE840DAD2E6DAC2E8C6D PUSH1 0x63 SHL PUSH1 0x44 DUP3 ADD MSTORE PUSH1 0x64 ADD PUSH2 0x480 JUMP JUMPDEST PUSH1 0x1 DUP2 ADD DUP1 SLOAD PUSH3 0x10000 SWAP1 DIV PUSH2 0xFFFF AND SWAP1 PUSH1 0x2 PUSH2 0xC1F DUP4 PUSH2 0xF9E JUMP JUMPDEST SWAP2 SWAP1 PUSH2 0x100 EXP DUP2 SLOAD DUP2 PUSH2 0xFFFF MUL NOT AND SWAP1 DUP4 PUSH2 0xFFFF AND MUL OR SWAP1 SSTORE POP POP JUMPDEST PUSH1 0x40 DUP1 MLOAD PUSH2 0xFFFF DUP1 DUP12 AND DUP3 MSTORE DUP10 AND PUSH1 0x20 DUP3 ADD MSTORE CALLER SWAP2 DUP12 SWAP2 PUSH32 0x7838723AB20E5D1A9BFDA2356F1FD6670CB53E1460BD64ACF48ED4D195EDD108 SWAP2 ADD PUSH1 0x40 MLOAD DUP1 SWAP2 SUB SWAP1 LOG3 PUSH1 0x1 DUP2 ADD SLOAD PUSH2 0xFFFF DUP1 DUP10 AND PUSH3 0x10000 SWAP1 SWAP3 DIV AND SUB PUSH2 0xD41 JUMPI PUSH0 DUP10 DUP2 MSTORE PUSH1 0x20 DUP2 DUP2 MSTORE PUSH1 0x40 DUP1 DUP4 KECCAK256 DUP1 SLOAD PUSH1 0xFF NOT AND PUSH1 0x1 SWAP1 DUP2 OR SWAP1 SWAP2 SSTORE DUP3 MSTORE DUP1 DUP4 KECCAK256 DUP1 SLOAD PUSH1 0x1 PUSH1 0x1 PUSH1 0xA0 SHL SUB NOT AND CALLER SWAP1 DUP2 OR SWAP1 SWAP2 SSTORE PUSH1 0x2 SWAP1 SWAP3 MSTORE SWAP2 DUP3 SWAP1 KECCAK256 NUMBER SWAP1 DUP2 SWAP1 SSTORE SWAP2 MLOAD SWAP1 SWAP2 PUSH1 0xFF DUP10 AND SWAP2 DUP13 SWAP2 PUSH32 0x402531F8214BFA7FD274F028FF5AA496E8ACE2227116528DB551894829BB6F52 SWAP2 PUSH2 0xD12 SWAP2 SWAP1 DUP12 SWAP1 DUP12 SWAP1 PUSH2 0xF3C JUMP JUMPDEST PUSH1 0x40 MLOAD DUP1 SWAP2 SUB SWAP1 LOG4 PUSH0 DUP10 DUP2 MSTORE PUSH1 0x4 PUSH1 0x20 MSTORE PUSH1 0x40 DUP2 KECCAK256 DUP2 DUP2 SSTORE PUSH1 0x1 DUP2 ADD DUP1 SLOAD PUSH1 0x1 PUSH1 0x1 PUSH1 0xC0 SHL SUB NOT AND SWAP1 SSTORE PUSH1 0x2 ADD SSTORE JUMPDEST POP POP POP POP POP POP POP POP POP JUMP JUMPDEST PUSH0 PUSH1 0x20 DUP3 DUP5 SUB SLT ISZERO PUSH2 0xD5C JUMPI PUSH0 DUP1 REVERT JUMPDEST POP CALLDATALOAD SWAP2 SWAP1 POP JUMP JUMPDEST PUSH0 DUP1 PUSH1 0x40 DUP4 DUP6 SUB SLT ISZERO PUSH2 0xD74 JUMPI PUSH0 DUP1 REVERT JUMPDEST POP POP DUP1 CALLDATALOAD SWAP3 PUSH1 0x20 SWAP1 SWAP2 ADD CALLDATALOAD SWAP2 POP JUMP JUMPDEST DUP1 CALLDATALOAD PUSH1 0xFF DUP2 AND DUP2 EQ PUSH2 0xD93 JUMPI PUSH0 DUP1 REVERT JUMPDEST SWAP2 SWAP1 POP JUMP JUMPDEST PUSH0 DUP1 DUP4 PUSH1 0x1F DUP5 ADD SLT PUSH2 0xDA8 JUMPI PUSH0 DUP1 REVERT JUMPDEST POP DUP2 CALLDATALOAD PUSH8 0xFFFFFFFFFFFFFFFF DUP2 GT ISZERO PUSH2 0xDBF JUMPI PUSH0 DUP1 REVERT JUMPDEST PUSH1 0x20 DUP4 ADD SWAP2 POP DUP4 PUSH1 0x20 DUP3 DUP6 ADD ADD GT ISZERO PUSH2 0xDD6 JUMPI PUSH0 DUP1 REVERT JUMPDEST SWAP3 POP SWAP3 SWAP1 POP JUMP JUMPDEST PUSH0 DUP1 PUSH0 DUP1 PUSH0 DUP1 PUSH1 0x80 DUP8 DUP10 SUB SLT ISZERO PUSH2 0xDF2 JUMPI PUSH0 DUP1 REVERT JUMPDEST DUP7 CALLDATALOAD SWAP6 POP PUSH2 0xE02 PUSH1 0x20 DUP9 ADD PUSH2 0xD83 JUMP JUMPDEST SWAP5 POP PUSH1 0x40 DUP8 ADD CALLDATALOAD PUSH8 0xFFFFFFFFFFFFFFFF DUP1 DUP3 GT ISZERO PUSH2 0xE1E JUMPI PUSH0 DUP1 REVERT JUMPDEST PUSH2 0xE2A DUP11 DUP4 DUP12 ADD PUSH2 0xD98 JUMP JUMPDEST SWAP1 SWAP7 POP SWAP5 POP PUSH1 0x60 DUP10 ADD CALLDATALOAD SWAP2 POP DUP1 DUP3 GT ISZERO PUSH2 0xE42 JUMPI PUSH0 DUP1 REVERT JUMPDEST POP PUSH2 0xE4F DUP10 DUP3 DUP11 ADD PUSH2 0xD98 JUMP JUMPDEST SWAP8 SWAP11 SWAP7 SWAP10 POP SWAP5 SWAP8 POP SWAP3 SWAP6 SWAP4 SWAP5 SWAP3 POP POP POP JUMP JUMPDEST DUP1 CALLDATALOAD PUSH2 0xFFFF DUP2 AND DUP2 EQ PUSH2 0xD93 JUMPI PUSH0 DUP1 REVERT JUMPDEST PUSH0 DUP1 PUSH0 DUP1 PUSH0 DUP1 PUSH0 DUP1 PUSH1 0xC0 DUP10 DUP12 SUB SLT ISZERO PUSH2 0xE89 JUMPI PUSH0 DUP1 REVERT JUMPDEST DUP9 CALLDATALOAD SWAP8 POP PUSH2 0xE99 PUSH1 0x20 DUP11 ADD PUSH2 0xE61 JUMP JUMPDEST SWAP7 POP PUSH2 0xEA7 PUSH1 0x40 DUP11 ADD PUSH2 0xE61 JUMP JUMPDEST SWAP6 POP PUSH2 0xEB5 PUSH1 0x60 DUP11 ADD PUSH2 0xD83 JUMP JUMPDEST SWAP5 POP PUSH1 0x80 DUP10 ADD CALLDATALOAD PUSH8 0xFFFFFFFFFFFFFFFF DUP1 DUP3 GT ISZERO PUSH2 0xED1 JUMPI PUSH0 DUP1 REVERT JUMPDEST PUSH2 0xEDD DUP13 DUP4 DUP14 ADD PUSH2 0xD98 JUMP JUMPDEST SWAP1 SWAP7 POP SWAP5 POP PUSH1 0xA0 DUP12 ADD CALLDATALOAD SWAP2 POP DUP1 DUP3 GT ISZERO PUSH2 0xEF5 JUMPI PUSH0 DUP1 REVERT JUMPDEST POP PUSH2 0xF02 DUP12 DUP3 DUP13 ADD PUSH2 0xD98 JUMP JUMPDEST SWAP10 SWAP13 SWAP9 SWAP12 POP SWAP7 SWAP10 POP SWAP5 SWAP8 SWAP4 SWAP7 SWAP3 SWAP6 SWAP5 POP POP POP JUMP JUMPDEST DUP2 DUP4 DUP3 CALLDATACOPY PUSH0 SWAP2 ADD SWAP1 DUP2 MSTORE SWAP2 SWAP1 POP JUMP JUMPDEST PUSH0 PUSH1 0x20 DUP3 DUP5 SUB SLT ISZERO PUSH2 0xF35 JUMPI PUSH0 DUP1 REVERT JUMPDEST POP MLOAD SWAP2 SWAP1 POP JUMP JUMPDEST DUP4 DUP2 MSTORE PUSH1 0x40 PUSH1 0x20 DUP3 ADD MSTORE DUP2 PUSH1 0x40 DUP3 ADD MSTORE DUP2 DUP4 PUSH1 0x60 DUP4 ADD CALLDATACOPY PUSH0 DUP2 DUP4 ADD PUSH1 0x60 SWAP1 DUP2 ADD SWAP2 SWAP1 SWAP2 MSTORE PUSH1 0x1F SWAP1 SWAP3 ADD PUSH1 0x1F NOT AND ADD ADD SWAP3 SWAP2 POP POP JUMP JUMPDEST PUSH4 0x4E487B71 PUSH1 0xE0 SHL PUSH0 MSTORE PUSH1 0x11 PUSH1 0x4 MSTORE PUSH1 0x24 PUSH0 REVERT JUMPDEST DUP1 DUP3 ADD DUP1 DUP3 GT ISZERO PUSH2 0xF98 JUMPI PUSH2 0xF98 PUSH2 0xF71 JUMP JUMPDEST SWAP3 SWAP2 POP POP JUMP JUMPDEST PUSH0 PUSH2 0xFFFF DUP1 DUP4 AND DUP2 DUP2 SUB PUSH2 0xFB4 JUMPI PUSH2 0xFB4 PUSH2 0xF71 JUMP JUMPDEST PUSH1 0x1 ADD SWAP4 SWAP3 POP POP POP JUMP INVALID LOG2 PUSH5 0x6970667358 0x22 SLT KECCAK256 0x23 0xD1 SHL PUSH18 0xF2753C9C42D46D9EE171413FD3F461C20F89 0xAE STOP CREATE2 MLOAD STATICCALL 0xF7 CALLVALUE 0x21 0x1E BLOBHASH PUSH5 0x736F6C6343 STOP ADDMOD XOR STOP CALLER "},"methodIdentifiers":{"CHUNK_TIMEOUT()":"c89af970","TYPE_AGENT_CARD()":"a23ccd51","TYPE_MODEL_CARD()":"eb069a8a","TYPE_PROMPT()":"c98a5fe1","TYPE_RAW()":"d3d6e82e","TYPE_TOOL_SPEC()":"b2b5c819","TYPE_TRAINING()":"094c890f","TYPE_WORKFLOW()":"99bdd636","author(bytes32)":"af1f8cbb","blockNumber(bytes32)":"ed1d2887","cleanupAbandonedChunk(bytes32)":"7ce6bc8b","deprecate(bytes32,bytes32)":"38bc7435","exists(bytes32)":"38a699a4","getChunkStatus(bytes32)":"120a2c3d","getResource(bytes32)":"b4d6af8a","inscribe(bytes32,uint8,string,bytes)":"75c88124","inscribeChunk(bytes32,uint16,uint16,uint8,string,bytes)":"f33e54e3","isDeprecated(bytes32)":"0de4d5c0","pendingChunks(bytes32)":"34132db6","supersededBy(bytes32)":"1ceb83e9"}}}}}