{"contracts/ISNADOracle.sol":{"ISNADOracle":{"abi":[{"inputs":[{"internalType":"address","name":"_stakingContract","type":"address"}],"stateMutability":"nonpayable","type":"constructor"},{"inputs":[],"name":"AccessControlBadConfirmation","type":"error"},{"inputs":[{"internalType":"address","name":"account","type":"address"},{"internalType":"bytes32","name":"neededRole","type":"bytes32"}],"name":"AccessControlUnauthorizedAccount","type":"error"},{"inputs":[],"name":"ReentrancyGuardReentrantCall","type":"error"},{"anonymous":false,"inputs":[{"indexed":true,"internalType":"bytes32","name":"flagId","type":"bytes32"},{"indexed":true,"internalType":"address","name":"appellant","type":"address"},{"indexed":false,"internalType":"uint256","name":"deposit","type":"uint256"}],"name":"FlagAppealed","type":"event"},{"anonymous":false,"inputs":[{"indexed":true,"internalType":"bytes32","name":"flagId","type":"bytes32"},{"indexed":true,"internalType":"address","name":"juror","type":"address"},{"indexed":false,"internalType":"bool","name":"guilty","type":"bool"}],"name":"JurorVoted","type":"event"},{"anonymous":false,"inputs":[{"indexed":true,"internalType":"bytes32","name":"flagId","type":"bytes32"},{"indexed":false,"internalType":"address[]","name":"jurors","type":"address[]"}],"name":"JurySelected","type":"event"},{"anonymous":false,"inputs":[{"indexed":true,"internalType":"address","name":"account","type":"address"},{"indexed":false,"internalType":"uint256","name":"until","type":"uint256"}],"name":"Paused","type":"event"},{"anonymous":false,"inputs":[{"indexed":true,"internalType":"bytes32","name":"flagId","type":"bytes32"},{"indexed":true,"internalType":"bytes32","name":"resourceHash","type":"bytes32"},{"indexed":true,"internalType":"address","name":"flagger","type":"address"},{"indexed":false,"internalType":"uint256","name":"deposit","type":"uint256"},{"indexed":false,"internalType":"bytes32","name":"evidenceHash","type":"bytes32"}],"name":"ResourceFlagged","type":"event"},{"anonymous":false,"inputs":[{"indexed":true,"internalType":"bytes32","name":"role","type":"bytes32"},{"indexed":true,"internalType":"bytes32","name":"previousAdminRole","type":"bytes32"},{"indexed":true,"internalType":"bytes32","name":"newAdminRole","type":"bytes32"}],"name":"RoleAdminChanged","type":"event"},{"anonymous":false,"inputs":[{"indexed":true,"internalType":"bytes32","name":"role","type":"bytes32"},{"indexed":true,"internalType":"address","name":"account","type":"address"},{"indexed":true,"internalType":"address","name":"sender","type":"address"}],"name":"RoleGranted","type":"event"},{"anonymous":false,"inputs":[{"indexed":true,"internalType":"bytes32","name":"role","type":"bytes32"},{"indexed":true,"internalType":"address","name":"account","type":"address"},{"indexed":true,"internalType":"address","name":"sender","type":"address"}],"name":"RoleRevoked","type":"event"},{"anonymous":false,"inputs":[{"indexed":true,"internalType":"bytes32","name":"resourceHash","type":"bytes32"},{"indexed":false,"internalType":"uint256","name":"totalSlashed","type":"uint256"}],"name":"SlashExecuted","type":"event"},{"anonymous":false,"inputs":[{"indexed":true,"internalType":"address","name":"account","type":"address"}],"name":"Unpaused","type":"event"},{"anonymous":false,"inputs":[{"indexed":true,"internalType":"bytes32","name":"flagId","type":"bytes32"},{"indexed":true,"internalType":"bytes32","name":"resourceHash","type":"bytes32"},{"indexed":false,"internalType":"enum ISNADOracle.FlagStatus","name":"verdict","type":"uint8"},{"indexed":false,"internalType":"uint256","name":"guiltyVotes","type":"uint256"},{"indexed":false,"internalType":"uint256","name":"totalVotes","type":"uint256"}],"name":"VerdictReached","type":"event"},{"inputs":[],"name":"ADMIN_ROLE","outputs":[{"internalType":"bytes32","name":"","type":"bytes32"}],"stateMutability":"view","type":"function"},{"inputs":[],"name":"DEFAULT_ADMIN_ROLE","outputs":[{"internalType":"bytes32","name":"","type":"bytes32"}],"stateMutability":"view","type":"function"},{"inputs":[],"name":"MAX_PAUSE_DURATION","outputs":[{"internalType":"uint256","name":"","type":"uint256"}],"stateMutability":"view","type":"function"},{"inputs":[],"name":"PAUSER_ROLE","outputs":[{"internalType":"bytes32","name":"","type":"bytes32"}],"stateMutability":"view","type":"function"},{"inputs":[{"internalType":"bytes32","name":"","type":"bytes32"}],"name":"activeFlag","outputs":[{"internalType":"bytes32","name":"","type":"bytes32"}],"stateMutability":"view","type":"function"},{"inputs":[{"internalType":"address","name":"jurorAddress","type":"address"}],"name":"addToJurorPool","outputs":[],"stateMutability":"nonpayable","type":"function"},{"inputs":[{"internalType":"bytes32","name":"flagId","type":"bytes32"}],"name":"appeal","outputs":[],"stateMutability":"payable","type":"function"},{"inputs":[],"name":"appealMultiplier","outputs":[{"internalType":"uint256","name":"","type":"uint256"}],"stateMutability":"view","type":"function"},{"inputs":[{"internalType":"address[]","name":"addresses","type":"address[]"}],"name":"batchAddToJurorPool","outputs":[],"stateMutability":"nonpayable","type":"function"},{"inputs":[{"internalType":"bytes32","name":"resourceHash","type":"bytes32"}],"name":"executeSlash","outputs":[{"internalType":"bool","name":"","type":"bool"}],"stateMutability":"nonpayable","type":"function"},{"inputs":[{"internalType":"bytes32","name":"flagId","type":"bytes32"}],"name":"finalizeVerdict","outputs":[],"stateMutability":"nonpayable","type":"function"},{"inputs":[{"internalType":"bytes32","name":"resourceHash","type":"bytes32"},{"internalType":"bytes32","name":"evidenceHash","type":"bytes32"}],"name":"flagResource","outputs":[{"internalType":"bytes32","name":"flagId","type":"bytes32"}],"stateMutability":"payable","type":"function"},{"inputs":[{"internalType":"bytes32","name":"","type":"bytes32"}],"name":"flags","outputs":[{"internalType":"bytes32","name":"resourceHash","type":"bytes32"},{"internalType":"address","name":"flagger","type":"address"},{"internalType":"uint256","name":"deposit","type":"uint256"},{"internalType":"bytes32","name":"evidenceHash","type":"bytes32"},{"internalType":"enum ISNADOracle.FlagStatus","name":"status","type":"uint8"},{"internalType":"uint256","name":"createdAt","type":"uint256"},{"internalType":"uint256","name":"juryDeadline","type":"uint256"},{"internalType":"uint256","name":"voteCount","type":"uint256"},{"internalType":"uint256","name":"guiltyVotes","type":"uint256"}],"stateMutability":"view","type":"function"},{"inputs":[{"internalType":"bytes32","name":"flagId","type":"bytes32"}],"name":"getFlag","outputs":[{"components":[{"internalType":"bytes32","name":"resourceHash","type":"bytes32"},{"internalType":"address","name":"flagger","type":"address"},{"internalType":"uint256","name":"deposit","type":"uint256"},{"internalType":"bytes32","name":"evidenceHash","type":"bytes32"},{"internalType":"enum ISNADOracle.FlagStatus","name":"status","type":"uint8"},{"internalType":"uint256","name":"createdAt","type":"uint256"},{"internalType":"uint256","name":"juryDeadline","type":"uint256"},{"internalType":"uint256","name":"voteCount","type":"uint256"},{"internalType":"uint256","name":"guiltyVotes","type":"uint256"}],"internalType":"struct ISNADOracle.Flag","name":"","type":"tuple"}],"stateMutability":"view","type":"function"},{"inputs":[],"name":"getJurorPoolSize","outputs":[{"internalType":"uint256","name":"","type":"uint256"}],"stateMutability":"view","type":"function"},{"inputs":[{"internalType":"bytes32","name":"flagId","type":"bytes32"}],"name":"getJury","outputs":[{"internalType":"address[]","name":"","type":"address[]"}],"stateMutability":"view","type":"function"},{"inputs":[{"internalType":"bytes32","name":"role","type":"bytes32"}],"name":"getRoleAdmin","outputs":[{"internalType":"bytes32","name":"","type":"bytes32"}],"stateMutability":"view","type":"function"},{"inputs":[{"internalType":"bytes32","name":"role","type":"bytes32"},{"internalType":"address","name":"account","type":"address"}],"name":"grantRole","outputs":[],"stateMutability":"nonpayable","type":"function"},{"inputs":[{"internalType":"bytes32","name":"role","type":"bytes32"},{"internalType":"address","name":"account","type":"address"}],"name":"hasRole","outputs":[{"internalType":"bool","name":"","type":"bool"}],"stateMutability":"view","type":"function"},{"inputs":[{"internalType":"bytes32","name":"flagId","type":"bytes32"},{"internalType":"address","name":"addr","type":"address"}],"name":"hasVoted","outputs":[{"internalType":"bool","name":"","type":"bool"}],"stateMutability":"view","type":"function"},{"inputs":[{"internalType":"address","name":"","type":"address"}],"name":"isInJurorPool","outputs":[{"internalType":"bool","name":"","type":"bool"}],"stateMutability":"view","type":"function"},{"inputs":[{"internalType":"bytes32","name":"flagId","type":"bytes32"},{"internalType":"address","name":"addr","type":"address"}],"name":"isJuror","outputs":[{"internalType":"bool","name":"","type":"bool"}],"stateMutability":"view","type":"function"},{"inputs":[{"internalType":"uint256","name":"","type":"uint256"}],"name":"jurorPool","outputs":[{"internalType":"address","name":"","type":"address"}],"stateMutability":"view","type":"function"},{"inputs":[{"internalType":"bytes32","name":"","type":"bytes32"},{"internalType":"address","name":"","type":"address"}],"name":"jurors","outputs":[{"internalType":"bool","name":"selected","type":"bool"},{"internalType":"bool","name":"voted","type":"bool"},{"internalType":"bool","name":"votedGuilty","type":"bool"}],"stateMutability":"view","type":"function"},{"inputs":[{"internalType":"bytes32","name":"","type":"bytes32"},{"internalType":"uint256","name":"","type":"uint256"}],"name":"juryList","outputs":[{"internalType":"address","name":"","type":"address"}],"stateMutability":"view","type":"function"},{"inputs":[],"name":"jurySize","outputs":[{"internalType":"uint256","name":"","type":"uint256"}],"stateMutability":"view","type":"function"},{"inputs":[],"name":"minFlagDeposit","outputs":[{"internalType":"uint256","name":"","type":"uint256"}],"stateMutability":"view","type":"function"},{"inputs":[{"internalType":"uint256","name":"duration","type":"uint256"}],"name":"pause","outputs":[],"stateMutability":"nonpayable","type":"function"},{"inputs":[],"name":"paused","outputs":[{"internalType":"bool","name":"","type":"bool"}],"stateMutability":"view","type":"function"},{"inputs":[],"name":"pausedUntil","outputs":[{"internalType":"uint256","name":"","type":"uint256"}],"stateMutability":"view","type":"function"},{"inputs":[{"internalType":"bytes32","name":"role","type":"bytes32"},{"internalType":"address","name":"callerConfirmation","type":"address"}],"name":"renounceRole","outputs":[],"stateMutability":"nonpayable","type":"function"},{"inputs":[{"internalType":"bytes32","name":"role","type":"bytes32"},{"internalType":"address","name":"account","type":"address"}],"name":"revokeRole","outputs":[],"stateMutability":"nonpayable","type":"function"},{"inputs":[{"internalType":"bytes32","name":"flagId","type":"bytes32"}],"name":"selectJury","outputs":[],"stateMutability":"nonpayable","type":"function"},{"inputs":[{"internalType":"uint256","name":"_jurySize","type":"uint256"}],"name":"setJurySize","outputs":[],"stateMutability":"nonpayable","type":"function"},{"inputs":[{"internalType":"uint256","name":"_minDeposit","type":"uint256"}],"name":"setMinFlagDeposit","outputs":[],"stateMutability":"nonpayable","type":"function"},{"inputs":[{"internalType":"address","name":"_stakingContract","type":"address"}],"name":"setStakingContract","outputs":[],"stateMutability":"nonpayable","type":"function"},{"inputs":[{"internalType":"uint256","name":"_votingPeriod","type":"uint256"}],"name":"setVotingPeriod","outputs":[],"stateMutability":"nonpayable","type":"function"},{"inputs":[],"name":"stakingContract","outputs":[{"internalType":"address","name":"","type":"address"}],"stateMutability":"view","type":"function"},{"inputs":[],"name":"supermajorityBps","outputs":[{"internalType":"uint256","name":"","type":"uint256"}],"stateMutability":"view","type":"function"},{"inputs":[{"internalType":"bytes4","name":"interfaceId","type":"bytes4"}],"name":"supportsInterface","outputs":[{"internalType":"bool","name":"","type":"bool"}],"stateMutability":"view","type":"function"},{"inputs":[],"name":"unpause","outputs":[],"stateMutability":"nonpayable","type":"function"},{"inputs":[{"internalType":"bytes32","name":"flagId","type":"bytes32"},{"internalType":"bool","name":"guilty","type":"bool"}],"name":"vote","outputs":[],"stateMutability":"nonpayable","type":"function"},{"inputs":[],"name":"votingPeriod","outputs":[{"internalType":"uint256","name":"","type":"uint256"}],"stateMutability":"view","type":"function"}],"evm":{"bytecode":{"linkReferences":{},"object":"608060405268056bc75e2d631000006004556005805562093a80600655611a0b600755600260085534801562000033575f80fd5b50604051620025c9380380620025c98339810160408190526200005691620001ef565b60016002556001600160a01b038116620000b65760405162461bcd60e51b815260206004820152601860248201527f496e76616c6964207374616b696e6720636f6e74726163740000000000000000604482015260640160405180910390fd5b620000c25f3362000143565b50620000ef7fa49807205ce4d355092ef5a8a18f56e8913cf4a201fbe287825b095693c217753362000143565b506200011c7f65d7a28e3265b37a6474929f336521b332c1681b933f6cb9f3376673440d862a3362000143565b50600380546001600160a01b0319166001600160a01b03929092169190911790556200021e565b5f828152602081815260408083206001600160a01b038516845290915281205460ff16620001e6575f838152602081815260408083206001600160a01b03861684529091529020805460ff191660011790556200019d3390565b6001600160a01b0316826001600160a01b0316847f2f8788117e7eff1d82e926ec794901d17c78024a50270940304540a733656f0d60405160405180910390a4506001620001e9565b505f5b92915050565b5f6020828403121562000200575f80fd5b81516001600160a01b038116811462000217575f80fd5b9392505050565b61239d806200022c5f395ff3fe608060405260043610610254575f3560e01c806391d148541161013f578063da748b10116100b3578063eb80b2ef11610078578063eb80b2ef146107ee578063ece1de4414610803578063ee99205c14610816578063f4732d0514610835578063f57809e614610854578063f643d3d71461087f575f80fd5b8063da748b101461073c578063e4a3d78414610751578063e63ab1e91461077d578063e785ef0e146107b0578063ea0217cf146107cf575f80fd5b8063b705092011610104578063b705092014610682578063b850cdf7146106a1578063b8fad24e146106c0578063bc6675f9146106df578063d15c11c8146106fe578063d547741f1461071d575f80fd5b806391d14854146105c95780639dd373b9146105e85780639f2ce67814610607578063a217fddf14610626578063aadc3b7214610639575f80fd5b80632eecb0c8116101d657806351af8a221161019b57806351af8a2214610511578063536c8c15146105555780635c975abb1461056a5780635eef3da21461058057806362aaa8761461059557806375b238fc146105a9575f80fd5b80632eecb0c8146104655780632f2ff15d1461049357806336568abe146104b25780633f4ba83a146104d157806346b3c3c3146104e5575f80fd5b8063136439dd1161021c578063136439dd146103665780631e44b1a714610387578063248a9ca31461039a57806324d0b041146103c85780632799657d1461044f575f80fd5b806301ffc9a71461025857806302a251a31461028c57806305b9a25f146102af5780630a2653d1146102e6578063128203c614610351575b5f80fd5b348015610263575f80fd5b50610277610272366004611fac565b61089e565b60405190151581526020015b60405180910390f35b348015610297575f80fd5b506102a160065481565b604051908152602001610283565b3480156102ba575f80fd5b506102ce6102c9366004611fda565b6108d4565b6040516001600160a01b039091168152602001610283565b3480156102f1575f80fd5b50610332610300366004612015565b600a60209081525f928352604080842090915290825290205460ff808216916101008104821691620100009091041683565b6040805193151584529115156020840152151590820152606001610283565b34801561035c575f80fd5b506102a160085481565b348015610371575f80fd5b5061038561038036600461203f565b610908565b005b6102a1610395366004611fda565b6109d0565b3480156103a5575f80fd5b506102a16103b436600461203f565b5f9081526020819052604090206001015490565b3480156103d3575f80fd5b5061043a6103e236600461203f565b60096020525f908152604090208054600182015460028301546003840154600485015460058601546006870154600788015460089098015496976001600160a01b03909616969495939460ff90931693919290919089565b6040516102839998979695949392919061208a565b34801561045a575f80fd5b506102a162093a8081565b348015610470575f80fd5b5061027761047f3660046120e3565b600e6020525f908152604090205460ff1681565b34801561049e575f80fd5b506103856104ad366004612015565b610c69565b3480156104bd575f80fd5b506103856104cc366004612015565b610c93565b3480156104dc575f80fd5b50610385610ccb565b3480156104f0575f80fd5b506105046104ff36600461203f565b610d64565b60405161028391906120fc565b34801561051c575f80fd5b5061027761052b366004612015565b5f918252600a602090815260408084206001600160a01b0393909316845291905290205460ff1690565b348015610560575f80fd5b506102a160055481565b348015610575575f80fd5b506001544210610277565b34801561058b575f80fd5b506102a160075481565b3480156105a0575f80fd5b50600d546102a1565b3480156105b4575f80fd5b506102a15f8051602061234883398151915281565b3480156105d4575f80fd5b506102776105e3366004612015565b610dcd565b3480156105f3575f80fd5b506103856106023660046120e3565b610df5565b348015610612575f80fd5b50610385610621366004612148565b610e85565b348015610631575f80fd5b506102a15f81565b348015610644575f80fd5b50610277610653366004612015565b5f918252600a602090815260408084206001600160a01b03939093168452919052902054610100900460ff1690565b34801561068d575f80fd5b5061038561069c36600461203f565b6110c4565b3480156106ac575f80fd5b506102776106bb36600461203f565b6110e1565b3480156106cb575f80fd5b506103856106da36600461203f565b611225565b3480156106ea575f80fd5b506103856106f93660046120e3565b61129d565b348015610709575f80fd5b5061038561071836600461203f565b611375565b348015610728575f80fd5b50610385610737366004612015565b61142a565b348015610747575f80fd5b506102a160015481565b34801561075c575f80fd5b5061077061076b36600461203f565b61144e565b604051610283919061217a565b348015610788575f80fd5b506102a17f65d7a28e3265b37a6474929f336521b332c1681b933f6cb9f3376673440d862a81565b3480156107bb575f80fd5b506103856107ca3660046121ee565b611545565b3480156107da575f80fd5b506103856107e936600461203f565b611667565b3480156107f9575f80fd5b506102a160045481565b61038561081136600461203f565b6116ca565b348015610821575f80fd5b506003546102ce906001600160a01b031681565b348015610840575f80fd5b5061038561084f36600461203f565b6118be565b34801561085f575f80fd5b506102a161086e36600461203f565b600c6020525f908152604090205481565b34801561088a575f80fd5b506102ce61089936600461203f565b61197d565b5f6001600160e01b03198216637965db0b60e01b14806108ce57506301ffc9a760e01b6001600160e01b03198316145b92915050565b600b602052815f5260405f2081815481106108ed575f80fd5b5f918252602090912001546001600160a01b03169150829050565b7f65d7a28e3265b37a6474929f336521b332c1681b933f6cb9f3376673440d862a610932816119a5565b5f82118015610944575062093a808211155b6109885760405162461bcd60e51b815260206004820152601060248201526f24b73b30b634b210323ab930ba34b7b760811b60448201526064015b60405180910390fd5b6109928242612271565b600181905560405190815233907fab40a374bc51de372200a8bc981af8c9ecdc08dfdaef0bb6e09f88f3c616ef3d9060200160405180910390a25050565b5f6109d96119af565b600154421015610a205760405162461bcd60e51b815260206004820152601260248201527110dbdb9d1c9858dd081a5cc81c185d5cd95960721b604482015260640161097f565b600454341015610a695760405162461bcd60e51b8152602060048201526014602482015273125b9cdd59999a58da595b9d0819195c1bdcda5d60621b604482015260640161097f565b5f838152600c602052604090205415610ac45760405162461bcd60e51b815260206004820152601860248201527f5265736f7572636520616c726561647920666c61676765640000000000000000604482015260640161097f565b5060408051602080820185905233606081901b6bffffffffffffffffffffffff19168385015242605480850191909152845180850390910181526074840180865281519190930120610194840190945285825260948301523460b483015260d482018490529060f4015f81526020014281526020015f81526020015f81526020015f81525060095f8381526020019081526020015f205f820151815f01556020820151816001015f6101000a8154816001600160a01b0302191690836001600160a01b0316021790555060408201518160020155606082015181600301556080820151816004015f6101000a81548160ff02191690836005811115610bcb57610bcb612056565b021790555060a0820151600582015560c0820151600682015560e08201516007820155610100909101516008909101555f838152600c602090815260409182902083905581513481529081018490523391859184917fc92edb8fb4bac81c1756962b16bba68657b07e9a6c6e852b9a63550fdc27c1bb910160405180910390a4600554600d5410610c5f57610c5f816119d7565b6108ce6001600255565b5f82815260208190526040902060010154610c83816119a5565b610c8d8383611c9b565b50505050565b6001600160a01b0381163314610cbc5760405163334bd91960e11b815260040160405180910390fd5b610cc68282611d2a565b505050565b7f65d7a28e3265b37a6474929f336521b332c1681b933f6cb9f3376673440d862a610cf5816119a5565b6001544210610d335760405162461bcd60e51b815260206004820152600a602482015269139bdd081c185d5cd95960b21b604482015260640161097f565b5f600181905560405133917f5db9ee0a495bf2e6ff9c91a7834c1ba4fdd244a5e8aa4e537bd38aeae4b073aa91a250565b5f818152600b6020908152604091829020805483518184028101840190945280845260609392830182828015610dc157602002820191905f5260205f20905b81546001600160a01b03168152600190910190602001808311610da3575b50505050509050919050565b5f918252602082815260408084206001600160a01b0393909316845291905290205460ff1690565b5f80516020612348833981519152610e0c816119a5565b6001600160a01b038216610e625760405162461bcd60e51b815260206004820152601860248201527f496e76616c6964207374616b696e6720636f6e74726163740000000000000000604482015260640161097f565b50600380546001600160a01b0319166001600160a01b0392909216919091179055565b610e8d6119af565b600154421015610ed45760405162461bcd60e51b815260206004820152601260248201527110dbdb9d1c9858dd081a5cc81c185d5cd95960721b604482015260640161097f565b5f8281526009602052604090206001600482015460ff166005811115610efc57610efc612056565b14610f395760405162461bcd60e51b815260206004820152600d60248201526c4e6f7420696e2072657669657760981b604482015260640161097f565b80600601544210610f7b5760405162461bcd60e51b815260206004820152600c60248201526b159bdd1a5b99c8195b99195960a21b604482015260640161097f565b5f838152600a602090815260408083203384529091529020805460ff16610fd25760405162461bcd60e51b815260206004820152600b60248201526a2737ba103090353ab937b960a91b604482015260640161097f565b8054610100900460ff16156110195760405162461bcd60e51b815260206004820152600d60248201526c105b1c9958591e481d9bdd1959609a1b604482015260640161097f565b8054831515620100000262ffff001990911617610100178155600782018054905f61104383612284565b9190505550821561106557600882018054905f61105f83612284565b91905055505b6040518315158152339085907ff2ee66cb5fb317984a735afce8f490e33d93334d63262bac9728cb9fec4038a59060200160405180910390a36005548260070154036110b4576110b484611d93565b50506110c06001600255565b5050565b5f805160206123488339815191526110db816119a5565b50600455565b5f818152600c60205260408120548061112d5760405162461bcd60e51b815260206004820152600e60248201526d4e6f2061637469766520666c616760901b604482015260640161097f565b5f8181526009602052604090206002600482015460ff16600581111561115557611155612056565b1461118f5760405162461bcd60e51b815260206004820152600a6024820152694e6f74206775696c747960b01b604482015260640161097f565b5f848152600c60205260408082208290556001830154600284015491516001600160a01b039091169282156108fc02929190818181858888f193505050501580156111dc573d5f803e3d5ffd5b50837f3c6d365db6255bc86eb46a819f3b6ded3bc0d34ebffbf0e688587ee50a36de35826002015460405161121391815260200190565b60405180910390a25060019392505050565b5f8051602061234883398151915261123c816119a5565b6003821015801561125757506112536002836122b0565b6001145b6112975760405162461bcd60e51b8152602060048201526011602482015270496e76616c6964206a7572792073697a6560781b604482015260640161097f565b50600555565b5f805160206123488339815191526112b4816119a5565b6001600160a01b0382165f908152600e602052604090205460ff161561130e5760405162461bcd60e51b815260206004820152600f60248201526e105b1c9958591e481a5b881c1bdbdb608a1b604482015260640161097f565b50600d805460018181019092557fd7b6990105719101dabeb77144f2a3385c8033acd3af97e9423a695e81ad1eb50180546001600160a01b039093166001600160a01b0319909316831790555f918252600e6020526040909120805460ff19169091179055565b5f8181526009602052604090206001600482015460ff16600581111561139d5761139d612056565b146113da5760405162461bcd60e51b815260206004820152600d60248201526c4e6f7420696e2072657669657760981b604482015260640161097f565b80600601544210156114215760405162461bcd60e51b815260206004820152601060248201526f159bdd1a5b99c81b9bdd08195b99195960821b604482015260640161097f565b6110c082611d93565b5f82815260208190526040902060010154611444816119a5565b610c8d8383611d2a565b61149860408051610120810182525f808252602082018190529181018290526060810182905290608082019081526020015f81526020015f81526020015f81526020015f81525090565b5f828152600960209081526040918290208251610120810184528154815260018201546001600160a01b031692810192909252600281015492820192909252600382015460608201526004820154909190608083019060ff16600581111561150257611502612056565b600581111561151357611513612056565b815260058201546020820152600682015460408201526007820154606082015260089091015460809091015292915050565b5f8051602061234883398151915261155c816119a5565b5f5b82811015610c8d57600e5f85858481811061157b5761157b6122c3565b905060200201602081019061159091906120e3565b6001600160a01b0316815260208101919091526040015f205460ff1661165f57600d8484838181106115c4576115c46122c3565b90506020020160208101906115d991906120e3565b8154600180820184555f9384526020842090910180546001600160a01b0319166001600160a01b03939093169290921790915590600e90868685818110611622576116226122c3565b905060200201602081019061163791906120e3565b6001600160a01b0316815260208101919091526040015f20805460ff19169115159190911790555b60010161155e565b5f8051602061234883398151915261167e816119a5565b620151808210156116c45760405162461bcd60e51b815260206004820152601060248201526f14195c9a5bd9081d1bdbc81cda1bdc9d60821b604482015260640161097f565b50600655565b6116d26119af565b5f8181526009602052604090206002600482015460ff1660058111156116fa576116fa612056565b148061171e57506003600482015460ff16600581111561171c5761171c612056565b145b61175a5760405162461bcd60e51b815260206004820152600d60248201526c10d85b9b9bdd08185c1c19585b609a1b604482015260640161097f565b600681015461176c906203f480612271565b42106117b15760405162461bcd60e51b8152602060048201526014602482015273105c1c19585b081dda5b991bddc818db1bdcd95960621b604482015260640161097f565b5f60085482600201546117c491906122d7565b9050803410156118165760405162461bcd60e51b815260206004820152601b60248201527f496e73756666696369656e742061707065616c206465706f7369740000000000604482015260640161097f565b6004828101805460ff1916600183021790555034826002015f82825461183c9190612271565b90915550505f6007830181905560088301819055838152600b6020526040812061186591611f7e565b604051348152339084907e672bede80ded560cfbd92a0645208424b47e23b9e8e01a245db8a0a6eb71b59060200160405180910390a3600554600d54106118af576118af836119d7565b50506118bb6001600255565b50565b5f81815260096020526040812090600482015460ff1660058111156118e5576118e5612056565b146119205760405162461bcd60e51b815260206004820152600b60248201526a4e6f742070656e64696e6760a81b604482015260640161097f565b600554600d5410156119745760405162461bcd60e51b815260206004820152601760248201527f496e73756666696369656e74206a75726f7220706f6f6c000000000000000000604482015260640161097f565b6110c0826119d7565b600d818154811061198c575f80fd5b5f918252602090912001546001600160a01b0316905081565b6118bb8133611f45565b60028054036119d157604051633ee5aeb560e01b815260040160405180910390fd5b60028055565b5f818152600960205260408120906119f06001436122ee565b60408051914060208301528101849052426060820152608001604051602081830303815290604052805190602001205f1c90505f60055467ffffffffffffffff811115611a3f57611a3f612301565b604051908082528060200260200182016040528015611a68578160200160208202803683370190505b5090505f805f600d805490506003611a8091906122d7565b90505b60055483108015611a9357508082105b15611b7457600d545f90611aa78488612271565b611ab191906122b0565b90505f600d8281548110611ac757611ac76122c3565b5f9182526020808320909101548b8352600a825260408084206001600160a01b039092168085529190925291205490915060ff16158015611b5f5781878781518110611b1557611b156122c3565b6001600160a01b039283166020918202929092018101919091525f8c8152600a8252604080822093861682529290915220805460ff1916600117905585611b5b81612284565b9650505b84611b6981612284565b955050505050611a83565b6005548314611bc55760405162461bcd60e51b815260206004820152601e60248201527f436f756c64206e6f742073656c65637420656e6f756768206a75726f72730000604482015260640161097f565b5f5b600554811015611c36575f888152600b602052604090208551869083908110611bf257611bf26122c3565b6020908102919091018101518254600180820185555f9485529290932090920180546001600160a01b0319166001600160a01b039093169290921790915501611bc7565b5060048601805460ff19166001179055600654611c539042612271565b600687015560405187907f7988f9809caf69010681be5043108ecf62ab23c65aca9ca4662aa11980bd5f1790611c8a9087906120fc565b60405180910390a250505050505050565b5f611ca68383610dcd565b611d23575f838152602081815260408083206001600160a01b03861684529091529020805460ff19166001179055611cdb3390565b6001600160a01b0316826001600160a01b0316847f2f8788117e7eff1d82e926ec794901d17c78024a50270940304540a733656f0d60405160405180910390a45060016108ce565b505f6108ce565b5f611d358383610dcd565b15611d23575f838152602081815260408083206001600160a01b0386168085529252808320805460ff1916905551339286917ff6391f5c32d9c69d2a47ea670b442974b53935d1edc7fd64eb21e047a839171b9190a45060016108ce565b5f818152600960205260408120600780549082015491929161271091611db8916122d7565b611dc29190612315565b90505f6127106007548460070154611dda91906122d7565b611de49190612315565b905081836008015410611e055760048301805460ff19166002179055611eed565b8083600801548460070154611e1a91906122ee565b10611e935760048301805460ff1916600317905560028301545f90611e4190600a90612315565b600185015460028601549192506001600160a01b0316906108fc90611e679084906122ee565b6040518115909202915f818181858888f19350505050158015611e8c573d5f803e3d5ffd5b5050611eed565b60048301805460ff1916600517905560018301546002808501546001600160a01b03909216916108fc91611ec691612315565b6040518115909202915f818181858888f19350505050158015611eeb573d5f803e3d5ffd5b505b825460048401546008850154600786015460405188937f433aa6e48164df010794e86a1fb8bb3f17f33365871fa621e9fd0dcb5200aba193611f379360ff90921692909190612328565b60405180910390a350505050565b611f4f8282610dcd565b6110c05760405163e2517d3f60e01b81526001600160a01b03821660048201526024810183905260440161097f565b5080545f8255905f5260205f20908101906118bb91905b80821115611fa8575f8155600101611f95565b5090565b5f60208284031215611fbc575f80fd5b81356001600160e01b031981168114611fd3575f80fd5b9392505050565b5f8060408385031215611feb575f80fd5b50508035926020909101359150565b80356001600160a01b0381168114612010575f80fd5b919050565b5f8060408385031215612026575f80fd5b8235915061203660208401611ffa565b90509250929050565b5f6020828403121561204f575f80fd5b5035919050565b634e487b7160e01b5f52602160045260245ffd5b6006811061208657634e487b7160e01b5f52602160045260245ffd5b9052565b8981526001600160a01b0389166020820152604081018890526060810187905261012081016120bc608083018861206a565b8560a08301528460c08301528360e0830152826101008301529a9950505050505050505050565b5f602082840312156120f3575f80fd5b611fd382611ffa565b602080825282518282018190525f9190848201906040850190845b8181101561213c5783516001600160a01b031683529284019291840191600101612117565b50909695505050505050565b5f8060408385031215612159575f80fd5b823591506020830135801515811461216f575f80fd5b809150509250929050565b815181526020808301516001600160a01b03169082015260408083015190820152606080830151908201526080808301516101208301916121bd9084018261206a565b5060a083015160a083015260c083015160c083015260e083015160e083015261010080840151818401525092915050565b5f80602083850312156121ff575f80fd5b823567ffffffffffffffff80821115612216575f80fd5b818501915085601f830112612229575f80fd5b813581811115612237575f80fd5b8660208260051b850101111561224b575f80fd5b60209290920196919550909350505050565b634e487b7160e01b5f52601160045260245ffd5b808201808211156108ce576108ce61225d565b5f600182016122955761229561225d565b5060010190565b634e487b7160e01b5f52601260045260245ffd5b5f826122be576122be61229c565b500690565b634e487b7160e01b5f52603260045260245ffd5b80820281158282048414176108ce576108ce61225d565b818103818111156108ce576108ce61225d565b634e487b7160e01b5f52604160045260245ffd5b5f826123235761232361229c565b500490565b60608101612336828661206a565b60208201939093526040015291905056fea49807205ce4d355092ef5a8a18f56e8913cf4a201fbe287825b095693c21775a264697066735822122029eb474fa1e9aa7502f34e0a7b586101728865120c6f8016efcd642ca74aa32764736f6c63430008180033","opcodes":"PUSH1 0x80 PUSH1 0x40 MSTORE PUSH9 0x56BC75E2D63100000 PUSH1 0x4 SSTORE PUSH1 0x5 DUP1 SSTORE PUSH3 0x93A80 PUSH1 0x6 SSTORE PUSH2 0x1A0B PUSH1 0x7 SSTORE PUSH1 0x2 PUSH1 0x8 SSTORE CALLVALUE DUP1 ISZERO PUSH3 0x33 JUMPI PUSH0 DUP1 REVERT JUMPDEST POP PUSH1 0x40 MLOAD PUSH3 0x25C9 CODESIZE SUB DUP1 PUSH3 0x25C9 DUP4 CODECOPY DUP2 ADD PUSH1 0x40 DUP2 SWAP1 MSTORE PUSH3 0x56 SWAP2 PUSH3 0x1EF JUMP JUMPDEST PUSH1 0x1 PUSH1 0x2 SSTORE PUSH1 0x1 PUSH1 0x1 PUSH1 0xA0 SHL SUB DUP2 AND PUSH3 0xB6 JUMPI PUSH1 0x40 MLOAD PUSH3 0x461BCD PUSH1 0xE5 SHL DUP2 MSTORE PUSH1 0x20 PUSH1 0x4 DUP3 ADD MSTORE PUSH1 0x18 PUSH1 0x24 DUP3 ADD MSTORE PUSH32 0x496E76616C6964207374616B696E6720636F6E74726163740000000000000000 PUSH1 0x44 DUP3 ADD MSTORE PUSH1 0x64 ADD PUSH1 0x40 MLOAD DUP1 SWAP2 SUB SWAP1 REVERT JUMPDEST PUSH3 0xC2 PUSH0 CALLER PUSH3 0x143 JUMP JUMPDEST POP PUSH3 0xEF PUSH32 0xA49807205CE4D355092EF5A8A18F56E8913CF4A201FBE287825B095693C21775 CALLER PUSH3 0x143 JUMP JUMPDEST POP PUSH3 0x11C PUSH32 0x65D7A28E3265B37A6474929F336521B332C1681B933F6CB9F3376673440D862A CALLER PUSH3 0x143 JUMP JUMPDEST POP PUSH1 0x3 DUP1 SLOAD PUSH1 0x1 PUSH1 0x1 PUSH1 0xA0 SHL SUB NOT AND PUSH1 0x1 PUSH1 0x1 PUSH1 0xA0 SHL SUB SWAP3 SWAP1 SWAP3 AND SWAP2 SWAP1 SWAP2 OR SWAP1 SSTORE PUSH3 0x21E JUMP JUMPDEST PUSH0 DUP3 DUP2 MSTORE PUSH1 0x20 DUP2 DUP2 MSTORE PUSH1 0x40 DUP1 DUP4 KECCAK256 PUSH1 0x1 PUSH1 0x1 PUSH1 0xA0 SHL SUB DUP6 AND DUP5 MSTORE SWAP1 SWAP2 MSTORE DUP2 KECCAK256 SLOAD PUSH1 0xFF AND PUSH3 0x1E6 JUMPI PUSH0 DUP4 DUP2 MSTORE PUSH1 0x20 DUP2 DUP2 MSTORE PUSH1 0x40 DUP1 DUP4 KECCAK256 PUSH1 0x1 PUSH1 0x1 PUSH1 0xA0 SHL SUB DUP7 AND DUP5 MSTORE SWAP1 SWAP2 MSTORE SWAP1 KECCAK256 DUP1 SLOAD PUSH1 0xFF NOT AND PUSH1 0x1 OR SWAP1 SSTORE PUSH3 0x19D CALLER SWAP1 JUMP JUMPDEST PUSH1 0x1 PUSH1 0x1 PUSH1 0xA0 SHL SUB AND DUP3 PUSH1 0x1 PUSH1 0x1 PUSH1 0xA0 SHL SUB AND DUP5 PUSH32 0x2F8788117E7EFF1D82E926EC794901D17C78024A50270940304540A733656F0D PUSH1 0x40 MLOAD PUSH1 0x40 MLOAD DUP1 SWAP2 SUB SWAP1 LOG4 POP PUSH1 0x1 PUSH3 0x1E9 JUMP JUMPDEST POP PUSH0 JUMPDEST SWAP3 SWAP2 POP POP JUMP JUMPDEST PUSH0 PUSH1 0x20 DUP3 DUP5 SUB SLT ISZERO PUSH3 0x200 JUMPI PUSH0 DUP1 REVERT JUMPDEST DUP2 MLOAD PUSH1 0x1 PUSH1 0x1 PUSH1 0xA0 SHL SUB DUP2 AND DUP2 EQ PUSH3 0x217 JUMPI PUSH0 DUP1 REVERT JUMPDEST SWAP4 SWAP3 POP POP POP JUMP JUMPDEST PUSH2 0x239D DUP1 PUSH3 0x22C PUSH0 CODECOPY PUSH0 RETURN INVALID PUSH1 0x80 PUSH1 0x40 MSTORE PUSH1 0x4 CALLDATASIZE LT PUSH2 0x254 JUMPI PUSH0 CALLDATALOAD PUSH1 0xE0 SHR DUP1 PUSH4 0x91D14854 GT PUSH2 0x13F JUMPI DUP1 PUSH4 0xDA748B10 GT PUSH2 0xB3 JUMPI DUP1 PUSH4 0xEB80B2EF GT PUSH2 0x78 JUMPI DUP1 PUSH4 0xEB80B2EF EQ PUSH2 0x7EE JUMPI DUP1 PUSH4 0xECE1DE44 EQ PUSH2 0x803 JUMPI DUP1 PUSH4 0xEE99205C EQ PUSH2 0x816 JUMPI DUP1 PUSH4 0xF4732D05 EQ PUSH2 0x835 JUMPI DUP1 PUSH4 0xF57809E6 EQ PUSH2 0x854 JUMPI DUP1 PUSH4 0xF643D3D7 EQ PUSH2 0x87F JUMPI PUSH0 DUP1 REVERT JUMPDEST DUP1 PUSH4 0xDA748B10 EQ PUSH2 0x73C JUMPI DUP1 PUSH4 0xE4A3D784 EQ PUSH2 0x751 JUMPI DUP1 PUSH4 0xE63AB1E9 EQ PUSH2 0x77D JUMPI DUP1 PUSH4 0xE785EF0E EQ PUSH2 0x7B0 JUMPI DUP1 PUSH4 0xEA0217CF EQ PUSH2 0x7CF JUMPI PUSH0 DUP1 REVERT JUMPDEST DUP1 PUSH4 0xB7050920 GT PUSH2 0x104 JUMPI DUP1 PUSH4 0xB7050920 EQ PUSH2 0x682 JUMPI DUP1 PUSH4 0xB850CDF7 EQ PUSH2 0x6A1 JUMPI DUP1 PUSH4 0xB8FAD24E EQ PUSH2 0x6C0 JUMPI DUP1 PUSH4 0xBC6675F9 EQ PUSH2 0x6DF JUMPI DUP1 PUSH4 0xD15C11C8 EQ PUSH2 0x6FE JUMPI DUP1 PUSH4 0xD547741F EQ PUSH2 0x71D JUMPI PUSH0 DUP1 REVERT JUMPDEST DUP1 PUSH4 0x91D14854 EQ PUSH2 0x5C9 JUMPI DUP1 PUSH4 0x9DD373B9 EQ PUSH2 0x5E8 JUMPI DUP1 PUSH4 0x9F2CE678 EQ PUSH2 0x607 JUMPI DUP1 PUSH4 0xA217FDDF EQ PUSH2 0x626 JUMPI DUP1 PUSH4 0xAADC3B72 EQ PUSH2 0x639 JUMPI PUSH0 DUP1 REVERT JUMPDEST DUP1 PUSH4 0x2EECB0C8 GT PUSH2 0x1D6 JUMPI DUP1 PUSH4 0x51AF8A22 GT PUSH2 0x19B JUMPI DUP1 PUSH4 0x51AF8A22 EQ PUSH2 0x511 JUMPI DUP1 PUSH4 0x536C8C15 EQ PUSH2 0x555 JUMPI DUP1 PUSH4 0x5C975ABB EQ PUSH2 0x56A JUMPI DUP1 PUSH4 0x5EEF3DA2 EQ PUSH2 0x580 JUMPI DUP1 PUSH4 0x62AAA876 EQ PUSH2 0x595 JUMPI DUP1 PUSH4 0x75B238FC EQ PUSH2 0x5A9 JUMPI PUSH0 DUP1 REVERT JUMPDEST DUP1 PUSH4 0x2EECB0C8 EQ PUSH2 0x465 JUMPI DUP1 PUSH4 0x2F2FF15D EQ PUSH2 0x493 JUMPI DUP1 PUSH4 0x36568ABE EQ PUSH2 0x4B2 JUMPI DUP1 PUSH4 0x3F4BA83A EQ PUSH2 0x4D1 JUMPI DUP1 PUSH4 0x46B3C3C3 EQ PUSH2 0x4E5 JUMPI PUSH0 DUP1 REVERT JUMPDEST DUP1 PUSH4 0x136439DD GT PUSH2 0x21C JUMPI DUP1 PUSH4 0x136439DD EQ PUSH2 0x366 JUMPI DUP1 PUSH4 0x1E44B1A7 EQ PUSH2 0x387 JUMPI DUP1 PUSH4 0x248A9CA3 EQ PUSH2 0x39A JUMPI DUP1 PUSH4 0x24D0B041 EQ PUSH2 0x3C8 JUMPI DUP1 PUSH4 0x2799657D EQ PUSH2 0x44F JUMPI PUSH0 DUP1 REVERT JUMPDEST DUP1 PUSH4 0x1FFC9A7 EQ PUSH2 0x258 JUMPI DUP1 PUSH4 0x2A251A3 EQ PUSH2 0x28C JUMPI DUP1 PUSH4 0x5B9A25F EQ PUSH2 0x2AF JUMPI DUP1 PUSH4 0xA2653D1 EQ PUSH2 0x2E6 JUMPI DUP1 PUSH4 0x128203C6 EQ PUSH2 0x351 JUMPI JUMPDEST PUSH0 DUP1 REVERT JUMPDEST CALLVALUE DUP1 ISZERO PUSH2 0x263 JUMPI PUSH0 DUP1 REVERT JUMPDEST POP PUSH2 0x277 PUSH2 0x272 CALLDATASIZE PUSH1 0x4 PUSH2 0x1FAC JUMP JUMPDEST PUSH2 0x89E JUMP JUMPDEST PUSH1 0x40 MLOAD SWAP1 ISZERO ISZERO DUP2 MSTORE PUSH1 0x20 ADD JUMPDEST PUSH1 0x40 MLOAD DUP1 SWAP2 SUB SWAP1 RETURN JUMPDEST CALLVALUE DUP1 ISZERO PUSH2 0x297 JUMPI PUSH0 DUP1 REVERT JUMPDEST POP PUSH2 0x2A1 PUSH1 0x6 SLOAD DUP2 JUMP JUMPDEST PUSH1 0x40 MLOAD SWAP1 DUP2 MSTORE PUSH1 0x20 ADD PUSH2 0x283 JUMP JUMPDEST CALLVALUE DUP1 ISZERO PUSH2 0x2BA JUMPI PUSH0 DUP1 REVERT JUMPDEST POP PUSH2 0x2CE PUSH2 0x2C9 CALLDATASIZE PUSH1 0x4 PUSH2 0x1FDA JUMP JUMPDEST PUSH2 0x8D4 JUMP JUMPDEST PUSH1 0x40 MLOAD PUSH1 0x1 PUSH1 0x1 PUSH1 0xA0 SHL SUB SWAP1 SWAP2 AND DUP2 MSTORE PUSH1 0x20 ADD PUSH2 0x283 JUMP JUMPDEST CALLVALUE DUP1 ISZERO PUSH2 0x2F1 JUMPI PUSH0 DUP1 REVERT JUMPDEST POP PUSH2 0x332 PUSH2 0x300 CALLDATASIZE PUSH1 0x4 PUSH2 0x2015 JUMP JUMPDEST PUSH1 0xA PUSH1 0x20 SWAP1 DUP2 MSTORE PUSH0 SWAP3 DUP4 MSTORE PUSH1 0x40 DUP1 DUP5 KECCAK256 SWAP1 SWAP2 MSTORE SWAP1 DUP3 MSTORE SWAP1 KECCAK256 SLOAD PUSH1 0xFF DUP1 DUP3 AND SWAP2 PUSH2 0x100 DUP2 DIV DUP3 AND SWAP2 PUSH3 0x10000 SWAP1 SWAP2 DIV AND DUP4 JUMP JUMPDEST PUSH1 0x40 DUP1 MLOAD SWAP4 ISZERO ISZERO DUP5 MSTORE SWAP2 ISZERO ISZERO PUSH1 0x20 DUP5 ADD MSTORE ISZERO ISZERO SWAP1 DUP3 ADD MSTORE PUSH1 0x60 ADD PUSH2 0x283 JUMP JUMPDEST CALLVALUE DUP1 ISZERO PUSH2 0x35C JUMPI PUSH0 DUP1 REVERT JUMPDEST POP PUSH2 0x2A1 PUSH1 0x8 SLOAD DUP2 JUMP JUMPDEST CALLVALUE DUP1 ISZERO PUSH2 0x371 JUMPI PUSH0 DUP1 REVERT JUMPDEST POP PUSH2 0x385 PUSH2 0x380 CALLDATASIZE PUSH1 0x4 PUSH2 0x203F JUMP JUMPDEST PUSH2 0x908 JUMP JUMPDEST STOP JUMPDEST PUSH2 0x2A1 PUSH2 0x395 CALLDATASIZE PUSH1 0x4 PUSH2 0x1FDA JUMP JUMPDEST PUSH2 0x9D0 JUMP JUMPDEST CALLVALUE DUP1 ISZERO PUSH2 0x3A5 JUMPI PUSH0 DUP1 REVERT JUMPDEST POP PUSH2 0x2A1 PUSH2 0x3B4 CALLDATASIZE PUSH1 0x4 PUSH2 0x203F JUMP JUMPDEST PUSH0 SWAP1 DUP2 MSTORE PUSH1 0x20 DUP2 SWAP1 MSTORE PUSH1 0x40 SWAP1 KECCAK256 PUSH1 0x1 ADD SLOAD SWAP1 JUMP JUMPDEST CALLVALUE DUP1 ISZERO PUSH2 0x3D3 JUMPI PUSH0 DUP1 REVERT JUMPDEST POP PUSH2 0x43A PUSH2 0x3E2 CALLDATASIZE PUSH1 0x4 PUSH2 0x203F JUMP JUMPDEST PUSH1 0x9 PUSH1 0x20 MSTORE PUSH0 SWAP1 DUP2 MSTORE PUSH1 0x40 SWAP1 KECCAK256 DUP1 SLOAD PUSH1 0x1 DUP3 ADD SLOAD PUSH1 0x2 DUP4 ADD SLOAD PUSH1 0x3 DUP5 ADD SLOAD PUSH1 0x4 DUP6 ADD SLOAD PUSH1 0x5 DUP7 ADD SLOAD PUSH1 0x6 DUP8 ADD SLOAD PUSH1 0x7 DUP9 ADD SLOAD PUSH1 0x8 SWAP1 SWAP9 ADD SLOAD SWAP7 SWAP8 PUSH1 0x1 PUSH1 0x1 PUSH1 0xA0 SHL SUB SWAP1 SWAP7 AND SWAP7 SWAP5 SWAP6 SWAP4 SWAP5 PUSH1 0xFF SWAP1 SWAP4 AND SWAP4 SWAP2 SWAP3 SWAP1 SWAP2 SWAP1 DUP10 JUMP JUMPDEST PUSH1 0x40 MLOAD PUSH2 0x283 SWAP10 SWAP9 SWAP8 SWAP7 SWAP6 SWAP5 SWAP4 SWAP3 SWAP2 SWAP1 PUSH2 0x208A JUMP JUMPDEST CALLVALUE DUP1 ISZERO PUSH2 0x45A JUMPI PUSH0 DUP1 REVERT JUMPDEST POP PUSH2 0x2A1 PUSH3 0x93A80 DUP2 JUMP JUMPDEST CALLVALUE DUP1 ISZERO PUSH2 0x470 JUMPI PUSH0 DUP1 REVERT JUMPDEST POP PUSH2 0x277 PUSH2 0x47F CALLDATASIZE PUSH1 0x4 PUSH2 0x20E3 JUMP JUMPDEST PUSH1 0xE PUSH1 0x20 MSTORE PUSH0 SWAP1 DUP2 MSTORE PUSH1 0x40 SWAP1 KECCAK256 SLOAD PUSH1 0xFF AND DUP2 JUMP JUMPDEST CALLVALUE DUP1 ISZERO PUSH2 0x49E JUMPI PUSH0 DUP1 REVERT JUMPDEST POP PUSH2 0x385 PUSH2 0x4AD CALLDATASIZE PUSH1 0x4 PUSH2 0x2015 JUMP JUMPDEST PUSH2 0xC69 JUMP JUMPDEST CALLVALUE DUP1 ISZERO PUSH2 0x4BD JUMPI PUSH0 DUP1 REVERT JUMPDEST POP PUSH2 0x385 PUSH2 0x4CC CALLDATASIZE PUSH1 0x4 PUSH2 0x2015 JUMP JUMPDEST PUSH2 0xC93 JUMP JUMPDEST CALLVALUE DUP1 ISZERO PUSH2 0x4DC JUMPI PUSH0 DUP1 REVERT JUMPDEST POP PUSH2 0x385 PUSH2 0xCCB JUMP JUMPDEST CALLVALUE DUP1 ISZERO PUSH2 0x4F0 JUMPI PUSH0 DUP1 REVERT JUMPDEST POP PUSH2 0x504 PUSH2 0x4FF CALLDATASIZE PUSH1 0x4 PUSH2 0x203F JUMP JUMPDEST PUSH2 0xD64 JUMP JUMPDEST PUSH1 0x40 MLOAD PUSH2 0x283 SWAP2 SWAP1 PUSH2 0x20FC JUMP JUMPDEST CALLVALUE DUP1 ISZERO PUSH2 0x51C JUMPI PUSH0 DUP1 REVERT JUMPDEST POP PUSH2 0x277 PUSH2 0x52B CALLDATASIZE PUSH1 0x4 PUSH2 0x2015 JUMP JUMPDEST PUSH0 SWAP2 DUP3 MSTORE PUSH1 0xA PUSH1 0x20 SWAP1 DUP2 MSTORE PUSH1 0x40 DUP1 DUP5 KECCAK256 PUSH1 0x1 PUSH1 0x1 PUSH1 0xA0 SHL SUB SWAP4 SWAP1 SWAP4 AND DUP5 MSTORE SWAP2 SWAP1 MSTORE SWAP1 KECCAK256 SLOAD PUSH1 0xFF AND SWAP1 JUMP JUMPDEST CALLVALUE DUP1 ISZERO PUSH2 0x560 JUMPI PUSH0 DUP1 REVERT JUMPDEST POP PUSH2 0x2A1 PUSH1 0x5 SLOAD DUP2 JUMP JUMPDEST CALLVALUE DUP1 ISZERO PUSH2 0x575 JUMPI PUSH0 DUP1 REVERT JUMPDEST POP PUSH1 0x1 SLOAD TIMESTAMP LT PUSH2 0x277 JUMP JUMPDEST CALLVALUE DUP1 ISZERO PUSH2 0x58B JUMPI PUSH0 DUP1 REVERT JUMPDEST POP PUSH2 0x2A1 PUSH1 0x7 SLOAD DUP2 JUMP JUMPDEST CALLVALUE DUP1 ISZERO PUSH2 0x5A0 JUMPI PUSH0 DUP1 REVERT JUMPDEST POP PUSH1 0xD SLOAD PUSH2 0x2A1 JUMP JUMPDEST CALLVALUE DUP1 ISZERO PUSH2 0x5B4 JUMPI PUSH0 DUP1 REVERT JUMPDEST POP PUSH2 0x2A1 PUSH0 DUP1 MLOAD PUSH1 0x20 PUSH2 0x2348 DUP4 CODECOPY DUP2 MLOAD SWAP2 MSTORE DUP2 JUMP JUMPDEST CALLVALUE DUP1 ISZERO PUSH2 0x5D4 JUMPI PUSH0 DUP1 REVERT JUMPDEST POP PUSH2 0x277 PUSH2 0x5E3 CALLDATASIZE PUSH1 0x4 PUSH2 0x2015 JUMP JUMPDEST PUSH2 0xDCD JUMP JUMPDEST CALLVALUE DUP1 ISZERO PUSH2 0x5F3 JUMPI PUSH0 DUP1 REVERT JUMPDEST POP PUSH2 0x385 PUSH2 0x602 CALLDATASIZE PUSH1 0x4 PUSH2 0x20E3 JUMP JUMPDEST PUSH2 0xDF5 JUMP JUMPDEST CALLVALUE DUP1 ISZERO PUSH2 0x612 JUMPI PUSH0 DUP1 REVERT JUMPDEST POP PUSH2 0x385 PUSH2 0x621 CALLDATASIZE PUSH1 0x4 PUSH2 0x2148 JUMP JUMPDEST PUSH2 0xE85 JUMP JUMPDEST CALLVALUE DUP1 ISZERO PUSH2 0x631 JUMPI PUSH0 DUP1 REVERT JUMPDEST POP PUSH2 0x2A1 PUSH0 DUP2 JUMP JUMPDEST CALLVALUE DUP1 ISZERO PUSH2 0x644 JUMPI PUSH0 DUP1 REVERT JUMPDEST POP PUSH2 0x277 PUSH2 0x653 CALLDATASIZE PUSH1 0x4 PUSH2 0x2015 JUMP JUMPDEST PUSH0 SWAP2 DUP3 MSTORE PUSH1 0xA PUSH1 0x20 SWAP1 DUP2 MSTORE PUSH1 0x40 DUP1 DUP5 KECCAK256 PUSH1 0x1 PUSH1 0x1 PUSH1 0xA0 SHL SUB SWAP4 SWAP1 SWAP4 AND DUP5 MSTORE SWAP2 SWAP1 MSTORE SWAP1 KECCAK256 SLOAD PUSH2 0x100 SWAP1 DIV PUSH1 0xFF AND SWAP1 JUMP JUMPDEST CALLVALUE DUP1 ISZERO PUSH2 0x68D JUMPI PUSH0 DUP1 REVERT JUMPDEST POP PUSH2 0x385 PUSH2 0x69C CALLDATASIZE PUSH1 0x4 PUSH2 0x203F JUMP JUMPDEST PUSH2 0x10C4 JUMP JUMPDEST CALLVALUE DUP1 ISZERO PUSH2 0x6AC JUMPI PUSH0 DUP1 REVERT JUMPDEST POP PUSH2 0x277 PUSH2 0x6BB CALLDATASIZE PUSH1 0x4 PUSH2 0x203F JUMP JUMPDEST PUSH2 0x10E1 JUMP JUMPDEST CALLVALUE DUP1 ISZERO PUSH2 0x6CB JUMPI PUSH0 DUP1 REVERT JUMPDEST POP PUSH2 0x385 PUSH2 0x6DA CALLDATASIZE PUSH1 0x4 PUSH2 0x203F JUMP JUMPDEST PUSH2 0x1225 JUMP JUMPDEST CALLVALUE DUP1 ISZERO PUSH2 0x6EA JUMPI PUSH0 DUP1 REVERT JUMPDEST POP PUSH2 0x385 PUSH2 0x6F9 CALLDATASIZE PUSH1 0x4 PUSH2 0x20E3 JUMP JUMPDEST PUSH2 0x129D JUMP JUMPDEST CALLVALUE DUP1 ISZERO PUSH2 0x709 JUMPI PUSH0 DUP1 REVERT JUMPDEST POP PUSH2 0x385 PUSH2 0x718 CALLDATASIZE PUSH1 0x4 PUSH2 0x203F JUMP JUMPDEST PUSH2 0x1375 JUMP JUMPDEST CALLVALUE DUP1 ISZERO PUSH2 0x728 JUMPI PUSH0 DUP1 REVERT JUMPDEST POP PUSH2 0x385 PUSH2 0x737 CALLDATASIZE PUSH1 0x4 PUSH2 0x2015 JUMP JUMPDEST PUSH2 0x142A JUMP JUMPDEST CALLVALUE DUP1 ISZERO PUSH2 0x747 JUMPI PUSH0 DUP1 REVERT JUMPDEST POP PUSH2 0x2A1 PUSH1 0x1 SLOAD DUP2 JUMP JUMPDEST CALLVALUE DUP1 ISZERO PUSH2 0x75C JUMPI PUSH0 DUP1 REVERT JUMPDEST POP PUSH2 0x770 PUSH2 0x76B CALLDATASIZE PUSH1 0x4 PUSH2 0x203F JUMP JUMPDEST PUSH2 0x144E JUMP JUMPDEST PUSH1 0x40 MLOAD PUSH2 0x283 SWAP2 SWAP1 PUSH2 0x217A JUMP JUMPDEST CALLVALUE DUP1 ISZERO PUSH2 0x788 JUMPI PUSH0 DUP1 REVERT JUMPDEST POP PUSH2 0x2A1 PUSH32 0x65D7A28E3265B37A6474929F336521B332C1681B933F6CB9F3376673440D862A DUP2 JUMP JUMPDEST CALLVALUE DUP1 ISZERO PUSH2 0x7BB JUMPI PUSH0 DUP1 REVERT JUMPDEST POP PUSH2 0x385 PUSH2 0x7CA CALLDATASIZE PUSH1 0x4 PUSH2 0x21EE JUMP JUMPDEST PUSH2 0x1545 JUMP JUMPDEST CALLVALUE DUP1 ISZERO PUSH2 0x7DA JUMPI PUSH0 DUP1 REVERT JUMPDEST POP PUSH2 0x385 PUSH2 0x7E9 CALLDATASIZE PUSH1 0x4 PUSH2 0x203F JUMP JUMPDEST PUSH2 0x1667 JUMP JUMPDEST CALLVALUE DUP1 ISZERO PUSH2 0x7F9 JUMPI PUSH0 DUP1 REVERT JUMPDEST POP PUSH2 0x2A1 PUSH1 0x4 SLOAD DUP2 JUMP JUMPDEST PUSH2 0x385 PUSH2 0x811 CALLDATASIZE PUSH1 0x4 PUSH2 0x203F JUMP JUMPDEST PUSH2 0x16CA JUMP JUMPDEST CALLVALUE DUP1 ISZERO PUSH2 0x821 JUMPI PUSH0 DUP1 REVERT JUMPDEST POP PUSH1 0x3 SLOAD PUSH2 0x2CE SWAP1 PUSH1 0x1 PUSH1 0x1 PUSH1 0xA0 SHL SUB AND DUP2 JUMP JUMPDEST CALLVALUE DUP1 ISZERO PUSH2 0x840 JUMPI PUSH0 DUP1 REVERT JUMPDEST POP PUSH2 0x385 PUSH2 0x84F CALLDATASIZE PUSH1 0x4 PUSH2 0x203F JUMP JUMPDEST PUSH2 0x18BE JUMP JUMPDEST CALLVALUE DUP1 ISZERO PUSH2 0x85F JUMPI PUSH0 DUP1 REVERT JUMPDEST POP PUSH2 0x2A1 PUSH2 0x86E CALLDATASIZE PUSH1 0x4 PUSH2 0x203F JUMP JUMPDEST PUSH1 0xC PUSH1 0x20 MSTORE PUSH0 SWAP1 DUP2 MSTORE PUSH1 0x40 SWAP1 KECCAK256 SLOAD DUP2 JUMP JUMPDEST CALLVALUE DUP1 ISZERO PUSH2 0x88A JUMPI PUSH0 DUP1 REVERT JUMPDEST POP PUSH2 0x2CE PUSH2 0x899 CALLDATASIZE PUSH1 0x4 PUSH2 0x203F JUMP JUMPDEST PUSH2 0x197D JUMP JUMPDEST PUSH0 PUSH1 0x1 PUSH1 0x1 PUSH1 0xE0 SHL SUB NOT DUP3 AND PUSH4 0x7965DB0B PUSH1 0xE0 SHL EQ DUP1 PUSH2 0x8CE JUMPI POP PUSH4 0x1FFC9A7 PUSH1 0xE0 SHL PUSH1 0x1 PUSH1 0x1 PUSH1 0xE0 SHL SUB NOT DUP4 AND EQ JUMPDEST SWAP3 SWAP2 POP POP JUMP JUMPDEST PUSH1 0xB PUSH1 0x20 MSTORE DUP2 PUSH0 MSTORE PUSH1 0x40 PUSH0 KECCAK256 DUP2 DUP2 SLOAD DUP2 LT PUSH2 0x8ED JUMPI PUSH0 DUP1 REVERT JUMPDEST PUSH0 SWAP2 DUP3 MSTORE PUSH1 0x20 SWAP1 SWAP2 KECCAK256 ADD SLOAD PUSH1 0x1 PUSH1 0x1 PUSH1 0xA0 SHL SUB AND SWAP2 POP DUP3 SWAP1 POP JUMP JUMPDEST PUSH32 0x65D7A28E3265B37A6474929F336521B332C1681B933F6CB9F3376673440D862A PUSH2 0x932 DUP2 PUSH2 0x19A5 JUMP JUMPDEST PUSH0 DUP3 GT DUP1 ISZERO PUSH2 0x944 JUMPI POP PUSH3 0x93A80 DUP3 GT ISZERO JUMPDEST PUSH2 0x988 JUMPI PUSH1 0x40 MLOAD PUSH3 0x461BCD PUSH1 0xE5 SHL DUP2 MSTORE PUSH1 0x20 PUSH1 0x4 DUP3 ADD MSTORE PUSH1 0x10 PUSH1 0x24 DUP3 ADD MSTORE PUSH16 0x24B73B30B634B210323AB930BA34B7B7 PUSH1 0x81 SHL PUSH1 0x44 DUP3 ADD MSTORE PUSH1 0x64 ADD JUMPDEST PUSH1 0x40 MLOAD DUP1 SWAP2 SUB SWAP1 REVERT JUMPDEST PUSH2 0x992 DUP3 TIMESTAMP PUSH2 0x2271 JUMP JUMPDEST PUSH1 0x1 DUP2 SWAP1 SSTORE PUSH1 0x40 MLOAD SWAP1 DUP2 MSTORE CALLER SWAP1 PUSH32 0xAB40A374BC51DE372200A8BC981AF8C9ECDC08DFDAEF0BB6E09F88F3C616EF3D SWAP1 PUSH1 0x20 ADD PUSH1 0x40 MLOAD DUP1 SWAP2 SUB SWAP1 LOG2 POP POP JUMP JUMPDEST PUSH0 PUSH2 0x9D9 PUSH2 0x19AF JUMP JUMPDEST PUSH1 0x1 SLOAD TIMESTAMP LT ISZERO PUSH2 0xA20 JUMPI PUSH1 0x40 MLOAD PUSH3 0x461BCD PUSH1 0xE5 SHL DUP2 MSTORE PUSH1 0x20 PUSH1 0x4 DUP3 ADD MSTORE PUSH1 0x12 PUSH1 0x24 DUP3 ADD MSTORE PUSH18 0x10DBDB9D1C9858DD081A5CC81C185D5CD959 PUSH1 0x72 SHL PUSH1 0x44 DUP3 ADD MSTORE PUSH1 0x64 ADD PUSH2 0x97F JUMP JUMPDEST PUSH1 0x4 SLOAD CALLVALUE LT ISZERO PUSH2 0xA69 JUMPI PUSH1 0x40 MLOAD PUSH3 0x461BCD PUSH1 0xE5 SHL DUP2 MSTORE PUSH1 0x20 PUSH1 0x4 DUP3 ADD MSTORE PUSH1 0x14 PUSH1 0x24 DUP3 ADD MSTORE PUSH20 0x125B9CDD59999A58DA595B9D0819195C1BDCDA5D PUSH1 0x62 SHL PUSH1 0x44 DUP3 ADD MSTORE PUSH1 0x64 ADD PUSH2 0x97F JUMP JUMPDEST PUSH0 DUP4 DUP2 MSTORE PUSH1 0xC PUSH1 0x20 MSTORE PUSH1 0x40 SWAP1 KECCAK256 SLOAD ISZERO PUSH2 0xAC4 JUMPI PUSH1 0x40 MLOAD PUSH3 0x461BCD PUSH1 0xE5 SHL DUP2 MSTORE PUSH1 0x20 PUSH1 0x4 DUP3 ADD MSTORE PUSH1 0x18 PUSH1 0x24 DUP3 ADD MSTORE PUSH32 0x5265736F7572636520616C726561647920666C61676765640000000000000000 PUSH1 0x44 DUP3 ADD MSTORE PUSH1 0x64 ADD PUSH2 0x97F JUMP JUMPDEST POP PUSH1 0x40 DUP1 MLOAD PUSH1 0x20 DUP1 DUP3 ADD DUP6 SWAP1 MSTORE CALLER PUSH1 0x60 DUP2 SWAP1 SHL PUSH12 0xFFFFFFFFFFFFFFFFFFFFFFFF NOT AND DUP4 DUP6 ADD MSTORE TIMESTAMP PUSH1 0x54 DUP1 DUP6 ADD SWAP2 SWAP1 SWAP2 MSTORE DUP5 MLOAD DUP1 DUP6 SUB SWAP1 SWAP2 ADD DUP2 MSTORE PUSH1 0x74 DUP5 ADD DUP1 DUP7 MSTORE DUP2 MLOAD SWAP2 SWAP1 SWAP4 ADD KECCAK256 PUSH2 0x194 DUP5 ADD SWAP1 SWAP5 MSTORE DUP6 DUP3 MSTORE PUSH1 0x94 DUP4 ADD MSTORE CALLVALUE PUSH1 0xB4 DUP4 ADD MSTORE PUSH1 0xD4 DUP3 ADD DUP5 SWAP1 MSTORE SWAP1 PUSH1 0xF4 ADD PUSH0 DUP2 MSTORE PUSH1 0x20 ADD TIMESTAMP DUP2 MSTORE PUSH1 0x20 ADD PUSH0 DUP2 MSTORE PUSH1 0x20 ADD PUSH0 DUP2 MSTORE PUSH1 0x20 ADD PUSH0 DUP2 MSTORE POP PUSH1 0x9 PUSH0 DUP4 DUP2 MSTORE PUSH1 0x20 ADD SWAP1 DUP2 MSTORE PUSH1 0x20 ADD PUSH0 KECCAK256 PUSH0 DUP3 ADD MLOAD DUP2 PUSH0 ADD SSTORE PUSH1 0x20 DUP3 ADD MLOAD DUP2 PUSH1 0x1 ADD PUSH0 PUSH2 0x100 EXP DUP2 SLOAD DUP2 PUSH1 0x1 PUSH1 0x1 PUSH1 0xA0 SHL SUB MUL NOT AND SWAP1 DUP4 PUSH1 0x1 PUSH1 0x1 PUSH1 0xA0 SHL SUB AND MUL OR SWAP1 SSTORE POP PUSH1 0x40 DUP3 ADD MLOAD DUP2 PUSH1 0x2 ADD SSTORE PUSH1 0x60 DUP3 ADD MLOAD DUP2 PUSH1 0x3 ADD SSTORE PUSH1 0x80 DUP3 ADD MLOAD DUP2 PUSH1 0x4 ADD PUSH0 PUSH2 0x100 EXP DUP2 SLOAD DUP2 PUSH1 0xFF MUL NOT AND SWAP1 DUP4 PUSH1 0x5 DUP2 GT ISZERO PUSH2 0xBCB JUMPI PUSH2 0xBCB PUSH2 0x2056 JUMP JUMPDEST MUL OR SWAP1 SSTORE POP PUSH1 0xA0 DUP3 ADD MLOAD PUSH1 0x5 DUP3 ADD SSTORE PUSH1 0xC0 DUP3 ADD MLOAD PUSH1 0x6 DUP3 ADD SSTORE PUSH1 0xE0 DUP3 ADD MLOAD PUSH1 0x7 DUP3 ADD SSTORE PUSH2 0x100 SWAP1 SWAP2 ADD MLOAD PUSH1 0x8 SWAP1 SWAP2 ADD SSTORE PUSH0 DUP4 DUP2 MSTORE PUSH1 0xC PUSH1 0x20 SWAP1 DUP2 MSTORE PUSH1 0x40 SWAP2 DUP3 SWAP1 KECCAK256 DUP4 SWAP1 SSTORE DUP2 MLOAD CALLVALUE DUP2 MSTORE SWAP1 DUP2 ADD DUP5 SWAP1 MSTORE CALLER SWAP2 DUP6 SWAP2 DUP5 SWAP2 PUSH32 0xC92EDB8FB4BAC81C1756962B16BBA68657B07E9A6C6E852B9A63550FDC27C1BB SWAP2 ADD PUSH1 0x40 MLOAD DUP1 SWAP2 SUB SWAP1 LOG4 PUSH1 0x5 SLOAD PUSH1 0xD SLOAD LT PUSH2 0xC5F JUMPI PUSH2 0xC5F DUP2 PUSH2 0x19D7 JUMP JUMPDEST PUSH2 0x8CE PUSH1 0x1 PUSH1 0x2 SSTORE JUMP JUMPDEST PUSH0 DUP3 DUP2 MSTORE PUSH1 0x20 DUP2 SWAP1 MSTORE PUSH1 0x40 SWAP1 KECCAK256 PUSH1 0x1 ADD SLOAD PUSH2 0xC83 DUP2 PUSH2 0x19A5 JUMP JUMPDEST PUSH2 0xC8D DUP4 DUP4 PUSH2 0x1C9B JUMP JUMPDEST POP POP POP POP JUMP JUMPDEST PUSH1 0x1 PUSH1 0x1 PUSH1 0xA0 SHL SUB DUP2 AND CALLER EQ PUSH2 0xCBC JUMPI PUSH1 0x40 MLOAD PUSH4 0x334BD919 PUSH1 0xE1 SHL DUP2 MSTORE PUSH1 0x4 ADD PUSH1 0x40 MLOAD DUP1 SWAP2 SUB SWAP1 REVERT JUMPDEST PUSH2 0xCC6 DUP3 DUP3 PUSH2 0x1D2A JUMP JUMPDEST POP POP POP JUMP JUMPDEST PUSH32 0x65D7A28E3265B37A6474929F336521B332C1681B933F6CB9F3376673440D862A PUSH2 0xCF5 DUP2 PUSH2 0x19A5 JUMP JUMPDEST PUSH1 0x1 SLOAD TIMESTAMP LT PUSH2 0xD33 JUMPI PUSH1 0x40 MLOAD PUSH3 0x461BCD PUSH1 0xE5 SHL DUP2 MSTORE PUSH1 0x20 PUSH1 0x4 DUP3 ADD MSTORE PUSH1 0xA PUSH1 0x24 DUP3 ADD MSTORE PUSH10 0x139BDD081C185D5CD959 PUSH1 0xB2 SHL PUSH1 0x44 DUP3 ADD MSTORE PUSH1 0x64 ADD PUSH2 0x97F JUMP JUMPDEST PUSH0 PUSH1 0x1 DUP2 SWAP1 SSTORE PUSH1 0x40 MLOAD CALLER SWAP2 PUSH32 0x5DB9EE0A495BF2E6FF9C91A7834C1BA4FDD244A5E8AA4E537BD38AEAE4B073AA SWAP2 LOG2 POP JUMP JUMPDEST PUSH0 DUP2 DUP2 MSTORE PUSH1 0xB PUSH1 0x20 SWAP1 DUP2 MSTORE PUSH1 0x40 SWAP2 DUP3 SWAP1 KECCAK256 DUP1 SLOAD DUP4 MLOAD DUP2 DUP5 MUL DUP2 ADD DUP5 ADD SWAP1 SWAP5 MSTORE DUP1 DUP5 MSTORE PUSH1 0x60 SWAP4 SWAP3 DUP4 ADD DUP3 DUP3 DUP1 ISZERO PUSH2 0xDC1 JUMPI PUSH1 0x20 MUL DUP3 ADD SWAP2 SWAP1 PUSH0 MSTORE PUSH1 0x20 PUSH0 KECCAK256 SWAP1 JUMPDEST DUP2 SLOAD PUSH1 0x1 PUSH1 0x1 PUSH1 0xA0 SHL SUB AND DUP2 MSTORE PUSH1 0x1 SWAP1 SWAP2 ADD SWAP1 PUSH1 0x20 ADD DUP1 DUP4 GT PUSH2 0xDA3 JUMPI JUMPDEST POP POP POP POP POP SWAP1 POP SWAP2 SWAP1 POP JUMP JUMPDEST PUSH0 SWAP2 DUP3 MSTORE PUSH1 0x20 DUP3 DUP2 MSTORE PUSH1 0x40 DUP1 DUP5 KECCAK256 PUSH1 0x1 PUSH1 0x1 PUSH1 0xA0 SHL SUB SWAP4 SWAP1 SWAP4 AND DUP5 MSTORE SWAP2 SWAP1 MSTORE SWAP1 KECCAK256 SLOAD PUSH1 0xFF AND SWAP1 JUMP JUMPDEST PUSH0 DUP1 MLOAD PUSH1 0x20 PUSH2 0x2348 DUP4 CODECOPY DUP2 MLOAD SWAP2 MSTORE PUSH2 0xE0C DUP2 PUSH2 0x19A5 JUMP JUMPDEST PUSH1 0x1 PUSH1 0x1 PUSH1 0xA0 SHL SUB DUP3 AND PUSH2 0xE62 JUMPI PUSH1 0x40 MLOAD PUSH3 0x461BCD PUSH1 0xE5 SHL DUP2 MSTORE PUSH1 0x20 PUSH1 0x4 DUP3 ADD MSTORE PUSH1 0x18 PUSH1 0x24 DUP3 ADD MSTORE PUSH32 0x496E76616C6964207374616B696E6720636F6E74726163740000000000000000 PUSH1 0x44 DUP3 ADD MSTORE PUSH1 0x64 ADD PUSH2 0x97F JUMP JUMPDEST POP PUSH1 0x3 DUP1 SLOAD PUSH1 0x1 PUSH1 0x1 PUSH1 0xA0 SHL SUB NOT AND PUSH1 0x1 PUSH1 0x1 PUSH1 0xA0 SHL SUB SWAP3 SWAP1 SWAP3 AND SWAP2 SWAP1 SWAP2 OR SWAP1 SSTORE JUMP JUMPDEST PUSH2 0xE8D PUSH2 0x19AF JUMP JUMPDEST PUSH1 0x1 SLOAD TIMESTAMP LT ISZERO PUSH2 0xED4 JUMPI PUSH1 0x40 MLOAD PUSH3 0x461BCD PUSH1 0xE5 SHL DUP2 MSTORE PUSH1 0x20 PUSH1 0x4 DUP3 ADD MSTORE PUSH1 0x12 PUSH1 0x24 DUP3 ADD MSTORE PUSH18 0x10DBDB9D1C9858DD081A5CC81C185D5CD959 PUSH1 0x72 SHL PUSH1 0x44 DUP3 ADD MSTORE PUSH1 0x64 ADD PUSH2 0x97F JUMP JUMPDEST PUSH0 DUP3 DUP2 MSTORE PUSH1 0x9 PUSH1 0x20 MSTORE PUSH1 0x40 SWAP1 KECCAK256 PUSH1 0x1 PUSH1 0x4 DUP3 ADD SLOAD PUSH1 0xFF AND PUSH1 0x5 DUP2 GT ISZERO PUSH2 0xEFC JUMPI PUSH2 0xEFC PUSH2 0x2056 JUMP JUMPDEST EQ PUSH2 0xF39 JUMPI PUSH1 0x40 MLOAD PUSH3 0x461BCD PUSH1 0xE5 SHL DUP2 MSTORE PUSH1 0x20 PUSH1 0x4 DUP3 ADD MSTORE PUSH1 0xD PUSH1 0x24 DUP3 ADD MSTORE PUSH13 0x4E6F7420696E20726576696577 PUSH1 0x98 SHL PUSH1 0x44 DUP3 ADD MSTORE PUSH1 0x64 ADD PUSH2 0x97F JUMP JUMPDEST DUP1 PUSH1 0x6 ADD SLOAD TIMESTAMP LT PUSH2 0xF7B JUMPI PUSH1 0x40 MLOAD PUSH3 0x461BCD PUSH1 0xE5 SHL DUP2 MSTORE PUSH1 0x20 PUSH1 0x4 DUP3 ADD MSTORE PUSH1 0xC PUSH1 0x24 DUP3 ADD MSTORE PUSH12 0x159BDD1A5B99C8195B991959 PUSH1 0xA2 SHL PUSH1 0x44 DUP3 ADD MSTORE PUSH1 0x64 ADD PUSH2 0x97F JUMP JUMPDEST PUSH0 DUP4 DUP2 MSTORE PUSH1 0xA PUSH1 0x20 SWAP1 DUP2 MSTORE PUSH1 0x40 DUP1 DUP4 KECCAK256 CALLER DUP5 MSTORE SWAP1 SWAP2 MSTORE SWAP1 KECCAK256 DUP1 SLOAD PUSH1 0xFF AND PUSH2 0xFD2 JUMPI PUSH1 0x40 MLOAD PUSH3 0x461BCD PUSH1 0xE5 SHL DUP2 MSTORE PUSH1 0x20 PUSH1 0x4 DUP3 ADD MSTORE PUSH1 0xB PUSH1 0x24 DUP3 ADD MSTORE PUSH11 0x2737BA103090353AB937B9 PUSH1 0xA9 SHL PUSH1 0x44 DUP3 ADD MSTORE PUSH1 0x64 ADD PUSH2 0x97F JUMP JUMPDEST DUP1 SLOAD PUSH2 0x100 SWAP1 DIV PUSH1 0xFF AND ISZERO PUSH2 0x1019 JUMPI PUSH1 0x40 MLOAD PUSH3 0x461BCD PUSH1 0xE5 SHL DUP2 MSTORE PUSH1 0x20 PUSH1 0x4 DUP3 ADD MSTORE PUSH1 0xD PUSH1 0x24 DUP3 ADD MSTORE PUSH13 0x105B1C9958591E481D9BDD1959 PUSH1 0x9A SHL PUSH1 0x44 DUP3 ADD MSTORE PUSH1 0x64 ADD PUSH2 0x97F JUMP JUMPDEST DUP1 SLOAD DUP4 ISZERO ISZERO PUSH3 0x10000 MUL PUSH3 0xFFFF00 NOT SWAP1 SWAP2 AND OR PUSH2 0x100 OR DUP2 SSTORE PUSH1 0x7 DUP3 ADD DUP1 SLOAD SWAP1 PUSH0 PUSH2 0x1043 DUP4 PUSH2 0x2284 JUMP JUMPDEST SWAP2 SWAP1 POP SSTORE POP DUP3 ISZERO PUSH2 0x1065 JUMPI PUSH1 0x8 DUP3 ADD DUP1 SLOAD SWAP1 PUSH0 PUSH2 0x105F DUP4 PUSH2 0x2284 JUMP JUMPDEST SWAP2 SWAP1 POP SSTORE POP JUMPDEST PUSH1 0x40 MLOAD DUP4 ISZERO ISZERO DUP2 MSTORE CALLER SWAP1 DUP6 SWAP1 PUSH32 0xF2EE66CB5FB317984A735AFCE8F490E33D93334D63262BAC9728CB9FEC4038A5 SWAP1 PUSH1 0x20 ADD PUSH1 0x40 MLOAD DUP1 SWAP2 SUB SWAP1 LOG3 PUSH1 0x5 SLOAD DUP3 PUSH1 0x7 ADD SLOAD SUB PUSH2 0x10B4 JUMPI PUSH2 0x10B4 DUP5 PUSH2 0x1D93 JUMP JUMPDEST POP POP PUSH2 0x10C0 PUSH1 0x1 PUSH1 0x2 SSTORE JUMP JUMPDEST POP POP JUMP JUMPDEST PUSH0 DUP1 MLOAD PUSH1 0x20 PUSH2 0x2348 DUP4 CODECOPY DUP2 MLOAD SWAP2 MSTORE PUSH2 0x10DB DUP2 PUSH2 0x19A5 JUMP JUMPDEST POP PUSH1 0x4 SSTORE JUMP JUMPDEST PUSH0 DUP2 DUP2 MSTORE PUSH1 0xC PUSH1 0x20 MSTORE PUSH1 0x40 DUP2 KECCAK256 SLOAD DUP1 PUSH2 0x112D JUMPI PUSH1 0x40 MLOAD PUSH3 0x461BCD PUSH1 0xE5 SHL DUP2 MSTORE PUSH1 0x20 PUSH1 0x4 DUP3 ADD MSTORE PUSH1 0xE PUSH1 0x24 DUP3 ADD MSTORE PUSH14 0x4E6F2061637469766520666C6167 PUSH1 0x90 SHL PUSH1 0x44 DUP3 ADD MSTORE PUSH1 0x64 ADD PUSH2 0x97F JUMP JUMPDEST PUSH0 DUP2 DUP2 MSTORE PUSH1 0x9 PUSH1 0x20 MSTORE PUSH1 0x40 SWAP1 KECCAK256 PUSH1 0x2 PUSH1 0x4 DUP3 ADD SLOAD PUSH1 0xFF AND PUSH1 0x5 DUP2 GT ISZERO PUSH2 0x1155 JUMPI PUSH2 0x1155 PUSH2 0x2056 JUMP JUMPDEST EQ PUSH2 0x118F JUMPI PUSH1 0x40 MLOAD PUSH3 0x461BCD PUSH1 0xE5 SHL DUP2 MSTORE PUSH1 0x20 PUSH1 0x4 DUP3 ADD MSTORE PUSH1 0xA PUSH1 0x24 DUP3 ADD MSTORE PUSH10 0x4E6F74206775696C7479 PUSH1 0xB0 SHL PUSH1 0x44 DUP3 ADD MSTORE PUSH1 0x64 ADD PUSH2 0x97F JUMP JUMPDEST PUSH0 DUP5 DUP2 MSTORE PUSH1 0xC PUSH1 0x20 MSTORE PUSH1 0x40 DUP1 DUP3 KECCAK256 DUP3 SWAP1 SSTORE PUSH1 0x1 DUP4 ADD SLOAD PUSH1 0x2 DUP5 ADD SLOAD SWAP2 MLOAD PUSH1 0x1 PUSH1 0x1 PUSH1 0xA0 SHL SUB SWAP1 SWAP2 AND SWAP3 DUP3 ISZERO PUSH2 0x8FC MUL SWAP3 SWAP2 SWAP1 DUP2 DUP2 DUP2 DUP6 DUP9 DUP9 CALL SWAP4 POP POP POP POP ISZERO DUP1 ISZERO PUSH2 0x11DC JUMPI RETURNDATASIZE PUSH0 DUP1 RETURNDATACOPY RETURNDATASIZE PUSH0 REVERT JUMPDEST POP DUP4 PUSH32 0x3C6D365DB6255BC86EB46A819F3B6DED3BC0D34EBFFBF0E688587EE50A36DE35 DUP3 PUSH1 0x2 ADD SLOAD PUSH1 0x40 MLOAD PUSH2 0x1213 SWAP2 DUP2 MSTORE PUSH1 0x20 ADD SWAP1 JUMP JUMPDEST PUSH1 0x40 MLOAD DUP1 SWAP2 SUB SWAP1 LOG2 POP PUSH1 0x1 SWAP4 SWAP3 POP POP POP JUMP JUMPDEST PUSH0 DUP1 MLOAD PUSH1 0x20 PUSH2 0x2348 DUP4 CODECOPY DUP2 MLOAD SWAP2 MSTORE PUSH2 0x123C DUP2 PUSH2 0x19A5 JUMP JUMPDEST PUSH1 0x3 DUP3 LT ISZERO DUP1 ISZERO PUSH2 0x1257 JUMPI POP PUSH2 0x1253 PUSH1 0x2 DUP4 PUSH2 0x22B0 JUMP JUMPDEST PUSH1 0x1 EQ JUMPDEST PUSH2 0x1297 JUMPI PUSH1 0x40 MLOAD PUSH3 0x461BCD PUSH1 0xE5 SHL DUP2 MSTORE PUSH1 0x20 PUSH1 0x4 DUP3 ADD MSTORE PUSH1 0x11 PUSH1 0x24 DUP3 ADD MSTORE PUSH17 0x496E76616C6964206A7572792073697A65 PUSH1 0x78 SHL PUSH1 0x44 DUP3 ADD MSTORE PUSH1 0x64 ADD PUSH2 0x97F JUMP JUMPDEST POP PUSH1 0x5 SSTORE JUMP JUMPDEST PUSH0 DUP1 MLOAD PUSH1 0x20 PUSH2 0x2348 DUP4 CODECOPY DUP2 MLOAD SWAP2 MSTORE PUSH2 0x12B4 DUP2 PUSH2 0x19A5 JUMP JUMPDEST PUSH1 0x1 PUSH1 0x1 PUSH1 0xA0 SHL SUB DUP3 AND PUSH0 SWAP1 DUP2 MSTORE PUSH1 0xE PUSH1 0x20 MSTORE PUSH1 0x40 SWAP1 KECCAK256 SLOAD PUSH1 0xFF AND ISZERO PUSH2 0x130E JUMPI PUSH1 0x40 MLOAD PUSH3 0x461BCD PUSH1 0xE5 SHL DUP2 MSTORE PUSH1 0x20 PUSH1 0x4 DUP3 ADD MSTORE PUSH1 0xF PUSH1 0x24 DUP3 ADD MSTORE PUSH15 0x105B1C9958591E481A5B881C1BDBDB PUSH1 0x8A SHL PUSH1 0x44 DUP3 ADD MSTORE PUSH1 0x64 ADD PUSH2 0x97F JUMP JUMPDEST POP PUSH1 0xD DUP1 SLOAD PUSH1 0x1 DUP2 DUP2 ADD SWAP1 SWAP3 SSTORE PUSH32 0xD7B6990105719101DABEB77144F2A3385C8033ACD3AF97E9423A695E81AD1EB5 ADD DUP1 SLOAD PUSH1 0x1 PUSH1 0x1 PUSH1 0xA0 SHL SUB SWAP1 SWAP4 AND PUSH1 0x1 PUSH1 0x1 PUSH1 0xA0 SHL SUB NOT SWAP1 SWAP4 AND DUP4 OR SWAP1 SSTORE PUSH0 SWAP2 DUP3 MSTORE PUSH1 0xE PUSH1 0x20 MSTORE PUSH1 0x40 SWAP1 SWAP2 KECCAK256 DUP1 SLOAD PUSH1 0xFF NOT AND SWAP1 SWAP2 OR SWAP1 SSTORE JUMP JUMPDEST PUSH0 DUP2 DUP2 MSTORE PUSH1 0x9 PUSH1 0x20 MSTORE PUSH1 0x40 SWAP1 KECCAK256 PUSH1 0x1 PUSH1 0x4 DUP3 ADD SLOAD PUSH1 0xFF AND PUSH1 0x5 DUP2 GT ISZERO PUSH2 0x139D JUMPI PUSH2 0x139D PUSH2 0x2056 JUMP JUMPDEST EQ PUSH2 0x13DA JUMPI PUSH1 0x40 MLOAD PUSH3 0x461BCD PUSH1 0xE5 SHL DUP2 MSTORE PUSH1 0x20 PUSH1 0x4 DUP3 ADD MSTORE PUSH1 0xD PUSH1 0x24 DUP3 ADD MSTORE PUSH13 0x4E6F7420696E20726576696577 PUSH1 0x98 SHL PUSH1 0x44 DUP3 ADD MSTORE PUSH1 0x64 ADD PUSH2 0x97F JUMP JUMPDEST DUP1 PUSH1 0x6 ADD SLOAD TIMESTAMP LT ISZERO PUSH2 0x1421 JUMPI PUSH1 0x40 MLOAD PUSH3 0x461BCD PUSH1 0xE5 SHL DUP2 MSTORE PUSH1 0x20 PUSH1 0x4 DUP3 ADD MSTORE PUSH1 0x10 PUSH1 0x24 DUP3 ADD MSTORE PUSH16 0x159BDD1A5B99C81B9BDD08195B991959 PUSH1 0x82 SHL PUSH1 0x44 DUP3 ADD MSTORE PUSH1 0x64 ADD PUSH2 0x97F JUMP JUMPDEST PUSH2 0x10C0 DUP3 PUSH2 0x1D93 JUMP JUMPDEST PUSH0 DUP3 DUP2 MSTORE PUSH1 0x20 DUP2 SWAP1 MSTORE PUSH1 0x40 SWAP1 KECCAK256 PUSH1 0x1 ADD SLOAD PUSH2 0x1444 DUP2 PUSH2 0x19A5 JUMP JUMPDEST PUSH2 0xC8D DUP4 DUP4 PUSH2 0x1D2A JUMP JUMPDEST PUSH2 0x1498 PUSH1 0x40 DUP1 MLOAD PUSH2 0x120 DUP2 ADD DUP3 MSTORE PUSH0 DUP1 DUP3 MSTORE PUSH1 0x20 DUP3 ADD DUP2 SWAP1 MSTORE SWAP2 DUP2 ADD DUP3 SWAP1 MSTORE PUSH1 0x60 DUP2 ADD DUP3 SWAP1 MSTORE SWAP1 PUSH1 0x80 DUP3 ADD SWAP1 DUP2 MSTORE PUSH1 0x20 ADD PUSH0 DUP2 MSTORE PUSH1 0x20 ADD PUSH0 DUP2 MSTORE PUSH1 0x20 ADD PUSH0 DUP2 MSTORE PUSH1 0x20 ADD PUSH0 DUP2 MSTORE POP SWAP1 JUMP JUMPDEST PUSH0 DUP3 DUP2 MSTORE PUSH1 0x9 PUSH1 0x20 SWAP1 DUP2 MSTORE PUSH1 0x40 SWAP2 DUP3 SWAP1 KECCAK256 DUP3 MLOAD PUSH2 0x120 DUP2 ADD DUP5 MSTORE DUP2 SLOAD DUP2 MSTORE PUSH1 0x1 DUP3 ADD SLOAD PUSH1 0x1 PUSH1 0x1 PUSH1 0xA0 SHL SUB AND SWAP3 DUP2 ADD SWAP3 SWAP1 SWAP3 MSTORE PUSH1 0x2 DUP2 ADD SLOAD SWAP3 DUP3 ADD SWAP3 SWAP1 SWAP3 MSTORE PUSH1 0x3 DUP3 ADD SLOAD PUSH1 0x60 DUP3 ADD MSTORE PUSH1 0x4 DUP3 ADD SLOAD SWAP1 SWAP2 SWAP1 PUSH1 0x80 DUP4 ADD SWAP1 PUSH1 0xFF AND PUSH1 0x5 DUP2 GT ISZERO PUSH2 0x1502 JUMPI PUSH2 0x1502 PUSH2 0x2056 JUMP JUMPDEST PUSH1 0x5 DUP2 GT ISZERO PUSH2 0x1513 JUMPI PUSH2 0x1513 PUSH2 0x2056 JUMP JUMPDEST DUP2 MSTORE PUSH1 0x5 DUP3 ADD SLOAD PUSH1 0x20 DUP3 ADD MSTORE PUSH1 0x6 DUP3 ADD SLOAD PUSH1 0x40 DUP3 ADD MSTORE PUSH1 0x7 DUP3 ADD SLOAD PUSH1 0x60 DUP3 ADD MSTORE PUSH1 0x8 SWAP1 SWAP2 ADD SLOAD PUSH1 0x80 SWAP1 SWAP2 ADD MSTORE SWAP3 SWAP2 POP POP JUMP JUMPDEST PUSH0 DUP1 MLOAD PUSH1 0x20 PUSH2 0x2348 DUP4 CODECOPY DUP2 MLOAD SWAP2 MSTORE PUSH2 0x155C DUP2 PUSH2 0x19A5 JUMP JUMPDEST PUSH0 JUMPDEST DUP3 DUP2 LT ISZERO PUSH2 0xC8D JUMPI PUSH1 0xE PUSH0 DUP6 DUP6 DUP5 DUP2 DUP2 LT PUSH2 0x157B JUMPI PUSH2 0x157B PUSH2 0x22C3 JUMP JUMPDEST SWAP1 POP PUSH1 0x20 MUL ADD PUSH1 0x20 DUP2 ADD SWAP1 PUSH2 0x1590 SWAP2 SWAP1 PUSH2 0x20E3 JUMP JUMPDEST PUSH1 0x1 PUSH1 0x1 PUSH1 0xA0 SHL SUB AND DUP2 MSTORE PUSH1 0x20 DUP2 ADD SWAP2 SWAP1 SWAP2 MSTORE PUSH1 0x40 ADD PUSH0 KECCAK256 SLOAD PUSH1 0xFF AND PUSH2 0x165F JUMPI PUSH1 0xD DUP5 DUP5 DUP4 DUP2 DUP2 LT PUSH2 0x15C4 JUMPI PUSH2 0x15C4 PUSH2 0x22C3 JUMP JUMPDEST SWAP1 POP PUSH1 0x20 MUL ADD PUSH1 0x20 DUP2 ADD SWAP1 PUSH2 0x15D9 SWAP2 SWAP1 PUSH2 0x20E3 JUMP JUMPDEST DUP2 SLOAD PUSH1 0x1 DUP1 DUP3 ADD DUP5 SSTORE PUSH0 SWAP4 DUP5 MSTORE PUSH1 0x20 DUP5 KECCAK256 SWAP1 SWAP2 ADD DUP1 SLOAD PUSH1 0x1 PUSH1 0x1 PUSH1 0xA0 SHL SUB NOT AND PUSH1 0x1 PUSH1 0x1 PUSH1 0xA0 SHL SUB SWAP4 SWAP1 SWAP4 AND SWAP3 SWAP1 SWAP3 OR SWAP1 SWAP2 SSTORE SWAP1 PUSH1 0xE SWAP1 DUP7 DUP7 DUP6 DUP2 DUP2 LT PUSH2 0x1622 JUMPI PUSH2 0x1622 PUSH2 0x22C3 JUMP JUMPDEST SWAP1 POP PUSH1 0x20 MUL ADD PUSH1 0x20 DUP2 ADD SWAP1 PUSH2 0x1637 SWAP2 SWAP1 PUSH2 0x20E3 JUMP JUMPDEST PUSH1 0x1 PUSH1 0x1 PUSH1 0xA0 SHL SUB AND DUP2 MSTORE PUSH1 0x20 DUP2 ADD SWAP2 SWAP1 SWAP2 MSTORE PUSH1 0x40 ADD PUSH0 KECCAK256 DUP1 SLOAD PUSH1 0xFF NOT AND SWAP2 ISZERO ISZERO SWAP2 SWAP1 SWAP2 OR SWAP1 SSTORE JUMPDEST PUSH1 0x1 ADD PUSH2 0x155E JUMP JUMPDEST PUSH0 DUP1 MLOAD PUSH1 0x20 PUSH2 0x2348 DUP4 CODECOPY DUP2 MLOAD SWAP2 MSTORE PUSH2 0x167E DUP2 PUSH2 0x19A5 JUMP JUMPDEST PUSH3 0x15180 DUP3 LT ISZERO PUSH2 0x16C4 JUMPI PUSH1 0x40 MLOAD PUSH3 0x461BCD PUSH1 0xE5 SHL DUP2 MSTORE PUSH1 0x20 PUSH1 0x4 DUP3 ADD MSTORE PUSH1 0x10 PUSH1 0x24 DUP3 ADD MSTORE PUSH16 0x14195C9A5BD9081D1BDBC81CDA1BDC9D PUSH1 0x82 SHL PUSH1 0x44 DUP3 ADD MSTORE PUSH1 0x64 ADD PUSH2 0x97F JUMP JUMPDEST POP PUSH1 0x6 SSTORE JUMP JUMPDEST PUSH2 0x16D2 PUSH2 0x19AF JUMP JUMPDEST PUSH0 DUP2 DUP2 MSTORE PUSH1 0x9 PUSH1 0x20 MSTORE PUSH1 0x40 SWAP1 KECCAK256 PUSH1 0x2 PUSH1 0x4 DUP3 ADD SLOAD PUSH1 0xFF AND PUSH1 0x5 DUP2 GT ISZERO PUSH2 0x16FA JUMPI PUSH2 0x16FA PUSH2 0x2056 JUMP JUMPDEST EQ DUP1 PUSH2 0x171E JUMPI POP PUSH1 0x3 PUSH1 0x4 DUP3 ADD SLOAD PUSH1 0xFF AND PUSH1 0x5 DUP2 GT ISZERO PUSH2 0x171C JUMPI PUSH2 0x171C PUSH2 0x2056 JUMP JUMPDEST EQ JUMPDEST PUSH2 0x175A JUMPI PUSH1 0x40 MLOAD PUSH3 0x461BCD PUSH1 0xE5 SHL DUP2 MSTORE PUSH1 0x20 PUSH1 0x4 DUP3 ADD MSTORE PUSH1 0xD PUSH1 0x24 DUP3 ADD MSTORE PUSH13 0x10D85B9B9BDD08185C1C19585B PUSH1 0x9A SHL PUSH1 0x44 DUP3 ADD MSTORE PUSH1 0x64 ADD PUSH2 0x97F JUMP JUMPDEST PUSH1 0x6 DUP2 ADD SLOAD PUSH2 0x176C SWAP1 PUSH3 0x3F480 PUSH2 0x2271 JUMP JUMPDEST TIMESTAMP LT PUSH2 0x17B1 JUMPI PUSH1 0x40 MLOAD PUSH3 0x461BCD PUSH1 0xE5 SHL DUP2 MSTORE PUSH1 0x20 PUSH1 0x4 DUP3 ADD MSTORE PUSH1 0x14 PUSH1 0x24 DUP3 ADD MSTORE PUSH20 0x105C1C19585B081DDA5B991BDDC818DB1BDCD959 PUSH1 0x62 SHL PUSH1 0x44 DUP3 ADD MSTORE PUSH1 0x64 ADD PUSH2 0x97F JUMP JUMPDEST PUSH0 PUSH1 0x8 SLOAD DUP3 PUSH1 0x2 ADD SLOAD PUSH2 0x17C4 SWAP2 SWAP1 PUSH2 0x22D7 JUMP JUMPDEST SWAP1 POP DUP1 CALLVALUE LT ISZERO PUSH2 0x1816 JUMPI PUSH1 0x40 MLOAD PUSH3 0x461BCD PUSH1 0xE5 SHL DUP2 MSTORE PUSH1 0x20 PUSH1 0x4 DUP3 ADD MSTORE PUSH1 0x1B PUSH1 0x24 DUP3 ADD MSTORE PUSH32 0x496E73756666696369656E742061707065616C206465706F7369740000000000 PUSH1 0x44 DUP3 ADD MSTORE PUSH1 0x64 ADD PUSH2 0x97F JUMP JUMPDEST PUSH1 0x4 DUP3 DUP2 ADD DUP1 SLOAD PUSH1 0xFF NOT AND PUSH1 0x1 DUP4 MUL OR SWAP1 SSTORE POP CALLVALUE DUP3 PUSH1 0x2 ADD PUSH0 DUP3 DUP3 SLOAD PUSH2 0x183C SWAP2 SWAP1 PUSH2 0x2271 JUMP JUMPDEST SWAP1 SWAP2 SSTORE POP POP PUSH0 PUSH1 0x7 DUP4 ADD DUP2 SWAP1 SSTORE PUSH1 0x8 DUP4 ADD DUP2 SWAP1 SSTORE DUP4 DUP2 MSTORE PUSH1 0xB PUSH1 0x20 MSTORE PUSH1 0x40 DUP2 KECCAK256 PUSH2 0x1865 SWAP2 PUSH2 0x1F7E JUMP JUMPDEST PUSH1 0x40 MLOAD CALLVALUE DUP2 MSTORE CALLER SWAP1 DUP5 SWAP1 PUSH31 0x672BEDE80DED560CFBD92A0645208424B47E23B9E8E01A245DB8A0A6EB71B5 SWAP1 PUSH1 0x20 ADD PUSH1 0x40 MLOAD DUP1 SWAP2 SUB SWAP1 LOG3 PUSH1 0x5 SLOAD PUSH1 0xD SLOAD LT PUSH2 0x18AF JUMPI PUSH2 0x18AF DUP4 PUSH2 0x19D7 JUMP JUMPDEST POP POP PUSH2 0x18BB PUSH1 0x1 PUSH1 0x2 SSTORE JUMP JUMPDEST POP JUMP JUMPDEST PUSH0 DUP2 DUP2 MSTORE PUSH1 0x9 PUSH1 0x20 MSTORE PUSH1 0x40 DUP2 KECCAK256 SWAP1 PUSH1 0x4 DUP3 ADD SLOAD PUSH1 0xFF AND PUSH1 0x5 DUP2 GT ISZERO PUSH2 0x18E5 JUMPI PUSH2 0x18E5 PUSH2 0x2056 JUMP JUMPDEST EQ PUSH2 0x1920 JUMPI PUSH1 0x40 MLOAD PUSH3 0x461BCD PUSH1 0xE5 SHL DUP2 MSTORE PUSH1 0x20 PUSH1 0x4 DUP3 ADD MSTORE PUSH1 0xB PUSH1 0x24 DUP3 ADD MSTORE PUSH11 0x4E6F742070656E64696E67 PUSH1 0xA8 SHL PUSH1 0x44 DUP3 ADD MSTORE PUSH1 0x64 ADD PUSH2 0x97F JUMP JUMPDEST PUSH1 0x5 SLOAD PUSH1 0xD SLOAD LT ISZERO PUSH2 0x1974 JUMPI PUSH1 0x40 MLOAD PUSH3 0x461BCD PUSH1 0xE5 SHL DUP2 MSTORE PUSH1 0x20 PUSH1 0x4 DUP3 ADD MSTORE PUSH1 0x17 PUSH1 0x24 DUP3 ADD MSTORE PUSH32 0x496E73756666696369656E74206A75726F7220706F6F6C000000000000000000 PUSH1 0x44 DUP3 ADD MSTORE PUSH1 0x64 ADD PUSH2 0x97F JUMP JUMPDEST PUSH2 0x10C0 DUP3 PUSH2 0x19D7 JUMP JUMPDEST PUSH1 0xD DUP2 DUP2 SLOAD DUP2 LT PUSH2 0x198C JUMPI PUSH0 DUP1 REVERT JUMPDEST PUSH0 SWAP2 DUP3 MSTORE PUSH1 0x20 SWAP1 SWAP2 KECCAK256 ADD SLOAD PUSH1 0x1 PUSH1 0x1 PUSH1 0xA0 SHL SUB AND SWAP1 POP DUP2 JUMP JUMPDEST PUSH2 0x18BB DUP2 CALLER PUSH2 0x1F45 JUMP JUMPDEST PUSH1 0x2 DUP1 SLOAD SUB PUSH2 0x19D1 JUMPI PUSH1 0x40 MLOAD PUSH4 0x3EE5AEB5 PUSH1 0xE0 SHL DUP2 MSTORE PUSH1 0x4 ADD PUSH1 0x40 MLOAD DUP1 SWAP2 SUB SWAP1 REVERT JUMPDEST PUSH1 0x2 DUP1 SSTORE JUMP JUMPDEST PUSH0 DUP2 DUP2 MSTORE PUSH1 0x9 PUSH1 0x20 MSTORE PUSH1 0x40 DUP2 KECCAK256 SWAP1 PUSH2 0x19F0 PUSH1 0x1 NUMBER PUSH2 0x22EE JUMP JUMPDEST PUSH1 0x40 DUP1 MLOAD SWAP2 BLOCKHASH PUSH1 0x20 DUP4 ADD MSTORE DUP2 ADD DUP5 SWAP1 MSTORE TIMESTAMP PUSH1 0x60 DUP3 ADD MSTORE PUSH1 0x80 ADD PUSH1 0x40 MLOAD PUSH1 0x20 DUP2 DUP4 SUB SUB DUP2 MSTORE SWAP1 PUSH1 0x40 MSTORE DUP1 MLOAD SWAP1 PUSH1 0x20 ADD KECCAK256 PUSH0 SHR SWAP1 POP PUSH0 PUSH1 0x5 SLOAD PUSH8 0xFFFFFFFFFFFFFFFF DUP2 GT ISZERO PUSH2 0x1A3F JUMPI PUSH2 0x1A3F PUSH2 0x2301 JUMP JUMPDEST PUSH1 0x40 MLOAD SWAP1 DUP1 DUP3 MSTORE DUP1 PUSH1 0x20 MUL PUSH1 0x20 ADD DUP3 ADD PUSH1 0x40 MSTORE DUP1 ISZERO PUSH2 0x1A68 JUMPI DUP2 PUSH1 0x20 ADD PUSH1 0x20 DUP3 MUL DUP1 CALLDATASIZE DUP4 CALLDATACOPY ADD SWAP1 POP JUMPDEST POP SWAP1 POP PUSH0 DUP1 PUSH0 PUSH1 0xD DUP1 SLOAD SWAP1 POP PUSH1 0x3 PUSH2 0x1A80 SWAP2 SWAP1 PUSH2 0x22D7 JUMP JUMPDEST SWAP1 POP JUMPDEST PUSH1 0x5 SLOAD DUP4 LT DUP1 ISZERO PUSH2 0x1A93 JUMPI POP DUP1 DUP3 LT JUMPDEST ISZERO PUSH2 0x1B74 JUMPI PUSH1 0xD SLOAD PUSH0 SWAP1 PUSH2 0x1AA7 DUP5 DUP9 PUSH2 0x2271 JUMP JUMPDEST PUSH2 0x1AB1 SWAP2 SWAP1 PUSH2 0x22B0 JUMP JUMPDEST SWAP1 POP PUSH0 PUSH1 0xD DUP3 DUP2 SLOAD DUP2 LT PUSH2 0x1AC7 JUMPI PUSH2 0x1AC7 PUSH2 0x22C3 JUMP JUMPDEST PUSH0 SWAP2 DUP3 MSTORE PUSH1 0x20 DUP1 DUP4 KECCAK256 SWAP1 SWAP2 ADD SLOAD DUP12 DUP4 MSTORE PUSH1 0xA DUP3 MSTORE PUSH1 0x40 DUP1 DUP5 KECCAK256 PUSH1 0x1 PUSH1 0x1 PUSH1 0xA0 SHL SUB SWAP1 SWAP3 AND DUP1 DUP6 MSTORE SWAP2 SWAP1 SWAP3 MSTORE SWAP2 KECCAK256 SLOAD SWAP1 SWAP2 POP PUSH1 0xFF AND ISZERO DUP1 ISZERO PUSH2 0x1B5F JUMPI DUP2 DUP8 DUP8 DUP2 MLOAD DUP2 LT PUSH2 0x1B15 JUMPI PUSH2 0x1B15 PUSH2 0x22C3 JUMP JUMPDEST PUSH1 0x1 PUSH1 0x1 PUSH1 0xA0 SHL SUB SWAP3 DUP4 AND PUSH1 0x20 SWAP2 DUP3 MUL SWAP3 SWAP1 SWAP3 ADD DUP2 ADD SWAP2 SWAP1 SWAP2 MSTORE PUSH0 DUP13 DUP2 MSTORE PUSH1 0xA DUP3 MSTORE PUSH1 0x40 DUP1 DUP3 KECCAK256 SWAP4 DUP7 AND DUP3 MSTORE SWAP3 SWAP1 SWAP2 MSTORE KECCAK256 DUP1 SLOAD PUSH1 0xFF NOT AND PUSH1 0x1 OR SWAP1 SSTORE DUP6 PUSH2 0x1B5B DUP2 PUSH2 0x2284 JUMP JUMPDEST SWAP7 POP POP JUMPDEST DUP5 PUSH2 0x1B69 DUP2 PUSH2 0x2284 JUMP JUMPDEST SWAP6 POP POP POP POP POP PUSH2 0x1A83 JUMP JUMPDEST PUSH1 0x5 SLOAD DUP4 EQ PUSH2 0x1BC5 JUMPI PUSH1 0x40 MLOAD PUSH3 0x461BCD PUSH1 0xE5 SHL DUP2 MSTORE PUSH1 0x20 PUSH1 0x4 DUP3 ADD MSTORE PUSH1 0x1E PUSH1 0x24 DUP3 ADD MSTORE PUSH32 0x436F756C64206E6F742073656C65637420656E6F756768206A75726F72730000 PUSH1 0x44 DUP3 ADD MSTORE PUSH1 0x64 ADD PUSH2 0x97F JUMP JUMPDEST PUSH0 JUMPDEST PUSH1 0x5 SLOAD DUP2 LT ISZERO PUSH2 0x1C36 JUMPI PUSH0 DUP9 DUP2 MSTORE PUSH1 0xB PUSH1 0x20 MSTORE PUSH1 0x40 SWAP1 KECCAK256 DUP6 MLOAD DUP7 SWAP1 DUP4 SWAP1 DUP2 LT PUSH2 0x1BF2 JUMPI PUSH2 0x1BF2 PUSH2 0x22C3 JUMP JUMPDEST PUSH1 0x20 SWAP1 DUP2 MUL SWAP2 SWAP1 SWAP2 ADD DUP2 ADD MLOAD DUP3 SLOAD PUSH1 0x1 DUP1 DUP3 ADD DUP6 SSTORE PUSH0 SWAP5 DUP6 MSTORE SWAP3 SWAP1 SWAP4 KECCAK256 SWAP1 SWAP3 ADD DUP1 SLOAD PUSH1 0x1 PUSH1 0x1 PUSH1 0xA0 SHL SUB NOT AND PUSH1 0x1 PUSH1 0x1 PUSH1 0xA0 SHL SUB SWAP1 SWAP4 AND SWAP3 SWAP1 SWAP3 OR SWAP1 SWAP2 SSTORE ADD PUSH2 0x1BC7 JUMP JUMPDEST POP PUSH1 0x4 DUP7 ADD DUP1 SLOAD PUSH1 0xFF NOT AND PUSH1 0x1 OR SWAP1 SSTORE PUSH1 0x6 SLOAD PUSH2 0x1C53 SWAP1 TIMESTAMP PUSH2 0x2271 JUMP JUMPDEST PUSH1 0x6 DUP8 ADD SSTORE PUSH1 0x40 MLOAD DUP8 SWAP1 PUSH32 0x7988F9809CAF69010681BE5043108ECF62AB23C65ACA9CA4662AA11980BD5F17 SWAP1 PUSH2 0x1C8A SWAP1 DUP8 SWAP1 PUSH2 0x20FC JUMP JUMPDEST PUSH1 0x40 MLOAD DUP1 SWAP2 SUB SWAP1 LOG2 POP POP POP POP POP POP POP JUMP JUMPDEST PUSH0 PUSH2 0x1CA6 DUP4 DUP4 PUSH2 0xDCD JUMP JUMPDEST PUSH2 0x1D23 JUMPI PUSH0 DUP4 DUP2 MSTORE PUSH1 0x20 DUP2 DUP2 MSTORE PUSH1 0x40 DUP1 DUP4 KECCAK256 PUSH1 0x1 PUSH1 0x1 PUSH1 0xA0 SHL SUB DUP7 AND DUP5 MSTORE SWAP1 SWAP2 MSTORE SWAP1 KECCAK256 DUP1 SLOAD PUSH1 0xFF NOT AND PUSH1 0x1 OR SWAP1 SSTORE PUSH2 0x1CDB CALLER SWAP1 JUMP JUMPDEST PUSH1 0x1 PUSH1 0x1 PUSH1 0xA0 SHL SUB AND DUP3 PUSH1 0x1 PUSH1 0x1 PUSH1 0xA0 SHL SUB AND DUP5 PUSH32 0x2F8788117E7EFF1D82E926EC794901D17C78024A50270940304540A733656F0D PUSH1 0x40 MLOAD PUSH1 0x40 MLOAD DUP1 SWAP2 SUB SWAP1 LOG4 POP PUSH1 0x1 PUSH2 0x8CE JUMP JUMPDEST POP PUSH0 PUSH2 0x8CE JUMP JUMPDEST PUSH0 PUSH2 0x1D35 DUP4 DUP4 PUSH2 0xDCD JUMP JUMPDEST ISZERO PUSH2 0x1D23 JUMPI PUSH0 DUP4 DUP2 MSTORE PUSH1 0x20 DUP2 DUP2 MSTORE PUSH1 0x40 DUP1 DUP4 KECCAK256 PUSH1 0x1 PUSH1 0x1 PUSH1 0xA0 SHL SUB DUP7 AND DUP1 DUP6 MSTORE SWAP3 MSTORE DUP1 DUP4 KECCAK256 DUP1 SLOAD PUSH1 0xFF NOT AND SWAP1 SSTORE MLOAD CALLER SWAP3 DUP7 SWAP2 PUSH32 0xF6391F5C32D9C69D2A47EA670B442974B53935D1EDC7FD64EB21E047A839171B SWAP2 SWAP1 LOG4 POP PUSH1 0x1 PUSH2 0x8CE JUMP JUMPDEST PUSH0 DUP2 DUP2 MSTORE PUSH1 0x9 PUSH1 0x20 MSTORE PUSH1 0x40 DUP2 KECCAK256 PUSH1 0x7 DUP1 SLOAD SWAP1 DUP3 ADD SLOAD SWAP2 SWAP3 SWAP2 PUSH2 0x2710 SWAP2 PUSH2 0x1DB8 SWAP2 PUSH2 0x22D7 JUMP JUMPDEST PUSH2 0x1DC2 SWAP2 SWAP1 PUSH2 0x2315 JUMP JUMPDEST SWAP1 POP PUSH0 PUSH2 0x2710 PUSH1 0x7 SLOAD DUP5 PUSH1 0x7 ADD SLOAD PUSH2 0x1DDA SWAP2 SWAP1 PUSH2 0x22D7 JUMP JUMPDEST PUSH2 0x1DE4 SWAP2 SWAP1 PUSH2 0x2315 JUMP JUMPDEST SWAP1 POP DUP2 DUP4 PUSH1 0x8 ADD SLOAD LT PUSH2 0x1E05 JUMPI PUSH1 0x4 DUP4 ADD DUP1 SLOAD PUSH1 0xFF NOT AND PUSH1 0x2 OR SWAP1 SSTORE PUSH2 0x1EED JUMP JUMPDEST DUP1 DUP4 PUSH1 0x8 ADD SLOAD DUP5 PUSH1 0x7 ADD SLOAD PUSH2 0x1E1A SWAP2 SWAP1 PUSH2 0x22EE JUMP JUMPDEST LT PUSH2 0x1E93 JUMPI PUSH1 0x4 DUP4 ADD DUP1 SLOAD PUSH1 0xFF NOT AND PUSH1 0x3 OR SWAP1 SSTORE PUSH1 0x2 DUP4 ADD SLOAD PUSH0 SWAP1 PUSH2 0x1E41 SWAP1 PUSH1 0xA SWAP1 PUSH2 0x2315 JUMP JUMPDEST PUSH1 0x1 DUP6 ADD SLOAD PUSH1 0x2 DUP7 ADD SLOAD SWAP2 SWAP3 POP PUSH1 0x1 PUSH1 0x1 PUSH1 0xA0 SHL SUB AND SWAP1 PUSH2 0x8FC SWAP1 PUSH2 0x1E67 SWAP1 DUP5 SWAP1 PUSH2 0x22EE JUMP JUMPDEST PUSH1 0x40 MLOAD DUP2 ISZERO SWAP1 SWAP3 MUL SWAP2 PUSH0 DUP2 DUP2 DUP2 DUP6 DUP9 DUP9 CALL SWAP4 POP POP POP POP ISZERO DUP1 ISZERO PUSH2 0x1E8C JUMPI RETURNDATASIZE PUSH0 DUP1 RETURNDATACOPY RETURNDATASIZE PUSH0 REVERT JUMPDEST POP POP PUSH2 0x1EED JUMP JUMPDEST PUSH1 0x4 DUP4 ADD DUP1 SLOAD PUSH1 0xFF NOT AND PUSH1 0x5 OR SWAP1 SSTORE PUSH1 0x1 DUP4 ADD SLOAD PUSH1 0x2 DUP1 DUP6 ADD SLOAD PUSH1 0x1 PUSH1 0x1 PUSH1 0xA0 SHL SUB SWAP1 SWAP3 AND SWAP2 PUSH2 0x8FC SWAP2 PUSH2 0x1EC6 SWAP2 PUSH2 0x2315 JUMP JUMPDEST PUSH1 0x40 MLOAD DUP2 ISZERO SWAP1 SWAP3 MUL SWAP2 PUSH0 DUP2 DUP2 DUP2 DUP6 DUP9 DUP9 CALL SWAP4 POP POP POP POP ISZERO DUP1 ISZERO PUSH2 0x1EEB JUMPI RETURNDATASIZE PUSH0 DUP1 RETURNDATACOPY RETURNDATASIZE PUSH0 REVERT JUMPDEST POP JUMPDEST DUP3 SLOAD PUSH1 0x4 DUP5 ADD SLOAD PUSH1 0x8 DUP6 ADD SLOAD PUSH1 0x7 DUP7 ADD SLOAD PUSH1 0x40 MLOAD DUP9 SWAP4 PUSH32 0x433AA6E48164DF010794E86A1FB8BB3F17F33365871FA621E9FD0DCB5200ABA1 SWAP4 PUSH2 0x1F37 SWAP4 PUSH1 0xFF SWAP1 SWAP3 AND SWAP3 SWAP1 SWAP2 SWAP1 PUSH2 0x2328 JUMP JUMPDEST PUSH1 0x40 MLOAD DUP1 SWAP2 SUB SWAP1 LOG3 POP POP POP POP JUMP JUMPDEST PUSH2 0x1F4F DUP3 DUP3 PUSH2 0xDCD JUMP JUMPDEST PUSH2 0x10C0 JUMPI PUSH1 0x40 MLOAD PUSH4 0xE2517D3F PUSH1 0xE0 SHL DUP2 MSTORE PUSH1 0x1 PUSH1 0x1 PUSH1 0xA0 SHL SUB DUP3 AND PUSH1 0x4 DUP3 ADD MSTORE PUSH1 0x24 DUP2 ADD DUP4 SWAP1 MSTORE PUSH1 0x44 ADD PUSH2 0x97F JUMP JUMPDEST POP DUP1 SLOAD PUSH0 DUP3 SSTORE SWAP1 PUSH0 MSTORE PUSH1 0x20 PUSH0 KECCAK256 SWAP1 DUP2 ADD SWAP1 PUSH2 0x18BB SWAP2 SWAP1 JUMPDEST DUP1 DUP3 GT ISZERO PUSH2 0x1FA8 JUMPI PUSH0 DUP2 SSTORE PUSH1 0x1 ADD PUSH2 0x1F95 JUMP JUMPDEST POP SWAP1 JUMP JUMPDEST PUSH0 PUSH1 0x20 DUP3 DUP5 SUB SLT ISZERO PUSH2 0x1FBC JUMPI PUSH0 DUP1 REVERT JUMPDEST DUP2 CALLDATALOAD PUSH1 0x1 PUSH1 0x1 PUSH1 0xE0 SHL SUB NOT DUP2 AND DUP2 EQ PUSH2 0x1FD3 JUMPI PUSH0 DUP1 REVERT JUMPDEST SWAP4 SWAP3 POP POP POP JUMP JUMPDEST PUSH0 DUP1 PUSH1 0x40 DUP4 DUP6 SUB SLT ISZERO PUSH2 0x1FEB JUMPI PUSH0 DUP1 REVERT JUMPDEST POP POP DUP1 CALLDATALOAD SWAP3 PUSH1 0x20 SWAP1 SWAP2 ADD CALLDATALOAD SWAP2 POP JUMP JUMPDEST DUP1 CALLDATALOAD PUSH1 0x1 PUSH1 0x1 PUSH1 0xA0 SHL SUB DUP2 AND DUP2 EQ PUSH2 0x2010 JUMPI PUSH0 DUP1 REVERT JUMPDEST SWAP2 SWAP1 POP JUMP JUMPDEST PUSH0 DUP1 PUSH1 0x40 DUP4 DUP6 SUB SLT ISZERO PUSH2 0x2026 JUMPI PUSH0 DUP1 REVERT JUMPDEST DUP3 CALLDATALOAD SWAP2 POP PUSH2 0x2036 PUSH1 0x20 DUP5 ADD PUSH2 0x1FFA JUMP JUMPDEST SWAP1 POP SWAP3 POP SWAP3 SWAP1 POP JUMP JUMPDEST PUSH0 PUSH1 0x20 DUP3 DUP5 SUB SLT ISZERO PUSH2 0x204F JUMPI PUSH0 DUP1 REVERT JUMPDEST POP CALLDATALOAD SWAP2 SWAP1 POP JUMP JUMPDEST PUSH4 0x4E487B71 PUSH1 0xE0 SHL PUSH0 MSTORE PUSH1 0x21 PUSH1 0x4 MSTORE PUSH1 0x24 PUSH0 REVERT JUMPDEST PUSH1 0x6 DUP2 LT PUSH2 0x2086 JUMPI PUSH4 0x4E487B71 PUSH1 0xE0 SHL PUSH0 MSTORE PUSH1 0x21 PUSH1 0x4 MSTORE PUSH1 0x24 PUSH0 REVERT JUMPDEST SWAP1 MSTORE JUMP JUMPDEST DUP10 DUP2 MSTORE PUSH1 0x1 PUSH1 0x1 PUSH1 0xA0 SHL SUB DUP10 AND PUSH1 0x20 DUP3 ADD MSTORE PUSH1 0x40 DUP2 ADD DUP9 SWAP1 MSTORE PUSH1 0x60 DUP2 ADD DUP8 SWAP1 MSTORE PUSH2 0x120 DUP2 ADD PUSH2 0x20BC PUSH1 0x80 DUP4 ADD DUP9 PUSH2 0x206A JUMP JUMPDEST DUP6 PUSH1 0xA0 DUP4 ADD MSTORE DUP5 PUSH1 0xC0 DUP4 ADD MSTORE DUP4 PUSH1 0xE0 DUP4 ADD MSTORE DUP3 PUSH2 0x100 DUP4 ADD MSTORE SWAP11 SWAP10 POP POP POP POP POP POP POP POP POP POP JUMP JUMPDEST PUSH0 PUSH1 0x20 DUP3 DUP5 SUB SLT ISZERO PUSH2 0x20F3 JUMPI PUSH0 DUP1 REVERT JUMPDEST PUSH2 0x1FD3 DUP3 PUSH2 0x1FFA JUMP JUMPDEST PUSH1 0x20 DUP1 DUP3 MSTORE DUP3 MLOAD DUP3 DUP3 ADD DUP2 SWAP1 MSTORE PUSH0 SWAP2 SWAP1 DUP5 DUP3 ADD SWAP1 PUSH1 0x40 DUP6 ADD SWAP1 DUP5 JUMPDEST DUP2 DUP2 LT ISZERO PUSH2 0x213C JUMPI DUP4 MLOAD PUSH1 0x1 PUSH1 0x1 PUSH1 0xA0 SHL SUB AND DUP4 MSTORE SWAP3 DUP5 ADD SWAP3 SWAP2 DUP5 ADD SWAP2 PUSH1 0x1 ADD PUSH2 0x2117 JUMP JUMPDEST POP SWAP1 SWAP7 SWAP6 POP POP POP POP POP POP JUMP JUMPDEST PUSH0 DUP1 PUSH1 0x40 DUP4 DUP6 SUB SLT ISZERO PUSH2 0x2159 JUMPI PUSH0 DUP1 REVERT JUMPDEST DUP3 CALLDATALOAD SWAP2 POP PUSH1 0x20 DUP4 ADD CALLDATALOAD DUP1 ISZERO ISZERO DUP2 EQ PUSH2 0x216F JUMPI PUSH0 DUP1 REVERT JUMPDEST DUP1 SWAP2 POP POP SWAP3 POP SWAP3 SWAP1 POP JUMP JUMPDEST DUP2 MLOAD DUP2 MSTORE PUSH1 0x20 DUP1 DUP4 ADD MLOAD PUSH1 0x1 PUSH1 0x1 PUSH1 0xA0 SHL SUB AND SWAP1 DUP3 ADD MSTORE PUSH1 0x40 DUP1 DUP4 ADD MLOAD SWAP1 DUP3 ADD MSTORE PUSH1 0x60 DUP1 DUP4 ADD MLOAD SWAP1 DUP3 ADD MSTORE PUSH1 0x80 DUP1 DUP4 ADD MLOAD PUSH2 0x120 DUP4 ADD SWAP2 PUSH2 0x21BD SWAP1 DUP5 ADD DUP3 PUSH2 0x206A JUMP JUMPDEST POP PUSH1 0xA0 DUP4 ADD MLOAD PUSH1 0xA0 DUP4 ADD MSTORE PUSH1 0xC0 DUP4 ADD MLOAD PUSH1 0xC0 DUP4 ADD MSTORE PUSH1 0xE0 DUP4 ADD MLOAD PUSH1 0xE0 DUP4 ADD MSTORE PUSH2 0x100 DUP1 DUP5 ADD MLOAD DUP2 DUP5 ADD MSTORE POP SWAP3 SWAP2 POP POP JUMP JUMPDEST PUSH0 DUP1 PUSH1 0x20 DUP4 DUP6 SUB SLT ISZERO PUSH2 0x21FF JUMPI PUSH0 DUP1 REVERT JUMPDEST DUP3 CALLDATALOAD PUSH8 0xFFFFFFFFFFFFFFFF DUP1 DUP3 GT ISZERO PUSH2 0x2216 JUMPI PUSH0 DUP1 REVERT JUMPDEST DUP2 DUP6 ADD SWAP2 POP DUP6 PUSH1 0x1F DUP4 ADD SLT PUSH2 0x2229 JUMPI PUSH0 DUP1 REVERT JUMPDEST DUP2 CALLDATALOAD DUP2 DUP2 GT ISZERO PUSH2 0x2237 JUMPI PUSH0 DUP1 REVERT JUMPDEST DUP7 PUSH1 0x20 DUP3 PUSH1 0x5 SHL DUP6 ADD ADD GT ISZERO PUSH2 0x224B JUMPI PUSH0 DUP1 REVERT JUMPDEST PUSH1 0x20 SWAP3 SWAP1 SWAP3 ADD SWAP7 SWAP2 SWAP6 POP SWAP1 SWAP4 POP POP POP POP JUMP JUMPDEST PUSH4 0x4E487B71 PUSH1 0xE0 SHL PUSH0 MSTORE PUSH1 0x11 PUSH1 0x4 MSTORE PUSH1 0x24 PUSH0 REVERT JUMPDEST DUP1 DUP3 ADD DUP1 DUP3 GT ISZERO PUSH2 0x8CE JUMPI PUSH2 0x8CE PUSH2 0x225D JUMP JUMPDEST PUSH0 PUSH1 0x1 DUP3 ADD PUSH2 0x2295 JUMPI PUSH2 0x2295 PUSH2 0x225D JUMP JUMPDEST POP PUSH1 0x1 ADD SWAP1 JUMP JUMPDEST PUSH4 0x4E487B71 PUSH1 0xE0 SHL PUSH0 MSTORE PUSH1 0x12 PUSH1 0x4 MSTORE PUSH1 0x24 PUSH0 REVERT JUMPDEST PUSH0 DUP3 PUSH2 0x22BE JUMPI PUSH2 0x22BE PUSH2 0x229C JUMP JUMPDEST POP MOD SWAP1 JUMP JUMPDEST PUSH4 0x4E487B71 PUSH1 0xE0 SHL PUSH0 MSTORE PUSH1 0x32 PUSH1 0x4 MSTORE PUSH1 0x24 PUSH0 REVERT JUMPDEST DUP1 DUP3 MUL DUP2 ISZERO DUP3 DUP3 DIV DUP5 EQ OR PUSH2 0x8CE JUMPI PUSH2 0x8CE PUSH2 0x225D JUMP JUMPDEST DUP2 DUP2 SUB DUP2 DUP2 GT ISZERO PUSH2 0x8CE JUMPI PUSH2 0x8CE PUSH2 0x225D JUMP JUMPDEST PUSH4 0x4E487B71 PUSH1 0xE0 SHL PUSH0 MSTORE PUSH1 0x41 PUSH1 0x4 MSTORE PUSH1 0x24 PUSH0 REVERT JUMPDEST PUSH0 DUP3 PUSH2 0x2323 JUMPI PUSH2 0x2323 PUSH2 0x229C JUMP JUMPDEST POP DIV SWAP1 JUMP JUMPDEST PUSH1 0x60 DUP2 ADD PUSH2 0x2336 DUP3 DUP7 PUSH2 0x206A JUMP JUMPDEST PUSH1 0x20 DUP3 ADD SWAP4 SWAP1 SWAP4 MSTORE PUSH1 0x40 ADD MSTORE SWAP2 SWAP1 POP JUMP INVALID LOG4 SWAP9 SMOD KECCAK256 TLOAD 0xE4 0xD3 SSTORE MULMOD 0x2E CREATE2 0xA8 LOG1 DUP16 JUMP 0xE8 SWAP2 EXTCODECOPY DELEGATECALL LOG2 ADD 0xFB 0xE2 DUP8 DUP3 JUMPDEST MULMOD JUMP SWAP4 0xC2 OR PUSH22 0xA264697066735822122029EB474FA1E9AA7502F34E0A PUSH28 0x586101728865120C6F8016EFCD642CA74AA32764736F6C6343000818 STOP CALLER "},"methodIdentifiers":{"ADMIN_ROLE()":"75b238fc","DEFAULT_ADMIN_ROLE()":"a217fddf","MAX_PAUSE_DURATION()":"2799657d","PAUSER_ROLE()":"e63ab1e9","activeFlag(bytes32)":"f57809e6","addToJurorPool(address)":"bc6675f9","appeal(bytes32)":"ece1de44","appealMultiplier()":"128203c6","batchAddToJurorPool(address[])":"e785ef0e","executeSlash(bytes32)":"b850cdf7","finalizeVerdict(bytes32)":"d15c11c8","flagResource(bytes32,bytes32)":"1e44b1a7","flags(bytes32)":"24d0b041","getFlag(bytes32)":"e4a3d784","getJurorPoolSize()":"62aaa876","getJury(bytes32)":"46b3c3c3","getRoleAdmin(bytes32)":"248a9ca3","grantRole(bytes32,address)":"2f2ff15d","hasRole(bytes32,address)":"91d14854","hasVoted(bytes32,address)":"aadc3b72","isInJurorPool(address)":"2eecb0c8","isJuror(bytes32,address)":"51af8a22","jurorPool(uint256)":"f643d3d7","jurors(bytes32,address)":"0a2653d1","juryList(bytes32,uint256)":"05b9a25f","jurySize()":"536c8c15","minFlagDeposit()":"eb80b2ef","pause(uint256)":"136439dd","paused()":"5c975abb","pausedUntil()":"da748b10","renounceRole(bytes32,address)":"36568abe","revokeRole(bytes32,address)":"d547741f","selectJury(bytes32)":"f4732d05","setJurySize(uint256)":"b8fad24e","setMinFlagDeposit(uint256)":"b7050920","setStakingContract(address)":"9dd373b9","setVotingPeriod(uint256)":"ea0217cf","stakingContract()":"ee99205c","supermajorityBps()":"5eef3da2","supportsInterface(bytes4)":"01ffc9a7","unpause()":"3f4ba83a","vote(bytes32,bool)":"9f2ce678","votingPeriod()":"02a251a3"}}}}}