{"contracts/ISNADStaking.sol":{"ISNADStaking":{"abi":[{"inputs":[{"internalType":"address","name":"_token","type":"address"},{"internalType":"address","name":"admin","type":"address"}],"stateMutability":"nonpayable","type":"constructor"},{"inputs":[],"name":"AccessControlBadConfirmation","type":"error"},{"inputs":[{"internalType":"address","name":"account","type":"address"},{"internalType":"bytes32","name":"neededRole","type":"bytes32"}],"name":"AccessControlUnauthorizedAccount","type":"error"},{"inputs":[],"name":"ReentrancyGuardReentrantCall","type":"error"},{"inputs":[{"internalType":"address","name":"token","type":"address"}],"name":"SafeERC20FailedOperation","type":"error"},{"anonymous":false,"inputs":[{"indexed":true,"internalType":"address","name":"account","type":"address"},{"indexed":false,"internalType":"uint256","name":"until","type":"uint256"}],"name":"Paused","type":"event"},{"anonymous":false,"inputs":[{"indexed":true,"internalType":"bytes32","name":"role","type":"bytes32"},{"indexed":true,"internalType":"bytes32","name":"previousAdminRole","type":"bytes32"},{"indexed":true,"internalType":"bytes32","name":"newAdminRole","type":"bytes32"}],"name":"RoleAdminChanged","type":"event"},{"anonymous":false,"inputs":[{"indexed":true,"internalType":"bytes32","name":"role","type":"bytes32"},{"indexed":true,"internalType":"address","name":"account","type":"address"},{"indexed":true,"internalType":"address","name":"sender","type":"address"}],"name":"RoleGranted","type":"event"},{"anonymous":false,"inputs":[{"indexed":true,"internalType":"bytes32","name":"role","type":"bytes32"},{"indexed":true,"internalType":"address","name":"account","type":"address"},{"indexed":true,"internalType":"address","name":"sender","type":"address"}],"name":"RoleRevoked","type":"event"},{"anonymous":false,"inputs":[{"indexed":true,"internalType":"bytes32","name":"attestationId","type":"bytes32"},{"indexed":true,"internalType":"address","name":"auditor","type":"address"},{"indexed":true,"internalType":"bytes32","name":"resourceHash","type":"bytes32"},{"indexed":false,"internalType":"uint256","name":"amount","type":"uint256"}],"name":"Slashed","type":"event"},{"anonymous":false,"inputs":[{"indexed":true,"internalType":"bytes32","name":"attestationId","type":"bytes32"},{"indexed":true,"internalType":"address","name":"auditor","type":"address"},{"indexed":true,"internalType":"bytes32","name":"resourceHash","type":"bytes32"},{"indexed":false,"internalType":"uint256","name":"amount","type":"uint256"},{"indexed":false,"internalType":"uint256","name":"lockUntil","type":"uint256"},{"indexed":false,"internalType":"uint256","name":"lockDuration","type":"uint256"}],"name":"Staked","type":"event"},{"anonymous":false,"inputs":[{"indexed":true,"internalType":"address","name":"account","type":"address"}],"name":"Unpaused","type":"event"},{"anonymous":false,"inputs":[{"indexed":true,"internalType":"bytes32","name":"attestationId","type":"bytes32"},{"indexed":true,"internalType":"address","name":"auditor","type":"address"},{"indexed":false,"internalType":"uint256","name":"amount","type":"uint256"}],"name":"Unstaked","type":"event"},{"inputs":[],"name":"DEFAULT_ADMIN_ROLE","outputs":[{"internalType":"bytes32","name":"","type":"bytes32"}],"stateMutability":"view","type":"function"},{"inputs":[],"name":"MAX_LOCK_DURATION","outputs":[{"internalType":"uint256","name":"","type":"uint256"}],"stateMutability":"view","type":"function"},{"inputs":[],"name":"MAX_PAUSE_DURATION","outputs":[{"internalType":"uint256","name":"","type":"uint256"}],"stateMutability":"view","type":"function"},{"inputs":[],"name":"MAX_STAKE_PERCENT","outputs":[{"internalType":"uint256","name":"","type":"uint256"}],"stateMutability":"view","type":"function"},{"inputs":[],"name":"MAX_STAKE_PER_AUDITOR","outputs":[{"internalType":"uint256","name":"","type":"uint256"}],"stateMutability":"view","type":"function"},{"inputs":[],"name":"MEDIUM_LOCK_DURATION","outputs":[{"internalType":"uint256","name":"","type":"uint256"}],"stateMutability":"view","type":"function"},{"inputs":[],"name":"MIN_LOCK_DURATION","outputs":[{"internalType":"uint256","name":"","type":"uint256"}],"stateMutability":"view","type":"function"},{"inputs":[],"name":"ORACLE_ROLE","outputs":[{"internalType":"bytes32","name":"","type":"bytes32"}],"stateMutability":"view","type":"function"},{"inputs":[],"name":"PAUSER_ROLE","outputs":[{"internalType":"bytes32","name":"","type":"bytes32"}],"stateMutability":"view","type":"function"},{"inputs":[],"name":"TIER_1_THRESHOLD","outputs":[{"internalType":"uint256","name":"","type":"uint256"}],"stateMutability":"view","type":"function"},{"inputs":[],"name":"TIER_2_THRESHOLD","outputs":[{"internalType":"uint256","name":"","type":"uint256"}],"stateMutability":"view","type":"function"},{"inputs":[],"name":"TIER_3_THRESHOLD","outputs":[{"internalType":"uint256","name":"","type":"uint256"}],"stateMutability":"view","type":"function"},{"inputs":[{"internalType":"bytes32","name":"","type":"bytes32"}],"name":"attestations","outputs":[{"internalType":"address","name":"auditor","type":"address"},{"internalType":"bytes32","name":"resourceHash","type":"bytes32"},{"internalType":"uint256","name":"amount","type":"uint256"},{"internalType":"uint256","name":"lockUntil","type":"uint256"},{"internalType":"uint256","name":"lockDuration","type":"uint256"},{"internalType":"bool","name":"slashed","type":"bool"}],"stateMutability":"view","type":"function"},{"inputs":[{"internalType":"address","name":"","type":"address"},{"internalType":"uint256","name":"","type":"uint256"}],"name":"auditorAttestations","outputs":[{"internalType":"bytes32","name":"","type":"bytes32"}],"stateMutability":"view","type":"function"},{"inputs":[{"internalType":"address","name":"","type":"address"},{"internalType":"bytes32","name":"","type":"bytes32"}],"name":"auditorResourceStake","outputs":[{"internalType":"uint256","name":"","type":"uint256"}],"stateMutability":"view","type":"function"},{"inputs":[{"internalType":"address","name":"","type":"address"}],"name":"auditorTotalStake","outputs":[{"internalType":"uint256","name":"","type":"uint256"}],"stateMutability":"view","type":"function"},{"inputs":[{"internalType":"bytes32","name":"attestationId","type":"bytes32"}],"name":"getAttestation","outputs":[{"internalType":"address","name":"auditor","type":"address"},{"internalType":"bytes32","name":"resourceHash","type":"bytes32"},{"internalType":"uint256","name":"amount","type":"uint256"},{"internalType":"uint256","name":"lockUntil","type":"uint256"},{"internalType":"uint256","name":"lockDuration","type":"uint256"},{"internalType":"bool","name":"slashed","type":"bool"}],"stateMutability":"view","type":"function"},{"inputs":[{"internalType":"address","name":"auditor","type":"address"}],"name":"getAuditorAttestations","outputs":[{"internalType":"bytes32[]","name":"","type":"bytes32[]"}],"stateMutability":"view","type":"function"},{"inputs":[{"internalType":"bytes32","name":"resourceHash","type":"bytes32"}],"name":"getResourceAttestations","outputs":[{"internalType":"bytes32[]","name":"","type":"bytes32[]"}],"stateMutability":"view","type":"function"},{"inputs":[{"internalType":"bytes32","name":"role","type":"bytes32"}],"name":"getRoleAdmin","outputs":[{"internalType":"bytes32","name":"","type":"bytes32"}],"stateMutability":"view","type":"function"},{"inputs":[{"internalType":"bytes32","name":"resourceHash","type":"bytes32"}],"name":"getTrustScore","outputs":[{"internalType":"uint256","name":"score","type":"uint256"}],"stateMutability":"view","type":"function"},{"inputs":[{"internalType":"bytes32","name":"resourceHash","type":"bytes32"}],"name":"getTrustTier","outputs":[{"internalType":"uint8","name":"tier","type":"uint8"}],"stateMutability":"view","type":"function"},{"inputs":[{"internalType":"bytes32","name":"role","type":"bytes32"},{"internalType":"address","name":"account","type":"address"}],"name":"grantRole","outputs":[],"stateMutability":"nonpayable","type":"function"},{"inputs":[{"internalType":"bytes32","name":"role","type":"bytes32"},{"internalType":"address","name":"account","type":"address"}],"name":"hasRole","outputs":[{"internalType":"bool","name":"","type":"bool"}],"stateMutability":"view","type":"function"},{"inputs":[{"internalType":"uint256","name":"duration","type":"uint256"}],"name":"pause","outputs":[],"stateMutability":"nonpayable","type":"function"},{"inputs":[],"name":"paused","outputs":[{"internalType":"bool","name":"","type":"bool"}],"stateMutability":"view","type":"function"},{"inputs":[],"name":"pausedUntil","outputs":[{"internalType":"uint256","name":"","type":"uint256"}],"stateMutability":"view","type":"function"},{"inputs":[{"internalType":"bytes32","name":"role","type":"bytes32"},{"internalType":"address","name":"callerConfirmation","type":"address"}],"name":"renounceRole","outputs":[],"stateMutability":"nonpayable","type":"function"},{"inputs":[{"internalType":"bytes32","name":"","type":"bytes32"},{"internalType":"uint256","name":"","type":"uint256"}],"name":"resourceAttestations","outputs":[{"internalType":"bytes32","name":"","type":"bytes32"}],"stateMutability":"view","type":"function"},{"inputs":[{"internalType":"bytes32","name":"","type":"bytes32"}],"name":"resourceTotalStake","outputs":[{"internalType":"uint256","name":"","type":"uint256"}],"stateMutability":"view","type":"function"},{"inputs":[{"internalType":"bytes32","name":"role","type":"bytes32"},{"internalType":"address","name":"account","type":"address"}],"name":"revokeRole","outputs":[],"stateMutability":"nonpayable","type":"function"},{"inputs":[{"internalType":"bytes32","name":"attestationId","type":"bytes32"}],"name":"slash","outputs":[],"stateMutability":"nonpayable","type":"function"},{"inputs":[{"internalType":"bytes32","name":"resourceHash","type":"bytes32"},{"internalType":"uint256","name":"amount","type":"uint256"},{"internalType":"uint256","name":"lockDuration","type":"uint256"}],"name":"stake","outputs":[{"internalType":"bytes32","name":"attestationId","type":"bytes32"}],"stateMutability":"nonpayable","type":"function"},{"inputs":[{"internalType":"bytes4","name":"interfaceId","type":"bytes4"}],"name":"supportsInterface","outputs":[{"internalType":"bool","name":"","type":"bool"}],"stateMutability":"view","type":"function"},{"inputs":[],"name":"token","outputs":[{"internalType":"contract IERC20","name":"","type":"address"}],"stateMutability":"view","type":"function"},{"inputs":[],"name":"totalStaked","outputs":[{"internalType":"uint256","name":"","type":"uint256"}],"stateMutability":"view","type":"function"},{"inputs":[],"name":"unpause","outputs":[],"stateMutability":"nonpayable","type":"function"},{"inputs":[{"internalType":"bytes32","name":"attestationId","type":"bytes32"}],"name":"unstake","outputs":[],"stateMutability":"nonpayable","type":"function"}],"evm":{"bytecode":{"linkReferences":{},"object":"60a060405234801562000010575f80fd5b5060405162001c8738038062001c878339810160408190526200003391620001ea565b60015f556001600160a01b038216620000935760405162461bcd60e51b815260206004820152601560248201527f496e76616c696420746f6b656e2061646472657373000000000000000000000060448201526064015b60405180910390fd5b6001600160a01b038116620000eb5760405162461bcd60e51b815260206004820152601560248201527f496e76616c69642061646d696e2061646472657373000000000000000000000060448201526064016200008a565b6001600160a01b038216608052620001045f826200013a565b50620001317f65d7a28e3265b37a6474929f336521b332c1681b933f6cb9f3376673440d862a826200013a565b50505062000220565b5f8281526001602090815260408083206001600160a01b038516845290915281205460ff16620001c5575f8381526001602081815260408084206001600160a01b0387168086529252808420805460ff19169093179092559051339286917f2f8788117e7eff1d82e926ec794901d17c78024a50270940304540a733656f0d9190a4506001620001c8565b505f5b92915050565b80516001600160a01b0381168114620001e5575f80fd5b919050565b5f8060408385031215620001fc575f80fd5b6200020783620001ce565b91506200021760208401620001ce565b90509250929050565b608051611a396200024e5f395f81816105b901528181610c5101528181610fcf01526114080152611a395ff3fe608060405234801561000f575f80fd5b5060043610610228575f3560e01c806378b4330f1161012a578063cd1f6206116100b4578063ef2f90cf11610079578063ef2f90cf14610572578063f415ed1414610582578063f4f2d03414610595578063fc0c546a146105b4578063fc879cd4146105f3575f80fd5b8063cd1f6206146104fd578063d547741f14610505578063da748b1014610518578063dc9ad57e14610521578063e63ab1e91461054b575f80fd5b8063940992a3116100fa578063940992a3146103f4578063a217fddf1461047f578063a2cb50ad14610486578063a3112a6414610499578063cb9ea337146104ed575f80fd5b806378b4330f14610304578063817b1cd2146103b35780638e7d8d18146103bc57806391d14854146103e1575f80fd5b80632daedd52116101b65780634f1bfc9e1161017b5780634f1bfc9e146103795780635b79872c1461022c5780635c975abb146103835780636fa8a7a71461038d57806371ed5d1a146103a0575f80fd5b80632daedd521461032e5780632f2ff15d1461034157806336568abe146103545780633f4ba83a14610367578063463e58081461036f575f80fd5b8063136439dd116101fc578063136439dd146102b9578063228a5ab0146102ce578063248a9ca3146102e15780632799657d1461030457806327f8e0e91461030e575f80fd5b8062bb6e921461022c57806301ffc9a71461025057806307e2cea514610273578063122ca5061461029a575b5f80fd5b61023d69021e19e0c9bab240000081565b6040519081526020015b60405180910390f35b61026361025e3660046117ec565b610606565b6040519015158152602001610247565b61023d7f68e79a7bf1e0bc45d0a330c573bc367f9cf464fd326078812f301165fbda4ef181565b61023d6102a8366004611813565b60046020525f908152604090205481565b6102cc6102c7366004611813565b61063c565b005b61023d6102dc366004611845565b610704565b61023d6102ef366004611813565b5f908152600160208190526040909120015490565b61023d62093a8081565b61032161031c366004611813565b61072f565b604051610247919061186d565b61023d61033c3660046118b0565b61078e565b6102cc61034f3660046118d9565b610cdb565b6102cc6103623660046118d9565b610d06565b6102cc610d3e565b61023d62278d0081565b61023d6276a70081565b6002544210610263565b61023d61039b366004611903565b610dd7565b6102cc6103ae366004611813565b610df0565b61023d60095481565b6103cf6103ca366004611813565b61103c565b60405160ff9091168152602001610247565b6102636103ef3660046118d9565b6110f4565b610446610402366004611813565b600360208190525f91825260409091208054600182015460028301549383015460048401546005909401546001600160a01b03909316949193919290919060ff1686565b604080516001600160a01b03909716875260208701959095529385019290925260608401526080830152151560a082015260c001610247565b61023d5f81565b61023d610494366004611813565b61111e565b6104466104a7366004611813565b5f9081526003602081905260409091208054600182015460028301549383015460048401546005909401546001600160a01b03909316959194939092909160ff90911690565b61023d683635c9adc5dea0000081565b61023d602181565b6102cc6105133660046118d9565b61122f565b61023d60025481565b61023d61052f366004611845565b600660209081525f928352604080842090915290825290205481565b61023d7f65d7a28e3265b37a6474929f336521b332c1681b933f6cb9f3376673440d862a81565b61023d68056bc75e2d6310000081565b6102cc610590366004611813565b611254565b61023d6105a3366004611923565b60056020525f908152604090205481565b6105db7f000000000000000000000000000000000000000000000000000000000000000081565b6040516001600160a01b039091168152602001610247565b610321610601366004611923565b611535565b5f6001600160e01b03198216637965db0b60e01b148061063657506301ffc9a760e01b6001600160e01b03198316145b92915050565b7f65d7a28e3265b37a6474929f336521b332c1681b933f6cb9f3376673440d862a6106668161159c565b5f82118015610678575062093a808211155b6106bc5760405162461bcd60e51b815260206004820152601060248201526f24b73b30b634b210323ab930ba34b7b760811b60448201526064015b60405180910390fd5b6106c68242611950565b600281905560405190815233907fab40a374bc51de372200a8bc981af8c9ecdc08dfdaef0bb6e09f88f3c616ef3d9060200160405180910390a25050565b6007602052815f5260405f20818154811061071d575f80fd5b905f5260205f20015f91509150505481565b5f8181526008602090815260409182902080548351818402810184019094528084526060939283018282801561078257602002820191905f5260205f20905b81548152602001906001019080831161076e575b50505050509050919050565b5f6107976115a6565b6002544210156107de5760405162461bcd60e51b815260206004820152601260248201527110dbdb9d1c9858dd081a5cc81c185d5cd95960721b60448201526064016106b3565b836108235760405162461bcd60e51b8152602060048201526015602482015274092dcecc2d8d2c840e4cae6deeae4c6ca40d0c2e6d605b1b60448201526064016106b3565b5f83116108725760405162461bcd60e51b815260206004820152601760248201527f416d6f756e74206d75737420626520706f73697469766500000000000000000060448201526064016106b3565b62093a808210156108b65760405162461bcd60e51b815260206004820152600e60248201526d131bd8dac81d1bdbc81cda1bdc9d60921b60448201526064016106b3565b6276a7008211156108f95760405162461bcd60e51b815260206004820152600d60248201526c4c6f636b20746f6f206c6f6e6760981b60448201526064016106b3565b335f9081526005602052604090205469021e19e0c9bab24000009061091f908590611950565b111561096d5760405162461bcd60e51b815260206004820152601d60248201527f45786365656473206d6178207374616b65207065722061756469746f7200000060448201526064016106b3565b5f848152600460209081526040808320543384526006835281842088855290925282205490919061099e9083611963565b90508015610a4857335f9081526006602090815260408083208984529091528120546109cb908790611950565b90505f6109d88785611950565b90505f816109e7846064611976565b6109f1919061198d565b90506021811115610a445760405162461bcd60e51b815260206004820152601960248201527f45786365656473206d6178207374616b652070657263656e740000000000000060448201526064016106b3565b5050505b6040516bffffffffffffffffffffffff193360601b166020820152603481018790524260548201526074810186905260940160408051601f1981840301815291815281516020928301205f818152600390935291206002015490935015610ae65760405162461bcd60e51b81526020600482015260126024820152714174746573746174696f6e2065786973747360701b60448201526064016106b3565b5f610af18542611950565b6040805160c08101825233815260208082018b81528284018b815260608401868152608085018c81525f60a087018181528d82526003808852898320985189546001600160a01b0319166001600160a01b039091161789559551600189015593516002880155915193860193909355915160048086019190915590516005909401805460ff1916941515949094179093558b815291905290812080549293508892909190610ba0908490611950565b9091555050335f9081526005602052604081208054889290610bc3908490611950565b9091555050335f9081526006602090815260408083208a845290915281208054889290610bf1908490611950565b925050819055508560095f828254610c099190611950565b9091555050335f818152600760209081526040808320805460018181018355918552838520018990558b845260088352908320805491820181558352912001859055610c81907f00000000000000000000000000000000000000000000000000000000000000006001600160a01b03169030896115ce565b60408051878152602081018390529081018690528790339086907fd8762e24c29612970b3384043c845795cd1b5d9d6337723d06ad4af04399f1ff9060600160405180910390a4505050610cd460015f55565b9392505050565b5f8281526001602081905260409091200154610cf68161159c565b610d008383611635565b50505050565b6001600160a01b0381163314610d2f5760405163334bd91960e11b815260040160405180910390fd5b610d3982826116ab565b505050565b7f65d7a28e3265b37a6474929f336521b332c1681b933f6cb9f3376673440d862a610d688161159c565b6002544210610da65760405162461bcd60e51b815260206004820152600a602482015269139bdd081c185d5cd95960b21b60448201526064016106b3565b5f600281905560405133917f5db9ee0a495bf2e6ff9c91a7834c1ba4fdd244a5e8aa4e537bd38aeae4b073aa91a250565b6008602052815f5260405f20818154811061071d575f80fd5b610df86115a6565b5f81815260036020526040902080546001600160a01b03163314610e555760405162461bcd60e51b81526020600482015260146024820152732737ba103cb7bab91030ba3a32b9ba30ba34b7b760611b60448201526064016106b3565b600581015460ff1615610ea05760405162461bcd60e51b8152602060048201526013602482015272105d1d195cdd185d1a5bdb881cdb185cda1959606a1b60448201526064016106b3565b5f816002015411610ee45760405162461bcd60e51b815260206004820152600e60248201526d139bc81cdd185ad948199bdd5b9960921b60448201526064016106b3565b8060030154421015610f275760405162461bcd60e51b815260206004820152600c60248201526b14dd1a5b1b081b1bd8dad95960a21b60448201526064016106b3565b600281015460018201545f8181526004602052604081208054849290610f4e908490611963565b9091555050335f9081526005602052604081208054849290610f71908490611963565b9091555050335f90815260066020908152604080832084845290915281208054849290610f9f908490611963565b925050819055508160095f828254610fb79190611963565b90915550505f6002840155610ff66001600160a01b037f0000000000000000000000000000000000000000000000000000000000000000163384611716565b604051828152339085907f5bbf885d89157861119229ac0c3d414dabf442fea99c8ccaee143d33ed15f2379060200160405180910390a350505061103960015f55565b50565b60405163a2cb50ad60e01b8152600481018290525f908190309063a2cb50ad90602401602060405180830381865afa15801561107a573d5f803e3d5ffd5b505050506040513d601f19601f8201168201806040525081019061109e91906119ac565b905069021e19e0c9bab240000081106110ba5750600392915050565b683635c9adc5dea0000081106110d35750600292915050565b68056bc75e2d6310000081106110ec5750600192915050565b505f92915050565b5f9182526001602090815260408084206001600160a01b0393909316845291905290205460ff1690565b5f8181526008602090815260408083208054825181850281018501909352808352849383018282801561116e57602002820191905f5260205f20905b81548152602001906001019080831161115a575b505050505090505f5b8151811015611228575f60035f848481518110611196576111966119c3565b602002602001015181526020019081526020015f2090505f81600201541180156111c55750600581015460ff16155b1561121f5760048101546064906276a700116111e3575060c86111f5565b62278d008260040154106111f5575060965b60648183600201546112079190611976565b611211919061198d565b61121b9086611950565b9450505b50600101611177565b5050919050565b5f828152600160208190526040909120015461124a8161159c565b610d0083836116ab565b7f68e79a7bf1e0bc45d0a330c573bc367f9cf464fd326078812f301165fbda4ef161127e8161159c565b6112866115a6565b5f828152600360205260409020600581015460ff16156112da5760405162461bcd60e51b815260206004820152600f60248201526e105b1c9958591e481cdb185cda1959608a1b60448201526064016106b3565b5f81600201541161131e5760405162461bcd60e51b815260206004820152600e60248201526d139bc81cdd185ad948199bdd5b9960921b60448201526064016106b3565b600281018054825460018085015460058601805460ff19169092179091555f93849055808452600460205260408420805493946001600160a01b03909316939192859261136c908490611963565b90915550506001600160a01b0382165f9081526005602052604081208054859290611398908490611963565b90915550506001600160a01b0382165f908152600660209081526040808320848452909152812080548592906113cf908490611963565b925050819055508260095f8282546113e79190611963565b9091555050604051306024820152604481018490525f906001600160a01b037f0000000000000000000000000000000000000000000000000000000000000000169060640160408051601f198184030181529181526020820180516001600160e01b031663079cc67960e41b1790525161146191906119d7565b5f604051808303815f865af19150503d805f811461149a576040519150601f19603f3d011682016040523d82523d5f602084013e61149f565b606091505b50509050806114de5760405162461bcd60e51b815260206004820152600b60248201526a109d5c9b8819985a5b195960aa1b60448201526064016106b3565b81836001600160a01b0316887fb03fda3fe1b79698de7994cef2871f268c3aa583108ee8ae3d0742f8e49bcf9b8760405161151b91815260200190565b60405180910390a4505050505061153160015f55565b5050565b6001600160a01b0381165f9081526007602090815260409182902080548351818402810184019094528084526060939283018282801561078257602002820191905f5260205f209081548152602001906001019080831161076e5750505050509050919050565b6110398133611747565b60025f54036115c857604051633ee5aeb560e01b815260040160405180910390fd5b60025f55565b6040516001600160a01b038481166024830152838116604483015260648201839052610d009186918216906323b872dd906084015b604051602081830303815290604052915060e01b6020820180516001600160e01b038381831617835250505050611780565b5f61164083836110f4565b6116a4575f8381526001602081815260408084206001600160a01b0387168086529252808420805460ff19169093179092559051339286917f2f8788117e7eff1d82e926ec794901d17c78024a50270940304540a733656f0d9190a4506001610636565b505f610636565b5f6116b683836110f4565b156116a4575f8381526001602090815260408083206001600160a01b0386168085529252808320805460ff1916905551339286917ff6391f5c32d9c69d2a47ea670b442974b53935d1edc7fd64eb21e047a839171b9190a4506001610636565b6040516001600160a01b03838116602483015260448201839052610d3991859182169063a9059cbb90606401611603565b61175182826110f4565b6115315760405163e2517d3f60e01b81526001600160a01b0382166004820152602481018390526044016106b3565b5f8060205f8451602086015f885af18061179f576040513d5f823e3d81fd5b50505f513d915081156117b65780600114156117c3565b6001600160a01b0384163b155b15610d0057604051635274afe760e01b81526001600160a01b03851660048201526024016106b3565b5f602082840312156117fc575f80fd5b81356001600160e01b031981168114610cd4575f80fd5b5f60208284031215611823575f80fd5b5035919050565b80356001600160a01b0381168114611840575f80fd5b919050565b5f8060408385031215611856575f80fd5b61185f8361182a565b946020939093013593505050565b602080825282518282018190525f9190848201906040850190845b818110156118a457835183529284019291840191600101611888565b50909695505050505050565b5f805f606084860312156118c2575f80fd5b505081359360208301359350604090920135919050565b5f80604083850312156118ea575f80fd5b823591506118fa6020840161182a565b90509250929050565b5f8060408385031215611914575f80fd5b50508035926020909101359150565b5f60208284031215611933575f80fd5b610cd48261182a565b634e487b7160e01b5f52601160045260245ffd5b808201808211156106365761063661193c565b818103818111156106365761063661193c565b80820281158282048414176106365761063661193c565b5f826119a757634e487b7160e01b5f52601260045260245ffd5b500490565b5f602082840312156119bc575f80fd5b5051919050565b634e487b7160e01b5f52603260045260245ffd5b5f82515f5b818110156119f657602081860181015185830152016119dc565b505f92019182525091905056fea2646970667358221220b24424a4f94a131f258650280feb896425256b421a358c436cbe2eed152086d064736f6c63430008180033","opcodes":"PUSH1 0xA0 PUSH1 0x40 MSTORE CALLVALUE DUP1 ISZERO PUSH3 0x10 JUMPI PUSH0 DUP1 REVERT JUMPDEST POP PUSH1 0x40 MLOAD PUSH3 0x1C87 CODESIZE SUB DUP1 PUSH3 0x1C87 DUP4 CODECOPY DUP2 ADD PUSH1 0x40 DUP2 SWAP1 MSTORE PUSH3 0x33 SWAP2 PUSH3 0x1EA JUMP JUMPDEST PUSH1 0x1 PUSH0 SSTORE PUSH1 0x1 PUSH1 0x1 PUSH1 0xA0 SHL SUB DUP3 AND PUSH3 0x93 JUMPI PUSH1 0x40 MLOAD PUSH3 0x461BCD PUSH1 0xE5 SHL DUP2 MSTORE PUSH1 0x20 PUSH1 0x4 DUP3 ADD MSTORE PUSH1 0x15 PUSH1 0x24 DUP3 ADD MSTORE PUSH32 0x496E76616C696420746F6B656E20616464726573730000000000000000000000 PUSH1 0x44 DUP3 ADD MSTORE PUSH1 0x64 ADD JUMPDEST PUSH1 0x40 MLOAD DUP1 SWAP2 SUB SWAP1 REVERT JUMPDEST PUSH1 0x1 PUSH1 0x1 PUSH1 0xA0 SHL SUB DUP2 AND PUSH3 0xEB JUMPI PUSH1 0x40 MLOAD PUSH3 0x461BCD PUSH1 0xE5 SHL DUP2 MSTORE PUSH1 0x20 PUSH1 0x4 DUP3 ADD MSTORE PUSH1 0x15 PUSH1 0x24 DUP3 ADD MSTORE PUSH32 0x496E76616C69642061646D696E20616464726573730000000000000000000000 PUSH1 0x44 DUP3 ADD MSTORE PUSH1 0x64 ADD PUSH3 0x8A JUMP JUMPDEST PUSH1 0x1 PUSH1 0x1 PUSH1 0xA0 SHL SUB DUP3 AND PUSH1 0x80 MSTORE PUSH3 0x104 PUSH0 DUP3 PUSH3 0x13A JUMP JUMPDEST POP PUSH3 0x131 PUSH32 0x65D7A28E3265B37A6474929F336521B332C1681B933F6CB9F3376673440D862A DUP3 PUSH3 0x13A JUMP JUMPDEST POP POP POP PUSH3 0x220 JUMP JUMPDEST PUSH0 DUP3 DUP2 MSTORE PUSH1 0x1 PUSH1 0x20 SWAP1 DUP2 MSTORE PUSH1 0x40 DUP1 DUP4 KECCAK256 PUSH1 0x1 PUSH1 0x1 PUSH1 0xA0 SHL SUB DUP6 AND DUP5 MSTORE SWAP1 SWAP2 MSTORE DUP2 KECCAK256 SLOAD PUSH1 0xFF AND PUSH3 0x1C5 JUMPI PUSH0 DUP4 DUP2 MSTORE PUSH1 0x1 PUSH1 0x20 DUP2 DUP2 MSTORE PUSH1 0x40 DUP1 DUP5 KECCAK256 PUSH1 0x1 PUSH1 0x1 PUSH1 0xA0 SHL SUB DUP8 AND DUP1 DUP7 MSTORE SWAP3 MSTORE DUP1 DUP5 KECCAK256 DUP1 SLOAD PUSH1 0xFF NOT AND SWAP1 SWAP4 OR SWAP1 SWAP3 SSTORE SWAP1 MLOAD CALLER SWAP3 DUP7 SWAP2 PUSH32 0x2F8788117E7EFF1D82E926EC794901D17C78024A50270940304540A733656F0D SWAP2 SWAP1 LOG4 POP PUSH1 0x1 PUSH3 0x1C8 JUMP JUMPDEST POP PUSH0 JUMPDEST SWAP3 SWAP2 POP POP JUMP JUMPDEST DUP1 MLOAD PUSH1 0x1 PUSH1 0x1 PUSH1 0xA0 SHL SUB DUP2 AND DUP2 EQ PUSH3 0x1E5 JUMPI PUSH0 DUP1 REVERT JUMPDEST SWAP2 SWAP1 POP JUMP JUMPDEST PUSH0 DUP1 PUSH1 0x40 DUP4 DUP6 SUB SLT ISZERO PUSH3 0x1FC JUMPI PUSH0 DUP1 REVERT JUMPDEST PUSH3 0x207 DUP4 PUSH3 0x1CE JUMP JUMPDEST SWAP2 POP PUSH3 0x217 PUSH1 0x20 DUP5 ADD PUSH3 0x1CE JUMP JUMPDEST SWAP1 POP SWAP3 POP SWAP3 SWAP1 POP JUMP JUMPDEST PUSH1 0x80 MLOAD PUSH2 0x1A39 PUSH3 0x24E PUSH0 CODECOPY PUSH0 DUP2 DUP2 PUSH2 0x5B9 ADD MSTORE DUP2 DUP2 PUSH2 0xC51 ADD MSTORE DUP2 DUP2 PUSH2 0xFCF ADD MSTORE PUSH2 0x1408 ADD MSTORE PUSH2 0x1A39 PUSH0 RETURN INVALID PUSH1 0x80 PUSH1 0x40 MSTORE CALLVALUE DUP1 ISZERO PUSH2 0xF JUMPI PUSH0 DUP1 REVERT JUMPDEST POP PUSH1 0x4 CALLDATASIZE LT PUSH2 0x228 JUMPI PUSH0 CALLDATALOAD PUSH1 0xE0 SHR DUP1 PUSH4 0x78B4330F GT PUSH2 0x12A JUMPI DUP1 PUSH4 0xCD1F6206 GT PUSH2 0xB4 JUMPI DUP1 PUSH4 0xEF2F90CF GT PUSH2 0x79 JUMPI DUP1 PUSH4 0xEF2F90CF EQ PUSH2 0x572 JUMPI DUP1 PUSH4 0xF415ED14 EQ PUSH2 0x582 JUMPI DUP1 PUSH4 0xF4F2D034 EQ PUSH2 0x595 JUMPI DUP1 PUSH4 0xFC0C546A EQ PUSH2 0x5B4 JUMPI DUP1 PUSH4 0xFC879CD4 EQ PUSH2 0x5F3 JUMPI PUSH0 DUP1 REVERT JUMPDEST DUP1 PUSH4 0xCD1F6206 EQ PUSH2 0x4FD JUMPI DUP1 PUSH4 0xD547741F EQ PUSH2 0x505 JUMPI DUP1 PUSH4 0xDA748B10 EQ PUSH2 0x518 JUMPI DUP1 PUSH4 0xDC9AD57E EQ PUSH2 0x521 JUMPI DUP1 PUSH4 0xE63AB1E9 EQ PUSH2 0x54B JUMPI PUSH0 DUP1 REVERT JUMPDEST DUP1 PUSH4 0x940992A3 GT PUSH2 0xFA JUMPI DUP1 PUSH4 0x940992A3 EQ PUSH2 0x3F4 JUMPI DUP1 PUSH4 0xA217FDDF EQ PUSH2 0x47F JUMPI DUP1 PUSH4 0xA2CB50AD EQ PUSH2 0x486 JUMPI DUP1 PUSH4 0xA3112A64 EQ PUSH2 0x499 JUMPI DUP1 PUSH4 0xCB9EA337 EQ PUSH2 0x4ED JUMPI PUSH0 DUP1 REVERT JUMPDEST DUP1 PUSH4 0x78B4330F EQ PUSH2 0x304 JUMPI DUP1 PUSH4 0x817B1CD2 EQ PUSH2 0x3B3 JUMPI DUP1 PUSH4 0x8E7D8D18 EQ PUSH2 0x3BC JUMPI DUP1 PUSH4 0x91D14854 EQ PUSH2 0x3E1 JUMPI PUSH0 DUP1 REVERT JUMPDEST DUP1 PUSH4 0x2DAEDD52 GT PUSH2 0x1B6 JUMPI DUP1 PUSH4 0x4F1BFC9E GT PUSH2 0x17B JUMPI DUP1 PUSH4 0x4F1BFC9E EQ PUSH2 0x379 JUMPI DUP1 PUSH4 0x5B79872C EQ PUSH2 0x22C JUMPI DUP1 PUSH4 0x5C975ABB EQ PUSH2 0x383 JUMPI DUP1 PUSH4 0x6FA8A7A7 EQ PUSH2 0x38D JUMPI DUP1 PUSH4 0x71ED5D1A EQ PUSH2 0x3A0 JUMPI PUSH0 DUP1 REVERT JUMPDEST DUP1 PUSH4 0x2DAEDD52 EQ PUSH2 0x32E JUMPI DUP1 PUSH4 0x2F2FF15D EQ PUSH2 0x341 JUMPI DUP1 PUSH4 0x36568ABE EQ PUSH2 0x354 JUMPI DUP1 PUSH4 0x3F4BA83A EQ PUSH2 0x367 JUMPI DUP1 PUSH4 0x463E5808 EQ PUSH2 0x36F JUMPI PUSH0 DUP1 REVERT JUMPDEST DUP1 PUSH4 0x136439DD GT PUSH2 0x1FC JUMPI DUP1 PUSH4 0x136439DD EQ PUSH2 0x2B9 JUMPI DUP1 PUSH4 0x228A5AB0 EQ PUSH2 0x2CE JUMPI DUP1 PUSH4 0x248A9CA3 EQ PUSH2 0x2E1 JUMPI DUP1 PUSH4 0x2799657D EQ PUSH2 0x304 JUMPI DUP1 PUSH4 0x27F8E0E9 EQ PUSH2 0x30E JUMPI PUSH0 DUP1 REVERT JUMPDEST DUP1 PUSH3 0xBB6E92 EQ PUSH2 0x22C JUMPI DUP1 PUSH4 0x1FFC9A7 EQ PUSH2 0x250 JUMPI DUP1 PUSH4 0x7E2CEA5 EQ PUSH2 0x273 JUMPI DUP1 PUSH4 0x122CA506 EQ PUSH2 0x29A JUMPI JUMPDEST PUSH0 DUP1 REVERT JUMPDEST PUSH2 0x23D PUSH10 0x21E19E0C9BAB2400000 DUP2 JUMP JUMPDEST PUSH1 0x40 MLOAD SWAP1 DUP2 MSTORE PUSH1 0x20 ADD JUMPDEST PUSH1 0x40 MLOAD DUP1 SWAP2 SUB SWAP1 RETURN JUMPDEST PUSH2 0x263 PUSH2 0x25E CALLDATASIZE PUSH1 0x4 PUSH2 0x17EC JUMP JUMPDEST PUSH2 0x606 JUMP JUMPDEST PUSH1 0x40 MLOAD SWAP1 ISZERO ISZERO DUP2 MSTORE PUSH1 0x20 ADD PUSH2 0x247 JUMP JUMPDEST PUSH2 0x23D PUSH32 0x68E79A7BF1E0BC45D0A330C573BC367F9CF464FD326078812F301165FBDA4EF1 DUP2 JUMP JUMPDEST PUSH2 0x23D PUSH2 0x2A8 CALLDATASIZE PUSH1 0x4 PUSH2 0x1813 JUMP JUMPDEST PUSH1 0x4 PUSH1 0x20 MSTORE PUSH0 SWAP1 DUP2 MSTORE PUSH1 0x40 SWAP1 KECCAK256 SLOAD DUP2 JUMP JUMPDEST PUSH2 0x2CC PUSH2 0x2C7 CALLDATASIZE PUSH1 0x4 PUSH2 0x1813 JUMP JUMPDEST PUSH2 0x63C JUMP JUMPDEST STOP JUMPDEST PUSH2 0x23D PUSH2 0x2DC CALLDATASIZE PUSH1 0x4 PUSH2 0x1845 JUMP JUMPDEST PUSH2 0x704 JUMP JUMPDEST PUSH2 0x23D PUSH2 0x2EF CALLDATASIZE PUSH1 0x4 PUSH2 0x1813 JUMP JUMPDEST PUSH0 SWAP1 DUP2 MSTORE PUSH1 0x1 PUSH1 0x20 DUP2 SWAP1 MSTORE PUSH1 0x40 SWAP1 SWAP2 KECCAK256 ADD SLOAD SWAP1 JUMP JUMPDEST PUSH2 0x23D PUSH3 0x93A80 DUP2 JUMP JUMPDEST PUSH2 0x321 PUSH2 0x31C CALLDATASIZE PUSH1 0x4 PUSH2 0x1813 JUMP JUMPDEST PUSH2 0x72F JUMP JUMPDEST PUSH1 0x40 MLOAD PUSH2 0x247 SWAP2 SWAP1 PUSH2 0x186D JUMP JUMPDEST PUSH2 0x23D PUSH2 0x33C CALLDATASIZE PUSH1 0x4 PUSH2 0x18B0 JUMP JUMPDEST PUSH2 0x78E JUMP JUMPDEST PUSH2 0x2CC PUSH2 0x34F CALLDATASIZE PUSH1 0x4 PUSH2 0x18D9 JUMP JUMPDEST PUSH2 0xCDB JUMP JUMPDEST PUSH2 0x2CC PUSH2 0x362 CALLDATASIZE PUSH1 0x4 PUSH2 0x18D9 JUMP JUMPDEST PUSH2 0xD06 JUMP JUMPDEST PUSH2 0x2CC PUSH2 0xD3E JUMP JUMPDEST PUSH2 0x23D PUSH3 0x278D00 DUP2 JUMP JUMPDEST PUSH2 0x23D PUSH3 0x76A700 DUP2 JUMP JUMPDEST PUSH1 0x2 SLOAD TIMESTAMP LT PUSH2 0x263 JUMP JUMPDEST PUSH2 0x23D PUSH2 0x39B CALLDATASIZE PUSH1 0x4 PUSH2 0x1903 JUMP JUMPDEST PUSH2 0xDD7 JUMP JUMPDEST PUSH2 0x2CC PUSH2 0x3AE CALLDATASIZE PUSH1 0x4 PUSH2 0x1813 JUMP JUMPDEST PUSH2 0xDF0 JUMP JUMPDEST PUSH2 0x23D PUSH1 0x9 SLOAD DUP2 JUMP JUMPDEST PUSH2 0x3CF PUSH2 0x3CA CALLDATASIZE PUSH1 0x4 PUSH2 0x1813 JUMP JUMPDEST PUSH2 0x103C JUMP JUMPDEST PUSH1 0x40 MLOAD PUSH1 0xFF SWAP1 SWAP2 AND DUP2 MSTORE PUSH1 0x20 ADD PUSH2 0x247 JUMP JUMPDEST PUSH2 0x263 PUSH2 0x3EF CALLDATASIZE PUSH1 0x4 PUSH2 0x18D9 JUMP JUMPDEST PUSH2 0x10F4 JUMP JUMPDEST PUSH2 0x446 PUSH2 0x402 CALLDATASIZE PUSH1 0x4 PUSH2 0x1813 JUMP JUMPDEST PUSH1 0x3 PUSH1 0x20 DUP2 SWAP1 MSTORE PUSH0 SWAP2 DUP3 MSTORE PUSH1 0x40 SWAP1 SWAP2 KECCAK256 DUP1 SLOAD PUSH1 0x1 DUP3 ADD SLOAD PUSH1 0x2 DUP4 ADD SLOAD SWAP4 DUP4 ADD SLOAD PUSH1 0x4 DUP5 ADD SLOAD PUSH1 0x5 SWAP1 SWAP5 ADD SLOAD PUSH1 0x1 PUSH1 0x1 PUSH1 0xA0 SHL SUB SWAP1 SWAP4 AND SWAP5 SWAP2 SWAP4 SWAP2 SWAP3 SWAP1 SWAP2 SWAP1 PUSH1 0xFF AND DUP7 JUMP JUMPDEST PUSH1 0x40 DUP1 MLOAD PUSH1 0x1 PUSH1 0x1 PUSH1 0xA0 SHL SUB SWAP1 SWAP8 AND DUP8 MSTORE PUSH1 0x20 DUP8 ADD SWAP6 SWAP1 SWAP6 MSTORE SWAP4 DUP6 ADD SWAP3 SWAP1 SWAP3 MSTORE PUSH1 0x60 DUP5 ADD MSTORE PUSH1 0x80 DUP4 ADD MSTORE ISZERO ISZERO PUSH1 0xA0 DUP3 ADD MSTORE PUSH1 0xC0 ADD PUSH2 0x247 JUMP JUMPDEST PUSH2 0x23D PUSH0 DUP2 JUMP JUMPDEST PUSH2 0x23D PUSH2 0x494 CALLDATASIZE PUSH1 0x4 PUSH2 0x1813 JUMP JUMPDEST PUSH2 0x111E JUMP JUMPDEST PUSH2 0x446 PUSH2 0x4A7 CALLDATASIZE PUSH1 0x4 PUSH2 0x1813 JUMP JUMPDEST PUSH0 SWAP1 DUP2 MSTORE PUSH1 0x3 PUSH1 0x20 DUP2 SWAP1 MSTORE PUSH1 0x40 SWAP1 SWAP2 KECCAK256 DUP1 SLOAD PUSH1 0x1 DUP3 ADD SLOAD PUSH1 0x2 DUP4 ADD SLOAD SWAP4 DUP4 ADD SLOAD PUSH1 0x4 DUP5 ADD SLOAD PUSH1 0x5 SWAP1 SWAP5 ADD SLOAD PUSH1 0x1 PUSH1 0x1 PUSH1 0xA0 SHL SUB SWAP1 SWAP4 AND SWAP6 SWAP2 SWAP5 SWAP4 SWAP1 SWAP3 SWAP1 SWAP2 PUSH1 0xFF SWAP1 SWAP2 AND SWAP1 JUMP JUMPDEST PUSH2 0x23D PUSH9 0x3635C9ADC5DEA00000 DUP2 JUMP JUMPDEST PUSH2 0x23D PUSH1 0x21 DUP2 JUMP JUMPDEST PUSH2 0x2CC PUSH2 0x513 CALLDATASIZE PUSH1 0x4 PUSH2 0x18D9 JUMP JUMPDEST PUSH2 0x122F JUMP JUMPDEST PUSH2 0x23D PUSH1 0x2 SLOAD DUP2 JUMP JUMPDEST PUSH2 0x23D PUSH2 0x52F CALLDATASIZE PUSH1 0x4 PUSH2 0x1845 JUMP JUMPDEST PUSH1 0x6 PUSH1 0x20 SWAP1 DUP2 MSTORE PUSH0 SWAP3 DUP4 MSTORE PUSH1 0x40 DUP1 DUP5 KECCAK256 SWAP1 SWAP2 MSTORE SWAP1 DUP3 MSTORE SWAP1 KECCAK256 SLOAD DUP2 JUMP JUMPDEST PUSH2 0x23D PUSH32 0x65D7A28E3265B37A6474929F336521B332C1681B933F6CB9F3376673440D862A DUP2 JUMP JUMPDEST PUSH2 0x23D PUSH9 0x56BC75E2D63100000 DUP2 JUMP JUMPDEST PUSH2 0x2CC PUSH2 0x590 CALLDATASIZE PUSH1 0x4 PUSH2 0x1813 JUMP JUMPDEST PUSH2 0x1254 JUMP JUMPDEST PUSH2 0x23D PUSH2 0x5A3 CALLDATASIZE PUSH1 0x4 PUSH2 0x1923 JUMP JUMPDEST PUSH1 0x5 PUSH1 0x20 MSTORE PUSH0 SWAP1 DUP2 MSTORE PUSH1 0x40 SWAP1 KECCAK256 SLOAD DUP2 JUMP JUMPDEST PUSH2 0x5DB PUSH32 0x0 DUP2 JUMP JUMPDEST PUSH1 0x40 MLOAD PUSH1 0x1 PUSH1 0x1 PUSH1 0xA0 SHL SUB SWAP1 SWAP2 AND DUP2 MSTORE PUSH1 0x20 ADD PUSH2 0x247 JUMP JUMPDEST PUSH2 0x321 PUSH2 0x601 CALLDATASIZE PUSH1 0x4 PUSH2 0x1923 JUMP JUMPDEST PUSH2 0x1535 JUMP JUMPDEST PUSH0 PUSH1 0x1 PUSH1 0x1 PUSH1 0xE0 SHL SUB NOT DUP3 AND PUSH4 0x7965DB0B PUSH1 0xE0 SHL EQ DUP1 PUSH2 0x636 JUMPI POP PUSH4 0x1FFC9A7 PUSH1 0xE0 SHL PUSH1 0x1 PUSH1 0x1 PUSH1 0xE0 SHL SUB NOT DUP4 AND EQ JUMPDEST SWAP3 SWAP2 POP POP JUMP JUMPDEST PUSH32 0x65D7A28E3265B37A6474929F336521B332C1681B933F6CB9F3376673440D862A PUSH2 0x666 DUP2 PUSH2 0x159C JUMP JUMPDEST PUSH0 DUP3 GT DUP1 ISZERO PUSH2 0x678 JUMPI POP PUSH3 0x93A80 DUP3 GT ISZERO JUMPDEST PUSH2 0x6BC JUMPI PUSH1 0x40 MLOAD PUSH3 0x461BCD PUSH1 0xE5 SHL DUP2 MSTORE PUSH1 0x20 PUSH1 0x4 DUP3 ADD MSTORE PUSH1 0x10 PUSH1 0x24 DUP3 ADD MSTORE PUSH16 0x24B73B30B634B210323AB930BA34B7B7 PUSH1 0x81 SHL PUSH1 0x44 DUP3 ADD MSTORE PUSH1 0x64 ADD JUMPDEST PUSH1 0x40 MLOAD DUP1 SWAP2 SUB SWAP1 REVERT JUMPDEST PUSH2 0x6C6 DUP3 TIMESTAMP PUSH2 0x1950 JUMP JUMPDEST PUSH1 0x2 DUP2 SWAP1 SSTORE PUSH1 0x40 MLOAD SWAP1 DUP2 MSTORE CALLER SWAP1 PUSH32 0xAB40A374BC51DE372200A8BC981AF8C9ECDC08DFDAEF0BB6E09F88F3C616EF3D SWAP1 PUSH1 0x20 ADD PUSH1 0x40 MLOAD DUP1 SWAP2 SUB SWAP1 LOG2 POP POP JUMP JUMPDEST PUSH1 0x7 PUSH1 0x20 MSTORE DUP2 PUSH0 MSTORE PUSH1 0x40 PUSH0 KECCAK256 DUP2 DUP2 SLOAD DUP2 LT PUSH2 0x71D JUMPI PUSH0 DUP1 REVERT JUMPDEST SWAP1 PUSH0 MSTORE PUSH1 0x20 PUSH0 KECCAK256 ADD PUSH0 SWAP2 POP SWAP2 POP POP SLOAD DUP2 JUMP JUMPDEST PUSH0 DUP2 DUP2 MSTORE PUSH1 0x8 PUSH1 0x20 SWAP1 DUP2 MSTORE PUSH1 0x40 SWAP2 DUP3 SWAP1 KECCAK256 DUP1 SLOAD DUP4 MLOAD DUP2 DUP5 MUL DUP2 ADD DUP5 ADD SWAP1 SWAP5 MSTORE DUP1 DUP5 MSTORE PUSH1 0x60 SWAP4 SWAP3 DUP4 ADD DUP3 DUP3 DUP1 ISZERO PUSH2 0x782 JUMPI PUSH1 0x20 MUL DUP3 ADD SWAP2 SWAP1 PUSH0 MSTORE PUSH1 0x20 PUSH0 KECCAK256 SWAP1 JUMPDEST DUP2 SLOAD DUP2 MSTORE PUSH1 0x20 ADD SWAP1 PUSH1 0x1 ADD SWAP1 DUP1 DUP4 GT PUSH2 0x76E JUMPI JUMPDEST POP POP POP POP POP SWAP1 POP SWAP2 SWAP1 POP JUMP JUMPDEST PUSH0 PUSH2 0x797 PUSH2 0x15A6 JUMP JUMPDEST PUSH1 0x2 SLOAD TIMESTAMP LT ISZERO PUSH2 0x7DE JUMPI PUSH1 0x40 MLOAD PUSH3 0x461BCD PUSH1 0xE5 SHL DUP2 MSTORE PUSH1 0x20 PUSH1 0x4 DUP3 ADD MSTORE PUSH1 0x12 PUSH1 0x24 DUP3 ADD MSTORE PUSH18 0x10DBDB9D1C9858DD081A5CC81C185D5CD959 PUSH1 0x72 SHL PUSH1 0x44 DUP3 ADD MSTORE PUSH1 0x64 ADD PUSH2 0x6B3 JUMP JUMPDEST DUP4 PUSH2 0x823 JUMPI PUSH1 0x40 MLOAD PUSH3 0x461BCD PUSH1 0xE5 SHL DUP2 MSTORE PUSH1 0x20 PUSH1 0x4 DUP3 ADD MSTORE PUSH1 0x15 PUSH1 0x24 DUP3 ADD MSTORE PUSH21 0x92DCECC2D8D2C840E4CAE6DEEAE4C6CA40D0C2E6D PUSH1 0x5B SHL PUSH1 0x44 DUP3 ADD MSTORE PUSH1 0x64 ADD PUSH2 0x6B3 JUMP JUMPDEST PUSH0 DUP4 GT PUSH2 0x872 JUMPI PUSH1 0x40 MLOAD PUSH3 0x461BCD PUSH1 0xE5 SHL DUP2 MSTORE PUSH1 0x20 PUSH1 0x4 DUP3 ADD MSTORE PUSH1 0x17 PUSH1 0x24 DUP3 ADD MSTORE PUSH32 0x416D6F756E74206D75737420626520706F736974697665000000000000000000 PUSH1 0x44 DUP3 ADD MSTORE PUSH1 0x64 ADD PUSH2 0x6B3 JUMP JUMPDEST PUSH3 0x93A80 DUP3 LT ISZERO PUSH2 0x8B6 JUMPI PUSH1 0x40 MLOAD PUSH3 0x461BCD PUSH1 0xE5 SHL DUP2 MSTORE PUSH1 0x20 PUSH1 0x4 DUP3 ADD MSTORE PUSH1 0xE PUSH1 0x24 DUP3 ADD MSTORE PUSH14 0x131BD8DAC81D1BDBC81CDA1BDC9D PUSH1 0x92 SHL PUSH1 0x44 DUP3 ADD MSTORE PUSH1 0x64 ADD PUSH2 0x6B3 JUMP JUMPDEST PUSH3 0x76A700 DUP3 GT ISZERO PUSH2 0x8F9 JUMPI PUSH1 0x40 MLOAD PUSH3 0x461BCD PUSH1 0xE5 SHL DUP2 MSTORE PUSH1 0x20 PUSH1 0x4 DUP3 ADD MSTORE PUSH1 0xD PUSH1 0x24 DUP3 ADD MSTORE PUSH13 0x4C6F636B20746F6F206C6F6E67 PUSH1 0x98 SHL PUSH1 0x44 DUP3 ADD MSTORE PUSH1 0x64 ADD PUSH2 0x6B3 JUMP JUMPDEST CALLER PUSH0 SWAP1 DUP2 MSTORE PUSH1 0x5 PUSH1 0x20 MSTORE PUSH1 0x40 SWAP1 KECCAK256 SLOAD PUSH10 0x21E19E0C9BAB2400000 SWAP1 PUSH2 0x91F SWAP1 DUP6 SWAP1 PUSH2 0x1950 JUMP JUMPDEST GT ISZERO PUSH2 0x96D JUMPI PUSH1 0x40 MLOAD PUSH3 0x461BCD PUSH1 0xE5 SHL DUP2 MSTORE PUSH1 0x20 PUSH1 0x4 DUP3 ADD MSTORE PUSH1 0x1D PUSH1 0x24 DUP3 ADD MSTORE PUSH32 0x45786365656473206D6178207374616B65207065722061756469746F72000000 PUSH1 0x44 DUP3 ADD MSTORE PUSH1 0x64 ADD PUSH2 0x6B3 JUMP JUMPDEST PUSH0 DUP5 DUP2 MSTORE PUSH1 0x4 PUSH1 0x20 SWAP1 DUP2 MSTORE PUSH1 0x40 DUP1 DUP4 KECCAK256 SLOAD CALLER DUP5 MSTORE PUSH1 0x6 DUP4 MSTORE DUP2 DUP5 KECCAK256 DUP9 DUP6 MSTORE SWAP1 SWAP3 MSTORE DUP3 KECCAK256 SLOAD SWAP1 SWAP2 SWAP1 PUSH2 0x99E SWAP1 DUP4 PUSH2 0x1963 JUMP JUMPDEST SWAP1 POP DUP1 ISZERO PUSH2 0xA48 JUMPI CALLER PUSH0 SWAP1 DUP2 MSTORE PUSH1 0x6 PUSH1 0x20 SWAP1 DUP2 MSTORE PUSH1 0x40 DUP1 DUP4 KECCAK256 DUP10 DUP5 MSTORE SWAP1 SWAP2 MSTORE DUP2 KECCAK256 SLOAD PUSH2 0x9CB SWAP1 DUP8 SWAP1 PUSH2 0x1950 JUMP JUMPDEST SWAP1 POP PUSH0 PUSH2 0x9D8 DUP8 DUP6 PUSH2 0x1950 JUMP JUMPDEST SWAP1 POP PUSH0 DUP2 PUSH2 0x9E7 DUP5 PUSH1 0x64 PUSH2 0x1976 JUMP JUMPDEST PUSH2 0x9F1 SWAP2 SWAP1 PUSH2 0x198D JUMP JUMPDEST SWAP1 POP PUSH1 0x21 DUP2 GT ISZERO PUSH2 0xA44 JUMPI PUSH1 0x40 MLOAD PUSH3 0x461BCD PUSH1 0xE5 SHL DUP2 MSTORE PUSH1 0x20 PUSH1 0x4 DUP3 ADD MSTORE PUSH1 0x19 PUSH1 0x24 DUP3 ADD MSTORE PUSH32 0x45786365656473206D6178207374616B652070657263656E7400000000000000 PUSH1 0x44 DUP3 ADD MSTORE PUSH1 0x64 ADD PUSH2 0x6B3 JUMP JUMPDEST POP POP POP JUMPDEST PUSH1 0x40 MLOAD PUSH12 0xFFFFFFFFFFFFFFFFFFFFFFFF NOT CALLER PUSH1 0x60 SHL AND PUSH1 0x20 DUP3 ADD MSTORE PUSH1 0x34 DUP2 ADD DUP8 SWAP1 MSTORE TIMESTAMP PUSH1 0x54 DUP3 ADD MSTORE PUSH1 0x74 DUP2 ADD DUP7 SWAP1 MSTORE PUSH1 0x94 ADD PUSH1 0x40 DUP1 MLOAD PUSH1 0x1F NOT DUP2 DUP5 SUB ADD DUP2 MSTORE SWAP2 DUP2 MSTORE DUP2 MLOAD PUSH1 0x20 SWAP3 DUP4 ADD KECCAK256 PUSH0 DUP2 DUP2 MSTORE PUSH1 0x3 SWAP1 SWAP4 MSTORE SWAP2 KECCAK256 PUSH1 0x2 ADD SLOAD SWAP1 SWAP4 POP ISZERO PUSH2 0xAE6 JUMPI PUSH1 0x40 MLOAD PUSH3 0x461BCD PUSH1 0xE5 SHL DUP2 MSTORE PUSH1 0x20 PUSH1 0x4 DUP3 ADD MSTORE PUSH1 0x12 PUSH1 0x24 DUP3 ADD MSTORE PUSH18 0x4174746573746174696F6E20657869737473 PUSH1 0x70 SHL PUSH1 0x44 DUP3 ADD MSTORE PUSH1 0x64 ADD PUSH2 0x6B3 JUMP JUMPDEST PUSH0 PUSH2 0xAF1 DUP6 TIMESTAMP PUSH2 0x1950 JUMP JUMPDEST PUSH1 0x40 DUP1 MLOAD PUSH1 0xC0 DUP2 ADD DUP3 MSTORE CALLER DUP2 MSTORE PUSH1 0x20 DUP1 DUP3 ADD DUP12 DUP2 MSTORE DUP3 DUP5 ADD DUP12 DUP2 MSTORE PUSH1 0x60 DUP5 ADD DUP7 DUP2 MSTORE PUSH1 0x80 DUP6 ADD DUP13 DUP2 MSTORE PUSH0 PUSH1 0xA0 DUP8 ADD DUP2 DUP2 MSTORE DUP14 DUP3 MSTORE PUSH1 0x3 DUP1 DUP9 MSTORE DUP10 DUP4 KECCAK256 SWAP9 MLOAD DUP10 SLOAD PUSH1 0x1 PUSH1 0x1 PUSH1 0xA0 SHL SUB NOT AND PUSH1 0x1 PUSH1 0x1 PUSH1 0xA0 SHL SUB SWAP1 SWAP2 AND OR DUP10 SSTORE SWAP6 MLOAD PUSH1 0x1 DUP10 ADD SSTORE SWAP4 MLOAD PUSH1 0x2 DUP9 ADD SSTORE SWAP2 MLOAD SWAP4 DUP7 ADD SWAP4 SWAP1 SWAP4 SSTORE SWAP2 MLOAD PUSH1 0x4 DUP1 DUP7 ADD SWAP2 SWAP1 SWAP2 SSTORE SWAP1 MLOAD PUSH1 0x5 SWAP1 SWAP5 ADD DUP1 SLOAD PUSH1 0xFF NOT AND SWAP5 ISZERO ISZERO SWAP5 SWAP1 SWAP5 OR SWAP1 SWAP4 SSTORE DUP12 DUP2 MSTORE SWAP2 SWAP1 MSTORE SWAP1 DUP2 KECCAK256 DUP1 SLOAD SWAP3 SWAP4 POP DUP9 SWAP3 SWAP1 SWAP2 SWAP1 PUSH2 0xBA0 SWAP1 DUP5 SWAP1 PUSH2 0x1950 JUMP JUMPDEST SWAP1 SWAP2 SSTORE POP POP CALLER PUSH0 SWAP1 DUP2 MSTORE PUSH1 0x5 PUSH1 0x20 MSTORE PUSH1 0x40 DUP2 KECCAK256 DUP1 SLOAD DUP9 SWAP3 SWAP1 PUSH2 0xBC3 SWAP1 DUP5 SWAP1 PUSH2 0x1950 JUMP JUMPDEST SWAP1 SWAP2 SSTORE POP POP CALLER PUSH0 SWAP1 DUP2 MSTORE PUSH1 0x6 PUSH1 0x20 SWAP1 DUP2 MSTORE PUSH1 0x40 DUP1 DUP4 KECCAK256 DUP11 DUP5 MSTORE SWAP1 SWAP2 MSTORE DUP2 KECCAK256 DUP1 SLOAD DUP9 SWAP3 SWAP1 PUSH2 0xBF1 SWAP1 DUP5 SWAP1 PUSH2 0x1950 JUMP JUMPDEST SWAP3 POP POP DUP2 SWAP1 SSTORE POP DUP6 PUSH1 0x9 PUSH0 DUP3 DUP3 SLOAD PUSH2 0xC09 SWAP2 SWAP1 PUSH2 0x1950 JUMP JUMPDEST SWAP1 SWAP2 SSTORE POP POP CALLER PUSH0 DUP2 DUP2 MSTORE PUSH1 0x7 PUSH1 0x20 SWAP1 DUP2 MSTORE PUSH1 0x40 DUP1 DUP4 KECCAK256 DUP1 SLOAD PUSH1 0x1 DUP2 DUP2 ADD DUP4 SSTORE SWAP2 DUP6 MSTORE DUP4 DUP6 KECCAK256 ADD DUP10 SWAP1 SSTORE DUP12 DUP5 MSTORE PUSH1 0x8 DUP4 MSTORE SWAP1 DUP4 KECCAK256 DUP1 SLOAD SWAP2 DUP3 ADD DUP2 SSTORE DUP4 MSTORE SWAP2 KECCAK256 ADD DUP6 SWAP1 SSTORE PUSH2 0xC81 SWAP1 PUSH32 0x0 PUSH1 0x1 PUSH1 0x1 PUSH1 0xA0 SHL SUB AND SWAP1 ADDRESS DUP10 PUSH2 0x15CE JUMP JUMPDEST PUSH1 0x40 DUP1 MLOAD DUP8 DUP2 MSTORE PUSH1 0x20 DUP2 ADD DUP4 SWAP1 MSTORE SWAP1 DUP2 ADD DUP7 SWAP1 MSTORE DUP8 SWAP1 CALLER SWAP1 DUP7 SWAP1 PUSH32 0xD8762E24C29612970B3384043C845795CD1B5D9D6337723D06AD4AF04399F1FF SWAP1 PUSH1 0x60 ADD PUSH1 0x40 MLOAD DUP1 SWAP2 SUB SWAP1 LOG4 POP POP POP PUSH2 0xCD4 PUSH1 0x1 PUSH0 SSTORE JUMP JUMPDEST SWAP4 SWAP3 POP POP POP JUMP JUMPDEST PUSH0 DUP3 DUP2 MSTORE PUSH1 0x1 PUSH1 0x20 DUP2 SWAP1 MSTORE PUSH1 0x40 SWAP1 SWAP2 KECCAK256 ADD SLOAD PUSH2 0xCF6 DUP2 PUSH2 0x159C JUMP JUMPDEST PUSH2 0xD00 DUP4 DUP4 PUSH2 0x1635 JUMP JUMPDEST POP POP POP POP JUMP JUMPDEST PUSH1 0x1 PUSH1 0x1 PUSH1 0xA0 SHL SUB DUP2 AND CALLER EQ PUSH2 0xD2F JUMPI PUSH1 0x40 MLOAD PUSH4 0x334BD919 PUSH1 0xE1 SHL DUP2 MSTORE PUSH1 0x4 ADD PUSH1 0x40 MLOAD DUP1 SWAP2 SUB SWAP1 REVERT JUMPDEST PUSH2 0xD39 DUP3 DUP3 PUSH2 0x16AB JUMP JUMPDEST POP POP POP JUMP JUMPDEST PUSH32 0x65D7A28E3265B37A6474929F336521B332C1681B933F6CB9F3376673440D862A PUSH2 0xD68 DUP2 PUSH2 0x159C JUMP JUMPDEST PUSH1 0x2 SLOAD TIMESTAMP LT PUSH2 0xDA6 JUMPI PUSH1 0x40 MLOAD PUSH3 0x461BCD PUSH1 0xE5 SHL DUP2 MSTORE PUSH1 0x20 PUSH1 0x4 DUP3 ADD MSTORE PUSH1 0xA PUSH1 0x24 DUP3 ADD MSTORE PUSH10 0x139BDD081C185D5CD959 PUSH1 0xB2 SHL PUSH1 0x44 DUP3 ADD MSTORE PUSH1 0x64 ADD PUSH2 0x6B3 JUMP JUMPDEST PUSH0 PUSH1 0x2 DUP2 SWAP1 SSTORE PUSH1 0x40 MLOAD CALLER SWAP2 PUSH32 0x5DB9EE0A495BF2E6FF9C91A7834C1BA4FDD244A5E8AA4E537BD38AEAE4B073AA SWAP2 LOG2 POP JUMP JUMPDEST PUSH1 0x8 PUSH1 0x20 MSTORE DUP2 PUSH0 MSTORE PUSH1 0x40 PUSH0 KECCAK256 DUP2 DUP2 SLOAD DUP2 LT PUSH2 0x71D JUMPI PUSH0 DUP1 REVERT JUMPDEST PUSH2 0xDF8 PUSH2 0x15A6 JUMP JUMPDEST PUSH0 DUP2 DUP2 MSTORE PUSH1 0x3 PUSH1 0x20 MSTORE PUSH1 0x40 SWAP1 KECCAK256 DUP1 SLOAD PUSH1 0x1 PUSH1 0x1 PUSH1 0xA0 SHL SUB AND CALLER EQ PUSH2 0xE55 JUMPI PUSH1 0x40 MLOAD PUSH3 0x461BCD PUSH1 0xE5 SHL DUP2 MSTORE PUSH1 0x20 PUSH1 0x4 DUP3 ADD MSTORE PUSH1 0x14 PUSH1 0x24 DUP3 ADD MSTORE PUSH20 0x2737BA103CB7BAB91030BA3A32B9BA30BA34B7B7 PUSH1 0x61 SHL PUSH1 0x44 DUP3 ADD MSTORE PUSH1 0x64 ADD PUSH2 0x6B3 JUMP JUMPDEST PUSH1 0x5 DUP2 ADD SLOAD PUSH1 0xFF AND ISZERO PUSH2 0xEA0 JUMPI PUSH1 0x40 MLOAD PUSH3 0x461BCD PUSH1 0xE5 SHL DUP2 MSTORE PUSH1 0x20 PUSH1 0x4 DUP3 ADD MSTORE PUSH1 0x13 PUSH1 0x24 DUP3 ADD MSTORE PUSH19 0x105D1D195CDD185D1A5BDB881CDB185CDA1959 PUSH1 0x6A SHL PUSH1 0x44 DUP3 ADD MSTORE PUSH1 0x64 ADD PUSH2 0x6B3 JUMP JUMPDEST PUSH0 DUP2 PUSH1 0x2 ADD SLOAD GT PUSH2 0xEE4 JUMPI PUSH1 0x40 MLOAD PUSH3 0x461BCD PUSH1 0xE5 SHL DUP2 MSTORE PUSH1 0x20 PUSH1 0x4 DUP3 ADD MSTORE PUSH1 0xE PUSH1 0x24 DUP3 ADD MSTORE PUSH14 0x139BC81CDD185AD948199BDD5B99 PUSH1 0x92 SHL PUSH1 0x44 DUP3 ADD MSTORE PUSH1 0x64 ADD PUSH2 0x6B3 JUMP JUMPDEST DUP1 PUSH1 0x3 ADD SLOAD TIMESTAMP LT ISZERO PUSH2 0xF27 JUMPI PUSH1 0x40 MLOAD PUSH3 0x461BCD PUSH1 0xE5 SHL DUP2 MSTORE PUSH1 0x20 PUSH1 0x4 DUP3 ADD MSTORE PUSH1 0xC PUSH1 0x24 DUP3 ADD MSTORE PUSH12 0x14DD1A5B1B081B1BD8DAD959 PUSH1 0xA2 SHL PUSH1 0x44 DUP3 ADD MSTORE PUSH1 0x64 ADD PUSH2 0x6B3 JUMP JUMPDEST PUSH1 0x2 DUP2 ADD SLOAD PUSH1 0x1 DUP3 ADD SLOAD PUSH0 DUP2 DUP2 MSTORE PUSH1 0x4 PUSH1 0x20 MSTORE PUSH1 0x40 DUP2 KECCAK256 DUP1 SLOAD DUP5 SWAP3 SWAP1 PUSH2 0xF4E SWAP1 DUP5 SWAP1 PUSH2 0x1963 JUMP JUMPDEST SWAP1 SWAP2 SSTORE POP POP CALLER PUSH0 SWAP1 DUP2 MSTORE PUSH1 0x5 PUSH1 0x20 MSTORE PUSH1 0x40 DUP2 KECCAK256 DUP1 SLOAD DUP5 SWAP3 SWAP1 PUSH2 0xF71 SWAP1 DUP5 SWAP1 PUSH2 0x1963 JUMP JUMPDEST SWAP1 SWAP2 SSTORE POP POP CALLER PUSH0 SWAP1 DUP2 MSTORE PUSH1 0x6 PUSH1 0x20 SWAP1 DUP2 MSTORE PUSH1 0x40 DUP1 DUP4 KECCAK256 DUP5 DUP5 MSTORE SWAP1 SWAP2 MSTORE DUP2 KECCAK256 DUP1 SLOAD DUP5 SWAP3 SWAP1 PUSH2 0xF9F SWAP1 DUP5 SWAP1 PUSH2 0x1963 JUMP JUMPDEST SWAP3 POP POP DUP2 SWAP1 SSTORE POP DUP2 PUSH1 0x9 PUSH0 DUP3 DUP3 SLOAD PUSH2 0xFB7 SWAP2 SWAP1 PUSH2 0x1963 JUMP JUMPDEST SWAP1 SWAP2 SSTORE POP POP PUSH0 PUSH1 0x2 DUP5 ADD SSTORE PUSH2 0xFF6 PUSH1 0x1 PUSH1 0x1 PUSH1 0xA0 SHL SUB PUSH32 0x0 AND CALLER DUP5 PUSH2 0x1716 JUMP JUMPDEST PUSH1 0x40 MLOAD DUP3 DUP2 MSTORE CALLER SWAP1 DUP6 SWAP1 PUSH32 0x5BBF885D89157861119229AC0C3D414DABF442FEA99C8CCAEE143D33ED15F237 SWAP1 PUSH1 0x20 ADD PUSH1 0x40 MLOAD DUP1 SWAP2 SUB SWAP1 LOG3 POP POP POP PUSH2 0x1039 PUSH1 0x1 PUSH0 SSTORE JUMP JUMPDEST POP JUMP JUMPDEST PUSH1 0x40 MLOAD PUSH4 0xA2CB50AD PUSH1 0xE0 SHL DUP2 MSTORE PUSH1 0x4 DUP2 ADD DUP3 SWAP1 MSTORE PUSH0 SWAP1 DUP2 SWAP1 ADDRESS SWAP1 PUSH4 0xA2CB50AD SWAP1 PUSH1 0x24 ADD PUSH1 0x20 PUSH1 0x40 MLOAD DUP1 DUP4 SUB DUP2 DUP7 GAS STATICCALL ISZERO DUP1 ISZERO PUSH2 0x107A JUMPI RETURNDATASIZE PUSH0 DUP1 RETURNDATACOPY RETURNDATASIZE PUSH0 REVERT JUMPDEST POP POP POP POP PUSH1 0x40 MLOAD RETURNDATASIZE PUSH1 0x1F NOT PUSH1 0x1F DUP3 ADD AND DUP3 ADD DUP1 PUSH1 0x40 MSTORE POP DUP2 ADD SWAP1 PUSH2 0x109E SWAP2 SWAP1 PUSH2 0x19AC JUMP JUMPDEST SWAP1 POP PUSH10 0x21E19E0C9BAB2400000 DUP2 LT PUSH2 0x10BA JUMPI POP PUSH1 0x3 SWAP3 SWAP2 POP POP JUMP JUMPDEST PUSH9 0x3635C9ADC5DEA00000 DUP2 LT PUSH2 0x10D3 JUMPI POP PUSH1 0x2 SWAP3 SWAP2 POP POP JUMP JUMPDEST PUSH9 0x56BC75E2D63100000 DUP2 LT PUSH2 0x10EC JUMPI POP PUSH1 0x1 SWAP3 SWAP2 POP POP JUMP JUMPDEST POP PUSH0 SWAP3 SWAP2 POP POP JUMP JUMPDEST PUSH0 SWAP2 DUP3 MSTORE PUSH1 0x1 PUSH1 0x20 SWAP1 DUP2 MSTORE PUSH1 0x40 DUP1 DUP5 KECCAK256 PUSH1 0x1 PUSH1 0x1 PUSH1 0xA0 SHL SUB SWAP4 SWAP1 SWAP4 AND DUP5 MSTORE SWAP2 SWAP1 MSTORE SWAP1 KECCAK256 SLOAD PUSH1 0xFF AND SWAP1 JUMP JUMPDEST PUSH0 DUP2 DUP2 MSTORE PUSH1 0x8 PUSH1 0x20 SWAP1 DUP2 MSTORE PUSH1 0x40 DUP1 DUP4 KECCAK256 DUP1 SLOAD DUP3 MLOAD DUP2 DUP6 MUL DUP2 ADD DUP6 ADD SWAP1 SWAP4 MSTORE DUP1 DUP4 MSTORE DUP5 SWAP4 DUP4 ADD DUP3 DUP3 DUP1 ISZERO PUSH2 0x116E JUMPI PUSH1 0x20 MUL DUP3 ADD SWAP2 SWAP1 PUSH0 MSTORE PUSH1 0x20 PUSH0 KECCAK256 SWAP1 JUMPDEST DUP2 SLOAD DUP2 MSTORE PUSH1 0x20 ADD SWAP1 PUSH1 0x1 ADD SWAP1 DUP1 DUP4 GT PUSH2 0x115A JUMPI JUMPDEST POP POP POP POP POP SWAP1 POP PUSH0 JUMPDEST DUP2 MLOAD DUP2 LT ISZERO PUSH2 0x1228 JUMPI PUSH0 PUSH1 0x3 PUSH0 DUP5 DUP5 DUP2 MLOAD DUP2 LT PUSH2 0x1196 JUMPI PUSH2 0x1196 PUSH2 0x19C3 JUMP JUMPDEST PUSH1 0x20 MUL PUSH1 0x20 ADD ADD MLOAD DUP2 MSTORE PUSH1 0x20 ADD SWAP1 DUP2 MSTORE PUSH1 0x20 ADD PUSH0 KECCAK256 SWAP1 POP PUSH0 DUP2 PUSH1 0x2 ADD SLOAD GT DUP1 ISZERO PUSH2 0x11C5 JUMPI POP PUSH1 0x5 DUP2 ADD SLOAD PUSH1 0xFF AND ISZERO JUMPDEST ISZERO PUSH2 0x121F JUMPI PUSH1 0x4 DUP2 ADD SLOAD PUSH1 0x64 SWAP1 PUSH3 0x76A700 GT PUSH2 0x11E3 JUMPI POP PUSH1 0xC8 PUSH2 0x11F5 JUMP JUMPDEST PUSH3 0x278D00 DUP3 PUSH1 0x4 ADD SLOAD LT PUSH2 0x11F5 JUMPI POP PUSH1 0x96 JUMPDEST PUSH1 0x64 DUP2 DUP4 PUSH1 0x2 ADD SLOAD PUSH2 0x1207 SWAP2 SWAP1 PUSH2 0x1976 JUMP JUMPDEST PUSH2 0x1211 SWAP2 SWAP1 PUSH2 0x198D JUMP JUMPDEST PUSH2 0x121B SWAP1 DUP7 PUSH2 0x1950 JUMP JUMPDEST SWAP5 POP POP JUMPDEST POP PUSH1 0x1 ADD PUSH2 0x1177 JUMP JUMPDEST POP POP SWAP2 SWAP1 POP JUMP JUMPDEST PUSH0 DUP3 DUP2 MSTORE PUSH1 0x1 PUSH1 0x20 DUP2 SWAP1 MSTORE PUSH1 0x40 SWAP1 SWAP2 KECCAK256 ADD SLOAD PUSH2 0x124A DUP2 PUSH2 0x159C JUMP JUMPDEST PUSH2 0xD00 DUP4 DUP4 PUSH2 0x16AB JUMP JUMPDEST PUSH32 0x68E79A7BF1E0BC45D0A330C573BC367F9CF464FD326078812F301165FBDA4EF1 PUSH2 0x127E DUP2 PUSH2 0x159C JUMP JUMPDEST PUSH2 0x1286 PUSH2 0x15A6 JUMP JUMPDEST PUSH0 DUP3 DUP2 MSTORE PUSH1 0x3 PUSH1 0x20 MSTORE PUSH1 0x40 SWAP1 KECCAK256 PUSH1 0x5 DUP2 ADD SLOAD PUSH1 0xFF AND ISZERO PUSH2 0x12DA JUMPI PUSH1 0x40 MLOAD PUSH3 0x461BCD PUSH1 0xE5 SHL DUP2 MSTORE PUSH1 0x20 PUSH1 0x4 DUP3 ADD MSTORE PUSH1 0xF PUSH1 0x24 DUP3 ADD MSTORE PUSH15 0x105B1C9958591E481CDB185CDA1959 PUSH1 0x8A SHL PUSH1 0x44 DUP3 ADD MSTORE PUSH1 0x64 ADD PUSH2 0x6B3 JUMP JUMPDEST PUSH0 DUP2 PUSH1 0x2 ADD SLOAD GT PUSH2 0x131E JUMPI PUSH1 0x40 MLOAD PUSH3 0x461BCD PUSH1 0xE5 SHL DUP2 MSTORE PUSH1 0x20 PUSH1 0x4 DUP3 ADD MSTORE PUSH1 0xE PUSH1 0x24 DUP3 ADD MSTORE PUSH14 0x139BC81CDD185AD948199BDD5B99 PUSH1 0x92 SHL PUSH1 0x44 DUP3 ADD MSTORE PUSH1 0x64 ADD PUSH2 0x6B3 JUMP JUMPDEST PUSH1 0x2 DUP2 ADD DUP1 SLOAD DUP3 SLOAD PUSH1 0x1 DUP1 DUP6 ADD SLOAD PUSH1 0x5 DUP7 ADD DUP1 SLOAD PUSH1 0xFF NOT AND SWAP1 SWAP3 OR SWAP1 SWAP2 SSTORE PUSH0 SWAP4 DUP5 SWAP1 SSTORE DUP1 DUP5 MSTORE PUSH1 0x4 PUSH1 0x20 MSTORE PUSH1 0x40 DUP5 KECCAK256 DUP1 SLOAD SWAP4 SWAP5 PUSH1 0x1 PUSH1 0x1 PUSH1 0xA0 SHL SUB SWAP1 SWAP4 AND SWAP4 SWAP2 SWAP3 DUP6 SWAP3 PUSH2 0x136C SWAP1 DUP5 SWAP1 PUSH2 0x1963 JUMP JUMPDEST SWAP1 SWAP2 SSTORE POP POP PUSH1 0x1 PUSH1 0x1 PUSH1 0xA0 SHL SUB DUP3 AND PUSH0 SWAP1 DUP2 MSTORE PUSH1 0x5 PUSH1 0x20 MSTORE PUSH1 0x40 DUP2 KECCAK256 DUP1 SLOAD DUP6 SWAP3 SWAP1 PUSH2 0x1398 SWAP1 DUP5 SWAP1 PUSH2 0x1963 JUMP JUMPDEST SWAP1 SWAP2 SSTORE POP POP PUSH1 0x1 PUSH1 0x1 PUSH1 0xA0 SHL SUB DUP3 AND PUSH0 SWAP1 DUP2 MSTORE PUSH1 0x6 PUSH1 0x20 SWAP1 DUP2 MSTORE PUSH1 0x40 DUP1 DUP4 KECCAK256 DUP5 DUP5 MSTORE SWAP1 SWAP2 MSTORE DUP2 KECCAK256 DUP1 SLOAD DUP6 SWAP3 SWAP1 PUSH2 0x13CF SWAP1 DUP5 SWAP1 PUSH2 0x1963 JUMP JUMPDEST SWAP3 POP POP DUP2 SWAP1 SSTORE POP DUP3 PUSH1 0x9 PUSH0 DUP3 DUP3 SLOAD PUSH2 0x13E7 SWAP2 SWAP1 PUSH2 0x1963 JUMP JUMPDEST SWAP1 SWAP2 SSTORE POP POP PUSH1 0x40 MLOAD ADDRESS PUSH1 0x24 DUP3 ADD MSTORE PUSH1 0x44 DUP2 ADD DUP5 SWAP1 MSTORE PUSH0 SWAP1 PUSH1 0x1 PUSH1 0x1 PUSH1 0xA0 SHL SUB PUSH32 0x0 AND SWAP1 PUSH1 0x64 ADD PUSH1 0x40 DUP1 MLOAD PUSH1 0x1F NOT DUP2 DUP5 SUB ADD DUP2 MSTORE SWAP2 DUP2 MSTORE PUSH1 0x20 DUP3 ADD DUP1 MLOAD PUSH1 0x1 PUSH1 0x1 PUSH1 0xE0 SHL SUB AND PUSH4 0x79CC679 PUSH1 0xE4 SHL OR SWAP1 MSTORE MLOAD PUSH2 0x1461 SWAP2 SWAP1 PUSH2 0x19D7 JUMP JUMPDEST PUSH0 PUSH1 0x40 MLOAD DUP1 DUP4 SUB DUP2 PUSH0 DUP7 GAS CALL SWAP2 POP POP RETURNDATASIZE DUP1 PUSH0 DUP2 EQ PUSH2 0x149A JUMPI PUSH1 0x40 MLOAD SWAP2 POP PUSH1 0x1F NOT PUSH1 0x3F RETURNDATASIZE ADD AND DUP3 ADD PUSH1 0x40 MSTORE RETURNDATASIZE DUP3 MSTORE RETURNDATASIZE PUSH0 PUSH1 0x20 DUP5 ADD RETURNDATACOPY PUSH2 0x149F JUMP JUMPDEST PUSH1 0x60 SWAP2 POP JUMPDEST POP POP SWAP1 POP DUP1 PUSH2 0x14DE JUMPI PUSH1 0x40 MLOAD PUSH3 0x461BCD PUSH1 0xE5 SHL DUP2 MSTORE PUSH1 0x20 PUSH1 0x4 DUP3 ADD MSTORE PUSH1 0xB PUSH1 0x24 DUP3 ADD MSTORE PUSH11 0x109D5C9B8819985A5B1959 PUSH1 0xAA SHL PUSH1 0x44 DUP3 ADD MSTORE PUSH1 0x64 ADD PUSH2 0x6B3 JUMP JUMPDEST DUP2 DUP4 PUSH1 0x1 PUSH1 0x1 PUSH1 0xA0 SHL SUB AND DUP9 PUSH32 0xB03FDA3FE1B79698DE7994CEF2871F268C3AA583108EE8AE3D0742F8E49BCF9B DUP8 PUSH1 0x40 MLOAD PUSH2 0x151B SWAP2 DUP2 MSTORE PUSH1 0x20 ADD SWAP1 JUMP JUMPDEST PUSH1 0x40 MLOAD DUP1 SWAP2 SUB SWAP1 LOG4 POP POP POP POP POP PUSH2 0x1531 PUSH1 0x1 PUSH0 SSTORE JUMP JUMPDEST POP POP JUMP JUMPDEST PUSH1 0x1 PUSH1 0x1 PUSH1 0xA0 SHL SUB DUP2 AND PUSH0 SWAP1 DUP2 MSTORE PUSH1 0x7 PUSH1 0x20 SWAP1 DUP2 MSTORE PUSH1 0x40 SWAP2 DUP3 SWAP1 KECCAK256 DUP1 SLOAD DUP4 MLOAD DUP2 DUP5 MUL DUP2 ADD DUP5 ADD SWAP1 SWAP5 MSTORE DUP1 DUP5 MSTORE PUSH1 0x60 SWAP4 SWAP3 DUP4 ADD DUP3 DUP3 DUP1 ISZERO PUSH2 0x782 JUMPI PUSH1 0x20 MUL DUP3 ADD SWAP2 SWAP1 PUSH0 MSTORE PUSH1 0x20 PUSH0 KECCAK256 SWAP1 DUP2 SLOAD DUP2 MSTORE PUSH1 0x20 ADD SWAP1 PUSH1 0x1 ADD SWAP1 DUP1 DUP4 GT PUSH2 0x76E JUMPI POP POP POP POP POP SWAP1 POP SWAP2 SWAP1 POP JUMP JUMPDEST PUSH2 0x1039 DUP2 CALLER PUSH2 0x1747 JUMP JUMPDEST PUSH1 0x2 PUSH0 SLOAD SUB PUSH2 0x15C8 JUMPI PUSH1 0x40 MLOAD PUSH4 0x3EE5AEB5 PUSH1 0xE0 SHL DUP2 MSTORE PUSH1 0x4 ADD PUSH1 0x40 MLOAD DUP1 SWAP2 SUB SWAP1 REVERT JUMPDEST PUSH1 0x2 PUSH0 SSTORE JUMP JUMPDEST PUSH1 0x40 MLOAD PUSH1 0x1 PUSH1 0x1 PUSH1 0xA0 SHL SUB DUP5 DUP2 AND PUSH1 0x24 DUP4 ADD MSTORE DUP4 DUP2 AND PUSH1 0x44 DUP4 ADD MSTORE PUSH1 0x64 DUP3 ADD DUP4 SWAP1 MSTORE PUSH2 0xD00 SWAP2 DUP7 SWAP2 DUP3 AND SWAP1 PUSH4 0x23B872DD SWAP1 PUSH1 0x84 ADD JUMPDEST PUSH1 0x40 MLOAD PUSH1 0x20 DUP2 DUP4 SUB SUB DUP2 MSTORE SWAP1 PUSH1 0x40 MSTORE SWAP2 POP PUSH1 0xE0 SHL PUSH1 0x20 DUP3 ADD DUP1 MLOAD PUSH1 0x1 PUSH1 0x1 PUSH1 0xE0 SHL SUB DUP4 DUP2 DUP4 AND OR DUP4 MSTORE POP POP POP POP PUSH2 0x1780 JUMP JUMPDEST PUSH0 PUSH2 0x1640 DUP4 DUP4 PUSH2 0x10F4 JUMP JUMPDEST PUSH2 0x16A4 JUMPI PUSH0 DUP4 DUP2 MSTORE PUSH1 0x1 PUSH1 0x20 DUP2 DUP2 MSTORE PUSH1 0x40 DUP1 DUP5 KECCAK256 PUSH1 0x1 PUSH1 0x1 PUSH1 0xA0 SHL SUB DUP8 AND DUP1 DUP7 MSTORE SWAP3 MSTORE DUP1 DUP5 KECCAK256 DUP1 SLOAD PUSH1 0xFF NOT AND SWAP1 SWAP4 OR SWAP1 SWAP3 SSTORE SWAP1 MLOAD CALLER SWAP3 DUP7 SWAP2 PUSH32 0x2F8788117E7EFF1D82E926EC794901D17C78024A50270940304540A733656F0D SWAP2 SWAP1 LOG4 POP PUSH1 0x1 PUSH2 0x636 JUMP JUMPDEST POP PUSH0 PUSH2 0x636 JUMP JUMPDEST PUSH0 PUSH2 0x16B6 DUP4 DUP4 PUSH2 0x10F4 JUMP JUMPDEST ISZERO PUSH2 0x16A4 JUMPI PUSH0 DUP4 DUP2 MSTORE PUSH1 0x1 PUSH1 0x20 SWAP1 DUP2 MSTORE PUSH1 0x40 DUP1 DUP4 KECCAK256 PUSH1 0x1 PUSH1 0x1 PUSH1 0xA0 SHL SUB DUP7 AND DUP1 DUP6 MSTORE SWAP3 MSTORE DUP1 DUP4 KECCAK256 DUP1 SLOAD PUSH1 0xFF NOT AND SWAP1 SSTORE MLOAD CALLER SWAP3 DUP7 SWAP2 PUSH32 0xF6391F5C32D9C69D2A47EA670B442974B53935D1EDC7FD64EB21E047A839171B SWAP2 SWAP1 LOG4 POP PUSH1 0x1 PUSH2 0x636 JUMP JUMPDEST PUSH1 0x40 MLOAD PUSH1 0x1 PUSH1 0x1 PUSH1 0xA0 SHL SUB DUP4 DUP2 AND PUSH1 0x24 DUP4 ADD MSTORE PUSH1 0x44 DUP3 ADD DUP4 SWAP1 MSTORE PUSH2 0xD39 SWAP2 DUP6 SWAP2 DUP3 AND SWAP1 PUSH4 0xA9059CBB SWAP1 PUSH1 0x64 ADD PUSH2 0x1603 JUMP JUMPDEST PUSH2 0x1751 DUP3 DUP3 PUSH2 0x10F4 JUMP JUMPDEST PUSH2 0x1531 JUMPI PUSH1 0x40 MLOAD PUSH4 0xE2517D3F PUSH1 0xE0 SHL DUP2 MSTORE PUSH1 0x1 PUSH1 0x1 PUSH1 0xA0 SHL SUB DUP3 AND PUSH1 0x4 DUP3 ADD MSTORE PUSH1 0x24 DUP2 ADD DUP4 SWAP1 MSTORE PUSH1 0x44 ADD PUSH2 0x6B3 JUMP JUMPDEST PUSH0 DUP1 PUSH1 0x20 PUSH0 DUP5 MLOAD PUSH1 0x20 DUP7 ADD PUSH0 DUP9 GAS CALL DUP1 PUSH2 0x179F JUMPI PUSH1 0x40 MLOAD RETURNDATASIZE PUSH0 DUP3 RETURNDATACOPY RETURNDATASIZE DUP2 REVERT JUMPDEST POP POP PUSH0 MLOAD RETURNDATASIZE SWAP2 POP DUP2 ISZERO PUSH2 0x17B6 JUMPI DUP1 PUSH1 0x1 EQ ISZERO PUSH2 0x17C3 JUMP JUMPDEST PUSH1 0x1 PUSH1 0x1 PUSH1 0xA0 SHL SUB DUP5 AND EXTCODESIZE ISZERO JUMPDEST ISZERO PUSH2 0xD00 JUMPI PUSH1 0x40 MLOAD PUSH4 0x5274AFE7 PUSH1 0xE0 SHL DUP2 MSTORE PUSH1 0x1 PUSH1 0x1 PUSH1 0xA0 SHL SUB DUP6 AND PUSH1 0x4 DUP3 ADD MSTORE PUSH1 0x24 ADD PUSH2 0x6B3 JUMP JUMPDEST PUSH0 PUSH1 0x20 DUP3 DUP5 SUB SLT ISZERO PUSH2 0x17FC JUMPI PUSH0 DUP1 REVERT JUMPDEST DUP2 CALLDATALOAD PUSH1 0x1 PUSH1 0x1 PUSH1 0xE0 SHL SUB NOT DUP2 AND DUP2 EQ PUSH2 0xCD4 JUMPI PUSH0 DUP1 REVERT JUMPDEST PUSH0 PUSH1 0x20 DUP3 DUP5 SUB SLT ISZERO PUSH2 0x1823 JUMPI PUSH0 DUP1 REVERT JUMPDEST POP CALLDATALOAD SWAP2 SWAP1 POP JUMP JUMPDEST DUP1 CALLDATALOAD PUSH1 0x1 PUSH1 0x1 PUSH1 0xA0 SHL SUB DUP2 AND DUP2 EQ PUSH2 0x1840 JUMPI PUSH0 DUP1 REVERT JUMPDEST SWAP2 SWAP1 POP JUMP JUMPDEST PUSH0 DUP1 PUSH1 0x40 DUP4 DUP6 SUB SLT ISZERO PUSH2 0x1856 JUMPI PUSH0 DUP1 REVERT JUMPDEST PUSH2 0x185F DUP4 PUSH2 0x182A JUMP JUMPDEST SWAP5 PUSH1 0x20 SWAP4 SWAP1 SWAP4 ADD CALLDATALOAD SWAP4 POP POP POP JUMP JUMPDEST PUSH1 0x20 DUP1 DUP3 MSTORE DUP3 MLOAD DUP3 DUP3 ADD DUP2 SWAP1 MSTORE PUSH0 SWAP2 SWAP1 DUP5 DUP3 ADD SWAP1 PUSH1 0x40 DUP6 ADD SWAP1 DUP5 JUMPDEST DUP2 DUP2 LT ISZERO PUSH2 0x18A4 JUMPI DUP4 MLOAD DUP4 MSTORE SWAP3 DUP5 ADD SWAP3 SWAP2 DUP5 ADD SWAP2 PUSH1 0x1 ADD PUSH2 0x1888 JUMP JUMPDEST POP SWAP1 SWAP7 SWAP6 POP POP POP POP POP POP JUMP JUMPDEST PUSH0 DUP1 PUSH0 PUSH1 0x60 DUP5 DUP7 SUB SLT ISZERO PUSH2 0x18C2 JUMPI PUSH0 DUP1 REVERT JUMPDEST POP POP DUP2 CALLDATALOAD SWAP4 PUSH1 0x20 DUP4 ADD CALLDATALOAD SWAP4 POP PUSH1 0x40 SWAP1 SWAP3 ADD CALLDATALOAD SWAP2 SWAP1 POP JUMP JUMPDEST PUSH0 DUP1 PUSH1 0x40 DUP4 DUP6 SUB SLT ISZERO PUSH2 0x18EA JUMPI PUSH0 DUP1 REVERT JUMPDEST DUP3 CALLDATALOAD SWAP2 POP PUSH2 0x18FA PUSH1 0x20 DUP5 ADD PUSH2 0x182A JUMP JUMPDEST SWAP1 POP SWAP3 POP SWAP3 SWAP1 POP JUMP JUMPDEST PUSH0 DUP1 PUSH1 0x40 DUP4 DUP6 SUB SLT ISZERO PUSH2 0x1914 JUMPI PUSH0 DUP1 REVERT JUMPDEST POP POP DUP1 CALLDATALOAD SWAP3 PUSH1 0x20 SWAP1 SWAP2 ADD CALLDATALOAD SWAP2 POP JUMP JUMPDEST PUSH0 PUSH1 0x20 DUP3 DUP5 SUB SLT ISZERO PUSH2 0x1933 JUMPI PUSH0 DUP1 REVERT JUMPDEST PUSH2 0xCD4 DUP3 PUSH2 0x182A JUMP JUMPDEST PUSH4 0x4E487B71 PUSH1 0xE0 SHL PUSH0 MSTORE PUSH1 0x11 PUSH1 0x4 MSTORE PUSH1 0x24 PUSH0 REVERT JUMPDEST DUP1 DUP3 ADD DUP1 DUP3 GT ISZERO PUSH2 0x636 JUMPI PUSH2 0x636 PUSH2 0x193C JUMP JUMPDEST DUP2 DUP2 SUB DUP2 DUP2 GT ISZERO PUSH2 0x636 JUMPI PUSH2 0x636 PUSH2 0x193C JUMP JUMPDEST DUP1 DUP3 MUL DUP2 ISZERO DUP3 DUP3 DIV DUP5 EQ OR PUSH2 0x636 JUMPI PUSH2 0x636 PUSH2 0x193C JUMP JUMPDEST PUSH0 DUP3 PUSH2 0x19A7 JUMPI PUSH4 0x4E487B71 PUSH1 0xE0 SHL PUSH0 MSTORE PUSH1 0x12 PUSH1 0x4 MSTORE PUSH1 0x24 PUSH0 REVERT JUMPDEST POP DIV SWAP1 JUMP JUMPDEST PUSH0 PUSH1 0x20 DUP3 DUP5 SUB SLT ISZERO PUSH2 0x19BC JUMPI PUSH0 DUP1 REVERT JUMPDEST POP MLOAD SWAP2 SWAP1 POP JUMP JUMPDEST PUSH4 0x4E487B71 PUSH1 0xE0 SHL PUSH0 MSTORE PUSH1 0x32 PUSH1 0x4 MSTORE PUSH1 0x24 PUSH0 REVERT JUMPDEST PUSH0 DUP3 MLOAD PUSH0 JUMPDEST DUP2 DUP2 LT ISZERO PUSH2 0x19F6 JUMPI PUSH1 0x20 DUP2 DUP7 ADD DUP2 ADD MLOAD DUP6 DUP4 ADD MSTORE ADD PUSH2 0x19DC JUMP JUMPDEST POP PUSH0 SWAP3 ADD SWAP2 DUP3 MSTORE POP SWAP2 SWAP1 POP JUMP INVALID LOG2 PUSH5 0x6970667358 0x22 SLT KECCAK256 0xB2 PREVRANDAO 0x24 LOG4 0xF9 BLOBBASEFEE SGT 0x1F 0x25 DUP7 POP 0x28 0xF 0xEB DUP10 PUSH5 0x25256B421A CALLDATALOAD DUP13 NUMBER PUSH13 0xBE2EED152086D064736F6C6343 STOP ADDMOD XOR STOP CALLER "},"methodIdentifiers":{"DEFAULT_ADMIN_ROLE()":"a217fddf","MAX_LOCK_DURATION()":"4f1bfc9e","MAX_PAUSE_DURATION()":"2799657d","MAX_STAKE_PERCENT()":"cd1f6206","MAX_STAKE_PER_AUDITOR()":"5b79872c","MEDIUM_LOCK_DURATION()":"463e5808","MIN_LOCK_DURATION()":"78b4330f","ORACLE_ROLE()":"07e2cea5","PAUSER_ROLE()":"e63ab1e9","TIER_1_THRESHOLD()":"ef2f90cf","TIER_2_THRESHOLD()":"cb9ea337","TIER_3_THRESHOLD()":"00bb6e92","attestations(bytes32)":"940992a3","auditorAttestations(address,uint256)":"228a5ab0","auditorResourceStake(address,bytes32)":"dc9ad57e","auditorTotalStake(address)":"f4f2d034","getAttestation(bytes32)":"a3112a64","getAuditorAttestations(address)":"fc879cd4","getResourceAttestations(bytes32)":"27f8e0e9","getRoleAdmin(bytes32)":"248a9ca3","getTrustScore(bytes32)":"a2cb50ad","getTrustTier(bytes32)":"8e7d8d18","grantRole(bytes32,address)":"2f2ff15d","hasRole(bytes32,address)":"91d14854","pause(uint256)":"136439dd","paused()":"5c975abb","pausedUntil()":"da748b10","renounceRole(bytes32,address)":"36568abe","resourceAttestations(bytes32,uint256)":"6fa8a7a7","resourceTotalStake(bytes32)":"122ca506","revokeRole(bytes32,address)":"d547741f","slash(bytes32)":"f415ed14","stake(bytes32,uint256,uint256)":"2daedd52","supportsInterface(bytes4)":"01ffc9a7","token()":"fc0c546a","totalStaked()":"817b1cd2","unpause()":"3f4ba83a","unstake(bytes32)":"71ed5d1a"}}}}}