{"contracts/ISNADRewardPool.sol":{"ISNADRewardPool":{"abi":[{"inputs":[{"internalType":"address","name":"_isnadToken","type":"address"},{"internalType":"address","name":"_stakingContract","type":"address"}],"stateMutability":"nonpayable","type":"constructor"},{"inputs":[],"name":"AccessControlBadConfirmation","type":"error"},{"inputs":[{"internalType":"address","name":"account","type":"address"},{"internalType":"bytes32","name":"neededRole","type":"bytes32"}],"name":"AccessControlUnauthorizedAccount","type":"error"},{"inputs":[],"name":"ReentrancyGuardReentrantCall","type":"error"},{"inputs":[{"internalType":"address","name":"token","type":"address"}],"name":"SafeERC20FailedOperation","type":"error"},{"anonymous":false,"inputs":[{"indexed":false,"internalType":"uint256","name":"duration","type":"uint256"},{"indexed":false,"internalType":"uint256","name":"multiplier","type":"uint256"}],"name":"LockMultiplierUpdated","type":"event"},{"anonymous":false,"inputs":[{"indexed":true,"internalType":"address","name":"account","type":"address"},{"indexed":false,"internalType":"uint256","name":"until","type":"uint256"}],"name":"Paused","type":"event"},{"anonymous":false,"inputs":[{"indexed":true,"internalType":"address","name":"auditor","type":"address"},{"indexed":false,"internalType":"uint256","name":"amount","type":"uint256"}],"name":"RewardAccrued","type":"event"},{"anonymous":false,"inputs":[{"indexed":true,"internalType":"address","name":"auditor","type":"address"},{"indexed":false,"internalType":"uint256","name":"amount","type":"uint256"}],"name":"RewardClaimed","type":"event"},{"anonymous":false,"inputs":[{"indexed":false,"internalType":"uint256","name":"newRate","type":"uint256"}],"name":"RewardRateUpdated","type":"event"},{"anonymous":false,"inputs":[{"indexed":true,"internalType":"bytes32","name":"role","type":"bytes32"},{"indexed":true,"internalType":"bytes32","name":"previousAdminRole","type":"bytes32"},{"indexed":true,"internalType":"bytes32","name":"newAdminRole","type":"bytes32"}],"name":"RoleAdminChanged","type":"event"},{"anonymous":false,"inputs":[{"indexed":true,"internalType":"bytes32","name":"role","type":"bytes32"},{"indexed":true,"internalType":"address","name":"account","type":"address"},{"indexed":true,"internalType":"address","name":"sender","type":"address"}],"name":"RoleGranted","type":"event"},{"anonymous":false,"inputs":[{"indexed":true,"internalType":"bytes32","name":"role","type":"bytes32"},{"indexed":true,"internalType":"address","name":"account","type":"address"},{"indexed":true,"internalType":"address","name":"sender","type":"address"}],"name":"RoleRevoked","type":"event"},{"anonymous":false,"inputs":[{"indexed":true,"internalType":"address","name":"account","type":"address"}],"name":"Unpaused","type":"event"},{"inputs":[],"name":"ADMIN_ROLE","outputs":[{"internalType":"bytes32","name":"","type":"bytes32"}],"stateMutability":"view","type":"function"},{"inputs":[],"name":"DEFAULT_ADMIN_ROLE","outputs":[{"internalType":"bytes32","name":"","type":"bytes32"}],"stateMutability":"view","type":"function"},{"inputs":[],"name":"DISTRIBUTOR_ROLE","outputs":[{"internalType":"bytes32","name":"","type":"bytes32"}],"stateMutability":"view","type":"function"},{"inputs":[],"name":"MAX_PAUSE_DURATION","outputs":[{"internalType":"uint256","name":"","type":"uint256"}],"stateMutability":"view","type":"function"},{"inputs":[],"name":"PAUSER_ROLE","outputs":[{"internalType":"bytes32","name":"","type":"bytes32"}],"stateMutability":"view","type":"function"},{"inputs":[{"internalType":"address","name":"auditor","type":"address"},{"internalType":"uint256","name":"stakeAmount","type":"uint256"},{"internalType":"uint256","name":"lockDuration","type":"uint256"}],"name":"accrueRewards","outputs":[],"stateMutability":"nonpayable","type":"function"},{"inputs":[{"internalType":"address","name":"","type":"address"}],"name":"auditorRewards","outputs":[{"internalType":"uint256","name":"totalEarned","type":"uint256"},{"internalType":"uint256","name":"totalClaimed","type":"uint256"},{"internalType":"uint256","name":"lastUpdateTime","type":"uint256"},{"internalType":"uint256","name":"pendingRewards","type":"uint256"}],"stateMutability":"view","type":"function"},{"inputs":[],"name":"claimRewards","outputs":[{"internalType":"uint256","name":"","type":"uint256"}],"stateMutability":"nonpayable","type":"function"},{"inputs":[{"internalType":"uint256","name":"amount","type":"uint256"}],"name":"emergencyWithdraw","outputs":[],"stateMutability":"nonpayable","type":"function"},{"inputs":[{"internalType":"uint256","name":"amount","type":"uint256"}],"name":"fund","outputs":[],"stateMutability":"nonpayable","type":"function"},{"inputs":[{"internalType":"address","name":"auditor","type":"address"}],"name":"getAuditorRewards","outputs":[{"internalType":"uint256","name":"earned","type":"uint256"},{"internalType":"uint256","name":"claimed","type":"uint256"},{"internalType":"uint256","name":"pending","type":"uint256"}],"stateMutability":"view","type":"function"},{"inputs":[{"internalType":"uint256","name":"lockDuration","type":"uint256"}],"name":"getMultiplier","outputs":[{"internalType":"uint256","name":"","type":"uint256"}],"stateMutability":"view","type":"function"},{"inputs":[{"internalType":"bytes32","name":"role","type":"bytes32"}],"name":"getRoleAdmin","outputs":[{"internalType":"bytes32","name":"","type":"bytes32"}],"stateMutability":"view","type":"function"},{"inputs":[{"internalType":"bytes32","name":"role","type":"bytes32"},{"internalType":"address","name":"account","type":"address"}],"name":"grantRole","outputs":[],"stateMutability":"nonpayable","type":"function"},{"inputs":[{"internalType":"bytes32","name":"role","type":"bytes32"},{"internalType":"address","name":"account","type":"address"}],"name":"hasRole","outputs":[{"internalType":"bool","name":"","type":"bool"}],"stateMutability":"view","type":"function"},{"inputs":[],"name":"isnadToken","outputs":[{"internalType":"contract IERC20","name":"","type":"address"}],"stateMutability":"view","type":"function"},{"inputs":[{"internalType":"uint256","name":"","type":"uint256"}],"name":"lockMultipliers","outputs":[{"internalType":"uint256","name":"","type":"uint256"}],"stateMutability":"view","type":"function"},{"inputs":[{"internalType":"uint256","name":"duration","type":"uint256"}],"name":"pause","outputs":[],"stateMutability":"nonpayable","type":"function"},{"inputs":[],"name":"paused","outputs":[{"internalType":"bool","name":"","type":"bool"}],"stateMutability":"view","type":"function"},{"inputs":[],"name":"pausedUntil","outputs":[{"internalType":"uint256","name":"","type":"uint256"}],"stateMutability":"view","type":"function"},{"inputs":[{"internalType":"address","name":"auditor","type":"address"}],"name":"pendingRewards","outputs":[{"internalType":"uint256","name":"","type":"uint256"}],"stateMutability":"view","type":"function"},{"inputs":[],"name":"poolBalance","outputs":[{"internalType":"uint256","name":"","type":"uint256"}],"stateMutability":"view","type":"function"},{"inputs":[{"internalType":"bytes32","name":"role","type":"bytes32"},{"internalType":"address","name":"callerConfirmation","type":"address"}],"name":"renounceRole","outputs":[],"stateMutability":"nonpayable","type":"function"},{"inputs":[{"internalType":"bytes32","name":"role","type":"bytes32"},{"internalType":"address","name":"account","type":"address"}],"name":"revokeRole","outputs":[],"stateMutability":"nonpayable","type":"function"},{"inputs":[],"name":"rewardRatePerSecond","outputs":[{"internalType":"uint256","name":"","type":"uint256"}],"stateMutability":"view","type":"function"},{"inputs":[{"internalType":"uint256","name":"duration","type":"uint256"},{"internalType":"uint256","name":"multiplier","type":"uint256"}],"name":"setLockMultiplier","outputs":[],"stateMutability":"nonpayable","type":"function"},{"inputs":[{"internalType":"uint256","name":"newRate","type":"uint256"}],"name":"setRewardRate","outputs":[],"stateMutability":"nonpayable","type":"function"},{"inputs":[{"internalType":"address","name":"_stakingContract","type":"address"}],"name":"setStakingContract","outputs":[],"stateMutability":"nonpayable","type":"function"},{"inputs":[],"name":"stakingContract","outputs":[{"internalType":"address","name":"","type":"address"}],"stateMutability":"view","type":"function"},{"inputs":[{"internalType":"bytes4","name":"interfaceId","type":"bytes4"}],"name":"supportsInterface","outputs":[{"internalType":"bool","name":"","type":"bool"}],"stateMutability":"view","type":"function"},{"inputs":[],"name":"totalClaimed","outputs":[{"internalType":"uint256","name":"","type":"uint256"}],"stateMutability":"view","type":"function"},{"inputs":[],"name":"totalDistributed","outputs":[{"internalType":"uint256","name":"","type":"uint256"}],"stateMutability":"view","type":"function"},{"inputs":[],"name":"unpause","outputs":[],"stateMutability":"nonpayable","type":"function"}],"evm":{"bytecode":{"linkReferences":{},"object":"60a060405263bd014d7e60045534801562000018575f80fd5b50604051620016d9380380620016d98339810160408190526200003b9162000332565b60016002556001600160a01b0382166200008c5760405162461bcd60e51b815260206004820152600d60248201526c24b73b30b634b2103a37b5b2b760991b60448201526064015b60405180910390fd5b6001600160a01b038116620000e45760405162461bcd60e51b815260206004820152601860248201527f496e76616c6964207374616b696e6720636f6e74726163740000000000000000604482015260640162000083565b6001600160a01b03828116608052600380546001600160a01b031916918316919091179055620001155f336200026a565b50620001427fa49807205ce4d355092ef5a8a18f56e8913cf4a201fbe287825b095693c21775336200026a565b506200016f7f65d7a28e3265b37a6474929f336521b332c1681b933f6cb9f3376673440d862a336200026a565b506200019c7ffbd454f36a7e1a388bd6fc3ab10d434aa4578f811acbbcf33afb1c697486313c826200026a565b50506005602052506127107f4dc90b1db34d812c6b7e8d8f8fa8bb3eabe1414d64af072d5003e9ce2fd01fce556130d47f0b740ecf09416028e8d58e7f9420994d7e551cefb8e874b417a97698911d531155613a987fd740a78bf8b31aadc8a4f4ebc25344c792b4858c94548820131f8435ecc6aa4e55614e207fc7319ee9772ea0042079c858f4e5a9410f161f0e9618faa4fb8566bbec2ec059556301e133805f526175307f2defc5000bd1ce6821731d58e552cdd6e3bfc901970bc0420668b1b7bed556ee5562000368565b5f828152602081815260408083206001600160a01b038516845290915281205460ff166200030d575f838152602081815260408083206001600160a01b03861684529091529020805460ff19166001179055620002c43390565b6001600160a01b0316826001600160a01b0316847f2f8788117e7eff1d82e926ec794901d17c78024a50270940304540a733656f0d60405160405180910390a450600162000310565b505f5b92915050565b80516001600160a01b03811681146200032d575f80fd5b919050565b5f806040838503121562000344575f80fd5b6200034f8362000316565b91506200035f6020840162000316565b90509250929050565b60805161133c6200039d5f395f8181610349015281816107260152818161084f015281816108b90152610a5d015261133c5ff3fe608060405234801561000f575f80fd5b50600436106101f2575f3560e01c806391d1485411610114578063d2afe4ab116100a9578063dd6b21be11610079578063dd6b21be146104a4578063e63ab1e9146104c3578063ee99205c146104ea578063efca2eed146104fd578063f0bd87cc14610506575f80fd5b8063d2afe4ab1461046c578063d547741f1461047f578063d54ad2a114610492578063da748b101461049b575f80fd5b8063a217fddf116100e4578063a217fddf1461042c578063adf8252d14610433578063ca1d209d14610446578063ce3b4e1614610459575f80fd5b806391d14854146103eb57806396365d44146103fe5780639dd373b9146104065780639e447fc614610419575f80fd5b80633f4ba83a1161018a5780635d773b2c1161015a5780635d773b2c1461033b578063619feede1461034457806375b238fc146103835780637ee4d75e14610397575f80fd5b80633f4ba83a146102c65780635312ea8e146102ce5780635743b31a146102e15780635c975abb14610331575f80fd5b80632f2ff15d116101c55780632f2ff15d1461026d57806331d7a2621461028057806336568abe146102ab578063372500ab146102be575f80fd5b806301ffc9a7146101f6578063136439dd1461021e578063248a9ca3146102335780632799657d14610263575b5f80fd5b61020961020436600461115f565b61051a565b60405190151581526020015b60405180910390f35b61023161022c36600461118d565b610550565b005b61025561024136600461118d565b5f9081526020819052604090206001015490565b604051908152602001610215565b61025562093a8081565b61023161027b3660046111bf565b610618565b61025561028e3660046111e9565b6001600160a01b03165f9081526006602052604090206003015490565b6102316102b93660046111bf565b610642565b61025561067a565b610231610792565b6102316102dc36600461118d565b61082b565b6103166102ef3660046111e9565b6001600160a01b03165f908152600660205260409020805460018201546003909201549092565b60408051938452602084019290925290820152606001610215565b6001544210610209565b61025560045481565b61036b7f000000000000000000000000000000000000000000000000000000000000000081565b6040516001600160a01b039091168152602001610215565b6102555f805160206112e783398151915281565b6103cb6103a53660046111e9565b60066020525f908152604090208054600182015460028301546003909301549192909184565b604080519485526020850193909352918301526060820152608001610215565b6102096103f93660046111bf565b61087a565b6102556108a2565b6102316104143660046111e9565b61092f565b61023161042736600461118d565b6109f3565b6102555f81565b61025561044136600461118d565b610a46565b61023161045436600461118d565b610a50565b610231610467366004611202565b610a88565b61023161047a366004611232565b610bc6565b61023161048d3660046111bf565b610c7e565b61025560085481565b61025560015481565b6102556104b236600461118d565b60056020525f908152604090205481565b6102557f65d7a28e3265b37a6474929f336521b332c1681b933f6cb9f3376673440d862a81565b60035461036b906001600160a01b031681565b61025560075481565b6102555f805160206112c783398151915281565b5f6001600160e01b03198216637965db0b60e01b148061054a57506301ffc9a760e01b6001600160e01b03198316145b92915050565b7f65d7a28e3265b37a6474929f336521b332c1681b933f6cb9f3376673440d862a61057a81610ca2565b5f8211801561058c575062093a808211155b6105d05760405162461bcd60e51b815260206004820152601060248201526f24b73b30b634b210323ab930ba34b7b760811b60448201526064015b60405180910390fd5b6105da8242611266565b600181905560405190815233907fab40a374bc51de372200a8bc981af8c9ecdc08dfdaef0bb6e09f88f3c616ef3d9060200160405180910390a25050565b5f8281526020819052604090206001015461063281610ca2565b61063c8383610cac565b50505050565b6001600160a01b038116331461066b5760405163334bd91960e11b815260040160405180910390fd5b6106758282610d3b565b505050565b5f610683610da4565b335f9081526006602052604090204260028201556003810154806106df5760405162461bcd60e51b81526020600482015260136024820152724e6f207265776172647320746f20636c61696d60681b60448201526064016105c7565b5f826003018190555080826001015f8282546106fb9190611266565b925050819055508060085f8282546107139190611266565b9091555061074d90506001600160a01b037f0000000000000000000000000000000000000000000000000000000000000000163383610dcc565b60405181815233907f106f923f993c2149d49b4255ff723acafa1f2d94393f561d3eda32ae348f72419060200160405180910390a291505061078f6001600255565b90565b7f65d7a28e3265b37a6474929f336521b332c1681b933f6cb9f3376673440d862a6107bc81610ca2565b60015442106107fa5760405162461bcd60e51b815260206004820152600a602482015269139bdd081c185d5cd95960b21b60448201526064016105c7565b5f600181905560405133917f5db9ee0a495bf2e6ff9c91a7834c1ba4fdd244a5e8aa4e537bd38aeae4b073aa91a250565b5f805160206112e783398151915261084281610ca2565b6108766001600160a01b037f0000000000000000000000000000000000000000000000000000000000000000163384610dcc565b5050565b5f918252602082815260408084206001600160a01b0393909316845291905290205460ff1690565b6040516370a0823160e01b81523060048201525f907f00000000000000000000000000000000000000000000000000000000000000006001600160a01b0316906370a0823190602401602060405180830381865afa158015610906573d5f803e3d5ffd5b505050506040513d601f19601f8201168201806040525081019061092a9190611279565b905090565b5f805160206112e783398151915261094681610ca2565b6001600160a01b03821661099c5760405162461bcd60e51b815260206004820152601860248201527f496e76616c6964207374616b696e6720636f6e7472616374000000000000000060448201526064016105c7565b6003546109c0905f805160206112c7833981519152906001600160a01b0316610d3b565b50600380546001600160a01b0319166001600160a01b0384161790556106755f805160206112c783398151915283610cac565b5f805160206112e7833981519152610a0a81610ca2565b60048290556040518281527f41d466ebd06fb97e7786086ac8b69b7eb7da798592036251291d34e9791cde019060200160405180910390a15050565b5f61054a82610e2b565b610a856001600160a01b037f000000000000000000000000000000000000000000000000000000000000000016333084611081565b50565b5f805160206112c7833981519152610a9f81610ca2565b610ac2846001600160a01b03165f90815260066020526040902042600290910155565b5f610acc83610e2b565b90505f69021e19e0c9bab2400000828560045488610aea9190611290565b610af49190611290565b610afe9190611290565b610b0891906112a7565b6001600160a01b0387165f90815260066020526040812060030180549293508392909190610b37908490611266565b90915550506001600160a01b0386165f9081526006602052604081208054839290610b63908490611266565b925050819055508060075f828254610b7b9190611266565b90915550506040518181526001600160a01b038716907f578afab8065b30a5e9827120e4905b8a1810e180d2f793ca54af6f7633f4e57a9060200160405180910390a2505050505050565b5f805160206112e7833981519152610bdd81610ca2565b612710821015610c2f5760405162461bcd60e51b815260206004820152601860248201527f4d756c7469706c696572206d757374206265203e3d203178000000000000000060448201526064016105c7565b5f8381526005602090815260409182902084905581518581529081018490527fb9a8cb2a3c650e62cbf065d89dedabba2097cde303347e57f0823c70753e4741910160405180910390a1505050565b5f82815260208190526040902060010154610c9881610ca2565b61063c8383610d3b565b610a8581336110ba565b5f610cb7838361087a565b610d34575f838152602081815260408083206001600160a01b03861684529091529020805460ff19166001179055610cec3390565b6001600160a01b0316826001600160a01b0316847f2f8788117e7eff1d82e926ec794901d17c78024a50270940304540a733656f0d60405160405180910390a450600161054a565b505f61054a565b5f610d46838361087a565b15610d34575f838152602081815260408083206001600160a01b0386168085529252808320805460ff1916905551339286917ff6391f5c32d9c69d2a47ea670b442974b53935d1edc7fd64eb21e047a839171b9190a450600161054a565b6002805403610dc657604051633ee5aeb560e01b815260040160405180910390fd5b60028055565b6040516001600160a01b0383811660248301526044820183905261067591859182169063a9059cbb906064015b604051602081830303815290604052915060e01b6020820180516001600160e01b0383818316178352505050506110f3565b5f6301e133808210158015610e6c57506301e133805f5260056020527f2defc5000bd1ce6821731d58e552cdd6e3bfc901970bc0420668b1b7bed556ee5415155b15610ea45750506301e133805f5260056020527f2defc5000bd1ce6821731d58e552cdd6e3bfc901970bc0420668b1b7bed556ee5490565b62ed4e008210158015610ee2575062ed4e005f5260056020527fc7319ee9772ea0042079c858f4e5a9410f161f0e9618faa4fb8566bbec2ec0595415155b15610f1957505062ed4e005f5260056020527fc7319ee9772ea0042079c858f4e5a9410f161f0e9618faa4fb8566bbec2ec0595490565b6276a7008210158015610f5757506276a7005f5260056020527fd740a78bf8b31aadc8a4f4ebc25344c792b4858c94548820131f8435ecc6aa4e5415155b15610f8e5750506276a7005f5260056020527fd740a78bf8b31aadc8a4f4ebc25344c792b4858c94548820131f8435ecc6aa4e5490565b624f1a008210158015610fcc5750624f1a005f5260056020527f0b740ecf09416028e8d58e7f9420994d7e551cefb8e874b417a97698911d53115415155b15611003575050624f1a005f5260056020527f0b740ecf09416028e8d58e7f9420994d7e551cefb8e874b417a97698911d53115490565b62278d008210158015611041575062278d005f5260056020527f4dc90b1db34d812c6b7e8d8f8fa8bb3eabe1414d64af072d5003e9ce2fd01fce5415155b1561107857505062278d005f5260056020527f4dc90b1db34d812c6b7e8d8f8fa8bb3eabe1414d64af072d5003e9ce2fd01fce5490565b50612710919050565b6040516001600160a01b03848116602483015283811660448301526064820183905261063c9186918216906323b872dd90608401610df9565b6110c4828261087a565b6108765760405163e2517d3f60e01b81526001600160a01b0382166004820152602481018390526044016105c7565b5f8060205f8451602086015f885af180611112576040513d5f823e3d81fd5b50505f513d91508115611129578060011415611136565b6001600160a01b0384163b155b1561063c57604051635274afe760e01b81526001600160a01b03851660048201526024016105c7565b5f6020828403121561116f575f80fd5b81356001600160e01b031981168114611186575f80fd5b9392505050565b5f6020828403121561119d575f80fd5b5035919050565b80356001600160a01b03811681146111ba575f80fd5b919050565b5f80604083850312156111d0575f80fd5b823591506111e0602084016111a4565b90509250929050565b5f602082840312156111f9575f80fd5b611186826111a4565b5f805f60608486031215611214575f80fd5b61121d846111a4565b95602085013595506040909401359392505050565b5f8060408385031215611243575f80fd5b50508035926020909101359150565b634e487b7160e01b5f52601160045260245ffd5b8082018082111561054a5761054a611252565b5f60208284031215611289575f80fd5b5051919050565b808202811582820484141761054a5761054a611252565b5f826112c157634e487b7160e01b5f52601260045260245ffd5b50049056fefbd454f36a7e1a388bd6fc3ab10d434aa4578f811acbbcf33afb1c697486313ca49807205ce4d355092ef5a8a18f56e8913cf4a201fbe287825b095693c21775a264697066735822122084011ae8b6a77e63ca5749237e655b21bdd73453c672d949c49a74b4b230115064736f6c63430008180033","opcodes":"PUSH1 0xA0 PUSH1 0x40 MSTORE PUSH4 0xBD014D7E PUSH1 0x4 SSTORE CALLVALUE DUP1 ISZERO PUSH3 0x18 JUMPI PUSH0 DUP1 REVERT JUMPDEST POP PUSH1 0x40 MLOAD PUSH3 0x16D9 CODESIZE SUB DUP1 PUSH3 0x16D9 DUP4 CODECOPY DUP2 ADD PUSH1 0x40 DUP2 SWAP1 MSTORE PUSH3 0x3B SWAP2 PUSH3 0x332 JUMP JUMPDEST PUSH1 0x1 PUSH1 0x2 SSTORE PUSH1 0x1 PUSH1 0x1 PUSH1 0xA0 SHL SUB DUP3 AND PUSH3 0x8C JUMPI PUSH1 0x40 MLOAD PUSH3 0x461BCD PUSH1 0xE5 SHL DUP2 MSTORE PUSH1 0x20 PUSH1 0x4 DUP3 ADD MSTORE PUSH1 0xD PUSH1 0x24 DUP3 ADD MSTORE PUSH13 0x24B73B30B634B2103A37B5B2B7 PUSH1 0x99 SHL PUSH1 0x44 DUP3 ADD MSTORE PUSH1 0x64 ADD JUMPDEST PUSH1 0x40 MLOAD DUP1 SWAP2 SUB SWAP1 REVERT JUMPDEST PUSH1 0x1 PUSH1 0x1 PUSH1 0xA0 SHL SUB DUP2 AND PUSH3 0xE4 JUMPI PUSH1 0x40 MLOAD PUSH3 0x461BCD PUSH1 0xE5 SHL DUP2 MSTORE PUSH1 0x20 PUSH1 0x4 DUP3 ADD MSTORE PUSH1 0x18 PUSH1 0x24 DUP3 ADD MSTORE PUSH32 0x496E76616C6964207374616B696E6720636F6E74726163740000000000000000 PUSH1 0x44 DUP3 ADD MSTORE PUSH1 0x64 ADD PUSH3 0x83 JUMP JUMPDEST PUSH1 0x1 PUSH1 0x1 PUSH1 0xA0 SHL SUB DUP3 DUP2 AND PUSH1 0x80 MSTORE PUSH1 0x3 DUP1 SLOAD PUSH1 0x1 PUSH1 0x1 PUSH1 0xA0 SHL SUB NOT AND SWAP2 DUP4 AND SWAP2 SWAP1 SWAP2 OR SWAP1 SSTORE PUSH3 0x115 PUSH0 CALLER PUSH3 0x26A JUMP JUMPDEST POP PUSH3 0x142 PUSH32 0xA49807205CE4D355092EF5A8A18F56E8913CF4A201FBE287825B095693C21775 CALLER PUSH3 0x26A JUMP JUMPDEST POP PUSH3 0x16F PUSH32 0x65D7A28E3265B37A6474929F336521B332C1681B933F6CB9F3376673440D862A CALLER PUSH3 0x26A JUMP JUMPDEST POP PUSH3 0x19C PUSH32 0xFBD454F36A7E1A388BD6FC3AB10D434AA4578F811ACBBCF33AFB1C697486313C DUP3 PUSH3 0x26A JUMP JUMPDEST POP POP PUSH1 0x5 PUSH1 0x20 MSTORE POP PUSH2 0x2710 PUSH32 0x4DC90B1DB34D812C6B7E8D8F8FA8BB3EABE1414D64AF072D5003E9CE2FD01FCE SSTORE PUSH2 0x30D4 PUSH32 0xB740ECF09416028E8D58E7F9420994D7E551CEFB8E874B417A97698911D5311 SSTORE PUSH2 0x3A98 PUSH32 0xD740A78BF8B31AADC8A4F4EBC25344C792B4858C94548820131F8435ECC6AA4E SSTORE PUSH2 0x4E20 PUSH32 0xC7319EE9772EA0042079C858F4E5A9410F161F0E9618FAA4FB8566BBEC2EC059 SSTORE PUSH4 0x1E13380 PUSH0 MSTORE PUSH2 0x7530 PUSH32 0x2DEFC5000BD1CE6821731D58E552CDD6E3BFC901970BC0420668B1B7BED556EE SSTORE PUSH3 0x368 JUMP JUMPDEST PUSH0 DUP3 DUP2 MSTORE PUSH1 0x20 DUP2 DUP2 MSTORE PUSH1 0x40 DUP1 DUP4 KECCAK256 PUSH1 0x1 PUSH1 0x1 PUSH1 0xA0 SHL SUB DUP6 AND DUP5 MSTORE SWAP1 SWAP2 MSTORE DUP2 KECCAK256 SLOAD PUSH1 0xFF AND PUSH3 0x30D JUMPI PUSH0 DUP4 DUP2 MSTORE PUSH1 0x20 DUP2 DUP2 MSTORE PUSH1 0x40 DUP1 DUP4 KECCAK256 PUSH1 0x1 PUSH1 0x1 PUSH1 0xA0 SHL SUB DUP7 AND DUP5 MSTORE SWAP1 SWAP2 MSTORE SWAP1 KECCAK256 DUP1 SLOAD PUSH1 0xFF NOT AND PUSH1 0x1 OR SWAP1 SSTORE PUSH3 0x2C4 CALLER SWAP1 JUMP JUMPDEST PUSH1 0x1 PUSH1 0x1 PUSH1 0xA0 SHL SUB AND DUP3 PUSH1 0x1 PUSH1 0x1 PUSH1 0xA0 SHL SUB AND DUP5 PUSH32 0x2F8788117E7EFF1D82E926EC794901D17C78024A50270940304540A733656F0D PUSH1 0x40 MLOAD PUSH1 0x40 MLOAD DUP1 SWAP2 SUB SWAP1 LOG4 POP PUSH1 0x1 PUSH3 0x310 JUMP JUMPDEST POP PUSH0 JUMPDEST SWAP3 SWAP2 POP POP JUMP JUMPDEST DUP1 MLOAD PUSH1 0x1 PUSH1 0x1 PUSH1 0xA0 SHL SUB DUP2 AND DUP2 EQ PUSH3 0x32D JUMPI PUSH0 DUP1 REVERT JUMPDEST SWAP2 SWAP1 POP JUMP JUMPDEST PUSH0 DUP1 PUSH1 0x40 DUP4 DUP6 SUB SLT ISZERO PUSH3 0x344 JUMPI PUSH0 DUP1 REVERT JUMPDEST PUSH3 0x34F DUP4 PUSH3 0x316 JUMP JUMPDEST SWAP2 POP PUSH3 0x35F PUSH1 0x20 DUP5 ADD PUSH3 0x316 JUMP JUMPDEST SWAP1 POP SWAP3 POP SWAP3 SWAP1 POP JUMP JUMPDEST PUSH1 0x80 MLOAD PUSH2 0x133C PUSH3 0x39D PUSH0 CODECOPY PUSH0 DUP2 DUP2 PUSH2 0x349 ADD MSTORE DUP2 DUP2 PUSH2 0x726 ADD MSTORE DUP2 DUP2 PUSH2 0x84F ADD MSTORE DUP2 DUP2 PUSH2 0x8B9 ADD MSTORE PUSH2 0xA5D ADD MSTORE PUSH2 0x133C PUSH0 RETURN INVALID PUSH1 0x80 PUSH1 0x40 MSTORE CALLVALUE DUP1 ISZERO PUSH2 0xF JUMPI PUSH0 DUP1 REVERT JUMPDEST POP PUSH1 0x4 CALLDATASIZE LT PUSH2 0x1F2 JUMPI PUSH0 CALLDATALOAD PUSH1 0xE0 SHR DUP1 PUSH4 0x91D14854 GT PUSH2 0x114 JUMPI DUP1 PUSH4 0xD2AFE4AB GT PUSH2 0xA9 JUMPI DUP1 PUSH4 0xDD6B21BE GT PUSH2 0x79 JUMPI DUP1 PUSH4 0xDD6B21BE EQ PUSH2 0x4A4 JUMPI DUP1 PUSH4 0xE63AB1E9 EQ PUSH2 0x4C3 JUMPI DUP1 PUSH4 0xEE99205C EQ PUSH2 0x4EA JUMPI DUP1 PUSH4 0xEFCA2EED EQ PUSH2 0x4FD JUMPI DUP1 PUSH4 0xF0BD87CC EQ PUSH2 0x506 JUMPI PUSH0 DUP1 REVERT JUMPDEST DUP1 PUSH4 0xD2AFE4AB EQ PUSH2 0x46C JUMPI DUP1 PUSH4 0xD547741F EQ PUSH2 0x47F JUMPI DUP1 PUSH4 0xD54AD2A1 EQ PUSH2 0x492 JUMPI DUP1 PUSH4 0xDA748B10 EQ PUSH2 0x49B JUMPI PUSH0 DUP1 REVERT JUMPDEST DUP1 PUSH4 0xA217FDDF GT PUSH2 0xE4 JUMPI DUP1 PUSH4 0xA217FDDF EQ PUSH2 0x42C JUMPI DUP1 PUSH4 0xADF8252D EQ PUSH2 0x433 JUMPI DUP1 PUSH4 0xCA1D209D EQ PUSH2 0x446 JUMPI DUP1 PUSH4 0xCE3B4E16 EQ PUSH2 0x459 JUMPI PUSH0 DUP1 REVERT JUMPDEST DUP1 PUSH4 0x91D14854 EQ PUSH2 0x3EB JUMPI DUP1 PUSH4 0x96365D44 EQ PUSH2 0x3FE JUMPI DUP1 PUSH4 0x9DD373B9 EQ PUSH2 0x406 JUMPI DUP1 PUSH4 0x9E447FC6 EQ PUSH2 0x419 JUMPI PUSH0 DUP1 REVERT JUMPDEST DUP1 PUSH4 0x3F4BA83A GT PUSH2 0x18A JUMPI DUP1 PUSH4 0x5D773B2C GT PUSH2 0x15A JUMPI DUP1 PUSH4 0x5D773B2C EQ PUSH2 0x33B JUMPI DUP1 PUSH4 0x619FEEDE EQ PUSH2 0x344 JUMPI DUP1 PUSH4 0x75B238FC EQ PUSH2 0x383 JUMPI DUP1 PUSH4 0x7EE4D75E EQ PUSH2 0x397 JUMPI PUSH0 DUP1 REVERT JUMPDEST DUP1 PUSH4 0x3F4BA83A EQ PUSH2 0x2C6 JUMPI DUP1 PUSH4 0x5312EA8E EQ PUSH2 0x2CE JUMPI DUP1 PUSH4 0x5743B31A EQ PUSH2 0x2E1 JUMPI DUP1 PUSH4 0x5C975ABB EQ PUSH2 0x331 JUMPI PUSH0 DUP1 REVERT JUMPDEST DUP1 PUSH4 0x2F2FF15D GT PUSH2 0x1C5 JUMPI DUP1 PUSH4 0x2F2FF15D EQ PUSH2 0x26D JUMPI DUP1 PUSH4 0x31D7A262 EQ PUSH2 0x280 JUMPI DUP1 PUSH4 0x36568ABE EQ PUSH2 0x2AB JUMPI DUP1 PUSH4 0x372500AB EQ PUSH2 0x2BE JUMPI PUSH0 DUP1 REVERT JUMPDEST DUP1 PUSH4 0x1FFC9A7 EQ PUSH2 0x1F6 JUMPI DUP1 PUSH4 0x136439DD EQ PUSH2 0x21E JUMPI DUP1 PUSH4 0x248A9CA3 EQ PUSH2 0x233 JUMPI DUP1 PUSH4 0x2799657D EQ PUSH2 0x263 JUMPI JUMPDEST PUSH0 DUP1 REVERT JUMPDEST PUSH2 0x209 PUSH2 0x204 CALLDATASIZE PUSH1 0x4 PUSH2 0x115F JUMP JUMPDEST PUSH2 0x51A JUMP JUMPDEST PUSH1 0x40 MLOAD SWAP1 ISZERO ISZERO DUP2 MSTORE PUSH1 0x20 ADD JUMPDEST PUSH1 0x40 MLOAD DUP1 SWAP2 SUB SWAP1 RETURN JUMPDEST PUSH2 0x231 PUSH2 0x22C CALLDATASIZE PUSH1 0x4 PUSH2 0x118D JUMP JUMPDEST PUSH2 0x550 JUMP JUMPDEST STOP JUMPDEST PUSH2 0x255 PUSH2 0x241 CALLDATASIZE PUSH1 0x4 PUSH2 0x118D JUMP JUMPDEST PUSH0 SWAP1 DUP2 MSTORE PUSH1 0x20 DUP2 SWAP1 MSTORE PUSH1 0x40 SWAP1 KECCAK256 PUSH1 0x1 ADD SLOAD SWAP1 JUMP JUMPDEST PUSH1 0x40 MLOAD SWAP1 DUP2 MSTORE PUSH1 0x20 ADD PUSH2 0x215 JUMP JUMPDEST PUSH2 0x255 PUSH3 0x93A80 DUP2 JUMP JUMPDEST PUSH2 0x231 PUSH2 0x27B CALLDATASIZE PUSH1 0x4 PUSH2 0x11BF JUMP JUMPDEST PUSH2 0x618 JUMP JUMPDEST PUSH2 0x255 PUSH2 0x28E CALLDATASIZE PUSH1 0x4 PUSH2 0x11E9 JUMP JUMPDEST PUSH1 0x1 PUSH1 0x1 PUSH1 0xA0 SHL SUB AND PUSH0 SWAP1 DUP2 MSTORE PUSH1 0x6 PUSH1 0x20 MSTORE PUSH1 0x40 SWAP1 KECCAK256 PUSH1 0x3 ADD SLOAD SWAP1 JUMP JUMPDEST PUSH2 0x231 PUSH2 0x2B9 CALLDATASIZE PUSH1 0x4 PUSH2 0x11BF JUMP JUMPDEST PUSH2 0x642 JUMP JUMPDEST PUSH2 0x255 PUSH2 0x67A JUMP JUMPDEST PUSH2 0x231 PUSH2 0x792 JUMP JUMPDEST PUSH2 0x231 PUSH2 0x2DC CALLDATASIZE PUSH1 0x4 PUSH2 0x118D JUMP JUMPDEST PUSH2 0x82B JUMP JUMPDEST PUSH2 0x316 PUSH2 0x2EF CALLDATASIZE PUSH1 0x4 PUSH2 0x11E9 JUMP JUMPDEST PUSH1 0x1 PUSH1 0x1 PUSH1 0xA0 SHL SUB AND PUSH0 SWAP1 DUP2 MSTORE PUSH1 0x6 PUSH1 0x20 MSTORE PUSH1 0x40 SWAP1 KECCAK256 DUP1 SLOAD PUSH1 0x1 DUP3 ADD SLOAD PUSH1 0x3 SWAP1 SWAP3 ADD SLOAD SWAP1 SWAP3 JUMP JUMPDEST PUSH1 0x40 DUP1 MLOAD SWAP4 DUP5 MSTORE PUSH1 0x20 DUP5 ADD SWAP3 SWAP1 SWAP3 MSTORE SWAP1 DUP3 ADD MSTORE PUSH1 0x60 ADD PUSH2 0x215 JUMP JUMPDEST PUSH1 0x1 SLOAD TIMESTAMP LT PUSH2 0x209 JUMP JUMPDEST PUSH2 0x255 PUSH1 0x4 SLOAD DUP2 JUMP JUMPDEST PUSH2 0x36B PUSH32 0x0 DUP2 JUMP JUMPDEST PUSH1 0x40 MLOAD PUSH1 0x1 PUSH1 0x1 PUSH1 0xA0 SHL SUB SWAP1 SWAP2 AND DUP2 MSTORE PUSH1 0x20 ADD PUSH2 0x215 JUMP JUMPDEST PUSH2 0x255 PUSH0 DUP1 MLOAD PUSH1 0x20 PUSH2 0x12E7 DUP4 CODECOPY DUP2 MLOAD SWAP2 MSTORE DUP2 JUMP JUMPDEST PUSH2 0x3CB PUSH2 0x3A5 CALLDATASIZE PUSH1 0x4 PUSH2 0x11E9 JUMP JUMPDEST PUSH1 0x6 PUSH1 0x20 MSTORE PUSH0 SWAP1 DUP2 MSTORE PUSH1 0x40 SWAP1 KECCAK256 DUP1 SLOAD PUSH1 0x1 DUP3 ADD SLOAD PUSH1 0x2 DUP4 ADD SLOAD PUSH1 0x3 SWAP1 SWAP4 ADD SLOAD SWAP2 SWAP3 SWAP1 SWAP2 DUP5 JUMP JUMPDEST PUSH1 0x40 DUP1 MLOAD SWAP5 DUP6 MSTORE PUSH1 0x20 DUP6 ADD SWAP4 SWAP1 SWAP4 MSTORE SWAP2 DUP4 ADD MSTORE PUSH1 0x60 DUP3 ADD MSTORE PUSH1 0x80 ADD PUSH2 0x215 JUMP JUMPDEST PUSH2 0x209 PUSH2 0x3F9 CALLDATASIZE PUSH1 0x4 PUSH2 0x11BF JUMP JUMPDEST PUSH2 0x87A JUMP JUMPDEST PUSH2 0x255 PUSH2 0x8A2 JUMP JUMPDEST PUSH2 0x231 PUSH2 0x414 CALLDATASIZE PUSH1 0x4 PUSH2 0x11E9 JUMP JUMPDEST PUSH2 0x92F JUMP JUMPDEST PUSH2 0x231 PUSH2 0x427 CALLDATASIZE PUSH1 0x4 PUSH2 0x118D JUMP JUMPDEST PUSH2 0x9F3 JUMP JUMPDEST PUSH2 0x255 PUSH0 DUP2 JUMP JUMPDEST PUSH2 0x255 PUSH2 0x441 CALLDATASIZE PUSH1 0x4 PUSH2 0x118D JUMP JUMPDEST PUSH2 0xA46 JUMP JUMPDEST PUSH2 0x231 PUSH2 0x454 CALLDATASIZE PUSH1 0x4 PUSH2 0x118D JUMP JUMPDEST PUSH2 0xA50 JUMP JUMPDEST PUSH2 0x231 PUSH2 0x467 CALLDATASIZE PUSH1 0x4 PUSH2 0x1202 JUMP JUMPDEST PUSH2 0xA88 JUMP JUMPDEST PUSH2 0x231 PUSH2 0x47A CALLDATASIZE PUSH1 0x4 PUSH2 0x1232 JUMP JUMPDEST PUSH2 0xBC6 JUMP JUMPDEST PUSH2 0x231 PUSH2 0x48D CALLDATASIZE PUSH1 0x4 PUSH2 0x11BF JUMP JUMPDEST PUSH2 0xC7E JUMP JUMPDEST PUSH2 0x255 PUSH1 0x8 SLOAD DUP2 JUMP JUMPDEST PUSH2 0x255 PUSH1 0x1 SLOAD DUP2 JUMP JUMPDEST PUSH2 0x255 PUSH2 0x4B2 CALLDATASIZE PUSH1 0x4 PUSH2 0x118D JUMP JUMPDEST PUSH1 0x5 PUSH1 0x20 MSTORE PUSH0 SWAP1 DUP2 MSTORE PUSH1 0x40 SWAP1 KECCAK256 SLOAD DUP2 JUMP JUMPDEST PUSH2 0x255 PUSH32 0x65D7A28E3265B37A6474929F336521B332C1681B933F6CB9F3376673440D862A DUP2 JUMP JUMPDEST PUSH1 0x3 SLOAD PUSH2 0x36B SWAP1 PUSH1 0x1 PUSH1 0x1 PUSH1 0xA0 SHL SUB AND DUP2 JUMP JUMPDEST PUSH2 0x255 PUSH1 0x7 SLOAD DUP2 JUMP JUMPDEST PUSH2 0x255 PUSH0 DUP1 MLOAD PUSH1 0x20 PUSH2 0x12C7 DUP4 CODECOPY DUP2 MLOAD SWAP2 MSTORE DUP2 JUMP JUMPDEST PUSH0 PUSH1 0x1 PUSH1 0x1 PUSH1 0xE0 SHL SUB NOT DUP3 AND PUSH4 0x7965DB0B PUSH1 0xE0 SHL EQ DUP1 PUSH2 0x54A JUMPI POP PUSH4 0x1FFC9A7 PUSH1 0xE0 SHL PUSH1 0x1 PUSH1 0x1 PUSH1 0xE0 SHL SUB NOT DUP4 AND EQ JUMPDEST SWAP3 SWAP2 POP POP JUMP JUMPDEST PUSH32 0x65D7A28E3265B37A6474929F336521B332C1681B933F6CB9F3376673440D862A PUSH2 0x57A DUP2 PUSH2 0xCA2 JUMP JUMPDEST PUSH0 DUP3 GT DUP1 ISZERO PUSH2 0x58C JUMPI POP PUSH3 0x93A80 DUP3 GT ISZERO JUMPDEST PUSH2 0x5D0 JUMPI PUSH1 0x40 MLOAD PUSH3 0x461BCD PUSH1 0xE5 SHL DUP2 MSTORE PUSH1 0x20 PUSH1 0x4 DUP3 ADD MSTORE PUSH1 0x10 PUSH1 0x24 DUP3 ADD MSTORE PUSH16 0x24B73B30B634B210323AB930BA34B7B7 PUSH1 0x81 SHL PUSH1 0x44 DUP3 ADD MSTORE PUSH1 0x64 ADD JUMPDEST PUSH1 0x40 MLOAD DUP1 SWAP2 SUB SWAP1 REVERT JUMPDEST PUSH2 0x5DA DUP3 TIMESTAMP PUSH2 0x1266 JUMP JUMPDEST PUSH1 0x1 DUP2 SWAP1 SSTORE PUSH1 0x40 MLOAD SWAP1 DUP2 MSTORE CALLER SWAP1 PUSH32 0xAB40A374BC51DE372200A8BC981AF8C9ECDC08DFDAEF0BB6E09F88F3C616EF3D SWAP1 PUSH1 0x20 ADD PUSH1 0x40 MLOAD DUP1 SWAP2 SUB SWAP1 LOG2 POP POP JUMP JUMPDEST PUSH0 DUP3 DUP2 MSTORE PUSH1 0x20 DUP2 SWAP1 MSTORE PUSH1 0x40 SWAP1 KECCAK256 PUSH1 0x1 ADD SLOAD PUSH2 0x632 DUP2 PUSH2 0xCA2 JUMP JUMPDEST PUSH2 0x63C DUP4 DUP4 PUSH2 0xCAC JUMP JUMPDEST POP POP POP POP JUMP JUMPDEST PUSH1 0x1 PUSH1 0x1 PUSH1 0xA0 SHL SUB DUP2 AND CALLER EQ PUSH2 0x66B JUMPI PUSH1 0x40 MLOAD PUSH4 0x334BD919 PUSH1 0xE1 SHL DUP2 MSTORE PUSH1 0x4 ADD PUSH1 0x40 MLOAD DUP1 SWAP2 SUB SWAP1 REVERT JUMPDEST PUSH2 0x675 DUP3 DUP3 PUSH2 0xD3B JUMP JUMPDEST POP POP POP JUMP JUMPDEST PUSH0 PUSH2 0x683 PUSH2 0xDA4 JUMP JUMPDEST CALLER PUSH0 SWAP1 DUP2 MSTORE PUSH1 0x6 PUSH1 0x20 MSTORE PUSH1 0x40 SWAP1 KECCAK256 TIMESTAMP PUSH1 0x2 DUP3 ADD SSTORE PUSH1 0x3 DUP2 ADD SLOAD DUP1 PUSH2 0x6DF JUMPI PUSH1 0x40 MLOAD PUSH3 0x461BCD PUSH1 0xE5 SHL DUP2 MSTORE PUSH1 0x20 PUSH1 0x4 DUP3 ADD MSTORE PUSH1 0x13 PUSH1 0x24 DUP3 ADD MSTORE PUSH19 0x4E6F207265776172647320746F20636C61696D PUSH1 0x68 SHL PUSH1 0x44 DUP3 ADD MSTORE PUSH1 0x64 ADD PUSH2 0x5C7 JUMP JUMPDEST PUSH0 DUP3 PUSH1 0x3 ADD DUP2 SWAP1 SSTORE POP DUP1 DUP3 PUSH1 0x1 ADD PUSH0 DUP3 DUP3 SLOAD PUSH2 0x6FB SWAP2 SWAP1 PUSH2 0x1266 JUMP JUMPDEST SWAP3 POP POP DUP2 SWAP1 SSTORE POP DUP1 PUSH1 0x8 PUSH0 DUP3 DUP3 SLOAD PUSH2 0x713 SWAP2 SWAP1 PUSH2 0x1266 JUMP JUMPDEST SWAP1 SWAP2 SSTORE POP PUSH2 0x74D SWAP1 POP PUSH1 0x1 PUSH1 0x1 PUSH1 0xA0 SHL SUB PUSH32 0x0 AND CALLER DUP4 PUSH2 0xDCC JUMP JUMPDEST PUSH1 0x40 MLOAD DUP2 DUP2 MSTORE CALLER SWAP1 PUSH32 0x106F923F993C2149D49B4255FF723ACAFA1F2D94393F561D3EDA32AE348F7241 SWAP1 PUSH1 0x20 ADD PUSH1 0x40 MLOAD DUP1 SWAP2 SUB SWAP1 LOG2 SWAP2 POP POP PUSH2 0x78F PUSH1 0x1 PUSH1 0x2 SSTORE JUMP JUMPDEST SWAP1 JUMP JUMPDEST PUSH32 0x65D7A28E3265B37A6474929F336521B332C1681B933F6CB9F3376673440D862A PUSH2 0x7BC DUP2 PUSH2 0xCA2 JUMP JUMPDEST PUSH1 0x1 SLOAD TIMESTAMP LT PUSH2 0x7FA JUMPI PUSH1 0x40 MLOAD PUSH3 0x461BCD PUSH1 0xE5 SHL DUP2 MSTORE PUSH1 0x20 PUSH1 0x4 DUP3 ADD MSTORE PUSH1 0xA PUSH1 0x24 DUP3 ADD MSTORE PUSH10 0x139BDD081C185D5CD959 PUSH1 0xB2 SHL PUSH1 0x44 DUP3 ADD MSTORE PUSH1 0x64 ADD PUSH2 0x5C7 JUMP JUMPDEST PUSH0 PUSH1 0x1 DUP2 SWAP1 SSTORE PUSH1 0x40 MLOAD CALLER SWAP2 PUSH32 0x5DB9EE0A495BF2E6FF9C91A7834C1BA4FDD244A5E8AA4E537BD38AEAE4B073AA SWAP2 LOG2 POP JUMP JUMPDEST PUSH0 DUP1 MLOAD PUSH1 0x20 PUSH2 0x12E7 DUP4 CODECOPY DUP2 MLOAD SWAP2 MSTORE PUSH2 0x842 DUP2 PUSH2 0xCA2 JUMP JUMPDEST PUSH2 0x876 PUSH1 0x1 PUSH1 0x1 PUSH1 0xA0 SHL SUB PUSH32 0x0 AND CALLER DUP5 PUSH2 0xDCC JUMP JUMPDEST POP POP JUMP JUMPDEST PUSH0 SWAP2 DUP3 MSTORE PUSH1 0x20 DUP3 DUP2 MSTORE PUSH1 0x40 DUP1 DUP5 KECCAK256 PUSH1 0x1 PUSH1 0x1 PUSH1 0xA0 SHL SUB SWAP4 SWAP1 SWAP4 AND DUP5 MSTORE SWAP2 SWAP1 MSTORE SWAP1 KECCAK256 SLOAD PUSH1 0xFF AND SWAP1 JUMP JUMPDEST PUSH1 0x40 MLOAD PUSH4 0x70A08231 PUSH1 0xE0 SHL DUP2 MSTORE ADDRESS PUSH1 0x4 DUP3 ADD MSTORE PUSH0 SWAP1 PUSH32 0x0 PUSH1 0x1 PUSH1 0x1 PUSH1 0xA0 SHL SUB AND SWAP1 PUSH4 0x70A08231 SWAP1 PUSH1 0x24 ADD PUSH1 0x20 PUSH1 0x40 MLOAD DUP1 DUP4 SUB DUP2 DUP7 GAS STATICCALL ISZERO DUP1 ISZERO PUSH2 0x906 JUMPI RETURNDATASIZE PUSH0 DUP1 RETURNDATACOPY RETURNDATASIZE PUSH0 REVERT JUMPDEST POP POP POP POP PUSH1 0x40 MLOAD RETURNDATASIZE PUSH1 0x1F NOT PUSH1 0x1F DUP3 ADD AND DUP3 ADD DUP1 PUSH1 0x40 MSTORE POP DUP2 ADD SWAP1 PUSH2 0x92A SWAP2 SWAP1 PUSH2 0x1279 JUMP JUMPDEST SWAP1 POP SWAP1 JUMP JUMPDEST PUSH0 DUP1 MLOAD PUSH1 0x20 PUSH2 0x12E7 DUP4 CODECOPY DUP2 MLOAD SWAP2 MSTORE PUSH2 0x946 DUP2 PUSH2 0xCA2 JUMP JUMPDEST PUSH1 0x1 PUSH1 0x1 PUSH1 0xA0 SHL SUB DUP3 AND PUSH2 0x99C JUMPI PUSH1 0x40 MLOAD PUSH3 0x461BCD PUSH1 0xE5 SHL DUP2 MSTORE PUSH1 0x20 PUSH1 0x4 DUP3 ADD MSTORE PUSH1 0x18 PUSH1 0x24 DUP3 ADD MSTORE PUSH32 0x496E76616C6964207374616B696E6720636F6E74726163740000000000000000 PUSH1 0x44 DUP3 ADD MSTORE PUSH1 0x64 ADD PUSH2 0x5C7 JUMP JUMPDEST PUSH1 0x3 SLOAD PUSH2 0x9C0 SWAP1 PUSH0 DUP1 MLOAD PUSH1 0x20 PUSH2 0x12C7 DUP4 CODECOPY DUP2 MLOAD SWAP2 MSTORE SWAP1 PUSH1 0x1 PUSH1 0x1 PUSH1 0xA0 SHL SUB AND PUSH2 0xD3B JUMP JUMPDEST POP PUSH1 0x3 DUP1 SLOAD PUSH1 0x1 PUSH1 0x1 PUSH1 0xA0 SHL SUB NOT AND PUSH1 0x1 PUSH1 0x1 PUSH1 0xA0 SHL SUB DUP5 AND OR SWAP1 SSTORE PUSH2 0x675 PUSH0 DUP1 MLOAD PUSH1 0x20 PUSH2 0x12C7 DUP4 CODECOPY DUP2 MLOAD SWAP2 MSTORE DUP4 PUSH2 0xCAC JUMP JUMPDEST PUSH0 DUP1 MLOAD PUSH1 0x20 PUSH2 0x12E7 DUP4 CODECOPY DUP2 MLOAD SWAP2 MSTORE PUSH2 0xA0A DUP2 PUSH2 0xCA2 JUMP JUMPDEST PUSH1 0x4 DUP3 SWAP1 SSTORE PUSH1 0x40 MLOAD DUP3 DUP2 MSTORE PUSH32 0x41D466EBD06FB97E7786086AC8B69B7EB7DA798592036251291D34E9791CDE01 SWAP1 PUSH1 0x20 ADD PUSH1 0x40 MLOAD DUP1 SWAP2 SUB SWAP1 LOG1 POP POP JUMP JUMPDEST PUSH0 PUSH2 0x54A DUP3 PUSH2 0xE2B JUMP JUMPDEST PUSH2 0xA85 PUSH1 0x1 PUSH1 0x1 PUSH1 0xA0 SHL SUB PUSH32 0x0 AND CALLER ADDRESS DUP5 PUSH2 0x1081 JUMP JUMPDEST POP JUMP JUMPDEST PUSH0 DUP1 MLOAD PUSH1 0x20 PUSH2 0x12C7 DUP4 CODECOPY DUP2 MLOAD SWAP2 MSTORE PUSH2 0xA9F DUP2 PUSH2 0xCA2 JUMP JUMPDEST PUSH2 0xAC2 DUP5 PUSH1 0x1 PUSH1 0x1 PUSH1 0xA0 SHL SUB AND PUSH0 SWAP1 DUP2 MSTORE PUSH1 0x6 PUSH1 0x20 MSTORE PUSH1 0x40 SWAP1 KECCAK256 TIMESTAMP PUSH1 0x2 SWAP1 SWAP2 ADD SSTORE JUMP JUMPDEST PUSH0 PUSH2 0xACC DUP4 PUSH2 0xE2B JUMP JUMPDEST SWAP1 POP PUSH0 PUSH10 0x21E19E0C9BAB2400000 DUP3 DUP6 PUSH1 0x4 SLOAD DUP9 PUSH2 0xAEA SWAP2 SWAP1 PUSH2 0x1290 JUMP JUMPDEST PUSH2 0xAF4 SWAP2 SWAP1 PUSH2 0x1290 JUMP JUMPDEST PUSH2 0xAFE SWAP2 SWAP1 PUSH2 0x1290 JUMP JUMPDEST PUSH2 0xB08 SWAP2 SWAP1 PUSH2 0x12A7 JUMP JUMPDEST PUSH1 0x1 PUSH1 0x1 PUSH1 0xA0 SHL SUB DUP8 AND PUSH0 SWAP1 DUP2 MSTORE PUSH1 0x6 PUSH1 0x20 MSTORE PUSH1 0x40 DUP2 KECCAK256 PUSH1 0x3 ADD DUP1 SLOAD SWAP3 SWAP4 POP DUP4 SWAP3 SWAP1 SWAP2 SWAP1 PUSH2 0xB37 SWAP1 DUP5 SWAP1 PUSH2 0x1266 JUMP JUMPDEST SWAP1 SWAP2 SSTORE POP POP PUSH1 0x1 PUSH1 0x1 PUSH1 0xA0 SHL SUB DUP7 AND PUSH0 SWAP1 DUP2 MSTORE PUSH1 0x6 PUSH1 0x20 MSTORE PUSH1 0x40 DUP2 KECCAK256 DUP1 SLOAD DUP4 SWAP3 SWAP1 PUSH2 0xB63 SWAP1 DUP5 SWAP1 PUSH2 0x1266 JUMP JUMPDEST SWAP3 POP POP DUP2 SWAP1 SSTORE POP DUP1 PUSH1 0x7 PUSH0 DUP3 DUP3 SLOAD PUSH2 0xB7B SWAP2 SWAP1 PUSH2 0x1266 JUMP JUMPDEST SWAP1 SWAP2 SSTORE POP POP PUSH1 0x40 MLOAD DUP2 DUP2 MSTORE PUSH1 0x1 PUSH1 0x1 PUSH1 0xA0 SHL SUB DUP8 AND SWAP1 PUSH32 0x578AFAB8065B30A5E9827120E4905B8A1810E180D2F793CA54AF6F7633F4E57A SWAP1 PUSH1 0x20 ADD PUSH1 0x40 MLOAD DUP1 SWAP2 SUB SWAP1 LOG2 POP POP POP POP POP POP JUMP JUMPDEST PUSH0 DUP1 MLOAD PUSH1 0x20 PUSH2 0x12E7 DUP4 CODECOPY DUP2 MLOAD SWAP2 MSTORE PUSH2 0xBDD DUP2 PUSH2 0xCA2 JUMP JUMPDEST PUSH2 0x2710 DUP3 LT ISZERO PUSH2 0xC2F JUMPI PUSH1 0x40 MLOAD PUSH3 0x461BCD PUSH1 0xE5 SHL DUP2 MSTORE PUSH1 0x20 PUSH1 0x4 DUP3 ADD MSTORE PUSH1 0x18 PUSH1 0x24 DUP3 ADD MSTORE PUSH32 0x4D756C7469706C696572206D757374206265203E3D2031780000000000000000 PUSH1 0x44 DUP3 ADD MSTORE PUSH1 0x64 ADD PUSH2 0x5C7 JUMP JUMPDEST PUSH0 DUP4 DUP2 MSTORE PUSH1 0x5 PUSH1 0x20 SWAP1 DUP2 MSTORE PUSH1 0x40 SWAP2 DUP3 SWAP1 KECCAK256 DUP5 SWAP1 SSTORE DUP2 MLOAD DUP6 DUP2 MSTORE SWAP1 DUP2 ADD DUP5 SWAP1 MSTORE PUSH32 0xB9A8CB2A3C650E62CBF065D89DEDABBA2097CDE303347E57F0823C70753E4741 SWAP2 ADD PUSH1 0x40 MLOAD DUP1 SWAP2 SUB SWAP1 LOG1 POP POP POP JUMP JUMPDEST PUSH0 DUP3 DUP2 MSTORE PUSH1 0x20 DUP2 SWAP1 MSTORE PUSH1 0x40 SWAP1 KECCAK256 PUSH1 0x1 ADD SLOAD PUSH2 0xC98 DUP2 PUSH2 0xCA2 JUMP JUMPDEST PUSH2 0x63C DUP4 DUP4 PUSH2 0xD3B JUMP JUMPDEST PUSH2 0xA85 DUP2 CALLER PUSH2 0x10BA JUMP JUMPDEST PUSH0 PUSH2 0xCB7 DUP4 DUP4 PUSH2 0x87A JUMP JUMPDEST PUSH2 0xD34 JUMPI PUSH0 DUP4 DUP2 MSTORE PUSH1 0x20 DUP2 DUP2 MSTORE PUSH1 0x40 DUP1 DUP4 KECCAK256 PUSH1 0x1 PUSH1 0x1 PUSH1 0xA0 SHL SUB DUP7 AND DUP5 MSTORE SWAP1 SWAP2 MSTORE SWAP1 KECCAK256 DUP1 SLOAD PUSH1 0xFF NOT AND PUSH1 0x1 OR SWAP1 SSTORE PUSH2 0xCEC CALLER SWAP1 JUMP JUMPDEST PUSH1 0x1 PUSH1 0x1 PUSH1 0xA0 SHL SUB AND DUP3 PUSH1 0x1 PUSH1 0x1 PUSH1 0xA0 SHL SUB AND DUP5 PUSH32 0x2F8788117E7EFF1D82E926EC794901D17C78024A50270940304540A733656F0D PUSH1 0x40 MLOAD PUSH1 0x40 MLOAD DUP1 SWAP2 SUB SWAP1 LOG4 POP PUSH1 0x1 PUSH2 0x54A JUMP JUMPDEST POP PUSH0 PUSH2 0x54A JUMP JUMPDEST PUSH0 PUSH2 0xD46 DUP4 DUP4 PUSH2 0x87A JUMP JUMPDEST ISZERO PUSH2 0xD34 JUMPI PUSH0 DUP4 DUP2 MSTORE PUSH1 0x20 DUP2 DUP2 MSTORE PUSH1 0x40 DUP1 DUP4 KECCAK256 PUSH1 0x1 PUSH1 0x1 PUSH1 0xA0 SHL SUB DUP7 AND DUP1 DUP6 MSTORE SWAP3 MSTORE DUP1 DUP4 KECCAK256 DUP1 SLOAD PUSH1 0xFF NOT AND SWAP1 SSTORE MLOAD CALLER SWAP3 DUP7 SWAP2 PUSH32 0xF6391F5C32D9C69D2A47EA670B442974B53935D1EDC7FD64EB21E047A839171B SWAP2 SWAP1 LOG4 POP PUSH1 0x1 PUSH2 0x54A JUMP JUMPDEST PUSH1 0x2 DUP1 SLOAD SUB PUSH2 0xDC6 JUMPI PUSH1 0x40 MLOAD PUSH4 0x3EE5AEB5 PUSH1 0xE0 SHL DUP2 MSTORE PUSH1 0x4 ADD PUSH1 0x40 MLOAD DUP1 SWAP2 SUB SWAP1 REVERT JUMPDEST PUSH1 0x2 DUP1 SSTORE JUMP JUMPDEST PUSH1 0x40 MLOAD PUSH1 0x1 PUSH1 0x1 PUSH1 0xA0 SHL SUB DUP4 DUP2 AND PUSH1 0x24 DUP4 ADD MSTORE PUSH1 0x44 DUP3 ADD DUP4 SWAP1 MSTORE PUSH2 0x675 SWAP2 DUP6 SWAP2 DUP3 AND SWAP1 PUSH4 0xA9059CBB SWAP1 PUSH1 0x64 ADD JUMPDEST PUSH1 0x40 MLOAD PUSH1 0x20 DUP2 DUP4 SUB SUB DUP2 MSTORE SWAP1 PUSH1 0x40 MSTORE SWAP2 POP PUSH1 0xE0 SHL PUSH1 0x20 DUP3 ADD DUP1 MLOAD PUSH1 0x1 PUSH1 0x1 PUSH1 0xE0 SHL SUB DUP4 DUP2 DUP4 AND OR DUP4 MSTORE POP POP POP POP PUSH2 0x10F3 JUMP JUMPDEST PUSH0 PUSH4 0x1E13380 DUP3 LT ISZERO DUP1 ISZERO PUSH2 0xE6C JUMPI POP PUSH4 0x1E13380 PUSH0 MSTORE PUSH1 0x5 PUSH1 0x20 MSTORE PUSH32 0x2DEFC5000BD1CE6821731D58E552CDD6E3BFC901970BC0420668B1B7BED556EE SLOAD ISZERO ISZERO JUMPDEST ISZERO PUSH2 0xEA4 JUMPI POP POP PUSH4 0x1E13380 PUSH0 MSTORE PUSH1 0x5 PUSH1 0x20 MSTORE PUSH32 0x2DEFC5000BD1CE6821731D58E552CDD6E3BFC901970BC0420668B1B7BED556EE SLOAD SWAP1 JUMP JUMPDEST PUSH3 0xED4E00 DUP3 LT ISZERO DUP1 ISZERO PUSH2 0xEE2 JUMPI POP PUSH3 0xED4E00 PUSH0 MSTORE PUSH1 0x5 PUSH1 0x20 MSTORE PUSH32 0xC7319EE9772EA0042079C858F4E5A9410F161F0E9618FAA4FB8566BBEC2EC059 SLOAD ISZERO ISZERO JUMPDEST ISZERO PUSH2 0xF19 JUMPI POP POP PUSH3 0xED4E00 PUSH0 MSTORE PUSH1 0x5 PUSH1 0x20 MSTORE PUSH32 0xC7319EE9772EA0042079C858F4E5A9410F161F0E9618FAA4FB8566BBEC2EC059 SLOAD SWAP1 JUMP JUMPDEST PUSH3 0x76A700 DUP3 LT ISZERO DUP1 ISZERO PUSH2 0xF57 JUMPI POP PUSH3 0x76A700 PUSH0 MSTORE PUSH1 0x5 PUSH1 0x20 MSTORE PUSH32 0xD740A78BF8B31AADC8A4F4EBC25344C792B4858C94548820131F8435ECC6AA4E SLOAD ISZERO ISZERO JUMPDEST ISZERO PUSH2 0xF8E JUMPI POP POP PUSH3 0x76A700 PUSH0 MSTORE PUSH1 0x5 PUSH1 0x20 MSTORE PUSH32 0xD740A78BF8B31AADC8A4F4EBC25344C792B4858C94548820131F8435ECC6AA4E SLOAD SWAP1 JUMP JUMPDEST PUSH3 0x4F1A00 DUP3 LT ISZERO DUP1 ISZERO PUSH2 0xFCC JUMPI POP PUSH3 0x4F1A00 PUSH0 MSTORE PUSH1 0x5 PUSH1 0x20 MSTORE PUSH32 0xB740ECF09416028E8D58E7F9420994D7E551CEFB8E874B417A97698911D5311 SLOAD ISZERO ISZERO JUMPDEST ISZERO PUSH2 0x1003 JUMPI POP POP PUSH3 0x4F1A00 PUSH0 MSTORE PUSH1 0x5 PUSH1 0x20 MSTORE PUSH32 0xB740ECF09416028E8D58E7F9420994D7E551CEFB8E874B417A97698911D5311 SLOAD SWAP1 JUMP JUMPDEST PUSH3 0x278D00 DUP3 LT ISZERO DUP1 ISZERO PUSH2 0x1041 JUMPI POP PUSH3 0x278D00 PUSH0 MSTORE PUSH1 0x5 PUSH1 0x20 MSTORE PUSH32 0x4DC90B1DB34D812C6B7E8D8F8FA8BB3EABE1414D64AF072D5003E9CE2FD01FCE SLOAD ISZERO ISZERO JUMPDEST ISZERO PUSH2 0x1078 JUMPI POP POP PUSH3 0x278D00 PUSH0 MSTORE PUSH1 0x5 PUSH1 0x20 MSTORE PUSH32 0x4DC90B1DB34D812C6B7E8D8F8FA8BB3EABE1414D64AF072D5003E9CE2FD01FCE SLOAD SWAP1 JUMP JUMPDEST POP PUSH2 0x2710 SWAP2 SWAP1 POP JUMP JUMPDEST PUSH1 0x40 MLOAD PUSH1 0x1 PUSH1 0x1 PUSH1 0xA0 SHL SUB DUP5 DUP2 AND PUSH1 0x24 DUP4 ADD MSTORE DUP4 DUP2 AND PUSH1 0x44 DUP4 ADD MSTORE PUSH1 0x64 DUP3 ADD DUP4 SWAP1 MSTORE PUSH2 0x63C SWAP2 DUP7 SWAP2 DUP3 AND SWAP1 PUSH4 0x23B872DD SWAP1 PUSH1 0x84 ADD PUSH2 0xDF9 JUMP JUMPDEST PUSH2 0x10C4 DUP3 DUP3 PUSH2 0x87A JUMP JUMPDEST PUSH2 0x876 JUMPI PUSH1 0x40 MLOAD PUSH4 0xE2517D3F PUSH1 0xE0 SHL DUP2 MSTORE PUSH1 0x1 PUSH1 0x1 PUSH1 0xA0 SHL SUB DUP3 AND PUSH1 0x4 DUP3 ADD MSTORE PUSH1 0x24 DUP2 ADD DUP4 SWAP1 MSTORE PUSH1 0x44 ADD PUSH2 0x5C7 JUMP JUMPDEST PUSH0 DUP1 PUSH1 0x20 PUSH0 DUP5 MLOAD PUSH1 0x20 DUP7 ADD PUSH0 DUP9 GAS CALL DUP1 PUSH2 0x1112 JUMPI PUSH1 0x40 MLOAD RETURNDATASIZE PUSH0 DUP3 RETURNDATACOPY RETURNDATASIZE DUP2 REVERT JUMPDEST POP POP PUSH0 MLOAD RETURNDATASIZE SWAP2 POP DUP2 ISZERO PUSH2 0x1129 JUMPI DUP1 PUSH1 0x1 EQ ISZERO PUSH2 0x1136 JUMP JUMPDEST PUSH1 0x1 PUSH1 0x1 PUSH1 0xA0 SHL SUB DUP5 AND EXTCODESIZE ISZERO JUMPDEST ISZERO PUSH2 0x63C JUMPI PUSH1 0x40 MLOAD PUSH4 0x5274AFE7 PUSH1 0xE0 SHL DUP2 MSTORE PUSH1 0x1 PUSH1 0x1 PUSH1 0xA0 SHL SUB DUP6 AND PUSH1 0x4 DUP3 ADD MSTORE PUSH1 0x24 ADD PUSH2 0x5C7 JUMP JUMPDEST PUSH0 PUSH1 0x20 DUP3 DUP5 SUB SLT ISZERO PUSH2 0x116F JUMPI PUSH0 DUP1 REVERT JUMPDEST DUP2 CALLDATALOAD PUSH1 0x1 PUSH1 0x1 PUSH1 0xE0 SHL SUB NOT DUP2 AND DUP2 EQ PUSH2 0x1186 JUMPI PUSH0 DUP1 REVERT JUMPDEST SWAP4 SWAP3 POP POP POP JUMP JUMPDEST PUSH0 PUSH1 0x20 DUP3 DUP5 SUB SLT ISZERO PUSH2 0x119D JUMPI PUSH0 DUP1 REVERT JUMPDEST POP CALLDATALOAD SWAP2 SWAP1 POP JUMP JUMPDEST DUP1 CALLDATALOAD PUSH1 0x1 PUSH1 0x1 PUSH1 0xA0 SHL SUB DUP2 AND DUP2 EQ PUSH2 0x11BA JUMPI PUSH0 DUP1 REVERT JUMPDEST SWAP2 SWAP1 POP JUMP JUMPDEST PUSH0 DUP1 PUSH1 0x40 DUP4 DUP6 SUB SLT ISZERO PUSH2 0x11D0 JUMPI PUSH0 DUP1 REVERT JUMPDEST DUP3 CALLDATALOAD SWAP2 POP PUSH2 0x11E0 PUSH1 0x20 DUP5 ADD PUSH2 0x11A4 JUMP JUMPDEST SWAP1 POP SWAP3 POP SWAP3 SWAP1 POP JUMP JUMPDEST PUSH0 PUSH1 0x20 DUP3 DUP5 SUB SLT ISZERO PUSH2 0x11F9 JUMPI PUSH0 DUP1 REVERT JUMPDEST PUSH2 0x1186 DUP3 PUSH2 0x11A4 JUMP JUMPDEST PUSH0 DUP1 PUSH0 PUSH1 0x60 DUP5 DUP7 SUB SLT ISZERO PUSH2 0x1214 JUMPI PUSH0 DUP1 REVERT JUMPDEST PUSH2 0x121D DUP5 PUSH2 0x11A4 JUMP JUMPDEST SWAP6 PUSH1 0x20 DUP6 ADD CALLDATALOAD SWAP6 POP PUSH1 0x40 SWAP1 SWAP5 ADD CALLDATALOAD SWAP4 SWAP3 POP POP POP JUMP JUMPDEST PUSH0 DUP1 PUSH1 0x40 DUP4 DUP6 SUB SLT ISZERO PUSH2 0x1243 JUMPI PUSH0 DUP1 REVERT JUMPDEST POP POP DUP1 CALLDATALOAD SWAP3 PUSH1 0x20 SWAP1 SWAP2 ADD CALLDATALOAD SWAP2 POP JUMP JUMPDEST PUSH4 0x4E487B71 PUSH1 0xE0 SHL PUSH0 MSTORE PUSH1 0x11 PUSH1 0x4 MSTORE PUSH1 0x24 PUSH0 REVERT JUMPDEST DUP1 DUP3 ADD DUP1 DUP3 GT ISZERO PUSH2 0x54A JUMPI PUSH2 0x54A PUSH2 0x1252 JUMP JUMPDEST PUSH0 PUSH1 0x20 DUP3 DUP5 SUB SLT ISZERO PUSH2 0x1289 JUMPI PUSH0 DUP1 REVERT JUMPDEST POP MLOAD SWAP2 SWAP1 POP JUMP JUMPDEST DUP1 DUP3 MUL DUP2 ISZERO DUP3 DUP3 DIV DUP5 EQ OR PUSH2 0x54A JUMPI PUSH2 0x54A PUSH2 0x1252 JUMP JUMPDEST PUSH0 DUP3 PUSH2 0x12C1 JUMPI PUSH4 0x4E487B71 PUSH1 0xE0 SHL PUSH0 MSTORE PUSH1 0x12 PUSH1 0x4 MSTORE PUSH1 0x24 PUSH0 REVERT JUMPDEST POP DIV SWAP1 JUMP INVALID 0xFB 0xD4 SLOAD RETURN PUSH11 0x7E1A388BD6FC3AB10D434A LOG4 JUMPI DUP16 DUP2 BYTE 0xCB 0xBC RETURN GASPRICE 0xFB SHR PUSH10 0x7486313CA49807205CE4 0xD3 SSTORE MULMOD 0x2E CREATE2 0xA8 LOG1 DUP16 JUMP 0xE8 SWAP2 EXTCODECOPY DELEGATECALL LOG2 ADD 0xFB 0xE2 DUP8 DUP3 JUMPDEST MULMOD JUMP SWAP4 0xC2 OR PUSH22 0xA264697066735822122084011AE8B6A77E63CA574923 PUSH31 0x655B21BDD73453C672D949C49A74B4B230115064736F6C6343000818003300 "},"methodIdentifiers":{"ADMIN_ROLE()":"75b238fc","DEFAULT_ADMIN_ROLE()":"a217fddf","DISTRIBUTOR_ROLE()":"f0bd87cc","MAX_PAUSE_DURATION()":"2799657d","PAUSER_ROLE()":"e63ab1e9","accrueRewards(address,uint256,uint256)":"ce3b4e16","auditorRewards(address)":"7ee4d75e","claimRewards()":"372500ab","emergencyWithdraw(uint256)":"5312ea8e","fund(uint256)":"ca1d209d","getAuditorRewards(address)":"5743b31a","getMultiplier(uint256)":"adf8252d","getRoleAdmin(bytes32)":"248a9ca3","grantRole(bytes32,address)":"2f2ff15d","hasRole(bytes32,address)":"91d14854","isnadToken()":"619feede","lockMultipliers(uint256)":"dd6b21be","pause(uint256)":"136439dd","paused()":"5c975abb","pausedUntil()":"da748b10","pendingRewards(address)":"31d7a262","poolBalance()":"96365d44","renounceRole(bytes32,address)":"36568abe","revokeRole(bytes32,address)":"d547741f","rewardRatePerSecond()":"5d773b2c","setLockMultiplier(uint256,uint256)":"d2afe4ab","setRewardRate(uint256)":"9e447fc6","setStakingContract(address)":"9dd373b9","stakingContract()":"ee99205c","supportsInterface(bytes4)":"01ffc9a7","totalClaimed()":"d54ad2a1","totalDistributed()":"efca2eed","unpause()":"3f4ba83a"}}}}}