{"contracts/ISNADOracle.sol":{"ISNADOracle":{"abi":[{"inputs":[{"internalType":"address","name":"_stakingContract","type":"address"}],"stateMutability":"nonpayable","type":"constructor"},{"inputs":[],"name":"AccessControlBadConfirmation","type":"error"},{"inputs":[{"internalType":"address","name":"account","type":"address"},{"internalType":"bytes32","name":"neededRole","type":"bytes32"}],"name":"AccessControlUnauthorizedAccount","type":"error"},{"inputs":[],"name":"ReentrancyGuardReentrantCall","type":"error"},{"anonymous":false,"inputs":[{"indexed":true,"internalType":"bytes32","name":"flagId","type":"bytes32"},{"indexed":true,"internalType":"address","name":"appellant","type":"address"},{"indexed":false,"internalType":"uint256","name":"deposit","type":"uint256"}],"name":"FlagAppealed","type":"event"},{"anonymous":false,"inputs":[{"indexed":true,"internalType":"bytes32","name":"flagId","type":"bytes32"},{"indexed":true,"internalType":"address","name":"juror","type":"address"},{"indexed":false,"internalType":"bool","name":"guilty","type":"bool"}],"name":"JurorVoted","type":"event"},{"anonymous":false,"inputs":[{"indexed":true,"internalType":"bytes32","name":"flagId","type":"bytes32"},{"indexed":false,"internalType":"address[]","name":"jurors","type":"address[]"}],"name":"JurySelected","type":"event"},{"anonymous":false,"inputs":[{"indexed":true,"internalType":"bytes32","name":"flagId","type":"bytes32"},{"indexed":true,"internalType":"bytes32","name":"resourceHash","type":"bytes32"},{"indexed":true,"internalType":"address","name":"flagger","type":"address"},{"indexed":false,"internalType":"uint256","name":"deposit","type":"uint256"},{"indexed":false,"internalType":"bytes32","name":"evidenceHash","type":"bytes32"}],"name":"ResourceFlagged","type":"event"},{"anonymous":false,"inputs":[{"indexed":true,"internalType":"bytes32","name":"role","type":"bytes32"},{"indexed":true,"internalType":"bytes32","name":"previousAdminRole","type":"bytes32"},{"indexed":true,"internalType":"bytes32","name":"newAdminRole","type":"bytes32"}],"name":"RoleAdminChanged","type":"event"},{"anonymous":false,"inputs":[{"indexed":true,"internalType":"bytes32","name":"role","type":"bytes32"},{"indexed":true,"internalType":"address","name":"account","type":"address"},{"indexed":true,"internalType":"address","name":"sender","type":"address"}],"name":"RoleGranted","type":"event"},{"anonymous":false,"inputs":[{"indexed":true,"internalType":"bytes32","name":"role","type":"bytes32"},{"indexed":true,"internalType":"address","name":"account","type":"address"},{"indexed":true,"internalType":"address","name":"sender","type":"address"}],"name":"RoleRevoked","type":"event"},{"anonymous":false,"inputs":[{"indexed":true,"internalType":"bytes32","name":"resourceHash","type":"bytes32"},{"indexed":false,"internalType":"uint256","name":"totalSlashed","type":"uint256"}],"name":"SlashExecuted","type":"event"},{"anonymous":false,"inputs":[{"indexed":true,"internalType":"bytes32","name":"flagId","type":"bytes32"},{"indexed":true,"internalType":"bytes32","name":"resourceHash","type":"bytes32"},{"indexed":false,"internalType":"enum ISNADOracle.FlagStatus","name":"verdict","type":"uint8"},{"indexed":false,"internalType":"uint256","name":"guiltyVotes","type":"uint256"},{"indexed":false,"internalType":"uint256","name":"totalVotes","type":"uint256"}],"name":"VerdictReached","type":"event"},{"inputs":[],"name":"ADMIN_ROLE","outputs":[{"internalType":"bytes32","name":"","type":"bytes32"}],"stateMutability":"view","type":"function"},{"inputs":[],"name":"DEFAULT_ADMIN_ROLE","outputs":[{"internalType":"bytes32","name":"","type":"bytes32"}],"stateMutability":"view","type":"function"},{"inputs":[{"internalType":"bytes32","name":"","type":"bytes32"}],"name":"activeFlag","outputs":[{"internalType":"bytes32","name":"","type":"bytes32"}],"stateMutability":"view","type":"function"},{"inputs":[{"internalType":"address","name":"jurorAddress","type":"address"}],"name":"addToJurorPool","outputs":[],"stateMutability":"nonpayable","type":"function"},{"inputs":[{"internalType":"bytes32","name":"flagId","type":"bytes32"}],"name":"appeal","outputs":[],"stateMutability":"payable","type":"function"},{"inputs":[],"name":"appealMultiplier","outputs":[{"internalType":"uint256","name":"","type":"uint256"}],"stateMutability":"view","type":"function"},{"inputs":[{"internalType":"address[]","name":"addresses","type":"address[]"}],"name":"batchAddToJurorPool","outputs":[],"stateMutability":"nonpayable","type":"function"},{"inputs":[{"internalType":"bytes32","name":"resourceHash","type":"bytes32"}],"name":"executeSlash","outputs":[{"internalType":"bool","name":"","type":"bool"}],"stateMutability":"nonpayable","type":"function"},{"inputs":[{"internalType":"bytes32","name":"flagId","type":"bytes32"}],"name":"finalizeVerdict","outputs":[],"stateMutability":"nonpayable","type":"function"},{"inputs":[{"internalType":"bytes32","name":"resourceHash","type":"bytes32"},{"internalType":"bytes32","name":"evidenceHash","type":"bytes32"}],"name":"flagResource","outputs":[{"internalType":"bytes32","name":"flagId","type":"bytes32"}],"stateMutability":"payable","type":"function"},{"inputs":[{"internalType":"bytes32","name":"","type":"bytes32"}],"name":"flags","outputs":[{"internalType":"bytes32","name":"resourceHash","type":"bytes32"},{"internalType":"address","name":"flagger","type":"address"},{"internalType":"uint256","name":"deposit","type":"uint256"},{"internalType":"bytes32","name":"evidenceHash","type":"bytes32"},{"internalType":"enum ISNADOracle.FlagStatus","name":"status","type":"uint8"},{"internalType":"uint256","name":"createdAt","type":"uint256"},{"internalType":"uint256","name":"juryDeadline","type":"uint256"},{"internalType":"uint256","name":"voteCount","type":"uint256"},{"internalType":"uint256","name":"guiltyVotes","type":"uint256"}],"stateMutability":"view","type":"function"},{"inputs":[{"internalType":"bytes32","name":"flagId","type":"bytes32"}],"name":"getFlag","outputs":[{"components":[{"internalType":"bytes32","name":"resourceHash","type":"bytes32"},{"internalType":"address","name":"flagger","type":"address"},{"internalType":"uint256","name":"deposit","type":"uint256"},{"internalType":"bytes32","name":"evidenceHash","type":"bytes32"},{"internalType":"enum ISNADOracle.FlagStatus","name":"status","type":"uint8"},{"internalType":"uint256","name":"createdAt","type":"uint256"},{"internalType":"uint256","name":"juryDeadline","type":"uint256"},{"internalType":"uint256","name":"voteCount","type":"uint256"},{"internalType":"uint256","name":"guiltyVotes","type":"uint256"}],"internalType":"struct ISNADOracle.Flag","name":"","type":"tuple"}],"stateMutability":"view","type":"function"},{"inputs":[],"name":"getJurorPoolSize","outputs":[{"internalType":"uint256","name":"","type":"uint256"}],"stateMutability":"view","type":"function"},{"inputs":[{"internalType":"bytes32","name":"flagId","type":"bytes32"}],"name":"getJury","outputs":[{"internalType":"address[]","name":"","type":"address[]"}],"stateMutability":"view","type":"function"},{"inputs":[{"internalType":"bytes32","name":"role","type":"bytes32"}],"name":"getRoleAdmin","outputs":[{"internalType":"bytes32","name":"","type":"bytes32"}],"stateMutability":"view","type":"function"},{"inputs":[{"internalType":"bytes32","name":"role","type":"bytes32"},{"internalType":"address","name":"account","type":"address"}],"name":"grantRole","outputs":[],"stateMutability":"nonpayable","type":"function"},{"inputs":[{"internalType":"bytes32","name":"role","type":"bytes32"},{"internalType":"address","name":"account","type":"address"}],"name":"hasRole","outputs":[{"internalType":"bool","name":"","type":"bool"}],"stateMutability":"view","type":"function"},{"inputs":[{"internalType":"bytes32","name":"flagId","type":"bytes32"},{"internalType":"address","name":"addr","type":"address"}],"name":"hasVoted","outputs":[{"internalType":"bool","name":"","type":"bool"}],"stateMutability":"view","type":"function"},{"inputs":[{"internalType":"address","name":"","type":"address"}],"name":"isInJurorPool","outputs":[{"internalType":"bool","name":"","type":"bool"}],"stateMutability":"view","type":"function"},{"inputs":[{"internalType":"bytes32","name":"flagId","type":"bytes32"},{"internalType":"address","name":"addr","type":"address"}],"name":"isJuror","outputs":[{"internalType":"bool","name":"","type":"bool"}],"stateMutability":"view","type":"function"},{"inputs":[{"internalType":"uint256","name":"","type":"uint256"}],"name":"jurorPool","outputs":[{"internalType":"address","name":"","type":"address"}],"stateMutability":"view","type":"function"},{"inputs":[{"internalType":"bytes32","name":"","type":"bytes32"},{"internalType":"address","name":"","type":"address"}],"name":"jurors","outputs":[{"internalType":"bool","name":"selected","type":"bool"},{"internalType":"bool","name":"voted","type":"bool"},{"internalType":"bool","name":"votedGuilty","type":"bool"}],"stateMutability":"view","type":"function"},{"inputs":[{"internalType":"bytes32","name":"","type":"bytes32"},{"internalType":"uint256","name":"","type":"uint256"}],"name":"juryList","outputs":[{"internalType":"address","name":"","type":"address"}],"stateMutability":"view","type":"function"},{"inputs":[],"name":"jurySize","outputs":[{"internalType":"uint256","name":"","type":"uint256"}],"stateMutability":"view","type":"function"},{"inputs":[],"name":"minFlagDeposit","outputs":[{"internalType":"uint256","name":"","type":"uint256"}],"stateMutability":"view","type":"function"},{"inputs":[{"internalType":"bytes32","name":"role","type":"bytes32"},{"internalType":"address","name":"callerConfirmation","type":"address"}],"name":"renounceRole","outputs":[],"stateMutability":"nonpayable","type":"function"},{"inputs":[{"internalType":"bytes32","name":"role","type":"bytes32"},{"internalType":"address","name":"account","type":"address"}],"name":"revokeRole","outputs":[],"stateMutability":"nonpayable","type":"function"},{"inputs":[{"internalType":"bytes32","name":"flagId","type":"bytes32"}],"name":"selectJury","outputs":[],"stateMutability":"nonpayable","type":"function"},{"inputs":[{"internalType":"uint256","name":"_jurySize","type":"uint256"}],"name":"setJurySize","outputs":[],"stateMutability":"nonpayable","type":"function"},{"inputs":[{"internalType":"uint256","name":"_minDeposit","type":"uint256"}],"name":"setMinFlagDeposit","outputs":[],"stateMutability":"nonpayable","type":"function"},{"inputs":[{"internalType":"address","name":"_stakingContract","type":"address"}],"name":"setStakingContract","outputs":[],"stateMutability":"nonpayable","type":"function"},{"inputs":[{"internalType":"uint256","name":"_votingPeriod","type":"uint256"}],"name":"setVotingPeriod","outputs":[],"stateMutability":"nonpayable","type":"function"},{"inputs":[],"name":"stakingContract","outputs":[{"internalType":"address","name":"","type":"address"}],"stateMutability":"view","type":"function"},{"inputs":[],"name":"supermajorityBps","outputs":[{"internalType":"uint256","name":"","type":"uint256"}],"stateMutability":"view","type":"function"},{"inputs":[{"internalType":"bytes4","name":"interfaceId","type":"bytes4"}],"name":"supportsInterface","outputs":[{"internalType":"bool","name":"","type":"bool"}],"stateMutability":"view","type":"function"},{"inputs":[{"internalType":"bytes32","name":"flagId","type":"bytes32"},{"internalType":"bool","name":"guilty","type":"bool"}],"name":"vote","outputs":[],"stateMutability":"nonpayable","type":"function"},{"inputs":[],"name":"votingPeriod","outputs":[{"internalType":"uint256","name":"","type":"uint256"}],"stateMutability":"view","type":"function"}],"evm":{"bytecode":{"linkReferences":{},"object":"608060405268056bc75e2d63100000600355600560045562093a80600555611a0b600655600260075534801562000034575f80fd5b50604051620022c7380380620022c78339810160408190526200005791620001c2565b600180556001600160a01b038116620000b65760405162461bcd60e51b815260206004820152601860248201527f496e76616c6964207374616b696e6720636f6e74726163740000000000000000604482015260640160405180910390fd5b620000c25f3362000116565b50620000ef7fa49807205ce4d355092ef5a8a18f56e8913cf4a201fbe287825b095693c217753362000116565b50600280546001600160a01b0319166001600160a01b0392909216919091179055620001f1565b5f828152602081815260408083206001600160a01b038516845290915281205460ff16620001b9575f838152602081815260408083206001600160a01b03861684529091529020805460ff19166001179055620001703390565b6001600160a01b0316826001600160a01b0316847f2f8788117e7eff1d82e926ec794901d17c78024a50270940304540a733656f0d60405160405180910390a4506001620001bc565b505f5b92915050565b5f60208284031215620001d3575f80fd5b81516001600160a01b0381168114620001ea575f80fd5b9392505050565b6120c880620001ff5f395ff3fe608060405260043610610212575f3560e01c80639dd373b91161011e578063d547741f116100a8578063ece1de441161006d578063ece1de4414610719578063ee99205c1461072c578063f4732d051461074b578063f57809e61461076a578063f643d3d714610795575f80fd5b8063d547741f1461067b578063e4a3d7841461069a578063e785ef0e146106c6578063ea0217cf146106e5578063eb80b2ef14610704575f80fd5b8063b7050920116100ee578063b7050920146105e0578063b850cdf7146105ff578063b8fad24e1461061e578063bc6675f91461063d578063d15c11c81461065c575f80fd5b80639dd373b9146105465780639f2ce67814610565578063a217fddf14610584578063aadc3b7214610597575f80fd5b80632f2ff15d1161019f578063536c8c151161016f578063536c8c15146104c95780635eef3da2146104de57806362aaa876146104f357806375b238fc1461050757806391d1485414610527575f80fd5b80632f2ff15d1461041957806336568abe1461043a57806346b3c3c31461045957806351af8a2214610485575f80fd5b8063128203c6116101e5578063128203c61461030f5780631e44b1a714610324578063248a9ca31461033757806324d0b041146103655780632eecb0c8146103eb575f80fd5b806301ffc9a71461021657806302a251a31461024a57806305b9a25f1461026d5780630a2653d1146102a4575b5f80fd5b348015610221575f80fd5b50610235610230366004611cd7565b6107b4565b60405190151581526020015b60405180910390f35b348015610255575f80fd5b5061025f60055481565b604051908152602001610241565b348015610278575f80fd5b5061028c610287366004611d05565b6107ea565b6040516001600160a01b039091168152602001610241565b3480156102af575f80fd5b506102f06102be366004611d40565b600960209081525f928352604080842090915290825290205460ff808216916101008104821691620100009091041683565b6040805193151584529115156020840152151590820152606001610241565b34801561031a575f80fd5b5061025f60075481565b61025f610332366004611d05565b61081e565b348015610342575f80fd5b5061025f610351366004611d6a565b5f9081526020819052604090206001015490565b348015610370575f80fd5b506103d661037f366004611d6a565b600860208190525f918252604090912080546001820154600283015460038401546004850154600586015460068701546007880154979098015495976001600160a01b03909516969395929460ff90921693909289565b60405161024199989796959493929190611db5565b3480156103f6575f80fd5b50610235610405366004611e0e565b600d6020525f908152604090205460ff1681565b348015610424575f80fd5b50610438610433366004611d40565b610a74565b005b348015610445575f80fd5b50610438610454366004611d40565b610a9e565b348015610464575f80fd5b50610478610473366004611d6a565b610ad6565b6040516102419190611e27565b348015610490575f80fd5b5061023561049f366004611d40565b5f9182526009602090815260408084206001600160a01b0393909316845291905290205460ff1690565b3480156104d4575f80fd5b5061025f60045481565b3480156104e9575f80fd5b5061025f60065481565b3480156104fe575f80fd5b50600c5461025f565b348015610512575f80fd5b5061025f5f8051602061207383398151915281565b348015610532575f80fd5b50610235610541366004611d40565b610b3f565b348015610551575f80fd5b50610438610560366004611e0e565b610b67565b348015610570575f80fd5b5061043861057f366004611e73565b610bf7565b34801561058f575f80fd5b5061025f5f81565b3480156105a2575f80fd5b506102356105b1366004611d40565b5f9182526009602090815260408084206001600160a01b03939093168452919052902054610100900460ff1690565b3480156105eb575f80fd5b506104386105fa366004611d6a565b610dee565b34801561060a575f80fd5b50610235610619366004611d6a565b610e0b565b348015610629575f80fd5b50610438610638366004611d6a565b610f4f565b348015610648575f80fd5b50610438610657366004611e0e565b610fc7565b348015610667575f80fd5b50610438610676366004611d6a565b61109f565b348015610686575f80fd5b50610438610695366004611d40565b611154565b3480156106a5575f80fd5b506106b96106b4366004611d6a565b611178565b6040516102419190611ea5565b3480156106d1575f80fd5b506104386106e0366004611f19565b61126f565b3480156106f0575f80fd5b506104386106ff366004611d6a565b611391565b34801561070f575f80fd5b5061025f60035481565b610438610727366004611d6a565b6113f4565b348015610737575f80fd5b5060025461028c906001600160a01b031681565b348015610756575f80fd5b50610438610765366004611d6a565b6115e7565b348015610775575f80fd5b5061025f610784366004611d6a565b600b6020525f908152604090205481565b3480156107a0575f80fd5b5061028c6107af366004611d6a565b6116a6565b5f6001600160e01b03198216637965db0b60e01b14806107e457506301ffc9a760e01b6001600160e01b03198316145b92915050565b600a602052815f5260405f208181548110610803575f80fd5b5f918252602090912001546001600160a01b03169150829050565b5f6108276116ce565b6003543410156108755760405162461bcd60e51b8152602060048201526014602482015273125b9cdd59999a58da595b9d0819195c1bdcda5d60621b60448201526064015b60405180910390fd5b5f838152600b6020526040902054156108d05760405162461bcd60e51b815260206004820152601860248201527f5265736f7572636520616c726561647920666c61676765640000000000000000604482015260640161086c565b5060408051602080820185905233606081901b6bffffffffffffffffffffffff19168385015242605480850191909152845180850390910181526074840180865281519190930120610194840190945285825260948301523460b483015260d482018490529060f4015f81526020014281526020015f81526020015f81526020015f81525060085f8381526020019081526020015f205f820151815f01556020820151816001015f6101000a8154816001600160a01b0302191690836001600160a01b0316021790555060408201518160020155606082015181600301556080820151816004015f6101000a81548160ff021916908360058111156109d7576109d7611d81565b021790555060a0820151600582015560c0820151600682015560e08201516007820155610100909101516008909101555f838152600b602090815260409182902083905581513481529081018490523391859184917fc92edb8fb4bac81c1756962b16bba68657b07e9a6c6e852b9a63550fdc27c1bb910160405180910390a4600454600c5410610a6b57610a6b816116f8565b6107e460018055565b5f82815260208190526040902060010154610a8e816119bc565b610a9883836119c6565b50505050565b6001600160a01b0381163314610ac75760405163334bd91960e11b815260040160405180910390fd5b610ad18282611a55565b505050565b5f818152600a6020908152604091829020805483518184028101840190945280845260609392830182828015610b3357602002820191905f5260205f20905b81546001600160a01b03168152600190910190602001808311610b15575b50505050509050919050565b5f918252602082815260408084206001600160a01b0393909316845291905290205460ff1690565b5f80516020612073833981519152610b7e816119bc565b6001600160a01b038216610bd45760405162461bcd60e51b815260206004820152601860248201527f496e76616c6964207374616b696e6720636f6e74726163740000000000000000604482015260640161086c565b50600280546001600160a01b0319166001600160a01b0392909216919091179055565b610bff6116ce565b5f8281526008602052604090206001600482015460ff166005811115610c2757610c27611d81565b14610c645760405162461bcd60e51b815260206004820152600d60248201526c4e6f7420696e2072657669657760981b604482015260640161086c565b80600601544210610ca65760405162461bcd60e51b815260206004820152600c60248201526b159bdd1a5b99c8195b99195960a21b604482015260640161086c565b5f8381526009602090815260408083203384529091529020805460ff16610cfd5760405162461bcd60e51b815260206004820152600b60248201526a2737ba103090353ab937b960a91b604482015260640161086c565b8054610100900460ff1615610d445760405162461bcd60e51b815260206004820152600d60248201526c105b1c9958591e481d9bdd1959609a1b604482015260640161086c565b8054831515620100000262ffff001990911617610100178155600782018054905f610d6e83611f9c565b91905055508215610d9057600882018054905f610d8a83611f9c565b91905055505b6040518315158152339085907ff2ee66cb5fb317984a735afce8f490e33d93334d63262bac9728cb9fec4038a59060200160405180910390a3600454826007015403610ddf57610ddf84611abe565b5050610dea60018055565b5050565b5f80516020612073833981519152610e05816119bc565b50600355565b5f818152600b602052604081205480610e575760405162461bcd60e51b815260206004820152600e60248201526d4e6f2061637469766520666c616760901b604482015260640161086c565b5f8181526008602052604090206002600482015460ff166005811115610e7f57610e7f611d81565b14610eb95760405162461bcd60e51b815260206004820152600a6024820152694e6f74206775696c747960b01b604482015260640161086c565b5f848152600b60205260408082208290556001830154600284015491516001600160a01b039091169282156108fc02929190818181858888f19350505050158015610f06573d5f803e3d5ffd5b50837f3c6d365db6255bc86eb46a819f3b6ded3bc0d34ebffbf0e688587ee50a36de358260020154604051610f3d91815260200190565b60405180910390a25060019392505050565b5f80516020612073833981519152610f66816119bc565b60038210158015610f815750610f7d600283611fc8565b6001145b610fc15760405162461bcd60e51b8152602060048201526011602482015270496e76616c6964206a7572792073697a6560781b604482015260640161086c565b50600455565b5f80516020612073833981519152610fde816119bc565b6001600160a01b0382165f908152600d602052604090205460ff16156110385760405162461bcd60e51b815260206004820152600f60248201526e105b1c9958591e481a5b881c1bdbdb608a1b604482015260640161086c565b50600c805460018181019092557fdf6966c971051c3d54ec59162606531493a51404a002842f56009d7e5cf4a8c70180546001600160a01b039093166001600160a01b0319909316831790555f918252600d6020526040909120805460ff19169091179055565b5f8181526008602052604090206001600482015460ff1660058111156110c7576110c7611d81565b146111045760405162461bcd60e51b815260206004820152600d60248201526c4e6f7420696e2072657669657760981b604482015260640161086c565b806006015442101561114b5760405162461bcd60e51b815260206004820152601060248201526f159bdd1a5b99c81b9bdd08195b99195960821b604482015260640161086c565b610dea82611abe565b5f8281526020819052604090206001015461116e816119bc565b610a988383611a55565b6111c260408051610120810182525f808252602082018190529181018290526060810182905290608082019081526020015f81526020015f81526020015f81526020015f81525090565b5f828152600860209081526040918290208251610120810184528154815260018201546001600160a01b031692810192909252600281015492820192909252600382015460608201526004820154909190608083019060ff16600581111561122c5761122c611d81565b600581111561123d5761123d611d81565b815260058201546020820152600682015460408201526007820154606082015260089091015460809091015292915050565b5f80516020612073833981519152611286816119bc565b5f5b82811015610a9857600d5f8585848181106112a5576112a5611fdb565b90506020020160208101906112ba9190611e0e565b6001600160a01b0316815260208101919091526040015f205460ff1661138957600c8484838181106112ee576112ee611fdb565b90506020020160208101906113039190611e0e565b8154600180820184555f9384526020842090910180546001600160a01b0319166001600160a01b03939093169290921790915590600d9086868581811061134c5761134c611fdb565b90506020020160208101906113619190611e0e565b6001600160a01b0316815260208101919091526040015f20805460ff19169115159190911790555b600101611288565b5f805160206120738339815191526113a8816119bc565b620151808210156113ee5760405162461bcd60e51b815260206004820152601060248201526f14195c9a5bd9081d1bdbc81cda1bdc9d60821b604482015260640161086c565b50600555565b6113fc6116ce565b5f8181526008602052604090206002600482015460ff16600581111561142457611424611d81565b148061144857506003600482015460ff16600581111561144657611446611d81565b145b6114845760405162461bcd60e51b815260206004820152600d60248201526c10d85b9b9bdd08185c1c19585b609a1b604482015260640161086c565b6006810154611496906203f480611fef565b42106114db5760405162461bcd60e51b8152602060048201526014602482015273105c1c19585b081dda5b991bddc818db1bdcd95960621b604482015260640161086c565b5f60075482600201546114ee9190612002565b9050803410156115405760405162461bcd60e51b815260206004820152601b60248201527f496e73756666696369656e742061707065616c206465706f7369740000000000604482015260640161086c565b6004828101805460ff1916600183021790555034826002015f8282546115669190611fef565b90915550505f6007830181905560088301819055838152600a6020526040812061158f91611ca9565b604051348152339084907e672bede80ded560cfbd92a0645208424b47e23b9e8e01a245db8a0a6eb71b59060200160405180910390a3600454600c54106115d9576115d9836116f8565b50506115e460018055565b50565b5f81815260086020526040812090600482015460ff16600581111561160e5761160e611d81565b146116495760405162461bcd60e51b815260206004820152600b60248201526a4e6f742070656e64696e6760a81b604482015260640161086c565b600454600c54101561169d5760405162461bcd60e51b815260206004820152601760248201527f496e73756666696369656e74206a75726f7220706f6f6c000000000000000000604482015260640161086c565b610dea826116f8565b600c81815481106116b5575f80fd5b5f918252602090912001546001600160a01b0316905081565b6002600154036116f157604051633ee5aeb560e01b815260040160405180910390fd5b6002600155565b5f81815260086020526040812090611711600143612019565b60408051914060208301528101849052426060820152608001604051602081830303815290604052805190602001205f1c90505f60045467ffffffffffffffff8111156117605761176061202c565b604051908082528060200260200182016040528015611789578160200160208202803683370190505b5090505f805f600c8054905060036117a19190612002565b90505b600454831080156117b457508082105b1561189557600c545f906117c88488611fef565b6117d29190611fc8565b90505f600c82815481106117e8576117e8611fdb565b5f9182526020808320909101548b83526009825260408084206001600160a01b039092168085529190925291205490915060ff16158015611880578187878151811061183657611836611fdb565b6001600160a01b039283166020918202929092018101919091525f8c815260098252604080822093861682529290915220805460ff191660011790558561187c81611f9c565b9650505b8461188a81611f9c565b9550505050506117a4565b60045483146118e65760405162461bcd60e51b815260206004820152601e60248201527f436f756c64206e6f742073656c65637420656e6f756768206a75726f72730000604482015260640161086c565b5f5b600454811015611957575f888152600a60205260409020855186908390811061191357611913611fdb565b6020908102919091018101518254600180820185555f9485529290932090920180546001600160a01b0319166001600160a01b0390931692909217909155016118e8565b5060048601805460ff191660011790556005546119749042611fef565b600687015560405187907f7988f9809caf69010681be5043108ecf62ab23c65aca9ca4662aa11980bd5f17906119ab908790611e27565b60405180910390a250505050505050565b6115e48133611c70565b5f6119d18383610b3f565b611a4e575f838152602081815260408083206001600160a01b03861684529091529020805460ff19166001179055611a063390565b6001600160a01b0316826001600160a01b0316847f2f8788117e7eff1d82e926ec794901d17c78024a50270940304540a733656f0d60405160405180910390a45060016107e4565b505f6107e4565b5f611a608383610b3f565b15611a4e575f838152602081815260408083206001600160a01b0386168085529252808320805460ff1916905551339286917ff6391f5c32d9c69d2a47ea670b442974b53935d1edc7fd64eb21e047a839171b9190a45060016107e4565b5f818152600860205260408120600654600782015491929161271091611ae391612002565b611aed9190612040565b90505f6127106006548460070154611b059190612002565b611b0f9190612040565b905081836008015410611b305760048301805460ff19166002179055611c18565b8083600801548460070154611b459190612019565b10611bbe5760048301805460ff1916600317905560028301545f90611b6c90600a90612040565b600185015460028601549192506001600160a01b0316906108fc90611b92908490612019565b6040518115909202915f818181858888f19350505050158015611bb7573d5f803e3d5ffd5b5050611c18565b60048301805460ff1916600517905560018301546002808501546001600160a01b03909216916108fc91611bf191612040565b6040518115909202915f818181858888f19350505050158015611c16573d5f803e3d5ffd5b505b825460048401546008850154600786015460405188937f433aa6e48164df010794e86a1fb8bb3f17f33365871fa621e9fd0dcb5200aba193611c629360ff90921692909190612053565b60405180910390a350505050565b611c7a8282610b3f565b610dea5760405163e2517d3f60e01b81526001600160a01b03821660048201526024810183905260440161086c565b5080545f8255905f5260205f20908101906115e491905b80821115611cd3575f8155600101611cc0565b5090565b5f60208284031215611ce7575f80fd5b81356001600160e01b031981168114611cfe575f80fd5b9392505050565b5f8060408385031215611d16575f80fd5b50508035926020909101359150565b80356001600160a01b0381168114611d3b575f80fd5b919050565b5f8060408385031215611d51575f80fd5b82359150611d6160208401611d25565b90509250929050565b5f60208284031215611d7a575f80fd5b5035919050565b634e487b7160e01b5f52602160045260245ffd5b60068110611db157634e487b7160e01b5f52602160045260245ffd5b9052565b8981526001600160a01b038916602082015260408101889052606081018790526101208101611de76080830188611d95565b8560a08301528460c08301528360e0830152826101008301529a9950505050505050505050565b5f60208284031215611e1e575f80fd5b611cfe82611d25565b602080825282518282018190525f9190848201906040850190845b81811015611e675783516001600160a01b031683529284019291840191600101611e42565b50909695505050505050565b5f8060408385031215611e84575f80fd5b8235915060208301358015158114611e9a575f80fd5b809150509250929050565b815181526020808301516001600160a01b0316908201526040808301519082015260608083015190820152608080830151610120830191611ee890840182611d95565b5060a083015160a083015260c083015160c083015260e083015160e083015261010080840151818401525092915050565b5f8060208385031215611f2a575f80fd5b823567ffffffffffffffff80821115611f41575f80fd5b818501915085601f830112611f54575f80fd5b813581811115611f62575f80fd5b8660208260051b8501011115611f76575f80fd5b60209290920196919550909350505050565b634e487b7160e01b5f52601160045260245ffd5b5f60018201611fad57611fad611f88565b5060010190565b634e487b7160e01b5f52601260045260245ffd5b5f82611fd657611fd6611fb4565b500690565b634e487b7160e01b5f52603260045260245ffd5b808201808211156107e4576107e4611f88565b80820281158282048414176107e4576107e4611f88565b818103818111156107e4576107e4611f88565b634e487b7160e01b5f52604160045260245ffd5b5f8261204e5761204e611fb4565b500490565b606081016120618286611d95565b60208201939093526040015291905056fea49807205ce4d355092ef5a8a18f56e8913cf4a201fbe287825b095693c21775a2646970667358221220ff77b62f461b8abd27869072dc106e97dd3755b9df2d432e600902311ae9bc3d64736f6c63430008180033","opcodes":"PUSH1 0x80 PUSH1 0x40 MSTORE PUSH9 0x56BC75E2D63100000 PUSH1 0x3 SSTORE PUSH1 0x5 PUSH1 0x4 SSTORE PUSH3 0x93A80 PUSH1 0x5 SSTORE PUSH2 0x1A0B PUSH1 0x6 SSTORE PUSH1 0x2 PUSH1 0x7 SSTORE CALLVALUE DUP1 ISZERO PUSH3 0x34 JUMPI PUSH0 DUP1 REVERT JUMPDEST POP PUSH1 0x40 MLOAD PUSH3 0x22C7 CODESIZE SUB DUP1 PUSH3 0x22C7 DUP4 CODECOPY DUP2 ADD PUSH1 0x40 DUP2 SWAP1 MSTORE PUSH3 0x57 SWAP2 PUSH3 0x1C2 JUMP JUMPDEST PUSH1 0x1 DUP1 SSTORE PUSH1 0x1 PUSH1 0x1 PUSH1 0xA0 SHL SUB DUP2 AND PUSH3 0xB6 JUMPI PUSH1 0x40 MLOAD PUSH3 0x461BCD PUSH1 0xE5 SHL DUP2 MSTORE PUSH1 0x20 PUSH1 0x4 DUP3 ADD MSTORE PUSH1 0x18 PUSH1 0x24 DUP3 ADD MSTORE PUSH32 0x496E76616C6964207374616B696E6720636F6E74726163740000000000000000 PUSH1 0x44 DUP3 ADD MSTORE PUSH1 0x64 ADD PUSH1 0x40 MLOAD DUP1 SWAP2 SUB SWAP1 REVERT JUMPDEST PUSH3 0xC2 PUSH0 CALLER PUSH3 0x116 JUMP JUMPDEST POP PUSH3 0xEF PUSH32 0xA49807205CE4D355092EF5A8A18F56E8913CF4A201FBE287825B095693C21775 CALLER PUSH3 0x116 JUMP JUMPDEST POP PUSH1 0x2 DUP1 SLOAD PUSH1 0x1 PUSH1 0x1 PUSH1 0xA0 SHL SUB NOT AND PUSH1 0x1 PUSH1 0x1 PUSH1 0xA0 SHL SUB SWAP3 SWAP1 SWAP3 AND SWAP2 SWAP1 SWAP2 OR SWAP1 SSTORE PUSH3 0x1F1 JUMP JUMPDEST PUSH0 DUP3 DUP2 MSTORE PUSH1 0x20 DUP2 DUP2 MSTORE PUSH1 0x40 DUP1 DUP4 KECCAK256 PUSH1 0x1 PUSH1 0x1 PUSH1 0xA0 SHL SUB DUP6 AND DUP5 MSTORE SWAP1 SWAP2 MSTORE DUP2 KECCAK256 SLOAD PUSH1 0xFF AND PUSH3 0x1B9 JUMPI PUSH0 DUP4 DUP2 MSTORE PUSH1 0x20 DUP2 DUP2 MSTORE PUSH1 0x40 DUP1 DUP4 KECCAK256 PUSH1 0x1 PUSH1 0x1 PUSH1 0xA0 SHL SUB DUP7 AND DUP5 MSTORE SWAP1 SWAP2 MSTORE SWAP1 KECCAK256 DUP1 SLOAD PUSH1 0xFF NOT AND PUSH1 0x1 OR SWAP1 SSTORE PUSH3 0x170 CALLER SWAP1 JUMP JUMPDEST PUSH1 0x1 PUSH1 0x1 PUSH1 0xA0 SHL SUB AND DUP3 PUSH1 0x1 PUSH1 0x1 PUSH1 0xA0 SHL SUB AND DUP5 PUSH32 0x2F8788117E7EFF1D82E926EC794901D17C78024A50270940304540A733656F0D PUSH1 0x40 MLOAD PUSH1 0x40 MLOAD DUP1 SWAP2 SUB SWAP1 LOG4 POP PUSH1 0x1 PUSH3 0x1BC JUMP JUMPDEST POP PUSH0 JUMPDEST SWAP3 SWAP2 POP POP JUMP JUMPDEST PUSH0 PUSH1 0x20 DUP3 DUP5 SUB SLT ISZERO PUSH3 0x1D3 JUMPI PUSH0 DUP1 REVERT JUMPDEST DUP2 MLOAD PUSH1 0x1 PUSH1 0x1 PUSH1 0xA0 SHL SUB DUP2 AND DUP2 EQ PUSH3 0x1EA JUMPI PUSH0 DUP1 REVERT JUMPDEST SWAP4 SWAP3 POP POP POP JUMP JUMPDEST PUSH2 0x20C8 DUP1 PUSH3 0x1FF PUSH0 CODECOPY PUSH0 RETURN INVALID PUSH1 0x80 PUSH1 0x40 MSTORE PUSH1 0x4 CALLDATASIZE LT PUSH2 0x212 JUMPI PUSH0 CALLDATALOAD PUSH1 0xE0 SHR DUP1 PUSH4 0x9DD373B9 GT PUSH2 0x11E JUMPI DUP1 PUSH4 0xD547741F GT PUSH2 0xA8 JUMPI DUP1 PUSH4 0xECE1DE44 GT PUSH2 0x6D JUMPI DUP1 PUSH4 0xECE1DE44 EQ PUSH2 0x719 JUMPI DUP1 PUSH4 0xEE99205C EQ PUSH2 0x72C JUMPI DUP1 PUSH4 0xF4732D05 EQ PUSH2 0x74B JUMPI DUP1 PUSH4 0xF57809E6 EQ PUSH2 0x76A JUMPI DUP1 PUSH4 0xF643D3D7 EQ PUSH2 0x795 JUMPI PUSH0 DUP1 REVERT JUMPDEST DUP1 PUSH4 0xD547741F EQ PUSH2 0x67B JUMPI DUP1 PUSH4 0xE4A3D784 EQ PUSH2 0x69A JUMPI DUP1 PUSH4 0xE785EF0E EQ PUSH2 0x6C6 JUMPI DUP1 PUSH4 0xEA0217CF EQ PUSH2 0x6E5 JUMPI DUP1 PUSH4 0xEB80B2EF EQ PUSH2 0x704 JUMPI PUSH0 DUP1 REVERT JUMPDEST DUP1 PUSH4 0xB7050920 GT PUSH2 0xEE JUMPI DUP1 PUSH4 0xB7050920 EQ PUSH2 0x5E0 JUMPI DUP1 PUSH4 0xB850CDF7 EQ PUSH2 0x5FF JUMPI DUP1 PUSH4 0xB8FAD24E EQ PUSH2 0x61E JUMPI DUP1 PUSH4 0xBC6675F9 EQ PUSH2 0x63D JUMPI DUP1 PUSH4 0xD15C11C8 EQ PUSH2 0x65C JUMPI PUSH0 DUP1 REVERT JUMPDEST DUP1 PUSH4 0x9DD373B9 EQ PUSH2 0x546 JUMPI DUP1 PUSH4 0x9F2CE678 EQ PUSH2 0x565 JUMPI DUP1 PUSH4 0xA217FDDF EQ PUSH2 0x584 JUMPI DUP1 PUSH4 0xAADC3B72 EQ PUSH2 0x597 JUMPI PUSH0 DUP1 REVERT JUMPDEST DUP1 PUSH4 0x2F2FF15D GT PUSH2 0x19F JUMPI DUP1 PUSH4 0x536C8C15 GT PUSH2 0x16F JUMPI DUP1 PUSH4 0x536C8C15 EQ PUSH2 0x4C9 JUMPI DUP1 PUSH4 0x5EEF3DA2 EQ PUSH2 0x4DE JUMPI DUP1 PUSH4 0x62AAA876 EQ PUSH2 0x4F3 JUMPI DUP1 PUSH4 0x75B238FC EQ PUSH2 0x507 JUMPI DUP1 PUSH4 0x91D14854 EQ PUSH2 0x527 JUMPI PUSH0 DUP1 REVERT JUMPDEST DUP1 PUSH4 0x2F2FF15D EQ PUSH2 0x419 JUMPI DUP1 PUSH4 0x36568ABE EQ PUSH2 0x43A JUMPI DUP1 PUSH4 0x46B3C3C3 EQ PUSH2 0x459 JUMPI DUP1 PUSH4 0x51AF8A22 EQ PUSH2 0x485 JUMPI PUSH0 DUP1 REVERT JUMPDEST DUP1 PUSH4 0x128203C6 GT PUSH2 0x1E5 JUMPI DUP1 PUSH4 0x128203C6 EQ PUSH2 0x30F JUMPI DUP1 PUSH4 0x1E44B1A7 EQ PUSH2 0x324 JUMPI DUP1 PUSH4 0x248A9CA3 EQ PUSH2 0x337 JUMPI DUP1 PUSH4 0x24D0B041 EQ PUSH2 0x365 JUMPI DUP1 PUSH4 0x2EECB0C8 EQ PUSH2 0x3EB JUMPI PUSH0 DUP1 REVERT JUMPDEST DUP1 PUSH4 0x1FFC9A7 EQ PUSH2 0x216 JUMPI DUP1 PUSH4 0x2A251A3 EQ PUSH2 0x24A JUMPI DUP1 PUSH4 0x5B9A25F EQ PUSH2 0x26D JUMPI DUP1 PUSH4 0xA2653D1 EQ PUSH2 0x2A4 JUMPI JUMPDEST PUSH0 DUP1 REVERT JUMPDEST CALLVALUE DUP1 ISZERO PUSH2 0x221 JUMPI PUSH0 DUP1 REVERT JUMPDEST POP PUSH2 0x235 PUSH2 0x230 CALLDATASIZE PUSH1 0x4 PUSH2 0x1CD7 JUMP JUMPDEST PUSH2 0x7B4 JUMP JUMPDEST PUSH1 0x40 MLOAD SWAP1 ISZERO ISZERO DUP2 MSTORE PUSH1 0x20 ADD JUMPDEST PUSH1 0x40 MLOAD DUP1 SWAP2 SUB SWAP1 RETURN JUMPDEST CALLVALUE DUP1 ISZERO PUSH2 0x255 JUMPI PUSH0 DUP1 REVERT JUMPDEST POP PUSH2 0x25F PUSH1 0x5 SLOAD DUP2 JUMP JUMPDEST PUSH1 0x40 MLOAD SWAP1 DUP2 MSTORE PUSH1 0x20 ADD PUSH2 0x241 JUMP JUMPDEST CALLVALUE DUP1 ISZERO PUSH2 0x278 JUMPI PUSH0 DUP1 REVERT JUMPDEST POP PUSH2 0x28C PUSH2 0x287 CALLDATASIZE PUSH1 0x4 PUSH2 0x1D05 JUMP JUMPDEST PUSH2 0x7EA JUMP JUMPDEST PUSH1 0x40 MLOAD PUSH1 0x1 PUSH1 0x1 PUSH1 0xA0 SHL SUB SWAP1 SWAP2 AND DUP2 MSTORE PUSH1 0x20 ADD PUSH2 0x241 JUMP JUMPDEST CALLVALUE DUP1 ISZERO PUSH2 0x2AF JUMPI PUSH0 DUP1 REVERT JUMPDEST POP PUSH2 0x2F0 PUSH2 0x2BE CALLDATASIZE PUSH1 0x4 PUSH2 0x1D40 JUMP JUMPDEST PUSH1 0x9 PUSH1 0x20 SWAP1 DUP2 MSTORE PUSH0 SWAP3 DUP4 MSTORE PUSH1 0x40 DUP1 DUP5 KECCAK256 SWAP1 SWAP2 MSTORE SWAP1 DUP3 MSTORE SWAP1 KECCAK256 SLOAD PUSH1 0xFF DUP1 DUP3 AND SWAP2 PUSH2 0x100 DUP2 DIV DUP3 AND SWAP2 PUSH3 0x10000 SWAP1 SWAP2 DIV AND DUP4 JUMP JUMPDEST PUSH1 0x40 DUP1 MLOAD SWAP4 ISZERO ISZERO DUP5 MSTORE SWAP2 ISZERO ISZERO PUSH1 0x20 DUP5 ADD MSTORE ISZERO ISZERO SWAP1 DUP3 ADD MSTORE PUSH1 0x60 ADD PUSH2 0x241 JUMP JUMPDEST CALLVALUE DUP1 ISZERO PUSH2 0x31A JUMPI PUSH0 DUP1 REVERT JUMPDEST POP PUSH2 0x25F PUSH1 0x7 SLOAD DUP2 JUMP JUMPDEST PUSH2 0x25F PUSH2 0x332 CALLDATASIZE PUSH1 0x4 PUSH2 0x1D05 JUMP JUMPDEST PUSH2 0x81E JUMP JUMPDEST CALLVALUE DUP1 ISZERO PUSH2 0x342 JUMPI PUSH0 DUP1 REVERT JUMPDEST POP PUSH2 0x25F PUSH2 0x351 CALLDATASIZE PUSH1 0x4 PUSH2 0x1D6A JUMP JUMPDEST PUSH0 SWAP1 DUP2 MSTORE PUSH1 0x20 DUP2 SWAP1 MSTORE PUSH1 0x40 SWAP1 KECCAK256 PUSH1 0x1 ADD SLOAD SWAP1 JUMP JUMPDEST CALLVALUE DUP1 ISZERO PUSH2 0x370 JUMPI PUSH0 DUP1 REVERT JUMPDEST POP PUSH2 0x3D6 PUSH2 0x37F CALLDATASIZE PUSH1 0x4 PUSH2 0x1D6A JUMP JUMPDEST PUSH1 0x8 PUSH1 0x20 DUP2 SWAP1 MSTORE PUSH0 SWAP2 DUP3 MSTORE PUSH1 0x40 SWAP1 SWAP2 KECCAK256 DUP1 SLOAD PUSH1 0x1 DUP3 ADD SLOAD PUSH1 0x2 DUP4 ADD SLOAD PUSH1 0x3 DUP5 ADD SLOAD PUSH1 0x4 DUP6 ADD SLOAD PUSH1 0x5 DUP7 ADD SLOAD PUSH1 0x6 DUP8 ADD SLOAD PUSH1 0x7 DUP9 ADD SLOAD SWAP8 SWAP1 SWAP9 ADD SLOAD SWAP6 SWAP8 PUSH1 0x1 PUSH1 0x1 PUSH1 0xA0 SHL SUB SWAP1 SWAP6 AND SWAP7 SWAP4 SWAP6 SWAP3 SWAP5 PUSH1 0xFF SWAP1 SWAP3 AND SWAP4 SWAP1 SWAP3 DUP10 JUMP JUMPDEST PUSH1 0x40 MLOAD PUSH2 0x241 SWAP10 SWAP9 SWAP8 SWAP7 SWAP6 SWAP5 SWAP4 SWAP3 SWAP2 SWAP1 PUSH2 0x1DB5 JUMP JUMPDEST CALLVALUE DUP1 ISZERO PUSH2 0x3F6 JUMPI PUSH0 DUP1 REVERT JUMPDEST POP PUSH2 0x235 PUSH2 0x405 CALLDATASIZE PUSH1 0x4 PUSH2 0x1E0E JUMP JUMPDEST PUSH1 0xD PUSH1 0x20 MSTORE PUSH0 SWAP1 DUP2 MSTORE PUSH1 0x40 SWAP1 KECCAK256 SLOAD PUSH1 0xFF AND DUP2 JUMP JUMPDEST CALLVALUE DUP1 ISZERO PUSH2 0x424 JUMPI PUSH0 DUP1 REVERT JUMPDEST POP PUSH2 0x438 PUSH2 0x433 CALLDATASIZE PUSH1 0x4 PUSH2 0x1D40 JUMP JUMPDEST PUSH2 0xA74 JUMP JUMPDEST STOP JUMPDEST CALLVALUE DUP1 ISZERO PUSH2 0x445 JUMPI PUSH0 DUP1 REVERT JUMPDEST POP PUSH2 0x438 PUSH2 0x454 CALLDATASIZE PUSH1 0x4 PUSH2 0x1D40 JUMP JUMPDEST PUSH2 0xA9E JUMP JUMPDEST CALLVALUE DUP1 ISZERO PUSH2 0x464 JUMPI PUSH0 DUP1 REVERT JUMPDEST POP PUSH2 0x478 PUSH2 0x473 CALLDATASIZE PUSH1 0x4 PUSH2 0x1D6A JUMP JUMPDEST PUSH2 0xAD6 JUMP JUMPDEST PUSH1 0x40 MLOAD PUSH2 0x241 SWAP2 SWAP1 PUSH2 0x1E27 JUMP JUMPDEST CALLVALUE DUP1 ISZERO PUSH2 0x490 JUMPI PUSH0 DUP1 REVERT JUMPDEST POP PUSH2 0x235 PUSH2 0x49F CALLDATASIZE PUSH1 0x4 PUSH2 0x1D40 JUMP JUMPDEST PUSH0 SWAP2 DUP3 MSTORE PUSH1 0x9 PUSH1 0x20 SWAP1 DUP2 MSTORE PUSH1 0x40 DUP1 DUP5 KECCAK256 PUSH1 0x1 PUSH1 0x1 PUSH1 0xA0 SHL SUB SWAP4 SWAP1 SWAP4 AND DUP5 MSTORE SWAP2 SWAP1 MSTORE SWAP1 KECCAK256 SLOAD PUSH1 0xFF AND SWAP1 JUMP JUMPDEST CALLVALUE DUP1 ISZERO PUSH2 0x4D4 JUMPI PUSH0 DUP1 REVERT JUMPDEST POP PUSH2 0x25F PUSH1 0x4 SLOAD DUP2 JUMP JUMPDEST CALLVALUE DUP1 ISZERO PUSH2 0x4E9 JUMPI PUSH0 DUP1 REVERT JUMPDEST POP PUSH2 0x25F PUSH1 0x6 SLOAD DUP2 JUMP JUMPDEST CALLVALUE DUP1 ISZERO PUSH2 0x4FE JUMPI PUSH0 DUP1 REVERT JUMPDEST POP PUSH1 0xC SLOAD PUSH2 0x25F JUMP JUMPDEST CALLVALUE DUP1 ISZERO PUSH2 0x512 JUMPI PUSH0 DUP1 REVERT JUMPDEST POP PUSH2 0x25F PUSH0 DUP1 MLOAD PUSH1 0x20 PUSH2 0x2073 DUP4 CODECOPY DUP2 MLOAD SWAP2 MSTORE DUP2 JUMP JUMPDEST CALLVALUE DUP1 ISZERO PUSH2 0x532 JUMPI PUSH0 DUP1 REVERT JUMPDEST POP PUSH2 0x235 PUSH2 0x541 CALLDATASIZE PUSH1 0x4 PUSH2 0x1D40 JUMP JUMPDEST PUSH2 0xB3F JUMP JUMPDEST CALLVALUE DUP1 ISZERO PUSH2 0x551 JUMPI PUSH0 DUP1 REVERT JUMPDEST POP PUSH2 0x438 PUSH2 0x560 CALLDATASIZE PUSH1 0x4 PUSH2 0x1E0E JUMP JUMPDEST PUSH2 0xB67 JUMP JUMPDEST CALLVALUE DUP1 ISZERO PUSH2 0x570 JUMPI PUSH0 DUP1 REVERT JUMPDEST POP PUSH2 0x438 PUSH2 0x57F CALLDATASIZE PUSH1 0x4 PUSH2 0x1E73 JUMP JUMPDEST PUSH2 0xBF7 JUMP JUMPDEST CALLVALUE DUP1 ISZERO PUSH2 0x58F JUMPI PUSH0 DUP1 REVERT JUMPDEST POP PUSH2 0x25F PUSH0 DUP2 JUMP JUMPDEST CALLVALUE DUP1 ISZERO PUSH2 0x5A2 JUMPI PUSH0 DUP1 REVERT JUMPDEST POP PUSH2 0x235 PUSH2 0x5B1 CALLDATASIZE PUSH1 0x4 PUSH2 0x1D40 JUMP JUMPDEST PUSH0 SWAP2 DUP3 MSTORE PUSH1 0x9 PUSH1 0x20 SWAP1 DUP2 MSTORE PUSH1 0x40 DUP1 DUP5 KECCAK256 PUSH1 0x1 PUSH1 0x1 PUSH1 0xA0 SHL SUB SWAP4 SWAP1 SWAP4 AND DUP5 MSTORE SWAP2 SWAP1 MSTORE SWAP1 KECCAK256 SLOAD PUSH2 0x100 SWAP1 DIV PUSH1 0xFF AND SWAP1 JUMP JUMPDEST CALLVALUE DUP1 ISZERO PUSH2 0x5EB JUMPI PUSH0 DUP1 REVERT JUMPDEST POP PUSH2 0x438 PUSH2 0x5FA CALLDATASIZE PUSH1 0x4 PUSH2 0x1D6A JUMP JUMPDEST PUSH2 0xDEE JUMP JUMPDEST CALLVALUE DUP1 ISZERO PUSH2 0x60A JUMPI PUSH0 DUP1 REVERT JUMPDEST POP PUSH2 0x235 PUSH2 0x619 CALLDATASIZE PUSH1 0x4 PUSH2 0x1D6A JUMP JUMPDEST PUSH2 0xE0B JUMP JUMPDEST CALLVALUE DUP1 ISZERO PUSH2 0x629 JUMPI PUSH0 DUP1 REVERT JUMPDEST POP PUSH2 0x438 PUSH2 0x638 CALLDATASIZE PUSH1 0x4 PUSH2 0x1D6A JUMP JUMPDEST PUSH2 0xF4F JUMP JUMPDEST CALLVALUE DUP1 ISZERO PUSH2 0x648 JUMPI PUSH0 DUP1 REVERT JUMPDEST POP PUSH2 0x438 PUSH2 0x657 CALLDATASIZE PUSH1 0x4 PUSH2 0x1E0E JUMP JUMPDEST PUSH2 0xFC7 JUMP JUMPDEST CALLVALUE DUP1 ISZERO PUSH2 0x667 JUMPI PUSH0 DUP1 REVERT JUMPDEST POP PUSH2 0x438 PUSH2 0x676 CALLDATASIZE PUSH1 0x4 PUSH2 0x1D6A JUMP JUMPDEST PUSH2 0x109F JUMP JUMPDEST CALLVALUE DUP1 ISZERO PUSH2 0x686 JUMPI PUSH0 DUP1 REVERT JUMPDEST POP PUSH2 0x438 PUSH2 0x695 CALLDATASIZE PUSH1 0x4 PUSH2 0x1D40 JUMP JUMPDEST PUSH2 0x1154 JUMP JUMPDEST CALLVALUE DUP1 ISZERO PUSH2 0x6A5 JUMPI PUSH0 DUP1 REVERT JUMPDEST POP PUSH2 0x6B9 PUSH2 0x6B4 CALLDATASIZE PUSH1 0x4 PUSH2 0x1D6A JUMP JUMPDEST PUSH2 0x1178 JUMP JUMPDEST PUSH1 0x40 MLOAD PUSH2 0x241 SWAP2 SWAP1 PUSH2 0x1EA5 JUMP JUMPDEST CALLVALUE DUP1 ISZERO PUSH2 0x6D1 JUMPI PUSH0 DUP1 REVERT JUMPDEST POP PUSH2 0x438 PUSH2 0x6E0 CALLDATASIZE PUSH1 0x4 PUSH2 0x1F19 JUMP JUMPDEST PUSH2 0x126F JUMP JUMPDEST CALLVALUE DUP1 ISZERO PUSH2 0x6F0 JUMPI PUSH0 DUP1 REVERT JUMPDEST POP PUSH2 0x438 PUSH2 0x6FF CALLDATASIZE PUSH1 0x4 PUSH2 0x1D6A JUMP JUMPDEST PUSH2 0x1391 JUMP JUMPDEST CALLVALUE DUP1 ISZERO PUSH2 0x70F JUMPI PUSH0 DUP1 REVERT JUMPDEST POP PUSH2 0x25F PUSH1 0x3 SLOAD DUP2 JUMP JUMPDEST PUSH2 0x438 PUSH2 0x727 CALLDATASIZE PUSH1 0x4 PUSH2 0x1D6A JUMP JUMPDEST PUSH2 0x13F4 JUMP JUMPDEST CALLVALUE DUP1 ISZERO PUSH2 0x737 JUMPI PUSH0 DUP1 REVERT JUMPDEST POP PUSH1 0x2 SLOAD PUSH2 0x28C SWAP1 PUSH1 0x1 PUSH1 0x1 PUSH1 0xA0 SHL SUB AND DUP2 JUMP JUMPDEST CALLVALUE DUP1 ISZERO PUSH2 0x756 JUMPI PUSH0 DUP1 REVERT JUMPDEST POP PUSH2 0x438 PUSH2 0x765 CALLDATASIZE PUSH1 0x4 PUSH2 0x1D6A JUMP JUMPDEST PUSH2 0x15E7 JUMP JUMPDEST CALLVALUE DUP1 ISZERO PUSH2 0x775 JUMPI PUSH0 DUP1 REVERT JUMPDEST POP PUSH2 0x25F PUSH2 0x784 CALLDATASIZE PUSH1 0x4 PUSH2 0x1D6A JUMP JUMPDEST PUSH1 0xB PUSH1 0x20 MSTORE PUSH0 SWAP1 DUP2 MSTORE PUSH1 0x40 SWAP1 KECCAK256 SLOAD DUP2 JUMP JUMPDEST CALLVALUE DUP1 ISZERO PUSH2 0x7A0 JUMPI PUSH0 DUP1 REVERT JUMPDEST POP PUSH2 0x28C PUSH2 0x7AF CALLDATASIZE PUSH1 0x4 PUSH2 0x1D6A JUMP JUMPDEST PUSH2 0x16A6 JUMP JUMPDEST PUSH0 PUSH1 0x1 PUSH1 0x1 PUSH1 0xE0 SHL SUB NOT DUP3 AND PUSH4 0x7965DB0B PUSH1 0xE0 SHL EQ DUP1 PUSH2 0x7E4 JUMPI POP PUSH4 0x1FFC9A7 PUSH1 0xE0 SHL PUSH1 0x1 PUSH1 0x1 PUSH1 0xE0 SHL SUB NOT DUP4 AND EQ JUMPDEST SWAP3 SWAP2 POP POP JUMP JUMPDEST PUSH1 0xA PUSH1 0x20 MSTORE DUP2 PUSH0 MSTORE PUSH1 0x40 PUSH0 KECCAK256 DUP2 DUP2 SLOAD DUP2 LT PUSH2 0x803 JUMPI PUSH0 DUP1 REVERT JUMPDEST PUSH0 SWAP2 DUP3 MSTORE PUSH1 0x20 SWAP1 SWAP2 KECCAK256 ADD SLOAD PUSH1 0x1 PUSH1 0x1 PUSH1 0xA0 SHL SUB AND SWAP2 POP DUP3 SWAP1 POP JUMP JUMPDEST PUSH0 PUSH2 0x827 PUSH2 0x16CE JUMP JUMPDEST PUSH1 0x3 SLOAD CALLVALUE LT ISZERO PUSH2 0x875 JUMPI PUSH1 0x40 MLOAD PUSH3 0x461BCD PUSH1 0xE5 SHL DUP2 MSTORE PUSH1 0x20 PUSH1 0x4 DUP3 ADD MSTORE PUSH1 0x14 PUSH1 0x24 DUP3 ADD MSTORE PUSH20 0x125B9CDD59999A58DA595B9D0819195C1BDCDA5D PUSH1 0x62 SHL PUSH1 0x44 DUP3 ADD MSTORE PUSH1 0x64 ADD JUMPDEST PUSH1 0x40 MLOAD DUP1 SWAP2 SUB SWAP1 REVERT JUMPDEST PUSH0 DUP4 DUP2 MSTORE PUSH1 0xB PUSH1 0x20 MSTORE PUSH1 0x40 SWAP1 KECCAK256 SLOAD ISZERO PUSH2 0x8D0 JUMPI PUSH1 0x40 MLOAD PUSH3 0x461BCD PUSH1 0xE5 SHL DUP2 MSTORE PUSH1 0x20 PUSH1 0x4 DUP3 ADD MSTORE PUSH1 0x18 PUSH1 0x24 DUP3 ADD MSTORE PUSH32 0x5265736F7572636520616C726561647920666C61676765640000000000000000 PUSH1 0x44 DUP3 ADD MSTORE PUSH1 0x64 ADD PUSH2 0x86C JUMP JUMPDEST POP PUSH1 0x40 DUP1 MLOAD PUSH1 0x20 DUP1 DUP3 ADD DUP6 SWAP1 MSTORE CALLER PUSH1 0x60 DUP2 SWAP1 SHL PUSH12 0xFFFFFFFFFFFFFFFFFFFFFFFF NOT AND DUP4 DUP6 ADD MSTORE TIMESTAMP PUSH1 0x54 DUP1 DUP6 ADD SWAP2 SWAP1 SWAP2 MSTORE DUP5 MLOAD DUP1 DUP6 SUB SWAP1 SWAP2 ADD DUP2 MSTORE PUSH1 0x74 DUP5 ADD DUP1 DUP7 MSTORE DUP2 MLOAD SWAP2 SWAP1 SWAP4 ADD KECCAK256 PUSH2 0x194 DUP5 ADD SWAP1 SWAP5 MSTORE DUP6 DUP3 MSTORE PUSH1 0x94 DUP4 ADD MSTORE CALLVALUE PUSH1 0xB4 DUP4 ADD MSTORE PUSH1 0xD4 DUP3 ADD DUP5 SWAP1 MSTORE SWAP1 PUSH1 0xF4 ADD PUSH0 DUP2 MSTORE PUSH1 0x20 ADD TIMESTAMP DUP2 MSTORE PUSH1 0x20 ADD PUSH0 DUP2 MSTORE PUSH1 0x20 ADD PUSH0 DUP2 MSTORE PUSH1 0x20 ADD PUSH0 DUP2 MSTORE POP PUSH1 0x8 PUSH0 DUP4 DUP2 MSTORE PUSH1 0x20 ADD SWAP1 DUP2 MSTORE PUSH1 0x20 ADD PUSH0 KECCAK256 PUSH0 DUP3 ADD MLOAD DUP2 PUSH0 ADD SSTORE PUSH1 0x20 DUP3 ADD MLOAD DUP2 PUSH1 0x1 ADD PUSH0 PUSH2 0x100 EXP DUP2 SLOAD DUP2 PUSH1 0x1 PUSH1 0x1 PUSH1 0xA0 SHL SUB MUL NOT AND SWAP1 DUP4 PUSH1 0x1 PUSH1 0x1 PUSH1 0xA0 SHL SUB AND MUL OR SWAP1 SSTORE POP PUSH1 0x40 DUP3 ADD MLOAD DUP2 PUSH1 0x2 ADD SSTORE PUSH1 0x60 DUP3 ADD MLOAD DUP2 PUSH1 0x3 ADD SSTORE PUSH1 0x80 DUP3 ADD MLOAD DUP2 PUSH1 0x4 ADD PUSH0 PUSH2 0x100 EXP DUP2 SLOAD DUP2 PUSH1 0xFF MUL NOT AND SWAP1 DUP4 PUSH1 0x5 DUP2 GT ISZERO PUSH2 0x9D7 JUMPI PUSH2 0x9D7 PUSH2 0x1D81 JUMP JUMPDEST MUL OR SWAP1 SSTORE POP PUSH1 0xA0 DUP3 ADD MLOAD PUSH1 0x5 DUP3 ADD SSTORE PUSH1 0xC0 DUP3 ADD MLOAD PUSH1 0x6 DUP3 ADD SSTORE PUSH1 0xE0 DUP3 ADD MLOAD PUSH1 0x7 DUP3 ADD SSTORE PUSH2 0x100 SWAP1 SWAP2 ADD MLOAD PUSH1 0x8 SWAP1 SWAP2 ADD SSTORE PUSH0 DUP4 DUP2 MSTORE PUSH1 0xB PUSH1 0x20 SWAP1 DUP2 MSTORE PUSH1 0x40 SWAP2 DUP3 SWAP1 KECCAK256 DUP4 SWAP1 SSTORE DUP2 MLOAD CALLVALUE DUP2 MSTORE SWAP1 DUP2 ADD DUP5 SWAP1 MSTORE CALLER SWAP2 DUP6 SWAP2 DUP5 SWAP2 PUSH32 0xC92EDB8FB4BAC81C1756962B16BBA68657B07E9A6C6E852B9A63550FDC27C1BB SWAP2 ADD PUSH1 0x40 MLOAD DUP1 SWAP2 SUB SWAP1 LOG4 PUSH1 0x4 SLOAD PUSH1 0xC SLOAD LT PUSH2 0xA6B JUMPI PUSH2 0xA6B DUP2 PUSH2 0x16F8 JUMP JUMPDEST PUSH2 0x7E4 PUSH1 0x1 DUP1 SSTORE JUMP JUMPDEST PUSH0 DUP3 DUP2 MSTORE PUSH1 0x20 DUP2 SWAP1 MSTORE PUSH1 0x40 SWAP1 KECCAK256 PUSH1 0x1 ADD SLOAD PUSH2 0xA8E DUP2 PUSH2 0x19BC JUMP JUMPDEST PUSH2 0xA98 DUP4 DUP4 PUSH2 0x19C6 JUMP JUMPDEST POP POP POP POP JUMP JUMPDEST PUSH1 0x1 PUSH1 0x1 PUSH1 0xA0 SHL SUB DUP2 AND CALLER EQ PUSH2 0xAC7 JUMPI PUSH1 0x40 MLOAD PUSH4 0x334BD919 PUSH1 0xE1 SHL DUP2 MSTORE PUSH1 0x4 ADD PUSH1 0x40 MLOAD DUP1 SWAP2 SUB SWAP1 REVERT JUMPDEST PUSH2 0xAD1 DUP3 DUP3 PUSH2 0x1A55 JUMP JUMPDEST POP POP POP JUMP JUMPDEST PUSH0 DUP2 DUP2 MSTORE PUSH1 0xA PUSH1 0x20 SWAP1 DUP2 MSTORE PUSH1 0x40 SWAP2 DUP3 SWAP1 KECCAK256 DUP1 SLOAD DUP4 MLOAD DUP2 DUP5 MUL DUP2 ADD DUP5 ADD SWAP1 SWAP5 MSTORE DUP1 DUP5 MSTORE PUSH1 0x60 SWAP4 SWAP3 DUP4 ADD DUP3 DUP3 DUP1 ISZERO PUSH2 0xB33 JUMPI PUSH1 0x20 MUL DUP3 ADD SWAP2 SWAP1 PUSH0 MSTORE PUSH1 0x20 PUSH0 KECCAK256 SWAP1 JUMPDEST DUP2 SLOAD PUSH1 0x1 PUSH1 0x1 PUSH1 0xA0 SHL SUB AND DUP2 MSTORE PUSH1 0x1 SWAP1 SWAP2 ADD SWAP1 PUSH1 0x20 ADD DUP1 DUP4 GT PUSH2 0xB15 JUMPI JUMPDEST POP POP POP POP POP SWAP1 POP SWAP2 SWAP1 POP JUMP JUMPDEST PUSH0 SWAP2 DUP3 MSTORE PUSH1 0x20 DUP3 DUP2 MSTORE PUSH1 0x40 DUP1 DUP5 KECCAK256 PUSH1 0x1 PUSH1 0x1 PUSH1 0xA0 SHL SUB SWAP4 SWAP1 SWAP4 AND DUP5 MSTORE SWAP2 SWAP1 MSTORE SWAP1 KECCAK256 SLOAD PUSH1 0xFF AND SWAP1 JUMP JUMPDEST PUSH0 DUP1 MLOAD PUSH1 0x20 PUSH2 0x2073 DUP4 CODECOPY DUP2 MLOAD SWAP2 MSTORE PUSH2 0xB7E DUP2 PUSH2 0x19BC JUMP JUMPDEST PUSH1 0x1 PUSH1 0x1 PUSH1 0xA0 SHL SUB DUP3 AND PUSH2 0xBD4 JUMPI PUSH1 0x40 MLOAD PUSH3 0x461BCD PUSH1 0xE5 SHL DUP2 MSTORE PUSH1 0x20 PUSH1 0x4 DUP3 ADD MSTORE PUSH1 0x18 PUSH1 0x24 DUP3 ADD MSTORE PUSH32 0x496E76616C6964207374616B696E6720636F6E74726163740000000000000000 PUSH1 0x44 DUP3 ADD MSTORE PUSH1 0x64 ADD PUSH2 0x86C JUMP JUMPDEST POP PUSH1 0x2 DUP1 SLOAD PUSH1 0x1 PUSH1 0x1 PUSH1 0xA0 SHL SUB NOT AND PUSH1 0x1 PUSH1 0x1 PUSH1 0xA0 SHL SUB SWAP3 SWAP1 SWAP3 AND SWAP2 SWAP1 SWAP2 OR SWAP1 SSTORE JUMP JUMPDEST PUSH2 0xBFF PUSH2 0x16CE JUMP JUMPDEST PUSH0 DUP3 DUP2 MSTORE PUSH1 0x8 PUSH1 0x20 MSTORE PUSH1 0x40 SWAP1 KECCAK256 PUSH1 0x1 PUSH1 0x4 DUP3 ADD SLOAD PUSH1 0xFF AND PUSH1 0x5 DUP2 GT ISZERO PUSH2 0xC27 JUMPI PUSH2 0xC27 PUSH2 0x1D81 JUMP JUMPDEST EQ PUSH2 0xC64 JUMPI PUSH1 0x40 MLOAD PUSH3 0x461BCD PUSH1 0xE5 SHL DUP2 MSTORE PUSH1 0x20 PUSH1 0x4 DUP3 ADD MSTORE PUSH1 0xD PUSH1 0x24 DUP3 ADD MSTORE PUSH13 0x4E6F7420696E20726576696577 PUSH1 0x98 SHL PUSH1 0x44 DUP3 ADD MSTORE PUSH1 0x64 ADD PUSH2 0x86C JUMP JUMPDEST DUP1 PUSH1 0x6 ADD SLOAD TIMESTAMP LT PUSH2 0xCA6 JUMPI PUSH1 0x40 MLOAD PUSH3 0x461BCD PUSH1 0xE5 SHL DUP2 MSTORE PUSH1 0x20 PUSH1 0x4 DUP3 ADD MSTORE PUSH1 0xC PUSH1 0x24 DUP3 ADD MSTORE PUSH12 0x159BDD1A5B99C8195B991959 PUSH1 0xA2 SHL PUSH1 0x44 DUP3 ADD MSTORE PUSH1 0x64 ADD PUSH2 0x86C JUMP JUMPDEST PUSH0 DUP4 DUP2 MSTORE PUSH1 0x9 PUSH1 0x20 SWAP1 DUP2 MSTORE PUSH1 0x40 DUP1 DUP4 KECCAK256 CALLER DUP5 MSTORE SWAP1 SWAP2 MSTORE SWAP1 KECCAK256 DUP1 SLOAD PUSH1 0xFF AND PUSH2 0xCFD JUMPI PUSH1 0x40 MLOAD PUSH3 0x461BCD PUSH1 0xE5 SHL DUP2 MSTORE PUSH1 0x20 PUSH1 0x4 DUP3 ADD MSTORE PUSH1 0xB PUSH1 0x24 DUP3 ADD MSTORE PUSH11 0x2737BA103090353AB937B9 PUSH1 0xA9 SHL PUSH1 0x44 DUP3 ADD MSTORE PUSH1 0x64 ADD PUSH2 0x86C JUMP JUMPDEST DUP1 SLOAD PUSH2 0x100 SWAP1 DIV PUSH1 0xFF AND ISZERO PUSH2 0xD44 JUMPI PUSH1 0x40 MLOAD PUSH3 0x461BCD PUSH1 0xE5 SHL DUP2 MSTORE PUSH1 0x20 PUSH1 0x4 DUP3 ADD MSTORE PUSH1 0xD PUSH1 0x24 DUP3 ADD MSTORE PUSH13 0x105B1C9958591E481D9BDD1959 PUSH1 0x9A SHL PUSH1 0x44 DUP3 ADD MSTORE PUSH1 0x64 ADD PUSH2 0x86C JUMP JUMPDEST DUP1 SLOAD DUP4 ISZERO ISZERO PUSH3 0x10000 MUL PUSH3 0xFFFF00 NOT SWAP1 SWAP2 AND OR PUSH2 0x100 OR DUP2 SSTORE PUSH1 0x7 DUP3 ADD DUP1 SLOAD SWAP1 PUSH0 PUSH2 0xD6E DUP4 PUSH2 0x1F9C JUMP JUMPDEST SWAP2 SWAP1 POP SSTORE POP DUP3 ISZERO PUSH2 0xD90 JUMPI PUSH1 0x8 DUP3 ADD DUP1 SLOAD SWAP1 PUSH0 PUSH2 0xD8A DUP4 PUSH2 0x1F9C JUMP JUMPDEST SWAP2 SWAP1 POP SSTORE POP JUMPDEST PUSH1 0x40 MLOAD DUP4 ISZERO ISZERO DUP2 MSTORE CALLER SWAP1 DUP6 SWAP1 PUSH32 0xF2EE66CB5FB317984A735AFCE8F490E33D93334D63262BAC9728CB9FEC4038A5 SWAP1 PUSH1 0x20 ADD PUSH1 0x40 MLOAD DUP1 SWAP2 SUB SWAP1 LOG3 PUSH1 0x4 SLOAD DUP3 PUSH1 0x7 ADD SLOAD SUB PUSH2 0xDDF JUMPI PUSH2 0xDDF DUP5 PUSH2 0x1ABE JUMP JUMPDEST POP POP PUSH2 0xDEA PUSH1 0x1 DUP1 SSTORE JUMP JUMPDEST POP POP JUMP JUMPDEST PUSH0 DUP1 MLOAD PUSH1 0x20 PUSH2 0x2073 DUP4 CODECOPY DUP2 MLOAD SWAP2 MSTORE PUSH2 0xE05 DUP2 PUSH2 0x19BC JUMP JUMPDEST POP PUSH1 0x3 SSTORE JUMP JUMPDEST PUSH0 DUP2 DUP2 MSTORE PUSH1 0xB PUSH1 0x20 MSTORE PUSH1 0x40 DUP2 KECCAK256 SLOAD DUP1 PUSH2 0xE57 JUMPI PUSH1 0x40 MLOAD PUSH3 0x461BCD PUSH1 0xE5 SHL DUP2 MSTORE PUSH1 0x20 PUSH1 0x4 DUP3 ADD MSTORE PUSH1 0xE PUSH1 0x24 DUP3 ADD MSTORE PUSH14 0x4E6F2061637469766520666C6167 PUSH1 0x90 SHL PUSH1 0x44 DUP3 ADD MSTORE PUSH1 0x64 ADD PUSH2 0x86C JUMP JUMPDEST PUSH0 DUP2 DUP2 MSTORE PUSH1 0x8 PUSH1 0x20 MSTORE PUSH1 0x40 SWAP1 KECCAK256 PUSH1 0x2 PUSH1 0x4 DUP3 ADD SLOAD PUSH1 0xFF AND PUSH1 0x5 DUP2 GT ISZERO PUSH2 0xE7F JUMPI PUSH2 0xE7F PUSH2 0x1D81 JUMP JUMPDEST EQ PUSH2 0xEB9 JUMPI PUSH1 0x40 MLOAD PUSH3 0x461BCD PUSH1 0xE5 SHL DUP2 MSTORE PUSH1 0x20 PUSH1 0x4 DUP3 ADD MSTORE PUSH1 0xA PUSH1 0x24 DUP3 ADD MSTORE PUSH10 0x4E6F74206775696C7479 PUSH1 0xB0 SHL PUSH1 0x44 DUP3 ADD MSTORE PUSH1 0x64 ADD PUSH2 0x86C JUMP JUMPDEST PUSH0 DUP5 DUP2 MSTORE PUSH1 0xB PUSH1 0x20 MSTORE PUSH1 0x40 DUP1 DUP3 KECCAK256 DUP3 SWAP1 SSTORE PUSH1 0x1 DUP4 ADD SLOAD PUSH1 0x2 DUP5 ADD SLOAD SWAP2 MLOAD PUSH1 0x1 PUSH1 0x1 PUSH1 0xA0 SHL SUB SWAP1 SWAP2 AND SWAP3 DUP3 ISZERO PUSH2 0x8FC MUL SWAP3 SWAP2 SWAP1 DUP2 DUP2 DUP2 DUP6 DUP9 DUP9 CALL SWAP4 POP POP POP POP ISZERO DUP1 ISZERO PUSH2 0xF06 JUMPI RETURNDATASIZE PUSH0 DUP1 RETURNDATACOPY RETURNDATASIZE PUSH0 REVERT JUMPDEST POP DUP4 PUSH32 0x3C6D365DB6255BC86EB46A819F3B6DED3BC0D34EBFFBF0E688587EE50A36DE35 DUP3 PUSH1 0x2 ADD SLOAD PUSH1 0x40 MLOAD PUSH2 0xF3D SWAP2 DUP2 MSTORE PUSH1 0x20 ADD SWAP1 JUMP JUMPDEST PUSH1 0x40 MLOAD DUP1 SWAP2 SUB SWAP1 LOG2 POP PUSH1 0x1 SWAP4 SWAP3 POP POP POP JUMP JUMPDEST PUSH0 DUP1 MLOAD PUSH1 0x20 PUSH2 0x2073 DUP4 CODECOPY DUP2 MLOAD SWAP2 MSTORE PUSH2 0xF66 DUP2 PUSH2 0x19BC JUMP JUMPDEST PUSH1 0x3 DUP3 LT ISZERO DUP1 ISZERO PUSH2 0xF81 JUMPI POP PUSH2 0xF7D PUSH1 0x2 DUP4 PUSH2 0x1FC8 JUMP JUMPDEST PUSH1 0x1 EQ JUMPDEST PUSH2 0xFC1 JUMPI PUSH1 0x40 MLOAD PUSH3 0x461BCD PUSH1 0xE5 SHL DUP2 MSTORE PUSH1 0x20 PUSH1 0x4 DUP3 ADD MSTORE PUSH1 0x11 PUSH1 0x24 DUP3 ADD MSTORE PUSH17 0x496E76616C6964206A7572792073697A65 PUSH1 0x78 SHL PUSH1 0x44 DUP3 ADD MSTORE PUSH1 0x64 ADD PUSH2 0x86C JUMP JUMPDEST POP PUSH1 0x4 SSTORE JUMP JUMPDEST PUSH0 DUP1 MLOAD PUSH1 0x20 PUSH2 0x2073 DUP4 CODECOPY DUP2 MLOAD SWAP2 MSTORE PUSH2 0xFDE DUP2 PUSH2 0x19BC JUMP JUMPDEST PUSH1 0x1 PUSH1 0x1 PUSH1 0xA0 SHL SUB DUP3 AND PUSH0 SWAP1 DUP2 MSTORE PUSH1 0xD PUSH1 0x20 MSTORE PUSH1 0x40 SWAP1 KECCAK256 SLOAD PUSH1 0xFF AND ISZERO PUSH2 0x1038 JUMPI PUSH1 0x40 MLOAD PUSH3 0x461BCD PUSH1 0xE5 SHL DUP2 MSTORE PUSH1 0x20 PUSH1 0x4 DUP3 ADD MSTORE PUSH1 0xF PUSH1 0x24 DUP3 ADD MSTORE PUSH15 0x105B1C9958591E481A5B881C1BDBDB PUSH1 0x8A SHL PUSH1 0x44 DUP3 ADD MSTORE PUSH1 0x64 ADD PUSH2 0x86C JUMP JUMPDEST POP PUSH1 0xC DUP1 SLOAD PUSH1 0x1 DUP2 DUP2 ADD SWAP1 SWAP3 SSTORE PUSH32 0xDF6966C971051C3D54EC59162606531493A51404A002842F56009D7E5CF4A8C7 ADD DUP1 SLOAD PUSH1 0x1 PUSH1 0x1 PUSH1 0xA0 SHL SUB SWAP1 SWAP4 AND PUSH1 0x1 PUSH1 0x1 PUSH1 0xA0 SHL SUB NOT SWAP1 SWAP4 AND DUP4 OR SWAP1 SSTORE PUSH0 SWAP2 DUP3 MSTORE PUSH1 0xD PUSH1 0x20 MSTORE PUSH1 0x40 SWAP1 SWAP2 KECCAK256 DUP1 SLOAD PUSH1 0xFF NOT AND SWAP1 SWAP2 OR SWAP1 SSTORE JUMP JUMPDEST PUSH0 DUP2 DUP2 MSTORE PUSH1 0x8 PUSH1 0x20 MSTORE PUSH1 0x40 SWAP1 KECCAK256 PUSH1 0x1 PUSH1 0x4 DUP3 ADD SLOAD PUSH1 0xFF AND PUSH1 0x5 DUP2 GT ISZERO PUSH2 0x10C7 JUMPI PUSH2 0x10C7 PUSH2 0x1D81 JUMP JUMPDEST EQ PUSH2 0x1104 JUMPI PUSH1 0x40 MLOAD PUSH3 0x461BCD PUSH1 0xE5 SHL DUP2 MSTORE PUSH1 0x20 PUSH1 0x4 DUP3 ADD MSTORE PUSH1 0xD PUSH1 0x24 DUP3 ADD MSTORE PUSH13 0x4E6F7420696E20726576696577 PUSH1 0x98 SHL PUSH1 0x44 DUP3 ADD MSTORE PUSH1 0x64 ADD PUSH2 0x86C JUMP JUMPDEST DUP1 PUSH1 0x6 ADD SLOAD TIMESTAMP LT ISZERO PUSH2 0x114B JUMPI PUSH1 0x40 MLOAD PUSH3 0x461BCD PUSH1 0xE5 SHL DUP2 MSTORE PUSH1 0x20 PUSH1 0x4 DUP3 ADD MSTORE PUSH1 0x10 PUSH1 0x24 DUP3 ADD MSTORE PUSH16 0x159BDD1A5B99C81B9BDD08195B991959 PUSH1 0x82 SHL PUSH1 0x44 DUP3 ADD MSTORE PUSH1 0x64 ADD PUSH2 0x86C JUMP JUMPDEST PUSH2 0xDEA DUP3 PUSH2 0x1ABE JUMP JUMPDEST PUSH0 DUP3 DUP2 MSTORE PUSH1 0x20 DUP2 SWAP1 MSTORE PUSH1 0x40 SWAP1 KECCAK256 PUSH1 0x1 ADD SLOAD PUSH2 0x116E DUP2 PUSH2 0x19BC JUMP JUMPDEST PUSH2 0xA98 DUP4 DUP4 PUSH2 0x1A55 JUMP JUMPDEST PUSH2 0x11C2 PUSH1 0x40 DUP1 MLOAD PUSH2 0x120 DUP2 ADD DUP3 MSTORE PUSH0 DUP1 DUP3 MSTORE PUSH1 0x20 DUP3 ADD DUP2 SWAP1 MSTORE SWAP2 DUP2 ADD DUP3 SWAP1 MSTORE PUSH1 0x60 DUP2 ADD DUP3 SWAP1 MSTORE SWAP1 PUSH1 0x80 DUP3 ADD SWAP1 DUP2 MSTORE PUSH1 0x20 ADD PUSH0 DUP2 MSTORE PUSH1 0x20 ADD PUSH0 DUP2 MSTORE PUSH1 0x20 ADD PUSH0 DUP2 MSTORE PUSH1 0x20 ADD PUSH0 DUP2 MSTORE POP SWAP1 JUMP JUMPDEST PUSH0 DUP3 DUP2 MSTORE PUSH1 0x8 PUSH1 0x20 SWAP1 DUP2 MSTORE PUSH1 0x40 SWAP2 DUP3 SWAP1 KECCAK256 DUP3 MLOAD PUSH2 0x120 DUP2 ADD DUP5 MSTORE DUP2 SLOAD DUP2 MSTORE PUSH1 0x1 DUP3 ADD SLOAD PUSH1 0x1 PUSH1 0x1 PUSH1 0xA0 SHL SUB AND SWAP3 DUP2 ADD SWAP3 SWAP1 SWAP3 MSTORE PUSH1 0x2 DUP2 ADD SLOAD SWAP3 DUP3 ADD SWAP3 SWAP1 SWAP3 MSTORE PUSH1 0x3 DUP3 ADD SLOAD PUSH1 0x60 DUP3 ADD MSTORE PUSH1 0x4 DUP3 ADD SLOAD SWAP1 SWAP2 SWAP1 PUSH1 0x80 DUP4 ADD SWAP1 PUSH1 0xFF AND PUSH1 0x5 DUP2 GT ISZERO PUSH2 0x122C JUMPI PUSH2 0x122C PUSH2 0x1D81 JUMP JUMPDEST PUSH1 0x5 DUP2 GT ISZERO PUSH2 0x123D JUMPI PUSH2 0x123D PUSH2 0x1D81 JUMP JUMPDEST DUP2 MSTORE PUSH1 0x5 DUP3 ADD SLOAD PUSH1 0x20 DUP3 ADD MSTORE PUSH1 0x6 DUP3 ADD SLOAD PUSH1 0x40 DUP3 ADD MSTORE PUSH1 0x7 DUP3 ADD SLOAD PUSH1 0x60 DUP3 ADD MSTORE PUSH1 0x8 SWAP1 SWAP2 ADD SLOAD PUSH1 0x80 SWAP1 SWAP2 ADD MSTORE SWAP3 SWAP2 POP POP JUMP JUMPDEST PUSH0 DUP1 MLOAD PUSH1 0x20 PUSH2 0x2073 DUP4 CODECOPY DUP2 MLOAD SWAP2 MSTORE PUSH2 0x1286 DUP2 PUSH2 0x19BC JUMP JUMPDEST PUSH0 JUMPDEST DUP3 DUP2 LT ISZERO PUSH2 0xA98 JUMPI PUSH1 0xD PUSH0 DUP6 DUP6 DUP5 DUP2 DUP2 LT PUSH2 0x12A5 JUMPI PUSH2 0x12A5 PUSH2 0x1FDB JUMP JUMPDEST SWAP1 POP PUSH1 0x20 MUL ADD PUSH1 0x20 DUP2 ADD SWAP1 PUSH2 0x12BA SWAP2 SWAP1 PUSH2 0x1E0E JUMP JUMPDEST PUSH1 0x1 PUSH1 0x1 PUSH1 0xA0 SHL SUB AND DUP2 MSTORE PUSH1 0x20 DUP2 ADD SWAP2 SWAP1 SWAP2 MSTORE PUSH1 0x40 ADD PUSH0 KECCAK256 SLOAD PUSH1 0xFF AND PUSH2 0x1389 JUMPI PUSH1 0xC DUP5 DUP5 DUP4 DUP2 DUP2 LT PUSH2 0x12EE JUMPI PUSH2 0x12EE PUSH2 0x1FDB JUMP JUMPDEST SWAP1 POP PUSH1 0x20 MUL ADD PUSH1 0x20 DUP2 ADD SWAP1 PUSH2 0x1303 SWAP2 SWAP1 PUSH2 0x1E0E JUMP JUMPDEST DUP2 SLOAD PUSH1 0x1 DUP1 DUP3 ADD DUP5 SSTORE PUSH0 SWAP4 DUP5 MSTORE PUSH1 0x20 DUP5 KECCAK256 SWAP1 SWAP2 ADD DUP1 SLOAD PUSH1 0x1 PUSH1 0x1 PUSH1 0xA0 SHL SUB NOT AND PUSH1 0x1 PUSH1 0x1 PUSH1 0xA0 SHL SUB SWAP4 SWAP1 SWAP4 AND SWAP3 SWAP1 SWAP3 OR SWAP1 SWAP2 SSTORE SWAP1 PUSH1 0xD SWAP1 DUP7 DUP7 DUP6 DUP2 DUP2 LT PUSH2 0x134C JUMPI PUSH2 0x134C PUSH2 0x1FDB JUMP JUMPDEST SWAP1 POP PUSH1 0x20 MUL ADD PUSH1 0x20 DUP2 ADD SWAP1 PUSH2 0x1361 SWAP2 SWAP1 PUSH2 0x1E0E JUMP JUMPDEST PUSH1 0x1 PUSH1 0x1 PUSH1 0xA0 SHL SUB AND DUP2 MSTORE PUSH1 0x20 DUP2 ADD SWAP2 SWAP1 SWAP2 MSTORE PUSH1 0x40 ADD PUSH0 KECCAK256 DUP1 SLOAD PUSH1 0xFF NOT AND SWAP2 ISZERO ISZERO SWAP2 SWAP1 SWAP2 OR SWAP1 SSTORE JUMPDEST PUSH1 0x1 ADD PUSH2 0x1288 JUMP JUMPDEST PUSH0 DUP1 MLOAD PUSH1 0x20 PUSH2 0x2073 DUP4 CODECOPY DUP2 MLOAD SWAP2 MSTORE PUSH2 0x13A8 DUP2 PUSH2 0x19BC JUMP JUMPDEST PUSH3 0x15180 DUP3 LT ISZERO PUSH2 0x13EE JUMPI PUSH1 0x40 MLOAD PUSH3 0x461BCD PUSH1 0xE5 SHL DUP2 MSTORE PUSH1 0x20 PUSH1 0x4 DUP3 ADD MSTORE PUSH1 0x10 PUSH1 0x24 DUP3 ADD MSTORE PUSH16 0x14195C9A5BD9081D1BDBC81CDA1BDC9D PUSH1 0x82 SHL PUSH1 0x44 DUP3 ADD MSTORE PUSH1 0x64 ADD PUSH2 0x86C JUMP JUMPDEST POP PUSH1 0x5 SSTORE JUMP JUMPDEST PUSH2 0x13FC PUSH2 0x16CE JUMP JUMPDEST PUSH0 DUP2 DUP2 MSTORE PUSH1 0x8 PUSH1 0x20 MSTORE PUSH1 0x40 SWAP1 KECCAK256 PUSH1 0x2 PUSH1 0x4 DUP3 ADD SLOAD PUSH1 0xFF AND PUSH1 0x5 DUP2 GT ISZERO PUSH2 0x1424 JUMPI PUSH2 0x1424 PUSH2 0x1D81 JUMP JUMPDEST EQ DUP1 PUSH2 0x1448 JUMPI POP PUSH1 0x3 PUSH1 0x4 DUP3 ADD SLOAD PUSH1 0xFF AND PUSH1 0x5 DUP2 GT ISZERO PUSH2 0x1446 JUMPI PUSH2 0x1446 PUSH2 0x1D81 JUMP JUMPDEST EQ JUMPDEST PUSH2 0x1484 JUMPI PUSH1 0x40 MLOAD PUSH3 0x461BCD PUSH1 0xE5 SHL DUP2 MSTORE PUSH1 0x20 PUSH1 0x4 DUP3 ADD MSTORE PUSH1 0xD PUSH1 0x24 DUP3 ADD MSTORE PUSH13 0x10D85B9B9BDD08185C1C19585B PUSH1 0x9A SHL PUSH1 0x44 DUP3 ADD MSTORE PUSH1 0x64 ADD PUSH2 0x86C JUMP JUMPDEST PUSH1 0x6 DUP2 ADD SLOAD PUSH2 0x1496 SWAP1 PUSH3 0x3F480 PUSH2 0x1FEF JUMP JUMPDEST TIMESTAMP LT PUSH2 0x14DB JUMPI PUSH1 0x40 MLOAD PUSH3 0x461BCD PUSH1 0xE5 SHL DUP2 MSTORE PUSH1 0x20 PUSH1 0x4 DUP3 ADD MSTORE PUSH1 0x14 PUSH1 0x24 DUP3 ADD MSTORE PUSH20 0x105C1C19585B081DDA5B991BDDC818DB1BDCD959 PUSH1 0x62 SHL PUSH1 0x44 DUP3 ADD MSTORE PUSH1 0x64 ADD PUSH2 0x86C JUMP JUMPDEST PUSH0 PUSH1 0x7 SLOAD DUP3 PUSH1 0x2 ADD SLOAD PUSH2 0x14EE SWAP2 SWAP1 PUSH2 0x2002 JUMP JUMPDEST SWAP1 POP DUP1 CALLVALUE LT ISZERO PUSH2 0x1540 JUMPI PUSH1 0x40 MLOAD PUSH3 0x461BCD PUSH1 0xE5 SHL DUP2 MSTORE PUSH1 0x20 PUSH1 0x4 DUP3 ADD MSTORE PUSH1 0x1B PUSH1 0x24 DUP3 ADD MSTORE PUSH32 0x496E73756666696369656E742061707065616C206465706F7369740000000000 PUSH1 0x44 DUP3 ADD MSTORE PUSH1 0x64 ADD PUSH2 0x86C JUMP JUMPDEST PUSH1 0x4 DUP3 DUP2 ADD DUP1 SLOAD PUSH1 0xFF NOT AND PUSH1 0x1 DUP4 MUL OR SWAP1 SSTORE POP CALLVALUE DUP3 PUSH1 0x2 ADD PUSH0 DUP3 DUP3 SLOAD PUSH2 0x1566 SWAP2 SWAP1 PUSH2 0x1FEF JUMP JUMPDEST SWAP1 SWAP2 SSTORE POP POP PUSH0 PUSH1 0x7 DUP4 ADD DUP2 SWAP1 SSTORE PUSH1 0x8 DUP4 ADD DUP2 SWAP1 SSTORE DUP4 DUP2 MSTORE PUSH1 0xA PUSH1 0x20 MSTORE PUSH1 0x40 DUP2 KECCAK256 PUSH2 0x158F SWAP2 PUSH2 0x1CA9 JUMP JUMPDEST PUSH1 0x40 MLOAD CALLVALUE DUP2 MSTORE CALLER SWAP1 DUP5 SWAP1 PUSH31 0x672BEDE80DED560CFBD92A0645208424B47E23B9E8E01A245DB8A0A6EB71B5 SWAP1 PUSH1 0x20 ADD PUSH1 0x40 MLOAD DUP1 SWAP2 SUB SWAP1 LOG3 PUSH1 0x4 SLOAD PUSH1 0xC SLOAD LT PUSH2 0x15D9 JUMPI PUSH2 0x15D9 DUP4 PUSH2 0x16F8 JUMP JUMPDEST POP POP PUSH2 0x15E4 PUSH1 0x1 DUP1 SSTORE JUMP JUMPDEST POP JUMP JUMPDEST PUSH0 DUP2 DUP2 MSTORE PUSH1 0x8 PUSH1 0x20 MSTORE PUSH1 0x40 DUP2 KECCAK256 SWAP1 PUSH1 0x4 DUP3 ADD SLOAD PUSH1 0xFF AND PUSH1 0x5 DUP2 GT ISZERO PUSH2 0x160E JUMPI PUSH2 0x160E PUSH2 0x1D81 JUMP JUMPDEST EQ PUSH2 0x1649 JUMPI PUSH1 0x40 MLOAD PUSH3 0x461BCD PUSH1 0xE5 SHL DUP2 MSTORE PUSH1 0x20 PUSH1 0x4 DUP3 ADD MSTORE PUSH1 0xB PUSH1 0x24 DUP3 ADD MSTORE PUSH11 0x4E6F742070656E64696E67 PUSH1 0xA8 SHL PUSH1 0x44 DUP3 ADD MSTORE PUSH1 0x64 ADD PUSH2 0x86C JUMP JUMPDEST PUSH1 0x4 SLOAD PUSH1 0xC SLOAD LT ISZERO PUSH2 0x169D JUMPI PUSH1 0x40 MLOAD PUSH3 0x461BCD PUSH1 0xE5 SHL DUP2 MSTORE PUSH1 0x20 PUSH1 0x4 DUP3 ADD MSTORE PUSH1 0x17 PUSH1 0x24 DUP3 ADD MSTORE PUSH32 0x496E73756666696369656E74206A75726F7220706F6F6C000000000000000000 PUSH1 0x44 DUP3 ADD MSTORE PUSH1 0x64 ADD PUSH2 0x86C JUMP JUMPDEST PUSH2 0xDEA DUP3 PUSH2 0x16F8 JUMP JUMPDEST PUSH1 0xC DUP2 DUP2 SLOAD DUP2 LT PUSH2 0x16B5 JUMPI PUSH0 DUP1 REVERT JUMPDEST PUSH0 SWAP2 DUP3 MSTORE PUSH1 0x20 SWAP1 SWAP2 KECCAK256 ADD SLOAD PUSH1 0x1 PUSH1 0x1 PUSH1 0xA0 SHL SUB AND SWAP1 POP DUP2 JUMP JUMPDEST PUSH1 0x2 PUSH1 0x1 SLOAD SUB PUSH2 0x16F1 JUMPI PUSH1 0x40 MLOAD PUSH4 0x3EE5AEB5 PUSH1 0xE0 SHL DUP2 MSTORE PUSH1 0x4 ADD PUSH1 0x40 MLOAD DUP1 SWAP2 SUB SWAP1 REVERT JUMPDEST PUSH1 0x2 PUSH1 0x1 SSTORE JUMP JUMPDEST PUSH0 DUP2 DUP2 MSTORE PUSH1 0x8 PUSH1 0x20 MSTORE PUSH1 0x40 DUP2 KECCAK256 SWAP1 PUSH2 0x1711 PUSH1 0x1 NUMBER PUSH2 0x2019 JUMP JUMPDEST PUSH1 0x40 DUP1 MLOAD SWAP2 BLOCKHASH PUSH1 0x20 DUP4 ADD MSTORE DUP2 ADD DUP5 SWAP1 MSTORE TIMESTAMP PUSH1 0x60 DUP3 ADD MSTORE PUSH1 0x80 ADD PUSH1 0x40 MLOAD PUSH1 0x20 DUP2 DUP4 SUB SUB DUP2 MSTORE SWAP1 PUSH1 0x40 MSTORE DUP1 MLOAD SWAP1 PUSH1 0x20 ADD KECCAK256 PUSH0 SHR SWAP1 POP PUSH0 PUSH1 0x4 SLOAD PUSH8 0xFFFFFFFFFFFFFFFF DUP2 GT ISZERO PUSH2 0x1760 JUMPI PUSH2 0x1760 PUSH2 0x202C JUMP JUMPDEST PUSH1 0x40 MLOAD SWAP1 DUP1 DUP3 MSTORE DUP1 PUSH1 0x20 MUL PUSH1 0x20 ADD DUP3 ADD PUSH1 0x40 MSTORE DUP1 ISZERO PUSH2 0x1789 JUMPI DUP2 PUSH1 0x20 ADD PUSH1 0x20 DUP3 MUL DUP1 CALLDATASIZE DUP4 CALLDATACOPY ADD SWAP1 POP JUMPDEST POP SWAP1 POP PUSH0 DUP1 PUSH0 PUSH1 0xC DUP1 SLOAD SWAP1 POP PUSH1 0x3 PUSH2 0x17A1 SWAP2 SWAP1 PUSH2 0x2002 JUMP JUMPDEST SWAP1 POP JUMPDEST PUSH1 0x4 SLOAD DUP4 LT DUP1 ISZERO PUSH2 0x17B4 JUMPI POP DUP1 DUP3 LT JUMPDEST ISZERO PUSH2 0x1895 JUMPI PUSH1 0xC SLOAD PUSH0 SWAP1 PUSH2 0x17C8 DUP5 DUP9 PUSH2 0x1FEF JUMP JUMPDEST PUSH2 0x17D2 SWAP2 SWAP1 PUSH2 0x1FC8 JUMP JUMPDEST SWAP1 POP PUSH0 PUSH1 0xC DUP3 DUP2 SLOAD DUP2 LT PUSH2 0x17E8 JUMPI PUSH2 0x17E8 PUSH2 0x1FDB JUMP JUMPDEST PUSH0 SWAP2 DUP3 MSTORE PUSH1 0x20 DUP1 DUP4 KECCAK256 SWAP1 SWAP2 ADD SLOAD DUP12 DUP4 MSTORE PUSH1 0x9 DUP3 MSTORE PUSH1 0x40 DUP1 DUP5 KECCAK256 PUSH1 0x1 PUSH1 0x1 PUSH1 0xA0 SHL SUB SWAP1 SWAP3 AND DUP1 DUP6 MSTORE SWAP2 SWAP1 SWAP3 MSTORE SWAP2 KECCAK256 SLOAD SWAP1 SWAP2 POP PUSH1 0xFF AND ISZERO DUP1 ISZERO PUSH2 0x1880 JUMPI DUP2 DUP8 DUP8 DUP2 MLOAD DUP2 LT PUSH2 0x1836 JUMPI PUSH2 0x1836 PUSH2 0x1FDB JUMP JUMPDEST PUSH1 0x1 PUSH1 0x1 PUSH1 0xA0 SHL SUB SWAP3 DUP4 AND PUSH1 0x20 SWAP2 DUP3 MUL SWAP3 SWAP1 SWAP3 ADD DUP2 ADD SWAP2 SWAP1 SWAP2 MSTORE PUSH0 DUP13 DUP2 MSTORE PUSH1 0x9 DUP3 MSTORE PUSH1 0x40 DUP1 DUP3 KECCAK256 SWAP4 DUP7 AND DUP3 MSTORE SWAP3 SWAP1 SWAP2 MSTORE KECCAK256 DUP1 SLOAD PUSH1 0xFF NOT AND PUSH1 0x1 OR SWAP1 SSTORE DUP6 PUSH2 0x187C DUP2 PUSH2 0x1F9C JUMP JUMPDEST SWAP7 POP POP JUMPDEST DUP5 PUSH2 0x188A DUP2 PUSH2 0x1F9C JUMP JUMPDEST SWAP6 POP POP POP POP POP PUSH2 0x17A4 JUMP JUMPDEST PUSH1 0x4 SLOAD DUP4 EQ PUSH2 0x18E6 JUMPI PUSH1 0x40 MLOAD PUSH3 0x461BCD PUSH1 0xE5 SHL DUP2 MSTORE PUSH1 0x20 PUSH1 0x4 DUP3 ADD MSTORE PUSH1 0x1E PUSH1 0x24 DUP3 ADD MSTORE PUSH32 0x436F756C64206E6F742073656C65637420656E6F756768206A75726F72730000 PUSH1 0x44 DUP3 ADD MSTORE PUSH1 0x64 ADD PUSH2 0x86C JUMP JUMPDEST PUSH0 JUMPDEST PUSH1 0x4 SLOAD DUP2 LT ISZERO PUSH2 0x1957 JUMPI PUSH0 DUP9 DUP2 MSTORE PUSH1 0xA PUSH1 0x20 MSTORE PUSH1 0x40 SWAP1 KECCAK256 DUP6 MLOAD DUP7 SWAP1 DUP4 SWAP1 DUP2 LT PUSH2 0x1913 JUMPI PUSH2 0x1913 PUSH2 0x1FDB JUMP JUMPDEST PUSH1 0x20 SWAP1 DUP2 MUL SWAP2 SWAP1 SWAP2 ADD DUP2 ADD MLOAD DUP3 SLOAD PUSH1 0x1 DUP1 DUP3 ADD DUP6 SSTORE PUSH0 SWAP5 DUP6 MSTORE SWAP3 SWAP1 SWAP4 KECCAK256 SWAP1 SWAP3 ADD DUP1 SLOAD PUSH1 0x1 PUSH1 0x1 PUSH1 0xA0 SHL SUB NOT AND PUSH1 0x1 PUSH1 0x1 PUSH1 0xA0 SHL SUB SWAP1 SWAP4 AND SWAP3 SWAP1 SWAP3 OR SWAP1 SWAP2 SSTORE ADD PUSH2 0x18E8 JUMP JUMPDEST POP PUSH1 0x4 DUP7 ADD DUP1 SLOAD PUSH1 0xFF NOT AND PUSH1 0x1 OR SWAP1 SSTORE PUSH1 0x5 SLOAD PUSH2 0x1974 SWAP1 TIMESTAMP PUSH2 0x1FEF JUMP JUMPDEST PUSH1 0x6 DUP8 ADD SSTORE PUSH1 0x40 MLOAD DUP8 SWAP1 PUSH32 0x7988F9809CAF69010681BE5043108ECF62AB23C65ACA9CA4662AA11980BD5F17 SWAP1 PUSH2 0x19AB SWAP1 DUP8 SWAP1 PUSH2 0x1E27 JUMP JUMPDEST PUSH1 0x40 MLOAD DUP1 SWAP2 SUB SWAP1 LOG2 POP POP POP POP POP POP POP JUMP JUMPDEST PUSH2 0x15E4 DUP2 CALLER PUSH2 0x1C70 JUMP JUMPDEST PUSH0 PUSH2 0x19D1 DUP4 DUP4 PUSH2 0xB3F JUMP JUMPDEST PUSH2 0x1A4E JUMPI PUSH0 DUP4 DUP2 MSTORE PUSH1 0x20 DUP2 DUP2 MSTORE PUSH1 0x40 DUP1 DUP4 KECCAK256 PUSH1 0x1 PUSH1 0x1 PUSH1 0xA0 SHL SUB DUP7 AND DUP5 MSTORE SWAP1 SWAP2 MSTORE SWAP1 KECCAK256 DUP1 SLOAD PUSH1 0xFF NOT AND PUSH1 0x1 OR SWAP1 SSTORE PUSH2 0x1A06 CALLER SWAP1 JUMP JUMPDEST PUSH1 0x1 PUSH1 0x1 PUSH1 0xA0 SHL SUB AND DUP3 PUSH1 0x1 PUSH1 0x1 PUSH1 0xA0 SHL SUB AND DUP5 PUSH32 0x2F8788117E7EFF1D82E926EC794901D17C78024A50270940304540A733656F0D PUSH1 0x40 MLOAD PUSH1 0x40 MLOAD DUP1 SWAP2 SUB SWAP1 LOG4 POP PUSH1 0x1 PUSH2 0x7E4 JUMP JUMPDEST POP PUSH0 PUSH2 0x7E4 JUMP JUMPDEST PUSH0 PUSH2 0x1A60 DUP4 DUP4 PUSH2 0xB3F JUMP JUMPDEST ISZERO PUSH2 0x1A4E JUMPI PUSH0 DUP4 DUP2 MSTORE PUSH1 0x20 DUP2 DUP2 MSTORE PUSH1 0x40 DUP1 DUP4 KECCAK256 PUSH1 0x1 PUSH1 0x1 PUSH1 0xA0 SHL SUB DUP7 AND DUP1 DUP6 MSTORE SWAP3 MSTORE DUP1 DUP4 KECCAK256 DUP1 SLOAD PUSH1 0xFF NOT AND SWAP1 SSTORE MLOAD CALLER SWAP3 DUP7 SWAP2 PUSH32 0xF6391F5C32D9C69D2A47EA670B442974B53935D1EDC7FD64EB21E047A839171B SWAP2 SWAP1 LOG4 POP PUSH1 0x1 PUSH2 0x7E4 JUMP JUMPDEST PUSH0 DUP2 DUP2 MSTORE PUSH1 0x8 PUSH1 0x20 MSTORE PUSH1 0x40 DUP2 KECCAK256 PUSH1 0x6 SLOAD PUSH1 0x7 DUP3 ADD SLOAD SWAP2 SWAP3 SWAP2 PUSH2 0x2710 SWAP2 PUSH2 0x1AE3 SWAP2 PUSH2 0x2002 JUMP JUMPDEST PUSH2 0x1AED SWAP2 SWAP1 PUSH2 0x2040 JUMP JUMPDEST SWAP1 POP PUSH0 PUSH2 0x2710 PUSH1 0x6 SLOAD DUP5 PUSH1 0x7 ADD SLOAD PUSH2 0x1B05 SWAP2 SWAP1 PUSH2 0x2002 JUMP JUMPDEST PUSH2 0x1B0F SWAP2 SWAP1 PUSH2 0x2040 JUMP JUMPDEST SWAP1 POP DUP2 DUP4 PUSH1 0x8 ADD SLOAD LT PUSH2 0x1B30 JUMPI PUSH1 0x4 DUP4 ADD DUP1 SLOAD PUSH1 0xFF NOT AND PUSH1 0x2 OR SWAP1 SSTORE PUSH2 0x1C18 JUMP JUMPDEST DUP1 DUP4 PUSH1 0x8 ADD SLOAD DUP5 PUSH1 0x7 ADD SLOAD PUSH2 0x1B45 SWAP2 SWAP1 PUSH2 0x2019 JUMP JUMPDEST LT PUSH2 0x1BBE JUMPI PUSH1 0x4 DUP4 ADD DUP1 SLOAD PUSH1 0xFF NOT AND PUSH1 0x3 OR SWAP1 SSTORE PUSH1 0x2 DUP4 ADD SLOAD PUSH0 SWAP1 PUSH2 0x1B6C SWAP1 PUSH1 0xA SWAP1 PUSH2 0x2040 JUMP JUMPDEST PUSH1 0x1 DUP6 ADD SLOAD PUSH1 0x2 DUP7 ADD SLOAD SWAP2 SWAP3 POP PUSH1 0x1 PUSH1 0x1 PUSH1 0xA0 SHL SUB AND SWAP1 PUSH2 0x8FC SWAP1 PUSH2 0x1B92 SWAP1 DUP5 SWAP1 PUSH2 0x2019 JUMP JUMPDEST PUSH1 0x40 MLOAD DUP2 ISZERO SWAP1 SWAP3 MUL SWAP2 PUSH0 DUP2 DUP2 DUP2 DUP6 DUP9 DUP9 CALL SWAP4 POP POP POP POP ISZERO DUP1 ISZERO PUSH2 0x1BB7 JUMPI RETURNDATASIZE PUSH0 DUP1 RETURNDATACOPY RETURNDATASIZE PUSH0 REVERT JUMPDEST POP POP PUSH2 0x1C18 JUMP JUMPDEST PUSH1 0x4 DUP4 ADD DUP1 SLOAD PUSH1 0xFF NOT AND PUSH1 0x5 OR SWAP1 SSTORE PUSH1 0x1 DUP4 ADD SLOAD PUSH1 0x2 DUP1 DUP6 ADD SLOAD PUSH1 0x1 PUSH1 0x1 PUSH1 0xA0 SHL SUB SWAP1 SWAP3 AND SWAP2 PUSH2 0x8FC SWAP2 PUSH2 0x1BF1 SWAP2 PUSH2 0x2040 JUMP JUMPDEST PUSH1 0x40 MLOAD DUP2 ISZERO SWAP1 SWAP3 MUL SWAP2 PUSH0 DUP2 DUP2 DUP2 DUP6 DUP9 DUP9 CALL SWAP4 POP POP POP POP ISZERO DUP1 ISZERO PUSH2 0x1C16 JUMPI RETURNDATASIZE PUSH0 DUP1 RETURNDATACOPY RETURNDATASIZE PUSH0 REVERT JUMPDEST POP JUMPDEST DUP3 SLOAD PUSH1 0x4 DUP5 ADD SLOAD PUSH1 0x8 DUP6 ADD SLOAD PUSH1 0x7 DUP7 ADD SLOAD PUSH1 0x40 MLOAD DUP9 SWAP4 PUSH32 0x433AA6E48164DF010794E86A1FB8BB3F17F33365871FA621E9FD0DCB5200ABA1 SWAP4 PUSH2 0x1C62 SWAP4 PUSH1 0xFF SWAP1 SWAP3 AND SWAP3 SWAP1 SWAP2 SWAP1 PUSH2 0x2053 JUMP JUMPDEST PUSH1 0x40 MLOAD DUP1 SWAP2 SUB SWAP1 LOG3 POP POP POP POP JUMP JUMPDEST PUSH2 0x1C7A DUP3 DUP3 PUSH2 0xB3F JUMP JUMPDEST PUSH2 0xDEA JUMPI PUSH1 0x40 MLOAD PUSH4 0xE2517D3F PUSH1 0xE0 SHL DUP2 MSTORE PUSH1 0x1 PUSH1 0x1 PUSH1 0xA0 SHL SUB DUP3 AND PUSH1 0x4 DUP3 ADD MSTORE PUSH1 0x24 DUP2 ADD DUP4 SWAP1 MSTORE PUSH1 0x44 ADD PUSH2 0x86C JUMP JUMPDEST POP DUP1 SLOAD PUSH0 DUP3 SSTORE SWAP1 PUSH0 MSTORE PUSH1 0x20 PUSH0 KECCAK256 SWAP1 DUP2 ADD SWAP1 PUSH2 0x15E4 SWAP2 SWAP1 JUMPDEST DUP1 DUP3 GT ISZERO PUSH2 0x1CD3 JUMPI PUSH0 DUP2 SSTORE PUSH1 0x1 ADD PUSH2 0x1CC0 JUMP JUMPDEST POP SWAP1 JUMP JUMPDEST PUSH0 PUSH1 0x20 DUP3 DUP5 SUB SLT ISZERO PUSH2 0x1CE7 JUMPI PUSH0 DUP1 REVERT JUMPDEST DUP2 CALLDATALOAD PUSH1 0x1 PUSH1 0x1 PUSH1 0xE0 SHL SUB NOT DUP2 AND DUP2 EQ PUSH2 0x1CFE JUMPI PUSH0 DUP1 REVERT JUMPDEST SWAP4 SWAP3 POP POP POP JUMP JUMPDEST PUSH0 DUP1 PUSH1 0x40 DUP4 DUP6 SUB SLT ISZERO PUSH2 0x1D16 JUMPI PUSH0 DUP1 REVERT JUMPDEST POP POP DUP1 CALLDATALOAD SWAP3 PUSH1 0x20 SWAP1 SWAP2 ADD CALLDATALOAD SWAP2 POP JUMP JUMPDEST DUP1 CALLDATALOAD PUSH1 0x1 PUSH1 0x1 PUSH1 0xA0 SHL SUB DUP2 AND DUP2 EQ PUSH2 0x1D3B JUMPI PUSH0 DUP1 REVERT JUMPDEST SWAP2 SWAP1 POP JUMP JUMPDEST PUSH0 DUP1 PUSH1 0x40 DUP4 DUP6 SUB SLT ISZERO PUSH2 0x1D51 JUMPI PUSH0 DUP1 REVERT JUMPDEST DUP3 CALLDATALOAD SWAP2 POP PUSH2 0x1D61 PUSH1 0x20 DUP5 ADD PUSH2 0x1D25 JUMP JUMPDEST SWAP1 POP SWAP3 POP SWAP3 SWAP1 POP JUMP JUMPDEST PUSH0 PUSH1 0x20 DUP3 DUP5 SUB SLT ISZERO PUSH2 0x1D7A JUMPI PUSH0 DUP1 REVERT JUMPDEST POP CALLDATALOAD SWAP2 SWAP1 POP JUMP JUMPDEST PUSH4 0x4E487B71 PUSH1 0xE0 SHL PUSH0 MSTORE PUSH1 0x21 PUSH1 0x4 MSTORE PUSH1 0x24 PUSH0 REVERT JUMPDEST PUSH1 0x6 DUP2 LT PUSH2 0x1DB1 JUMPI PUSH4 0x4E487B71 PUSH1 0xE0 SHL PUSH0 MSTORE PUSH1 0x21 PUSH1 0x4 MSTORE PUSH1 0x24 PUSH0 REVERT JUMPDEST SWAP1 MSTORE JUMP JUMPDEST DUP10 DUP2 MSTORE PUSH1 0x1 PUSH1 0x1 PUSH1 0xA0 SHL SUB DUP10 AND PUSH1 0x20 DUP3 ADD MSTORE PUSH1 0x40 DUP2 ADD DUP9 SWAP1 MSTORE PUSH1 0x60 DUP2 ADD DUP8 SWAP1 MSTORE PUSH2 0x120 DUP2 ADD PUSH2 0x1DE7 PUSH1 0x80 DUP4 ADD DUP9 PUSH2 0x1D95 JUMP JUMPDEST DUP6 PUSH1 0xA0 DUP4 ADD MSTORE DUP5 PUSH1 0xC0 DUP4 ADD MSTORE DUP4 PUSH1 0xE0 DUP4 ADD MSTORE DUP3 PUSH2 0x100 DUP4 ADD MSTORE SWAP11 SWAP10 POP POP POP POP POP POP POP POP POP POP JUMP JUMPDEST PUSH0 PUSH1 0x20 DUP3 DUP5 SUB SLT ISZERO PUSH2 0x1E1E JUMPI PUSH0 DUP1 REVERT JUMPDEST PUSH2 0x1CFE DUP3 PUSH2 0x1D25 JUMP JUMPDEST PUSH1 0x20 DUP1 DUP3 MSTORE DUP3 MLOAD DUP3 DUP3 ADD DUP2 SWAP1 MSTORE PUSH0 SWAP2 SWAP1 DUP5 DUP3 ADD SWAP1 PUSH1 0x40 DUP6 ADD SWAP1 DUP5 JUMPDEST DUP2 DUP2 LT ISZERO PUSH2 0x1E67 JUMPI DUP4 MLOAD PUSH1 0x1 PUSH1 0x1 PUSH1 0xA0 SHL SUB AND DUP4 MSTORE SWAP3 DUP5 ADD SWAP3 SWAP2 DUP5 ADD SWAP2 PUSH1 0x1 ADD PUSH2 0x1E42 JUMP JUMPDEST POP SWAP1 SWAP7 SWAP6 POP POP POP POP POP POP JUMP JUMPDEST PUSH0 DUP1 PUSH1 0x40 DUP4 DUP6 SUB SLT ISZERO PUSH2 0x1E84 JUMPI PUSH0 DUP1 REVERT JUMPDEST DUP3 CALLDATALOAD SWAP2 POP PUSH1 0x20 DUP4 ADD CALLDATALOAD DUP1 ISZERO ISZERO DUP2 EQ PUSH2 0x1E9A JUMPI PUSH0 DUP1 REVERT JUMPDEST DUP1 SWAP2 POP POP SWAP3 POP SWAP3 SWAP1 POP JUMP JUMPDEST DUP2 MLOAD DUP2 MSTORE PUSH1 0x20 DUP1 DUP4 ADD MLOAD PUSH1 0x1 PUSH1 0x1 PUSH1 0xA0 SHL SUB AND SWAP1 DUP3 ADD MSTORE PUSH1 0x40 DUP1 DUP4 ADD MLOAD SWAP1 DUP3 ADD MSTORE PUSH1 0x60 DUP1 DUP4 ADD MLOAD SWAP1 DUP3 ADD MSTORE PUSH1 0x80 DUP1 DUP4 ADD MLOAD PUSH2 0x120 DUP4 ADD SWAP2 PUSH2 0x1EE8 SWAP1 DUP5 ADD DUP3 PUSH2 0x1D95 JUMP JUMPDEST POP PUSH1 0xA0 DUP4 ADD MLOAD PUSH1 0xA0 DUP4 ADD MSTORE PUSH1 0xC0 DUP4 ADD MLOAD PUSH1 0xC0 DUP4 ADD MSTORE PUSH1 0xE0 DUP4 ADD MLOAD PUSH1 0xE0 DUP4 ADD MSTORE PUSH2 0x100 DUP1 DUP5 ADD MLOAD DUP2 DUP5 ADD MSTORE POP SWAP3 SWAP2 POP POP JUMP JUMPDEST PUSH0 DUP1 PUSH1 0x20 DUP4 DUP6 SUB SLT ISZERO PUSH2 0x1F2A JUMPI PUSH0 DUP1 REVERT JUMPDEST DUP3 CALLDATALOAD PUSH8 0xFFFFFFFFFFFFFFFF DUP1 DUP3 GT ISZERO PUSH2 0x1F41 JUMPI PUSH0 DUP1 REVERT JUMPDEST DUP2 DUP6 ADD SWAP2 POP DUP6 PUSH1 0x1F DUP4 ADD SLT PUSH2 0x1F54 JUMPI PUSH0 DUP1 REVERT JUMPDEST DUP2 CALLDATALOAD DUP2 DUP2 GT ISZERO PUSH2 0x1F62 JUMPI PUSH0 DUP1 REVERT JUMPDEST DUP7 PUSH1 0x20 DUP3 PUSH1 0x5 SHL DUP6 ADD ADD GT ISZERO PUSH2 0x1F76 JUMPI PUSH0 DUP1 REVERT JUMPDEST PUSH1 0x20 SWAP3 SWAP1 SWAP3 ADD SWAP7 SWAP2 SWAP6 POP SWAP1 SWAP4 POP POP POP POP JUMP JUMPDEST PUSH4 0x4E487B71 PUSH1 0xE0 SHL PUSH0 MSTORE PUSH1 0x11 PUSH1 0x4 MSTORE PUSH1 0x24 PUSH0 REVERT JUMPDEST PUSH0 PUSH1 0x1 DUP3 ADD PUSH2 0x1FAD JUMPI PUSH2 0x1FAD PUSH2 0x1F88 JUMP JUMPDEST POP PUSH1 0x1 ADD SWAP1 JUMP JUMPDEST PUSH4 0x4E487B71 PUSH1 0xE0 SHL PUSH0 MSTORE PUSH1 0x12 PUSH1 0x4 MSTORE PUSH1 0x24 PUSH0 REVERT JUMPDEST PUSH0 DUP3 PUSH2 0x1FD6 JUMPI PUSH2 0x1FD6 PUSH2 0x1FB4 JUMP JUMPDEST POP MOD SWAP1 JUMP JUMPDEST PUSH4 0x4E487B71 PUSH1 0xE0 SHL PUSH0 MSTORE PUSH1 0x32 PUSH1 0x4 MSTORE PUSH1 0x24 PUSH0 REVERT JUMPDEST DUP1 DUP3 ADD DUP1 DUP3 GT ISZERO PUSH2 0x7E4 JUMPI PUSH2 0x7E4 PUSH2 0x1F88 JUMP JUMPDEST DUP1 DUP3 MUL DUP2 ISZERO DUP3 DUP3 DIV DUP5 EQ OR PUSH2 0x7E4 JUMPI PUSH2 0x7E4 PUSH2 0x1F88 JUMP JUMPDEST DUP2 DUP2 SUB DUP2 DUP2 GT ISZERO PUSH2 0x7E4 JUMPI PUSH2 0x7E4 PUSH2 0x1F88 JUMP JUMPDEST PUSH4 0x4E487B71 PUSH1 0xE0 SHL PUSH0 MSTORE PUSH1 0x41 PUSH1 0x4 MSTORE PUSH1 0x24 PUSH0 REVERT JUMPDEST PUSH0 DUP3 PUSH2 0x204E JUMPI PUSH2 0x204E PUSH2 0x1FB4 JUMP JUMPDEST POP DIV SWAP1 JUMP JUMPDEST PUSH1 0x60 DUP2 ADD PUSH2 0x2061 DUP3 DUP7 PUSH2 0x1D95 JUMP JUMPDEST PUSH1 0x20 DUP3 ADD SWAP4 SWAP1 SWAP4 MSTORE PUSH1 0x40 ADD MSTORE SWAP2 SWAP1 POP JUMP INVALID LOG4 SWAP9 SMOD KECCAK256 TLOAD 0xE4 0xD3 SSTORE MULMOD 0x2E CREATE2 0xA8 LOG1 DUP16 JUMP 0xE8 SWAP2 EXTCODECOPY DELEGATECALL LOG2 ADD 0xFB 0xE2 DUP8 DUP3 JUMPDEST MULMOD JUMP SWAP4 0xC2 OR PUSH22 0xA2646970667358221220FF77B62F461B8ABD27869072 0xDC LT PUSH15 0x97DD3755B9DF2D432E600902311AE9 0xBC RETURNDATASIZE PUSH5 0x736F6C6343 STOP ADDMOD XOR STOP CALLER "},"methodIdentifiers":{"ADMIN_ROLE()":"75b238fc","DEFAULT_ADMIN_ROLE()":"a217fddf","activeFlag(bytes32)":"f57809e6","addToJurorPool(address)":"bc6675f9","appeal(bytes32)":"ece1de44","appealMultiplier()":"128203c6","batchAddToJurorPool(address[])":"e785ef0e","executeSlash(bytes32)":"b850cdf7","finalizeVerdict(bytes32)":"d15c11c8","flagResource(bytes32,bytes32)":"1e44b1a7","flags(bytes32)":"24d0b041","getFlag(bytes32)":"e4a3d784","getJurorPoolSize()":"62aaa876","getJury(bytes32)":"46b3c3c3","getRoleAdmin(bytes32)":"248a9ca3","grantRole(bytes32,address)":"2f2ff15d","hasRole(bytes32,address)":"91d14854","hasVoted(bytes32,address)":"aadc3b72","isInJurorPool(address)":"2eecb0c8","isJuror(bytes32,address)":"51af8a22","jurorPool(uint256)":"f643d3d7","jurors(bytes32,address)":"0a2653d1","juryList(bytes32,uint256)":"05b9a25f","jurySize()":"536c8c15","minFlagDeposit()":"eb80b2ef","renounceRole(bytes32,address)":"36568abe","revokeRole(bytes32,address)":"d547741f","selectJury(bytes32)":"f4732d05","setJurySize(uint256)":"b8fad24e","setMinFlagDeposit(uint256)":"b7050920","setStakingContract(address)":"9dd373b9","setVotingPeriod(uint256)":"ea0217cf","stakingContract()":"ee99205c","supermajorityBps()":"5eef3da2","supportsInterface(bytes4)":"01ffc9a7","vote(bytes32,bool)":"9f2ce678","votingPeriod()":"02a251a3"}}}}}