{"contracts/ISNADRewardPool.sol":{"ISNADRewardPool":{"abi":[{"inputs":[{"internalType":"address","name":"_isnadToken","type":"address"},{"internalType":"address","name":"_stakingContract","type":"address"}],"stateMutability":"nonpayable","type":"constructor"},{"inputs":[],"name":"AccessControlBadConfirmation","type":"error"},{"inputs":[{"internalType":"address","name":"account","type":"address"},{"internalType":"bytes32","name":"neededRole","type":"bytes32"}],"name":"AccessControlUnauthorizedAccount","type":"error"},{"inputs":[],"name":"ReentrancyGuardReentrantCall","type":"error"},{"inputs":[{"internalType":"address","name":"token","type":"address"}],"name":"SafeERC20FailedOperation","type":"error"},{"anonymous":false,"inputs":[{"indexed":false,"internalType":"uint256","name":"duration","type":"uint256"},{"indexed":false,"internalType":"uint256","name":"multiplier","type":"uint256"}],"name":"LockMultiplierUpdated","type":"event"},{"anonymous":false,"inputs":[{"indexed":true,"internalType":"address","name":"auditor","type":"address"},{"indexed":false,"internalType":"uint256","name":"amount","type":"uint256"}],"name":"RewardAccrued","type":"event"},{"anonymous":false,"inputs":[{"indexed":true,"internalType":"address","name":"auditor","type":"address"},{"indexed":false,"internalType":"uint256","name":"amount","type":"uint256"}],"name":"RewardClaimed","type":"event"},{"anonymous":false,"inputs":[{"indexed":false,"internalType":"uint256","name":"newRate","type":"uint256"}],"name":"RewardRateUpdated","type":"event"},{"anonymous":false,"inputs":[{"indexed":true,"internalType":"bytes32","name":"role","type":"bytes32"},{"indexed":true,"internalType":"bytes32","name":"previousAdminRole","type":"bytes32"},{"indexed":true,"internalType":"bytes32","name":"newAdminRole","type":"bytes32"}],"name":"RoleAdminChanged","type":"event"},{"anonymous":false,"inputs":[{"indexed":true,"internalType":"bytes32","name":"role","type":"bytes32"},{"indexed":true,"internalType":"address","name":"account","type":"address"},{"indexed":true,"internalType":"address","name":"sender","type":"address"}],"name":"RoleGranted","type":"event"},{"anonymous":false,"inputs":[{"indexed":true,"internalType":"bytes32","name":"role","type":"bytes32"},{"indexed":true,"internalType":"address","name":"account","type":"address"},{"indexed":true,"internalType":"address","name":"sender","type":"address"}],"name":"RoleRevoked","type":"event"},{"inputs":[],"name":"ADMIN_ROLE","outputs":[{"internalType":"bytes32","name":"","type":"bytes32"}],"stateMutability":"view","type":"function"},{"inputs":[],"name":"DEFAULT_ADMIN_ROLE","outputs":[{"internalType":"bytes32","name":"","type":"bytes32"}],"stateMutability":"view","type":"function"},{"inputs":[],"name":"DISTRIBUTOR_ROLE","outputs":[{"internalType":"bytes32","name":"","type":"bytes32"}],"stateMutability":"view","type":"function"},{"inputs":[{"internalType":"address","name":"auditor","type":"address"},{"internalType":"uint256","name":"stakeAmount","type":"uint256"},{"internalType":"uint256","name":"lockDuration","type":"uint256"}],"name":"accrueRewards","outputs":[],"stateMutability":"nonpayable","type":"function"},{"inputs":[{"internalType":"address","name":"","type":"address"}],"name":"auditorRewards","outputs":[{"internalType":"uint256","name":"totalEarned","type":"uint256"},{"internalType":"uint256","name":"totalClaimed","type":"uint256"},{"internalType":"uint256","name":"lastUpdateTime","type":"uint256"},{"internalType":"uint256","name":"pendingRewards","type":"uint256"}],"stateMutability":"view","type":"function"},{"inputs":[],"name":"claimRewards","outputs":[{"internalType":"uint256","name":"","type":"uint256"}],"stateMutability":"nonpayable","type":"function"},{"inputs":[{"internalType":"uint256","name":"amount","type":"uint256"}],"name":"emergencyWithdraw","outputs":[],"stateMutability":"nonpayable","type":"function"},{"inputs":[{"internalType":"uint256","name":"amount","type":"uint256"}],"name":"fund","outputs":[],"stateMutability":"nonpayable","type":"function"},{"inputs":[{"internalType":"address","name":"auditor","type":"address"}],"name":"getAuditorRewards","outputs":[{"internalType":"uint256","name":"earned","type":"uint256"},{"internalType":"uint256","name":"claimed","type":"uint256"},{"internalType":"uint256","name":"pending","type":"uint256"}],"stateMutability":"view","type":"function"},{"inputs":[{"internalType":"uint256","name":"lockDuration","type":"uint256"}],"name":"getMultiplier","outputs":[{"internalType":"uint256","name":"","type":"uint256"}],"stateMutability":"view","type":"function"},{"inputs":[{"internalType":"bytes32","name":"role","type":"bytes32"}],"name":"getRoleAdmin","outputs":[{"internalType":"bytes32","name":"","type":"bytes32"}],"stateMutability":"view","type":"function"},{"inputs":[{"internalType":"bytes32","name":"role","type":"bytes32"},{"internalType":"address","name":"account","type":"address"}],"name":"grantRole","outputs":[],"stateMutability":"nonpayable","type":"function"},{"inputs":[{"internalType":"bytes32","name":"role","type":"bytes32"},{"internalType":"address","name":"account","type":"address"}],"name":"hasRole","outputs":[{"internalType":"bool","name":"","type":"bool"}],"stateMutability":"view","type":"function"},{"inputs":[],"name":"isnadToken","outputs":[{"internalType":"contract IERC20","name":"","type":"address"}],"stateMutability":"view","type":"function"},{"inputs":[{"internalType":"uint256","name":"","type":"uint256"}],"name":"lockMultipliers","outputs":[{"internalType":"uint256","name":"","type":"uint256"}],"stateMutability":"view","type":"function"},{"inputs":[{"internalType":"address","name":"auditor","type":"address"}],"name":"pendingRewards","outputs":[{"internalType":"uint256","name":"","type":"uint256"}],"stateMutability":"view","type":"function"},{"inputs":[],"name":"poolBalance","outputs":[{"internalType":"uint256","name":"","type":"uint256"}],"stateMutability":"view","type":"function"},{"inputs":[{"internalType":"bytes32","name":"role","type":"bytes32"},{"internalType":"address","name":"callerConfirmation","type":"address"}],"name":"renounceRole","outputs":[],"stateMutability":"nonpayable","type":"function"},{"inputs":[{"internalType":"bytes32","name":"role","type":"bytes32"},{"internalType":"address","name":"account","type":"address"}],"name":"revokeRole","outputs":[],"stateMutability":"nonpayable","type":"function"},{"inputs":[],"name":"rewardRatePerSecond","outputs":[{"internalType":"uint256","name":"","type":"uint256"}],"stateMutability":"view","type":"function"},{"inputs":[{"internalType":"uint256","name":"duration","type":"uint256"},{"internalType":"uint256","name":"multiplier","type":"uint256"}],"name":"setLockMultiplier","outputs":[],"stateMutability":"nonpayable","type":"function"},{"inputs":[{"internalType":"uint256","name":"newRate","type":"uint256"}],"name":"setRewardRate","outputs":[],"stateMutability":"nonpayable","type":"function"},{"inputs":[{"internalType":"address","name":"_stakingContract","type":"address"}],"name":"setStakingContract","outputs":[],"stateMutability":"nonpayable","type":"function"},{"inputs":[],"name":"stakingContract","outputs":[{"internalType":"address","name":"","type":"address"}],"stateMutability":"view","type":"function"},{"inputs":[{"internalType":"bytes4","name":"interfaceId","type":"bytes4"}],"name":"supportsInterface","outputs":[{"internalType":"bool","name":"","type":"bool"}],"stateMutability":"view","type":"function"},{"inputs":[],"name":"totalClaimed","outputs":[{"internalType":"uint256","name":"","type":"uint256"}],"stateMutability":"view","type":"function"},{"inputs":[],"name":"totalDistributed","outputs":[{"internalType":"uint256","name":"","type":"uint256"}],"stateMutability":"view","type":"function"}],"evm":{"bytecode":{"linkReferences":{},"object":"60a060405263bd014d7e60035534801562000018575f80fd5b50604051620014a0380380620014a08339810160408190526200003b9162000304565b600180556001600160a01b0382166200008b5760405162461bcd60e51b815260206004820152600d60248201526c24b73b30b634b2103a37b5b2b760991b60448201526064015b60405180910390fd5b6001600160a01b038116620000e35760405162461bcd60e51b815260206004820152601860248201527f496e76616c6964207374616b696e6720636f6e74726163740000000000000000604482015260640162000082565b6001600160a01b03828116608052600280546001600160a01b031916918316919091179055620001145f336200023c565b50620001417fa49807205ce4d355092ef5a8a18f56e8913cf4a201fbe287825b095693c21775336200023c565b506200016e7ffbd454f36a7e1a388bd6fc3ab10d434aa4578f811acbbcf33afb1c697486313c826200023c565b50506004602052506127107f5564a3699837f937070bc8e1a858506e72778e568c12590eed67a771b908e223556130d47f081e5db68bd0b2138c7c7d33ea1f03c6cfd3b3a9624c556c6c483f10267e83a955613a987f3fed37f7d98193d2657b011eb0a3eec5f7221e6290af9fcd81f4c04fccd6843d55614e207f745bcf281519ca17f064b0f61aac5766ee74f04b012d25a38690d2e3b51e8609556301e133805f526175307f97b3babdc81bea0ad63eac221e7a5d9bc79ed7f55e35cb889964bd67dc516394556200033a565b5f828152602081815260408083206001600160a01b038516845290915281205460ff16620002df575f838152602081815260408083206001600160a01b03861684529091529020805460ff19166001179055620002963390565b6001600160a01b0316826001600160a01b0316847f2f8788117e7eff1d82e926ec794901d17c78024a50270940304540a733656f0d60405160405180910390a4506001620002e2565b505f5b92915050565b80516001600160a01b0381168114620002ff575f80fd5b919050565b5f806040838503121562000316575f80fd5b6200032183620002e8565b91506200033160208401620002e8565b90509250929050565b6080516111316200036f5f395f81816102c9015281816105b301528181610642015281816106ac015261085001526111315ff3fe608060405234801561000f575f80fd5b50600436106101a1575f3560e01c806396365d44116100f3578063d2afe4ab11610093578063dd6b21be1161006e578063dd6b21be1461041b578063ee99205c1461043a578063efca2eed1461044d578063f0bd87cc14610456575f80fd5b8063d2afe4ab146103ec578063d547741f146103ff578063d54ad2a114610412575f80fd5b8063a217fddf116100ce578063a217fddf146103ac578063adf8252d146103b3578063ca1d209d146103c6578063ce3b4e16146103d9575f80fd5b806396365d441461037e5780639dd373b9146103865780639e447fc614610399575f80fd5b80635312ea8e1161015e578063619feede11610139578063619feede146102c457806375b238fc146103035780637ee4d75e1461031757806391d148541461036b575f80fd5b80635312ea8e146102585780635743b31a1461026b5780635d773b2c146102bb575f80fd5b806301ffc9a7146101a5578063248a9ca3146101cd5780632f2ff15d146101fd57806331d7a2621461021257806336568abe1461023d578063372500ab14610250575b5f80fd5b6101b86101b3366004610f54565b61046a565b60405190151581526020015b60405180910390f35b6101ef6101db366004610f82565b5f9081526020819052604090206001015490565b6040519081526020016101c4565b61021061020b366004610fb4565b6104a0565b005b6101ef610220366004610fde565b6001600160a01b03165f9081526005602052604090206003015490565b61021061024b366004610fb4565b6104ca565b6101ef610502565b610210610266366004610f82565b61061e565b6102a0610279366004610fde565b6001600160a01b03165f908152600560205260409020805460018201546003909201549092565b604080519384526020840192909252908201526060016101c4565b6101ef60035481565b6102eb7f000000000000000000000000000000000000000000000000000000000000000081565b6040516001600160a01b0390911681526020016101c4565b6101ef5f805160206110dc83398151915281565b61034b610325366004610fde565b60056020525f908152604090208054600182015460028301546003909301549192909184565b6040805194855260208501939093529183015260608201526080016101c4565b6101b8610379366004610fb4565b61066d565b6101ef610695565b610210610394366004610fde565b610722565b6102106103a7366004610f82565b6107e6565b6101ef5f81565b6101ef6103c1366004610f82565b610839565b6102106103d4366004610f82565b610843565b6102106103e7366004610ff7565b61087b565b6102106103fa366004611027565b6109b9565b61021061040d366004610fb4565b610a71565b6101ef60075481565b6101ef610429366004610f82565b60046020525f908152604090205481565b6002546102eb906001600160a01b031681565b6101ef60065481565b6101ef5f805160206110bc83398151915281565b5f6001600160e01b03198216637965db0b60e01b148061049a57506301ffc9a760e01b6001600160e01b03198316145b92915050565b5f828152602081905260409020600101546104ba81610a95565b6104c48383610a9f565b50505050565b6001600160a01b03811633146104f35760405163334bd91960e11b815260040160405180910390fd5b6104fd8282610b2e565b505050565b5f61050b610b97565b335f90815260056020526040902042600282015560038101548061056c5760405162461bcd60e51b81526020600482015260136024820152724e6f207265776172647320746f20636c61696d60681b60448201526064015b60405180910390fd5b5f826003018190555080826001015f828254610588919061105b565b925050819055508060075f8282546105a0919061105b565b909155506105da90506001600160a01b037f0000000000000000000000000000000000000000000000000000000000000000163383610bc1565b60405181815233907f106f923f993c2149d49b4255ff723acafa1f2d94393f561d3eda32ae348f72419060200160405180910390a291505061061b60018055565b90565b5f805160206110dc83398151915261063581610a95565b6106696001600160a01b037f0000000000000000000000000000000000000000000000000000000000000000163384610bc1565b5050565b5f918252602082815260408084206001600160a01b0393909316845291905290205460ff1690565b6040516370a0823160e01b81523060048201525f907f00000000000000000000000000000000000000000000000000000000000000006001600160a01b0316906370a0823190602401602060405180830381865afa1580156106f9573d5f803e3d5ffd5b505050506040513d601f19601f8201168201806040525081019061071d919061106e565b905090565b5f805160206110dc83398151915261073981610a95565b6001600160a01b03821661078f5760405162461bcd60e51b815260206004820152601860248201527f496e76616c6964207374616b696e6720636f6e747261637400000000000000006044820152606401610563565b6002546107b3905f805160206110bc833981519152906001600160a01b0316610b2e565b50600280546001600160a01b0319166001600160a01b0384161790556104fd5f805160206110bc83398151915283610a9f565b5f805160206110dc8339815191526107fd81610a95565b60038290556040518281527f41d466ebd06fb97e7786086ac8b69b7eb7da798592036251291d34e9791cde019060200160405180910390a15050565b5f61049a82610c20565b6108786001600160a01b037f000000000000000000000000000000000000000000000000000000000000000016333084610e76565b50565b5f805160206110bc83398151915261089281610a95565b6108b5846001600160a01b03165f90815260056020526040902042600290910155565b5f6108bf83610c20565b90505f69021e19e0c9bab24000008285600354886108dd9190611085565b6108e79190611085565b6108f19190611085565b6108fb919061109c565b6001600160a01b0387165f9081526005602052604081206003018054929350839290919061092a90849061105b565b90915550506001600160a01b0386165f908152600560205260408120805483929061095690849061105b565b925050819055508060065f82825461096e919061105b565b90915550506040518181526001600160a01b038716907f578afab8065b30a5e9827120e4905b8a1810e180d2f793ca54af6f7633f4e57a9060200160405180910390a2505050505050565b5f805160206110dc8339815191526109d081610a95565b612710821015610a225760405162461bcd60e51b815260206004820152601860248201527f4d756c7469706c696572206d757374206265203e3d20317800000000000000006044820152606401610563565b5f8381526004602090815260409182902084905581518581529081018490527fb9a8cb2a3c650e62cbf065d89dedabba2097cde303347e57f0823c70753e4741910160405180910390a1505050565b5f82815260208190526040902060010154610a8b81610a95565b6104c48383610b2e565b6108788133610eaf565b5f610aaa838361066d565b610b27575f838152602081815260408083206001600160a01b03861684529091529020805460ff19166001179055610adf3390565b6001600160a01b0316826001600160a01b0316847f2f8788117e7eff1d82e926ec794901d17c78024a50270940304540a733656f0d60405160405180910390a450600161049a565b505f61049a565b5f610b39838361066d565b15610b27575f838152602081815260408083206001600160a01b0386168085529252808320805460ff1916905551339286917ff6391f5c32d9c69d2a47ea670b442974b53935d1edc7fd64eb21e047a839171b9190a450600161049a565b600260015403610bba57604051633ee5aeb560e01b815260040160405180910390fd5b6002600155565b6040516001600160a01b038381166024830152604482018390526104fd91859182169063a9059cbb906064015b604051602081830303815290604052915060e01b6020820180516001600160e01b038381831617835250505050610ee8565b5f6301e133808210158015610c6157506301e133805f5260046020527f97b3babdc81bea0ad63eac221e7a5d9bc79ed7f55e35cb889964bd67dc5163945415155b15610c995750506301e133805f5260046020527f97b3babdc81bea0ad63eac221e7a5d9bc79ed7f55e35cb889964bd67dc5163945490565b62ed4e008210158015610cd7575062ed4e005f5260046020527f745bcf281519ca17f064b0f61aac5766ee74f04b012d25a38690d2e3b51e86095415155b15610d0e57505062ed4e005f5260046020527f745bcf281519ca17f064b0f61aac5766ee74f04b012d25a38690d2e3b51e86095490565b6276a7008210158015610d4c57506276a7005f5260046020527f3fed37f7d98193d2657b011eb0a3eec5f7221e6290af9fcd81f4c04fccd6843d5415155b15610d835750506276a7005f5260046020527f3fed37f7d98193d2657b011eb0a3eec5f7221e6290af9fcd81f4c04fccd6843d5490565b624f1a008210158015610dc15750624f1a005f5260046020527f081e5db68bd0b2138c7c7d33ea1f03c6cfd3b3a9624c556c6c483f10267e83a95415155b15610df8575050624f1a005f5260046020527f081e5db68bd0b2138c7c7d33ea1f03c6cfd3b3a9624c556c6c483f10267e83a95490565b62278d008210158015610e36575062278d005f5260046020527f5564a3699837f937070bc8e1a858506e72778e568c12590eed67a771b908e2235415155b15610e6d57505062278d005f5260046020527f5564a3699837f937070bc8e1a858506e72778e568c12590eed67a771b908e2235490565b50612710919050565b6040516001600160a01b0384811660248301528381166044830152606482018390526104c49186918216906323b872dd90608401610bee565b610eb9828261066d565b6106695760405163e2517d3f60e01b81526001600160a01b038216600482015260248101839052604401610563565b5f8060205f8451602086015f885af180610f07576040513d5f823e3d81fd5b50505f513d91508115610f1e578060011415610f2b565b6001600160a01b0384163b155b156104c457604051635274afe760e01b81526001600160a01b0385166004820152602401610563565b5f60208284031215610f64575f80fd5b81356001600160e01b031981168114610f7b575f80fd5b9392505050565b5f60208284031215610f92575f80fd5b5035919050565b80356001600160a01b0381168114610faf575f80fd5b919050565b5f8060408385031215610fc5575f80fd5b82359150610fd560208401610f99565b90509250929050565b5f60208284031215610fee575f80fd5b610f7b82610f99565b5f805f60608486031215611009575f80fd5b61101284610f99565b95602085013595506040909401359392505050565b5f8060408385031215611038575f80fd5b50508035926020909101359150565b634e487b7160e01b5f52601160045260245ffd5b8082018082111561049a5761049a611047565b5f6020828403121561107e575f80fd5b5051919050565b808202811582820484141761049a5761049a611047565b5f826110b657634e487b7160e01b5f52601260045260245ffd5b50049056fefbd454f36a7e1a388bd6fc3ab10d434aa4578f811acbbcf33afb1c697486313ca49807205ce4d355092ef5a8a18f56e8913cf4a201fbe287825b095693c21775a2646970667358221220137f35a31611fa61d2a98b63780cac7a49e97355b88345cbb3288a3a209988c864736f6c63430008180033","opcodes":"PUSH1 0xA0 PUSH1 0x40 MSTORE PUSH4 0xBD014D7E PUSH1 0x3 SSTORE CALLVALUE DUP1 ISZERO PUSH3 0x18 JUMPI PUSH0 DUP1 REVERT JUMPDEST POP PUSH1 0x40 MLOAD PUSH3 0x14A0 CODESIZE SUB DUP1 PUSH3 0x14A0 DUP4 CODECOPY DUP2 ADD PUSH1 0x40 DUP2 SWAP1 MSTORE PUSH3 0x3B SWAP2 PUSH3 0x304 JUMP JUMPDEST PUSH1 0x1 DUP1 SSTORE PUSH1 0x1 PUSH1 0x1 PUSH1 0xA0 SHL SUB DUP3 AND PUSH3 0x8B JUMPI PUSH1 0x40 MLOAD PUSH3 0x461BCD PUSH1 0xE5 SHL DUP2 MSTORE PUSH1 0x20 PUSH1 0x4 DUP3 ADD MSTORE PUSH1 0xD PUSH1 0x24 DUP3 ADD MSTORE PUSH13 0x24B73B30B634B2103A37B5B2B7 PUSH1 0x99 SHL PUSH1 0x44 DUP3 ADD MSTORE PUSH1 0x64 ADD JUMPDEST PUSH1 0x40 MLOAD DUP1 SWAP2 SUB SWAP1 REVERT JUMPDEST PUSH1 0x1 PUSH1 0x1 PUSH1 0xA0 SHL SUB DUP2 AND PUSH3 0xE3 JUMPI PUSH1 0x40 MLOAD PUSH3 0x461BCD PUSH1 0xE5 SHL DUP2 MSTORE PUSH1 0x20 PUSH1 0x4 DUP3 ADD MSTORE PUSH1 0x18 PUSH1 0x24 DUP3 ADD MSTORE PUSH32 0x496E76616C6964207374616B696E6720636F6E74726163740000000000000000 PUSH1 0x44 DUP3 ADD MSTORE PUSH1 0x64 ADD PUSH3 0x82 JUMP JUMPDEST PUSH1 0x1 PUSH1 0x1 PUSH1 0xA0 SHL SUB DUP3 DUP2 AND PUSH1 0x80 MSTORE PUSH1 0x2 DUP1 SLOAD PUSH1 0x1 PUSH1 0x1 PUSH1 0xA0 SHL SUB NOT AND SWAP2 DUP4 AND SWAP2 SWAP1 SWAP2 OR SWAP1 SSTORE PUSH3 0x114 PUSH0 CALLER PUSH3 0x23C JUMP JUMPDEST POP PUSH3 0x141 PUSH32 0xA49807205CE4D355092EF5A8A18F56E8913CF4A201FBE287825B095693C21775 CALLER PUSH3 0x23C JUMP JUMPDEST POP PUSH3 0x16E PUSH32 0xFBD454F36A7E1A388BD6FC3AB10D434AA4578F811ACBBCF33AFB1C697486313C DUP3 PUSH3 0x23C JUMP JUMPDEST POP POP PUSH1 0x4 PUSH1 0x20 MSTORE POP PUSH2 0x2710 PUSH32 0x5564A3699837F937070BC8E1A858506E72778E568C12590EED67A771B908E223 SSTORE PUSH2 0x30D4 PUSH32 0x81E5DB68BD0B2138C7C7D33EA1F03C6CFD3B3A9624C556C6C483F10267E83A9 SSTORE PUSH2 0x3A98 PUSH32 0x3FED37F7D98193D2657B011EB0A3EEC5F7221E6290AF9FCD81F4C04FCCD6843D SSTORE PUSH2 0x4E20 PUSH32 0x745BCF281519CA17F064B0F61AAC5766EE74F04B012D25A38690D2E3B51E8609 SSTORE PUSH4 0x1E13380 PUSH0 MSTORE PUSH2 0x7530 PUSH32 0x97B3BABDC81BEA0AD63EAC221E7A5D9BC79ED7F55E35CB889964BD67DC516394 SSTORE PUSH3 0x33A JUMP JUMPDEST PUSH0 DUP3 DUP2 MSTORE PUSH1 0x20 DUP2 DUP2 MSTORE PUSH1 0x40 DUP1 DUP4 KECCAK256 PUSH1 0x1 PUSH1 0x1 PUSH1 0xA0 SHL SUB DUP6 AND DUP5 MSTORE SWAP1 SWAP2 MSTORE DUP2 KECCAK256 SLOAD PUSH1 0xFF AND PUSH3 0x2DF JUMPI PUSH0 DUP4 DUP2 MSTORE PUSH1 0x20 DUP2 DUP2 MSTORE PUSH1 0x40 DUP1 DUP4 KECCAK256 PUSH1 0x1 PUSH1 0x1 PUSH1 0xA0 SHL SUB DUP7 AND DUP5 MSTORE SWAP1 SWAP2 MSTORE SWAP1 KECCAK256 DUP1 SLOAD PUSH1 0xFF NOT AND PUSH1 0x1 OR SWAP1 SSTORE PUSH3 0x296 CALLER SWAP1 JUMP JUMPDEST PUSH1 0x1 PUSH1 0x1 PUSH1 0xA0 SHL SUB AND DUP3 PUSH1 0x1 PUSH1 0x1 PUSH1 0xA0 SHL SUB AND DUP5 PUSH32 0x2F8788117E7EFF1D82E926EC794901D17C78024A50270940304540A733656F0D PUSH1 0x40 MLOAD PUSH1 0x40 MLOAD DUP1 SWAP2 SUB SWAP1 LOG4 POP PUSH1 0x1 PUSH3 0x2E2 JUMP JUMPDEST POP PUSH0 JUMPDEST SWAP3 SWAP2 POP POP JUMP JUMPDEST DUP1 MLOAD PUSH1 0x1 PUSH1 0x1 PUSH1 0xA0 SHL SUB DUP2 AND DUP2 EQ PUSH3 0x2FF JUMPI PUSH0 DUP1 REVERT JUMPDEST SWAP2 SWAP1 POP JUMP JUMPDEST PUSH0 DUP1 PUSH1 0x40 DUP4 DUP6 SUB SLT ISZERO PUSH3 0x316 JUMPI PUSH0 DUP1 REVERT JUMPDEST PUSH3 0x321 DUP4 PUSH3 0x2E8 JUMP JUMPDEST SWAP2 POP PUSH3 0x331 PUSH1 0x20 DUP5 ADD PUSH3 0x2E8 JUMP JUMPDEST SWAP1 POP SWAP3 POP SWAP3 SWAP1 POP JUMP JUMPDEST PUSH1 0x80 MLOAD PUSH2 0x1131 PUSH3 0x36F PUSH0 CODECOPY PUSH0 DUP2 DUP2 PUSH2 0x2C9 ADD MSTORE DUP2 DUP2 PUSH2 0x5B3 ADD MSTORE DUP2 DUP2 PUSH2 0x642 ADD MSTORE DUP2 DUP2 PUSH2 0x6AC ADD MSTORE PUSH2 0x850 ADD MSTORE PUSH2 0x1131 PUSH0 RETURN INVALID PUSH1 0x80 PUSH1 0x40 MSTORE CALLVALUE DUP1 ISZERO PUSH2 0xF JUMPI PUSH0 DUP1 REVERT JUMPDEST POP PUSH1 0x4 CALLDATASIZE LT PUSH2 0x1A1 JUMPI PUSH0 CALLDATALOAD PUSH1 0xE0 SHR DUP1 PUSH4 0x96365D44 GT PUSH2 0xF3 JUMPI DUP1 PUSH4 0xD2AFE4AB GT PUSH2 0x93 JUMPI DUP1 PUSH4 0xDD6B21BE GT PUSH2 0x6E JUMPI DUP1 PUSH4 0xDD6B21BE EQ PUSH2 0x41B JUMPI DUP1 PUSH4 0xEE99205C EQ PUSH2 0x43A JUMPI DUP1 PUSH4 0xEFCA2EED EQ PUSH2 0x44D JUMPI DUP1 PUSH4 0xF0BD87CC EQ PUSH2 0x456 JUMPI PUSH0 DUP1 REVERT JUMPDEST DUP1 PUSH4 0xD2AFE4AB EQ PUSH2 0x3EC JUMPI DUP1 PUSH4 0xD547741F EQ PUSH2 0x3FF JUMPI DUP1 PUSH4 0xD54AD2A1 EQ PUSH2 0x412 JUMPI PUSH0 DUP1 REVERT JUMPDEST DUP1 PUSH4 0xA217FDDF GT PUSH2 0xCE JUMPI DUP1 PUSH4 0xA217FDDF EQ PUSH2 0x3AC JUMPI DUP1 PUSH4 0xADF8252D EQ PUSH2 0x3B3 JUMPI DUP1 PUSH4 0xCA1D209D EQ PUSH2 0x3C6 JUMPI DUP1 PUSH4 0xCE3B4E16 EQ PUSH2 0x3D9 JUMPI PUSH0 DUP1 REVERT JUMPDEST DUP1 PUSH4 0x96365D44 EQ PUSH2 0x37E JUMPI DUP1 PUSH4 0x9DD373B9 EQ PUSH2 0x386 JUMPI DUP1 PUSH4 0x9E447FC6 EQ PUSH2 0x399 JUMPI PUSH0 DUP1 REVERT JUMPDEST DUP1 PUSH4 0x5312EA8E GT PUSH2 0x15E JUMPI DUP1 PUSH4 0x619FEEDE GT PUSH2 0x139 JUMPI DUP1 PUSH4 0x619FEEDE EQ PUSH2 0x2C4 JUMPI DUP1 PUSH4 0x75B238FC EQ PUSH2 0x303 JUMPI DUP1 PUSH4 0x7EE4D75E EQ PUSH2 0x317 JUMPI DUP1 PUSH4 0x91D14854 EQ PUSH2 0x36B JUMPI PUSH0 DUP1 REVERT JUMPDEST DUP1 PUSH4 0x5312EA8E EQ PUSH2 0x258 JUMPI DUP1 PUSH4 0x5743B31A EQ PUSH2 0x26B JUMPI DUP1 PUSH4 0x5D773B2C EQ PUSH2 0x2BB JUMPI PUSH0 DUP1 REVERT JUMPDEST DUP1 PUSH4 0x1FFC9A7 EQ PUSH2 0x1A5 JUMPI DUP1 PUSH4 0x248A9CA3 EQ PUSH2 0x1CD JUMPI DUP1 PUSH4 0x2F2FF15D EQ PUSH2 0x1FD JUMPI DUP1 PUSH4 0x31D7A262 EQ PUSH2 0x212 JUMPI DUP1 PUSH4 0x36568ABE EQ PUSH2 0x23D JUMPI DUP1 PUSH4 0x372500AB EQ PUSH2 0x250 JUMPI JUMPDEST PUSH0 DUP1 REVERT JUMPDEST PUSH2 0x1B8 PUSH2 0x1B3 CALLDATASIZE PUSH1 0x4 PUSH2 0xF54 JUMP JUMPDEST PUSH2 0x46A JUMP JUMPDEST PUSH1 0x40 MLOAD SWAP1 ISZERO ISZERO DUP2 MSTORE PUSH1 0x20 ADD JUMPDEST PUSH1 0x40 MLOAD DUP1 SWAP2 SUB SWAP1 RETURN JUMPDEST PUSH2 0x1EF PUSH2 0x1DB CALLDATASIZE PUSH1 0x4 PUSH2 0xF82 JUMP JUMPDEST PUSH0 SWAP1 DUP2 MSTORE PUSH1 0x20 DUP2 SWAP1 MSTORE PUSH1 0x40 SWAP1 KECCAK256 PUSH1 0x1 ADD SLOAD SWAP1 JUMP JUMPDEST PUSH1 0x40 MLOAD SWAP1 DUP2 MSTORE PUSH1 0x20 ADD PUSH2 0x1C4 JUMP JUMPDEST PUSH2 0x210 PUSH2 0x20B CALLDATASIZE PUSH1 0x4 PUSH2 0xFB4 JUMP JUMPDEST PUSH2 0x4A0 JUMP JUMPDEST STOP JUMPDEST PUSH2 0x1EF PUSH2 0x220 CALLDATASIZE PUSH1 0x4 PUSH2 0xFDE JUMP JUMPDEST PUSH1 0x1 PUSH1 0x1 PUSH1 0xA0 SHL SUB AND PUSH0 SWAP1 DUP2 MSTORE PUSH1 0x5 PUSH1 0x20 MSTORE PUSH1 0x40 SWAP1 KECCAK256 PUSH1 0x3 ADD SLOAD SWAP1 JUMP JUMPDEST PUSH2 0x210 PUSH2 0x24B CALLDATASIZE PUSH1 0x4 PUSH2 0xFB4 JUMP JUMPDEST PUSH2 0x4CA JUMP JUMPDEST PUSH2 0x1EF PUSH2 0x502 JUMP JUMPDEST PUSH2 0x210 PUSH2 0x266 CALLDATASIZE PUSH1 0x4 PUSH2 0xF82 JUMP JUMPDEST PUSH2 0x61E JUMP JUMPDEST PUSH2 0x2A0 PUSH2 0x279 CALLDATASIZE PUSH1 0x4 PUSH2 0xFDE JUMP JUMPDEST PUSH1 0x1 PUSH1 0x1 PUSH1 0xA0 SHL SUB AND PUSH0 SWAP1 DUP2 MSTORE PUSH1 0x5 PUSH1 0x20 MSTORE PUSH1 0x40 SWAP1 KECCAK256 DUP1 SLOAD PUSH1 0x1 DUP3 ADD SLOAD PUSH1 0x3 SWAP1 SWAP3 ADD SLOAD SWAP1 SWAP3 JUMP JUMPDEST PUSH1 0x40 DUP1 MLOAD SWAP4 DUP5 MSTORE PUSH1 0x20 DUP5 ADD SWAP3 SWAP1 SWAP3 MSTORE SWAP1 DUP3 ADD MSTORE PUSH1 0x60 ADD PUSH2 0x1C4 JUMP JUMPDEST PUSH2 0x1EF PUSH1 0x3 SLOAD DUP2 JUMP JUMPDEST PUSH2 0x2EB PUSH32 0x0 DUP2 JUMP JUMPDEST PUSH1 0x40 MLOAD PUSH1 0x1 PUSH1 0x1 PUSH1 0xA0 SHL SUB SWAP1 SWAP2 AND DUP2 MSTORE PUSH1 0x20 ADD PUSH2 0x1C4 JUMP JUMPDEST PUSH2 0x1EF PUSH0 DUP1 MLOAD PUSH1 0x20 PUSH2 0x10DC DUP4 CODECOPY DUP2 MLOAD SWAP2 MSTORE DUP2 JUMP JUMPDEST PUSH2 0x34B PUSH2 0x325 CALLDATASIZE PUSH1 0x4 PUSH2 0xFDE JUMP JUMPDEST PUSH1 0x5 PUSH1 0x20 MSTORE PUSH0 SWAP1 DUP2 MSTORE PUSH1 0x40 SWAP1 KECCAK256 DUP1 SLOAD PUSH1 0x1 DUP3 ADD SLOAD PUSH1 0x2 DUP4 ADD SLOAD PUSH1 0x3 SWAP1 SWAP4 ADD SLOAD SWAP2 SWAP3 SWAP1 SWAP2 DUP5 JUMP JUMPDEST PUSH1 0x40 DUP1 MLOAD SWAP5 DUP6 MSTORE PUSH1 0x20 DUP6 ADD SWAP4 SWAP1 SWAP4 MSTORE SWAP2 DUP4 ADD MSTORE PUSH1 0x60 DUP3 ADD MSTORE PUSH1 0x80 ADD PUSH2 0x1C4 JUMP JUMPDEST PUSH2 0x1B8 PUSH2 0x379 CALLDATASIZE PUSH1 0x4 PUSH2 0xFB4 JUMP JUMPDEST PUSH2 0x66D JUMP JUMPDEST PUSH2 0x1EF PUSH2 0x695 JUMP JUMPDEST PUSH2 0x210 PUSH2 0x394 CALLDATASIZE PUSH1 0x4 PUSH2 0xFDE JUMP JUMPDEST PUSH2 0x722 JUMP JUMPDEST PUSH2 0x210 PUSH2 0x3A7 CALLDATASIZE PUSH1 0x4 PUSH2 0xF82 JUMP JUMPDEST PUSH2 0x7E6 JUMP JUMPDEST PUSH2 0x1EF PUSH0 DUP2 JUMP JUMPDEST PUSH2 0x1EF PUSH2 0x3C1 CALLDATASIZE PUSH1 0x4 PUSH2 0xF82 JUMP JUMPDEST PUSH2 0x839 JUMP JUMPDEST PUSH2 0x210 PUSH2 0x3D4 CALLDATASIZE PUSH1 0x4 PUSH2 0xF82 JUMP JUMPDEST PUSH2 0x843 JUMP JUMPDEST PUSH2 0x210 PUSH2 0x3E7 CALLDATASIZE PUSH1 0x4 PUSH2 0xFF7 JUMP JUMPDEST PUSH2 0x87B JUMP JUMPDEST PUSH2 0x210 PUSH2 0x3FA CALLDATASIZE PUSH1 0x4 PUSH2 0x1027 JUMP JUMPDEST PUSH2 0x9B9 JUMP JUMPDEST PUSH2 0x210 PUSH2 0x40D CALLDATASIZE PUSH1 0x4 PUSH2 0xFB4 JUMP JUMPDEST PUSH2 0xA71 JUMP JUMPDEST PUSH2 0x1EF PUSH1 0x7 SLOAD DUP2 JUMP JUMPDEST PUSH2 0x1EF PUSH2 0x429 CALLDATASIZE PUSH1 0x4 PUSH2 0xF82 JUMP JUMPDEST PUSH1 0x4 PUSH1 0x20 MSTORE PUSH0 SWAP1 DUP2 MSTORE PUSH1 0x40 SWAP1 KECCAK256 SLOAD DUP2 JUMP JUMPDEST PUSH1 0x2 SLOAD PUSH2 0x2EB SWAP1 PUSH1 0x1 PUSH1 0x1 PUSH1 0xA0 SHL SUB AND DUP2 JUMP JUMPDEST PUSH2 0x1EF PUSH1 0x6 SLOAD DUP2 JUMP JUMPDEST PUSH2 0x1EF PUSH0 DUP1 MLOAD PUSH1 0x20 PUSH2 0x10BC DUP4 CODECOPY DUP2 MLOAD SWAP2 MSTORE DUP2 JUMP JUMPDEST PUSH0 PUSH1 0x1 PUSH1 0x1 PUSH1 0xE0 SHL SUB NOT DUP3 AND PUSH4 0x7965DB0B PUSH1 0xE0 SHL EQ DUP1 PUSH2 0x49A JUMPI POP PUSH4 0x1FFC9A7 PUSH1 0xE0 SHL PUSH1 0x1 PUSH1 0x1 PUSH1 0xE0 SHL SUB NOT DUP4 AND EQ JUMPDEST SWAP3 SWAP2 POP POP JUMP JUMPDEST PUSH0 DUP3 DUP2 MSTORE PUSH1 0x20 DUP2 SWAP1 MSTORE PUSH1 0x40 SWAP1 KECCAK256 PUSH1 0x1 ADD SLOAD PUSH2 0x4BA DUP2 PUSH2 0xA95 JUMP JUMPDEST PUSH2 0x4C4 DUP4 DUP4 PUSH2 0xA9F JUMP JUMPDEST POP POP POP POP JUMP JUMPDEST PUSH1 0x1 PUSH1 0x1 PUSH1 0xA0 SHL SUB DUP2 AND CALLER EQ PUSH2 0x4F3 JUMPI PUSH1 0x40 MLOAD PUSH4 0x334BD919 PUSH1 0xE1 SHL DUP2 MSTORE PUSH1 0x4 ADD PUSH1 0x40 MLOAD DUP1 SWAP2 SUB SWAP1 REVERT JUMPDEST PUSH2 0x4FD DUP3 DUP3 PUSH2 0xB2E JUMP JUMPDEST POP POP POP JUMP JUMPDEST PUSH0 PUSH2 0x50B PUSH2 0xB97 JUMP JUMPDEST CALLER PUSH0 SWAP1 DUP2 MSTORE PUSH1 0x5 PUSH1 0x20 MSTORE PUSH1 0x40 SWAP1 KECCAK256 TIMESTAMP PUSH1 0x2 DUP3 ADD SSTORE PUSH1 0x3 DUP2 ADD SLOAD DUP1 PUSH2 0x56C JUMPI PUSH1 0x40 MLOAD PUSH3 0x461BCD PUSH1 0xE5 SHL DUP2 MSTORE PUSH1 0x20 PUSH1 0x4 DUP3 ADD MSTORE PUSH1 0x13 PUSH1 0x24 DUP3 ADD MSTORE PUSH19 0x4E6F207265776172647320746F20636C61696D PUSH1 0x68 SHL PUSH1 0x44 DUP3 ADD MSTORE PUSH1 0x64 ADD JUMPDEST PUSH1 0x40 MLOAD DUP1 SWAP2 SUB SWAP1 REVERT JUMPDEST PUSH0 DUP3 PUSH1 0x3 ADD DUP2 SWAP1 SSTORE POP DUP1 DUP3 PUSH1 0x1 ADD PUSH0 DUP3 DUP3 SLOAD PUSH2 0x588 SWAP2 SWAP1 PUSH2 0x105B JUMP JUMPDEST SWAP3 POP POP DUP2 SWAP1 SSTORE POP DUP1 PUSH1 0x7 PUSH0 DUP3 DUP3 SLOAD PUSH2 0x5A0 SWAP2 SWAP1 PUSH2 0x105B JUMP JUMPDEST SWAP1 SWAP2 SSTORE POP PUSH2 0x5DA SWAP1 POP PUSH1 0x1 PUSH1 0x1 PUSH1 0xA0 SHL SUB PUSH32 0x0 AND CALLER DUP4 PUSH2 0xBC1 JUMP JUMPDEST PUSH1 0x40 MLOAD DUP2 DUP2 MSTORE CALLER SWAP1 PUSH32 0x106F923F993C2149D49B4255FF723ACAFA1F2D94393F561D3EDA32AE348F7241 SWAP1 PUSH1 0x20 ADD PUSH1 0x40 MLOAD DUP1 SWAP2 SUB SWAP1 LOG2 SWAP2 POP POP PUSH2 0x61B PUSH1 0x1 DUP1 SSTORE JUMP JUMPDEST SWAP1 JUMP JUMPDEST PUSH0 DUP1 MLOAD PUSH1 0x20 PUSH2 0x10DC DUP4 CODECOPY DUP2 MLOAD SWAP2 MSTORE PUSH2 0x635 DUP2 PUSH2 0xA95 JUMP JUMPDEST PUSH2 0x669 PUSH1 0x1 PUSH1 0x1 PUSH1 0xA0 SHL SUB PUSH32 0x0 AND CALLER DUP5 PUSH2 0xBC1 JUMP JUMPDEST POP POP JUMP JUMPDEST PUSH0 SWAP2 DUP3 MSTORE PUSH1 0x20 DUP3 DUP2 MSTORE PUSH1 0x40 DUP1 DUP5 KECCAK256 PUSH1 0x1 PUSH1 0x1 PUSH1 0xA0 SHL SUB SWAP4 SWAP1 SWAP4 AND DUP5 MSTORE SWAP2 SWAP1 MSTORE SWAP1 KECCAK256 SLOAD PUSH1 0xFF AND SWAP1 JUMP JUMPDEST PUSH1 0x40 MLOAD PUSH4 0x70A08231 PUSH1 0xE0 SHL DUP2 MSTORE ADDRESS PUSH1 0x4 DUP3 ADD MSTORE PUSH0 SWAP1 PUSH32 0x0 PUSH1 0x1 PUSH1 0x1 PUSH1 0xA0 SHL SUB AND SWAP1 PUSH4 0x70A08231 SWAP1 PUSH1 0x24 ADD PUSH1 0x20 PUSH1 0x40 MLOAD DUP1 DUP4 SUB DUP2 DUP7 GAS STATICCALL ISZERO DUP1 ISZERO PUSH2 0x6F9 JUMPI RETURNDATASIZE PUSH0 DUP1 RETURNDATACOPY RETURNDATASIZE PUSH0 REVERT JUMPDEST POP POP POP POP PUSH1 0x40 MLOAD RETURNDATASIZE PUSH1 0x1F NOT PUSH1 0x1F DUP3 ADD AND DUP3 ADD DUP1 PUSH1 0x40 MSTORE POP DUP2 ADD SWAP1 PUSH2 0x71D SWAP2 SWAP1 PUSH2 0x106E JUMP JUMPDEST SWAP1 POP SWAP1 JUMP JUMPDEST PUSH0 DUP1 MLOAD PUSH1 0x20 PUSH2 0x10DC DUP4 CODECOPY DUP2 MLOAD SWAP2 MSTORE PUSH2 0x739 DUP2 PUSH2 0xA95 JUMP JUMPDEST PUSH1 0x1 PUSH1 0x1 PUSH1 0xA0 SHL SUB DUP3 AND PUSH2 0x78F JUMPI PUSH1 0x40 MLOAD PUSH3 0x461BCD PUSH1 0xE5 SHL DUP2 MSTORE PUSH1 0x20 PUSH1 0x4 DUP3 ADD MSTORE PUSH1 0x18 PUSH1 0x24 DUP3 ADD MSTORE PUSH32 0x496E76616C6964207374616B696E6720636F6E74726163740000000000000000 PUSH1 0x44 DUP3 ADD MSTORE PUSH1 0x64 ADD PUSH2 0x563 JUMP JUMPDEST PUSH1 0x2 SLOAD PUSH2 0x7B3 SWAP1 PUSH0 DUP1 MLOAD PUSH1 0x20 PUSH2 0x10BC DUP4 CODECOPY DUP2 MLOAD SWAP2 MSTORE SWAP1 PUSH1 0x1 PUSH1 0x1 PUSH1 0xA0 SHL SUB AND PUSH2 0xB2E JUMP JUMPDEST POP PUSH1 0x2 DUP1 SLOAD PUSH1 0x1 PUSH1 0x1 PUSH1 0xA0 SHL SUB NOT AND PUSH1 0x1 PUSH1 0x1 PUSH1 0xA0 SHL SUB DUP5 AND OR SWAP1 SSTORE PUSH2 0x4FD PUSH0 DUP1 MLOAD PUSH1 0x20 PUSH2 0x10BC DUP4 CODECOPY DUP2 MLOAD SWAP2 MSTORE DUP4 PUSH2 0xA9F JUMP JUMPDEST PUSH0 DUP1 MLOAD PUSH1 0x20 PUSH2 0x10DC DUP4 CODECOPY DUP2 MLOAD SWAP2 MSTORE PUSH2 0x7FD DUP2 PUSH2 0xA95 JUMP JUMPDEST PUSH1 0x3 DUP3 SWAP1 SSTORE PUSH1 0x40 MLOAD DUP3 DUP2 MSTORE PUSH32 0x41D466EBD06FB97E7786086AC8B69B7EB7DA798592036251291D34E9791CDE01 SWAP1 PUSH1 0x20 ADD PUSH1 0x40 MLOAD DUP1 SWAP2 SUB SWAP1 LOG1 POP POP JUMP JUMPDEST PUSH0 PUSH2 0x49A DUP3 PUSH2 0xC20 JUMP JUMPDEST PUSH2 0x878 PUSH1 0x1 PUSH1 0x1 PUSH1 0xA0 SHL SUB PUSH32 0x0 AND CALLER ADDRESS DUP5 PUSH2 0xE76 JUMP JUMPDEST POP JUMP JUMPDEST PUSH0 DUP1 MLOAD PUSH1 0x20 PUSH2 0x10BC DUP4 CODECOPY DUP2 MLOAD SWAP2 MSTORE PUSH2 0x892 DUP2 PUSH2 0xA95 JUMP JUMPDEST PUSH2 0x8B5 DUP5 PUSH1 0x1 PUSH1 0x1 PUSH1 0xA0 SHL SUB AND PUSH0 SWAP1 DUP2 MSTORE PUSH1 0x5 PUSH1 0x20 MSTORE PUSH1 0x40 SWAP1 KECCAK256 TIMESTAMP PUSH1 0x2 SWAP1 SWAP2 ADD SSTORE JUMP JUMPDEST PUSH0 PUSH2 0x8BF DUP4 PUSH2 0xC20 JUMP JUMPDEST SWAP1 POP PUSH0 PUSH10 0x21E19E0C9BAB2400000 DUP3 DUP6 PUSH1 0x3 SLOAD DUP9 PUSH2 0x8DD SWAP2 SWAP1 PUSH2 0x1085 JUMP JUMPDEST PUSH2 0x8E7 SWAP2 SWAP1 PUSH2 0x1085 JUMP JUMPDEST PUSH2 0x8F1 SWAP2 SWAP1 PUSH2 0x1085 JUMP JUMPDEST PUSH2 0x8FB SWAP2 SWAP1 PUSH2 0x109C JUMP JUMPDEST PUSH1 0x1 PUSH1 0x1 PUSH1 0xA0 SHL SUB DUP8 AND PUSH0 SWAP1 DUP2 MSTORE PUSH1 0x5 PUSH1 0x20 MSTORE PUSH1 0x40 DUP2 KECCAK256 PUSH1 0x3 ADD DUP1 SLOAD SWAP3 SWAP4 POP DUP4 SWAP3 SWAP1 SWAP2 SWAP1 PUSH2 0x92A SWAP1 DUP5 SWAP1 PUSH2 0x105B JUMP JUMPDEST SWAP1 SWAP2 SSTORE POP POP PUSH1 0x1 PUSH1 0x1 PUSH1 0xA0 SHL SUB DUP7 AND PUSH0 SWAP1 DUP2 MSTORE PUSH1 0x5 PUSH1 0x20 MSTORE PUSH1 0x40 DUP2 KECCAK256 DUP1 SLOAD DUP4 SWAP3 SWAP1 PUSH2 0x956 SWAP1 DUP5 SWAP1 PUSH2 0x105B JUMP JUMPDEST SWAP3 POP POP DUP2 SWAP1 SSTORE POP DUP1 PUSH1 0x6 PUSH0 DUP3 DUP3 SLOAD PUSH2 0x96E SWAP2 SWAP1 PUSH2 0x105B JUMP JUMPDEST SWAP1 SWAP2 SSTORE POP POP PUSH1 0x40 MLOAD DUP2 DUP2 MSTORE PUSH1 0x1 PUSH1 0x1 PUSH1 0xA0 SHL SUB DUP8 AND SWAP1 PUSH32 0x578AFAB8065B30A5E9827120E4905B8A1810E180D2F793CA54AF6F7633F4E57A SWAP1 PUSH1 0x20 ADD PUSH1 0x40 MLOAD DUP1 SWAP2 SUB SWAP1 LOG2 POP POP POP POP POP POP JUMP JUMPDEST PUSH0 DUP1 MLOAD PUSH1 0x20 PUSH2 0x10DC DUP4 CODECOPY DUP2 MLOAD SWAP2 MSTORE PUSH2 0x9D0 DUP2 PUSH2 0xA95 JUMP JUMPDEST PUSH2 0x2710 DUP3 LT ISZERO PUSH2 0xA22 JUMPI PUSH1 0x40 MLOAD PUSH3 0x461BCD PUSH1 0xE5 SHL DUP2 MSTORE PUSH1 0x20 PUSH1 0x4 DUP3 ADD MSTORE PUSH1 0x18 PUSH1 0x24 DUP3 ADD MSTORE PUSH32 0x4D756C7469706C696572206D757374206265203E3D2031780000000000000000 PUSH1 0x44 DUP3 ADD MSTORE PUSH1 0x64 ADD PUSH2 0x563 JUMP JUMPDEST PUSH0 DUP4 DUP2 MSTORE PUSH1 0x4 PUSH1 0x20 SWAP1 DUP2 MSTORE PUSH1 0x40 SWAP2 DUP3 SWAP1 KECCAK256 DUP5 SWAP1 SSTORE DUP2 MLOAD DUP6 DUP2 MSTORE SWAP1 DUP2 ADD DUP5 SWAP1 MSTORE PUSH32 0xB9A8CB2A3C650E62CBF065D89DEDABBA2097CDE303347E57F0823C70753E4741 SWAP2 ADD PUSH1 0x40 MLOAD DUP1 SWAP2 SUB SWAP1 LOG1 POP POP POP JUMP JUMPDEST PUSH0 DUP3 DUP2 MSTORE PUSH1 0x20 DUP2 SWAP1 MSTORE PUSH1 0x40 SWAP1 KECCAK256 PUSH1 0x1 ADD SLOAD PUSH2 0xA8B DUP2 PUSH2 0xA95 JUMP JUMPDEST PUSH2 0x4C4 DUP4 DUP4 PUSH2 0xB2E JUMP JUMPDEST PUSH2 0x878 DUP2 CALLER PUSH2 0xEAF JUMP JUMPDEST PUSH0 PUSH2 0xAAA DUP4 DUP4 PUSH2 0x66D JUMP JUMPDEST PUSH2 0xB27 JUMPI PUSH0 DUP4 DUP2 MSTORE PUSH1 0x20 DUP2 DUP2 MSTORE PUSH1 0x40 DUP1 DUP4 KECCAK256 PUSH1 0x1 PUSH1 0x1 PUSH1 0xA0 SHL SUB DUP7 AND DUP5 MSTORE SWAP1 SWAP2 MSTORE SWAP1 KECCAK256 DUP1 SLOAD PUSH1 0xFF NOT AND PUSH1 0x1 OR SWAP1 SSTORE PUSH2 0xADF CALLER SWAP1 JUMP JUMPDEST PUSH1 0x1 PUSH1 0x1 PUSH1 0xA0 SHL SUB AND DUP3 PUSH1 0x1 PUSH1 0x1 PUSH1 0xA0 SHL SUB AND DUP5 PUSH32 0x2F8788117E7EFF1D82E926EC794901D17C78024A50270940304540A733656F0D PUSH1 0x40 MLOAD PUSH1 0x40 MLOAD DUP1 SWAP2 SUB SWAP1 LOG4 POP PUSH1 0x1 PUSH2 0x49A JUMP JUMPDEST POP PUSH0 PUSH2 0x49A JUMP JUMPDEST PUSH0 PUSH2 0xB39 DUP4 DUP4 PUSH2 0x66D JUMP JUMPDEST ISZERO PUSH2 0xB27 JUMPI PUSH0 DUP4 DUP2 MSTORE PUSH1 0x20 DUP2 DUP2 MSTORE PUSH1 0x40 DUP1 DUP4 KECCAK256 PUSH1 0x1 PUSH1 0x1 PUSH1 0xA0 SHL SUB DUP7 AND DUP1 DUP6 MSTORE SWAP3 MSTORE DUP1 DUP4 KECCAK256 DUP1 SLOAD PUSH1 0xFF NOT AND SWAP1 SSTORE MLOAD CALLER SWAP3 DUP7 SWAP2 PUSH32 0xF6391F5C32D9C69D2A47EA670B442974B53935D1EDC7FD64EB21E047A839171B SWAP2 SWAP1 LOG4 POP PUSH1 0x1 PUSH2 0x49A JUMP JUMPDEST PUSH1 0x2 PUSH1 0x1 SLOAD SUB PUSH2 0xBBA JUMPI PUSH1 0x40 MLOAD PUSH4 0x3EE5AEB5 PUSH1 0xE0 SHL DUP2 MSTORE PUSH1 0x4 ADD PUSH1 0x40 MLOAD DUP1 SWAP2 SUB SWAP1 REVERT JUMPDEST PUSH1 0x2 PUSH1 0x1 SSTORE JUMP JUMPDEST PUSH1 0x40 MLOAD PUSH1 0x1 PUSH1 0x1 PUSH1 0xA0 SHL SUB DUP4 DUP2 AND PUSH1 0x24 DUP4 ADD MSTORE PUSH1 0x44 DUP3 ADD DUP4 SWAP1 MSTORE PUSH2 0x4FD SWAP2 DUP6 SWAP2 DUP3 AND SWAP1 PUSH4 0xA9059CBB SWAP1 PUSH1 0x64 ADD JUMPDEST PUSH1 0x40 MLOAD PUSH1 0x20 DUP2 DUP4 SUB SUB DUP2 MSTORE SWAP1 PUSH1 0x40 MSTORE SWAP2 POP PUSH1 0xE0 SHL PUSH1 0x20 DUP3 ADD DUP1 MLOAD PUSH1 0x1 PUSH1 0x1 PUSH1 0xE0 SHL SUB DUP4 DUP2 DUP4 AND OR DUP4 MSTORE POP POP POP POP PUSH2 0xEE8 JUMP JUMPDEST PUSH0 PUSH4 0x1E13380 DUP3 LT ISZERO DUP1 ISZERO PUSH2 0xC61 JUMPI POP PUSH4 0x1E13380 PUSH0 MSTORE PUSH1 0x4 PUSH1 0x20 MSTORE PUSH32 0x97B3BABDC81BEA0AD63EAC221E7A5D9BC79ED7F55E35CB889964BD67DC516394 SLOAD ISZERO ISZERO JUMPDEST ISZERO PUSH2 0xC99 JUMPI POP POP PUSH4 0x1E13380 PUSH0 MSTORE PUSH1 0x4 PUSH1 0x20 MSTORE PUSH32 0x97B3BABDC81BEA0AD63EAC221E7A5D9BC79ED7F55E35CB889964BD67DC516394 SLOAD SWAP1 JUMP JUMPDEST PUSH3 0xED4E00 DUP3 LT ISZERO DUP1 ISZERO PUSH2 0xCD7 JUMPI POP PUSH3 0xED4E00 PUSH0 MSTORE PUSH1 0x4 PUSH1 0x20 MSTORE PUSH32 0x745BCF281519CA17F064B0F61AAC5766EE74F04B012D25A38690D2E3B51E8609 SLOAD ISZERO ISZERO JUMPDEST ISZERO PUSH2 0xD0E JUMPI POP POP PUSH3 0xED4E00 PUSH0 MSTORE PUSH1 0x4 PUSH1 0x20 MSTORE PUSH32 0x745BCF281519CA17F064B0F61AAC5766EE74F04B012D25A38690D2E3B51E8609 SLOAD SWAP1 JUMP JUMPDEST PUSH3 0x76A700 DUP3 LT ISZERO DUP1 ISZERO PUSH2 0xD4C JUMPI POP PUSH3 0x76A700 PUSH0 MSTORE PUSH1 0x4 PUSH1 0x20 MSTORE PUSH32 0x3FED37F7D98193D2657B011EB0A3EEC5F7221E6290AF9FCD81F4C04FCCD6843D SLOAD ISZERO ISZERO JUMPDEST ISZERO PUSH2 0xD83 JUMPI POP POP PUSH3 0x76A700 PUSH0 MSTORE PUSH1 0x4 PUSH1 0x20 MSTORE PUSH32 0x3FED37F7D98193D2657B011EB0A3EEC5F7221E6290AF9FCD81F4C04FCCD6843D SLOAD SWAP1 JUMP JUMPDEST PUSH3 0x4F1A00 DUP3 LT ISZERO DUP1 ISZERO PUSH2 0xDC1 JUMPI POP PUSH3 0x4F1A00 PUSH0 MSTORE PUSH1 0x4 PUSH1 0x20 MSTORE PUSH32 0x81E5DB68BD0B2138C7C7D33EA1F03C6CFD3B3A9624C556C6C483F10267E83A9 SLOAD ISZERO ISZERO JUMPDEST ISZERO PUSH2 0xDF8 JUMPI POP POP PUSH3 0x4F1A00 PUSH0 MSTORE PUSH1 0x4 PUSH1 0x20 MSTORE PUSH32 0x81E5DB68BD0B2138C7C7D33EA1F03C6CFD3B3A9624C556C6C483F10267E83A9 SLOAD SWAP1 JUMP JUMPDEST PUSH3 0x278D00 DUP3 LT ISZERO DUP1 ISZERO PUSH2 0xE36 JUMPI POP PUSH3 0x278D00 PUSH0 MSTORE PUSH1 0x4 PUSH1 0x20 MSTORE PUSH32 0x5564A3699837F937070BC8E1A858506E72778E568C12590EED67A771B908E223 SLOAD ISZERO ISZERO JUMPDEST ISZERO PUSH2 0xE6D JUMPI POP POP PUSH3 0x278D00 PUSH0 MSTORE PUSH1 0x4 PUSH1 0x20 MSTORE PUSH32 0x5564A3699837F937070BC8E1A858506E72778E568C12590EED67A771B908E223 SLOAD SWAP1 JUMP JUMPDEST POP PUSH2 0x2710 SWAP2 SWAP1 POP JUMP JUMPDEST PUSH1 0x40 MLOAD PUSH1 0x1 PUSH1 0x1 PUSH1 0xA0 SHL SUB DUP5 DUP2 AND PUSH1 0x24 DUP4 ADD MSTORE DUP4 DUP2 AND PUSH1 0x44 DUP4 ADD MSTORE PUSH1 0x64 DUP3 ADD DUP4 SWAP1 MSTORE PUSH2 0x4C4 SWAP2 DUP7 SWAP2 DUP3 AND SWAP1 PUSH4 0x23B872DD SWAP1 PUSH1 0x84 ADD PUSH2 0xBEE JUMP JUMPDEST PUSH2 0xEB9 DUP3 DUP3 PUSH2 0x66D JUMP JUMPDEST PUSH2 0x669 JUMPI PUSH1 0x40 MLOAD PUSH4 0xE2517D3F PUSH1 0xE0 SHL DUP2 MSTORE PUSH1 0x1 PUSH1 0x1 PUSH1 0xA0 SHL SUB DUP3 AND PUSH1 0x4 DUP3 ADD MSTORE PUSH1 0x24 DUP2 ADD DUP4 SWAP1 MSTORE PUSH1 0x44 ADD PUSH2 0x563 JUMP JUMPDEST PUSH0 DUP1 PUSH1 0x20 PUSH0 DUP5 MLOAD PUSH1 0x20 DUP7 ADD PUSH0 DUP9 GAS CALL DUP1 PUSH2 0xF07 JUMPI PUSH1 0x40 MLOAD RETURNDATASIZE PUSH0 DUP3 RETURNDATACOPY RETURNDATASIZE DUP2 REVERT JUMPDEST POP POP PUSH0 MLOAD RETURNDATASIZE SWAP2 POP DUP2 ISZERO PUSH2 0xF1E JUMPI DUP1 PUSH1 0x1 EQ ISZERO PUSH2 0xF2B JUMP JUMPDEST PUSH1 0x1 PUSH1 0x1 PUSH1 0xA0 SHL SUB DUP5 AND EXTCODESIZE ISZERO JUMPDEST ISZERO PUSH2 0x4C4 JUMPI PUSH1 0x40 MLOAD PUSH4 0x5274AFE7 PUSH1 0xE0 SHL DUP2 MSTORE PUSH1 0x1 PUSH1 0x1 PUSH1 0xA0 SHL SUB DUP6 AND PUSH1 0x4 DUP3 ADD MSTORE PUSH1 0x24 ADD PUSH2 0x563 JUMP JUMPDEST PUSH0 PUSH1 0x20 DUP3 DUP5 SUB SLT ISZERO PUSH2 0xF64 JUMPI PUSH0 DUP1 REVERT JUMPDEST DUP2 CALLDATALOAD PUSH1 0x1 PUSH1 0x1 PUSH1 0xE0 SHL SUB NOT DUP2 AND DUP2 EQ PUSH2 0xF7B JUMPI PUSH0 DUP1 REVERT JUMPDEST SWAP4 SWAP3 POP POP POP JUMP JUMPDEST PUSH0 PUSH1 0x20 DUP3 DUP5 SUB SLT ISZERO PUSH2 0xF92 JUMPI PUSH0 DUP1 REVERT JUMPDEST POP CALLDATALOAD SWAP2 SWAP1 POP JUMP JUMPDEST DUP1 CALLDATALOAD PUSH1 0x1 PUSH1 0x1 PUSH1 0xA0 SHL SUB DUP2 AND DUP2 EQ PUSH2 0xFAF JUMPI PUSH0 DUP1 REVERT JUMPDEST SWAP2 SWAP1 POP JUMP JUMPDEST PUSH0 DUP1 PUSH1 0x40 DUP4 DUP6 SUB SLT ISZERO PUSH2 0xFC5 JUMPI PUSH0 DUP1 REVERT JUMPDEST DUP3 CALLDATALOAD SWAP2 POP PUSH2 0xFD5 PUSH1 0x20 DUP5 ADD PUSH2 0xF99 JUMP JUMPDEST SWAP1 POP SWAP3 POP SWAP3 SWAP1 POP JUMP JUMPDEST PUSH0 PUSH1 0x20 DUP3 DUP5 SUB SLT ISZERO PUSH2 0xFEE JUMPI PUSH0 DUP1 REVERT JUMPDEST PUSH2 0xF7B DUP3 PUSH2 0xF99 JUMP JUMPDEST PUSH0 DUP1 PUSH0 PUSH1 0x60 DUP5 DUP7 SUB SLT ISZERO PUSH2 0x1009 JUMPI PUSH0 DUP1 REVERT JUMPDEST PUSH2 0x1012 DUP5 PUSH2 0xF99 JUMP JUMPDEST SWAP6 PUSH1 0x20 DUP6 ADD CALLDATALOAD SWAP6 POP PUSH1 0x40 SWAP1 SWAP5 ADD CALLDATALOAD SWAP4 SWAP3 POP POP POP JUMP JUMPDEST PUSH0 DUP1 PUSH1 0x40 DUP4 DUP6 SUB SLT ISZERO PUSH2 0x1038 JUMPI PUSH0 DUP1 REVERT JUMPDEST POP POP DUP1 CALLDATALOAD SWAP3 PUSH1 0x20 SWAP1 SWAP2 ADD CALLDATALOAD SWAP2 POP JUMP JUMPDEST PUSH4 0x4E487B71 PUSH1 0xE0 SHL PUSH0 MSTORE PUSH1 0x11 PUSH1 0x4 MSTORE PUSH1 0x24 PUSH0 REVERT JUMPDEST DUP1 DUP3 ADD DUP1 DUP3 GT ISZERO PUSH2 0x49A JUMPI PUSH2 0x49A PUSH2 0x1047 JUMP JUMPDEST PUSH0 PUSH1 0x20 DUP3 DUP5 SUB SLT ISZERO PUSH2 0x107E JUMPI PUSH0 DUP1 REVERT JUMPDEST POP MLOAD SWAP2 SWAP1 POP JUMP JUMPDEST DUP1 DUP3 MUL DUP2 ISZERO DUP3 DUP3 DIV DUP5 EQ OR PUSH2 0x49A JUMPI PUSH2 0x49A PUSH2 0x1047 JUMP JUMPDEST PUSH0 DUP3 PUSH2 0x10B6 JUMPI PUSH4 0x4E487B71 PUSH1 0xE0 SHL PUSH0 MSTORE PUSH1 0x12 PUSH1 0x4 MSTORE PUSH1 0x24 PUSH0 REVERT JUMPDEST POP DIV SWAP1 JUMP INVALID 0xFB 0xD4 SLOAD RETURN PUSH11 0x7E1A388BD6FC3AB10D434A LOG4 JUMPI DUP16 DUP2 BYTE 0xCB 0xBC RETURN GASPRICE 0xFB SHR PUSH10 0x7486313CA49807205CE4 0xD3 SSTORE MULMOD 0x2E CREATE2 0xA8 LOG1 DUP16 JUMP 0xE8 SWAP2 EXTCODECOPY DELEGATECALL LOG2 ADD 0xFB 0xE2 DUP8 DUP3 JUMPDEST MULMOD JUMP SWAP4 0xC2 OR PUSH22 0xA2646970667358221220137F35A31611FA61D2A98B63 PUSH25 0xCAC7A49E97355B88345CBB3288A3A209988C864736F6C6343 STOP ADDMOD XOR STOP CALLER "},"methodIdentifiers":{"ADMIN_ROLE()":"75b238fc","DEFAULT_ADMIN_ROLE()":"a217fddf","DISTRIBUTOR_ROLE()":"f0bd87cc","accrueRewards(address,uint256,uint256)":"ce3b4e16","auditorRewards(address)":"7ee4d75e","claimRewards()":"372500ab","emergencyWithdraw(uint256)":"5312ea8e","fund(uint256)":"ca1d209d","getAuditorRewards(address)":"5743b31a","getMultiplier(uint256)":"adf8252d","getRoleAdmin(bytes32)":"248a9ca3","grantRole(bytes32,address)":"2f2ff15d","hasRole(bytes32,address)":"91d14854","isnadToken()":"619feede","lockMultipliers(uint256)":"dd6b21be","pendingRewards(address)":"31d7a262","poolBalance()":"96365d44","renounceRole(bytes32,address)":"36568abe","revokeRole(bytes32,address)":"d547741f","rewardRatePerSecond()":"5d773b2c","setLockMultiplier(uint256,uint256)":"d2afe4ab","setRewardRate(uint256)":"9e447fc6","setStakingContract(address)":"9dd373b9","stakingContract()":"ee99205c","supportsInterface(bytes4)":"01ffc9a7","totalClaimed()":"d54ad2a1","totalDistributed()":"efca2eed"}}}}}