{"contracts/ISNADRegistry.sol":{"ISNADRegistry":{"abi":[{"anonymous":false,"inputs":[{"indexed":true,"internalType":"bytes32","name":"contentHash","type":"bytes32"},{"indexed":false,"internalType":"uint16","name":"chunkIndex","type":"uint16"},{"indexed":false,"internalType":"uint16","name":"totalChunks","type":"uint16"},{"indexed":true,"internalType":"address","name":"author","type":"address"}],"name":"ChunkInscribed","type":"event"},{"anonymous":false,"inputs":[{"indexed":true,"internalType":"bytes32","name":"contentHash","type":"bytes32"},{"indexed":true,"internalType":"bytes32","name":"supersededBy","type":"bytes32"},{"indexed":true,"internalType":"address","name":"author","type":"address"}],"name":"ResourceDeprecated","type":"event"},{"anonymous":false,"inputs":[{"indexed":true,"internalType":"bytes32","name":"contentHash","type":"bytes32"},{"indexed":true,"internalType":"uint8","name":"resourceType","type":"uint8"},{"indexed":true,"internalType":"address","name":"author","type":"address"},{"indexed":false,"internalType":"uint256","name":"blockNumber","type":"uint256"},{"indexed":false,"internalType":"string","name":"metadata","type":"string"}],"name":"ResourceInscribed","type":"event"},{"inputs":[],"name":"TYPE_AGENT_CARD","outputs":[{"internalType":"uint8","name":"","type":"uint8"}],"stateMutability":"view","type":"function"},{"inputs":[],"name":"TYPE_MODEL_CARD","outputs":[{"internalType":"uint8","name":"","type":"uint8"}],"stateMutability":"view","type":"function"},{"inputs":[],"name":"TYPE_PROMPT","outputs":[{"internalType":"uint8","name":"","type":"uint8"}],"stateMutability":"view","type":"function"},{"inputs":[],"name":"TYPE_RAW","outputs":[{"internalType":"uint8","name":"","type":"uint8"}],"stateMutability":"view","type":"function"},{"inputs":[],"name":"TYPE_TOOL_SPEC","outputs":[{"internalType":"uint8","name":"","type":"uint8"}],"stateMutability":"view","type":"function"},{"inputs":[],"name":"TYPE_TRAINING","outputs":[{"internalType":"uint8","name":"","type":"uint8"}],"stateMutability":"view","type":"function"},{"inputs":[],"name":"TYPE_WORKFLOW","outputs":[{"internalType":"uint8","name":"","type":"uint8"}],"stateMutability":"view","type":"function"},{"inputs":[{"internalType":"bytes32","name":"","type":"bytes32"}],"name":"author","outputs":[{"internalType":"address","name":"","type":"address"}],"stateMutability":"view","type":"function"},{"inputs":[{"internalType":"bytes32","name":"","type":"bytes32"}],"name":"blockNumber","outputs":[{"internalType":"uint256","name":"","type":"uint256"}],"stateMutability":"view","type":"function"},{"inputs":[{"internalType":"bytes32","name":"contentHash","type":"bytes32"},{"internalType":"bytes32","name":"newContentHash","type":"bytes32"}],"name":"deprecate","outputs":[],"stateMutability":"nonpayable","type":"function"},{"inputs":[{"internalType":"bytes32","name":"","type":"bytes32"}],"name":"exists","outputs":[{"internalType":"bool","name":"","type":"bool"}],"stateMutability":"view","type":"function"},{"inputs":[{"internalType":"bytes32","name":"contentHash","type":"bytes32"}],"name":"getChunkStatus","outputs":[{"internalType":"bool","name":"pending","type":"bool"},{"internalType":"uint16","name":"received","type":"uint16"},{"internalType":"uint16","name":"total","type":"uint16"},{"internalType":"address","name":"chunkAuthor","type":"address"}],"stateMutability":"view","type":"function"},{"inputs":[{"internalType":"bytes32","name":"contentHash","type":"bytes32"}],"name":"getResource","outputs":[{"internalType":"bool","name":"inscribed","type":"bool"},{"internalType":"address","name":"resourceAuthor","type":"address"},{"internalType":"uint256","name":"inscribedBlock","type":"uint256"},{"internalType":"bytes32","name":"successor","type":"bytes32"}],"stateMutability":"view","type":"function"},{"inputs":[{"internalType":"bytes32","name":"contentHash","type":"bytes32"},{"internalType":"uint8","name":"resourceType","type":"uint8"},{"internalType":"string","name":"metadata","type":"string"},{"internalType":"bytes","name":"content","type":"bytes"}],"name":"inscribe","outputs":[],"stateMutability":"nonpayable","type":"function"},{"inputs":[{"internalType":"bytes32","name":"contentHash","type":"bytes32"},{"internalType":"uint16","name":"chunkIndex","type":"uint16"},{"internalType":"uint16","name":"totalChunks","type":"uint16"},{"internalType":"uint8","name":"resourceType","type":"uint8"},{"internalType":"string","name":"metadata","type":"string"},{"internalType":"bytes","name":"chunkData","type":"bytes"}],"name":"inscribeChunk","outputs":[],"stateMutability":"nonpayable","type":"function"},{"inputs":[{"internalType":"bytes32","name":"contentHash","type":"bytes32"}],"name":"isDeprecated","outputs":[{"internalType":"bool","name":"","type":"bool"}],"stateMutability":"view","type":"function"},{"inputs":[{"internalType":"bytes32","name":"","type":"bytes32"}],"name":"pendingChunks","outputs":[{"internalType":"bytes32","name":"contentHash","type":"bytes32"},{"internalType":"uint16","name":"totalChunks","type":"uint16"},{"internalType":"uint16","name":"receivedChunks","type":"uint16"},{"internalType":"address","name":"author","type":"address"}],"stateMutability":"view","type":"function"},{"inputs":[{"internalType":"bytes32","name":"","type":"bytes32"}],"name":"supersededBy","outputs":[{"internalType":"bytes32","name":"","type":"bytes32"}],"stateMutability":"view","type":"function"}],"evm":{"bytecode":{"linkReferences":{},"object":"608060405234801561001057600080fd5b50610e94806100206000396000f3fe608060405234801561001057600080fd5b50600436106101165760003560e01c8063a23ccd51116100a2578063c98a5fe111610071578063c98a5fe1146103ae578063d3d6e82e146103b6578063eb069a8a146103be578063ed1d2887146103c6578063f33e54e3146103e657600080fd5b8063a23ccd51146102e6578063af1f8cbb146102ee578063b2b5c8191461032f578063b4d6af8a1461033757600080fd5b806334132db6116100e957806334132db61461021657806338a699a41461029357806338bc7435146102b657806375c88124146102cb57806399bdd636146102de57600080fd5b8063094c890f1461011b5780630de4d5c01461013a578063120a2c3d1461016c5780631ceb83e9146101e8575b600080fd5b610123600581565b60405160ff90911681526020015b60405180910390f35b61015c610148366004610bef565b600090815260036020526040902054151590565b6040519015158152602001610131565b6101b261017a366004610bef565b60009081526004602052604090206001015464010000000081046001600160a01b03168015159261ffff620100008404811693169190565b6040516101319493929190931515845261ffff9283166020850152911660408301526001600160a01b0316606082015260800190565b6102086101f6366004610bef565b60036020526000908152604090205481565b604051908152602001610131565b61025f610224366004610bef565b6004602052600090815260409020805460019091015461ffff808216916201000081049091169064010000000090046001600160a01b031684565b604051610131949392919093845261ffff9283166020850152911660408301526001600160a01b0316606082015260800190565b61015c6102a1366004610bef565b60006020819052908152604090205460ff1681565b6102c96102c4366004610c08565b6103f9565b005b6102c96102d9366004610c89565b610546565b610123600481565b610123600181565b6103176102fc366004610bef565b6001602052600090815260409020546001600160a01b031681565b6040516001600160a01b039091168152602001610131565b610123600381565b610384610345366004610bef565b60009081526020818152604080832054600183528184205460028452828520546003909452919093205460ff909316936001600160a01b039091169290565b6040805194151585526001600160a01b039093166020850152918301526060820152608001610131565b610123600281565b610123600081565b610123600681565b6102086103d4366004610bef565b60026020526000908152604090205481565b6102c96103f4366004610d25565b61078c565b60008281526020819052604090205460ff166104515760405162461bcd60e51b815260206004820152601260248201527114995cdbdd5c98d9481b9bdd08199bdd5b9960721b60448201526064015b60405180910390fd5b6000828152600160205260409020546001600160a01b031633146104a45760405162461bcd60e51b815260206004820152600a6024820152692737ba1030baba3437b960b11b6044820152606401610448565b600082815260036020526040902054156104f55760405162461bcd60e51b8152602060048201526012602482015271105b1c9958591e4819195c1c9958d85d195960721b6044820152606401610448565b80156105015780610504565b60015b6000838152600360205260408082209290925590513391839185917f1e6399173b4ccd593844cebb6528627794cc752f5ddc10f1a9cc2f26d752bb6a91a45050565b60008681526020819052604090205460ff16156105995760405162461bcd60e51b8152602060048201526011602482015270105b1c9958591e481a5b9cd8dc9a589959607a1b6044820152606401610448565b600660ff861611156105e55760405162461bcd60e51b8152602060048201526015602482015274496e76616c6964207265736f75726365207479706560581b6044820152606401610448565b61080083111561062b5760405162461bcd60e51b81526020600482015260116024820152704d6574616461746120746f6f206c6f6e6760781b6044820152606401610448565b806106685760405162461bcd60e51b815260206004820152600d60248201526c115b5c1d1e4818dbdb9d195b9d609a1b6044820152606401610448565b60006002838360405161067c929190610dd0565b602060405180830381855afa158015610699573d6000803e3d6000fd5b5050506040513d601f19601f820116820180604052508101906106bc9190610de0565b90508681146106fd5760405162461bcd60e51b815260206004820152600d60248201526c090c2e6d040dad2e6dac2e8c6d609b1b6044820152606401610448565b600087815260208181526040808320805460ff19166001908117909155825280832080546001600160a01b0319163390811790915560029092529182902043908190559151909160ff8916918a917f402531f8214bfa7fd274f028ff5aa496e8ace2227116528db551894829bb6f529161077b91908b908b90610df9565b60405180910390a450505050505050565b60008881526020819052604090205460ff16156107df5760405162461bcd60e51b8152602060048201526011602482015270105b1c9958591e481a5b9cd8dc9a589959607a1b6044820152606401610448565b8561ffff168761ffff161061082c5760405162461bcd60e51b8152602060048201526013602482015272092dcecc2d8d2c840c6d0eadcd640d2dcc8caf606b1b6044820152606401610448565b60018661ffff16116108805760405162461bcd60e51b815260206004820152601f60248201527f55736520696e736372696265282920666f722073696e676c65206368756e6b006044820152606401610448565b60648661ffff1611156108c75760405162461bcd60e51b815260206004820152600f60248201526e546f6f206d616e79206368756e6b7360881b6044820152606401610448565b806109025760405162461bcd60e51b815260206004820152600b60248201526a456d707479206368756e6b60a81b6044820152606401610448565b60008881526004602052604081209061ffff89169003610a0157600181015464010000000090046001600160a01b0316156109775760405162461bcd60e51b81526020600482015260156024820152744368756e6b2073657175656e63652065786973747360581b6044820152606401610448565b600660ff871611156109c35760405162461bcd60e51b8152602060048201526015602482015274496e76616c6964207265736f75726365207479706560581b6044820152606401610448565b8881556001810180546401000000003302640100000000600160c01b031963ffffffff1990921661ffff8b1617620100001791909116179055610ae1565b600181015464010000000090046001600160a01b03163314610a585760405162461bcd60e51b815260206004820152601060248201526f2737ba1031b43ab7359030baba3437b960811b6044820152606401610448565b600181015461ffff888116911614610aa95760405162461bcd60e51b8152602060048201526014602482015273086d0eadcd640c6deeadce840dad2e6dac2e8c6d60631b6044820152606401610448565b60018101805462010000900461ffff16906002610ac583610e2f565b91906101000a81548161ffff021916908361ffff160217905550505b6040805161ffff808b1682528916602082015233918b917f7838723ab20e5d1a9bfda2356f1fd6670cb53e1460bd64acf48ed4d195edd108910160405180910390a3600181015461ffff808916620100009092041603610be457600089815260208181526040808320805460ff19166001908117909155825280832080546001600160a01b0319163390811790915560029092529182902043908190559151909160ff8916918c917f402531f8214bfa7fd274f028ff5aa496e8ace2227116528db551894829bb6f5291610bb991908b908b90610df9565b60405180910390a4600089815260046020526040812090815560010180546001600160c01b03191690555b505050505050505050565b600060208284031215610c0157600080fd5b5035919050565b60008060408385031215610c1b57600080fd5b50508035926020909101359150565b803560ff81168114610c3b57600080fd5b919050565b60008083601f840112610c5257600080fd5b50813567ffffffffffffffff811115610c6a57600080fd5b602083019150836020828501011115610c8257600080fd5b9250929050565b60008060008060008060808789031215610ca257600080fd5b86359550610cb260208801610c2a565b9450604087013567ffffffffffffffff80821115610ccf57600080fd5b610cdb8a838b01610c40565b90965094506060890135915080821115610cf457600080fd5b50610d0189828a01610c40565b979a9699509497509295939492505050565b803561ffff81168114610c3b57600080fd5b60008060008060008060008060c0898b031215610d4157600080fd5b88359750610d5160208a01610d13565b9650610d5f60408a01610d13565b9550610d6d60608a01610c2a565b9450608089013567ffffffffffffffff80821115610d8a57600080fd5b610d968c838d01610c40565b909650945060a08b0135915080821115610daf57600080fd5b50610dbc8b828c01610c40565b999c989b5096995094979396929594505050565b8183823760009101908152919050565b600060208284031215610df257600080fd5b5051919050565b83815260406020820152816040820152818360608301376000818301606090810191909152601f909201601f1916010192915050565b600061ffff808316818103610e5457634e487b7160e01b600052601160045260246000fd5b600101939250505056fea26469706673582212204eb408647611622d18962a3f112bdc75b1ffb048b0c7fbe827db7108eb1f150564736f6c63430008180033","opcodes":"PUSH1 0x80 PUSH1 0x40 MSTORE CALLVALUE DUP1 ISZERO PUSH2 0x10 JUMPI PUSH1 0x0 DUP1 REVERT JUMPDEST POP PUSH2 0xE94 DUP1 PUSH2 0x20 PUSH1 0x0 CODECOPY PUSH1 0x0 RETURN INVALID PUSH1 0x80 PUSH1 0x40 MSTORE CALLVALUE DUP1 ISZERO PUSH2 0x10 JUMPI PUSH1 0x0 DUP1 REVERT JUMPDEST POP PUSH1 0x4 CALLDATASIZE LT PUSH2 0x116 JUMPI PUSH1 0x0 CALLDATALOAD PUSH1 0xE0 SHR DUP1 PUSH4 0xA23CCD51 GT PUSH2 0xA2 JUMPI DUP1 PUSH4 0xC98A5FE1 GT PUSH2 0x71 JUMPI DUP1 PUSH4 0xC98A5FE1 EQ PUSH2 0x3AE JUMPI DUP1 PUSH4 0xD3D6E82E EQ PUSH2 0x3B6 JUMPI DUP1 PUSH4 0xEB069A8A EQ PUSH2 0x3BE JUMPI DUP1 PUSH4 0xED1D2887 EQ PUSH2 0x3C6 JUMPI DUP1 PUSH4 0xF33E54E3 EQ PUSH2 0x3E6 JUMPI PUSH1 0x0 DUP1 REVERT JUMPDEST DUP1 PUSH4 0xA23CCD51 EQ PUSH2 0x2E6 JUMPI DUP1 PUSH4 0xAF1F8CBB EQ PUSH2 0x2EE JUMPI DUP1 PUSH4 0xB2B5C819 EQ PUSH2 0x32F JUMPI DUP1 PUSH4 0xB4D6AF8A EQ PUSH2 0x337 JUMPI PUSH1 0x0 DUP1 REVERT JUMPDEST DUP1 PUSH4 0x34132DB6 GT PUSH2 0xE9 JUMPI DUP1 PUSH4 0x34132DB6 EQ PUSH2 0x216 JUMPI DUP1 PUSH4 0x38A699A4 EQ PUSH2 0x293 JUMPI DUP1 PUSH4 0x38BC7435 EQ PUSH2 0x2B6 JUMPI DUP1 PUSH4 0x75C88124 EQ PUSH2 0x2CB JUMPI DUP1 PUSH4 0x99BDD636 EQ PUSH2 0x2DE JUMPI PUSH1 0x0 DUP1 REVERT JUMPDEST DUP1 PUSH4 0x94C890F EQ PUSH2 0x11B JUMPI DUP1 PUSH4 0xDE4D5C0 EQ PUSH2 0x13A JUMPI DUP1 PUSH4 0x120A2C3D EQ PUSH2 0x16C JUMPI DUP1 PUSH4 0x1CEB83E9 EQ PUSH2 0x1E8 JUMPI JUMPDEST PUSH1 0x0 DUP1 REVERT JUMPDEST PUSH2 0x123 PUSH1 0x5 DUP2 JUMP JUMPDEST PUSH1 0x40 MLOAD PUSH1 0xFF SWAP1 SWAP2 AND DUP2 MSTORE PUSH1 0x20 ADD JUMPDEST PUSH1 0x40 MLOAD DUP1 SWAP2 SUB SWAP1 RETURN JUMPDEST PUSH2 0x15C PUSH2 0x148 CALLDATASIZE PUSH1 0x4 PUSH2 0xBEF JUMP JUMPDEST PUSH1 0x0 SWAP1 DUP2 MSTORE PUSH1 0x3 PUSH1 0x20 MSTORE PUSH1 0x40 SWAP1 KECCAK256 SLOAD ISZERO ISZERO SWAP1 JUMP JUMPDEST PUSH1 0x40 MLOAD SWAP1 ISZERO ISZERO DUP2 MSTORE PUSH1 0x20 ADD PUSH2 0x131 JUMP JUMPDEST PUSH2 0x1B2 PUSH2 0x17A CALLDATASIZE PUSH1 0x4 PUSH2 0xBEF JUMP JUMPDEST PUSH1 0x0 SWAP1 DUP2 MSTORE PUSH1 0x4 PUSH1 0x20 MSTORE PUSH1 0x40 SWAP1 KECCAK256 PUSH1 0x1 ADD SLOAD PUSH5 0x100000000 DUP2 DIV PUSH1 0x1 PUSH1 0x1 PUSH1 0xA0 SHL SUB AND DUP1 ISZERO ISZERO SWAP3 PUSH2 0xFFFF PUSH3 0x10000 DUP5 DIV DUP2 AND SWAP4 AND SWAP2 SWAP1 JUMP JUMPDEST PUSH1 0x40 MLOAD PUSH2 0x131 SWAP5 SWAP4 SWAP3 SWAP2 SWAP1 SWAP4 ISZERO ISZERO DUP5 MSTORE PUSH2 0xFFFF SWAP3 DUP4 AND PUSH1 0x20 DUP6 ADD MSTORE SWAP2 AND PUSH1 0x40 DUP4 ADD MSTORE PUSH1 0x1 PUSH1 0x1 PUSH1 0xA0 SHL SUB AND PUSH1 0x60 DUP3 ADD MSTORE PUSH1 0x80 ADD SWAP1 JUMP JUMPDEST PUSH2 0x208 PUSH2 0x1F6 CALLDATASIZE PUSH1 0x4 PUSH2 0xBEF JUMP JUMPDEST PUSH1 0x3 PUSH1 0x20 MSTORE PUSH1 0x0 SWAP1 DUP2 MSTORE PUSH1 0x40 SWAP1 KECCAK256 SLOAD DUP2 JUMP JUMPDEST PUSH1 0x40 MLOAD SWAP1 DUP2 MSTORE PUSH1 0x20 ADD PUSH2 0x131 JUMP JUMPDEST PUSH2 0x25F PUSH2 0x224 CALLDATASIZE PUSH1 0x4 PUSH2 0xBEF JUMP JUMPDEST PUSH1 0x4 PUSH1 0x20 MSTORE PUSH1 0x0 SWAP1 DUP2 MSTORE PUSH1 0x40 SWAP1 KECCAK256 DUP1 SLOAD PUSH1 0x1 SWAP1 SWAP2 ADD SLOAD PUSH2 0xFFFF DUP1 DUP3 AND SWAP2 PUSH3 0x10000 DUP2 DIV SWAP1 SWAP2 AND SWAP1 PUSH5 0x100000000 SWAP1 DIV PUSH1 0x1 PUSH1 0x1 PUSH1 0xA0 SHL SUB AND DUP5 JUMP JUMPDEST PUSH1 0x40 MLOAD PUSH2 0x131 SWAP5 SWAP4 SWAP3 SWAP2 SWAP1 SWAP4 DUP5 MSTORE PUSH2 0xFFFF SWAP3 DUP4 AND PUSH1 0x20 DUP6 ADD MSTORE SWAP2 AND PUSH1 0x40 DUP4 ADD MSTORE PUSH1 0x1 PUSH1 0x1 PUSH1 0xA0 SHL SUB AND PUSH1 0x60 DUP3 ADD MSTORE PUSH1 0x80 ADD SWAP1 JUMP JUMPDEST PUSH2 0x15C PUSH2 0x2A1 CALLDATASIZE PUSH1 0x4 PUSH2 0xBEF JUMP JUMPDEST PUSH1 0x0 PUSH1 0x20 DUP2 SWAP1 MSTORE SWAP1 DUP2 MSTORE PUSH1 0x40 SWAP1 KECCAK256 SLOAD PUSH1 0xFF AND DUP2 JUMP JUMPDEST PUSH2 0x2C9 PUSH2 0x2C4 CALLDATASIZE PUSH1 0x4 PUSH2 0xC08 JUMP JUMPDEST PUSH2 0x3F9 JUMP JUMPDEST STOP JUMPDEST PUSH2 0x2C9 PUSH2 0x2D9 CALLDATASIZE PUSH1 0x4 PUSH2 0xC89 JUMP JUMPDEST PUSH2 0x546 JUMP JUMPDEST PUSH2 0x123 PUSH1 0x4 DUP2 JUMP JUMPDEST PUSH2 0x123 PUSH1 0x1 DUP2 JUMP JUMPDEST PUSH2 0x317 PUSH2 0x2FC CALLDATASIZE PUSH1 0x4 PUSH2 0xBEF JUMP JUMPDEST PUSH1 0x1 PUSH1 0x20 MSTORE PUSH1 0x0 SWAP1 DUP2 MSTORE PUSH1 0x40 SWAP1 KECCAK256 SLOAD PUSH1 0x1 PUSH1 0x1 PUSH1 0xA0 SHL SUB AND DUP2 JUMP JUMPDEST PUSH1 0x40 MLOAD PUSH1 0x1 PUSH1 0x1 PUSH1 0xA0 SHL SUB SWAP1 SWAP2 AND DUP2 MSTORE PUSH1 0x20 ADD PUSH2 0x131 JUMP JUMPDEST PUSH2 0x123 PUSH1 0x3 DUP2 JUMP JUMPDEST PUSH2 0x384 PUSH2 0x345 CALLDATASIZE PUSH1 0x4 PUSH2 0xBEF JUMP JUMPDEST PUSH1 0x0 SWAP1 DUP2 MSTORE PUSH1 0x20 DUP2 DUP2 MSTORE PUSH1 0x40 DUP1 DUP4 KECCAK256 SLOAD PUSH1 0x1 DUP4 MSTORE DUP2 DUP5 KECCAK256 SLOAD PUSH1 0x2 DUP5 MSTORE DUP3 DUP6 KECCAK256 SLOAD PUSH1 0x3 SWAP1 SWAP5 MSTORE SWAP2 SWAP1 SWAP4 KECCAK256 SLOAD PUSH1 0xFF SWAP1 SWAP4 AND SWAP4 PUSH1 0x1 PUSH1 0x1 PUSH1 0xA0 SHL SUB SWAP1 SWAP2 AND SWAP3 SWAP1 JUMP JUMPDEST PUSH1 0x40 DUP1 MLOAD SWAP5 ISZERO ISZERO DUP6 MSTORE PUSH1 0x1 PUSH1 0x1 PUSH1 0xA0 SHL SUB SWAP1 SWAP4 AND PUSH1 0x20 DUP6 ADD MSTORE SWAP2 DUP4 ADD MSTORE PUSH1 0x60 DUP3 ADD MSTORE PUSH1 0x80 ADD PUSH2 0x131 JUMP JUMPDEST PUSH2 0x123 PUSH1 0x2 DUP2 JUMP JUMPDEST PUSH2 0x123 PUSH1 0x0 DUP2 JUMP JUMPDEST PUSH2 0x123 PUSH1 0x6 DUP2 JUMP JUMPDEST PUSH2 0x208 PUSH2 0x3D4 CALLDATASIZE PUSH1 0x4 PUSH2 0xBEF JUMP JUMPDEST PUSH1 0x2 PUSH1 0x20 MSTORE PUSH1 0x0 SWAP1 DUP2 MSTORE PUSH1 0x40 SWAP1 KECCAK256 SLOAD DUP2 JUMP JUMPDEST PUSH2 0x2C9 PUSH2 0x3F4 CALLDATASIZE PUSH1 0x4 PUSH2 0xD25 JUMP JUMPDEST PUSH2 0x78C JUMP JUMPDEST PUSH1 0x0 DUP3 DUP2 MSTORE PUSH1 0x20 DUP2 SWAP1 MSTORE PUSH1 0x40 SWAP1 KECCAK256 SLOAD PUSH1 0xFF AND PUSH2 0x451 JUMPI PUSH1 0x40 MLOAD PUSH3 0x461BCD PUSH1 0xE5 SHL DUP2 MSTORE PUSH1 0x20 PUSH1 0x4 DUP3 ADD MSTORE PUSH1 0x12 PUSH1 0x24 DUP3 ADD MSTORE PUSH18 0x14995CDBDD5C98D9481B9BDD08199BDD5B99 PUSH1 0x72 SHL PUSH1 0x44 DUP3 ADD MSTORE PUSH1 0x64 ADD JUMPDEST PUSH1 0x40 MLOAD DUP1 SWAP2 SUB SWAP1 REVERT JUMPDEST PUSH1 0x0 DUP3 DUP2 MSTORE PUSH1 0x1 PUSH1 0x20 MSTORE PUSH1 0x40 SWAP1 KECCAK256 SLOAD PUSH1 0x1 PUSH1 0x1 PUSH1 0xA0 SHL SUB AND CALLER EQ PUSH2 0x4A4 JUMPI PUSH1 0x40 MLOAD PUSH3 0x461BCD PUSH1 0xE5 SHL DUP2 MSTORE PUSH1 0x20 PUSH1 0x4 DUP3 ADD MSTORE PUSH1 0xA PUSH1 0x24 DUP3 ADD MSTORE PUSH10 0x2737BA1030BABA3437B9 PUSH1 0xB1 SHL PUSH1 0x44 DUP3 ADD MSTORE PUSH1 0x64 ADD PUSH2 0x448 JUMP JUMPDEST PUSH1 0x0 DUP3 DUP2 MSTORE PUSH1 0x3 PUSH1 0x20 MSTORE PUSH1 0x40 SWAP1 KECCAK256 SLOAD ISZERO PUSH2 0x4F5 JUMPI PUSH1 0x40 MLOAD PUSH3 0x461BCD PUSH1 0xE5 SHL DUP2 MSTORE PUSH1 0x20 PUSH1 0x4 DUP3 ADD MSTORE PUSH1 0x12 PUSH1 0x24 DUP3 ADD MSTORE PUSH18 0x105B1C9958591E4819195C1C9958D85D1959 PUSH1 0x72 SHL PUSH1 0x44 DUP3 ADD MSTORE PUSH1 0x64 ADD PUSH2 0x448 JUMP JUMPDEST DUP1 ISZERO PUSH2 0x501 JUMPI DUP1 PUSH2 0x504 JUMP JUMPDEST PUSH1 0x1 JUMPDEST PUSH1 0x0 DUP4 DUP2 MSTORE PUSH1 0x3 PUSH1 0x20 MSTORE PUSH1 0x40 DUP1 DUP3 KECCAK256 SWAP3 SWAP1 SWAP3 SSTORE SWAP1 MLOAD CALLER SWAP2 DUP4 SWAP2 DUP6 SWAP2 PUSH32 0x1E6399173B4CCD593844CEBB6528627794CC752F5DDC10F1A9CC2F26D752BB6A SWAP2 LOG4 POP POP JUMP JUMPDEST PUSH1 0x0 DUP7 DUP2 MSTORE PUSH1 0x20 DUP2 SWAP1 MSTORE PUSH1 0x40 SWAP1 KECCAK256 SLOAD PUSH1 0xFF AND ISZERO PUSH2 0x599 JUMPI PUSH1 0x40 MLOAD PUSH3 0x461BCD PUSH1 0xE5 SHL DUP2 MSTORE PUSH1 0x20 PUSH1 0x4 DUP3 ADD MSTORE PUSH1 0x11 PUSH1 0x24 DUP3 ADD MSTORE PUSH17 0x105B1C9958591E481A5B9CD8DC9A589959 PUSH1 0x7A SHL PUSH1 0x44 DUP3 ADD MSTORE PUSH1 0x64 ADD PUSH2 0x448 JUMP JUMPDEST PUSH1 0x6 PUSH1 0xFF DUP7 AND GT ISZERO PUSH2 0x5E5 JUMPI PUSH1 0x40 MLOAD PUSH3 0x461BCD PUSH1 0xE5 SHL DUP2 MSTORE PUSH1 0x20 PUSH1 0x4 DUP3 ADD MSTORE PUSH1 0x15 PUSH1 0x24 DUP3 ADD MSTORE PUSH21 0x496E76616C6964207265736F757263652074797065 PUSH1 0x58 SHL PUSH1 0x44 DUP3 ADD MSTORE PUSH1 0x64 ADD PUSH2 0x448 JUMP JUMPDEST PUSH2 0x800 DUP4 GT ISZERO PUSH2 0x62B JUMPI PUSH1 0x40 MLOAD PUSH3 0x461BCD PUSH1 0xE5 SHL DUP2 MSTORE PUSH1 0x20 PUSH1 0x4 DUP3 ADD MSTORE PUSH1 0x11 PUSH1 0x24 DUP3 ADD MSTORE PUSH17 0x4D6574616461746120746F6F206C6F6E67 PUSH1 0x78 SHL PUSH1 0x44 DUP3 ADD MSTORE PUSH1 0x64 ADD PUSH2 0x448 JUMP JUMPDEST DUP1 PUSH2 0x668 JUMPI PUSH1 0x40 MLOAD PUSH3 0x461BCD PUSH1 0xE5 SHL DUP2 MSTORE PUSH1 0x20 PUSH1 0x4 DUP3 ADD MSTORE PUSH1 0xD PUSH1 0x24 DUP3 ADD MSTORE PUSH13 0x115B5C1D1E4818DBDB9D195B9D PUSH1 0x9A SHL PUSH1 0x44 DUP3 ADD MSTORE PUSH1 0x64 ADD PUSH2 0x448 JUMP JUMPDEST PUSH1 0x0 PUSH1 0x2 DUP4 DUP4 PUSH1 0x40 MLOAD PUSH2 0x67C SWAP3 SWAP2 SWAP1 PUSH2 0xDD0 JUMP JUMPDEST PUSH1 0x20 PUSH1 0x40 MLOAD DUP1 DUP4 SUB DUP2 DUP6 GAS STATICCALL ISZERO DUP1 ISZERO PUSH2 0x699 JUMPI RETURNDATASIZE PUSH1 0x0 DUP1 RETURNDATACOPY RETURNDATASIZE PUSH1 0x0 REVERT JUMPDEST POP POP POP PUSH1 0x40 MLOAD RETURNDATASIZE PUSH1 0x1F NOT PUSH1 0x1F DUP3 ADD AND DUP3 ADD DUP1 PUSH1 0x40 MSTORE POP DUP2 ADD SWAP1 PUSH2 0x6BC SWAP2 SWAP1 PUSH2 0xDE0 JUMP JUMPDEST SWAP1 POP DUP7 DUP2 EQ PUSH2 0x6FD JUMPI PUSH1 0x40 MLOAD PUSH3 0x461BCD PUSH1 0xE5 SHL DUP2 MSTORE PUSH1 0x20 PUSH1 0x4 DUP3 ADD MSTORE PUSH1 0xD PUSH1 0x24 DUP3 ADD MSTORE PUSH13 0x90C2E6D040DAD2E6DAC2E8C6D PUSH1 0x9B SHL PUSH1 0x44 DUP3 ADD MSTORE PUSH1 0x64 ADD PUSH2 0x448 JUMP JUMPDEST PUSH1 0x0 DUP8 DUP2 MSTORE PUSH1 0x20 DUP2 DUP2 MSTORE PUSH1 0x40 DUP1 DUP4 KECCAK256 DUP1 SLOAD PUSH1 0xFF NOT AND PUSH1 0x1 SWAP1 DUP2 OR SWAP1 SWAP2 SSTORE DUP3 MSTORE DUP1 DUP4 KECCAK256 DUP1 SLOAD PUSH1 0x1 PUSH1 0x1 PUSH1 0xA0 SHL SUB NOT AND CALLER SWAP1 DUP2 OR SWAP1 SWAP2 SSTORE PUSH1 0x2 SWAP1 SWAP3 MSTORE SWAP2 DUP3 SWAP1 KECCAK256 NUMBER SWAP1 DUP2 SWAP1 SSTORE SWAP2 MLOAD SWAP1 SWAP2 PUSH1 0xFF DUP10 AND SWAP2 DUP11 SWAP2 PUSH32 0x402531F8214BFA7FD274F028FF5AA496E8ACE2227116528DB551894829BB6F52 SWAP2 PUSH2 0x77B SWAP2 SWAP1 DUP12 SWAP1 DUP12 SWAP1 PUSH2 0xDF9 JUMP JUMPDEST PUSH1 0x40 MLOAD DUP1 SWAP2 SUB SWAP1 LOG4 POP POP POP POP POP POP POP JUMP JUMPDEST PUSH1 0x0 DUP9 DUP2 MSTORE PUSH1 0x20 DUP2 SWAP1 MSTORE PUSH1 0x40 SWAP1 KECCAK256 SLOAD PUSH1 0xFF AND ISZERO PUSH2 0x7DF JUMPI PUSH1 0x40 MLOAD PUSH3 0x461BCD PUSH1 0xE5 SHL DUP2 MSTORE PUSH1 0x20 PUSH1 0x4 DUP3 ADD MSTORE PUSH1 0x11 PUSH1 0x24 DUP3 ADD MSTORE PUSH17 0x105B1C9958591E481A5B9CD8DC9A589959 PUSH1 0x7A SHL PUSH1 0x44 DUP3 ADD MSTORE PUSH1 0x64 ADD PUSH2 0x448 JUMP JUMPDEST DUP6 PUSH2 0xFFFF AND DUP8 PUSH2 0xFFFF AND LT PUSH2 0x82C JUMPI PUSH1 0x40 MLOAD PUSH3 0x461BCD PUSH1 0xE5 SHL DUP2 MSTORE PUSH1 0x20 PUSH1 0x4 DUP3 ADD MSTORE PUSH1 0x13 PUSH1 0x24 DUP3 ADD MSTORE PUSH19 0x92DCECC2D8D2C840C6D0EADCD640D2DCC8CAF PUSH1 0x6B SHL PUSH1 0x44 DUP3 ADD MSTORE PUSH1 0x64 ADD PUSH2 0x448 JUMP JUMPDEST PUSH1 0x1 DUP7 PUSH2 0xFFFF AND GT PUSH2 0x880 JUMPI PUSH1 0x40 MLOAD PUSH3 0x461BCD PUSH1 0xE5 SHL DUP2 MSTORE PUSH1 0x20 PUSH1 0x4 DUP3 ADD MSTORE PUSH1 0x1F PUSH1 0x24 DUP3 ADD MSTORE PUSH32 0x55736520696E736372696265282920666F722073696E676C65206368756E6B00 PUSH1 0x44 DUP3 ADD MSTORE PUSH1 0x64 ADD PUSH2 0x448 JUMP JUMPDEST PUSH1 0x64 DUP7 PUSH2 0xFFFF AND GT ISZERO PUSH2 0x8C7 JUMPI PUSH1 0x40 MLOAD PUSH3 0x461BCD PUSH1 0xE5 SHL DUP2 MSTORE PUSH1 0x20 PUSH1 0x4 DUP3 ADD MSTORE PUSH1 0xF PUSH1 0x24 DUP3 ADD MSTORE PUSH15 0x546F6F206D616E79206368756E6B73 PUSH1 0x88 SHL PUSH1 0x44 DUP3 ADD MSTORE PUSH1 0x64 ADD PUSH2 0x448 JUMP JUMPDEST DUP1 PUSH2 0x902 JUMPI PUSH1 0x40 MLOAD PUSH3 0x461BCD PUSH1 0xE5 SHL DUP2 MSTORE PUSH1 0x20 PUSH1 0x4 DUP3 ADD MSTORE PUSH1 0xB PUSH1 0x24 DUP3 ADD MSTORE PUSH11 0x456D707479206368756E6B PUSH1 0xA8 SHL PUSH1 0x44 DUP3 ADD MSTORE PUSH1 0x64 ADD PUSH2 0x448 JUMP JUMPDEST PUSH1 0x0 DUP9 DUP2 MSTORE PUSH1 0x4 PUSH1 0x20 MSTORE PUSH1 0x40 DUP2 KECCAK256 SWAP1 PUSH2 0xFFFF DUP10 AND SWAP1 SUB PUSH2 0xA01 JUMPI PUSH1 0x1 DUP2 ADD SLOAD PUSH5 0x100000000 SWAP1 DIV PUSH1 0x1 PUSH1 0x1 PUSH1 0xA0 SHL SUB AND ISZERO PUSH2 0x977 JUMPI PUSH1 0x40 MLOAD PUSH3 0x461BCD PUSH1 0xE5 SHL DUP2 MSTORE PUSH1 0x20 PUSH1 0x4 DUP3 ADD MSTORE PUSH1 0x15 PUSH1 0x24 DUP3 ADD MSTORE PUSH21 0x4368756E6B2073657175656E636520657869737473 PUSH1 0x58 SHL PUSH1 0x44 DUP3 ADD MSTORE PUSH1 0x64 ADD PUSH2 0x448 JUMP JUMPDEST PUSH1 0x6 PUSH1 0xFF DUP8 AND GT ISZERO PUSH2 0x9C3 JUMPI PUSH1 0x40 MLOAD PUSH3 0x461BCD PUSH1 0xE5 SHL DUP2 MSTORE PUSH1 0x20 PUSH1 0x4 DUP3 ADD MSTORE PUSH1 0x15 PUSH1 0x24 DUP3 ADD MSTORE PUSH21 0x496E76616C6964207265736F757263652074797065 PUSH1 0x58 SHL PUSH1 0x44 DUP3 ADD MSTORE PUSH1 0x64 ADD PUSH2 0x448 JUMP JUMPDEST DUP9 DUP2 SSTORE PUSH1 0x1 DUP2 ADD DUP1 SLOAD PUSH5 0x100000000 CALLER MUL PUSH5 0x100000000 PUSH1 0x1 PUSH1 0xC0 SHL SUB NOT PUSH4 0xFFFFFFFF NOT SWAP1 SWAP3 AND PUSH2 0xFFFF DUP12 AND OR PUSH3 0x10000 OR SWAP2 SWAP1 SWAP2 AND OR SWAP1 SSTORE PUSH2 0xAE1 JUMP JUMPDEST PUSH1 0x1 DUP2 ADD SLOAD PUSH5 0x100000000 SWAP1 DIV PUSH1 0x1 PUSH1 0x1 PUSH1 0xA0 SHL SUB AND CALLER EQ PUSH2 0xA58 JUMPI PUSH1 0x40 MLOAD PUSH3 0x461BCD PUSH1 0xE5 SHL DUP2 MSTORE PUSH1 0x20 PUSH1 0x4 DUP3 ADD MSTORE PUSH1 0x10 PUSH1 0x24 DUP3 ADD MSTORE PUSH16 0x2737BA1031B43AB7359030BABA3437B9 PUSH1 0x81 SHL PUSH1 0x44 DUP3 ADD MSTORE PUSH1 0x64 ADD PUSH2 0x448 JUMP JUMPDEST PUSH1 0x1 DUP2 ADD SLOAD PUSH2 0xFFFF DUP9 DUP2 AND SWAP2 AND EQ PUSH2 0xAA9 JUMPI PUSH1 0x40 MLOAD PUSH3 0x461BCD PUSH1 0xE5 SHL DUP2 MSTORE PUSH1 0x20 PUSH1 0x4 DUP3 ADD MSTORE PUSH1 0x14 PUSH1 0x24 DUP3 ADD MSTORE PUSH20 0x86D0EADCD640C6DEEADCE840DAD2E6DAC2E8C6D PUSH1 0x63 SHL PUSH1 0x44 DUP3 ADD MSTORE PUSH1 0x64 ADD PUSH2 0x448 JUMP JUMPDEST PUSH1 0x1 DUP2 ADD DUP1 SLOAD PUSH3 0x10000 SWAP1 DIV PUSH2 0xFFFF AND SWAP1 PUSH1 0x2 PUSH2 0xAC5 DUP4 PUSH2 0xE2F JUMP JUMPDEST SWAP2 SWAP1 PUSH2 0x100 EXP DUP2 SLOAD DUP2 PUSH2 0xFFFF MUL NOT AND SWAP1 DUP4 PUSH2 0xFFFF AND MUL OR SWAP1 SSTORE POP POP JUMPDEST PUSH1 0x40 DUP1 MLOAD PUSH2 0xFFFF DUP1 DUP12 AND DUP3 MSTORE DUP10 AND PUSH1 0x20 DUP3 ADD MSTORE CALLER SWAP2 DUP12 SWAP2 PUSH32 0x7838723AB20E5D1A9BFDA2356F1FD6670CB53E1460BD64ACF48ED4D195EDD108 SWAP2 ADD PUSH1 0x40 MLOAD DUP1 SWAP2 SUB SWAP1 LOG3 PUSH1 0x1 DUP2 ADD SLOAD PUSH2 0xFFFF DUP1 DUP10 AND PUSH3 0x10000 SWAP1 SWAP3 DIV AND SUB PUSH2 0xBE4 JUMPI PUSH1 0x0 DUP10 DUP2 MSTORE PUSH1 0x20 DUP2 DUP2 MSTORE PUSH1 0x40 DUP1 DUP4 KECCAK256 DUP1 SLOAD PUSH1 0xFF NOT AND PUSH1 0x1 SWAP1 DUP2 OR SWAP1 SWAP2 SSTORE DUP3 MSTORE DUP1 DUP4 KECCAK256 DUP1 SLOAD PUSH1 0x1 PUSH1 0x1 PUSH1 0xA0 SHL SUB NOT AND CALLER SWAP1 DUP2 OR SWAP1 SWAP2 SSTORE PUSH1 0x2 SWAP1 SWAP3 MSTORE SWAP2 DUP3 SWAP1 KECCAK256 NUMBER SWAP1 DUP2 SWAP1 SSTORE SWAP2 MLOAD SWAP1 SWAP2 PUSH1 0xFF DUP10 AND SWAP2 DUP13 SWAP2 PUSH32 0x402531F8214BFA7FD274F028FF5AA496E8ACE2227116528DB551894829BB6F52 SWAP2 PUSH2 0xBB9 SWAP2 SWAP1 DUP12 SWAP1 DUP12 SWAP1 PUSH2 0xDF9 JUMP JUMPDEST PUSH1 0x40 MLOAD DUP1 SWAP2 SUB SWAP1 LOG4 PUSH1 0x0 DUP10 DUP2 MSTORE PUSH1 0x4 PUSH1 0x20 MSTORE PUSH1 0x40 DUP2 KECCAK256 SWAP1 DUP2 SSTORE PUSH1 0x1 ADD DUP1 SLOAD PUSH1 0x1 PUSH1 0x1 PUSH1 0xC0 SHL SUB NOT AND SWAP1 SSTORE JUMPDEST POP POP POP POP POP POP POP POP POP JUMP JUMPDEST PUSH1 0x0 PUSH1 0x20 DUP3 DUP5 SUB SLT ISZERO PUSH2 0xC01 JUMPI PUSH1 0x0 DUP1 REVERT JUMPDEST POP CALLDATALOAD SWAP2 SWAP1 POP JUMP JUMPDEST PUSH1 0x0 DUP1 PUSH1 0x40 DUP4 DUP6 SUB SLT ISZERO PUSH2 0xC1B JUMPI PUSH1 0x0 DUP1 REVERT JUMPDEST POP POP DUP1 CALLDATALOAD SWAP3 PUSH1 0x20 SWAP1 SWAP2 ADD CALLDATALOAD SWAP2 POP JUMP JUMPDEST DUP1 CALLDATALOAD PUSH1 0xFF DUP2 AND DUP2 EQ PUSH2 0xC3B JUMPI PUSH1 0x0 DUP1 REVERT JUMPDEST SWAP2 SWAP1 POP JUMP JUMPDEST PUSH1 0x0 DUP1 DUP4 PUSH1 0x1F DUP5 ADD SLT PUSH2 0xC52 JUMPI PUSH1 0x0 DUP1 REVERT JUMPDEST POP DUP2 CALLDATALOAD PUSH8 0xFFFFFFFFFFFFFFFF DUP2 GT ISZERO PUSH2 0xC6A JUMPI PUSH1 0x0 DUP1 REVERT JUMPDEST PUSH1 0x20 DUP4 ADD SWAP2 POP DUP4 PUSH1 0x20 DUP3 DUP6 ADD ADD GT ISZERO PUSH2 0xC82 JUMPI PUSH1 0x0 DUP1 REVERT JUMPDEST SWAP3 POP SWAP3 SWAP1 POP JUMP JUMPDEST PUSH1 0x0 DUP1 PUSH1 0x0 DUP1 PUSH1 0x0 DUP1 PUSH1 0x80 DUP8 DUP10 SUB SLT ISZERO PUSH2 0xCA2 JUMPI PUSH1 0x0 DUP1 REVERT JUMPDEST DUP7 CALLDATALOAD SWAP6 POP PUSH2 0xCB2 PUSH1 0x20 DUP9 ADD PUSH2 0xC2A JUMP JUMPDEST SWAP5 POP PUSH1 0x40 DUP8 ADD CALLDATALOAD PUSH8 0xFFFFFFFFFFFFFFFF DUP1 DUP3 GT ISZERO PUSH2 0xCCF JUMPI PUSH1 0x0 DUP1 REVERT JUMPDEST PUSH2 0xCDB DUP11 DUP4 DUP12 ADD PUSH2 0xC40 JUMP JUMPDEST SWAP1 SWAP7 POP SWAP5 POP PUSH1 0x60 DUP10 ADD CALLDATALOAD SWAP2 POP DUP1 DUP3 GT ISZERO PUSH2 0xCF4 JUMPI PUSH1 0x0 DUP1 REVERT JUMPDEST POP PUSH2 0xD01 DUP10 DUP3 DUP11 ADD PUSH2 0xC40 JUMP JUMPDEST SWAP8 SWAP11 SWAP7 SWAP10 POP SWAP5 SWAP8 POP SWAP3 SWAP6 SWAP4 SWAP5 SWAP3 POP POP POP JUMP JUMPDEST DUP1 CALLDATALOAD PUSH2 0xFFFF DUP2 AND DUP2 EQ PUSH2 0xC3B JUMPI PUSH1 0x0 DUP1 REVERT JUMPDEST PUSH1 0x0 DUP1 PUSH1 0x0 DUP1 PUSH1 0x0 DUP1 PUSH1 0x0 DUP1 PUSH1 0xC0 DUP10 DUP12 SUB SLT ISZERO PUSH2 0xD41 JUMPI PUSH1 0x0 DUP1 REVERT JUMPDEST DUP9 CALLDATALOAD SWAP8 POP PUSH2 0xD51 PUSH1 0x20 DUP11 ADD PUSH2 0xD13 JUMP JUMPDEST SWAP7 POP PUSH2 0xD5F PUSH1 0x40 DUP11 ADD PUSH2 0xD13 JUMP JUMPDEST SWAP6 POP PUSH2 0xD6D PUSH1 0x60 DUP11 ADD PUSH2 0xC2A JUMP JUMPDEST SWAP5 POP PUSH1 0x80 DUP10 ADD CALLDATALOAD PUSH8 0xFFFFFFFFFFFFFFFF DUP1 DUP3 GT ISZERO PUSH2 0xD8A JUMPI PUSH1 0x0 DUP1 REVERT JUMPDEST PUSH2 0xD96 DUP13 DUP4 DUP14 ADD PUSH2 0xC40 JUMP JUMPDEST SWAP1 SWAP7 POP SWAP5 POP PUSH1 0xA0 DUP12 ADD CALLDATALOAD SWAP2 POP DUP1 DUP3 GT ISZERO PUSH2 0xDAF JUMPI PUSH1 0x0 DUP1 REVERT JUMPDEST POP PUSH2 0xDBC DUP12 DUP3 DUP13 ADD PUSH2 0xC40 JUMP JUMPDEST SWAP10 SWAP13 SWAP9 SWAP12 POP SWAP7 SWAP10 POP SWAP5 SWAP8 SWAP4 SWAP7 SWAP3 SWAP6 SWAP5 POP POP POP JUMP JUMPDEST DUP2 DUP4 DUP3 CALLDATACOPY PUSH1 0x0 SWAP2 ADD SWAP1 DUP2 MSTORE SWAP2 SWAP1 POP JUMP JUMPDEST PUSH1 0x0 PUSH1 0x20 DUP3 DUP5 SUB SLT ISZERO PUSH2 0xDF2 JUMPI PUSH1 0x0 DUP1 REVERT JUMPDEST POP MLOAD SWAP2 SWAP1 POP JUMP JUMPDEST DUP4 DUP2 MSTORE PUSH1 0x40 PUSH1 0x20 DUP3 ADD MSTORE DUP2 PUSH1 0x40 DUP3 ADD MSTORE DUP2 DUP4 PUSH1 0x60 DUP4 ADD CALLDATACOPY PUSH1 0x0 DUP2 DUP4 ADD PUSH1 0x60 SWAP1 DUP2 ADD SWAP2 SWAP1 SWAP2 MSTORE PUSH1 0x1F SWAP1 SWAP3 ADD PUSH1 0x1F NOT AND ADD ADD SWAP3 SWAP2 POP POP JUMP JUMPDEST PUSH1 0x0 PUSH2 0xFFFF DUP1 DUP4 AND DUP2 DUP2 SUB PUSH2 0xE54 JUMPI PUSH4 0x4E487B71 PUSH1 0xE0 SHL PUSH1 0x0 MSTORE PUSH1 0x11 PUSH1 0x4 MSTORE PUSH1 0x24 PUSH1 0x0 REVERT JUMPDEST PUSH1 0x1 ADD SWAP4 SWAP3 POP POP POP JUMP INVALID LOG2 PUSH5 0x6970667358 0x22 SLT KECCAK256 0x4E 0xB4 ADDMOD PUSH5 0x7611622D18 SWAP7 0x2A EXTCODEHASH GT 0x2B 0xDC PUSH22 0xB1FFB048B0C7FBE827DB7108EB1F150564736F6C6343 STOP ADDMOD XOR STOP CALLER "},"methodIdentifiers":{"TYPE_AGENT_CARD()":"a23ccd51","TYPE_MODEL_CARD()":"eb069a8a","TYPE_PROMPT()":"c98a5fe1","TYPE_RAW()":"d3d6e82e","TYPE_TOOL_SPEC()":"b2b5c819","TYPE_TRAINING()":"094c890f","TYPE_WORKFLOW()":"99bdd636","author(bytes32)":"af1f8cbb","blockNumber(bytes32)":"ed1d2887","deprecate(bytes32,bytes32)":"38bc7435","exists(bytes32)":"38a699a4","getChunkStatus(bytes32)":"120a2c3d","getResource(bytes32)":"b4d6af8a","inscribe(bytes32,uint8,string,bytes)":"75c88124","inscribeChunk(bytes32,uint16,uint16,uint8,string,bytes)":"f33e54e3","isDeprecated(bytes32)":"0de4d5c0","pendingChunks(bytes32)":"34132db6","supersededBy(bytes32)":"1ceb83e9"}}}}}