{
  "_format": "hh-sol-artifact-1",
  "contractName": "ISNADOracle",
  "sourceName": "contracts/ISNADOracle.sol",
  "abi": [
    {
      "inputs": [
        {
          "internalType": "address",
          "name": "_stakingContract",
          "type": "address"
        }
      ],
      "stateMutability": "nonpayable",
      "type": "constructor"
    },
    {
      "inputs": [],
      "name": "AccessControlBadConfirmation",
      "type": "error"
    },
    {
      "inputs": [
        {
          "internalType": "address",
          "name": "account",
          "type": "address"
        },
        {
          "internalType": "bytes32",
          "name": "neededRole",
          "type": "bytes32"
        }
      ],
      "name": "AccessControlUnauthorizedAccount",
      "type": "error"
    },
    {
      "inputs": [],
      "name": "ReentrancyGuardReentrantCall",
      "type": "error"
    },
    {
      "anonymous": false,
      "inputs": [
        {
          "indexed": true,
          "internalType": "bytes32",
          "name": "flagId",
          "type": "bytes32"
        },
        {
          "indexed": true,
          "internalType": "address",
          "name": "appellant",
          "type": "address"
        },
        {
          "indexed": false,
          "internalType": "uint256",
          "name": "deposit",
          "type": "uint256"
        }
      ],
      "name": "FlagAppealed",
      "type": "event"
    },
    {
      "anonymous": false,
      "inputs": [
        {
          "indexed": true,
          "internalType": "bytes32",
          "name": "flagId",
          "type": "bytes32"
        },
        {
          "indexed": true,
          "internalType": "address",
          "name": "juror",
          "type": "address"
        },
        {
          "indexed": false,
          "internalType": "bool",
          "name": "guilty",
          "type": "bool"
        }
      ],
      "name": "JurorVoted",
      "type": "event"
    },
    {
      "anonymous": false,
      "inputs": [
        {
          "indexed": true,
          "internalType": "bytes32",
          "name": "flagId",
          "type": "bytes32"
        },
        {
          "indexed": false,
          "internalType": "address[]",
          "name": "jurors",
          "type": "address[]"
        }
      ],
      "name": "JurySelected",
      "type": "event"
    },
    {
      "anonymous": false,
      "inputs": [
        {
          "indexed": true,
          "internalType": "address",
          "name": "account",
          "type": "address"
        },
        {
          "indexed": false,
          "internalType": "uint256",
          "name": "until",
          "type": "uint256"
        }
      ],
      "name": "Paused",
      "type": "event"
    },
    {
      "anonymous": false,
      "inputs": [
        {
          "indexed": true,
          "internalType": "bytes32",
          "name": "flagId",
          "type": "bytes32"
        },
        {
          "indexed": true,
          "internalType": "bytes32",
          "name": "resourceHash",
          "type": "bytes32"
        },
        {
          "indexed": true,
          "internalType": "address",
          "name": "flagger",
          "type": "address"
        },
        {
          "indexed": false,
          "internalType": "uint256",
          "name": "deposit",
          "type": "uint256"
        },
        {
          "indexed": false,
          "internalType": "bytes32",
          "name": "evidenceHash",
          "type": "bytes32"
        }
      ],
      "name": "ResourceFlagged",
      "type": "event"
    },
    {
      "anonymous": false,
      "inputs": [
        {
          "indexed": true,
          "internalType": "bytes32",
          "name": "role",
          "type": "bytes32"
        },
        {
          "indexed": true,
          "internalType": "bytes32",
          "name": "previousAdminRole",
          "type": "bytes32"
        },
        {
          "indexed": true,
          "internalType": "bytes32",
          "name": "newAdminRole",
          "type": "bytes32"
        }
      ],
      "name": "RoleAdminChanged",
      "type": "event"
    },
    {
      "anonymous": false,
      "inputs": [
        {
          "indexed": true,
          "internalType": "bytes32",
          "name": "role",
          "type": "bytes32"
        },
        {
          "indexed": true,
          "internalType": "address",
          "name": "account",
          "type": "address"
        },
        {
          "indexed": true,
          "internalType": "address",
          "name": "sender",
          "type": "address"
        }
      ],
      "name": "RoleGranted",
      "type": "event"
    },
    {
      "anonymous": false,
      "inputs": [
        {
          "indexed": true,
          "internalType": "bytes32",
          "name": "role",
          "type": "bytes32"
        },
        {
          "indexed": true,
          "internalType": "address",
          "name": "account",
          "type": "address"
        },
        {
          "indexed": true,
          "internalType": "address",
          "name": "sender",
          "type": "address"
        }
      ],
      "name": "RoleRevoked",
      "type": "event"
    },
    {
      "anonymous": false,
      "inputs": [
        {
          "indexed": true,
          "internalType": "bytes32",
          "name": "resourceHash",
          "type": "bytes32"
        },
        {
          "indexed": false,
          "internalType": "uint256",
          "name": "totalSlashed",
          "type": "uint256"
        }
      ],
      "name": "SlashExecuted",
      "type": "event"
    },
    {
      "anonymous": false,
      "inputs": [
        {
          "indexed": true,
          "internalType": "address",
          "name": "account",
          "type": "address"
        }
      ],
      "name": "Unpaused",
      "type": "event"
    },
    {
      "anonymous": false,
      "inputs": [
        {
          "indexed": true,
          "internalType": "bytes32",
          "name": "flagId",
          "type": "bytes32"
        },
        {
          "indexed": true,
          "internalType": "bytes32",
          "name": "resourceHash",
          "type": "bytes32"
        },
        {
          "indexed": false,
          "internalType": "enum ISNADOracle.FlagStatus",
          "name": "verdict",
          "type": "uint8"
        },
        {
          "indexed": false,
          "internalType": "uint256",
          "name": "guiltyVotes",
          "type": "uint256"
        },
        {
          "indexed": false,
          "internalType": "uint256",
          "name": "totalVotes",
          "type": "uint256"
        }
      ],
      "name": "VerdictReached",
      "type": "event"
    },
    {
      "inputs": [],
      "name": "ADMIN_ROLE",
      "outputs": [
        {
          "internalType": "bytes32",
          "name": "",
          "type": "bytes32"
        }
      ],
      "stateMutability": "view",
      "type": "function"
    },
    {
      "inputs": [],
      "name": "COMMIT_BLOCKS",
      "outputs": [
        {
          "internalType": "uint256",
          "name": "",
          "type": "uint256"
        }
      ],
      "stateMutability": "view",
      "type": "function"
    },
    {
      "inputs": [],
      "name": "DEFAULT_ADMIN_ROLE",
      "outputs": [
        {
          "internalType": "bytes32",
          "name": "",
          "type": "bytes32"
        }
      ],
      "stateMutability": "view",
      "type": "function"
    },
    {
      "inputs": [],
      "name": "MAX_PAUSE_DURATION",
      "outputs": [
        {
          "internalType": "uint256",
          "name": "",
          "type": "uint256"
        }
      ],
      "stateMutability": "view",
      "type": "function"
    },
    {
      "inputs": [],
      "name": "PAUSER_ROLE",
      "outputs": [
        {
          "internalType": "bytes32",
          "name": "",
          "type": "bytes32"
        }
      ],
      "stateMutability": "view",
      "type": "function"
    },
    {
      "inputs": [
        {
          "internalType": "bytes32",
          "name": "",
          "type": "bytes32"
        }
      ],
      "name": "activeFlag",
      "outputs": [
        {
          "internalType": "bytes32",
          "name": "",
          "type": "bytes32"
        }
      ],
      "stateMutability": "view",
      "type": "function"
    },
    {
      "inputs": [
        {
          "internalType": "address",
          "name": "jurorAddress",
          "type": "address"
        }
      ],
      "name": "addToJurorPool",
      "outputs": [],
      "stateMutability": "nonpayable",
      "type": "function"
    },
    {
      "inputs": [
        {
          "internalType": "bytes32",
          "name": "flagId",
          "type": "bytes32"
        }
      ],
      "name": "appeal",
      "outputs": [],
      "stateMutability": "payable",
      "type": "function"
    },
    {
      "inputs": [],
      "name": "appealMultiplier",
      "outputs": [
        {
          "internalType": "uint256",
          "name": "",
          "type": "uint256"
        }
      ],
      "stateMutability": "view",
      "type": "function"
    },
    {
      "inputs": [
        {
          "internalType": "address[]",
          "name": "addresses",
          "type": "address[]"
        }
      ],
      "name": "batchAddToJurorPool",
      "outputs": [],
      "stateMutability": "nonpayable",
      "type": "function"
    },
    {
      "inputs": [
        {
          "internalType": "bytes32",
          "name": "resourceHash",
          "type": "bytes32"
        }
      ],
      "name": "executeSlash",
      "outputs": [
        {
          "internalType": "bool",
          "name": "",
          "type": "bool"
        }
      ],
      "stateMutability": "nonpayable",
      "type": "function"
    },
    {
      "inputs": [
        {
          "internalType": "bytes32",
          "name": "flagId",
          "type": "bytes32"
        }
      ],
      "name": "finalizeVerdict",
      "outputs": [],
      "stateMutability": "nonpayable",
      "type": "function"
    },
    {
      "inputs": [
        {
          "internalType": "bytes32",
          "name": "resourceHash",
          "type": "bytes32"
        },
        {
          "internalType": "bytes32",
          "name": "evidenceHash",
          "type": "bytes32"
        }
      ],
      "name": "flagResource",
      "outputs": [
        {
          "internalType": "bytes32",
          "name": "flagId",
          "type": "bytes32"
        }
      ],
      "stateMutability": "payable",
      "type": "function"
    },
    {
      "inputs": [
        {
          "internalType": "bytes32",
          "name": "",
          "type": "bytes32"
        }
      ],
      "name": "flags",
      "outputs": [
        {
          "internalType": "bytes32",
          "name": "resourceHash",
          "type": "bytes32"
        },
        {
          "internalType": "address",
          "name": "flagger",
          "type": "address"
        },
        {
          "internalType": "uint256",
          "name": "deposit",
          "type": "uint256"
        },
        {
          "internalType": "bytes32",
          "name": "evidenceHash",
          "type": "bytes32"
        },
        {
          "internalType": "enum ISNADOracle.FlagStatus",
          "name": "status",
          "type": "uint8"
        },
        {
          "internalType": "uint256",
          "name": "createdAt",
          "type": "uint256"
        },
        {
          "internalType": "uint256",
          "name": "commitBlock",
          "type": "uint256"
        },
        {
          "internalType": "uint256",
          "name": "juryDeadline",
          "type": "uint256"
        },
        {
          "internalType": "uint256",
          "name": "voteCount",
          "type": "uint256"
        },
        {
          "internalType": "uint256",
          "name": "guiltyVotes",
          "type": "uint256"
        }
      ],
      "stateMutability": "view",
      "type": "function"
    },
    {
      "inputs": [
        {
          "internalType": "bytes32",
          "name": "flagId",
          "type": "bytes32"
        }
      ],
      "name": "getFlag",
      "outputs": [
        {
          "components": [
            {
              "internalType": "bytes32",
              "name": "resourceHash",
              "type": "bytes32"
            },
            {
              "internalType": "address",
              "name": "flagger",
              "type": "address"
            },
            {
              "internalType": "uint256",
              "name": "deposit",
              "type": "uint256"
            },
            {
              "internalType": "bytes32",
              "name": "evidenceHash",
              "type": "bytes32"
            },
            {
              "internalType": "enum ISNADOracle.FlagStatus",
              "name": "status",
              "type": "uint8"
            },
            {
              "internalType": "uint256",
              "name": "createdAt",
              "type": "uint256"
            },
            {
              "internalType": "uint256",
              "name": "commitBlock",
              "type": "uint256"
            },
            {
              "internalType": "uint256",
              "name": "juryDeadline",
              "type": "uint256"
            },
            {
              "internalType": "uint256",
              "name": "voteCount",
              "type": "uint256"
            },
            {
              "internalType": "uint256",
              "name": "guiltyVotes",
              "type": "uint256"
            }
          ],
          "internalType": "struct ISNADOracle.Flag",
          "name": "",
          "type": "tuple"
        }
      ],
      "stateMutability": "view",
      "type": "function"
    },
    {
      "inputs": [],
      "name": "getJurorPoolSize",
      "outputs": [
        {
          "internalType": "uint256",
          "name": "",
          "type": "uint256"
        }
      ],
      "stateMutability": "view",
      "type": "function"
    },
    {
      "inputs": [
        {
          "internalType": "bytes32",
          "name": "flagId",
          "type": "bytes32"
        }
      ],
      "name": "getJury",
      "outputs": [
        {
          "internalType": "address[]",
          "name": "",
          "type": "address[]"
        }
      ],
      "stateMutability": "view",
      "type": "function"
    },
    {
      "inputs": [
        {
          "internalType": "bytes32",
          "name": "role",
          "type": "bytes32"
        }
      ],
      "name": "getRoleAdmin",
      "outputs": [
        {
          "internalType": "bytes32",
          "name": "",
          "type": "bytes32"
        }
      ],
      "stateMutability": "view",
      "type": "function"
    },
    {
      "inputs": [
        {
          "internalType": "bytes32",
          "name": "role",
          "type": "bytes32"
        },
        {
          "internalType": "address",
          "name": "account",
          "type": "address"
        }
      ],
      "name": "grantRole",
      "outputs": [],
      "stateMutability": "nonpayable",
      "type": "function"
    },
    {
      "inputs": [
        {
          "internalType": "bytes32",
          "name": "role",
          "type": "bytes32"
        },
        {
          "internalType": "address",
          "name": "account",
          "type": "address"
        }
      ],
      "name": "hasRole",
      "outputs": [
        {
          "internalType": "bool",
          "name": "",
          "type": "bool"
        }
      ],
      "stateMutability": "view",
      "type": "function"
    },
    {
      "inputs": [
        {
          "internalType": "bytes32",
          "name": "flagId",
          "type": "bytes32"
        },
        {
          "internalType": "address",
          "name": "addr",
          "type": "address"
        }
      ],
      "name": "hasVoted",
      "outputs": [
        {
          "internalType": "bool",
          "name": "",
          "type": "bool"
        }
      ],
      "stateMutability": "view",
      "type": "function"
    },
    {
      "inputs": [
        {
          "internalType": "address",
          "name": "",
          "type": "address"
        }
      ],
      "name": "isInJurorPool",
      "outputs": [
        {
          "internalType": "bool",
          "name": "",
          "type": "bool"
        }
      ],
      "stateMutability": "view",
      "type": "function"
    },
    {
      "inputs": [
        {
          "internalType": "bytes32",
          "name": "flagId",
          "type": "bytes32"
        },
        {
          "internalType": "address",
          "name": "addr",
          "type": "address"
        }
      ],
      "name": "isJuror",
      "outputs": [
        {
          "internalType": "bool",
          "name": "",
          "type": "bool"
        }
      ],
      "stateMutability": "view",
      "type": "function"
    },
    {
      "inputs": [
        {
          "internalType": "uint256",
          "name": "",
          "type": "uint256"
        }
      ],
      "name": "jurorPool",
      "outputs": [
        {
          "internalType": "address",
          "name": "",
          "type": "address"
        }
      ],
      "stateMutability": "view",
      "type": "function"
    },
    {
      "inputs": [
        {
          "internalType": "bytes32",
          "name": "",
          "type": "bytes32"
        },
        {
          "internalType": "address",
          "name": "",
          "type": "address"
        }
      ],
      "name": "jurors",
      "outputs": [
        {
          "internalType": "bool",
          "name": "selected",
          "type": "bool"
        },
        {
          "internalType": "bool",
          "name": "voted",
          "type": "bool"
        },
        {
          "internalType": "bool",
          "name": "votedGuilty",
          "type": "bool"
        }
      ],
      "stateMutability": "view",
      "type": "function"
    },
    {
      "inputs": [
        {
          "internalType": "bytes32",
          "name": "",
          "type": "bytes32"
        },
        {
          "internalType": "uint256",
          "name": "",
          "type": "uint256"
        }
      ],
      "name": "juryList",
      "outputs": [
        {
          "internalType": "address",
          "name": "",
          "type": "address"
        }
      ],
      "stateMutability": "view",
      "type": "function"
    },
    {
      "inputs": [],
      "name": "jurySize",
      "outputs": [
        {
          "internalType": "uint256",
          "name": "",
          "type": "uint256"
        }
      ],
      "stateMutability": "view",
      "type": "function"
    },
    {
      "inputs": [],
      "name": "minFlagDeposit",
      "outputs": [
        {
          "internalType": "uint256",
          "name": "",
          "type": "uint256"
        }
      ],
      "stateMutability": "view",
      "type": "function"
    },
    {
      "inputs": [
        {
          "internalType": "uint256",
          "name": "duration",
          "type": "uint256"
        }
      ],
      "name": "pause",
      "outputs": [],
      "stateMutability": "nonpayable",
      "type": "function"
    },
    {
      "inputs": [],
      "name": "paused",
      "outputs": [
        {
          "internalType": "bool",
          "name": "",
          "type": "bool"
        }
      ],
      "stateMutability": "view",
      "type": "function"
    },
    {
      "inputs": [],
      "name": "pausedUntil",
      "outputs": [
        {
          "internalType": "uint256",
          "name": "",
          "type": "uint256"
        }
      ],
      "stateMutability": "view",
      "type": "function"
    },
    {
      "inputs": [
        {
          "internalType": "bytes32",
          "name": "role",
          "type": "bytes32"
        },
        {
          "internalType": "address",
          "name": "callerConfirmation",
          "type": "address"
        }
      ],
      "name": "renounceRole",
      "outputs": [],
      "stateMutability": "nonpayable",
      "type": "function"
    },
    {
      "inputs": [
        {
          "internalType": "bytes32",
          "name": "role",
          "type": "bytes32"
        },
        {
          "internalType": "address",
          "name": "account",
          "type": "address"
        }
      ],
      "name": "revokeRole",
      "outputs": [],
      "stateMutability": "nonpayable",
      "type": "function"
    },
    {
      "inputs": [
        {
          "internalType": "bytes32",
          "name": "flagId",
          "type": "bytes32"
        }
      ],
      "name": "selectJury",
      "outputs": [],
      "stateMutability": "nonpayable",
      "type": "function"
    },
    {
      "inputs": [
        {
          "internalType": "uint256",
          "name": "_jurySize",
          "type": "uint256"
        }
      ],
      "name": "setJurySize",
      "outputs": [],
      "stateMutability": "nonpayable",
      "type": "function"
    },
    {
      "inputs": [
        {
          "internalType": "uint256",
          "name": "_minDeposit",
          "type": "uint256"
        }
      ],
      "name": "setMinFlagDeposit",
      "outputs": [],
      "stateMutability": "nonpayable",
      "type": "function"
    },
    {
      "inputs": [
        {
          "internalType": "address",
          "name": "_stakingContract",
          "type": "address"
        }
      ],
      "name": "setStakingContract",
      "outputs": [],
      "stateMutability": "nonpayable",
      "type": "function"
    },
    {
      "inputs": [
        {
          "internalType": "uint256",
          "name": "_votingPeriod",
          "type": "uint256"
        }
      ],
      "name": "setVotingPeriod",
      "outputs": [],
      "stateMutability": "nonpayable",
      "type": "function"
    },
    {
      "inputs": [],
      "name": "stakingContract",
      "outputs": [
        {
          "internalType": "address",
          "name": "",
          "type": "address"
        }
      ],
      "stateMutability": "view",
      "type": "function"
    },
    {
      "inputs": [],
      "name": "supermajorityBps",
      "outputs": [
        {
          "internalType": "uint256",
          "name": "",
          "type": "uint256"
        }
      ],
      "stateMutability": "view",
      "type": "function"
    },
    {
      "inputs": [
        {
          "internalType": "bytes4",
          "name": "interfaceId",
          "type": "bytes4"
        }
      ],
      "name": "supportsInterface",
      "outputs": [
        {
          "internalType": "bool",
          "name": "",
          "type": "bool"
        }
      ],
      "stateMutability": "view",
      "type": "function"
    },
    {
      "inputs": [],
      "name": "unpause",
      "outputs": [],
      "stateMutability": "nonpayable",
      "type": "function"
    },
    {
      "inputs": [
        {
          "internalType": "bytes32",
          "name": "flagId",
          "type": "bytes32"
        },
        {
          "internalType": "bool",
          "name": "guilty",
          "type": "bool"
        }
      ],
      "name": "vote",
      "outputs": [],
      "stateMutability": "nonpayable",
      "type": "function"
    },
    {
      "inputs": [],
      "name": "votingPeriod",
      "outputs": [
        {
          "internalType": "uint256",
          "name": "",
          "type": "uint256"
        }
      ],
      "stateMutability": "view",
      "type": "function"
    }
  ],
  "bytecode": "0x608060405268056bc75e2d631000006004556005805562093a80600655611a0b600755600260085534801562000033575f80fd5b5060405162002809380380620028098339810160408190526200005691620001ef565b60016002556001600160a01b038116620000b65760405162461bcd60e51b815260206004820152601860248201527f496e76616c6964207374616b696e6720636f6e74726163740000000000000000604482015260640160405180910390fd5b620000c25f3362000143565b50620000ef7fa49807205ce4d355092ef5a8a18f56e8913cf4a201fbe287825b095693c217753362000143565b506200011c7f65d7a28e3265b37a6474929f336521b332c1681b933f6cb9f3376673440d862a3362000143565b50600380546001600160a01b0319166001600160a01b03929092169190911790556200021e565b5f828152602081815260408083206001600160a01b038516845290915281205460ff16620001e6575f838152602081815260408083206001600160a01b03861684529091529020805460ff191660011790556200019d3390565b6001600160a01b0316826001600160a01b0316847f2f8788117e7eff1d82e926ec794901d17c78024a50270940304540a733656f0d60405160405180910390a4506001620001e9565b505f5b92915050565b5f6020828403121562000200575f80fd5b81516001600160a01b038116811462000217575f80fd5b9392505050565b6125dd806200022c5f395ff3fe60806040526004361061025f575f3560e01c806391d148541161013f578063da748b10116100b3578063eb80b2ef11610078578063eb80b2ef14610816578063ece1de441461082b578063ee99205c1461083e578063f4732d051461085d578063f57809e61461087c578063f643d3d7146108a7575f80fd5b8063da748b1014610764578063e4a3d78414610779578063e63ab1e9146107a5578063e785ef0e146107d8578063ea0217cf146107f7575f80fd5b8063b705092011610104578063b7050920146106aa578063b850cdf7146106c9578063b8fad24e146106e8578063bc6675f914610707578063d15c11c814610726578063d547741f14610745575f80fd5b806391d14854146105f15780639dd373b9146106105780639f2ce6781461062f578063a217fddf1461064e578063aadc3b7214610661575f80fd5b80632eecb0c8116101d657806351af8a221161019b57806351af8a2214610539578063536c8c151461057d5780635c975abb146105925780635eef3da2146105a857806362aaa876146105bd57806375b238fc146105d1575f80fd5b80632eecb0c81461048d5780632f2ff15d146104bb57806336568abe146104da5780633f4ba83a146104f957806346b3c3c31461050d575f80fd5b8063136439dd11610227578063136439dd1461037157806319b410dd146103925780631e44b1a7146103a6578063248a9ca3146103b957806324d0b041146103e75780632799657d14610477575f80fd5b806301ffc9a71461026357806302a251a31461029757806305b9a25f146102ba5780630a2653d1146102f1578063128203c61461035c575b5f80fd5b34801561026e575f80fd5b5061028261027d3660046121a9565b6108c6565b60405190151581526020015b60405180910390f35b3480156102a2575f80fd5b506102ac60065481565b60405190815260200161028e565b3480156102c5575f80fd5b506102d96102d43660046121d7565b6108fc565b6040516001600160a01b03909116815260200161028e565b3480156102fc575f80fd5b5061033d61030b36600461220d565b600a60209081525f928352604080842090915290825290205460ff808216916101008104821691620100009091041683565b604080519315158452911515602084015215159082015260600161028e565b348015610367575f80fd5b506102ac60085481565b34801561037c575f80fd5b5061039061038b366004612237565b610930565b005b34801561039d575f80fd5b506102ac600581565b6102ac6103b43660046121d7565b6109f8565b3480156103c4575f80fd5b506102ac6103d3366004612237565b5f9081526020819052604090206001015490565b3480156103f2575f80fd5b50610461610401366004612237565b600960208190525f9182526040909120805460018201546002830154600384015460048501546005860154600687015460078801546008890154989099015496986001600160a01b03909616979496939560ff909316949193909291908a565b60405161028e9a99989796959493929190612282565b348015610482575f80fd5b506102ac62093a8081565b348015610498575f80fd5b506102826104a73660046122e2565b600e6020525f908152604090205460ff1681565b3480156104c6575f80fd5b506103906104d536600461220d565b610c8a565b3480156104e5575f80fd5b506103906104f436600461220d565b610cb4565b348015610504575f80fd5b50610390610cec565b348015610518575f80fd5b5061052c610527366004612237565b610d85565b60405161028e91906122fb565b348015610544575f80fd5b5061028261055336600461220d565b5f918252600a602090815260408084206001600160a01b0393909316845291905290205460ff1690565b348015610588575f80fd5b506102ac60055481565b34801561059d575f80fd5b506001544210610282565b3480156105b3575f80fd5b506102ac60075481565b3480156105c8575f80fd5b50600d546102ac565b3480156105dc575f80fd5b506102ac5f8051602061258883398151915281565b3480156105fc575f80fd5b5061028261060b36600461220d565b610dee565b34801561061b575f80fd5b5061039061062a3660046122e2565b610e16565b34801561063a575f80fd5b50610390610649366004612347565b610ea6565b348015610659575f80fd5b506102ac5f81565b34801561066c575f80fd5b5061028261067b36600461220d565b5f918252600a602090815260408084206001600160a01b03939093168452919052902054610100900460ff1690565b3480156106b5575f80fd5b506103906106c4366004612237565b6110e5565b3480156106d4575f80fd5b506102826106e3366004612237565b611102565b3480156106f3575f80fd5b50610390610702366004612237565b611293565b348015610712575f80fd5b506103906107213660046122e2565b61130b565b348015610731575f80fd5b50610390610740366004612237565b6113e3565b348015610750575f80fd5b5061039061075f36600461220d565b611498565b34801561076f575f80fd5b506102ac60015481565b348015610784575f80fd5b50610798610793366004612237565b6114bc565b60405161028e9190612379565b3480156107b0575f80fd5b506102ac7f65d7a28e3265b37a6474929f336521b332c1681b933f6cb9f3376673440d862a81565b3480156107e3575f80fd5b506103906107f2366004612401565b6115c3565b348015610802575f80fd5b50610390610811366004612237565b6116e5565b348015610821575f80fd5b506102ac60045481565b610390610839366004612237565b611748565b348015610849575f80fd5b506003546102d9906001600160a01b031681565b348015610868575f80fd5b50610390610877366004612237565b61193c565b348015610887575f80fd5b506102ac610896366004612237565b600c6020525f908152604090205481565b3480156108b2575f80fd5b506102d96108c1366004612237565b611ab8565b5f6001600160e01b03198216637965db0b60e01b14806108f657506301ffc9a760e01b6001600160e01b03198316145b92915050565b600b602052815f5260405f208181548110610915575f80fd5b5f918252602090912001546001600160a01b03169150829050565b7f65d7a28e3265b37a6474929f336521b332c1681b933f6cb9f3376673440d862a61095a81611ae0565b5f8211801561096c575062093a808211155b6109b05760405162461bcd60e51b815260206004820152601060248201526f24b73b30b634b210323ab930ba34b7b760811b60448201526064015b60405180910390fd5b6109ba8242612484565b600181905560405190815233907fab40a374bc51de372200a8bc981af8c9ecdc08dfdaef0bb6e09f88f3c616ef3d9060200160405180910390a25050565b5f610a01611aea565b600154421015610a485760405162461bcd60e51b815260206004820152601260248201527110dbdb9d1c9858dd081a5cc81c185d5cd95960721b60448201526064016109a7565b600454341015610a915760405162461bcd60e51b8152602060048201526014602482015273125b9cdd59999a58da595b9d0819195c1bdcda5d60621b60448201526064016109a7565b5f838152600c602052604090205415610aec5760405162461bcd60e51b815260206004820152601860248201527f5265736f7572636520616c726561647920666c6167676564000000000000000060448201526064016109a7565b5060408051602080820185905233606081901b6bffffffffffffffffffffffff191683850152426054808501919091528451808503909101815260748401808652815191909301206101b4840190945285825260948301523460b483015260d482018490529060f4015f8152426020820152604001610b6c600543612484565b81525f60208083018290526040808401839052606093840183905285835260098252918290208451815590840151600180830180546001600160a01b0319166001600160a01b039093169290921790915591840151600282015591830151600383015560808301516004830180549192909160ff191690836005811115610bf557610bf561224e565b021790555060a0820151600582015560c0820151600682015560e082015160078201556101008201516008820155610120909101516009909101555f838152600c602090815260409182902083905581513481529081018490523391859184917fc92edb8fb4bac81c1756962b16bba68657b07e9a6c6e852b9a63550fdc27c1bb910160405180910390a46108f66001600255565b5f82815260208190526040902060010154610ca481611ae0565b610cae8383611b12565b50505050565b6001600160a01b0381163314610cdd5760405163334bd91960e11b815260040160405180910390fd5b610ce78282611ba1565b505050565b7f65d7a28e3265b37a6474929f336521b332c1681b933f6cb9f3376673440d862a610d1681611ae0565b6001544210610d545760405162461bcd60e51b815260206004820152600a602482015269139bdd081c185d5cd95960b21b60448201526064016109a7565b5f600181905560405133917f5db9ee0a495bf2e6ff9c91a7834c1ba4fdd244a5e8aa4e537bd38aeae4b073aa91a250565b5f818152600b6020908152604091829020805483518184028101840190945280845260609392830182828015610de257602002820191905f5260205f20905b81546001600160a01b03168152600190910190602001808311610dc4575b50505050509050919050565b5f918252602082815260408084206001600160a01b0393909316845291905290205460ff1690565b5f80516020612588833981519152610e2d81611ae0565b6001600160a01b038216610e835760405162461bcd60e51b815260206004820152601860248201527f496e76616c6964207374616b696e6720636f6e7472616374000000000000000060448201526064016109a7565b50600380546001600160a01b0319166001600160a01b0392909216919091179055565b610eae611aea565b600154421015610ef55760405162461bcd60e51b815260206004820152601260248201527110dbdb9d1c9858dd081a5cc81c185d5cd95960721b60448201526064016109a7565b5f8281526009602052604090206001600482015460ff166005811115610f1d57610f1d61224e565b14610f5a5760405162461bcd60e51b815260206004820152600d60248201526c4e6f7420696e2072657669657760981b60448201526064016109a7565b80600701544210610f9c5760405162461bcd60e51b815260206004820152600c60248201526b159bdd1a5b99c8195b99195960a21b60448201526064016109a7565b5f838152600a602090815260408083203384529091529020805460ff16610ff35760405162461bcd60e51b815260206004820152600b60248201526a2737ba103090353ab937b960a91b60448201526064016109a7565b8054610100900460ff161561103a5760405162461bcd60e51b815260206004820152600d60248201526c105b1c9958591e481d9bdd1959609a1b60448201526064016109a7565b8054831515620100000262ffff001990911617610100178155600882018054905f61106483612497565b9190505550821561108657600982018054905f61108083612497565b91905055505b6040518315158152339085907ff2ee66cb5fb317984a735afce8f490e33d93334d63262bac9728cb9fec4038a59060200160405180910390a36005548260080154036110d5576110d584611c0a565b50506110e16001600255565b5050565b5f805160206125888339815191526110fc81611ae0565b50600455565b5f61110b611aea565b5f828152600c6020526040902054806111575760405162461bcd60e51b815260206004820152600e60248201526d4e6f2061637469766520666c616760901b60448201526064016109a7565b5f8181526009602052604090206002600482015460ff16600581111561117f5761117f61224e565b146111b95760405162461bcd60e51b815260206004820152600a6024820152694e6f74206775696c747960b01b60448201526064016109a7565b5f848152600c60205260408082208290556001830154600284015491516001600160a01b0390911691908381818185875af1925050503d805f8114611219576040519150601f19603f3d011682016040523d82523d5f602084013e61121e565b606091505b505090508061123f5760405162461bcd60e51b81526004016109a7906124af565b847f3c6d365db6255bc86eb46a819f3b6ded3bc0d34ebffbf0e688587ee50a36de35836002015460405161127591815260200190565b60405180910390a26001935050505061128e6001600255565b919050565b5f805160206125888339815191526112aa81611ae0565b600382101580156112c557506112c16002836124f0565b6001145b6113055760405162461bcd60e51b8152602060048201526011602482015270496e76616c6964206a7572792073697a6560781b60448201526064016109a7565b50600555565b5f8051602061258883398151915261132281611ae0565b6001600160a01b0382165f908152600e602052604090205460ff161561137c5760405162461bcd60e51b815260206004820152600f60248201526e105b1c9958591e481a5b881c1bdbdb608a1b60448201526064016109a7565b50600d805460018181019092557fd7b6990105719101dabeb77144f2a3385c8033acd3af97e9423a695e81ad1eb50180546001600160a01b039093166001600160a01b0319909316831790555f918252600e6020526040909120805460ff19169091179055565b5f8181526009602052604090206001600482015460ff16600581111561140b5761140b61224e565b146114485760405162461bcd60e51b815260206004820152600d60248201526c4e6f7420696e2072657669657760981b60448201526064016109a7565b806007015442101561148f5760405162461bcd60e51b815260206004820152601060248201526f159bdd1a5b99c81b9bdd08195b99195960821b60448201526064016109a7565b6110e182611c0a565b5f828152602081905260409020600101546114b281611ae0565b610cae8383611ba1565b61150c60408051610140810182525f808252602082018190529181018290526060810182905290608082019081526020015f81526020015f81526020015f81526020015f81526020015f81525090565b5f828152600960209081526040918290208251610140810184528154815260018201546001600160a01b031692810192909252600281015492820192909252600382015460608201526004820154909190608083019060ff1660058111156115765761157661224e565b60058111156115875761158761224e565b81526005820154602082015260068201546040820152600782015460608201526008820154608082015260099091015460a09091015292915050565b5f805160206125888339815191526115da81611ae0565b5f5b82811015610cae57600e5f8585848181106115f9576115f9612503565b905060200201602081019061160e91906122e2565b6001600160a01b0316815260208101919091526040015f205460ff166116dd57600d84848381811061164257611642612503565b905060200201602081019061165791906122e2565b8154600180820184555f9384526020842090910180546001600160a01b0319166001600160a01b03939093169290921790915590600e908686858181106116a0576116a0612503565b90506020020160208101906116b591906122e2565b6001600160a01b0316815260208101919091526040015f20805460ff19169115159190911790555b6001016115dc565b5f805160206125888339815191526116fc81611ae0565b620151808210156117425760405162461bcd60e51b815260206004820152601060248201526f14195c9a5bd9081d1bdbc81cda1bdc9d60821b60448201526064016109a7565b50600655565b611750611aea565b5f8181526009602052604090206002600482015460ff1660058111156117785761177861224e565b148061179c57506003600482015460ff16600581111561179a5761179a61224e565b145b6117d85760405162461bcd60e51b815260206004820152600d60248201526c10d85b9b9bdd08185c1c19585b609a1b60448201526064016109a7565b60078101546117ea906203f480612484565b421061182f5760405162461bcd60e51b8152602060048201526014602482015273105c1c19585b081dda5b991bddc818db1bdcd95960621b60448201526064016109a7565b5f60085482600201546118429190612517565b9050803410156118945760405162461bcd60e51b815260206004820152601b60248201527f496e73756666696369656e742061707065616c206465706f736974000000000060448201526064016109a7565b6004828101805460ff1916600183021790555034826002015f8282546118ba9190612484565b90915550505f6008830181905560098301819055838152600b602052604081206118e39161217b565b604051348152339084907e672bede80ded560cfbd92a0645208424b47e23b9e8e01a245db8a0a6eb71b59060200160405180910390a3600554600d541061192d5761192d83611e2c565b50506119396001600255565b50565b5f81815260096020526040812090600482015460ff1660058111156119635761196361224e565b1461199e5760405162461bcd60e51b815260206004820152600b60248201526a4e6f742070656e64696e6760a81b60448201526064016109a7565b600554600d5410156119f25760405162461bcd60e51b815260206004820152601760248201527f496e73756666696369656e74206a75726f7220706f6f6c00000000000000000060448201526064016109a7565b80600601544311611a4f5760405162461bcd60e51b815260206004820152602160248201527f546f6f206561726c79202d207761697420666f7220636f6d6d697420626c6f636044820152606b60f81b60648201526084016109a7565b6006810154611a6090610100612484565b431115611aaf5760405162461bcd60e51b815260206004820152601c60248201527f546f6f206c617465202d20626c6f636b6861736820657870697265640000000060448201526064016109a7565b6110e182611e2c565b600d8181548110611ac7575f80fd5b5f918252602090912001546001600160a01b0316905081565b6119398133612142565b6002805403611b0c57604051633ee5aeb560e01b815260040160405180910390fd5b60028055565b5f611b1d8383610dee565b611b9a575f838152602081815260408083206001600160a01b03861684529091529020805460ff19166001179055611b523390565b6001600160a01b0316826001600160a01b0316847f2f8788117e7eff1d82e926ec794901d17c78024a50270940304540a733656f0d60405160405180910390a45060016108f6565b505f6108f6565b5f611bac8383610dee565b15611b9a575f838152602081815260408083206001600160a01b0386168085529252808320805460ff1916905551339286917ff6391f5c32d9c69d2a47ea670b442974b53935d1edc7fd64eb21e047a839171b9190a45060016108f6565b5f818152600960205260408120600754600882015491929161271091611c2f91612517565b611c39919061252e565b90505f6127106007548460080154611c519190612517565b611c5b919061252e565b905081836009015410611c7c5760048301805460ff19166002179055611dd4565b8083600901548460080154611c919190612541565b10611d445760048301805460ff1916600317905560028301545f90611cb890600a9061252e565b600185015460028601549192505f916001600160a01b0390911690611cde908490612541565b6040515f81818185875af1925050503d805f8114611d17576040519150601f19603f3d011682016040523d82523d5f602084013e611d1c565b606091505b5050905080611d3d5760405162461bcd60e51b81526004016109a7906124af565b5050611dd4565b60048301805460ff1916600517905560018301546002808501545f926001600160a01b031691611d739161252e565b6040515f81818185875af1925050503d805f8114611dac576040519150601f19603f3d011682016040523d82523d5f602084013e611db1565b606091505b5050905080611dd25760405162461bcd60e51b81526004016109a7906124af565b505b825460048401546009850154600886015460405188937f433aa6e48164df010794e86a1fb8bb3f17f33365871fa621e9fd0dcb5200aba193611e1e9360ff90921692909190612554565b60405180910390a350505050565b5f81815260096020526040902060068101544080611e8c5760405162461bcd60e51b815260206004820152601d60248201527f436f6d6d697420626c6f636b206861736820756e617661696c61626c6500000060448201526064016109a7565b6005820154604080516020810184905290810185905260608101919091525f90608001604051602081830303815290604052805190602001205f1c90505f60055467ffffffffffffffff811115611ee557611ee5612573565b604051908082528060200260200182016040528015611f0e578160200160208202803683370190505b5090505f805f600d805490506003611f269190612517565b90505b60055483108015611f3957508082105b1561201a57600d545f90611f4d8488612484565b611f5791906124f0565b90505f600d8281548110611f6d57611f6d612503565b5f9182526020808320909101548c8352600a825260408084206001600160a01b039092168085529190925291205490915060ff161580156120055781878781518110611fbb57611fbb612503565b6001600160a01b039283166020918202929092018101919091525f8d8152600a8252604080822093861682529290915220805460ff191660011790558561200181612497565b9650505b8461200f81612497565b955050505050611f29565b600554831461206b5760405162461bcd60e51b815260206004820152601e60248201527f436f756c64206e6f742073656c65637420656e6f756768206a75726f7273000060448201526064016109a7565b5f5b6005548110156120dc575f898152600b60205260409020855186908390811061209857612098612503565b6020908102919091018101518254600180820185555f9485529290932090920180546001600160a01b0319166001600160a01b03909316929092179091550161206d565b5060048701805460ff191660011790556006546120f99042612484565b600788015560405188907f7988f9809caf69010681be5043108ecf62ab23c65aca9ca4662aa11980bd5f17906121309087906122fb565b60405180910390a25050505050505050565b61214c8282610dee565b6110e15760405163e2517d3f60e01b81526001600160a01b0382166004820152602481018390526044016109a7565b5080545f8255905f5260205f209081019061193991905b808211156121a5575f8155600101612192565b5090565b5f602082840312156121b9575f80fd5b81356001600160e01b0319811681146121d0575f80fd5b9392505050565b5f80604083850312156121e8575f80fd5b50508035926020909101359150565b80356001600160a01b038116811461128e575f80fd5b5f806040838503121561221e575f80fd5b8235915061222e602084016121f7565b90509250929050565b5f60208284031215612247575f80fd5b5035919050565b634e487b7160e01b5f52602160045260245ffd5b6006811061227e57634e487b7160e01b5f52602160045260245ffd5b9052565b8a81526001600160a01b038a166020820152604081018990526060810188905261014081016122b46080830189612262565b60a082019690965260c081019490945260e08401929092526101008301526101209091015295945050505050565b5f602082840312156122f2575f80fd5b6121d0826121f7565b602080825282518282018190525f9190848201906040850190845b8181101561233b5783516001600160a01b031683529284019291840191600101612316565b50909695505050505050565b5f8060408385031215612358575f80fd5b823591506020830135801515811461236e575f80fd5b809150509250929050565b8151815260208083015161014083019161239d908401826001600160a01b03169052565b50604083015160408301526060830151606083015260808301516123c46080840182612262565b5060a083015160a083015260c083015160c083015260e083015160e083015261010080840151818401525061012080840151818401525092915050565b5f8060208385031215612412575f80fd5b823567ffffffffffffffff80821115612429575f80fd5b818501915085601f83011261243c575f80fd5b81358181111561244a575f80fd5b8660208260051b850101111561245e575f80fd5b60209290920196919550909350505050565b634e487b7160e01b5f52601160045260245ffd5b808201808211156108f6576108f6612470565b5f600182016124a8576124a8612470565b5060010190565b602080825260139082015272115512081d1c985b9cd9995c8819985a5b1959606a1b604082015260600190565b634e487b7160e01b5f52601260045260245ffd5b5f826124fe576124fe6124dc565b500690565b634e487b7160e01b5f52603260045260245ffd5b80820281158282048414176108f6576108f6612470565b5f8261253c5761253c6124dc565b500490565b818103818111156108f6576108f6612470565b606081016125628286612262565b602082019390935260400152919050565b634e487b7160e01b5f52604160045260245ffdfea49807205ce4d355092ef5a8a18f56e8913cf4a201fbe287825b095693c21775a26469706673582212200d36574960d9c895e22769ed5cc39ed2aa2df6c7f2a21c3efc1d6706c204aa2064736f6c63430008180033",
  "linkReferences": {},
  "deployedLinkReferences": {}
}