{
  "_format": "hh-sol-artifact-1",
  "contractName": "ISNADOracle",
  "sourceName": "contracts/ISNADOracle.sol",
  "abi": [
    {
      "inputs": [
        {
          "internalType": "address",
          "name": "_stakingContract",
          "type": "address"
        }
      ],
      "stateMutability": "nonpayable",
      "type": "constructor"
    },
    {
      "inputs": [],
      "name": "AccessControlBadConfirmation",
      "type": "error"
    },
    {
      "inputs": [
        {
          "internalType": "address",
          "name": "account",
          "type": "address"
        },
        {
          "internalType": "bytes32",
          "name": "neededRole",
          "type": "bytes32"
        }
      ],
      "name": "AccessControlUnauthorizedAccount",
      "type": "error"
    },
    {
      "inputs": [],
      "name": "ReentrancyGuardReentrantCall",
      "type": "error"
    },
    {
      "anonymous": false,
      "inputs": [
        {
          "indexed": true,
          "internalType": "bytes32",
          "name": "flagId",
          "type": "bytes32"
        },
        {
          "indexed": true,
          "internalType": "address",
          "name": "appellant",
          "type": "address"
        },
        {
          "indexed": false,
          "internalType": "uint256",
          "name": "deposit",
          "type": "uint256"
        }
      ],
      "name": "FlagAppealed",
      "type": "event"
    },
    {
      "anonymous": false,
      "inputs": [
        {
          "indexed": true,
          "internalType": "bytes32",
          "name": "flagId",
          "type": "bytes32"
        },
        {
          "indexed": true,
          "internalType": "address",
          "name": "juror",
          "type": "address"
        },
        {
          "indexed": false,
          "internalType": "bool",
          "name": "guilty",
          "type": "bool"
        }
      ],
      "name": "JurorVoted",
      "type": "event"
    },
    {
      "anonymous": false,
      "inputs": [
        {
          "indexed": true,
          "internalType": "bytes32",
          "name": "flagId",
          "type": "bytes32"
        },
        {
          "indexed": false,
          "internalType": "address[]",
          "name": "jurors",
          "type": "address[]"
        }
      ],
      "name": "JurySelected",
      "type": "event"
    },
    {
      "anonymous": false,
      "inputs": [
        {
          "indexed": true,
          "internalType": "address",
          "name": "account",
          "type": "address"
        },
        {
          "indexed": false,
          "internalType": "uint256",
          "name": "until",
          "type": "uint256"
        }
      ],
      "name": "Paused",
      "type": "event"
    },
    {
      "anonymous": false,
      "inputs": [
        {
          "indexed": true,
          "internalType": "bytes32",
          "name": "flagId",
          "type": "bytes32"
        },
        {
          "indexed": true,
          "internalType": "bytes32",
          "name": "resourceHash",
          "type": "bytes32"
        },
        {
          "indexed": true,
          "internalType": "address",
          "name": "flagger",
          "type": "address"
        },
        {
          "indexed": false,
          "internalType": "uint256",
          "name": "deposit",
          "type": "uint256"
        },
        {
          "indexed": false,
          "internalType": "bytes32",
          "name": "evidenceHash",
          "type": "bytes32"
        }
      ],
      "name": "ResourceFlagged",
      "type": "event"
    },
    {
      "anonymous": false,
      "inputs": [
        {
          "indexed": true,
          "internalType": "bytes32",
          "name": "role",
          "type": "bytes32"
        },
        {
          "indexed": true,
          "internalType": "bytes32",
          "name": "previousAdminRole",
          "type": "bytes32"
        },
        {
          "indexed": true,
          "internalType": "bytes32",
          "name": "newAdminRole",
          "type": "bytes32"
        }
      ],
      "name": "RoleAdminChanged",
      "type": "event"
    },
    {
      "anonymous": false,
      "inputs": [
        {
          "indexed": true,
          "internalType": "bytes32",
          "name": "role",
          "type": "bytes32"
        },
        {
          "indexed": true,
          "internalType": "address",
          "name": "account",
          "type": "address"
        },
        {
          "indexed": true,
          "internalType": "address",
          "name": "sender",
          "type": "address"
        }
      ],
      "name": "RoleGranted",
      "type": "event"
    },
    {
      "anonymous": false,
      "inputs": [
        {
          "indexed": true,
          "internalType": "bytes32",
          "name": "role",
          "type": "bytes32"
        },
        {
          "indexed": true,
          "internalType": "address",
          "name": "account",
          "type": "address"
        },
        {
          "indexed": true,
          "internalType": "address",
          "name": "sender",
          "type": "address"
        }
      ],
      "name": "RoleRevoked",
      "type": "event"
    },
    {
      "anonymous": false,
      "inputs": [
        {
          "indexed": true,
          "internalType": "bytes32",
          "name": "resourceHash",
          "type": "bytes32"
        },
        {
          "indexed": false,
          "internalType": "uint256",
          "name": "totalSlashed",
          "type": "uint256"
        }
      ],
      "name": "SlashExecuted",
      "type": "event"
    },
    {
      "anonymous": false,
      "inputs": [
        {
          "indexed": true,
          "internalType": "address",
          "name": "account",
          "type": "address"
        }
      ],
      "name": "Unpaused",
      "type": "event"
    },
    {
      "anonymous": false,
      "inputs": [
        {
          "indexed": true,
          "internalType": "bytes32",
          "name": "flagId",
          "type": "bytes32"
        },
        {
          "indexed": true,
          "internalType": "bytes32",
          "name": "resourceHash",
          "type": "bytes32"
        },
        {
          "indexed": false,
          "internalType": "enum ISNADOracle.FlagStatus",
          "name": "verdict",
          "type": "uint8"
        },
        {
          "indexed": false,
          "internalType": "uint256",
          "name": "guiltyVotes",
          "type": "uint256"
        },
        {
          "indexed": false,
          "internalType": "uint256",
          "name": "totalVotes",
          "type": "uint256"
        }
      ],
      "name": "VerdictReached",
      "type": "event"
    },
    {
      "inputs": [],
      "name": "ADMIN_ROLE",
      "outputs": [
        {
          "internalType": "bytes32",
          "name": "",
          "type": "bytes32"
        }
      ],
      "stateMutability": "view",
      "type": "function"
    },
    {
      "inputs": [],
      "name": "DEFAULT_ADMIN_ROLE",
      "outputs": [
        {
          "internalType": "bytes32",
          "name": "",
          "type": "bytes32"
        }
      ],
      "stateMutability": "view",
      "type": "function"
    },
    {
      "inputs": [],
      "name": "MAX_PAUSE_DURATION",
      "outputs": [
        {
          "internalType": "uint256",
          "name": "",
          "type": "uint256"
        }
      ],
      "stateMutability": "view",
      "type": "function"
    },
    {
      "inputs": [],
      "name": "PAUSER_ROLE",
      "outputs": [
        {
          "internalType": "bytes32",
          "name": "",
          "type": "bytes32"
        }
      ],
      "stateMutability": "view",
      "type": "function"
    },
    {
      "inputs": [
        {
          "internalType": "bytes32",
          "name": "",
          "type": "bytes32"
        }
      ],
      "name": "activeFlag",
      "outputs": [
        {
          "internalType": "bytes32",
          "name": "",
          "type": "bytes32"
        }
      ],
      "stateMutability": "view",
      "type": "function"
    },
    {
      "inputs": [
        {
          "internalType": "address",
          "name": "jurorAddress",
          "type": "address"
        }
      ],
      "name": "addToJurorPool",
      "outputs": [],
      "stateMutability": "nonpayable",
      "type": "function"
    },
    {
      "inputs": [
        {
          "internalType": "bytes32",
          "name": "flagId",
          "type": "bytes32"
        }
      ],
      "name": "appeal",
      "outputs": [],
      "stateMutability": "payable",
      "type": "function"
    },
    {
      "inputs": [],
      "name": "appealMultiplier",
      "outputs": [
        {
          "internalType": "uint256",
          "name": "",
          "type": "uint256"
        }
      ],
      "stateMutability": "view",
      "type": "function"
    },
    {
      "inputs": [
        {
          "internalType": "address[]",
          "name": "addresses",
          "type": "address[]"
        }
      ],
      "name": "batchAddToJurorPool",
      "outputs": [],
      "stateMutability": "nonpayable",
      "type": "function"
    },
    {
      "inputs": [
        {
          "internalType": "bytes32",
          "name": "resourceHash",
          "type": "bytes32"
        }
      ],
      "name": "executeSlash",
      "outputs": [
        {
          "internalType": "bool",
          "name": "",
          "type": "bool"
        }
      ],
      "stateMutability": "nonpayable",
      "type": "function"
    },
    {
      "inputs": [
        {
          "internalType": "bytes32",
          "name": "flagId",
          "type": "bytes32"
        }
      ],
      "name": "finalizeVerdict",
      "outputs": [],
      "stateMutability": "nonpayable",
      "type": "function"
    },
    {
      "inputs": [
        {
          "internalType": "bytes32",
          "name": "resourceHash",
          "type": "bytes32"
        },
        {
          "internalType": "bytes32",
          "name": "evidenceHash",
          "type": "bytes32"
        }
      ],
      "name": "flagResource",
      "outputs": [
        {
          "internalType": "bytes32",
          "name": "flagId",
          "type": "bytes32"
        }
      ],
      "stateMutability": "payable",
      "type": "function"
    },
    {
      "inputs": [
        {
          "internalType": "bytes32",
          "name": "",
          "type": "bytes32"
        }
      ],
      "name": "flags",
      "outputs": [
        {
          "internalType": "bytes32",
          "name": "resourceHash",
          "type": "bytes32"
        },
        {
          "internalType": "address",
          "name": "flagger",
          "type": "address"
        },
        {
          "internalType": "uint256",
          "name": "deposit",
          "type": "uint256"
        },
        {
          "internalType": "bytes32",
          "name": "evidenceHash",
          "type": "bytes32"
        },
        {
          "internalType": "enum ISNADOracle.FlagStatus",
          "name": "status",
          "type": "uint8"
        },
        {
          "internalType": "uint256",
          "name": "createdAt",
          "type": "uint256"
        },
        {
          "internalType": "uint256",
          "name": "juryDeadline",
          "type": "uint256"
        },
        {
          "internalType": "uint256",
          "name": "voteCount",
          "type": "uint256"
        },
        {
          "internalType": "uint256",
          "name": "guiltyVotes",
          "type": "uint256"
        }
      ],
      "stateMutability": "view",
      "type": "function"
    },
    {
      "inputs": [
        {
          "internalType": "bytes32",
          "name": "flagId",
          "type": "bytes32"
        }
      ],
      "name": "getFlag",
      "outputs": [
        {
          "components": [
            {
              "internalType": "bytes32",
              "name": "resourceHash",
              "type": "bytes32"
            },
            {
              "internalType": "address",
              "name": "flagger",
              "type": "address"
            },
            {
              "internalType": "uint256",
              "name": "deposit",
              "type": "uint256"
            },
            {
              "internalType": "bytes32",
              "name": "evidenceHash",
              "type": "bytes32"
            },
            {
              "internalType": "enum ISNADOracle.FlagStatus",
              "name": "status",
              "type": "uint8"
            },
            {
              "internalType": "uint256",
              "name": "createdAt",
              "type": "uint256"
            },
            {
              "internalType": "uint256",
              "name": "juryDeadline",
              "type": "uint256"
            },
            {
              "internalType": "uint256",
              "name": "voteCount",
              "type": "uint256"
            },
            {
              "internalType": "uint256",
              "name": "guiltyVotes",
              "type": "uint256"
            }
          ],
          "internalType": "struct ISNADOracle.Flag",
          "name": "",
          "type": "tuple"
        }
      ],
      "stateMutability": "view",
      "type": "function"
    },
    {
      "inputs": [],
      "name": "getJurorPoolSize",
      "outputs": [
        {
          "internalType": "uint256",
          "name": "",
          "type": "uint256"
        }
      ],
      "stateMutability": "view",
      "type": "function"
    },
    {
      "inputs": [
        {
          "internalType": "bytes32",
          "name": "flagId",
          "type": "bytes32"
        }
      ],
      "name": "getJury",
      "outputs": [
        {
          "internalType": "address[]",
          "name": "",
          "type": "address[]"
        }
      ],
      "stateMutability": "view",
      "type": "function"
    },
    {
      "inputs": [
        {
          "internalType": "bytes32",
          "name": "role",
          "type": "bytes32"
        }
      ],
      "name": "getRoleAdmin",
      "outputs": [
        {
          "internalType": "bytes32",
          "name": "",
          "type": "bytes32"
        }
      ],
      "stateMutability": "view",
      "type": "function"
    },
    {
      "inputs": [
        {
          "internalType": "bytes32",
          "name": "role",
          "type": "bytes32"
        },
        {
          "internalType": "address",
          "name": "account",
          "type": "address"
        }
      ],
      "name": "grantRole",
      "outputs": [],
      "stateMutability": "nonpayable",
      "type": "function"
    },
    {
      "inputs": [
        {
          "internalType": "bytes32",
          "name": "role",
          "type": "bytes32"
        },
        {
          "internalType": "address",
          "name": "account",
          "type": "address"
        }
      ],
      "name": "hasRole",
      "outputs": [
        {
          "internalType": "bool",
          "name": "",
          "type": "bool"
        }
      ],
      "stateMutability": "view",
      "type": "function"
    },
    {
      "inputs": [
        {
          "internalType": "bytes32",
          "name": "flagId",
          "type": "bytes32"
        },
        {
          "internalType": "address",
          "name": "addr",
          "type": "address"
        }
      ],
      "name": "hasVoted",
      "outputs": [
        {
          "internalType": "bool",
          "name": "",
          "type": "bool"
        }
      ],
      "stateMutability": "view",
      "type": "function"
    },
    {
      "inputs": [
        {
          "internalType": "address",
          "name": "",
          "type": "address"
        }
      ],
      "name": "isInJurorPool",
      "outputs": [
        {
          "internalType": "bool",
          "name": "",
          "type": "bool"
        }
      ],
      "stateMutability": "view",
      "type": "function"
    },
    {
      "inputs": [
        {
          "internalType": "bytes32",
          "name": "flagId",
          "type": "bytes32"
        },
        {
          "internalType": "address",
          "name": "addr",
          "type": "address"
        }
      ],
      "name": "isJuror",
      "outputs": [
        {
          "internalType": "bool",
          "name": "",
          "type": "bool"
        }
      ],
      "stateMutability": "view",
      "type": "function"
    },
    {
      "inputs": [
        {
          "internalType": "uint256",
          "name": "",
          "type": "uint256"
        }
      ],
      "name": "jurorPool",
      "outputs": [
        {
          "internalType": "address",
          "name": "",
          "type": "address"
        }
      ],
      "stateMutability": "view",
      "type": "function"
    },
    {
      "inputs": [
        {
          "internalType": "bytes32",
          "name": "",
          "type": "bytes32"
        },
        {
          "internalType": "address",
          "name": "",
          "type": "address"
        }
      ],
      "name": "jurors",
      "outputs": [
        {
          "internalType": "bool",
          "name": "selected",
          "type": "bool"
        },
        {
          "internalType": "bool",
          "name": "voted",
          "type": "bool"
        },
        {
          "internalType": "bool",
          "name": "votedGuilty",
          "type": "bool"
        }
      ],
      "stateMutability": "view",
      "type": "function"
    },
    {
      "inputs": [
        {
          "internalType": "bytes32",
          "name": "",
          "type": "bytes32"
        },
        {
          "internalType": "uint256",
          "name": "",
          "type": "uint256"
        }
      ],
      "name": "juryList",
      "outputs": [
        {
          "internalType": "address",
          "name": "",
          "type": "address"
        }
      ],
      "stateMutability": "view",
      "type": "function"
    },
    {
      "inputs": [],
      "name": "jurySize",
      "outputs": [
        {
          "internalType": "uint256",
          "name": "",
          "type": "uint256"
        }
      ],
      "stateMutability": "view",
      "type": "function"
    },
    {
      "inputs": [],
      "name": "minFlagDeposit",
      "outputs": [
        {
          "internalType": "uint256",
          "name": "",
          "type": "uint256"
        }
      ],
      "stateMutability": "view",
      "type": "function"
    },
    {
      "inputs": [
        {
          "internalType": "uint256",
          "name": "duration",
          "type": "uint256"
        }
      ],
      "name": "pause",
      "outputs": [],
      "stateMutability": "nonpayable",
      "type": "function"
    },
    {
      "inputs": [],
      "name": "paused",
      "outputs": [
        {
          "internalType": "bool",
          "name": "",
          "type": "bool"
        }
      ],
      "stateMutability": "view",
      "type": "function"
    },
    {
      "inputs": [],
      "name": "pausedUntil",
      "outputs": [
        {
          "internalType": "uint256",
          "name": "",
          "type": "uint256"
        }
      ],
      "stateMutability": "view",
      "type": "function"
    },
    {
      "inputs": [
        {
          "internalType": "bytes32",
          "name": "role",
          "type": "bytes32"
        },
        {
          "internalType": "address",
          "name": "callerConfirmation",
          "type": "address"
        }
      ],
      "name": "renounceRole",
      "outputs": [],
      "stateMutability": "nonpayable",
      "type": "function"
    },
    {
      "inputs": [
        {
          "internalType": "bytes32",
          "name": "role",
          "type": "bytes32"
        },
        {
          "internalType": "address",
          "name": "account",
          "type": "address"
        }
      ],
      "name": "revokeRole",
      "outputs": [],
      "stateMutability": "nonpayable",
      "type": "function"
    },
    {
      "inputs": [
        {
          "internalType": "bytes32",
          "name": "flagId",
          "type": "bytes32"
        }
      ],
      "name": "selectJury",
      "outputs": [],
      "stateMutability": "nonpayable",
      "type": "function"
    },
    {
      "inputs": [
        {
          "internalType": "uint256",
          "name": "_jurySize",
          "type": "uint256"
        }
      ],
      "name": "setJurySize",
      "outputs": [],
      "stateMutability": "nonpayable",
      "type": "function"
    },
    {
      "inputs": [
        {
          "internalType": "uint256",
          "name": "_minDeposit",
          "type": "uint256"
        }
      ],
      "name": "setMinFlagDeposit",
      "outputs": [],
      "stateMutability": "nonpayable",
      "type": "function"
    },
    {
      "inputs": [
        {
          "internalType": "address",
          "name": "_stakingContract",
          "type": "address"
        }
      ],
      "name": "setStakingContract",
      "outputs": [],
      "stateMutability": "nonpayable",
      "type": "function"
    },
    {
      "inputs": [
        {
          "internalType": "uint256",
          "name": "_votingPeriod",
          "type": "uint256"
        }
      ],
      "name": "setVotingPeriod",
      "outputs": [],
      "stateMutability": "nonpayable",
      "type": "function"
    },
    {
      "inputs": [],
      "name": "stakingContract",
      "outputs": [
        {
          "internalType": "address",
          "name": "",
          "type": "address"
        }
      ],
      "stateMutability": "view",
      "type": "function"
    },
    {
      "inputs": [],
      "name": "supermajorityBps",
      "outputs": [
        {
          "internalType": "uint256",
          "name": "",
          "type": "uint256"
        }
      ],
      "stateMutability": "view",
      "type": "function"
    },
    {
      "inputs": [
        {
          "internalType": "bytes4",
          "name": "interfaceId",
          "type": "bytes4"
        }
      ],
      "name": "supportsInterface",
      "outputs": [
        {
          "internalType": "bool",
          "name": "",
          "type": "bool"
        }
      ],
      "stateMutability": "view",
      "type": "function"
    },
    {
      "inputs": [],
      "name": "unpause",
      "outputs": [],
      "stateMutability": "nonpayable",
      "type": "function"
    },
    {
      "inputs": [
        {
          "internalType": "bytes32",
          "name": "flagId",
          "type": "bytes32"
        },
        {
          "internalType": "bool",
          "name": "guilty",
          "type": "bool"
        }
      ],
      "name": "vote",
      "outputs": [],
      "stateMutability": "nonpayable",
      "type": "function"
    },
    {
      "inputs": [],
      "name": "votingPeriod",
      "outputs": [
        {
          "internalType": "uint256",
          "name": "",
          "type": "uint256"
        }
      ],
      "stateMutability": "view",
      "type": "function"
    }
  ],
  "bytecode": "0x608060405268056bc75e2d631000006004556005805562093a80600655611a0b600755600260085534801562000033575f80fd5b50604051620025c9380380620025c98339810160408190526200005691620001ef565b60016002556001600160a01b038116620000b65760405162461bcd60e51b815260206004820152601860248201527f496e76616c6964207374616b696e6720636f6e74726163740000000000000000604482015260640160405180910390fd5b620000c25f3362000143565b50620000ef7fa49807205ce4d355092ef5a8a18f56e8913cf4a201fbe287825b095693c217753362000143565b506200011c7f65d7a28e3265b37a6474929f336521b332c1681b933f6cb9f3376673440d862a3362000143565b50600380546001600160a01b0319166001600160a01b03929092169190911790556200021e565b5f828152602081815260408083206001600160a01b038516845290915281205460ff16620001e6575f838152602081815260408083206001600160a01b03861684529091529020805460ff191660011790556200019d3390565b6001600160a01b0316826001600160a01b0316847f2f8788117e7eff1d82e926ec794901d17c78024a50270940304540a733656f0d60405160405180910390a4506001620001e9565b505f5b92915050565b5f6020828403121562000200575f80fd5b81516001600160a01b038116811462000217575f80fd5b9392505050565b61239d806200022c5f395ff3fe608060405260043610610254575f3560e01c806391d148541161013f578063da748b10116100b3578063eb80b2ef11610078578063eb80b2ef146107ee578063ece1de4414610803578063ee99205c14610816578063f4732d0514610835578063f57809e614610854578063f643d3d71461087f575f80fd5b8063da748b101461073c578063e4a3d78414610751578063e63ab1e91461077d578063e785ef0e146107b0578063ea0217cf146107cf575f80fd5b8063b705092011610104578063b705092014610682578063b850cdf7146106a1578063b8fad24e146106c0578063bc6675f9146106df578063d15c11c8146106fe578063d547741f1461071d575f80fd5b806391d14854146105c95780639dd373b9146105e85780639f2ce67814610607578063a217fddf14610626578063aadc3b7214610639575f80fd5b80632eecb0c8116101d657806351af8a221161019b57806351af8a2214610511578063536c8c15146105555780635c975abb1461056a5780635eef3da21461058057806362aaa8761461059557806375b238fc146105a9575f80fd5b80632eecb0c8146104655780632f2ff15d1461049357806336568abe146104b25780633f4ba83a146104d157806346b3c3c3146104e5575f80fd5b8063136439dd1161021c578063136439dd146103665780631e44b1a714610387578063248a9ca31461039a57806324d0b041146103c85780632799657d1461044f575f80fd5b806301ffc9a71461025857806302a251a31461028c57806305b9a25f146102af5780630a2653d1146102e6578063128203c614610351575b5f80fd5b348015610263575f80fd5b50610277610272366004611fac565b61089e565b60405190151581526020015b60405180910390f35b348015610297575f80fd5b506102a160065481565b604051908152602001610283565b3480156102ba575f80fd5b506102ce6102c9366004611fda565b6108d4565b6040516001600160a01b039091168152602001610283565b3480156102f1575f80fd5b50610332610300366004612015565b600a60209081525f928352604080842090915290825290205460ff808216916101008104821691620100009091041683565b6040805193151584529115156020840152151590820152606001610283565b34801561035c575f80fd5b506102a160085481565b348015610371575f80fd5b5061038561038036600461203f565b610908565b005b6102a1610395366004611fda565b6109d0565b3480156103a5575f80fd5b506102a16103b436600461203f565b5f9081526020819052604090206001015490565b3480156103d3575f80fd5b5061043a6103e236600461203f565b60096020525f908152604090208054600182015460028301546003840154600485015460058601546006870154600788015460089098015496976001600160a01b03909616969495939460ff90931693919290919089565b6040516102839998979695949392919061208a565b34801561045a575f80fd5b506102a162093a8081565b348015610470575f80fd5b5061027761047f3660046120e3565b600e6020525f908152604090205460ff1681565b34801561049e575f80fd5b506103856104ad366004612015565b610c69565b3480156104bd575f80fd5b506103856104cc366004612015565b610c93565b3480156104dc575f80fd5b50610385610ccb565b3480156104f0575f80fd5b506105046104ff36600461203f565b610d64565b60405161028391906120fc565b34801561051c575f80fd5b5061027761052b366004612015565b5f918252600a602090815260408084206001600160a01b0393909316845291905290205460ff1690565b348015610560575f80fd5b506102a160055481565b348015610575575f80fd5b506001544210610277565b34801561058b575f80fd5b506102a160075481565b3480156105a0575f80fd5b50600d546102a1565b3480156105b4575f80fd5b506102a15f8051602061234883398151915281565b3480156105d4575f80fd5b506102776105e3366004612015565b610dcd565b3480156105f3575f80fd5b506103856106023660046120e3565b610df5565b348015610612575f80fd5b50610385610621366004612148565b610e85565b348015610631575f80fd5b506102a15f81565b348015610644575f80fd5b50610277610653366004612015565b5f918252600a602090815260408084206001600160a01b03939093168452919052902054610100900460ff1690565b34801561068d575f80fd5b5061038561069c36600461203f565b6110c4565b3480156106ac575f80fd5b506102776106bb36600461203f565b6110e1565b3480156106cb575f80fd5b506103856106da36600461203f565b611225565b3480156106ea575f80fd5b506103856106f93660046120e3565b61129d565b348015610709575f80fd5b5061038561071836600461203f565b611375565b348015610728575f80fd5b50610385610737366004612015565b61142a565b348015610747575f80fd5b506102a160015481565b34801561075c575f80fd5b5061077061076b36600461203f565b61144e565b604051610283919061217a565b348015610788575f80fd5b506102a17f65d7a28e3265b37a6474929f336521b332c1681b933f6cb9f3376673440d862a81565b3480156107bb575f80fd5b506103856107ca3660046121ee565b611545565b3480156107da575f80fd5b506103856107e936600461203f565b611667565b3480156107f9575f80fd5b506102a160045481565b61038561081136600461203f565b6116ca565b348015610821575f80fd5b506003546102ce906001600160a01b031681565b348015610840575f80fd5b5061038561084f36600461203f565b6118be565b34801561085f575f80fd5b506102a161086e36600461203f565b600c6020525f908152604090205481565b34801561088a575f80fd5b506102ce61089936600461203f565b61197d565b5f6001600160e01b03198216637965db0b60e01b14806108ce57506301ffc9a760e01b6001600160e01b03198316145b92915050565b600b602052815f5260405f2081815481106108ed575f80fd5b5f918252602090912001546001600160a01b03169150829050565b7f65d7a28e3265b37a6474929f336521b332c1681b933f6cb9f3376673440d862a610932816119a5565b5f82118015610944575062093a808211155b6109885760405162461bcd60e51b815260206004820152601060248201526f24b73b30b634b210323ab930ba34b7b760811b60448201526064015b60405180910390fd5b6109928242612271565b600181905560405190815233907fab40a374bc51de372200a8bc981af8c9ecdc08dfdaef0bb6e09f88f3c616ef3d9060200160405180910390a25050565b5f6109d96119af565b600154421015610a205760405162461bcd60e51b815260206004820152601260248201527110dbdb9d1c9858dd081a5cc81c185d5cd95960721b604482015260640161097f565b600454341015610a695760405162461bcd60e51b8152602060048201526014602482015273125b9cdd59999a58da595b9d0819195c1bdcda5d60621b604482015260640161097f565b5f838152600c602052604090205415610ac45760405162461bcd60e51b815260206004820152601860248201527f5265736f7572636520616c726561647920666c61676765640000000000000000604482015260640161097f565b5060408051602080820185905233606081901b6bffffffffffffffffffffffff19168385015242605480850191909152845180850390910181526074840180865281519190930120610194840190945285825260948301523460b483015260d482018490529060f4015f81526020014281526020015f81526020015f81526020015f81525060095f8381526020019081526020015f205f820151815f01556020820151816001015f6101000a8154816001600160a01b0302191690836001600160a01b0316021790555060408201518160020155606082015181600301556080820151816004015f6101000a81548160ff02191690836005811115610bcb57610bcb612056565b021790555060a0820151600582015560c0820151600682015560e08201516007820155610100909101516008909101555f838152600c602090815260409182902083905581513481529081018490523391859184917fc92edb8fb4bac81c1756962b16bba68657b07e9a6c6e852b9a63550fdc27c1bb910160405180910390a4600554600d5410610c5f57610c5f816119d7565b6108ce6001600255565b5f82815260208190526040902060010154610c83816119a5565b610c8d8383611c9b565b50505050565b6001600160a01b0381163314610cbc5760405163334bd91960e11b815260040160405180910390fd5b610cc68282611d2a565b505050565b7f65d7a28e3265b37a6474929f336521b332c1681b933f6cb9f3376673440d862a610cf5816119a5565b6001544210610d335760405162461bcd60e51b815260206004820152600a602482015269139bdd081c185d5cd95960b21b604482015260640161097f565b5f600181905560405133917f5db9ee0a495bf2e6ff9c91a7834c1ba4fdd244a5e8aa4e537bd38aeae4b073aa91a250565b5f818152600b6020908152604091829020805483518184028101840190945280845260609392830182828015610dc157602002820191905f5260205f20905b81546001600160a01b03168152600190910190602001808311610da3575b50505050509050919050565b5f918252602082815260408084206001600160a01b0393909316845291905290205460ff1690565b5f80516020612348833981519152610e0c816119a5565b6001600160a01b038216610e625760405162461bcd60e51b815260206004820152601860248201527f496e76616c6964207374616b696e6720636f6e74726163740000000000000000604482015260640161097f565b50600380546001600160a01b0319166001600160a01b0392909216919091179055565b610e8d6119af565b600154421015610ed45760405162461bcd60e51b815260206004820152601260248201527110dbdb9d1c9858dd081a5cc81c185d5cd95960721b604482015260640161097f565b5f8281526009602052604090206001600482015460ff166005811115610efc57610efc612056565b14610f395760405162461bcd60e51b815260206004820152600d60248201526c4e6f7420696e2072657669657760981b604482015260640161097f565b80600601544210610f7b5760405162461bcd60e51b815260206004820152600c60248201526b159bdd1a5b99c8195b99195960a21b604482015260640161097f565b5f838152600a602090815260408083203384529091529020805460ff16610fd25760405162461bcd60e51b815260206004820152600b60248201526a2737ba103090353ab937b960a91b604482015260640161097f565b8054610100900460ff16156110195760405162461bcd60e51b815260206004820152600d60248201526c105b1c9958591e481d9bdd1959609a1b604482015260640161097f565b8054831515620100000262ffff001990911617610100178155600782018054905f61104383612284565b9190505550821561106557600882018054905f61105f83612284565b91905055505b6040518315158152339085907ff2ee66cb5fb317984a735afce8f490e33d93334d63262bac9728cb9fec4038a59060200160405180910390a36005548260070154036110b4576110b484611d93565b50506110c06001600255565b5050565b5f805160206123488339815191526110db816119a5565b50600455565b5f818152600c60205260408120548061112d5760405162461bcd60e51b815260206004820152600e60248201526d4e6f2061637469766520666c616760901b604482015260640161097f565b5f8181526009602052604090206002600482015460ff16600581111561115557611155612056565b1461118f5760405162461bcd60e51b815260206004820152600a6024820152694e6f74206775696c747960b01b604482015260640161097f565b5f848152600c60205260408082208290556001830154600284015491516001600160a01b039091169282156108fc02929190818181858888f193505050501580156111dc573d5f803e3d5ffd5b50837f3c6d365db6255bc86eb46a819f3b6ded3bc0d34ebffbf0e688587ee50a36de35826002015460405161121391815260200190565b60405180910390a25060019392505050565b5f8051602061234883398151915261123c816119a5565b6003821015801561125757506112536002836122b0565b6001145b6112975760405162461bcd60e51b8152602060048201526011602482015270496e76616c6964206a7572792073697a6560781b604482015260640161097f565b50600555565b5f805160206123488339815191526112b4816119a5565b6001600160a01b0382165f908152600e602052604090205460ff161561130e5760405162461bcd60e51b815260206004820152600f60248201526e105b1c9958591e481a5b881c1bdbdb608a1b604482015260640161097f565b50600d805460018181019092557fd7b6990105719101dabeb77144f2a3385c8033acd3af97e9423a695e81ad1eb50180546001600160a01b039093166001600160a01b0319909316831790555f918252600e6020526040909120805460ff19169091179055565b5f8181526009602052604090206001600482015460ff16600581111561139d5761139d612056565b146113da5760405162461bcd60e51b815260206004820152600d60248201526c4e6f7420696e2072657669657760981b604482015260640161097f565b80600601544210156114215760405162461bcd60e51b815260206004820152601060248201526f159bdd1a5b99c81b9bdd08195b99195960821b604482015260640161097f565b6110c082611d93565b5f82815260208190526040902060010154611444816119a5565b610c8d8383611d2a565b61149860408051610120810182525f808252602082018190529181018290526060810182905290608082019081526020015f81526020015f81526020015f81526020015f81525090565b5f828152600960209081526040918290208251610120810184528154815260018201546001600160a01b031692810192909252600281015492820192909252600382015460608201526004820154909190608083019060ff16600581111561150257611502612056565b600581111561151357611513612056565b815260058201546020820152600682015460408201526007820154606082015260089091015460809091015292915050565b5f8051602061234883398151915261155c816119a5565b5f5b82811015610c8d57600e5f85858481811061157b5761157b6122c3565b905060200201602081019061159091906120e3565b6001600160a01b0316815260208101919091526040015f205460ff1661165f57600d8484838181106115c4576115c46122c3565b90506020020160208101906115d991906120e3565b8154600180820184555f9384526020842090910180546001600160a01b0319166001600160a01b03939093169290921790915590600e90868685818110611622576116226122c3565b905060200201602081019061163791906120e3565b6001600160a01b0316815260208101919091526040015f20805460ff19169115159190911790555b60010161155e565b5f8051602061234883398151915261167e816119a5565b620151808210156116c45760405162461bcd60e51b815260206004820152601060248201526f14195c9a5bd9081d1bdbc81cda1bdc9d60821b604482015260640161097f565b50600655565b6116d26119af565b5f8181526009602052604090206002600482015460ff1660058111156116fa576116fa612056565b148061171e57506003600482015460ff16600581111561171c5761171c612056565b145b61175a5760405162461bcd60e51b815260206004820152600d60248201526c10d85b9b9bdd08185c1c19585b609a1b604482015260640161097f565b600681015461176c906203f480612271565b42106117b15760405162461bcd60e51b8152602060048201526014602482015273105c1c19585b081dda5b991bddc818db1bdcd95960621b604482015260640161097f565b5f60085482600201546117c491906122d7565b9050803410156118165760405162461bcd60e51b815260206004820152601b60248201527f496e73756666696369656e742061707065616c206465706f7369740000000000604482015260640161097f565b6004828101805460ff1916600183021790555034826002015f82825461183c9190612271565b90915550505f6007830181905560088301819055838152600b6020526040812061186591611f7e565b604051348152339084907e672bede80ded560cfbd92a0645208424b47e23b9e8e01a245db8a0a6eb71b59060200160405180910390a3600554600d54106118af576118af836119d7565b50506118bb6001600255565b50565b5f81815260096020526040812090600482015460ff1660058111156118e5576118e5612056565b146119205760405162461bcd60e51b815260206004820152600b60248201526a4e6f742070656e64696e6760a81b604482015260640161097f565b600554600d5410156119745760405162461bcd60e51b815260206004820152601760248201527f496e73756666696369656e74206a75726f7220706f6f6c000000000000000000604482015260640161097f565b6110c0826119d7565b600d818154811061198c575f80fd5b5f918252602090912001546001600160a01b0316905081565b6118bb8133611f45565b60028054036119d157604051633ee5aeb560e01b815260040160405180910390fd5b60028055565b5f818152600960205260408120906119f06001436122ee565b60408051914060208301528101849052426060820152608001604051602081830303815290604052805190602001205f1c90505f60055467ffffffffffffffff811115611a3f57611a3f612301565b604051908082528060200260200182016040528015611a68578160200160208202803683370190505b5090505f805f600d805490506003611a8091906122d7565b90505b60055483108015611a9357508082105b15611b7457600d545f90611aa78488612271565b611ab191906122b0565b90505f600d8281548110611ac757611ac76122c3565b5f9182526020808320909101548b8352600a825260408084206001600160a01b039092168085529190925291205490915060ff16158015611b5f5781878781518110611b1557611b156122c3565b6001600160a01b039283166020918202929092018101919091525f8c8152600a8252604080822093861682529290915220805460ff1916600117905585611b5b81612284565b9650505b84611b6981612284565b955050505050611a83565b6005548314611bc55760405162461bcd60e51b815260206004820152601e60248201527f436f756c64206e6f742073656c65637420656e6f756768206a75726f72730000604482015260640161097f565b5f5b600554811015611c36575f888152600b602052604090208551869083908110611bf257611bf26122c3565b6020908102919091018101518254600180820185555f9485529290932090920180546001600160a01b0319166001600160a01b039093169290921790915501611bc7565b5060048601805460ff19166001179055600654611c539042612271565b600687015560405187907f7988f9809caf69010681be5043108ecf62ab23c65aca9ca4662aa11980bd5f1790611c8a9087906120fc565b60405180910390a250505050505050565b5f611ca68383610dcd565b611d23575f838152602081815260408083206001600160a01b03861684529091529020805460ff19166001179055611cdb3390565b6001600160a01b0316826001600160a01b0316847f2f8788117e7eff1d82e926ec794901d17c78024a50270940304540a733656f0d60405160405180910390a45060016108ce565b505f6108ce565b5f611d358383610dcd565b15611d23575f838152602081815260408083206001600160a01b0386168085529252808320805460ff1916905551339286917ff6391f5c32d9c69d2a47ea670b442974b53935d1edc7fd64eb21e047a839171b9190a45060016108ce565b5f818152600960205260408120600780549082015491929161271091611db8916122d7565b611dc29190612315565b90505f6127106007548460070154611dda91906122d7565b611de49190612315565b905081836008015410611e055760048301805460ff19166002179055611eed565b8083600801548460070154611e1a91906122ee565b10611e935760048301805460ff1916600317905560028301545f90611e4190600a90612315565b600185015460028601549192506001600160a01b0316906108fc90611e679084906122ee565b6040518115909202915f818181858888f19350505050158015611e8c573d5f803e3d5ffd5b5050611eed565b60048301805460ff1916600517905560018301546002808501546001600160a01b03909216916108fc91611ec691612315565b6040518115909202915f818181858888f19350505050158015611eeb573d5f803e3d5ffd5b505b825460048401546008850154600786015460405188937f433aa6e48164df010794e86a1fb8bb3f17f33365871fa621e9fd0dcb5200aba193611f379360ff90921692909190612328565b60405180910390a350505050565b611f4f8282610dcd565b6110c05760405163e2517d3f60e01b81526001600160a01b03821660048201526024810183905260440161097f565b5080545f8255905f5260205f20908101906118bb91905b80821115611fa8575f8155600101611f95565b5090565b5f60208284031215611fbc575f80fd5b81356001600160e01b031981168114611fd3575f80fd5b9392505050565b5f8060408385031215611feb575f80fd5b50508035926020909101359150565b80356001600160a01b0381168114612010575f80fd5b919050565b5f8060408385031215612026575f80fd5b8235915061203660208401611ffa565b90509250929050565b5f6020828403121561204f575f80fd5b5035919050565b634e487b7160e01b5f52602160045260245ffd5b6006811061208657634e487b7160e01b5f52602160045260245ffd5b9052565b8981526001600160a01b0389166020820152604081018890526060810187905261012081016120bc608083018861206a565b8560a08301528460c08301528360e0830152826101008301529a9950505050505050505050565b5f602082840312156120f3575f80fd5b611fd382611ffa565b602080825282518282018190525f9190848201906040850190845b8181101561213c5783516001600160a01b031683529284019291840191600101612117565b50909695505050505050565b5f8060408385031215612159575f80fd5b823591506020830135801515811461216f575f80fd5b809150509250929050565b815181526020808301516001600160a01b03169082015260408083015190820152606080830151908201526080808301516101208301916121bd9084018261206a565b5060a083015160a083015260c083015160c083015260e083015160e083015261010080840151818401525092915050565b5f80602083850312156121ff575f80fd5b823567ffffffffffffffff80821115612216575f80fd5b818501915085601f830112612229575f80fd5b813581811115612237575f80fd5b8660208260051b850101111561224b575f80fd5b60209290920196919550909350505050565b634e487b7160e01b5f52601160045260245ffd5b808201808211156108ce576108ce61225d565b5f600182016122955761229561225d565b5060010190565b634e487b7160e01b5f52601260045260245ffd5b5f826122be576122be61229c565b500690565b634e487b7160e01b5f52603260045260245ffd5b80820281158282048414176108ce576108ce61225d565b818103818111156108ce576108ce61225d565b634e487b7160e01b5f52604160045260245ffd5b5f826123235761232361229c565b500490565b60608101612336828661206a565b60208201939093526040015291905056fea49807205ce4d355092ef5a8a18f56e8913cf4a201fbe287825b095693c21775a264697066735822122029eb474fa1e9aa7502f34e0a7b586101728865120c6f8016efcd642ca74aa32764736f6c63430008180033",
  "linkReferences": {},
  "deployedLinkReferences": {}
}