{
  "_format": "hh-sol-artifact-1",
  "contractName": "ISNADStaking",
  "sourceName": "contracts/ISNADStaking.sol",
  "abi": [
    {
      "inputs": [
        {
          "internalType": "address",
          "name": "_token",
          "type": "address"
        },
        {
          "internalType": "address",
          "name": "admin",
          "type": "address"
        }
      ],
      "stateMutability": "nonpayable",
      "type": "constructor"
    },
    {
      "inputs": [],
      "name": "AccessControlBadConfirmation",
      "type": "error"
    },
    {
      "inputs": [
        {
          "internalType": "address",
          "name": "account",
          "type": "address"
        },
        {
          "internalType": "bytes32",
          "name": "neededRole",
          "type": "bytes32"
        }
      ],
      "name": "AccessControlUnauthorizedAccount",
      "type": "error"
    },
    {
      "inputs": [],
      "name": "ReentrancyGuardReentrantCall",
      "type": "error"
    },
    {
      "inputs": [
        {
          "internalType": "address",
          "name": "token",
          "type": "address"
        }
      ],
      "name": "SafeERC20FailedOperation",
      "type": "error"
    },
    {
      "anonymous": false,
      "inputs": [
        {
          "indexed": true,
          "internalType": "address",
          "name": "account",
          "type": "address"
        },
        {
          "indexed": false,
          "internalType": "uint256",
          "name": "until",
          "type": "uint256"
        }
      ],
      "name": "Paused",
      "type": "event"
    },
    {
      "anonymous": false,
      "inputs": [
        {
          "indexed": true,
          "internalType": "bytes32",
          "name": "role",
          "type": "bytes32"
        },
        {
          "indexed": true,
          "internalType": "bytes32",
          "name": "previousAdminRole",
          "type": "bytes32"
        },
        {
          "indexed": true,
          "internalType": "bytes32",
          "name": "newAdminRole",
          "type": "bytes32"
        }
      ],
      "name": "RoleAdminChanged",
      "type": "event"
    },
    {
      "anonymous": false,
      "inputs": [
        {
          "indexed": true,
          "internalType": "bytes32",
          "name": "role",
          "type": "bytes32"
        },
        {
          "indexed": true,
          "internalType": "address",
          "name": "account",
          "type": "address"
        },
        {
          "indexed": true,
          "internalType": "address",
          "name": "sender",
          "type": "address"
        }
      ],
      "name": "RoleGranted",
      "type": "event"
    },
    {
      "anonymous": false,
      "inputs": [
        {
          "indexed": true,
          "internalType": "bytes32",
          "name": "role",
          "type": "bytes32"
        },
        {
          "indexed": true,
          "internalType": "address",
          "name": "account",
          "type": "address"
        },
        {
          "indexed": true,
          "internalType": "address",
          "name": "sender",
          "type": "address"
        }
      ],
      "name": "RoleRevoked",
      "type": "event"
    },
    {
      "anonymous": false,
      "inputs": [
        {
          "indexed": true,
          "internalType": "bytes32",
          "name": "attestationId",
          "type": "bytes32"
        },
        {
          "indexed": true,
          "internalType": "address",
          "name": "auditor",
          "type": "address"
        },
        {
          "indexed": true,
          "internalType": "bytes32",
          "name": "resourceHash",
          "type": "bytes32"
        },
        {
          "indexed": false,
          "internalType": "uint256",
          "name": "amount",
          "type": "uint256"
        }
      ],
      "name": "Slashed",
      "type": "event"
    },
    {
      "anonymous": false,
      "inputs": [
        {
          "indexed": true,
          "internalType": "bytes32",
          "name": "attestationId",
          "type": "bytes32"
        },
        {
          "indexed": true,
          "internalType": "address",
          "name": "auditor",
          "type": "address"
        },
        {
          "indexed": true,
          "internalType": "bytes32",
          "name": "resourceHash",
          "type": "bytes32"
        },
        {
          "indexed": false,
          "internalType": "uint256",
          "name": "amount",
          "type": "uint256"
        },
        {
          "indexed": false,
          "internalType": "uint256",
          "name": "lockUntil",
          "type": "uint256"
        },
        {
          "indexed": false,
          "internalType": "uint256",
          "name": "lockDuration",
          "type": "uint256"
        }
      ],
      "name": "Staked",
      "type": "event"
    },
    {
      "anonymous": false,
      "inputs": [
        {
          "indexed": true,
          "internalType": "address",
          "name": "account",
          "type": "address"
        }
      ],
      "name": "Unpaused",
      "type": "event"
    },
    {
      "anonymous": false,
      "inputs": [
        {
          "indexed": true,
          "internalType": "bytes32",
          "name": "attestationId",
          "type": "bytes32"
        },
        {
          "indexed": true,
          "internalType": "address",
          "name": "auditor",
          "type": "address"
        },
        {
          "indexed": false,
          "internalType": "uint256",
          "name": "amount",
          "type": "uint256"
        }
      ],
      "name": "Unstaked",
      "type": "event"
    },
    {
      "inputs": [],
      "name": "DEFAULT_ADMIN_ROLE",
      "outputs": [
        {
          "internalType": "bytes32",
          "name": "",
          "type": "bytes32"
        }
      ],
      "stateMutability": "view",
      "type": "function"
    },
    {
      "inputs": [],
      "name": "MAX_LOCK_DURATION",
      "outputs": [
        {
          "internalType": "uint256",
          "name": "",
          "type": "uint256"
        }
      ],
      "stateMutability": "view",
      "type": "function"
    },
    {
      "inputs": [],
      "name": "MAX_PAUSE_DURATION",
      "outputs": [
        {
          "internalType": "uint256",
          "name": "",
          "type": "uint256"
        }
      ],
      "stateMutability": "view",
      "type": "function"
    },
    {
      "inputs": [],
      "name": "MAX_STAKE_PERCENT",
      "outputs": [
        {
          "internalType": "uint256",
          "name": "",
          "type": "uint256"
        }
      ],
      "stateMutability": "view",
      "type": "function"
    },
    {
      "inputs": [],
      "name": "MAX_STAKE_PER_AUDITOR",
      "outputs": [
        {
          "internalType": "uint256",
          "name": "",
          "type": "uint256"
        }
      ],
      "stateMutability": "view",
      "type": "function"
    },
    {
      "inputs": [],
      "name": "MEDIUM_LOCK_DURATION",
      "outputs": [
        {
          "internalType": "uint256",
          "name": "",
          "type": "uint256"
        }
      ],
      "stateMutability": "view",
      "type": "function"
    },
    {
      "inputs": [],
      "name": "MIN_LOCK_DURATION",
      "outputs": [
        {
          "internalType": "uint256",
          "name": "",
          "type": "uint256"
        }
      ],
      "stateMutability": "view",
      "type": "function"
    },
    {
      "inputs": [],
      "name": "ORACLE_ROLE",
      "outputs": [
        {
          "internalType": "bytes32",
          "name": "",
          "type": "bytes32"
        }
      ],
      "stateMutability": "view",
      "type": "function"
    },
    {
      "inputs": [],
      "name": "PAUSER_ROLE",
      "outputs": [
        {
          "internalType": "bytes32",
          "name": "",
          "type": "bytes32"
        }
      ],
      "stateMutability": "view",
      "type": "function"
    },
    {
      "inputs": [],
      "name": "TIER_1_THRESHOLD",
      "outputs": [
        {
          "internalType": "uint256",
          "name": "",
          "type": "uint256"
        }
      ],
      "stateMutability": "view",
      "type": "function"
    },
    {
      "inputs": [],
      "name": "TIER_2_THRESHOLD",
      "outputs": [
        {
          "internalType": "uint256",
          "name": "",
          "type": "uint256"
        }
      ],
      "stateMutability": "view",
      "type": "function"
    },
    {
      "inputs": [],
      "name": "TIER_3_THRESHOLD",
      "outputs": [
        {
          "internalType": "uint256",
          "name": "",
          "type": "uint256"
        }
      ],
      "stateMutability": "view",
      "type": "function"
    },
    {
      "inputs": [
        {
          "internalType": "bytes32",
          "name": "",
          "type": "bytes32"
        }
      ],
      "name": "attestations",
      "outputs": [
        {
          "internalType": "address",
          "name": "auditor",
          "type": "address"
        },
        {
          "internalType": "bytes32",
          "name": "resourceHash",
          "type": "bytes32"
        },
        {
          "internalType": "uint256",
          "name": "amount",
          "type": "uint256"
        },
        {
          "internalType": "uint256",
          "name": "lockUntil",
          "type": "uint256"
        },
        {
          "internalType": "uint256",
          "name": "lockDuration",
          "type": "uint256"
        },
        {
          "internalType": "bool",
          "name": "slashed",
          "type": "bool"
        }
      ],
      "stateMutability": "view",
      "type": "function"
    },
    {
      "inputs": [
        {
          "internalType": "address",
          "name": "",
          "type": "address"
        },
        {
          "internalType": "uint256",
          "name": "",
          "type": "uint256"
        }
      ],
      "name": "auditorAttestations",
      "outputs": [
        {
          "internalType": "bytes32",
          "name": "",
          "type": "bytes32"
        }
      ],
      "stateMutability": "view",
      "type": "function"
    },
    {
      "inputs": [
        {
          "internalType": "address",
          "name": "",
          "type": "address"
        },
        {
          "internalType": "bytes32",
          "name": "",
          "type": "bytes32"
        }
      ],
      "name": "auditorResourceStake",
      "outputs": [
        {
          "internalType": "uint256",
          "name": "",
          "type": "uint256"
        }
      ],
      "stateMutability": "view",
      "type": "function"
    },
    {
      "inputs": [
        {
          "internalType": "address",
          "name": "",
          "type": "address"
        }
      ],
      "name": "auditorTotalStake",
      "outputs": [
        {
          "internalType": "uint256",
          "name": "",
          "type": "uint256"
        }
      ],
      "stateMutability": "view",
      "type": "function"
    },
    {
      "inputs": [
        {
          "internalType": "bytes32",
          "name": "attestationId",
          "type": "bytes32"
        }
      ],
      "name": "getAttestation",
      "outputs": [
        {
          "internalType": "address",
          "name": "auditor",
          "type": "address"
        },
        {
          "internalType": "bytes32",
          "name": "resourceHash",
          "type": "bytes32"
        },
        {
          "internalType": "uint256",
          "name": "amount",
          "type": "uint256"
        },
        {
          "internalType": "uint256",
          "name": "lockUntil",
          "type": "uint256"
        },
        {
          "internalType": "uint256",
          "name": "lockDuration",
          "type": "uint256"
        },
        {
          "internalType": "bool",
          "name": "slashed",
          "type": "bool"
        }
      ],
      "stateMutability": "view",
      "type": "function"
    },
    {
      "inputs": [
        {
          "internalType": "address",
          "name": "auditor",
          "type": "address"
        }
      ],
      "name": "getAuditorAttestations",
      "outputs": [
        {
          "internalType": "bytes32[]",
          "name": "",
          "type": "bytes32[]"
        }
      ],
      "stateMutability": "view",
      "type": "function"
    },
    {
      "inputs": [
        {
          "internalType": "bytes32",
          "name": "resourceHash",
          "type": "bytes32"
        }
      ],
      "name": "getResourceAttestations",
      "outputs": [
        {
          "internalType": "bytes32[]",
          "name": "",
          "type": "bytes32[]"
        }
      ],
      "stateMutability": "view",
      "type": "function"
    },
    {
      "inputs": [
        {
          "internalType": "bytes32",
          "name": "role",
          "type": "bytes32"
        }
      ],
      "name": "getRoleAdmin",
      "outputs": [
        {
          "internalType": "bytes32",
          "name": "",
          "type": "bytes32"
        }
      ],
      "stateMutability": "view",
      "type": "function"
    },
    {
      "inputs": [
        {
          "internalType": "bytes32",
          "name": "resourceHash",
          "type": "bytes32"
        }
      ],
      "name": "getTrustScore",
      "outputs": [
        {
          "internalType": "uint256",
          "name": "score",
          "type": "uint256"
        }
      ],
      "stateMutability": "view",
      "type": "function"
    },
    {
      "inputs": [
        {
          "internalType": "bytes32",
          "name": "resourceHash",
          "type": "bytes32"
        }
      ],
      "name": "getTrustTier",
      "outputs": [
        {
          "internalType": "uint8",
          "name": "tier",
          "type": "uint8"
        }
      ],
      "stateMutability": "view",
      "type": "function"
    },
    {
      "inputs": [
        {
          "internalType": "bytes32",
          "name": "role",
          "type": "bytes32"
        },
        {
          "internalType": "address",
          "name": "account",
          "type": "address"
        }
      ],
      "name": "grantRole",
      "outputs": [],
      "stateMutability": "nonpayable",
      "type": "function"
    },
    {
      "inputs": [
        {
          "internalType": "bytes32",
          "name": "role",
          "type": "bytes32"
        },
        {
          "internalType": "address",
          "name": "account",
          "type": "address"
        }
      ],
      "name": "hasRole",
      "outputs": [
        {
          "internalType": "bool",
          "name": "",
          "type": "bool"
        }
      ],
      "stateMutability": "view",
      "type": "function"
    },
    {
      "inputs": [
        {
          "internalType": "uint256",
          "name": "duration",
          "type": "uint256"
        }
      ],
      "name": "pause",
      "outputs": [],
      "stateMutability": "nonpayable",
      "type": "function"
    },
    {
      "inputs": [],
      "name": "paused",
      "outputs": [
        {
          "internalType": "bool",
          "name": "",
          "type": "bool"
        }
      ],
      "stateMutability": "view",
      "type": "function"
    },
    {
      "inputs": [],
      "name": "pausedUntil",
      "outputs": [
        {
          "internalType": "uint256",
          "name": "",
          "type": "uint256"
        }
      ],
      "stateMutability": "view",
      "type": "function"
    },
    {
      "inputs": [
        {
          "internalType": "bytes32",
          "name": "role",
          "type": "bytes32"
        },
        {
          "internalType": "address",
          "name": "callerConfirmation",
          "type": "address"
        }
      ],
      "name": "renounceRole",
      "outputs": [],
      "stateMutability": "nonpayable",
      "type": "function"
    },
    {
      "inputs": [
        {
          "internalType": "bytes32",
          "name": "",
          "type": "bytes32"
        },
        {
          "internalType": "uint256",
          "name": "",
          "type": "uint256"
        }
      ],
      "name": "resourceAttestations",
      "outputs": [
        {
          "internalType": "bytes32",
          "name": "",
          "type": "bytes32"
        }
      ],
      "stateMutability": "view",
      "type": "function"
    },
    {
      "inputs": [
        {
          "internalType": "bytes32",
          "name": "",
          "type": "bytes32"
        }
      ],
      "name": "resourceTotalStake",
      "outputs": [
        {
          "internalType": "uint256",
          "name": "",
          "type": "uint256"
        }
      ],
      "stateMutability": "view",
      "type": "function"
    },
    {
      "inputs": [
        {
          "internalType": "bytes32",
          "name": "role",
          "type": "bytes32"
        },
        {
          "internalType": "address",
          "name": "account",
          "type": "address"
        }
      ],
      "name": "revokeRole",
      "outputs": [],
      "stateMutability": "nonpayable",
      "type": "function"
    },
    {
      "inputs": [
        {
          "internalType": "bytes32",
          "name": "attestationId",
          "type": "bytes32"
        }
      ],
      "name": "slash",
      "outputs": [],
      "stateMutability": "nonpayable",
      "type": "function"
    },
    {
      "inputs": [
        {
          "internalType": "bytes32",
          "name": "resourceHash",
          "type": "bytes32"
        },
        {
          "internalType": "uint256",
          "name": "amount",
          "type": "uint256"
        },
        {
          "internalType": "uint256",
          "name": "lockDuration",
          "type": "uint256"
        }
      ],
      "name": "stake",
      "outputs": [
        {
          "internalType": "bytes32",
          "name": "attestationId",
          "type": "bytes32"
        }
      ],
      "stateMutability": "nonpayable",
      "type": "function"
    },
    {
      "inputs": [
        {
          "internalType": "bytes4",
          "name": "interfaceId",
          "type": "bytes4"
        }
      ],
      "name": "supportsInterface",
      "outputs": [
        {
          "internalType": "bool",
          "name": "",
          "type": "bool"
        }
      ],
      "stateMutability": "view",
      "type": "function"
    },
    {
      "inputs": [],
      "name": "token",
      "outputs": [
        {
          "internalType": "contract IERC20",
          "name": "",
          "type": "address"
        }
      ],
      "stateMutability": "view",
      "type": "function"
    },
    {
      "inputs": [],
      "name": "totalStaked",
      "outputs": [
        {
          "internalType": "uint256",
          "name": "",
          "type": "uint256"
        }
      ],
      "stateMutability": "view",
      "type": "function"
    },
    {
      "inputs": [],
      "name": "unpause",
      "outputs": [],
      "stateMutability": "nonpayable",
      "type": "function"
    },
    {
      "inputs": [
        {
          "internalType": "bytes32",
          "name": "attestationId",
          "type": "bytes32"
        }
      ],
      "name": "unstake",
      "outputs": [],
      "stateMutability": "nonpayable",
      "type": "function"
    }
  ],
  "bytecode": "0x60a060405234801562000010575f80fd5b5060405162001c8738038062001c878339810160408190526200003391620001ea565b60015f556001600160a01b038216620000935760405162461bcd60e51b815260206004820152601560248201527f496e76616c696420746f6b656e2061646472657373000000000000000000000060448201526064015b60405180910390fd5b6001600160a01b038116620000eb5760405162461bcd60e51b815260206004820152601560248201527f496e76616c69642061646d696e2061646472657373000000000000000000000060448201526064016200008a565b6001600160a01b038216608052620001045f826200013a565b50620001317f65d7a28e3265b37a6474929f336521b332c1681b933f6cb9f3376673440d862a826200013a565b50505062000220565b5f8281526001602090815260408083206001600160a01b038516845290915281205460ff16620001c5575f8381526001602081815260408084206001600160a01b0387168086529252808420805460ff19169093179092559051339286917f2f8788117e7eff1d82e926ec794901d17c78024a50270940304540a733656f0d9190a4506001620001c8565b505f5b92915050565b80516001600160a01b0381168114620001e5575f80fd5b919050565b5f8060408385031215620001fc575f80fd5b6200020783620001ce565b91506200021760208401620001ce565b90509250929050565b608051611a396200024e5f395f81816105b901528181610c5101528181610fcf01526114080152611a395ff3fe608060405234801561000f575f80fd5b5060043610610228575f3560e01c806378b4330f1161012a578063cd1f6206116100b4578063ef2f90cf11610079578063ef2f90cf14610572578063f415ed1414610582578063f4f2d03414610595578063fc0c546a146105b4578063fc879cd4146105f3575f80fd5b8063cd1f6206146104fd578063d547741f14610505578063da748b1014610518578063dc9ad57e14610521578063e63ab1e91461054b575f80fd5b8063940992a3116100fa578063940992a3146103f4578063a217fddf1461047f578063a2cb50ad14610486578063a3112a6414610499578063cb9ea337146104ed575f80fd5b806378b4330f14610304578063817b1cd2146103b35780638e7d8d18146103bc57806391d14854146103e1575f80fd5b80632daedd52116101b65780634f1bfc9e1161017b5780634f1bfc9e146103795780635b79872c1461022c5780635c975abb146103835780636fa8a7a71461038d57806371ed5d1a146103a0575f80fd5b80632daedd521461032e5780632f2ff15d1461034157806336568abe146103545780633f4ba83a14610367578063463e58081461036f575f80fd5b8063136439dd116101fc578063136439dd146102b9578063228a5ab0146102ce578063248a9ca3146102e15780632799657d1461030457806327f8e0e91461030e575f80fd5b8062bb6e921461022c57806301ffc9a71461025057806307e2cea514610273578063122ca5061461029a575b5f80fd5b61023d69021e19e0c9bab240000081565b6040519081526020015b60405180910390f35b61026361025e3660046117ec565b610606565b6040519015158152602001610247565b61023d7f68e79a7bf1e0bc45d0a330c573bc367f9cf464fd326078812f301165fbda4ef181565b61023d6102a8366004611813565b60046020525f908152604090205481565b6102cc6102c7366004611813565b61063c565b005b61023d6102dc366004611845565b610704565b61023d6102ef366004611813565b5f908152600160208190526040909120015490565b61023d62093a8081565b61032161031c366004611813565b61072f565b604051610247919061186d565b61023d61033c3660046118b0565b61078e565b6102cc61034f3660046118d9565b610cdb565b6102cc6103623660046118d9565b610d06565b6102cc610d3e565b61023d62278d0081565b61023d6276a70081565b6002544210610263565b61023d61039b366004611903565b610dd7565b6102cc6103ae366004611813565b610df0565b61023d60095481565b6103cf6103ca366004611813565b61103c565b60405160ff9091168152602001610247565b6102636103ef3660046118d9565b6110f4565b610446610402366004611813565b600360208190525f91825260409091208054600182015460028301549383015460048401546005909401546001600160a01b03909316949193919290919060ff1686565b604080516001600160a01b03909716875260208701959095529385019290925260608401526080830152151560a082015260c001610247565b61023d5f81565b61023d610494366004611813565b61111e565b6104466104a7366004611813565b5f9081526003602081905260409091208054600182015460028301549383015460048401546005909401546001600160a01b03909316959194939092909160ff90911690565b61023d683635c9adc5dea0000081565b61023d602181565b6102cc6105133660046118d9565b61122f565b61023d60025481565b61023d61052f366004611845565b600660209081525f928352604080842090915290825290205481565b61023d7f65d7a28e3265b37a6474929f336521b332c1681b933f6cb9f3376673440d862a81565b61023d68056bc75e2d6310000081565b6102cc610590366004611813565b611254565b61023d6105a3366004611923565b60056020525f908152604090205481565b6105db7f000000000000000000000000000000000000000000000000000000000000000081565b6040516001600160a01b039091168152602001610247565b610321610601366004611923565b611535565b5f6001600160e01b03198216637965db0b60e01b148061063657506301ffc9a760e01b6001600160e01b03198316145b92915050565b7f65d7a28e3265b37a6474929f336521b332c1681b933f6cb9f3376673440d862a6106668161159c565b5f82118015610678575062093a808211155b6106bc5760405162461bcd60e51b815260206004820152601060248201526f24b73b30b634b210323ab930ba34b7b760811b60448201526064015b60405180910390fd5b6106c68242611950565b600281905560405190815233907fab40a374bc51de372200a8bc981af8c9ecdc08dfdaef0bb6e09f88f3c616ef3d9060200160405180910390a25050565b6007602052815f5260405f20818154811061071d575f80fd5b905f5260205f20015f91509150505481565b5f8181526008602090815260409182902080548351818402810184019094528084526060939283018282801561078257602002820191905f5260205f20905b81548152602001906001019080831161076e575b50505050509050919050565b5f6107976115a6565b6002544210156107de5760405162461bcd60e51b815260206004820152601260248201527110dbdb9d1c9858dd081a5cc81c185d5cd95960721b60448201526064016106b3565b836108235760405162461bcd60e51b8152602060048201526015602482015274092dcecc2d8d2c840e4cae6deeae4c6ca40d0c2e6d605b1b60448201526064016106b3565b5f83116108725760405162461bcd60e51b815260206004820152601760248201527f416d6f756e74206d75737420626520706f73697469766500000000000000000060448201526064016106b3565b62093a808210156108b65760405162461bcd60e51b815260206004820152600e60248201526d131bd8dac81d1bdbc81cda1bdc9d60921b60448201526064016106b3565b6276a7008211156108f95760405162461bcd60e51b815260206004820152600d60248201526c4c6f636b20746f6f206c6f6e6760981b60448201526064016106b3565b335f9081526005602052604090205469021e19e0c9bab24000009061091f908590611950565b111561096d5760405162461bcd60e51b815260206004820152601d60248201527f45786365656473206d6178207374616b65207065722061756469746f7200000060448201526064016106b3565b5f848152600460209081526040808320543384526006835281842088855290925282205490919061099e9083611963565b90508015610a4857335f9081526006602090815260408083208984529091528120546109cb908790611950565b90505f6109d88785611950565b90505f816109e7846064611976565b6109f1919061198d565b90506021811115610a445760405162461bcd60e51b815260206004820152601960248201527f45786365656473206d6178207374616b652070657263656e740000000000000060448201526064016106b3565b5050505b6040516bffffffffffffffffffffffff193360601b166020820152603481018790524260548201526074810186905260940160408051601f1981840301815291815281516020928301205f818152600390935291206002015490935015610ae65760405162461bcd60e51b81526020600482015260126024820152714174746573746174696f6e2065786973747360701b60448201526064016106b3565b5f610af18542611950565b6040805160c08101825233815260208082018b81528284018b815260608401868152608085018c81525f60a087018181528d82526003808852898320985189546001600160a01b0319166001600160a01b039091161789559551600189015593516002880155915193860193909355915160048086019190915590516005909401805460ff1916941515949094179093558b815291905290812080549293508892909190610ba0908490611950565b9091555050335f9081526005602052604081208054889290610bc3908490611950565b9091555050335f9081526006602090815260408083208a845290915281208054889290610bf1908490611950565b925050819055508560095f828254610c099190611950565b9091555050335f818152600760209081526040808320805460018181018355918552838520018990558b845260088352908320805491820181558352912001859055610c81907f00000000000000000000000000000000000000000000000000000000000000006001600160a01b03169030896115ce565b60408051878152602081018390529081018690528790339086907fd8762e24c29612970b3384043c845795cd1b5d9d6337723d06ad4af04399f1ff9060600160405180910390a4505050610cd460015f55565b9392505050565b5f8281526001602081905260409091200154610cf68161159c565b610d008383611635565b50505050565b6001600160a01b0381163314610d2f5760405163334bd91960e11b815260040160405180910390fd5b610d3982826116ab565b505050565b7f65d7a28e3265b37a6474929f336521b332c1681b933f6cb9f3376673440d862a610d688161159c565b6002544210610da65760405162461bcd60e51b815260206004820152600a602482015269139bdd081c185d5cd95960b21b60448201526064016106b3565b5f600281905560405133917f5db9ee0a495bf2e6ff9c91a7834c1ba4fdd244a5e8aa4e537bd38aeae4b073aa91a250565b6008602052815f5260405f20818154811061071d575f80fd5b610df86115a6565b5f81815260036020526040902080546001600160a01b03163314610e555760405162461bcd60e51b81526020600482015260146024820152732737ba103cb7bab91030ba3a32b9ba30ba34b7b760611b60448201526064016106b3565b600581015460ff1615610ea05760405162461bcd60e51b8152602060048201526013602482015272105d1d195cdd185d1a5bdb881cdb185cda1959606a1b60448201526064016106b3565b5f816002015411610ee45760405162461bcd60e51b815260206004820152600e60248201526d139bc81cdd185ad948199bdd5b9960921b60448201526064016106b3565b8060030154421015610f275760405162461bcd60e51b815260206004820152600c60248201526b14dd1a5b1b081b1bd8dad95960a21b60448201526064016106b3565b600281015460018201545f8181526004602052604081208054849290610f4e908490611963565b9091555050335f9081526005602052604081208054849290610f71908490611963565b9091555050335f90815260066020908152604080832084845290915281208054849290610f9f908490611963565b925050819055508160095f828254610fb79190611963565b90915550505f6002840155610ff66001600160a01b037f0000000000000000000000000000000000000000000000000000000000000000163384611716565b604051828152339085907f5bbf885d89157861119229ac0c3d414dabf442fea99c8ccaee143d33ed15f2379060200160405180910390a350505061103960015f55565b50565b60405163a2cb50ad60e01b8152600481018290525f908190309063a2cb50ad90602401602060405180830381865afa15801561107a573d5f803e3d5ffd5b505050506040513d601f19601f8201168201806040525081019061109e91906119ac565b905069021e19e0c9bab240000081106110ba5750600392915050565b683635c9adc5dea0000081106110d35750600292915050565b68056bc75e2d6310000081106110ec5750600192915050565b505f92915050565b5f9182526001602090815260408084206001600160a01b0393909316845291905290205460ff1690565b5f8181526008602090815260408083208054825181850281018501909352808352849383018282801561116e57602002820191905f5260205f20905b81548152602001906001019080831161115a575b505050505090505f5b8151811015611228575f60035f848481518110611196576111966119c3565b602002602001015181526020019081526020015f2090505f81600201541180156111c55750600581015460ff16155b1561121f5760048101546064906276a700116111e3575060c86111f5565b62278d008260040154106111f5575060965b60648183600201546112079190611976565b611211919061198d565b61121b9086611950565b9450505b50600101611177565b5050919050565b5f828152600160208190526040909120015461124a8161159c565b610d0083836116ab565b7f68e79a7bf1e0bc45d0a330c573bc367f9cf464fd326078812f301165fbda4ef161127e8161159c565b6112866115a6565b5f828152600360205260409020600581015460ff16156112da5760405162461bcd60e51b815260206004820152600f60248201526e105b1c9958591e481cdb185cda1959608a1b60448201526064016106b3565b5f81600201541161131e5760405162461bcd60e51b815260206004820152600e60248201526d139bc81cdd185ad948199bdd5b9960921b60448201526064016106b3565b600281018054825460018085015460058601805460ff19169092179091555f93849055808452600460205260408420805493946001600160a01b03909316939192859261136c908490611963565b90915550506001600160a01b0382165f9081526005602052604081208054859290611398908490611963565b90915550506001600160a01b0382165f908152600660209081526040808320848452909152812080548592906113cf908490611963565b925050819055508260095f8282546113e79190611963565b9091555050604051306024820152604481018490525f906001600160a01b037f0000000000000000000000000000000000000000000000000000000000000000169060640160408051601f198184030181529181526020820180516001600160e01b031663079cc67960e41b1790525161146191906119d7565b5f604051808303815f865af19150503d805f811461149a576040519150601f19603f3d011682016040523d82523d5f602084013e61149f565b606091505b50509050806114de5760405162461bcd60e51b815260206004820152600b60248201526a109d5c9b8819985a5b195960aa1b60448201526064016106b3565b81836001600160a01b0316887fb03fda3fe1b79698de7994cef2871f268c3aa583108ee8ae3d0742f8e49bcf9b8760405161151b91815260200190565b60405180910390a4505050505061153160015f55565b5050565b6001600160a01b0381165f9081526007602090815260409182902080548351818402810184019094528084526060939283018282801561078257602002820191905f5260205f209081548152602001906001019080831161076e5750505050509050919050565b6110398133611747565b60025f54036115c857604051633ee5aeb560e01b815260040160405180910390fd5b60025f55565b6040516001600160a01b038481166024830152838116604483015260648201839052610d009186918216906323b872dd906084015b604051602081830303815290604052915060e01b6020820180516001600160e01b038381831617835250505050611780565b5f61164083836110f4565b6116a4575f8381526001602081815260408084206001600160a01b0387168086529252808420805460ff19169093179092559051339286917f2f8788117e7eff1d82e926ec794901d17c78024a50270940304540a733656f0d9190a4506001610636565b505f610636565b5f6116b683836110f4565b156116a4575f8381526001602090815260408083206001600160a01b0386168085529252808320805460ff1916905551339286917ff6391f5c32d9c69d2a47ea670b442974b53935d1edc7fd64eb21e047a839171b9190a4506001610636565b6040516001600160a01b03838116602483015260448201839052610d3991859182169063a9059cbb90606401611603565b61175182826110f4565b6115315760405163e2517d3f60e01b81526001600160a01b0382166004820152602481018390526044016106b3565b5f8060205f8451602086015f885af18061179f576040513d5f823e3d81fd5b50505f513d915081156117b65780600114156117c3565b6001600160a01b0384163b155b15610d0057604051635274afe760e01b81526001600160a01b03851660048201526024016106b3565b5f602082840312156117fc575f80fd5b81356001600160e01b031981168114610cd4575f80fd5b5f60208284031215611823575f80fd5b5035919050565b80356001600160a01b0381168114611840575f80fd5b919050565b5f8060408385031215611856575f80fd5b61185f8361182a565b946020939093013593505050565b602080825282518282018190525f9190848201906040850190845b818110156118a457835183529284019291840191600101611888565b50909695505050505050565b5f805f606084860312156118c2575f80fd5b505081359360208301359350604090920135919050565b5f80604083850312156118ea575f80fd5b823591506118fa6020840161182a565b90509250929050565b5f8060408385031215611914575f80fd5b50508035926020909101359150565b5f60208284031215611933575f80fd5b610cd48261182a565b634e487b7160e01b5f52601160045260245ffd5b808201808211156106365761063661193c565b818103818111156106365761063661193c565b80820281158282048414176106365761063661193c565b5f826119a757634e487b7160e01b5f52601260045260245ffd5b500490565b5f602082840312156119bc575f80fd5b5051919050565b634e487b7160e01b5f52603260045260245ffd5b5f82515f5b818110156119f657602081860181015185830152016119dc565b505f92019182525091905056fea2646970667358221220b24424a4f94a131f258650280feb896425256b421a358c436cbe2eed152086d064736f6c63430008180033",
  "linkReferences": {},
  "deployedLinkReferences": {}
}