{
  "_format": "hh-sol-artifact-1",
  "contractName": "ISNADToken",
  "sourceName": "contracts/ISNADToken.sol",
  "abi": [
    {
      "inputs": [
        {
          "internalType": "address",
          "name": "admin",
          "type": "address"
        }
      ],
      "stateMutability": "nonpayable",
      "type": "constructor"
    },
    {
      "inputs": [],
      "name": "AccessControlBadConfirmation",
      "type": "error"
    },
    {
      "inputs": [
        {
          "internalType": "address",
          "name": "account",
          "type": "address"
        },
        {
          "internalType": "bytes32",
          "name": "neededRole",
          "type": "bytes32"
        }
      ],
      "name": "AccessControlUnauthorizedAccount",
      "type": "error"
    },
    {
      "inputs": [],
      "name": "CheckpointUnorderedInsertion",
      "type": "error"
    },
    {
      "inputs": [],
      "name": "ECDSAInvalidSignature",
      "type": "error"
    },
    {
      "inputs": [
        {
          "internalType": "uint256",
          "name": "length",
          "type": "uint256"
        }
      ],
      "name": "ECDSAInvalidSignatureLength",
      "type": "error"
    },
    {
      "inputs": [
        {
          "internalType": "bytes32",
          "name": "s",
          "type": "bytes32"
        }
      ],
      "name": "ECDSAInvalidSignatureS",
      "type": "error"
    },
    {
      "inputs": [
        {
          "internalType": "uint256",
          "name": "increasedSupply",
          "type": "uint256"
        },
        {
          "internalType": "uint256",
          "name": "cap",
          "type": "uint256"
        }
      ],
      "name": "ERC20ExceededSafeSupply",
      "type": "error"
    },
    {
      "inputs": [
        {
          "internalType": "address",
          "name": "spender",
          "type": "address"
        },
        {
          "internalType": "uint256",
          "name": "allowance",
          "type": "uint256"
        },
        {
          "internalType": "uint256",
          "name": "needed",
          "type": "uint256"
        }
      ],
      "name": "ERC20InsufficientAllowance",
      "type": "error"
    },
    {
      "inputs": [
        {
          "internalType": "address",
          "name": "sender",
          "type": "address"
        },
        {
          "internalType": "uint256",
          "name": "balance",
          "type": "uint256"
        },
        {
          "internalType": "uint256",
          "name": "needed",
          "type": "uint256"
        }
      ],
      "name": "ERC20InsufficientBalance",
      "type": "error"
    },
    {
      "inputs": [
        {
          "internalType": "address",
          "name": "approver",
          "type": "address"
        }
      ],
      "name": "ERC20InvalidApprover",
      "type": "error"
    },
    {
      "inputs": [
        {
          "internalType": "address",
          "name": "receiver",
          "type": "address"
        }
      ],
      "name": "ERC20InvalidReceiver",
      "type": "error"
    },
    {
      "inputs": [
        {
          "internalType": "address",
          "name": "sender",
          "type": "address"
        }
      ],
      "name": "ERC20InvalidSender",
      "type": "error"
    },
    {
      "inputs": [
        {
          "internalType": "address",
          "name": "spender",
          "type": "address"
        }
      ],
      "name": "ERC20InvalidSpender",
      "type": "error"
    },
    {
      "inputs": [
        {
          "internalType": "uint256",
          "name": "deadline",
          "type": "uint256"
        }
      ],
      "name": "ERC2612ExpiredSignature",
      "type": "error"
    },
    {
      "inputs": [
        {
          "internalType": "address",
          "name": "signer",
          "type": "address"
        },
        {
          "internalType": "address",
          "name": "owner",
          "type": "address"
        }
      ],
      "name": "ERC2612InvalidSigner",
      "type": "error"
    },
    {
      "inputs": [
        {
          "internalType": "uint256",
          "name": "timepoint",
          "type": "uint256"
        },
        {
          "internalType": "uint48",
          "name": "clock",
          "type": "uint48"
        }
      ],
      "name": "ERC5805FutureLookup",
      "type": "error"
    },
    {
      "inputs": [],
      "name": "ERC6372InconsistentClock",
      "type": "error"
    },
    {
      "inputs": [
        {
          "internalType": "address",
          "name": "account",
          "type": "address"
        },
        {
          "internalType": "uint256",
          "name": "currentNonce",
          "type": "uint256"
        }
      ],
      "name": "InvalidAccountNonce",
      "type": "error"
    },
    {
      "inputs": [],
      "name": "InvalidShortString",
      "type": "error"
    },
    {
      "inputs": [
        {
          "internalType": "uint8",
          "name": "bits",
          "type": "uint8"
        },
        {
          "internalType": "uint256",
          "name": "value",
          "type": "uint256"
        }
      ],
      "name": "SafeCastOverflowedUintDowncast",
      "type": "error"
    },
    {
      "inputs": [
        {
          "internalType": "string",
          "name": "str",
          "type": "string"
        }
      ],
      "name": "StringTooLong",
      "type": "error"
    },
    {
      "inputs": [
        {
          "internalType": "uint256",
          "name": "expiry",
          "type": "uint256"
        }
      ],
      "name": "VotesExpiredSignature",
      "type": "error"
    },
    {
      "anonymous": false,
      "inputs": [
        {
          "indexed": true,
          "internalType": "address",
          "name": "owner",
          "type": "address"
        },
        {
          "indexed": true,
          "internalType": "address",
          "name": "spender",
          "type": "address"
        },
        {
          "indexed": false,
          "internalType": "uint256",
          "name": "value",
          "type": "uint256"
        }
      ],
      "name": "Approval",
      "type": "event"
    },
    {
      "anonymous": false,
      "inputs": [
        {
          "indexed": true,
          "internalType": "address",
          "name": "delegator",
          "type": "address"
        },
        {
          "indexed": true,
          "internalType": "address",
          "name": "fromDelegate",
          "type": "address"
        },
        {
          "indexed": true,
          "internalType": "address",
          "name": "toDelegate",
          "type": "address"
        }
      ],
      "name": "DelegateChanged",
      "type": "event"
    },
    {
      "anonymous": false,
      "inputs": [
        {
          "indexed": true,
          "internalType": "address",
          "name": "delegate",
          "type": "address"
        },
        {
          "indexed": false,
          "internalType": "uint256",
          "name": "previousVotes",
          "type": "uint256"
        },
        {
          "indexed": false,
          "internalType": "uint256",
          "name": "newVotes",
          "type": "uint256"
        }
      ],
      "name": "DelegateVotesChanged",
      "type": "event"
    },
    {
      "anonymous": false,
      "inputs": [],
      "name": "EIP712DomainChanged",
      "type": "event"
    },
    {
      "anonymous": false,
      "inputs": [
        {
          "indexed": true,
          "internalType": "bytes32",
          "name": "role",
          "type": "bytes32"
        },
        {
          "indexed": true,
          "internalType": "bytes32",
          "name": "previousAdminRole",
          "type": "bytes32"
        },
        {
          "indexed": true,
          "internalType": "bytes32",
          "name": "newAdminRole",
          "type": "bytes32"
        }
      ],
      "name": "RoleAdminChanged",
      "type": "event"
    },
    {
      "anonymous": false,
      "inputs": [
        {
          "indexed": true,
          "internalType": "bytes32",
          "name": "role",
          "type": "bytes32"
        },
        {
          "indexed": true,
          "internalType": "address",
          "name": "account",
          "type": "address"
        },
        {
          "indexed": true,
          "internalType": "address",
          "name": "sender",
          "type": "address"
        }
      ],
      "name": "RoleGranted",
      "type": "event"
    },
    {
      "anonymous": false,
      "inputs": [
        {
          "indexed": true,
          "internalType": "bytes32",
          "name": "role",
          "type": "bytes32"
        },
        {
          "indexed": true,
          "internalType": "address",
          "name": "account",
          "type": "address"
        },
        {
          "indexed": true,
          "internalType": "address",
          "name": "sender",
          "type": "address"
        }
      ],
      "name": "RoleRevoked",
      "type": "event"
    },
    {
      "anonymous": false,
      "inputs": [
        {
          "indexed": true,
          "internalType": "address",
          "name": "from",
          "type": "address"
        },
        {
          "indexed": true,
          "internalType": "address",
          "name": "to",
          "type": "address"
        },
        {
          "indexed": false,
          "internalType": "uint256",
          "name": "value",
          "type": "uint256"
        }
      ],
      "name": "Transfer",
      "type": "event"
    },
    {
      "inputs": [],
      "name": "BURNER_ROLE",
      "outputs": [
        {
          "internalType": "bytes32",
          "name": "",
          "type": "bytes32"
        }
      ],
      "stateMutability": "view",
      "type": "function"
    },
    {
      "inputs": [],
      "name": "CLOCK_MODE",
      "outputs": [
        {
          "internalType": "string",
          "name": "",
          "type": "string"
        }
      ],
      "stateMutability": "view",
      "type": "function"
    },
    {
      "inputs": [],
      "name": "DEFAULT_ADMIN_ROLE",
      "outputs": [
        {
          "internalType": "bytes32",
          "name": "",
          "type": "bytes32"
        }
      ],
      "stateMutability": "view",
      "type": "function"
    },
    {
      "inputs": [],
      "name": "DOMAIN_SEPARATOR",
      "outputs": [
        {
          "internalType": "bytes32",
          "name": "",
          "type": "bytes32"
        }
      ],
      "stateMutability": "view",
      "type": "function"
    },
    {
      "inputs": [],
      "name": "INITIAL_SUPPLY",
      "outputs": [
        {
          "internalType": "uint256",
          "name": "",
          "type": "uint256"
        }
      ],
      "stateMutability": "view",
      "type": "function"
    },
    {
      "inputs": [],
      "name": "MAX_SUPPLY",
      "outputs": [
        {
          "internalType": "uint256",
          "name": "",
          "type": "uint256"
        }
      ],
      "stateMutability": "view",
      "type": "function"
    },
    {
      "inputs": [],
      "name": "MINTER_ROLE",
      "outputs": [
        {
          "internalType": "bytes32",
          "name": "",
          "type": "bytes32"
        }
      ],
      "stateMutability": "view",
      "type": "function"
    },
    {
      "inputs": [
        {
          "internalType": "address",
          "name": "owner",
          "type": "address"
        },
        {
          "internalType": "address",
          "name": "spender",
          "type": "address"
        }
      ],
      "name": "allowance",
      "outputs": [
        {
          "internalType": "uint256",
          "name": "",
          "type": "uint256"
        }
      ],
      "stateMutability": "view",
      "type": "function"
    },
    {
      "inputs": [
        {
          "internalType": "address",
          "name": "spender",
          "type": "address"
        },
        {
          "internalType": "uint256",
          "name": "value",
          "type": "uint256"
        }
      ],
      "name": "approve",
      "outputs": [
        {
          "internalType": "bool",
          "name": "",
          "type": "bool"
        }
      ],
      "stateMutability": "nonpayable",
      "type": "function"
    },
    {
      "inputs": [
        {
          "internalType": "address",
          "name": "account",
          "type": "address"
        }
      ],
      "name": "balanceOf",
      "outputs": [
        {
          "internalType": "uint256",
          "name": "",
          "type": "uint256"
        }
      ],
      "stateMutability": "view",
      "type": "function"
    },
    {
      "inputs": [
        {
          "internalType": "address",
          "name": "from",
          "type": "address"
        },
        {
          "internalType": "uint256",
          "name": "amount",
          "type": "uint256"
        }
      ],
      "name": "burnFrom",
      "outputs": [],
      "stateMutability": "nonpayable",
      "type": "function"
    },
    {
      "inputs": [
        {
          "internalType": "address",
          "name": "account",
          "type": "address"
        },
        {
          "internalType": "uint32",
          "name": "pos",
          "type": "uint32"
        }
      ],
      "name": "checkpoints",
      "outputs": [
        {
          "components": [
            {
              "internalType": "uint48",
              "name": "_key",
              "type": "uint48"
            },
            {
              "internalType": "uint208",
              "name": "_value",
              "type": "uint208"
            }
          ],
          "internalType": "struct Checkpoints.Checkpoint208",
          "name": "",
          "type": "tuple"
        }
      ],
      "stateMutability": "view",
      "type": "function"
    },
    {
      "inputs": [],
      "name": "clock",
      "outputs": [
        {
          "internalType": "uint48",
          "name": "",
          "type": "uint48"
        }
      ],
      "stateMutability": "view",
      "type": "function"
    },
    {
      "inputs": [],
      "name": "decimals",
      "outputs": [
        {
          "internalType": "uint8",
          "name": "",
          "type": "uint8"
        }
      ],
      "stateMutability": "view",
      "type": "function"
    },
    {
      "inputs": [
        {
          "internalType": "address",
          "name": "delegatee",
          "type": "address"
        }
      ],
      "name": "delegate",
      "outputs": [],
      "stateMutability": "nonpayable",
      "type": "function"
    },
    {
      "inputs": [
        {
          "internalType": "address",
          "name": "delegatee",
          "type": "address"
        },
        {
          "internalType": "uint256",
          "name": "nonce",
          "type": "uint256"
        },
        {
          "internalType": "uint256",
          "name": "expiry",
          "type": "uint256"
        },
        {
          "internalType": "uint8",
          "name": "v",
          "type": "uint8"
        },
        {
          "internalType": "bytes32",
          "name": "r",
          "type": "bytes32"
        },
        {
          "internalType": "bytes32",
          "name": "s",
          "type": "bytes32"
        }
      ],
      "name": "delegateBySig",
      "outputs": [],
      "stateMutability": "nonpayable",
      "type": "function"
    },
    {
      "inputs": [
        {
          "internalType": "address",
          "name": "account",
          "type": "address"
        }
      ],
      "name": "delegates",
      "outputs": [
        {
          "internalType": "address",
          "name": "",
          "type": "address"
        }
      ],
      "stateMutability": "view",
      "type": "function"
    },
    {
      "inputs": [],
      "name": "eip712Domain",
      "outputs": [
        {
          "internalType": "bytes1",
          "name": "fields",
          "type": "bytes1"
        },
        {
          "internalType": "string",
          "name": "name",
          "type": "string"
        },
        {
          "internalType": "string",
          "name": "version",
          "type": "string"
        },
        {
          "internalType": "uint256",
          "name": "chainId",
          "type": "uint256"
        },
        {
          "internalType": "address",
          "name": "verifyingContract",
          "type": "address"
        },
        {
          "internalType": "bytes32",
          "name": "salt",
          "type": "bytes32"
        },
        {
          "internalType": "uint256[]",
          "name": "extensions",
          "type": "uint256[]"
        }
      ],
      "stateMutability": "view",
      "type": "function"
    },
    {
      "inputs": [
        {
          "internalType": "uint256",
          "name": "timepoint",
          "type": "uint256"
        }
      ],
      "name": "getPastTotalSupply",
      "outputs": [
        {
          "internalType": "uint256",
          "name": "",
          "type": "uint256"
        }
      ],
      "stateMutability": "view",
      "type": "function"
    },
    {
      "inputs": [
        {
          "internalType": "address",
          "name": "account",
          "type": "address"
        },
        {
          "internalType": "uint256",
          "name": "blockNumber",
          "type": "uint256"
        }
      ],
      "name": "getPastVotes",
      "outputs": [
        {
          "internalType": "uint256",
          "name": "",
          "type": "uint256"
        }
      ],
      "stateMutability": "view",
      "type": "function"
    },
    {
      "inputs": [
        {
          "internalType": "bytes32",
          "name": "role",
          "type": "bytes32"
        }
      ],
      "name": "getRoleAdmin",
      "outputs": [
        {
          "internalType": "bytes32",
          "name": "",
          "type": "bytes32"
        }
      ],
      "stateMutability": "view",
      "type": "function"
    },
    {
      "inputs": [
        {
          "internalType": "address",
          "name": "account",
          "type": "address"
        }
      ],
      "name": "getVotes",
      "outputs": [
        {
          "internalType": "uint256",
          "name": "",
          "type": "uint256"
        }
      ],
      "stateMutability": "view",
      "type": "function"
    },
    {
      "inputs": [
        {
          "internalType": "bytes32",
          "name": "role",
          "type": "bytes32"
        },
        {
          "internalType": "address",
          "name": "account",
          "type": "address"
        }
      ],
      "name": "grantRole",
      "outputs": [],
      "stateMutability": "nonpayable",
      "type": "function"
    },
    {
      "inputs": [
        {
          "internalType": "bytes32",
          "name": "role",
          "type": "bytes32"
        },
        {
          "internalType": "address",
          "name": "account",
          "type": "address"
        }
      ],
      "name": "hasRole",
      "outputs": [
        {
          "internalType": "bool",
          "name": "",
          "type": "bool"
        }
      ],
      "stateMutability": "view",
      "type": "function"
    },
    {
      "inputs": [
        {
          "internalType": "address",
          "name": "to",
          "type": "address"
        },
        {
          "internalType": "uint256",
          "name": "amount",
          "type": "uint256"
        }
      ],
      "name": "mint",
      "outputs": [],
      "stateMutability": "nonpayable",
      "type": "function"
    },
    {
      "inputs": [],
      "name": "name",
      "outputs": [
        {
          "internalType": "string",
          "name": "",
          "type": "string"
        }
      ],
      "stateMutability": "view",
      "type": "function"
    },
    {
      "inputs": [
        {
          "internalType": "address",
          "name": "owner",
          "type": "address"
        }
      ],
      "name": "nonces",
      "outputs": [
        {
          "internalType": "uint256",
          "name": "",
          "type": "uint256"
        }
      ],
      "stateMutability": "view",
      "type": "function"
    },
    {
      "inputs": [
        {
          "internalType": "address",
          "name": "account",
          "type": "address"
        }
      ],
      "name": "numCheckpoints",
      "outputs": [
        {
          "internalType": "uint32",
          "name": "",
          "type": "uint32"
        }
      ],
      "stateMutability": "view",
      "type": "function"
    },
    {
      "inputs": [
        {
          "internalType": "address",
          "name": "owner",
          "type": "address"
        },
        {
          "internalType": "address",
          "name": "spender",
          "type": "address"
        },
        {
          "internalType": "uint256",
          "name": "value",
          "type": "uint256"
        },
        {
          "internalType": "uint256",
          "name": "deadline",
          "type": "uint256"
        },
        {
          "internalType": "uint8",
          "name": "v",
          "type": "uint8"
        },
        {
          "internalType": "bytes32",
          "name": "r",
          "type": "bytes32"
        },
        {
          "internalType": "bytes32",
          "name": "s",
          "type": "bytes32"
        }
      ],
      "name": "permit",
      "outputs": [],
      "stateMutability": "nonpayable",
      "type": "function"
    },
    {
      "inputs": [
        {
          "internalType": "bytes32",
          "name": "role",
          "type": "bytes32"
        },
        {
          "internalType": "address",
          "name": "callerConfirmation",
          "type": "address"
        }
      ],
      "name": "renounceRole",
      "outputs": [],
      "stateMutability": "nonpayable",
      "type": "function"
    },
    {
      "inputs": [
        {
          "internalType": "bytes32",
          "name": "role",
          "type": "bytes32"
        },
        {
          "internalType": "address",
          "name": "account",
          "type": "address"
        }
      ],
      "name": "revokeRole",
      "outputs": [],
      "stateMutability": "nonpayable",
      "type": "function"
    },
    {
      "inputs": [
        {
          "internalType": "bytes4",
          "name": "interfaceId",
          "type": "bytes4"
        }
      ],
      "name": "supportsInterface",
      "outputs": [
        {
          "internalType": "bool",
          "name": "",
          "type": "bool"
        }
      ],
      "stateMutability": "view",
      "type": "function"
    },
    {
      "inputs": [],
      "name": "symbol",
      "outputs": [
        {
          "internalType": "string",
          "name": "",
          "type": "string"
        }
      ],
      "stateMutability": "view",
      "type": "function"
    },
    {
      "inputs": [],
      "name": "totalSupply",
      "outputs": [
        {
          "internalType": "uint256",
          "name": "",
          "type": "uint256"
        }
      ],
      "stateMutability": "view",
      "type": "function"
    },
    {
      "inputs": [
        {
          "internalType": "address",
          "name": "to",
          "type": "address"
        },
        {
          "internalType": "uint256",
          "name": "value",
          "type": "uint256"
        }
      ],
      "name": "transfer",
      "outputs": [
        {
          "internalType": "bool",
          "name": "",
          "type": "bool"
        }
      ],
      "stateMutability": "nonpayable",
      "type": "function"
    },
    {
      "inputs": [
        {
          "internalType": "address",
          "name": "from",
          "type": "address"
        },
        {
          "internalType": "address",
          "name": "to",
          "type": "address"
        },
        {
          "internalType": "uint256",
          "name": "value",
          "type": "uint256"
        }
      ],
      "name": "transferFrom",
      "outputs": [
        {
          "internalType": "bool",
          "name": "",
          "type": "bool"
        }
      ],
      "stateMutability": "nonpayable",
      "type": "function"
    }
  ],
  "bytecode": "0x6101606040523480156200001257600080fd5b5060405162003026380380620030268339810160408190526200003591620009e1565b604051806040016040528060058152602001641254d3905160da1b81525080604051806040016040528060018152602001603160f81b815250604051806040016040528060058152602001641254d3905160da1b815250604051806040016040528060058152602001641254d3905160da1b8152508160039081620000bb919062000ab2565b506004620000ca828262000ab2565b50620000dc915083905060056200020d565b61012052620000ed8160066200020d565b61014052815160208084019190912060e052815190820120610100524660a0526200017b60e05161010051604080517f8b73c3c69bb8fe3d512ecc4cf759cc79239f7b179b0ffacaa9a75d522b39400f60208201529081019290925260608201524660808201523060a082015260009060c00160405160208183030381529060405280519060200120905090565b60805250503060c052506001600160a01b038116620001e15760405162461bcd60e51b815260206004820152601560248201527f496e76616c69642061646d696e2061646472657373000000000000000000000060448201526064015b60405180910390fd5b620001ee60008262000246565b5062000206816a52b7d2dcc80cd2e4000000620002f8565b5062000c83565b60006020835110156200022d57620002258362000336565b905062000240565b816200023a848262000ab2565b5060ff90505b92915050565b6000828152600b602090815260408083206001600160a01b038516845290915281205460ff16620002ef576000838152600b602090815260408083206001600160a01b03861684529091529020805460ff19166001179055620002a63390565b6001600160a01b0316826001600160a01b0316847f2f8788117e7eff1d82e926ec794901d17c78024a50270940304540a733656f0d60405160405180910390a450600162000240565b50600062000240565b6001600160a01b038216620003245760405163ec442f0560e01b815260006004820152602401620001d8565b620003326000838362000379565b5050565b600080829050601f8151111562000364578260405163305a27a960e01b8152600401620001d8919062000b7e565b8051620003718262000bcf565b179392505050565b620003868383836200038b565b505050565b62000398838383620003fa565b6001600160a01b038316620003ed576000620003b360025490565b90506001600160d01b0380821115620003ea57604051630e58ae9360e11b81526004810183905260248101829052604401620001d8565b50505b620003868383836200052d565b6001600160a01b038316620004295780600260008282546200041d919062000c0a565b909155506200049d9050565b6001600160a01b038316600090815260208190526040902054818110156200047e5760405163391434e360e21b81526001600160a01b03851660048201526024810182905260448101839052606401620001d8565b6001600160a01b03841660009081526020819052604090209082900390555b6001600160a01b038216620004bb57600280548290039055620004da565b6001600160a01b03821660009081526020819052604090208054820190555b816001600160a01b0316836001600160a01b03167fddf252ad1be2c89b69c2b068fc378daa952ba7f163c4a11628f55a4df523b3ef836040516200052091815260200190565b60405180910390a3505050565b6001600160a01b03831662000562576200055f600a62000bbe620005c560201b176200055984620005da565b62000614565b50505b6001600160a01b03821662000591576200058e600a62000bca6200065160201b176200055984620005da565b50505b6001600160a01b0383811660009081526008602052604080822054858416835291205462000386929182169116836200065f565b6000620005d3828462000c20565b9392505050565b60006001600160d01b0382111562000610576040516306dfcc6560e41b815260d0600482015260248101839052604401620001d8565b5090565b6000806200064462000625620007c6565b6200063b6200063488620007d7565b868860201c565b87919062000826565b915091505b935093915050565b6000620005d3828462000c4a565b816001600160a01b0316836001600160a01b031614158015620006825750600081115b1562000386576001600160a01b0383161562000725576001600160a01b038316600090815260096020908152604082208291620006d0919062000651901b62000bca176200055986620005da565b6001600160d01b031691506001600160d01b03169150846001600160a01b03166000805160206200300683398151915283836040516200071a929190918252602082015260400190565b60405180910390a250505b6001600160a01b0382161562000386576001600160a01b0382166000908152600960209081526040822082916200076d9190620005c5901b62000bbe176200055986620005da565b6001600160d01b031691506001600160d01b03169150836001600160a01b0316600080516020620030068339815191528383604051620007b7929190918252602082015260400190565b60405180910390a25050505050565b6000620007d262000836565b905090565b805460009080156200081d576200080383620007f560018462000c6d565b600091825260209091200190565b54660100000000000090046001600160d01b0316620005d3565b60009392505050565b6000806200064485858562000843565b6000620007d243620009ac565b8254600090819080156200094d5760006200086587620007f560018562000c6d565b805490915065ffffffffffff80821691660100000000000090046001600160d01b0316908816821115620008ac57604051632520601d60e01b815260040160405180910390fd5b8765ffffffffffff168265ffffffffffff1603620008ea57825465ffffffffffff1666010000000000006001600160d01b038916021783556200093e565b6040805180820190915265ffffffffffff808a1682526001600160d01b03808a1660208085019182528d54600181018f5560008f815291909120945191519092166601000000000000029216919091179101555b94508593506200064992505050565b50506040805180820190915265ffffffffffff80851682526001600160d01b0380851660208085019182528854600181018a5560008a815291822095519251909316660100000000000002919093161792019190915590508162000649565b600065ffffffffffff82111562000610576040516306dfcc6560e41b81526030600482015260248101839052604401620001d8565b600060208284031215620009f457600080fd5b81516001600160a01b0381168114620005d357600080fd5b634e487b7160e01b600052604160045260246000fd5b600181811c9082168062000a3757607f821691505b60208210810362000a5857634e487b7160e01b600052602260045260246000fd5b50919050565b601f82111562000386576000816000526020600020601f850160051c8101602086101562000a895750805b601f850160051c820191505b8181101562000aaa5782815560010162000a95565b505050505050565b81516001600160401b0381111562000ace5762000ace62000a0c565b62000ae68162000adf845462000a22565b8462000a5e565b602080601f83116001811462000b1e576000841562000b055750858301515b600019600386901b1c1916600185901b17855562000aaa565b600085815260208120601f198616915b8281101562000b4f5788860151825594840194600190910190840162000b2e565b508582101562000b6e5787850151600019600388901b60f8161c191681555b5050505050600190811b01905550565b60006020808352835180602085015260005b8181101562000bae5785810183015185820160400152820162000b90565b506000604082860101526040601f19601f8301168501019250505092915050565b8051602080830151919081101562000a585760001960209190910360031b1b16919050565b634e487b7160e01b600052601160045260246000fd5b8082018082111562000240576200024062000bf4565b6001600160d01b0381811683821601908082111562000c435762000c4362000bf4565b5092915050565b6001600160d01b0382811682821603908082111562000c435762000c4362000bf4565b8181038181111562000240576200024062000bf4565b60805160a05160c05160e05161010051610120516101405161232862000cde600039600061108d0152600061106001526000610e3601526000610e0e01526000610d6901526000610d9301526000610dbd01526123286000f3fe608060405234801561001057600080fd5b506004361061021c5760003560e01c80636fcfff45116101255780639ab24eb0116100ad578063d505accf1161007c578063d505accf146104e9578063d5391393146104fc578063d547741f14610523578063dd62ed3e14610536578063f1127ed81461056f57600080fd5b80639ab24eb0146104a8578063a217fddf146104bb578063a9059cbb146104c3578063c3cda520146104d657600080fd5b806384b0196e116100f457806384b0196e146104405780638e539e8c1461045b57806391d148541461046e57806391ddadf41461048157806395d89b41146104a057600080fd5b80636fcfff45146103c957806370a08231146103f157806379cc67901461041a5780637ecebe001461042d57600080fd5b8063313ce567116101a85780633a46b1a8116101775780633a46b1a81461034457806340c10f19146103575780634bf5d7e91461036a578063587cde1e146103725780635c19a95c146103b657600080fd5b8063313ce5671461030757806332cb6b0c146103165780633644e5151461032957806336568abe1461033157600080fd5b806323b872dd116101ef57806323b872dd14610283578063248a9ca314610296578063282c51f3146102b95780632f2ff15d146102e05780632ff2e9dc146102f557600080fd5b806301ffc9a71461022157806306fdde0314610249578063095ea7b31461025e57806318160ddd14610271575b600080fd5b61023461022f366004611e96565b6105ae565b60405190151581526020015b60405180910390f35b6102516105e5565b6040516102409190611f06565b61023461026c366004611f35565b610677565b6002545b604051908152602001610240565b610234610291366004611f5f565b61068f565b6102756102a4366004611f9b565b6000908152600b602052604090206001015490565b6102757f3c11d16cbaffd01df69ce1c404f6340ee057498f5f00246190ea54220576a84881565b6102f36102ee366004611fb4565b6106b3565b005b6102756a52b7d2dcc80cd2e400000081565b60405160128152602001610240565b6102756b033b2e3c9fd0803ce800000081565b6102756106de565b6102f361033f366004611fb4565b6106ed565b610275610352366004611f35565b610725565b6102f3610365366004611f35565b610738565b6102516107d5565b61039e610380366004611fe0565b6001600160a01b039081166000908152600860205260409020541690565b6040516001600160a01b039091168152602001610240565b6102f36103c4366004611fe0565b61084d565b6103dc6103d7366004611fe0565b61085c565b60405163ffffffff9091168152602001610240565b6102756103ff366004611fe0565b6001600160a01b031660009081526020819052604090205490565b6102f3610428366004611f35565b610867565b61027561043b366004611fe0565b61089b565b6104486108a6565b6040516102409796959493929190611ffb565b610275610469366004611f9b565b6108ec565b61023461047c366004611fb4565b610911565b61048961093c565b60405165ffffffffffff9091168152602001610240565b610251610946565b6102756104b6366004611fe0565b610955565b610275600081565b6102346104d1366004611f35565b610976565b6102f36104e43660046120a5565b610984565b6102f36104f73660046120fd565b610a41565b6102757f9f2df0fed2c77648de5860a4cc508cd0818c85b8b8a1ab4ceeef8d981c8956a681565b6102f3610531366004611fb4565b610b7b565b610275610544366004612167565b6001600160a01b03918216600090815260016020908152604080832093909416825291909152205490565b61058261057d366004612191565b610ba0565b60408051825165ffffffffffff1681526020928301516001600160d01b03169281019290925201610240565b60006001600160e01b03198216637965db0b60e01b14806105df57506301ffc9a760e01b6001600160e01b03198316145b92915050565b6060600380546105f4906121d1565b80601f0160208091040260200160405190810160405280929190818152602001828054610620906121d1565b801561066d5780601f106106425761010080835404028352916020019161066d565b820191906000526020600020905b81548152906001019060200180831161065057829003601f168201915b5050505050905090565b600033610685818585610bd6565b5060019392505050565b60003361069d858285610be3565b6106a8858585610c5c565b506001949350505050565b6000828152600b60205260409020600101546106ce81610cbb565b6106d88383610cc8565b50505050565b60006106e8610d5c565b905090565b6001600160a01b03811633146107165760405163334bd91960e11b815260040160405180910390fd5b6107208282610e87565b505050565b60006107318383610ef4565b9392505050565b7f9f2df0fed2c77648de5860a4cc508cd0818c85b8b8a1ab4ceeef8d981c8956a661076281610cbb565b6b033b2e3c9fd0803ce80000008261077960025490565b6107839190612221565b11156107cb5760405162461bcd60e51b815260206004820152601260248201527145786365656473206d617820737570706c7960701b60448201526064015b60405180910390fd5b6107208383610f30565b60606107df610f66565b65ffffffffffff166107ef61093c565b65ffffffffffff1614610815576040516301bfc1c560e61b815260040160405180910390fd5b5060408051808201909152601d81527f6d6f64653d626c6f636b6e756d6265722666726f6d3d64656661756c74000000602082015290565b336108588183610f71565b5050565b60006105df82610fe3565b7f3c11d16cbaffd01df69ce1c404f6340ee057498f5f00246190ea54220576a84861089181610cbb565b6107208383611005565b60006105df8261103b565b6000606080600080600060606108ba611059565b6108c2611086565b60408051600080825260208201909252600f60f81b9b939a50919850469750309650945092509050565b60006109026108fa836110b3565b600a90611102565b6001600160d01b031692915050565b6000918252600b602090815260408084206001600160a01b0393909316845291905290205460ff1690565b60006106e8610f66565b6060600480546105f4906121d1565b6001600160a01b0381166000908152600960205260408120610902906111b8565b600033610685818585610c5c565b834211156109a857604051632341d78760e11b8152600481018590526024016107c2565b604080517fe48329057bfd03d55e49b547132e39cffd9c1820ad7b9d4c5307691425d15adf60208201526001600160a01b038816918101919091526060810186905260808101859052600090610a2290610a1a9060a001604051602081830303815290604052805190602001206111f1565b85858561121e565b9050610a2e818761124c565b610a388188610f71565b50505050505050565b83421115610a655760405163313c898160e11b8152600481018590526024016107c2565b60007f6e71edae12b1b97f4d1f60370fef10105fa2faae0126114a169c64845d6126c9888888610ab28c6001600160a01b0316600090815260076020526040902080546001810190915590565b6040805160208101969096526001600160a01b0394851690860152929091166060840152608083015260a082015260c0810186905260e0016040516020818303038152906040528051906020012090506000610b0d826111f1565b90506000610b1d8287878761121e565b9050896001600160a01b0316816001600160a01b031614610b64576040516325c0072360e11b81526001600160a01b0380831660048301528b1660248201526044016107c2565b610b6f8a8a8a610bd6565b50505050505050505050565b6000828152600b6020526040902060010154610b9681610cbb565b6106d88383610e87565b6040805180820190915260008082526020820152610731838361129f565b60006107318284612234565b6000610731828461225b565b61072083838360016112d5565b6001600160a01b038381166000908152600160209081526040808320938616835292905220546000198110156106d85781811015610c4d57604051637dc7a0d960e11b81526001600160a01b038416600482015260248101829052604481018390526064016107c2565b6106d8848484840360006112d5565b6001600160a01b038316610c8657604051634b637e8f60e11b8152600060048201526024016107c2565b6001600160a01b038216610cb05760405163ec442f0560e01b8152600060048201526024016107c2565b6107208383836113aa565b610cc581336113b5565b50565b6000610cd48383610911565b610d54576000838152600b602090815260408083206001600160a01b03861684529091529020805460ff19166001179055610d0c3390565b6001600160a01b0316826001600160a01b0316847f2f8788117e7eff1d82e926ec794901d17c78024a50270940304540a733656f0d60405160405180910390a45060016105df565b5060006105df565b6000306001600160a01b037f000000000000000000000000000000000000000000000000000000000000000016148015610db557507f000000000000000000000000000000000000000000000000000000000000000046145b15610ddf57507f000000000000000000000000000000000000000000000000000000000000000090565b6106e8604080517f8b73c3c69bb8fe3d512ecc4cf759cc79239f7b179b0ffacaa9a75d522b39400f60208201527f0000000000000000000000000000000000000000000000000000000000000000918101919091527f000000000000000000000000000000000000000000000000000000000000000060608201524660808201523060a082015260009060c00160405160208183030381529060405280519060200120905090565b6000610e938383610911565b15610d54576000838152600b602090815260408083206001600160a01b0386168085529252808320805460ff1916905551339286917ff6391f5c32d9c69d2a47ea670b442974b53935d1edc7fd64eb21e047a839171b9190a45060016105df565b6000610f20610f02836110b3565b6001600160a01b038516600090815260096020526040902090611102565b6001600160d01b03169392505050565b6001600160a01b038216610f5a5760405163ec442f0560e01b8152600060048201526024016107c2565b610858600083836113aa565b60006106e8436113ee565b6001600160a01b0382811660008181526008602052604080822080548686166001600160a01b0319821681179092559151919094169392849290917f3134e8a2e6d97e929a7e54011ea5485d7d196dd5f0ba4d4ef95803e8e3fc257f9190a46107208183610fde86611425565b611443565b6001600160a01b0381166000908152600960205260408120546105df906115af565b6001600160a01b03821661102f57604051634b637e8f60e11b8152600060048201526024016107c2565b610858826000836113aa565b6001600160a01b0381166000908152600760205260408120546105df565b60606106e87f000000000000000000000000000000000000000000000000000000000000000060056115e0565b60606106e87f000000000000000000000000000000000000000000000000000000000000000060066115e0565b6000806110be61093c565b90508065ffffffffffff1683106110f957604051637669fc0f60e11b81526004810184905265ffffffffffff821660248201526044016107c2565b610731836113ee565b81546000908181600581111561116157600061111d8461168b565b611127908561227b565b60008881526020902090915081015465ffffffffffff90811690871610156111515780915061115f565b61115c816001612221565b92505b505b600061116f878785856117e4565b905080156111aa576111948761118660018461227b565b600091825260209091200190565b54600160301b90046001600160d01b03166111ad565b60005b979650505050505050565b805460009080156111e8576111d28361118660018461227b565b54600160301b90046001600160d01b0316610731565b60009392505050565b60006105df6111fe610d5c565b8360405161190160f01b8152600281019290925260228201526042902090565b60008060008061123088888888611846565b9250925092506112408282611915565b50909695505050505050565b6001600160a01b0382166000908152600760205260409020805460018101909155818114610720576040516301d4b62360e61b81526001600160a01b0384166004820152602481018290526044016107c2565b60408051808201909152600080825260208201526001600160a01b038316600090815260096020526040902061073190836119ce565b6001600160a01b0384166112ff5760405163e602df0560e01b8152600060048201526024016107c2565b6001600160a01b03831661132957604051634a1406b160e11b8152600060048201526024016107c2565b6001600160a01b03808516600090815260016020908152604080832093871683529290522082905580156106d857826001600160a01b0316846001600160a01b03167f8c5be1e5ebec7d5bd14f71427d1e84f3dd0314c0f7b2291e5b200ac8c7c3b9258460405161139c91815260200190565b60405180910390a350505050565b610720838383611a3e565b6113bf8282610911565b6108585760405163e2517d3f60e01b81526001600160a01b0382166004820152602481018390526044016107c2565b600065ffffffffffff821115611421576040516306dfcc6560e41b815260306004820152602481018390526044016107c2565b5090565b6001600160a01b0381166000908152602081905260408120546105df565b816001600160a01b0316836001600160a01b0316141580156114655750600081115b15610720576001600160a01b0383161561150d576001600160a01b038316600090815260096020526040812081906114a890610bca6114a386611aa5565b611ad9565b6001600160d01b031691506001600160d01b03169150846001600160a01b03167fdec2bacdd2f05b59de34da9b523dff8be42e5e38e818c82fdb0bae774387a7248383604051611502929190918252602082015260400190565b60405180910390a250505b6001600160a01b03821615610720576001600160a01b0382166000908152600960205260408120819061154690610bbe6114a386611aa5565b6001600160d01b031691506001600160d01b03169150836001600160a01b03167fdec2bacdd2f05b59de34da9b523dff8be42e5e38e818c82fdb0bae774387a72483836040516115a0929190918252602082015260400190565b60405180910390a25050505050565b600063ffffffff821115611421576040516306dfcc6560e41b815260206004820152602481018390526044016107c2565b606060ff83146115fa576115f383611b12565b90506105df565b818054611606906121d1565b80601f0160208091040260200160405190810160405280929190818152602001828054611632906121d1565b801561167f5780601f106116545761010080835404028352916020019161167f565b820191906000526020600020905b81548152906001019060200180831161166257829003601f168201915b505050505090506105df565b600060018211611699575090565b816001600160801b82106116b25760809190911c9060401b5b6801000000000000000082106116cd5760409190911c9060201b5b64010000000082106116e45760209190911c9060101b5b6201000082106116f95760109190911c9060081b5b610100821061170d5760089190911c9060041b5b601082106117205760049190911c9060021b5b6004821061172c5760011b5b600302600190811c908185816117445761174461228e565b048201901c9050600181858161175c5761175c61228e565b048201901c905060018185816117745761177461228e565b048201901c9050600181858161178c5761178c61228e565b048201901c905060018185816117a4576117a461228e565b048201901c905060018185816117bc576117bc61228e565b048201901c90506117db8185816117d5576117d561228e565b04821190565b90039392505050565b60005b8183101561183e5760006117fb8484611b51565b60008781526020902090915065ffffffffffff86169082015465ffffffffffff16111561182a57809250611838565b611835816001612221565b93505b506117e7565b509392505050565b600080807f7fffffffffffffffffffffffffffffff5d576e7357a4501ddfe92f46681b20a0841115611881575060009150600390508261190b565b604080516000808252602082018084528a905260ff891692820192909252606081018790526080810186905260019060a0016020604051602081039080840390855afa1580156118d5573d6000803e3d6000fd5b5050604051601f1901519150506001600160a01b0381166119015750600092506001915082905061190b565b9250600091508190505b9450945094915050565b6000826003811115611929576119296122a4565b03611932575050565b6001826003811115611946576119466122a4565b036119645760405163f645eedf60e01b815260040160405180910390fd5b6002826003811115611978576119786122a4565b036119995760405163fce698f760e01b8152600481018290526024016107c2565b60038260038111156119ad576119ad6122a4565b03610858576040516335e2f38360e21b8152600481018290526024016107c2565b6040805180820190915260008082526020820152826000018263ffffffff16815481106119fd576119fd6122ba565b60009182526020918290206040805180820190915291015465ffffffffffff81168252600160301b90046001600160d01b0316918101919091529392505050565b611a49838383611b6c565b6001600160a01b038316611a9a576000611a6260025490565b90506001600160d01b0380821115611a9757604051630e58ae9360e11b815260048101839052602481018290526044016107c2565b50505b610720838383611c96565b60006001600160d01b03821115611421576040516306dfcc6560e41b815260d06004820152602481018390526044016107c2565b600080611b05611ae761093c565b611afd611af3886111b8565b868863ffffffff16565b879190611d0c565b915091505b935093915050565b60606000611b1f83611d1a565b604080516020808252818301909252919250600091906020820181803683375050509182525060208101929092525090565b6000611b6060028484186122d0565b61073190848416612221565b6001600160a01b038316611b97578060026000828254611b8c9190612221565b90915550611c099050565b6001600160a01b03831660009081526020819052604090205481811015611bea5760405163391434e360e21b81526001600160a01b038516600482015260248101829052604481018390526064016107c2565b6001600160a01b03841660009081526020819052604090209082900390555b6001600160a01b038216611c2557600280548290039055611c44565b6001600160a01b03821660009081526020819052604090208054820190555b816001600160a01b0316836001600160a01b03167fddf252ad1be2c89b69c2b068fc378daa952ba7f163c4a11628f55a4df523b3ef83604051611c8991815260200190565b60405180910390a3505050565b6001600160a01b038316611cb857611cb5600a610bbe6114a384611aa5565b50505b6001600160a01b038216611cda57611cd7600a610bca6114a384611aa5565b50505b6001600160a01b0383811660009081526008602052604080822054858416835291205461072092918216911683611443565b600080611b05858585611d42565b600060ff8216601f8111156105df57604051632cd44ac360e21b815260040160405180910390fd5b825460009081908015611e3b576000611d608761118660018561227b565b805490915065ffffffffffff80821691600160301b90046001600160d01b0316908816821115611da357604051632520601d60e01b815260040160405180910390fd5b8765ffffffffffff168265ffffffffffff1603611ddc57825465ffffffffffff16600160301b6001600160d01b03891602178355611e2d565b6040805180820190915265ffffffffffff808a1682526001600160d01b03808a1660208085019182528d54600181018f5560008f81529190912094519151909216600160301b029216919091179101555b9450859350611b0a92505050565b50506040805180820190915265ffffffffffff80851682526001600160d01b0380851660208085019182528854600181018a5560008a815291822095519251909316600160301b029190931617920191909155905081611b0a565b600060208284031215611ea857600080fd5b81356001600160e01b03198116811461073157600080fd5b6000815180845260005b81811015611ee657602081850181015186830182015201611eca565b506000602082860101526020601f19601f83011685010191505092915050565b6020815260006107316020830184611ec0565b80356001600160a01b0381168114611f3057600080fd5b919050565b60008060408385031215611f4857600080fd5b611f5183611f19565b946020939093013593505050565b600080600060608486031215611f7457600080fd5b611f7d84611f19565b9250611f8b60208501611f19565b9150604084013590509250925092565b600060208284031215611fad57600080fd5b5035919050565b60008060408385031215611fc757600080fd5b82359150611fd760208401611f19565b90509250929050565b600060208284031215611ff257600080fd5b61073182611f19565b60ff60f81b881681526000602060e0602084015261201c60e084018a611ec0565b838103604085015261202e818a611ec0565b606085018990526001600160a01b038816608086015260a0850187905284810360c08601528551808252602080880193509091019060005b8181101561208257835183529284019291840191600101612066565b50909c9b505050505050505050505050565b803560ff81168114611f3057600080fd5b60008060008060008060c087890312156120be57600080fd5b6120c787611f19565b955060208701359450604087013593506120e360608801612094565b92506080870135915060a087013590509295509295509295565b600080600080600080600060e0888a03121561211857600080fd5b61212188611f19565b965061212f60208901611f19565b9550604088013594506060880135935061214b60808901612094565b925060a0880135915060c0880135905092959891949750929550565b6000806040838503121561217a57600080fd5b61218383611f19565b9150611fd760208401611f19565b600080604083850312156121a457600080fd5b6121ad83611f19565b9150602083013563ffffffff811681146121c657600080fd5b809150509250929050565b600181811c908216806121e557607f821691505b60208210810361220557634e487b7160e01b600052602260045260246000fd5b50919050565b634e487b7160e01b600052601160045260246000fd5b808201808211156105df576105df61220b565b6001600160d01b038181168382160190808211156122545761225461220b565b5092915050565b6001600160d01b038281168282160390808211156122545761225461220b565b818103818111156105df576105df61220b565b634e487b7160e01b600052601260045260246000fd5b634e487b7160e01b600052602160045260246000fd5b634e487b7160e01b600052603260045260246000fd5b6000826122ed57634e487b7160e01b600052601260045260246000fd5b50049056fea26469706673582212200192aa1a0dda5b7a735418edd09d65df4eb0800151fb6ee57c0497604daec66d64736f6c63430008180033dec2bacdd2f05b59de34da9b523dff8be42e5e38e818c82fdb0bae774387a724",
  "linkReferences": {},
  "deployedLinkReferences": {}
}