{
  "_format": "hh-sol-artifact-1",
  "contractName": "ISNADRegistry",
  "sourceName": "contracts/ISNADRegistry.sol",
  "abi": [
    {
      "anonymous": false,
      "inputs": [
        {
          "indexed": true,
          "internalType": "bytes32",
          "name": "contentHash",
          "type": "bytes32"
        },
        {
          "indexed": false,
          "internalType": "uint16",
          "name": "chunkIndex",
          "type": "uint16"
        },
        {
          "indexed": false,
          "internalType": "uint16",
          "name": "totalChunks",
          "type": "uint16"
        },
        {
          "indexed": true,
          "internalType": "address",
          "name": "author",
          "type": "address"
        }
      ],
      "name": "ChunkInscribed",
      "type": "event"
    },
    {
      "anonymous": false,
      "inputs": [
        {
          "indexed": true,
          "internalType": "bytes32",
          "name": "contentHash",
          "type": "bytes32"
        },
        {
          "indexed": true,
          "internalType": "bytes32",
          "name": "supersededBy",
          "type": "bytes32"
        },
        {
          "indexed": true,
          "internalType": "address",
          "name": "author",
          "type": "address"
        }
      ],
      "name": "ResourceDeprecated",
      "type": "event"
    },
    {
      "anonymous": false,
      "inputs": [
        {
          "indexed": true,
          "internalType": "bytes32",
          "name": "contentHash",
          "type": "bytes32"
        },
        {
          "indexed": true,
          "internalType": "uint8",
          "name": "resourceType",
          "type": "uint8"
        },
        {
          "indexed": true,
          "internalType": "address",
          "name": "author",
          "type": "address"
        },
        {
          "indexed": false,
          "internalType": "uint256",
          "name": "blockNumber",
          "type": "uint256"
        },
        {
          "indexed": false,
          "internalType": "string",
          "name": "metadata",
          "type": "string"
        }
      ],
      "name": "ResourceInscribed",
      "type": "event"
    },
    {
      "inputs": [],
      "name": "TYPE_AGENT_CARD",
      "outputs": [
        {
          "internalType": "uint8",
          "name": "",
          "type": "uint8"
        }
      ],
      "stateMutability": "view",
      "type": "function"
    },
    {
      "inputs": [],
      "name": "TYPE_MODEL_CARD",
      "outputs": [
        {
          "internalType": "uint8",
          "name": "",
          "type": "uint8"
        }
      ],
      "stateMutability": "view",
      "type": "function"
    },
    {
      "inputs": [],
      "name": "TYPE_PROMPT",
      "outputs": [
        {
          "internalType": "uint8",
          "name": "",
          "type": "uint8"
        }
      ],
      "stateMutability": "view",
      "type": "function"
    },
    {
      "inputs": [],
      "name": "TYPE_RAW",
      "outputs": [
        {
          "internalType": "uint8",
          "name": "",
          "type": "uint8"
        }
      ],
      "stateMutability": "view",
      "type": "function"
    },
    {
      "inputs": [],
      "name": "TYPE_TOOL_SPEC",
      "outputs": [
        {
          "internalType": "uint8",
          "name": "",
          "type": "uint8"
        }
      ],
      "stateMutability": "view",
      "type": "function"
    },
    {
      "inputs": [],
      "name": "TYPE_TRAINING",
      "outputs": [
        {
          "internalType": "uint8",
          "name": "",
          "type": "uint8"
        }
      ],
      "stateMutability": "view",
      "type": "function"
    },
    {
      "inputs": [],
      "name": "TYPE_WORKFLOW",
      "outputs": [
        {
          "internalType": "uint8",
          "name": "",
          "type": "uint8"
        }
      ],
      "stateMutability": "view",
      "type": "function"
    },
    {
      "inputs": [
        {
          "internalType": "bytes32",
          "name": "",
          "type": "bytes32"
        }
      ],
      "name": "author",
      "outputs": [
        {
          "internalType": "address",
          "name": "",
          "type": "address"
        }
      ],
      "stateMutability": "view",
      "type": "function"
    },
    {
      "inputs": [
        {
          "internalType": "bytes32",
          "name": "",
          "type": "bytes32"
        }
      ],
      "name": "blockNumber",
      "outputs": [
        {
          "internalType": "uint256",
          "name": "",
          "type": "uint256"
        }
      ],
      "stateMutability": "view",
      "type": "function"
    },
    {
      "inputs": [
        {
          "internalType": "bytes32",
          "name": "contentHash",
          "type": "bytes32"
        },
        {
          "internalType": "bytes32",
          "name": "newContentHash",
          "type": "bytes32"
        }
      ],
      "name": "deprecate",
      "outputs": [],
      "stateMutability": "nonpayable",
      "type": "function"
    },
    {
      "inputs": [
        {
          "internalType": "bytes32",
          "name": "",
          "type": "bytes32"
        }
      ],
      "name": "exists",
      "outputs": [
        {
          "internalType": "bool",
          "name": "",
          "type": "bool"
        }
      ],
      "stateMutability": "view",
      "type": "function"
    },
    {
      "inputs": [
        {
          "internalType": "bytes32",
          "name": "contentHash",
          "type": "bytes32"
        }
      ],
      "name": "getChunkStatus",
      "outputs": [
        {
          "internalType": "bool",
          "name": "pending",
          "type": "bool"
        },
        {
          "internalType": "uint16",
          "name": "received",
          "type": "uint16"
        },
        {
          "internalType": "uint16",
          "name": "total",
          "type": "uint16"
        },
        {
          "internalType": "address",
          "name": "chunkAuthor",
          "type": "address"
        }
      ],
      "stateMutability": "view",
      "type": "function"
    },
    {
      "inputs": [
        {
          "internalType": "bytes32",
          "name": "contentHash",
          "type": "bytes32"
        }
      ],
      "name": "getResource",
      "outputs": [
        {
          "internalType": "bool",
          "name": "inscribed",
          "type": "bool"
        },
        {
          "internalType": "address",
          "name": "resourceAuthor",
          "type": "address"
        },
        {
          "internalType": "uint256",
          "name": "inscribedBlock",
          "type": "uint256"
        },
        {
          "internalType": "bytes32",
          "name": "successor",
          "type": "bytes32"
        }
      ],
      "stateMutability": "view",
      "type": "function"
    },
    {
      "inputs": [
        {
          "internalType": "bytes32",
          "name": "contentHash",
          "type": "bytes32"
        },
        {
          "internalType": "uint8",
          "name": "resourceType",
          "type": "uint8"
        },
        {
          "internalType": "string",
          "name": "metadata",
          "type": "string"
        },
        {
          "internalType": "bytes",
          "name": "content",
          "type": "bytes"
        }
      ],
      "name": "inscribe",
      "outputs": [],
      "stateMutability": "nonpayable",
      "type": "function"
    },
    {
      "inputs": [
        {
          "internalType": "bytes32",
          "name": "contentHash",
          "type": "bytes32"
        },
        {
          "internalType": "uint16",
          "name": "chunkIndex",
          "type": "uint16"
        },
        {
          "internalType": "uint16",
          "name": "totalChunks",
          "type": "uint16"
        },
        {
          "internalType": "uint8",
          "name": "resourceType",
          "type": "uint8"
        },
        {
          "internalType": "string",
          "name": "metadata",
          "type": "string"
        },
        {
          "internalType": "bytes",
          "name": "chunkData",
          "type": "bytes"
        }
      ],
      "name": "inscribeChunk",
      "outputs": [],
      "stateMutability": "nonpayable",
      "type": "function"
    },
    {
      "inputs": [
        {
          "internalType": "bytes32",
          "name": "contentHash",
          "type": "bytes32"
        }
      ],
      "name": "isDeprecated",
      "outputs": [
        {
          "internalType": "bool",
          "name": "",
          "type": "bool"
        }
      ],
      "stateMutability": "view",
      "type": "function"
    },
    {
      "inputs": [
        {
          "internalType": "bytes32",
          "name": "",
          "type": "bytes32"
        }
      ],
      "name": "pendingChunks",
      "outputs": [
        {
          "internalType": "bytes32",
          "name": "contentHash",
          "type": "bytes32"
        },
        {
          "internalType": "uint16",
          "name": "totalChunks",
          "type": "uint16"
        },
        {
          "internalType": "uint16",
          "name": "receivedChunks",
          "type": "uint16"
        },
        {
          "internalType": "address",
          "name": "author",
          "type": "address"
        }
      ],
      "stateMutability": "view",
      "type": "function"
    },
    {
      "inputs": [
        {
          "internalType": "bytes32",
          "name": "",
          "type": "bytes32"
        }
      ],
      "name": "supersededBy",
      "outputs": [
        {
          "internalType": "bytes32",
          "name": "",
          "type": "bytes32"
        }
      ],
      "stateMutability": "view",
      "type": "function"
    }
  ],
  "bytecode": "0x608060405234801561000f575f80fd5b50610e5a8061001d5f395ff3fe608060405234801561000f575f80fd5b5060043610610111575f3560e01c8063a23ccd511161009e578063c98a5fe11161006e578063c98a5fe1146103a1578063d3d6e82e146103a9578063eb069a8a146103b0578063ed1d2887146103b8578063f33e54e3146103d7575f80fd5b8063a23ccd51146102db578063af1f8cbb146102e3578063b2b5c81914610323578063b4d6af8a1461032b575f80fd5b806334132db6116100e457806334132db61461020d57806338a699a41461028957806338bc7435146102ab57806375c88124146102c057806399bdd636146102d3575f80fd5b8063094c890f146101155780630de4d5c014610134578063120a2c3d146101655780631ceb83e9146101e0575b5f80fd5b61011d600581565b60405160ff90911681526020015b60405180910390f35b610155610142366004610bd3565b5f90815260036020526040902054151590565b604051901515815260200161012b565b6101aa610173366004610bd3565b5f9081526004602052604090206001015464010000000081046001600160a01b03168015159261ffff620100008404811693169190565b60405161012b9493929190931515845261ffff9283166020850152911660408301526001600160a01b0316606082015260800190565b6101ff6101ee366004610bd3565b60036020525f908152604090205481565b60405190815260200161012b565b61025561021b366004610bd3565b60046020525f90815260409020805460019091015461ffff808216916201000081049091169064010000000090046001600160a01b031684565b60405161012b949392919093845261ffff9283166020850152911660408301526001600160a01b0316606082015260800190565b610155610297366004610bd3565b5f6020819052908152604090205460ff1681565b6102be6102b9366004610bea565b6103ea565b005b6102be6102ce366004610c64565b610533565b61011d600481565b61011d600181565b61030b6102f1366004610bd3565b60016020525f90815260409020546001600160a01b031681565b6040516001600160a01b03909116815260200161012b565b61011d600381565b610377610339366004610bd3565b5f9081526020818152604080832054600183528184205460028452828520546003909452919093205460ff909316936001600160a01b039091169290565b6040805194151585526001600160a01b03909316602085015291830152606082015260800161012b565b61011d600281565b61011d5f81565b61011d600681565b6101ff6103c6366004610bd3565b60026020525f908152604090205481565b6102be6103e5366004610cf9565b610774565b5f8281526020819052604090205460ff166104415760405162461bcd60e51b815260206004820152601260248201527114995cdbdd5c98d9481b9bdd08199bdd5b9960721b60448201526064015b60405180910390fd5b5f828152600160205260409020546001600160a01b031633146104935760405162461bcd60e51b815260206004820152600a6024820152692737ba1030baba3437b960b11b6044820152606401610438565b5f82815260036020526040902054156104e35760405162461bcd60e51b8152602060048201526012602482015271105b1c9958591e4819195c1c9958d85d195960721b6044820152606401610438565b80156104ef57806104f2565b60015b5f838152600360205260408082209290925590513391839185917f1e6399173b4ccd593844cebb6528627794cc752f5ddc10f1a9cc2f26d752bb6a91a45050565b5f8681526020819052604090205460ff16156105855760405162461bcd60e51b8152602060048201526011602482015270105b1c9958591e481a5b9cd8dc9a589959607a1b6044820152606401610438565b600660ff861611156105d15760405162461bcd60e51b8152602060048201526015602482015274496e76616c6964207265736f75726365207479706560581b6044820152606401610438565b6108008311156106175760405162461bcd60e51b81526020600482015260116024820152704d6574616461746120746f6f206c6f6e6760781b6044820152606401610438565b806106545760405162461bcd60e51b815260206004820152600d60248201526c115b5c1d1e4818dbdb9d195b9d609a1b6044820152606401610438565b5f60028383604051610667929190610d9d565b602060405180830381855afa158015610682573d5f803e3d5ffd5b5050506040513d601f19601f820116820180604052508101906106a59190610dac565b90508681146106e65760405162461bcd60e51b815260206004820152600d60248201526c090c2e6d040dad2e6dac2e8c6d609b1b6044820152606401610438565b5f87815260208181526040808320805460ff19166001908117909155825280832080546001600160a01b0319163390811790915560029092529182902043908190559151909160ff8916918a917f402531f8214bfa7fd274f028ff5aa496e8ace2227116528db551894829bb6f529161076391908b908b90610dc3565b60405180910390a450505050505050565b5f8881526020819052604090205460ff16156107c65760405162461bcd60e51b8152602060048201526011602482015270105b1c9958591e481a5b9cd8dc9a589959607a1b6044820152606401610438565b8561ffff168761ffff16106108135760405162461bcd60e51b8152602060048201526013602482015272092dcecc2d8d2c840c6d0eadcd640d2dcc8caf606b1b6044820152606401610438565b60018661ffff16116108675760405162461bcd60e51b815260206004820152601f60248201527f55736520696e736372696265282920666f722073696e676c65206368756e6b006044820152606401610438565b60648661ffff1611156108ae5760405162461bcd60e51b815260206004820152600f60248201526e546f6f206d616e79206368756e6b7360881b6044820152606401610438565b806108e95760405162461bcd60e51b815260206004820152600b60248201526a456d707479206368756e6b60a81b6044820152606401610438565b5f8881526004602052604081209061ffff891690036109e757600181015464010000000090046001600160a01b03161561095d5760405162461bcd60e51b81526020600482015260156024820152744368756e6b2073657175656e63652065786973747360581b6044820152606401610438565b600660ff871611156109a95760405162461bcd60e51b8152602060048201526015602482015274496e76616c6964207265736f75726365207479706560581b6044820152606401610438565b8881556001810180546401000000003302640100000000600160c01b031963ffffffff1990921661ffff8b1617620100001791909116179055610ac7565b600181015464010000000090046001600160a01b03163314610a3e5760405162461bcd60e51b815260206004820152601060248201526f2737ba1031b43ab7359030baba3437b960811b6044820152606401610438565b600181015461ffff888116911614610a8f5760405162461bcd60e51b8152602060048201526014602482015273086d0eadcd640c6deeadce840dad2e6dac2e8c6d60631b6044820152606401610438565b60018101805462010000900461ffff16906002610aab83610df8565b91906101000a81548161ffff021916908361ffff160217905550505b6040805161ffff808b1682528916602082015233918b917f7838723ab20e5d1a9bfda2356f1fd6670cb53e1460bd64acf48ed4d195edd108910160405180910390a3600181015461ffff808916620100009092041603610bc8575f89815260208181526040808320805460ff19166001908117909155825280832080546001600160a01b0319163390811790915560029092529182902043908190559151909160ff8916918c917f402531f8214bfa7fd274f028ff5aa496e8ace2227116528db551894829bb6f5291610b9e91908b908b90610dc3565b60405180910390a45f89815260046020526040812090815560010180546001600160c01b03191690555b505050505050505050565b5f60208284031215610be3575f80fd5b5035919050565b5f8060408385031215610bfb575f80fd5b50508035926020909101359150565b803560ff81168114610c1a575f80fd5b919050565b5f8083601f840112610c2f575f80fd5b50813567ffffffffffffffff811115610c46575f80fd5b602083019150836020828501011115610c5d575f80fd5b9250929050565b5f805f805f8060808789031215610c79575f80fd5b86359550610c8960208801610c0a565b9450604087013567ffffffffffffffff80821115610ca5575f80fd5b610cb18a838b01610c1f565b90965094506060890135915080821115610cc9575f80fd5b50610cd689828a01610c1f565b979a9699509497509295939492505050565b803561ffff81168114610c1a575f80fd5b5f805f805f805f8060c0898b031215610d10575f80fd5b88359750610d2060208a01610ce8565b9650610d2e60408a01610ce8565b9550610d3c60608a01610c0a565b9450608089013567ffffffffffffffff80821115610d58575f80fd5b610d648c838d01610c1f565b909650945060a08b0135915080821115610d7c575f80fd5b50610d898b828c01610c1f565b999c989b5096995094979396929594505050565b818382375f9101908152919050565b5f60208284031215610dbc575f80fd5b5051919050565b83815260406020820152816040820152818360608301375f818301606090810191909152601f909201601f1916010192915050565b5f61ffff808316818103610e1a57634e487b7160e01b5f52601160045260245ffd5b600101939250505056fea26469706673582212205d4b3a1c60fb1d31bde62e5623e9d248bc9f8069ec53ae03d8e047fb448fdb4464736f6c63430008180033",
  "linkReferences": {},
  "deployedLinkReferences": {}
}