{
  "_format": "hh-sol-artifact-1",
  "contractName": "ISNADRegistry",
  "sourceName": "contracts/ISNADRegistry.sol",
  "abi": [
    {
      "anonymous": false,
      "inputs": [
        {
          "indexed": true,
          "internalType": "bytes32",
          "name": "contentHash",
          "type": "bytes32"
        },
        {
          "indexed": true,
          "internalType": "address",
          "name": "originalAuthor",
          "type": "address"
        }
      ],
      "name": "ChunkCleanedUp",
      "type": "event"
    },
    {
      "anonymous": false,
      "inputs": [
        {
          "indexed": true,
          "internalType": "bytes32",
          "name": "contentHash",
          "type": "bytes32"
        },
        {
          "indexed": false,
          "internalType": "uint16",
          "name": "chunkIndex",
          "type": "uint16"
        },
        {
          "indexed": false,
          "internalType": "uint16",
          "name": "totalChunks",
          "type": "uint16"
        },
        {
          "indexed": true,
          "internalType": "address",
          "name": "author",
          "type": "address"
        }
      ],
      "name": "ChunkInscribed",
      "type": "event"
    },
    {
      "anonymous": false,
      "inputs": [
        {
          "indexed": true,
          "internalType": "bytes32",
          "name": "contentHash",
          "type": "bytes32"
        },
        {
          "indexed": true,
          "internalType": "bytes32",
          "name": "supersededBy",
          "type": "bytes32"
        },
        {
          "indexed": true,
          "internalType": "address",
          "name": "author",
          "type": "address"
        }
      ],
      "name": "ResourceDeprecated",
      "type": "event"
    },
    {
      "anonymous": false,
      "inputs": [
        {
          "indexed": true,
          "internalType": "bytes32",
          "name": "contentHash",
          "type": "bytes32"
        },
        {
          "indexed": true,
          "internalType": "uint8",
          "name": "resourceType",
          "type": "uint8"
        },
        {
          "indexed": true,
          "internalType": "address",
          "name": "author",
          "type": "address"
        },
        {
          "indexed": false,
          "internalType": "uint256",
          "name": "blockNumber",
          "type": "uint256"
        },
        {
          "indexed": false,
          "internalType": "string",
          "name": "metadata",
          "type": "string"
        }
      ],
      "name": "ResourceInscribed",
      "type": "event"
    },
    {
      "inputs": [],
      "name": "CHUNK_TIMEOUT",
      "outputs": [
        {
          "internalType": "uint256",
          "name": "",
          "type": "uint256"
        }
      ],
      "stateMutability": "view",
      "type": "function"
    },
    {
      "inputs": [],
      "name": "TYPE_AGENT_CARD",
      "outputs": [
        {
          "internalType": "uint8",
          "name": "",
          "type": "uint8"
        }
      ],
      "stateMutability": "view",
      "type": "function"
    },
    {
      "inputs": [],
      "name": "TYPE_MODEL_CARD",
      "outputs": [
        {
          "internalType": "uint8",
          "name": "",
          "type": "uint8"
        }
      ],
      "stateMutability": "view",
      "type": "function"
    },
    {
      "inputs": [],
      "name": "TYPE_PROMPT",
      "outputs": [
        {
          "internalType": "uint8",
          "name": "",
          "type": "uint8"
        }
      ],
      "stateMutability": "view",
      "type": "function"
    },
    {
      "inputs": [],
      "name": "TYPE_RAW",
      "outputs": [
        {
          "internalType": "uint8",
          "name": "",
          "type": "uint8"
        }
      ],
      "stateMutability": "view",
      "type": "function"
    },
    {
      "inputs": [],
      "name": "TYPE_TOOL_SPEC",
      "outputs": [
        {
          "internalType": "uint8",
          "name": "",
          "type": "uint8"
        }
      ],
      "stateMutability": "view",
      "type": "function"
    },
    {
      "inputs": [],
      "name": "TYPE_TRAINING",
      "outputs": [
        {
          "internalType": "uint8",
          "name": "",
          "type": "uint8"
        }
      ],
      "stateMutability": "view",
      "type": "function"
    },
    {
      "inputs": [],
      "name": "TYPE_WORKFLOW",
      "outputs": [
        {
          "internalType": "uint8",
          "name": "",
          "type": "uint8"
        }
      ],
      "stateMutability": "view",
      "type": "function"
    },
    {
      "inputs": [
        {
          "internalType": "bytes32",
          "name": "",
          "type": "bytes32"
        }
      ],
      "name": "author",
      "outputs": [
        {
          "internalType": "address",
          "name": "",
          "type": "address"
        }
      ],
      "stateMutability": "view",
      "type": "function"
    },
    {
      "inputs": [
        {
          "internalType": "bytes32",
          "name": "",
          "type": "bytes32"
        }
      ],
      "name": "blockNumber",
      "outputs": [
        {
          "internalType": "uint256",
          "name": "",
          "type": "uint256"
        }
      ],
      "stateMutability": "view",
      "type": "function"
    },
    {
      "inputs": [
        {
          "internalType": "bytes32",
          "name": "contentHash",
          "type": "bytes32"
        }
      ],
      "name": "cleanupAbandonedChunk",
      "outputs": [],
      "stateMutability": "nonpayable",
      "type": "function"
    },
    {
      "inputs": [
        {
          "internalType": "bytes32",
          "name": "contentHash",
          "type": "bytes32"
        },
        {
          "internalType": "bytes32",
          "name": "newContentHash",
          "type": "bytes32"
        }
      ],
      "name": "deprecate",
      "outputs": [],
      "stateMutability": "nonpayable",
      "type": "function"
    },
    {
      "inputs": [
        {
          "internalType": "bytes32",
          "name": "",
          "type": "bytes32"
        }
      ],
      "name": "exists",
      "outputs": [
        {
          "internalType": "bool",
          "name": "",
          "type": "bool"
        }
      ],
      "stateMutability": "view",
      "type": "function"
    },
    {
      "inputs": [
        {
          "internalType": "bytes32",
          "name": "contentHash",
          "type": "bytes32"
        }
      ],
      "name": "getChunkStatus",
      "outputs": [
        {
          "internalType": "bool",
          "name": "pending",
          "type": "bool"
        },
        {
          "internalType": "uint16",
          "name": "received",
          "type": "uint16"
        },
        {
          "internalType": "uint16",
          "name": "total",
          "type": "uint16"
        },
        {
          "internalType": "address",
          "name": "chunkAuthor",
          "type": "address"
        },
        {
          "internalType": "uint256",
          "name": "createdAt",
          "type": "uint256"
        }
      ],
      "stateMutability": "view",
      "type": "function"
    },
    {
      "inputs": [
        {
          "internalType": "bytes32",
          "name": "contentHash",
          "type": "bytes32"
        }
      ],
      "name": "getResource",
      "outputs": [
        {
          "internalType": "bool",
          "name": "inscribed",
          "type": "bool"
        },
        {
          "internalType": "address",
          "name": "resourceAuthor",
          "type": "address"
        },
        {
          "internalType": "uint256",
          "name": "inscribedBlock",
          "type": "uint256"
        },
        {
          "internalType": "bytes32",
          "name": "successor",
          "type": "bytes32"
        }
      ],
      "stateMutability": "view",
      "type": "function"
    },
    {
      "inputs": [
        {
          "internalType": "bytes32",
          "name": "contentHash",
          "type": "bytes32"
        },
        {
          "internalType": "uint8",
          "name": "resourceType",
          "type": "uint8"
        },
        {
          "internalType": "string",
          "name": "metadata",
          "type": "string"
        },
        {
          "internalType": "bytes",
          "name": "content",
          "type": "bytes"
        }
      ],
      "name": "inscribe",
      "outputs": [],
      "stateMutability": "nonpayable",
      "type": "function"
    },
    {
      "inputs": [
        {
          "internalType": "bytes32",
          "name": "contentHash",
          "type": "bytes32"
        },
        {
          "internalType": "uint16",
          "name": "chunkIndex",
          "type": "uint16"
        },
        {
          "internalType": "uint16",
          "name": "totalChunks",
          "type": "uint16"
        },
        {
          "internalType": "uint8",
          "name": "resourceType",
          "type": "uint8"
        },
        {
          "internalType": "string",
          "name": "metadata",
          "type": "string"
        },
        {
          "internalType": "bytes",
          "name": "chunkData",
          "type": "bytes"
        }
      ],
      "name": "inscribeChunk",
      "outputs": [],
      "stateMutability": "nonpayable",
      "type": "function"
    },
    {
      "inputs": [
        {
          "internalType": "bytes32",
          "name": "contentHash",
          "type": "bytes32"
        }
      ],
      "name": "isDeprecated",
      "outputs": [
        {
          "internalType": "bool",
          "name": "",
          "type": "bool"
        }
      ],
      "stateMutability": "view",
      "type": "function"
    },
    {
      "inputs": [
        {
          "internalType": "bytes32",
          "name": "",
          "type": "bytes32"
        }
      ],
      "name": "pendingChunks",
      "outputs": [
        {
          "internalType": "bytes32",
          "name": "contentHash",
          "type": "bytes32"
        },
        {
          "internalType": "uint16",
          "name": "totalChunks",
          "type": "uint16"
        },
        {
          "internalType": "uint16",
          "name": "receivedChunks",
          "type": "uint16"
        },
        {
          "internalType": "address",
          "name": "author",
          "type": "address"
        },
        {
          "internalType": "uint256",
          "name": "createdAt",
          "type": "uint256"
        }
      ],
      "stateMutability": "view",
      "type": "function"
    },
    {
      "inputs": [
        {
          "internalType": "bytes32",
          "name": "",
          "type": "bytes32"
        }
      ],
      "name": "supersededBy",
      "outputs": [
        {
          "internalType": "bytes32",
          "name": "",
          "type": "bytes32"
        }
      ],
      "stateMutability": "view",
      "type": "function"
    }
  ],
  "bytecode": "0x608060405234801561000f575f80fd5b50610ff48061001d5f395ff3fe608060405234801561000f575f80fd5b5060043610610127575f3560e01c8063a23ccd51116100a9578063c98a5fe11161006e578063c98a5fe1146103e9578063d3d6e82e146103f1578063eb069a8a146103f8578063ed1d288714610400578063f33e54e31461041f575f80fd5b8063a23ccd5114610319578063af1f8cbb14610321578063b2b5c81914610361578063b4d6af8a14610369578063c89af970146103df575f80fd5b806338a699a4116100ef57806338a699a4146102b457806338bc7435146102d657806375c88124146102eb5780637ce6bc8b146102fe57806399bdd63614610311575f80fd5b8063094c890f1461012b5780630de4d5c01461014a578063120a2c3d1461017b5780631ceb83e91461020057806334132db61461022d575b5f80fd5b610133600581565b60405160ff90911681526020015b60405180910390f35b61016b610158366004610d4c565b5f90815260036020526040902054151590565b6040519015158152602001610141565b6101c6610189366004610d4c565b5f9081526004602052604090206001810154600290910154600160201b82046001600160a01b03168015159361ffff620100008504811694169290565b60408051951515865261ffff948516602087015292909316918401919091526001600160a01b03166060830152608082015260a001610141565b61021f61020e366004610d4c565b60036020525f908152604090205481565b604051908152602001610141565b61027c61023b366004610d4c565b60046020525f9081526040902080546001820154600290920154909161ffff8082169262010000830490911691600160201b90046001600160a01b03169085565b6040805195865261ffff948516602087015292909316918401919091526001600160a01b03166060830152608082015260a001610141565b61016b6102c2366004610d4c565b5f6020819052908152604090205460ff1681565b6102e96102e4366004610d63565b610432565b005b6102e96102f9366004610ddd565b61057b565b6102e961030c366004610d4c565b6107bc565b610133600481565b610133600181565b61034961032f366004610d4c565b60016020525f90815260409020546001600160a01b031681565b6040516001600160a01b039091168152602001610141565b610133600381565b6103b5610377366004610d4c565b5f9081526020818152604080832054600183528184205460028452828520546003909452919093205460ff909316936001600160a01b039091169290565b6040805194151585526001600160a01b039093166020850152918301526060820152608001610141565b61021f6201518081565b610133600281565b6101335f81565b610133600681565b61021f61040e366004610d4c565b60026020525f908152604090205481565b6102e961042d366004610e72565b6108e5565b5f8281526020819052604090205460ff166104895760405162461bcd60e51b815260206004820152601260248201527114995cdbdd5c98d9481b9bdd08199bdd5b9960721b60448201526064015b60405180910390fd5b5f828152600160205260409020546001600160a01b031633146104db5760405162461bcd60e51b815260206004820152600a6024820152692737ba1030baba3437b960b11b6044820152606401610480565b5f828152600360205260409020541561052b5760405162461bcd60e51b8152602060048201526012602482015271105b1c9958591e4819195c1c9958d85d195960721b6044820152606401610480565b8015610537578061053a565b60015b5f838152600360205260408082209290925590513391839185917f1e6399173b4ccd593844cebb6528627794cc752f5ddc10f1a9cc2f26d752bb6a91a45050565b5f8681526020819052604090205460ff16156105cd5760405162461bcd60e51b8152602060048201526011602482015270105b1c9958591e481a5b9cd8dc9a589959607a1b6044820152606401610480565b600660ff861611156106195760405162461bcd60e51b8152602060048201526015602482015274496e76616c6964207265736f75726365207479706560581b6044820152606401610480565b61080083111561065f5760405162461bcd60e51b81526020600482015260116024820152704d6574616461746120746f6f206c6f6e6760781b6044820152606401610480565b8061069c5760405162461bcd60e51b815260206004820152600d60248201526c115b5c1d1e4818dbdb9d195b9d609a1b6044820152606401610480565b5f600283836040516106af929190610f16565b602060405180830381855afa1580156106ca573d5f803e3d5ffd5b5050506040513d601f19601f820116820180604052508101906106ed9190610f25565b905086811461072e5760405162461bcd60e51b815260206004820152600d60248201526c090c2e6d040dad2e6dac2e8c6d609b1b6044820152606401610480565b5f87815260208181526040808320805460ff19166001908117909155825280832080546001600160a01b0319163390811790915560029092529182902043908190559151909160ff8916918a917f402531f8214bfa7fd274f028ff5aa496e8ace2227116528db551894829bb6f52916107ab91908b908b90610f3c565b60405180910390a450505050505050565b5f8181526004602052604090206001810154600160201b90046001600160a01b031661081d5760405162461bcd60e51b815260206004820152601060248201526f4e6f2070656e64696e67206368756e6b60801b6044820152606401610480565b6201518081600201546108309190610f85565b4210156108755760405162461bcd60e51b8152602060048201526013602482015272151a5b595bdd5d081b9bdd081c995858da1959606a1b6044820152606401610480565b6001818101545f8481526004602052604080822082815593840180546001600160c01b031916905560029093018190559151600160201b9091046001600160a01b031691829185917f377d300e76b82408f2383c511fe4d3c42bf564883a8863a5daee36a6d7312cb591a3505050565b5f8881526020819052604090205460ff16156109375760405162461bcd60e51b8152602060048201526011602482015270105b1c9958591e481a5b9cd8dc9a589959607a1b6044820152606401610480565b8561ffff168761ffff16106109845760405162461bcd60e51b8152602060048201526013602482015272092dcecc2d8d2c840c6d0eadcd640d2dcc8caf606b1b6044820152606401610480565b60018661ffff16116109d85760405162461bcd60e51b815260206004820152601f60248201527f55736520696e736372696265282920666f722073696e676c65206368756e6b006044820152606401610480565b60648661ffff161115610a1f5760405162461bcd60e51b815260206004820152600f60248201526e546f6f206d616e79206368756e6b7360881b6044820152606401610480565b80610a5a5760405162461bcd60e51b815260206004820152600b60248201526a456d707479206368756e6b60a81b6044820152606401610480565b5f8881526004602052604081209061ffff89169003610b5c576001810154600160201b90046001600160a01b031615610acd5760405162461bcd60e51b81526020600482015260156024820152744368756e6b2073657175656e63652065786973747360581b6044820152606401610480565b600660ff87161115610b195760405162461bcd60e51b8152602060048201526015602482015274496e76616c6964207265736f75726365207479706560581b6044820152606401610480565b888155600181018054600160201b3302640100000000600160c01b031963ffffffff1990921661ffff8b1617620100001791909116179055426002820155610c3b565b6001810154600160201b90046001600160a01b03163314610bb25760405162461bcd60e51b815260206004820152601060248201526f2737ba1031b43ab7359030baba3437b960811b6044820152606401610480565b600181015461ffff888116911614610c035760405162461bcd60e51b8152602060048201526014602482015273086d0eadcd640c6deeadce840dad2e6dac2e8c6d60631b6044820152606401610480565b60018101805462010000900461ffff16906002610c1f83610f9e565b91906101000a81548161ffff021916908361ffff160217905550505b6040805161ffff808b1682528916602082015233918b917f7838723ab20e5d1a9bfda2356f1fd6670cb53e1460bd64acf48ed4d195edd108910160405180910390a3600181015461ffff808916620100009092041603610d41575f89815260208181526040808320805460ff19166001908117909155825280832080546001600160a01b0319163390811790915560029092529182902043908190559151909160ff8916918c917f402531f8214bfa7fd274f028ff5aa496e8ace2227116528db551894829bb6f5291610d1291908b908b90610f3c565b60405180910390a45f8981526004602052604081208181556001810180546001600160c01b0319169055600201555b505050505050505050565b5f60208284031215610d5c575f80fd5b5035919050565b5f8060408385031215610d74575f80fd5b50508035926020909101359150565b803560ff81168114610d93575f80fd5b919050565b5f8083601f840112610da8575f80fd5b50813567ffffffffffffffff811115610dbf575f80fd5b602083019150836020828501011115610dd6575f80fd5b9250929050565b5f805f805f8060808789031215610df2575f80fd5b86359550610e0260208801610d83565b9450604087013567ffffffffffffffff80821115610e1e575f80fd5b610e2a8a838b01610d98565b90965094506060890135915080821115610e42575f80fd5b50610e4f89828a01610d98565b979a9699509497509295939492505050565b803561ffff81168114610d93575f80fd5b5f805f805f805f8060c0898b031215610e89575f80fd5b88359750610e9960208a01610e61565b9650610ea760408a01610e61565b9550610eb560608a01610d83565b9450608089013567ffffffffffffffff80821115610ed1575f80fd5b610edd8c838d01610d98565b909650945060a08b0135915080821115610ef5575f80fd5b50610f028b828c01610d98565b999c989b5096995094979396929594505050565b818382375f9101908152919050565b5f60208284031215610f35575f80fd5b5051919050565b83815260406020820152816040820152818360608301375f818301606090810191909152601f909201601f1916010192915050565b634e487b7160e01b5f52601160045260245ffd5b80820180821115610f9857610f98610f71565b92915050565b5f61ffff808316818103610fb457610fb4610f71565b600101939250505056fea264697066735822122023d11b71f2753c9c42d46d9ee171413fd3f461c20f89ae00f551faf734211e4964736f6c63430008180033",
  "linkReferences": {},
  "deployedLinkReferences": {}
}